:020000040000FA
:040000000DEF00F010
:040008009FEF35F041
:06001800FF0060EF36F06E
:1026000000000000000000000000000000000000CA
:1026100000000000000000000000000000000000BA
:102620000000000000000000010203040506070886
:102630005001526561643A206E6F6E2D766F6C6149
:1026400074696C6520766F6C746167652076616C67
:1026500075652025662C20616E6420766F6C617430
:10266000696C6520766F6C746167652076616C7546
:10267000652025660053657420746865206E6F6E52
:102680002D766F6C6174696C6520766F6C74616710
:102690006520746F203156200A00536574207468D9
:1026A0006520766F6C6174696C6520766F6C7461FF
:1026B000676520746F203256200A0000BEC597F56A
:1026C000BFC598F5C0C599F5C1C59AF5C2C59BF5BA
:1026D000C3C59CF5C4C59DF5C5C59EF5D4EC3BF0BE
:1026E00097C5DEF598C5DFF599C5E0F59AC5E1F522
:1026F0006100F0F6D9F46100F4F6DAF4610078F3E1
:102700007EF5610078F37FF5610078F380F5610074
:1027100078F381F5DEC582F5DFC583F5E0C584F584
:10272000E1C585F52EEC1CF07EC5C6F57FC5C7F565
:1027300080C5C8F581C5C9F5000E0501826F000E80
:10274000836F000E846F3F0E856F20EE04F0BC5146
:10275000D926BD51DA22610078F37EF5610078F365
:102760007FF5610078F380F5610078F381F52EEC58
:102770001CF07EC5D6F57FC5D7F580C5D8F581C5D7
:10278000D9F5050120EE20F0BC51D926BD51DA2241
:10279000610078F382F5610078F383F5610078F3E6
:1027A00084F5610078F385F5D6C57EF5D7C57FF54C
:1027B000D8C580F5D9C581F52EEC1CF07EC5DAF5BB
:1027C0007FC5DBF580C5DCF581C5DDF5DAC582F5B1
:1027D000DBC583F5DCC584F5DDC585F5DEC572F5A1
:1027E000DFC573F5E0C574F5E1C575F5050120EEAB
:1027F00028F0BC51D926BD51DA22610078F36EF57C
:10280000610078F36FF5610078F370F5610078F39B
:1028100071F56DEC17F06EC57EF56FC57FF570C56F
:1028200080F571C581F52EEC1CF07EC5CAF57FC51B
:10283000CBF580C5CCF581C5CDF5CAC56EF5CBC548
:102840006FF5CCC570F5CDC571F5050120EE24F00E
:10285000BC51D926BD51DA22610078F372F56100CE
:1028600078F373F5610078F374F5610078F375F52A
:102870006DEC17F0050120EE24F0BC51D926BD51B6
:10288000DA226100B8F5DEF46100BCF5DEF4610027
:10289000C0F5DEF46100C4F5DEF420EE1CF0BC519E
:1028A000D926BD51DA22610078F360F5610078F332
:1028B00061F5610078F362F5610078F363F520EE6D
:1028C00024F0BC51D926BD51DA22610078F364F5B9
:1028D000610078F365F5610078F366F5610078F3DF
:1028E00067F5D2EC2FF00501D8B079EF14F07BEF4B
:1028F00014F091EF14F020EE1CF0BC51D926BD511C
:10290000DA2210EE24F0BC51E126BD51E222DEC4F1
:10291000E6F4DEC4E6F4DEC4E6F4DEC4E6F4D3EFA7
:1029200014F020EE24F0BC51D926BD51DA2261000A
:1029300078F360F5610078F361F5610078F362F592
:10294000610078F363F520EE18F0BC51D926BD5133
:10295000DA22610078F364F5610078F365F56100CF
:1029600078F366F5610078F367F5D2EC2FF0050196
:10297000D8B0BDEF14F0BFEF14F0D3EF14F020EE99
:1029800018F0BC51D926BD51DA2210EE24F0BC510A
:10299000E126BD51E222DEC4E6F4DEC4E6F4DEC484
:1029A000E6F4DEC4E6F420EE20F0BC51D926BD5199
:1029B000DA22610078F39BF5610078F39CF5610001
:1029C00078F39DF5610078F39EF5000E826F000E9E
:1029D000836F000E846F400E856F20EE0CF0BC51AB
:1029E000D926BD51DA22610078F37EF5610078F3D3
:1029F0007FF5610078F380F5610078F381F52EECC6
:102A00001CF07EC597F57FC598F580C599F581C501
:102A10009AF5D4EC3BF097C5D6F598C5D7F599C58E
:102A2000D8F59AC5D9F5000E0501826F000E836FA7
:102A3000000E846F400E856F20EE08F0BC51D92641
:102A4000BD51DA22610078F37EF5610078F37FF5FD
:102A5000610078F380F5610078F381F52EEC1CF0CD
:102A60007EC5DAF57FC5DBF580C5DCF581C5DDF512
:102A7000050120EE30F0BC51D926BD51DA226100AB
:102A800078F39BF5610078F39CF5610078F39DF590
:102A9000610078F39EF5C2C597F5C3C598F5C4C526
:102AA00099F5C5C59AF5D4EC3BF097C582F598C564
:102AB00083F599C584F59AC585F5DAC57EF5DBC53C
:102AC0007FF5DCC580F5DDC581F52EEC1CF07EC5FB
:102AD000CEF57FC5CFF580C5D0F581C5D1F505010F
:102AE00020EE2CF0BC51D926BD51DA22610078F3DA
:102AF00082F5610078F383F5610078F384F5610075
:102B000078F385F5D6C57EF5D7C57FF5D8C580F5B0
:102B1000D9C581F52EEC1CF07EC572F57FC573F525
:102B200080C574F581C575F5CEC56EF5CFC56FF559
:102B3000D0C570F5D1C571F56DEC17F06EC59FF578
:102B40006FC5A0F570C5A1F571C5A2F5B4EC3CF058
:102B50009FC5A3F5A0C5A4F5A1C5A5F5A2C5A6F579
:102B6000050120EE20F0BC51D926BD51DA226100CA
:102B700078F372F5610078F373F5610078F374F51A
:102B8000610078F375F5000E826F000E836F000E02
:102B9000846F400E856F20EE0CF0BC51D926BD51DC
:102BA000DA22610078F37EF5610078F37FF5610049
:102BB00078F380F5610078F381F52EEC1CF07EC58A
:102BC0006EF57FC56FF580C570F581C571F56DEC4B
:102BD00017F06EC5A7F56FC5A8F570C5A9F571C545
:102BE000AAF524EC20F0050120EE2CF0BC51D926EA
:102BF000BD51DA2261008CF6DEF4610090F6DEF45D
:102C0000610094F6DEF4610098F6DEF4000E606F69
:102C1000000E616F000E626F400E636F20EE2CF0AD
:102C2000BC51D926BD51DA22610078F364F5610008
:102C300078F365F5610078F366F5610078F367F580
:102C4000D2EC2FF00501D8A028EF16F02AEF16F0ED
:102C50004EEF16F020EE2CF0BC51D926BD51DA22F1
:102C6000610078F360F5610078F361F5610078F355
:102C700062F5610078F363F5000E646F000E656F16
:102C8000000E666FC00E676FD2EC2FF00501D8B052
:102C90004CEF16F04EEF16F05CEF16F020EE24F03D
:102CA000BC51D926BD51DA22000EDE6E000EDE6E5A
:102CB000000EDE6E000EDD6EC6C572F5C7C573F57B
:102CC000C8C574F5C9C575F520EE24F0BC51D926E8
:102CD000BD51DA22610078F36EF5610078F36FF58B
:102CE000610078F370F5610078F371F56DEC17F021
:102CF0006EC5D2F56FC5D3F570C5D4F571C5D5F5E0
:102D0000D2C56EF5D3C56FF5D4C570F5D5C571F5CF
:102D1000050120EE2CF0BC51D926BD51DA2261000C
:102D200078F372F5610078F373F5610078F374F568
:102D3000610078F375F56DEC17F0050120EE34F0C5
:102D4000BC51D926BD51DA226100B8F5DEF461002C
:102D5000BCF5DEF46100C0F5DEF46100C4F5DEF41C
:102D600020EE14F0BC51D926BD51DA22610078F36F
:102D700060F5610078F361F5610078F362F5610058
:102D800078F363F520EE34F0BC51D926BD51DA2238
:102D9000610078F364F5610078F365F5610078F31C
:102DA00066F5610078F367F5D2EC2FF00501D8B035
:102DB000DCEF16F0DEEF16F0F4EF16F020EE14F074
:102DC000BC51D926BD51DA2210EE34F0BC51E126B7
:102DD000BD51E222DEC4E6F4DEC4E6F4DEC4E6F46D
:102DE000DEC4E6F436EF17F020EE34F0BC51D926FD
:102DF000BD51DA22610078F360F5610078F361F586
:102E0000610078F362F5610078F363F520EE10F06D
:102E1000BC51D926BD51DA22610078F364F5610016
:102E200078F365F5610078F366F5610078F367F58E
:102E3000D2EC2FF00501D8B020EF17F022EF17F0F9
:102E400036EF17F020EE10F0BC51D926BD51DA2232
:102E500010EE34F0BC51E126BD51E222DEC4E6F4AE
:102E6000DEC4E6F4DEC4E6F4DEC4E6F420EE28F0C8
:102E7000BC51D926BD51DA22610078F7DEF4610039
:102E80007CF7DEF4610080F7DEF4610084F7DEF4A5
:102E900020EE30F0BC51D926BD51DA22610008F78E
:102EA000DEF461000CF7DEF4610010F7DEF461007F
:102EB00014F7DEF420EE34F0BC51D926BD51DA22ED
:102EC000610078F3BCF5610078F3BDF5610078F33B
:102ED000BEF5610078F3BFF5120005017151800B5A
:102EE0007A6F715171257C6F70AF79EF17F07BEFBE
:102EF00017F07CEF17F07C817C51D8B482EF17F08B
:102F000084EF17F099EF17F07C29D8A48AEF17F017
:102F10008CEF17F094EF17F0000E6E6F000E6F6FCE
:102F2000000E706F000E716F708F000E716FA1EF49
:102F300017F0000E6E6F000E6F6F000E706F000EB8
:102F4000716F7551800B7B6F7A517B19D8B4ABEFE1
:102F500017F0ADEF17F0AEEF17F07A8D75517525BC
:102F60007B6F74AFB6EF17F0B8EF17F0B9EF17F04B
:102F70007B817B51D8B4BFEF17F0C1EF17F0D6EFCC
:102F800017F07B29D8A4C7EF17F0C9EF17F0D1EFDE
:102F900017F0000E726F000E736F000E746F000E4C
:102FA000756F748F000E756FDEEF17F0000E726F85
:102FB000000E736F000E746F000E756F7C517B5D99
:102FC000D8B0E5EF17F0E7EF17F00EEF18F07AAD95
:102FD000ECEF17F0EEEF17F0F0EF17F0800E7A1B22
:102FE0007CC57DF57BC57CF57DC57BF56EC57DF526
:102FF00072C56EF57DC572F56FC57DF573C56FF54C
:103000007DC573F570C57DF574C570F57DC574F526
:1030100071C57DF575C571F57DC575F5000E7D6FC2
:103020007C517BC576F5776B765F000E775B77BF5B
:1030300023EF18F0775109E11A0E765DD8A023EF3F
:1030400018F025EF18F05CEF18F06E516F11701149
:103050007111D8A42EEF18F031EF18F0010E32EFF5
:1030600018F0000E7D6F000E6E6F000E6F6F000E79
:10307000706F000E716F7BC57CF565EF18F07DA158
:1030800044EF18F046EF18F04CEF18F0D8907D316F
:1030900001097D6F4EEF18F0D8907D336EA153EF8C
:1030A00018F055EF18F056EF18F07D8F7135713329
:1030B00070336F336E337C2B7B517C5DD8A063EF14
:1030C00018F065EF18F03FEF18F07ABD6AEF18F0CE
:1030D0006CEF18F0ACEF18F07C51D8A472EF18F038
:1030E00074EF18F07EEF18F0000E6E6F000E6F6F29
:1030F000000E706F000E716FCDEF19F072516E27D8
:1031000073516F23745170237551712371A18BEF2B
:1031100018F08DEF18F039EF19F07DA192EF18F04B
:1031200094EF18F09AEF18F0D8907D3101097D6F77
:103130009CEF18F0D8907D336EA1A1EF18F0A3EFAB
:1031400018F0A4EF18F07D8F7135713370336F3341
:103150006E337C2B39EF19F072516E5D73516F59DC
:10316000745170597151800A766F7551800A765981
:10317000D8B0BDEF18F0BFEF18F0EAEF18F06E51BD
:10318000725D766F6F517359776F70517459786FA4
:1031900071517559796FFF0E76256E6FFF0E77218D
:1031A0006F6FFF0E7821706FFF0E7921716F800EA7
:1031B0007A1B7D6D7D51D8A4E0EF18F0E2EF18F096
:1031C000F2EF18F0010E6E27000E6F2370237123AB
:1031D000F2EF18F072516E5F73516F5B7451705B58
:1031E0007551715B6E516F1170117111D8A4FBEFA5
:1031F00018F0FDEF18F032EF19F07D51D8A403EF6D
:1032000019F005EF19F032EF19F0000E6E6F000E95
:103210006F6F000E706F000E716FCDEF19F0D890C8
:103220006E376F37703771377DAF19EF19F01BEFBD
:1032300019F01CEF19F06E817DA121EF19F023EF39
:1032400019F027EF19F0D8807D3729EF19F0D890C1
:103250007D377C51D8B42FEF19F031EF19F032EFF0
:1032600019F07C0770AF37EF19F039EF19F00FEF55
:1032700019F0000E7B6F7DAF40EF19F042EF19F0AF
:103280005AEF19F07DC576F57F0E7617D8B44BEF5F
:1032900019F04DEF19F051EF19F0010E7B6F5AEF55
:1032A00019F06EA156EF19F058EF19F05AEF19F016
:1032B0004DEF19F07B51D8B460EF19F062EF19F0BF
:1032C0008DEF19F0010E6E27000E6F23702371230E
:1032D00071A16DEF19F06FEF19F08DEF19F06EC558
:1032E00076F56FC577F570C578F571C579F57935DF
:1032F000793378337733763376C56EF577C56FF5E6
:1033000078C570F579C571F57C29D8B48AEF19F0C4
:103310008CEF19F08DEF19F07C2B7C29D8B493EF4A
:1033200019F095EF19F09DEF19F07C51D8A49BEF9F
:1033300019F09DEF19F0AFEF19F0000E6E6F000E4F
:103340006F6F000E706F000E716F7C51D8A4ABEFE1
:1033500019F0ADEF19F0AFEF19F0000E7A6F7CA104
:10336000B4EF19F0B6EF19F0B9EF19F0708FBAEFAA
:1033700019F0709FD8907C31716F7AAFC2EF19F05D
:10338000C4EF19F0C5EF19F0718F6EC56EF56FC5FA
:103390006FF570C570F571C571F512001250800B94
:1033A0001B6E125012241D6E11AED9EF19F0DBEF17
:1033B00019F0DCEF19F01D801D50D8B4E2EF19F0C0
:1033C000E4EF19F0F9EF19F01D28D8A4EAEF19F08D
:1033D000ECEF19F0F4EF19F0000E0F6E000E106E06
:1033E000000E116E000E126E118E000E126E01EFA5
:1033F0001AF0000E0F6E000E106E000E116E000E11
:10340000126E1650800B1C6E1B501C18D8B40BEF9C
:103410001AF00DEF1AF00EEF1AF01B8C165016244E
:103420001C6E15AE16EF1AF018EF1AF019EF1AF01D
:103430001C801C50D8B41FEF1AF021EF1AF036EFA1
:103440001AF01C28D8A427EF1AF029EF1AF031EF50
:103450001AF0000E136E000E146E000E156E000EA4
:10346000166E158E000E166E3EEF1AF0000E136EDD
:10347000000E146E000E156E000E166E1D501C5CB4
:10348000D8B045EF1AF047EF1AF06EEF1AF01BAC08
:103490004CEF1AF04EEF1AF050EF1AF0800E1B1A94
:1034A0001DC51EF51CC51DF51EC51CF50FC51EF559
:1034B00013C50FF51EC513F510C51EF514C510F57F
:1034C0001EC514F511C51EF515C511F51EC515F55A
:1034D00012C51EF516C512F51EC516F5000E1E6E98
:1034E0001D501CC517F5186A175E000E185A18BE35
:1034F00083EF1AF0185009E11A0E175CD8A083EF79
:103500001AF085EF1AF0BCEF1AF00F5010101110DE
:103510001210D8A48EEF1AF091EF1AF0010E92EF6C
:103520001AF0000E1E6E000E0F6E000E106E000ED2
:10353000116E000E126E1CC51DF5C5EF1AF01EA00F
:10354000A4EF1AF0A6EF1AF0ACEF1AF0D8901E30E4
:1035500001091E6EAEEF1AF0D8901E320FA0B3EF25
:103560001AF0B5EF1AF0B6EF1AF01E8E12341232BE
:10357000113210320F321D2A1C501D5CD8A0C3EF2F
:103580001AF0C5EF1AF09FEF1AF01BBCCAEF1AF041
:10359000CCEF1AF00CEF1BF01D50D8A4D2EF1AF0AC
:1035A000D4EF1AF0DEEF1AF0000E0F6E000E106E60
:1035B000000E116E000E126E2DEF1CF013500F2630
:1035C00014501022155011221650122212A0EBEFA7
:1035D0001AF0EDEF1AF099EF1BF01EA0F2EF1AF0BF
:1035E000F4EF1AF0FAEF1AF0D8901E3001091E6EAF
:1035F000FCEF1AF0D8901E320FA001EF1BF003EF82
:103600001BF004EF1BF01E8E1234123211321032F6
:103610000F321D2A99EF1BF013500F5C14501058F5
:10362000155011581250800A176E1650800A1758FC
:10363000D8B01DEF1BF01FEF1BF04AEF1BF00F502F
:10364000135C176E10501458186E11501558196EDF
:10365000125016581A6EFF0E17240F6EFF0E182008
:10366000106EFF0E1920116EFF0E1A20126E800EC2
:103670001B1A1E6C1E50D8A440EF1BF042EF1BF02B
:1036800052EF1BF0010E0F26000E10221122122203
:1036900052EF1BF013500F5E1450105A1550115A70
:1036A0001650125A0F50101011101210D8A45BEFC0
:1036B0001BF05DEF1BF092EF1BF01E50D8A463EFE0
:1036C0001BF065EF1BF092EF1BF0000E0F6E000E6B
:1036D000106E000E116E000E126E2DEF1CF0D890C1
:1036E0000F361036113612361EAE79EF1BF07BEF17
:1036F0001BF07CEF1BF00F801EA081EF1BF083EF0F
:103700001BF087EF1BF0D8801E3689EF1BF0D89096
:103710001E361D50D8B48FEF1BF091EF1BF092EFC7
:103720001BF01D0611AE97EF1BF099EF1BF06FEF2A
:103730001BF0000E1C6E1EAEA0EF1BF0A2EF1BF0E4
:10374000BAEF1BF01EC517F57F0E1716D8B4ABEFF6
:103750001BF0ADEF1BF0B1EF1BF0010E1C6EBAEFCA
:103760001BF00FA0B6EF1BF0B8EF1BF0BAEF1BF089
:10377000ADEF1BF01C50D8B4C0EF1BF0C2EF1BF034
:10378000EDEF1BF0010E0F26000E10221122122267
:1037900012A0CDEF1BF0CFEF1BF0EDEF1BF00FC52C
:1037A00017F510C518F511C519F512C51AF51A3413
:1037B0001A3219321832173217C50FF518C510F51D
:1037C00019C511F51AC512F51D28D8B4EAEF1BF07A
:1037D000ECEF1BF0EDEF1BF01D2A1D28D8B4F3EF22
:1037E0001BF0F5EF1BF0FDEF1BF01D50D8A4FBEF15
:1037F0001BF0FDEF1BF00FEF1CF0000E0F6E000E24
:10380000106E000E116E000E126E1D50D8A40BEF3C
:103810001CF00DEF1CF00FEF1CF0000E1B6E1DA036
:1038200014EF1CF016EF1CF019EF1CF0118E1AEFBC
:103830001CF0119ED8901D30126E1BAE22EF1CF0B2
:1038400024EF1CF025EF1CF0128E0FC50FF510C5EC
:1038500010F511C511F512C512F5120005018151BF
:10386000800B8A6F81518125906F80AF3AEF1CF0F9
:103870003CEF1CF03DEF1CF090819051D8B443EF29
:103880001CF045EF1CF058EF1CF09029D8A44BEF2A
:103890001CF04DEF1CF055EF1CF0000E7E6F000E7B
:1038A0007F6F000E806F000E816F808F60EF1CF0C5
:1038B000000E7E6F000E7F6F000E806F000E816F16
:1038C0008551800B8A1B855185258F6F84AF6BEFE7
:1038D0001CF06DEF1CF06EEF1CF08F818F51D8B48F
:1038E00074EF1CF076EF1CF089EF1CF08F29D8A440
:1038F0007CEF1CF07EEF1CF086EF1CF0000E826F58
:10390000000E836F000E846F000E856F848F91EF21
:103910001CF0000E826F000E836F000E846F000E8D
:10392000856F8F51D8B497EF1CF099EF1CF0A1EF81
:103930001CF09051D8A49FEF1CF0A1EF1CF0ABEF4E
:103940001CF0000E7E6F000E7F6F000E806F000E69
:10395000816F55EF1EF084517E036100CCF395F525
:103960006100D0F396F595518B6F8C6B8D6B8E6BE0
:103970009651916F926B936B946B83517F036100AF
:10398000CCF395F56100D0F396F595518B27000E99
:103990008C238D238E2396519127000E92239323FF
:1039A0009423825180036100CCF395F56100D0F33C
:1039B00096F595518B27000E8C238D238E239651DF
:1039C0009127000E9223932394238DC58EF58CC5E9
:1039D0008DF58BC58CF58B6B82517F036100CCF329
:1039E00095F56100D0F396F595518B2796518C2370
:1039F000000E8D23000E8E2383517E036100CCF3D5
:103A000095F56100D0F396F595518B2796518C234F
:103A1000000E8D23000E8E238DC58EF58CC58DF581
:103A20008BC58CF58B6B82517E036100CCF395F5D1
:103A30006100D0F396F595518B2796518C23000E9B
:103A40008D23000E8E2384517F036100CCF395F506
:103A50006100D0F396F59551912796519223000E6F
:103A60009323000E9423835180036100CCF395F5DA
:103A70006100D0F396F59551912796519223000E4F
:103A80009323000E9423845180036100CCF395F5B9
:103A90006100D0F396F59551866F9651876F886BCC
:103AA000896B88C589F587C588F586C587F5866BD6
:103AB00086519127875192238851932389519423CA
:103AC0008BC586F58CC587F58DC588F58EC589F5BE
:103AD000190E70EF1DF0D890893388338733863301
:103AE000E82E6BEF1DF08651912787519223885164
:103AF0009323895194238DC58EF58CC58DF58BC587
:103B00008CF58B6B8F5190C586F5876B8627000EE1
:103B10008723820E8625956FFF0E8721966FA6EF6D
:103B20001DF0D89091379237933794378EAF9BEF33
:103B30001DF09DEF1DF09EEF1DF09181D8908B3709
:103B40008C378D378E379507D8A0960793AFABEF9C
:103B50001DF0ADEF1DF091EF1DF0000E8F6F8EAFD9
:103B6000B4EF1DF0B6EF1DF0DAEF1DF0FF0E8B1570
:103B7000866FFF0E8C15876FFF0E8D15886F7F0E79
:103B80008E15896F8651871188118911D8B4CBEFB2
:103B90001DF0CDEF1DF0D1EF1DF0010E8F6FDAEFAC
:103BA0001DF091A1D6EF1DF0D8EF1DF0DAEF1DF05A
:103BB000CDEF1DF08F51D8B4E0EF1DF0E2EF1DF016
:103BC00006EF1EF0010E9127000E922393239423FB
:103BD00094A1EDEF1DF0EFEF1DF006EF1EF091C583
:103BE00086F592C587F593C588F594C589F589351D
:103BF000893388338733863386C591F587C592F537
:103C000088C593F589C594F5954B962B96BF11EF12
:103C10001EF0965108E19529D8A011EF1EF013EF80
:103C20001EF01DEF1EF0000E916F000E926F800EC1
:103C3000936F7F0E946F4BEF1EF096BF2AEF1EF02E
:103C4000965106E19505D8B028EF1EF02AEF1EF038
:103C500036EF1EF0000E916F000E926F000E936F04
:103C6000000E946F000E8A6F4BEF1EF095C590F515
:103C7000FF0E9117FF0E92177F0E9317000E9417E9
:103C800090A145EF1EF047EF1EF048EF1EF0938F16
:103C9000D8909031946F8A51941391C57EF592C556
:103CA0007FF593C580F594C581F51200010E0501DD
:103CB000A86F6100F8F5D9F46100FCF5DAF4610051
:103CC00078F3A0F5610074F3A1F58251836F846BE2
:103CD000D890833784377EC585F57FC586F58351B7
:103CE000852784518623FE0E8525D96EFF0E8621F9
:103CF000DA6E610078F3A2F5610074F3A3F5A051C8
:103D0000836FA151846F856B866B7A51835D7B5184
:103D100084597C5185598651800A876F7D51800A6C
:103D20008759D8A096EF1EF098EF1EF0A5EF1EF071
:103D3000610000F6D9F4610004F6DAF4DF50836F15
:103D400083517A6F7B6B23EF20F0A251836FA351D5
:103D5000846F856B866B83517A5D84517B59855165
:103D60007C597D51800A876F8651800A8759D8A077
:103D7000BCEF1EF0BEEF1EF0D2EF1EF08251802588
:103D8000836F000E8121846FFF0E8325D96EFF0E95
:103D90008421DA6EDF50856F85517A6F7B6B23EF5C
:103DA00020F0A82BA851020D6100CCF383F561002F
:103DB000D0F384F583517E25D96E84517F21DA6E4C
:103DC000610078F385F5610074F386F58551876F9E
:103DD0008651886F896B8A6B7A51875D7B518859D0
:103DE0007C5189598A51800A8B6F7D51800A8B5989
:103DF000D8A0FDEF1EF0FFEF1EF0D1EF1EF0A8518E
:103E0000020D6100CCF383F56100D0F384F583519A
:103E10007E25D96E84517F21DA6E610078F385F5B5
:103E2000610074F386F58551876F8651886F896BC1
:103E30008A6B7A5187190DE17B5188190AE17C510F
:103E4000891907E17D518A19D8A429EF1FF02BEFBA
:103E50001FF038EF1FF0A8518025D96E000E812188
:103E6000DA6EDF50836F83517A6F7B6B23EF20F024
:103E7000A851836F846BD890833784377EC585F5CE
:103E80007FC586F58351852784518623FE0E8525BF
:103E9000D96EFF0E8621DA6E610078F387F5610036
:103EA00074F388F58751896F88518A6F8B6B8C6B9F
:103EB00089517A5D606F8A517B59616F8B517C5952
:103EC000626F8C517D59636FA8518025D96E000EA9
:103ED0008121DA6EDF508D6F8E6BA85180258F6F38
:103EE000000E8121906FFF0E8F25D96EFF0E90215D
:103EF000DA6EDF50916F91518D5F000E8E5B8DC534
:103F000064F58EC565F5000E65BFFF0E666F676FC1
:103F100090EC3AF060C56CF561C56DF562C56EF563
:103F200063C56FF50501A851926F936BD8909237D6
:103F300093377EC594F57FC595F59251942793519B
:103F40009523FE0E9425D96EFF0E9521DA6E610041
:103F500078F396F5610074F397F5A851020D6100AE
:103F6000CCF398F56100D0F399F598517E25D96E80
:103F700099517F21DA6E610078F39AF5610074F34C
:103F80009BF596519A5F97519B5B9AC570F59BC5BF
:103F900071F5726B736B41EC2EF00501A851802511
:103FA0009C6F000E81219D6FFF0E9C25D96EFF0E28
:103FB0009D21DA6EDF509E6F9E516C25A46F000E1E
:103FC0006D21A56F000E6E21A66F000E6F21A76FE9
:103FD000A7BFEFEF1FF0EDEF1FF0FCEF1FF0610048
:103FE00000F6D9F4610004F6DAF4DF50836F8351F0
:103FF000A46FA56BA66BA76BA7BF0AEF20F0A75114
:10400000A611A51109E1650EA45DD8A00AEF20F064
:104010000CEF20F01FEF20F082518025836F000EFF
:104020008121846FFF0E8325D96EFF0E8421DA6E05
:10403000DF50856F8551A46FA56BA66BA76BA4C5D8
:104040007AF5A5C57BF512000501A651800BB36F6B
:10405000A651A625BA6FA5AF30EF20F032EF20F0C1
:1040600033EF20F0BA81BA51D8B439EF20F03BEFEA
:1040700020F050EF20F0BA29D8A441EF20F043EF10
:1040800020F04BEF20F0000EA36F000EA46F000E87
:10409000A56F000EA66FA58F000EA66F58EF20F03B
:1040A000000EA36F000EA46F000EA56F000EA66F8A
:1040B000AA51800BB31BAA51AA25BB6FA9AF63EF0E
:1040C00020F065EF20F066EF20F0BB81BB51D8B443
:1040D0006CEF20F06EEF20F083EF20F0BB29D8A426
:1040E00074EF20F076EF20F07EEF20F0000EA76F47
:1040F000000EA86F000EA96F000EAA6FA98F000E08
:10410000AA6F8BEF20F0000EA76F000EA86F000EB5
:10411000A96F000EAA6FA751A811A911AA11D8A4BE
:1041200094EF20F096EF20F0AEEF20F0000EA36F9A
:10413000000EA46F000EA56F000EA66F800EA513D3
:104140007F0EA613B351A613A3C5A3F5A4C5A4F56A
:10415000A5C5A5F5A6C5A6F5F1EF21F0BA51D8A4DD
:10416000B4EF20F0B6EF20F0C0EF20F0000EA36F08
:10417000000EA46F000EA56F000EA66FF1EF21F0E8
:10418000BB51BAC5ABF5AC6BAB5F000EAC5B7F0E41
:10419000AB25B46F000EAC21B56FA3C5AFF5A4C5B8
:1041A000B0F5A5C5B1F5A6C5B2F5000EA36F000E1A
:1041B000A46F000EA56F000EA66F000EB66F000E66
:1041C000B76F000EB86F000EB96F000EBB6F21EF16
:1041D00021F0BB51D8B4EFEF20F0F1EF20F008EF61
:1041E00021F0D890AF37B037B137B237D890A33776
:1041F000A437A537A637B9AF00EF21F002EF21F0C1
:1042000003EF21F0A381D890B637B737B837B93765
:10421000A751AF5DA851B059A951B159AA51B2598E
:10422000D8A015EF21F017EF21F020EF21F0B98D84
:10423000A751AF5FA851B05BA951B15BAA51B25B66
:10424000BB2B190EBB6527EF21F029EF21F0E9EF19
:1042500020F0AF51B011B111B211D8B432EF21F04A
:1042600034EF21F04CEF21F0B6814CEF21F0D890E3
:10427000A337A437A537A637B9AF41EF21F043EFF5
:1042800021F044EF21F0A381D890B637B737B83783
:10429000B937B407D8A0B507A5AF51EF21F053EF58
:1042A00021F037EF21F0000EBB6FB9AF5AEF21F0CC
:1042B0005CEF21F080EF21F0FF0EB615AB6FFF0E23
:1042C000B715AC6FFF0EB815AD6F7F0EB915AE6F99
:1042D000AB51AC11AD11AE11D8B471EF21F073EF49
:1042E00021F077EF21F0010EBB6F80EF21F0A3A149
:1042F0007CEF21F07EEF21F080EF21F073EF21F0D1
:10430000BB51D8B486EF21F088EF21F0ACEF21F05B
:10431000010EA327000EA423A523A623A6A193EF95
:1043200021F095EF21F0ACEF21F0A3C5ABF5A4C5CA
:10433000ACF5A5C5ADF5A6C5AEF5AE35AE33AD331E
:10434000AC33AB33ABC5A3F5ACC5A4F5ADC5A5F592
:10435000AEC5A6F5B44BB52BB5BFB7EF21F0B5513F
:1043600008E1B429D8A0B7EF21F0B9EF21F0C4EFEC
:1043700021F0000EB56FB469000EA36F000EA46F9C
:10438000000EA56F000EA66FB5BFD1EF21F0B5519D
:1043900006E1B405D8B0CFEF21F0D1EF21F0DFEF87
:1043A00021F0000EB56F000EB46F000EA36F000E6B
:1043B000A46F000EA56F000EA66F000EB36FB4C5FC
:1043C000BAF5BAA1E6EF21F0E8EF21F0EBEF21F02A
:1043D000A58FECEF21F0A59FD890BA31A66FA2EF80
:1043E00020F01200010E496E61007CF4D9F46100E6
:1043F00080F4DAF4610078F341F5610074F342F57A
:104400002350246E256AD890243625361FC526F5FC
:1044100020C527F52450262625502722FE0E2624C7
:10442000D96EFF0E2720DA6E610078F343F5610044
:1044300074F344F54150246E4250256E266A276A73
:104440001B50245C1C5025581D5026582750800AAC
:10445000286E1E50800A2858D8A031EF22F033EF82
:1044600022F040EF22F0610084F4D9F4610088F476
:10447000DAF4DF50246E24501B6E1C6ABCEF23F06C
:104480004350246E4450256E266A276A24501B5CD4
:1044900025501C5826501D581E50800A286E275043
:1044A000800A2858D8A057EF22F059EF22F06DEF7C
:1044B00022F023502124246E000E2220256EFF0EB0
:1044C0002424D96EFF0E2520DA6EDF50266E26508A
:1044D0001B6E1C6ABCEF23F0492A4950020D610093
:1044E000CCF324F56100D0F325F524501F24D96EB8
:1044F00025502020DA6E610078F326F5610074F310
:1045000027F52650286E2750296E2A6A2B6A1B50E1
:10451000285C1C5029581D502A582B50800A2C6E9C
:104520001E50800A2C58D8A098EF22F09AEF22F063
:104530006CEF22F04950020D6100CCF324F56100CC
:10454000D0F325F524501F24D96E25502020DA6E93
:10455000610078F326F5610074F327F52650286E84
:104560002750296E2A6A2B6A1B5028180DE11C500F
:1045700029180AE11D502A1807E11E502B18D8A44B
:10458000C4EF22F0C6EF22F0D3EF22F049502124ED
:10459000D96E000E2220DA6EDF50246E24501B6E7E
:1045A0001C6ABCEF23F04950246E256AD89024364B
:1045B00025361FC526F520C527F52450262625506B
:1045C0002722FE0E2624D96EFF0E2720DA6E610008
:1045D00078F328F5610074F329F528502A6E2950E4
:1045E0002B6E2C6A2D6A2A501B5C016E2B501C58B6
:1045F000026E2C501D58036E2D501E58046E4950EB
:104600002124D96E000E2220DA6EDF502E6E2F6A22
:1046100049502124306E000E2220316EFF0E3024CE
:10462000D96EFF0E3120DA6EDF50326E32502E5EC0
:10463000000E2F5A2EC505F52FC506F5000E06BE35
:10464000FF0E076E086EC6EC3AF001C50DF502C507
:104650000EF503C50FF504C510F54950336E346AE5
:10466000D890333634361FC535F520C536F533506E
:10467000352634503622FE0E3524D96EFF0E3620F4
:10468000DA6E610078F337F5610074F338F549505C
:10469000020D6100CCF339F56100D0F33AF53950E1
:1046A0001F24D96E3A502020DA6E610078F33BF572
:1046B000610074F33CF537503B5E38503C5A3BC5C3
:1046C00011F53CC512F5136A146AC8EC2EF0495076
:1046D00021243D6E000E22203E6EFF0E3D24D96E39
:1046E000FF0E3E20DA6EDF503F6E3F500D24456EC8
:1046F000000E0E20466E000E0F20476E000E10209A
:10470000486E48BE88EF23F086EF23F095EF23F044
:10471000610084F4D9F4610088F4DAF4DF50246E87
:104720002450456E466A476A486A48BEA3EF23F0A4
:1047300048504710461009E1650E455CD8A0A3EF2C
:1047400023F0A5EF23F0B8EF23F023502124246EAB
:10475000000E2220256EFF0E2424D96EFF0E252088
:10476000DA6EDF50266E2650456E466A476A486A02
:1047700045C51BF546C51CF51200610038F4D9F497
:1047800061003CF4DAF4610078F314F5610078F329
:1047900015F5610078F316F5610078F317F520EE52
:1047A00004F00E50D9260F50DA22DFA0DAEF23F002
:1047B000DCEF23F016EF24F020EE01F00C50D926A8
:1047C0000D50DA221438E842F80BF80BDF6E050EB4
:1047D000106ED8901732163215321432102EE9EFBF
:1047E00023F020EE02F00C50D9260D50DA226100A1
:1047F00050F4DFF415C514F516C515F517C516F5F3
:10480000176A20EE03F00C50D9260D50DA2214500E
:104810001F0BDF6E050E106ED89017321632153250
:104820001432102E0CEF24F02EEF24F020EE03F0C3
:104830000C50D9260D50DA22000EDF6E10EE02F079
:104840000C50E1260D50E222DFC4E7F420EE01F027
:104850000C50D9260D50DA22E7C4DFF4610030F4A1
:10486000D9F4610034F4DAF4610050F4DFF415C5D2
:1048700014F516C515F517C516F5176A14C510F504
:10488000070E101620EE01F00C50D9260D50DA223A
:104890001050DF1220EE04F00E50D9260F50DA220D
:1048A000DF30E8320F0B136E20EE04F00E50D926E5
:1048B0000F50DA22DFB05FEF24F063EF24F0106ACC
:1048C000102A64EF24F0106A1038F00B131220EE57
:1048D00004F00E50D9260F50DA22DFB272EF24F026
:1048E00076EF24F0200E106E77EF24F0106A10504F
:1048F000131220EE04F00E50D9260F50DA22DFBE3C
:1049000084EF24F088EF24F0400E106E89EF24F03D
:10491000106A1050131220EE04F00E50D9260F50DA
:10492000DA22DFBC96EF24F09AEF24F0800E106EAE
:104930009BEF24F0106A1050131220EE04F00C507C
:10494000D9260D50DA2261004CF4DFF420EE04F099
:104950000E50D9260F50DA22DFB2B1EF24F0B3EFB8
:1049600024F0DFEF24F0080E0C24016E000E0D2061
:10497000026E20EE05F00E50D9260F50DA226100AB
:1049800078F303F5610074F304F520EE04F00E50A3
:10499000D9260F50DA22DF30E8320F0B106E116A81
:1049A000270E1024F66E260E1120F76EF86A000E00
:1049B000F8220800F550056E066A56EC3BF012002E
:1049C00020EE04F00C50D9260D50DA22DF50176E7D
:1049D00017C510F520EE04F00E50D9260F50DA223C
:1049E00010461046DF501018C30B1018DF6E17B8B2
:1049F000FCEF24F000EF25F0106A102A01EF25F0FB
:104A0000106A20EE04F00E50D9260F50DA22DF5043
:104A10001018FE0B1018DF6E17BA11EF25F015EF06
:104A200025F0106A102A16EF25F0106A20EE04F027
:104A30000E50D9260F50DA221046DF501018FD0B09
:104A40001018DF6E17BC27EF25F02BEF25F0106A4A
:104A5000102A2CEF25F0106A20EE04F00E50D92613
:104A60000F50DA2210321032DF5010187F0B10185E
:104A7000DF6E17BE3EEF25F042EF25F0106A102AD8
:104A800043EF25F0106A20EE04F00E50D9260F50A7
:104A9000DA22103A10461046DF501018BF0B1018DB
:104AA000DF6E20EE01F00C50D9260D50DA22DF50D7
:104AB000106E070E10161050136E146A156A166ADF
:104AC00015C516F514C515F513C514F5136A61005F
:104AD00030F4D9F4610034F4DAF4DF50106E105081
:104AE000131220EE04F00E50D9260F50DA22DFA068
:104AF0007CEF25F07EEF25F0BFEF25F0050ED89076
:104B00001336143615361636E82E7FEF25F020EED4
:104B100003F00C50D9260D50DA22DF50106E1F0E14
:104B200010161050131215C516F514C515F513C53A
:104B300014F5136A20EE02F00C50D9260D50DA223B
:104B4000DF50106E10501312050ED8901336143625
:104B500015361636E82EA5EF25F020EE01F00C50A4
:104B6000D9260D50DA22DF50106ED8901032D8902E
:104B70001032D89010321F0E101610501312610010
:104B800038F4D9F461003CF4DAF461004CF4DEF45A
:104B9000610050F4DEF4610054F4DEF4610058F476
:104BA000DEF4A60E016E060E026E080E0C24036ED5
:104BB000000E0D20046E20EE04F00E50D9260F508A
:104BC000DA22DF30E8320F0B106E116A270E102444
:104BD000F66E260E1120F76EF86A000EF822080015
:104BE000F550056E066A56EC3BF020EE05F00E50CF
:104BF000D9260F50DA22A60EDE6E060EDD6E1200EA
:104C0000020E0301F96F3F0EFA6F000ED86F000E0F
:104C1000FB6F000ED96F000EDA6F000EDB6F000E17
:104C2000DC6F000EDF6F000EE06F000EE36F000E12
:104C3000E46F000EE56F000EE66F000EE76F000EEA
:104C4000EA6F000EEB6F100EEC6FE80EEE6F030EC6
:104C5000EF6F000EF06F000EF16F000EF26F000E9E
:104C6000F36F000EF46F100EF56F000EF66F000E6E
:104C7000F76F000EF86F000EFC6F010EFB6F000E59
:104C8000D96F000EDA6F000EDB6F000EDC6F000EC6
:104C9000DF6F000EE06F000EE36F000EE46F000E9A
:104CA000E56F000EE66F000EE76F000EEA6F000E74
:104CB000EB6F040EEC6FE80EEE6F030EEF6F000E5D
:104CC000F06F000EF16F000EF26F000EF36F000E2A
:104CD000F46F100EF56F000EF66F000EF76F000EFA
:104CE000F86F000EFD6F020EFB6F000ED96F000E05
:104CF000DA6F000EDB6F000EDC6F000EDF6F000E50
:104D0000E06F000EE36F000EE46F000EE56F000E23
:104D1000E66F000EE76F000EEA6F000EEB6F120EEB
:104D2000EC6FE80EEE6F030EEF6F000EF06F000EEB
:104D3000F16F000EF26F000EF36F000EF46F100EA5
:104D4000F56F000EF66F000EF76F000EF86F000E95
:104D5000FE6F030EFB6F000ED96F000EDA6F000EB0
:104D6000DB6F000EDC6F000EDF6F000EE06F000ED9
:104D7000E36F000EE46F000EE56F000EE66F000EAD
:104D8000E76F000EEA6F000EEB6F110EEC6FE80E8E
:104D9000EE6F030EEF6F000EF06F000EF16F000E5E
:104DA000F26F000EF36F000EF46F100EF56F000E31
:104DB000F66F000EF76F000EF86F000EFF6FAF94E6
:104DC000AF96B090B092B094B096000E0501606FAF
:104DD000000E616F96EC3FF0000E0501606F000E53
:104DE000616F8CEC3FF0000E0501606F000E616F8B
:104DF00087EC3FF0000E0501606F000E616F82ECE2
:104E00003FF0000E0501606F000E616F7DEC3FF01A
:104E1000000E0501606F000E616F91EC3FF0840E93
:104E20000301F36F1200D8EC34F00009D8B41BEF83
:104E300027F01DEF27F019EF28F0B60E226E060EB0
:104E4000236E83EC3BF0E806D8A429EF27F02BEF84
:104E500027F019EF28F000F0B6C63BF5B7C63CF5D1
:104E6000B8C63DF5B9C63EF56100ECFAD9F461006B
:104E7000F0FADAF4DF50466E060120EE01F0BB5185
:104E8000D926BC51DA22DF50456E20EE02F0BB512C
:104E9000D926BC51DA22DF50426E20EE03F0BB511E
:104EA000D926BC51DA22DF50436E20EE04F0BB510C
:104EB000D926BC51DA22DF50446E20EE05F0BB51FA
:104EC000D926BC51DA22DF503F6E20EE06F0BB51EE
:104ED000D926BC51DA22DF50406E20EE07F0BB51DC
:104EE000D926BC51DA22DF50416ED3EF27F046C5F8
:104EF000A2F645C5A1F642C59FF643C59EF644C538
:104F00009DF60501FC05D8A488EF27F08AEF27F06D
:104F100019EF28F0010E0601A06F19EF28F0465096
:104F2000070B9C6F4650180B9B6F4650E00B9A6F17
:104F30004550010B996F4550060B986F4550780B03
:104F4000976F19EF28F046C595F645C594F642C50A
:104F500093F643C592F644C591F63FC590F640C519
:104F60008FF641C58EF619EF28F046C5FCF5050110
:104F7000FC51F8EC3BF019EF28F046C58BF6050123
:104F8000FC51D8A4C6EF27F0C8EF27F019EF28F09E
:104F9000000E336E06018B51FCEC36F019EF28F051
:104FA00000F019EF28F03BC535F53CC536F53DC599
:104FB00037F53EC538F53850000AD8B412EF28F05E
:104FC000D0EF27F03650030AD8B4F1EF27F0070AE4
:104FD000D8B4FCEF27F0010AD8B403EF28F0D0EFE3
:104FE00027F03550200AD8B477EF27F0670AD8B4F5
:104FF000B5EF27F0D0EF27F03550120AD8B4BDEF47
:1050000027F0D0EF27F03550000AD8B48FEF27F003
:10501000010AD8B4A3EF27F0030AD8B419EF28F097
:10502000D0EF27F03750000AD8B4E2EF27F0D0EFE6
:1050300027F0120055C57AF556C57BF505017C6B46
:105040007D6B4D0E7E6F070E7F6FDE0E806F060E3E
:10505000816F150E826F56EC1EF07AC54EF67BC539
:105060004FF653C57AF554C57BF505017C6B7D6B16
:105070008C0E7E6F070E7F6F770E806F070E816F2D
:10508000150E826F56EC1EF07AC54CF67BC54DF6B8
:1050900006014C514E250501A96F06014D514F21C6
:1050A0000501AA6FD890AA31AB6FA93106014A6FEA
:1050B000ABC54BF600F0320E55240501A96F000E6A
:1050C0005620AA6FAB6BAC6B060128510501A95D98
:1050D000060129510501AA5906012A510501AB59BA
:1050E000AC51800AAD6F06012B51800A0501AD5904
:1050F000D8A07DEF28F07FEF28F0A0EF28F0CE0EAB
:105100005524A96FFF0E5620AA6FAB6BAC6BA9514B
:105110000601285D0501AA51060129590501AB5177
:1051200006012A592B51800A0501AD6FAC51800A46
:10513000AD59D8B09EEF28F0A0EF28F0A4EF28F0EA
:1051400006018781A7EF28F0FE0E06018713320EB5
:1051500053240501A96F000E5420AA6FAB6BAC6BF2
:10516000060124510501A95D060125510501AA5931
:10517000060126510501AB59AC51800AAD6F0601FD
:105180002751800A0501AD59D8A0C9EF28F0CBEF0F
:1051900028F0ECEF28F0CE0E5324A96FFF0E542018
:1051A000AA6FAB6BAC6BA9510601245D0501AA5136
:1051B000060125590501AB51060126592751800AE0
:1051C0000501AD6FAC51800AAD59D8B0EAEF28F0B7
:1051D000ECEF28F0F0EF28F006018783F3EF28F0DA
:1051E000FD0E06018713050E0501FB19D8A4FBEF80
:1051F00028F0FDEF28F001EF29F0060187851BEF6D
:1052000029F0090EFB19D8A408EF29F00AEF29F0BC
:105210000EEF29F0060187951BEF29F0060EFB190A
:10522000D8A415EF29F017EF29F019EF29F00AEFAC
:1052300029F0FDEF28F012000501686F05016851A3
:10524000D8B425EF29F027EF29F049EF29F063BF03
:105250002EEF29F02CEF29F049EF29F060C564F515
:1052600061C565F562C566F563C567F5641F651FB1
:10527000661F671F642B000E65236623672364C5C2
:105280006AF565C56BF566C56CF567C56DF551EFDB
:1052900029F060C56AF561C56BF562C56CF563C53B
:1052A0006DF56051611162116311D8A45AEF29F0B4
:1052B0005CEF29F066EF29F0000E606F000E616F61
:1052C000000E626F000E636FF7EF29F0960E696FA4
:1052D00070EF29F0692BD8906D336C336B336A33E0
:1052E000000E6A15646F000E6B15656F000E6C156D
:1052F000666FFE0E6D15676F64516511661167115B
:10530000D8A485EF29F087EF29F06AEF29F095EF0F
:1053100029F0692B010E6A27000E6B236C236D2385
:10532000D8906D336C336B336A33000E6A15646F3B
:10533000000E6B15656F000E6C15666FFF0E6D1518
:10534000676F6451651166116711D8A4AAEF29F03F
:10535000ACEF29F089EF29F0B4EF29F06907D89074
:105360006A376B376C376D376CBFB9EF29F0BBEF1D
:1053700029F0C3EF29F0020E6961C1EF29F0C3EFF4
:1053800029F0AEEF29F069B1C8EF29F0CAEF29F092
:10539000CBEF29F06C9FD890693369C564F5656BD4
:1053A000666B676B64C567F5666B656B646B6451B0
:1053B0006A1365516B1366516C1367516D13685115
:1053C000D8B4E5EF29F0E7EF29F0EFEF29F063BF5C
:1053D000EEEF29F0ECEF29F0EFEF29F06D8F6AC5C1
:1053E00060F56BC561F56CC562F56DC563F51200BE
:1053F00055C51BF556C51CF51D6A1E6A4D0E1F6E60
:10540000070E206EDE0E216E060E226E150E236E26
:10541000F2EC21F01BC54EF61CC54FF653C51BF52B
:1054200054C51CF51D6A1E6A8C0E1F6E070E206E79
:10543000770E216E070E226E150E236EF2EC21F010
:105440001BC54CF61CC54DF606014C514E254A6E47
:105450004D514F214B6ED8904B304C6E4A304A6FB5
:105460004CC54BF600F0320E55244A6E000E562005
:105470004B6E4C6A4D6A060128514A5C29514B58C3
:105480002A514C584D50800A4E6E2B51800A4E586E
:10549000D8A04DEF2AF04FEF2AF06AEF2AF0CE0E97
:1054A00055244A6EFF0E56204B6E4C6A4D6A4A5088
:1054B000285D4B5029594C502A592B51800A4E6E69
:1054C0004D50800A4E58D8B068EF2AF06AEF2AF0A3
:1054D0006DEF2AF087816FEF2AF0FE0E8713320EF0
:1054E00053244A6E000E54204B6E4C6A4D6A245170
:1054F0004A5C25514B5826514C584D50800A4E6EEF
:105500002751800A4E58D8A088EF2AF08AEF2AF057
:10551000A5EF2AF0CE0E53244A6EFF0E54204B6E98
:105520004C6A4D6A4A50245D4B5025594C502659BF
:105530002751800A4E6E4D50800A4E58D8B0A3EFC6
:105540002AF0A5EF2AF0A8EF2AF08783AAEF2AF025
:10555000FD0E8713050E0501FB19D8A4B2EF2AF042
:10556000B4EF2AF0B8EF2AF006018785D2EF2AF0CF
:10557000090EFB19D8A4BFEF2AF0C1EF2AF0C5EF3E
:105580002AF006018795D2EF2AF0060EFB19D8A45F
:10559000CCEF2AF0CEEF2AF0D0EF2AF0C1EF2AF0BC
:1055A000B4EF2AF01200096E0950D8B4DAEF2AF0ED
:1055B000DCEF2AF0FEEF2AF004BEE3EF2AF0E1EF81
:1055C0002AF0FEEF2AF001C505F502C506F503C570
:1055D00007F504C508F5051E061E071E081E052A48
:1055E000000E06220722082205C50BF506C50CF59C
:1055F00007C50DF508C50EF506EF2BF001C50BF537
:1056000002C50CF503C50DF504C50EF501500210D9
:1056100003100410D8A40FEF2BF011EF2BF01BEFA9
:105620002BF0000E016E000E026E000E036E000ED7
:10563000046EACEF2BF0960E0A6E25EF2BF00A2AC3
:10564000D8900E320D320C320B32000E0B14056E58
:10565000000E0C14066E000E0D14076EFE0E0E14D6
:10566000086E0550061007100810D8A43AEF2BF06A
:105670003CEF2BF01FEF2BF04AEF2BF00A2A010E24
:105680000B26000E0C220D220E22D8900E320D3267
:105690000C320B32000E0B14056E000E0C14066E4D
:1056A000000E0D14076EFF0E0E14086E0550061046
:1056B00007100810D8A45FEF2BF061EF2BF03EEF3E
:1056C0002BF069EF2BF00A06D8900B360C360D360E
:1056D0000E360DBE6EEF2BF070EF2BF078EF2BF047
:1056E000020E0A6076EF2BF078EF2BF063EF2BF0D1
:1056F0000AB07DEF2BF07FEF2BF080EF2BF00D9EAB
:10570000D8900A320AC505F5066A076A086A05C50F
:1057100008F5076A066A056A05500B1206500C1256
:1057200007500D1208500E120950D8B49AEF2BF002
:105730009CEF2BF0A4EF2BF004BEA3EF2BF0A1EF16
:105740002BF0A4EF2BF00E8E0BC501F50CC502F566
:105750000DC503F50EC504F512000501F96F4AC623
:1057600060F50501F951B7EC3FF006018A05D8A4B0
:10577000BCEF2BF0BEEF2BF062EF2CF0DD05D8A4D0
:10578000C4EF2BF0C6EF2BF062EF2CF0F9C534F626
:10579000356B0501FC51F619D8A4D1EF2BF0D3EFEE
:1057A0002BF06DEF2CF0FC05D8A4D9EF2BF0DBEF3C
:1057B0002BF01FEF2CF04AC660F54BC661F5626B0B
:1057C000636B000E1CEC29F060C5C2F561C5C3F522
:1057D00062C5C4F563C5C5F50501F951606F616B1C
:1057E000626B636B000E1CEC29F060C5BEF561C5F1
:1057F000BFF562C5C0F563C5C1F5150E0501BC6FE7
:10580000070EBD6F5EEC13F0BCC5E2F5BDC5E3F558
:10581000BEC5E4F5BFC5E5F54EEC2FF0E2C5F7F5E2
:10582000E3C5F8F5F7C5ECF5F8C5EDF5020E050191
:10583000EF6F580EEE6FD8EC30F06DEF2CF0FC519E
:10584000D8A425EF2CF027EF2CF060EF2CF04AC6FF
:1058500060F54BC661F5626B636B000E1CEC29F0C2
:1058600060C5C2F561C5C3F562C5C4F563C5C5F5BC
:105870000501F951606F616B626B636B000E1CEC8C
:1058800029F060C5BEF561C5BFF562C5C0F563C549
:10589000C1F5150E0501BC6F070EBD6F5EEC13F070
:1058A000BCC5E2F5BDC5E3F5BEC5E4F5BFC5E5F58C
:1058B0004EEC2FF0E2C5F7F5E3C5F8F512EF2CF04A
:1058C0006DEF2CF0000E0501ED6F000EEC6F020E77
:1058D000EF6F580EEE6FD8EC30F0120001011DAFE3
:1058E00074EF2CF076EF2CF085EF2CF002D883EFDC
:1058F0002CF00500FA6E06017851FD6E7951FE6EAE
:10590000FF6AFA50120001011D9F1DAD8AEF2CF0B5
:105910008CEF2CF09BEF2CF002D899EF2CF00500C7
:10592000FA6E06017651FD6E7751FE6EFF6AFA50EF
:10593000120001011D9D1DABA0EF2CF0A2EF2CF079
:10594000B1EF2CF002D8AFEF2CF00500FA6E060193
:105950007451FD6E7551FE6EFF6AFA50120001011E
:105960001D9B1CA7B6EF2CF0B8EF2CF0C7EF2CF066
:1059700002D8C5EF2CF00500FA6E06017251FD6EDB
:105980007351FE6EFF6AFA50120001011C971DA9A7
:10599000CCEF2CF0CEEF2CF0DDEF2CF002D8DBEFCB
:1059A0002CF00500FA6E06017051FD6E7151FE6E0D
:1059B000FF6AFA50120001011D991DA5E2EF2CF0BB
:1059C000E4EF2CF0FAEF2CF002D8F1EF2CF0050008
:1059D000FA6E06016E51FD6E6F51FE6EFF6AFA504F
:1059E0001200010154A9F7EF2CF0F9EF2CF0FAEFB7
:1059F0002CF054991DA7FFEF2CF001EF2DF017EFBD
:105A00002DF002D80EEF2DF00500FA6E06016C5154
:105A1000FD6E6D51FE6EFF6AFA501200010160A723
:105A200014EF2DF016EF2DF017EF2DF06097AE9CD0
:105A300012000501696F5CEF2DF0A5EC3FF0000E40
:105A40000AEC3FF0100E39EC3CF060C56AF561C518
:105A50006BF5010E05016C6F7AEF2DF0A5EC3FF0B0
:105A6000010E0AEC3FF0040E39EC3CF060C56AF51B
:105A700061C56BF529EF2DF0A5EC3FF0020E0AECA5
:105A80003FF0120E39EC3CF060C56AF561C56BF56C
:105A900029EF2DF0A5EC3FF0030E0AEC3FF0110EBC
:105AA00039EC3CF060C56AF561C56BF529EF2DF066
:105AB000020E6C6F7AEF2DF005016951676F686B0C
:105AC0006851000AD8B467EF2DF058EF2DF06751F8
:105AD000010AD8B43CEF2DF0030AD8B44AEF2DF0F8
:105AE000010AD8B41DEF2DF0070AD8B42EEF2DF01F
:105AF00058EF2DF06C05D8A480EF2DF082EF2DF03B
:105B0000B0EF2DF06B5107E1070E6A5DD8B08BEF57
:105B10002DF08DEF2DF093EF2DF0000E6E6F000E37
:105B20006D6F9DEF2DF06AC56DF56BC56EF5FB0EC3
:105B30006D256D6FFF0E6E216E6F890E6D5D130EFC
:105B40006E59D8A0A6EF2DF0A8EF2DF0AAEF2DF0FA
:105B5000B0EF2DF06DC565F56EC566F5B0EF2DF0B3
:105B60001200000E0501ED6F000EEC6F020EEF6FDC
:105B7000580EEE6FD8EC30F0030E0501F76F8A0E69
:105B8000F66F550EE82EFED7F62FFCD7F72FFAD773
:105B900000D096EC3CF0030E0501F76F8A0EF66F0D
:105BA000550EE82EFED7F62FFCD7F72FFAD700D0E8
:105BB000CE0E55240601406FFF0E5620416F320E67
:105BC00053243C6F000E54203D6FCE0E5524070128
:105BD0004D6FFF0E56204E6F320E53248C6F000E09
:105BE00054208D6F00F0000E0501ED6F640EEC6F18
:105BF000020EEF6F580EEE6FD8EC30F0090E050173
:105C0000F76FE10EF66FB20EE82EFED7F62FFCD737
:105C1000F72FFAD700F096EC3CF0030E0501F76F72
:105C20008A0EF66F550EE82EFED7F62FFCD7F72F0B
:105C3000FAD700D0CE0E552406013E6FFF0E562037
:105C40003F6F320E53243A6F000E54203B6FCE0E3E
:105C500055240701756FFF0E5620766F320E5324C0
:105C6000B46F000E5420B56F00F0000E0501ED6F0B
:105C7000000EEC6F010EEF6F2C0EEE6FD8EC30F0D3
:105C80001200000E0501756F73BF4BEF2EF049EF48
:105C90002EF055EF2EF0731F721F711F706D000EE6
:105CA000712372237323010E756F6FBF5CEF2EF0AB
:105CB0005AEF2EF066EF2EF06F1F6E1F6D1F6C6D8A
:105CC000000E6D236E236F23010E751B000E766F81
:105CD000000E776F000E786F000E796F70517111A2
:105CE00072117311D8B477EF2EF079EF2EF0AFEF79
:105CF0002EF0010E746F83EF2EF0D890703771374D
:105D000072377337742B73AF88EF2EF08AEF2EF053
:105D10007DEF2EF0D8907637773778377937705116
:105D20006C5D71516D5972516E5973516F59D8A094
:105D30009CEF2EF09EEF2EF0A7EF2EF070516C5FCF
:105D400071516D5B72516E5B73516F5B7681D89050
:105D50007333723371337033742F8AEF2EF07551B1
:105D6000D8B4B5EF2EF0B7EF2EF0BFEF2EF0791FBD
:105D7000781F771F766D000E77237823792376C5F9
:105D80006CF577C56DF578C56EF579C56FF51200C0
:105D9000000E166E14BED1EF2EF0CFEF2EF0DBEF1B
:105DA0002EF0141E131E121E116C000E122213224E
:105DB0001422010E166E10BEE2EF2EF0E0EF2EF070
:105DC000ECEF2EF0101E0F1E0E1E0D6C000E0E229C
:105DD0000F221022010E161A000E176E000E186EFA
:105DE000000E196E000E1A6E1150121013101410BE
:105DF000D8B4FDEF2EF0FFEF2EF035EF2FF0010EAF
:105E0000156E09EF2FF0D89011361236133614366E
:105E1000152A14AE0EEF2FF010EF2FF003EF2FF036
:105E2000D8901736183619361A3611500D5C1250A4
:105E30000E5813500F5814501058D8A022EF2FF0BE
:105E400024EF2FF02DEF2FF011500D5E12500E5A4F
:105E500013500F5A1450105A1780D890143213321E
:105E600012321132152E10EF2FF01650D8B43BEF2E
:105E70002FF03DEF2FF045EF2FF01A1E191E181EC0
:105E8000176C000E182219221A2217C50DF518C515
:105E90000EF519C50FF51AC510F512000501E43508
:105EA000E535EB6FEB51D8A458EF2FF05AEF2FF0F8
:105EB00064EF2FF0000EE26F000EE36F000EE46F50
:105EC000000EE56FD1EF2FF0E2C5E6F5E3C5E7F58B
:105ED000E4C5E8F5E5C5E9F5200E74EF2FF0D8909C
:105EE000E933E833E733E633E82E6FEF2FF0E6517E
:105EF000EA6FE48FFF0EE217FF0EE317FF0EE417C1
:105F0000000EE517960EEB5FEBBF8BEF2FF089EFDE
:105F10002FF0A1EF2FF0EB51800A970FD8B093EF3D
:105F20002FF095EF2FF097EF2FF05AEF2FF0D8903A
:105F3000E533E433E333E233EB3F97EF2FF0B9EF90
:105F40002FF01F0EEB65A7EF2FF0A9EF2FF0B1EFA9
:105F50002FF05AEF2FF0D890E237E337E437E537E8
:105F6000EB07EB51D8A4B7EF2FF0B9EF2FF0ABEF61
:105F70002FF0EA51D8B4BFEF2FF0C1EF2FF0C9EFE7
:105F80002FF0E51FE41FE31FE26D000EE323E4237F
:105F9000E523E2C5E2F5E3C5E3F5E4C5E4F5E5C5CF
:105FA000E5F51200000E05016015686F000E611521
:105FB000696F800E62156A6F7F0E63156B6F685193
:105FC00069116A116B11D8A4E8EF2FF0EAEF2FF0F6
:105FD000F2EF2FF0000E606F000E616F000E626F27
:105FE000000E636F000E6415686F000E6515696F13
:105FF000800E66156A6F7F0E67156B6F68516911A9
:106000006A116B11D8A407EF30F009EF30F011EFEF
:1060100030F0000E646F000E656F000E666F000EAC
:10602000676F63AF16EF30F018EF30F021EF30F00C
:10603000606D611FD8B0612B621FD8B0622B800EDB
:10604000635767AF26EF30F028EF30F031EF30F0D4
:10605000646D651FD8B0652B661FD8B0662B800EA7
:106060006757000E601B000E611B000E621B800E46
:10607000631B000E641B000E651B000E661B800E6A
:10608000671B6451605D6551615966516259675182
:106090006359D8B04EEF30F050EF30F053EF30F09E
:1060A000D89054EF30F0D880120021342234286E7A
:1060B0002850D8A45EEF30F060EF30F06AEF30F097
:1060C000000E1F6E000E206E000E216E000E226E5E
:1060D000D7EF30F01FC523F520C524F521C525F5E0
:1060E00022C526F5200E7AEF30F0D89026322532E0
:1060F00024322332E82E75EF30F02350276E218EA4
:10610000FF0E1F16FF0E2016FF0E2116000E221680
:10611000960E285E28BE91EF30F08FEF30F0A7EF9B
:1061200030F02850800A970FD8B099EF30F09BEFED
:1061300030F09DEF30F060EF30F0D8902232213215
:1061400020321F32283E9DEF30F0BFEF30F01F0E9F
:106150002864ADEF30F0AFEF30F0B7EF30F060EF24
:1061600030F0D8901F3620362136223628062850A7
:10617000D8A4BDEF30F0BFEF30F0B1EF30F02750D2
:10618000D8B4C5EF30F0C7EF30F0CFEF30F0221EBB
:10619000211E201E1F6C000E2022212222221FC53C
:1061A0001FF520C520F521C521F522C522F51200D5
:1061B000490E05016C6F990E6D6F000E6E6F000E2B
:1061C0006F6FEEC570F5EFC571F5726B736B41ECD7
:1061D0002EF06CC5F2F56DC5F3F56A0E0501726F10
:1061E0004D0E736F930E746FBF0E756FF2C560F531
:1061F000F3C561F5626B636B000E1CEC29F060C5A2
:106200006EF561C56FF562C570F563C571F56DEC2E
:1062100017F06EC5E2F56FC5E3F570C5E4F571C51D
:10622000E5F54EEC2FF0E2C5F2F5E3C5F3F5ECC56C
:10623000F0F5EDC5F1F50501D890F037F137D890BC
:10624000F037F137F0C5F4F5F1C5F5F5F4C560F5B3
:10625000F5C561F5000E636F640E626F90EC3DF062
:1062600060C5F4F561C5F5F5F4C560F5F5C561F5F2
:10627000EEC562F5EFC563F56CEC39F060C5F4F579
:1062800061C5F5F5F4C560F5F5C561F5F5EC3EF0D1
:10629000F2C560F5F3C561F5EEEC3EF0ADEC3FF014
:1062A0001200490E05016C6F990E6D6F000E6E6F36
:1062B000000E6F6FEEC570F5EFC571F5726B736B05
:1062C00041EC2EF06CC5F2F56DC5F3F56A0E0501D3
:1062D000726F4D0E736F930E746FBF0E756FF2C5B4
:1062E00060F5F3C561F5626B636B000E1CEC29F081
:1062F00060C56EF561C56FF562C570F563C571F572
:106300006DEC17F06EC5E2F56FC5E3F570C5E4F509
:1063100071C5E5F54EEC2FF0E2C5F2F5E3C5F3F5F6
:10632000ECC5F0F5EDC5F1F50501D890F037F13782
:10633000D890F037F137F0C5F4F5F1C5F5F5F4C5AF
:1063400060F5F5C561F5000E636F640E626F90EC49
:106350003DF060C5F4F561C5F5F5F4C560F5F5C52A
:1063600061F5EEC562F5EFC563F56CEC39F060C51B
:10637000F4F561C5F5F5F4C560F5F5C561F503EC17
:106380003FF0F2C560F5F3C561F5FCEC3EF0AFEC13
:106390003FF01200490E0D6E990E0E6E000E0F6E3C
:1063A000000E106E2BC511F52CC512F5136A146A78
:1063B000C8EC2EF00DC52FF50EC530F56A0E136E24
:1063C0004D0E146E930E156EBF0E166E2FC501F591
:1063D00030C502F5036A046A000ED3EC2AF001C549
:1063E0000FF502C510F503C511F504C512F5CEEC85
:1063F00019F00FC51FF510C520F511C521F512C5FF
:1064000022F555EC30F01FC52FF520C530F529C514
:106410002DF52AC52EF5D8902D362E36D8902D364E
:106420002E362DC531F52EC532F531C501F532C5F3
:1064300002F5000E046E640E036ED1EC3DF001C552
:1064400031F502C532F531C501F532C502F52BC56E
:1064500003F52CC504F556EC3AF001C531F502C53B
:1064600032F531C501F532C502F516EC3FF02FC506
:1064700001F530C502F510EC3FF0B1EC3FF0120031
:10648000490E0D6E990E0E6E000E0F6E000E106E00
:106490002BC511F52CC512F5136A146AC8EC2EF041
:1064A0000DC52FF50EC530F56A0E136E4D0E146E28
:1064B000930E156EBF0E166E2FC501F530C502F591
:1064C000036A046A000ED3EC2AF001C50FF502C579
:1064D00010F503C511F504C512F5CEEC19F00FC582
:1064E0001FF510C520F511C521F512C522F555EC93
:1064F00030F01FC52FF520C530F529C52DF52AC56B
:106500002EF5D8902D362E36D8902D362E362DC518
:1065100031F52EC532F531C501F532C502F5000E53
:10652000046E640E036ED1EC3DF001C531F502C579
:1065300032F531C501F532C502F52BC503F52CC581
:1065400004F556EC3AF001C531F502C532F531C516
:1065500001F532C502F522EC3FF02FC501F530C53B
:1065600002F51CEC3FF0B3EC3FF01200216E000E80
:106570001D6E185083EC3EF0206E20A0C2EF32F06A
:10658000C4EF32F02AEF33F018500C0D580EF324FC
:10659000D96E010EF420DA6E610078F31EF5610009
:1065A00074F31FF51E501F10D8B4D9EF32F0DBEF93
:1065B00032F02AEF33F01EC50CF51FC50DF519C5D5
:1065C0000EF51AC50FF5E0EC24F018500C0D510E25
:1065D000F324D96E010EF420DA6E000EDB80215018
:1065E000020D5F0EF324D96E050EF420DA6EDF2A59
:1065F000185033EC3EF01B6E2150020D5F0EF32459
:10660000D96E050EF420DA6E1B50DE5CD8A00BEFBD
:1066100033F00DEF33F017EF33F02150020D5F0E22
:10662000F324D96E050EF420DA6E000EDF6E20A67C
:106630001CEF33F01EEF33F028EF33F018500C0D41
:10664000540EF324D96E010EF420DA6EF70EDF1625
:10665000010E1D6E1D5012000601C451C511D8B4A3
:1066600034EF33F036EF33F042EF33F002D842EF3D
:1066700033F00500FA6EC451FD6EC551FE6EFF6A1F
:10668000FA50120058EC3CF00601A52B060EA51995
:10669000D8A44DEF33F04FEF33F053EF33F0000E4B
:1066A000A56FE4EC3EF00601A42B0B0EA419D8A4B0
:1066B0005CEF33F05EEF33F062EF33F0000EA46F67
:1066C00029EC3BF00601A32B650EA319D8A46BEFB0
:1066D00033F06DEF33F071EF33F0000EA36FBCECCD
:1066E0003FF00601624B632B2D0E621906E1630534
:1066F000D8A47DEF33F07FEF33F085EF33F0000E59
:10670000636F000E626FBAEC3FF00601604B612BC5
:10671000590E601907E1020E6119D8A492EF33F007
:1067200094EF33F09AEF33F0000E616F000E606F5C
:10673000BBEC3FF0120023C5AEF624C5AFF625C56D
:10674000B0F626C5B1F627C5B2F628C5B3F629C5F9
:10675000B4F62AC5B5F61EC5BDF61FC5BEF620C5E2
:10676000BFF621C5C0F60601C19DC19FC193C1916D
:1067700022C52BF50F0E2B162B462B46C1512B187D
:10678000C30B2B18C16FAE0EC26F060EC36FB1ECF8
:106790003EF0E806D8A4CFEF33F0D1EF33F0D2EFDC
:1067A00033F000F0A6EC3EF0E806D8A4DAEF33F0C0
:1067B000DCEF33F0DDEF33F000F09BEC3EF0E80669
:1067C000D8A4E5EF33F0E7EF33F0E8EF33F000F073
:1067D0005EEC3EF0E806D8A4F0EF33F0F2EF33F0D1
:1067E000F3EF33F000F0000E0EEC3EF02B6E2BA01A
:1067F000FCEF33F0FEEF33F006EF34F0BD0E186E11
:10680000060E196E000E95EC37F000F01200076EC0
:10681000000E096E20EE04F00250D9260350DA2251
:10682000DF500A6E0AAE17EF34F019EF34F024EFA0
:1068300034F09BEC3FF0060AD8A421EF34F023EFAC
:1068400034F024EF34F009820A30E8320F0B046E82
:10685000080E04642EEF34F030EF34F042EF34F0E1
:106860000AAC35EF34F037EF34F041EF34F09BEC05
:106870003FF0060AD8A43FEF34F041EF34F042EF86
:1068800034F009802F0EF66E260EF76EF86A0800B7
:106890006100D4F304F50A30E8320F0B056E066A86
:1068A000270E0524F66E260E0620F76EF86A000EF7
:1068B000F8220800F550045CD8B061EF34F063EFC3
:1068C00034F064EF34F00980075077EC3EF00009B3
:1068D000D8A46DEF34F06FEF34F071EF34F0030EA5
:1068E00009120950120005017E517A5D606F7F51D7
:1068F0007B59616F80517C59626F81517D59636F03
:10690000640E646F000E656F000E666F000E676F99
:1069100090EC3AF060C56CF561C56DF562C56EF539
:1069200063C56FF505017E51825D706F7F5183599C
:10693000716F80518459726F81518559736F41EC29
:106940002EF06CC57AF56DC57BF56EC57CF56FC50F
:106950007DF505017DBFB1EF34F0AFEF34F0BBEF53
:1069600034F0000E7A6F000E7B6F000E7C6F000E0D
:106970007D6FD3EF34F07DBFC9EF34F07D517C11D2
:106980007B1109E1650E7A5DD8A0C9EF34F0CBEF39
:1069900034F0D3EF34F0640E7A6F000E7B6F000E8C
:1069A0007C6F000E7D6F7AC57AF57BC57BF5120092
:1069B000000E036E000E0A6E0A50020D5E0EF324E6
:1069C000D96E050EF420DA6EDF50066E065083ECA9
:1069D0003EF0056E05A0EFEF34F0F1EF34F032EF4A
:1069E00035F0065033EC3EF0076E05A6FAEF34F0B2
:1069F000FCEF34F000EF35F007C504F530EF35F06B
:106A000006500C0D550EF324D96E010EF420DA6EEB
:106A1000DF501F0B086E0A50020D5F0EF324D96E73
:106A2000050EF420DA6EDF50096E0950085CD8B00C
:106A30001CEF35F01EEF35F024EF35F00950085CFF
:106A40000724046E30EF35F00850095CD8B02BEF06
:106A500035F02DEF35F0FCEF34F00950085C046E92
:106A6000045003260A2A0A50D8B439EF35F03BEF18
:106A700035F0DCEF34F0035012001F501B5C016E48
:106A800020501C58026E21501D58036E22501E5873
:106A9000046E640E056E000E066E000E076E000E8C
:106AA000086EC6EC3AF001C50DF502C50EF503C53A
:106AB0000FF504C510F51F50235C116E20502458AB
:106AC000126E21502558136E22502658146EC8ECB1
:106AD0002EF00DC51BF50EC51CF50FC51DF510C517
:106AE0001EF51EBE78EF35F076EF35F082EF35F00B
:106AF000000E1B6E000E1C6E000E1D6E000E1E6E34
:106B00009AEF35F01EBE90EF35F01E501D101C1090
:106B100009E1650E1B5CD8A090EF35F092EF35F0DF
:106B20009AEF35F0640E1B6E000E1C6E000E1D6E8B
:106B3000000E1E6E1BC51BF51CC51CF51200610066
:106B4000D8F34FF56100DCF350F56100E0F351F547
:106B50006100D4F352F5A1AEB0EF35F0B2EF35F0ED
:106B6000BDEF35F0B1AEB7EF35F0B9EF35F0BDEFB1
:106B700035F0EDEC3CF0F3EF35F0A1A8C2EF35F0C5
:106B8000C4EF35F0CFEF35F0B1A8C9EF35F0CBEF5A
:106B900035F0CFEF35F0D1EC3CF0F3EF35F09EACB3
:106BA000D4EF35F0D6EF35F0E1EF35F0AEACDBEFFA
:106BB00035F0DDEF35F0E1EF35F06EEC2CF0F3EF72
:106BC00035F0A2A8E6EF35F0E8EF35F0F3EF35F059
:106BD000B2A8EDEF35F0EFEF35F0F3EF35F0A6ECBE
:106BE0003DF0F3EF35F0610048F5F5F4610044F550
:106BF000F8F4610040F5F7F461003CF5F6F411009B
:106C0000000ECFB4010E016E000ECEB2010E026E68
:106C100000F00104D8A40FEF36F011EF36F01FEFAB
:106C200036F00250D8A417EF36F019EF36F01FEF08
:106C300036F0010E5D6E5CC589F65FEF36F00150EF
:106C4000D8A425EF36F027EF36F035EF36F0020402
:106C5000D8A42DEF36F02FEF36F035EF36F0020ED8
:106C60005D6E5CC588F65FEF36F00150D8A43BEF4F
:106C700036F03DEF36F049EF36F00250D8A443EF3E
:106C800036F045EF36F049EF36F0030E5D6E5FEFFC
:106C900036F00104D8A44FEF36F051EF36F05DEF37
:106CA00036F00204D8A457EF36F059EF36F05DEF16
:106CB00036F0040E5D6E5FEF36F0050E5D6E12006D
:106CC0004E0EF66E700EF76E000EF86E01EE00F3CB
:106CD00010EE8CF00900F5C4EEF4E550E150FAE155
:106CE0001E0EF66E7D0EF76E000EF86E01EEDCF2F3
:106CF00010EE17F00900F5C4EEF4E550E150FAE1AA
:106D00006A0EF66E7F0EF76E000EF86E09006100D7
:106D1000D4F35EF509006100D4F35FF501EE8CF366
:106D20002A0EEE6AE806FDE101EE00F2C40EEE6AFC
:106D3000E806FDE10501FC6BFB6BFA6B01EE53F11C
:106D40000B0EEE6AE806FDE10401080E5D6F000E11
:106D50005E6F000E5F6F0001AEEF36F01EEC3DF08F
:106D60001AEC3CF0D0EC3EF096EC3CF050EC3EF0EF
:106D7000DAEC3EF0000E06EC3DF0D69E42EC3EF022
:106D8000000E06015D6F000E5C6F96EC3CF01AEC95
:106D900028F06DEC38F0B6EC3FF00501FC51D8A4BA
:106DA000D4EF36F0D6EF36F0DEEF36F0000EF66FA9
:106DB00006015A51ADEC2BF0C5EF36F0FC05D8A416
:106DC000E4EF36F0E6EF36F0C5EF36F0010EF66F81
:106DD0000601A251ADEC2BF0000E5D6EA1C6ECF5E4
:106DE0000501ED6B010EEF6F2C0EEE6F51EC31F0E3
:106DF000C5EF36F00DEF00F0346E06018A05D8A419
:106E000004EF37F006EF37F03EEF37F034503C0D2B
:106E10006100CCF350F66100D0F351F650C601F595
:106E200051C602F5000E046E640E036E56EC3AF085
:106E300001C550F602C551F606015051506F516B15
:106E40000501FC513318D8A428EF37F02AEF37F0AA
:106E500048EF37F0040E5D6030EF37F032EF37F077
:106E600048EF37F050C629F551C62AF5010E2C6EB1
:106E70002C0E2B6E40EC32F048EF37F0000E2A6EED
:106E8000000E296E010E2C6E2C0E2B6E40EC32F093
:106E900012000501626F000E0501616F55EC3FF0B5
:106EA0000501606F040E6019D8B459EF37F05BEF3D
:106EB00037F06CEF37F06205D8B461EF37F063EF6D
:106EC00037F06CEF37F0040E6219D8A46AEF37F090
:106ED0006CEF37F091EF37F00101035105016219B2
:106EE000F80B62190101036F83EF37F001011DA94F
:106EF0007CEF37F07EEF37F083EF37F0020E0501BD
:106F0000616F93EF37F00239E832070B0501621920
:106F1000D8A48DEF37F08FEF37F076EF37F093EF9F
:106F200037F0010E616F615112001D6E1D5077EC3C
:106F30003CF00009D8B49FEF37F0A1EF37F0DEEF57
:106F400037F018C502F519C503F51D5007EC34F0EC
:106F50001A6E1A50D8A4AFEF37F0B1EF37F0DEEF6A
:106F600037F01D500C0D580EF324D96E010EF4208D
:106F7000DA6E610078F31BF5610074F31CF51B50A9
:106F80001C10D8B4C6EF37F0C8EF37F0DEEF37F09B
:106F90001BC50CF51CC50DF518C50EF519C50FF56B
:106FA000BDEC23F01D500C0D510EF324D96E010ED3
:106FB000F420DA6E030EDF12DEEF37F01200050167
:106FC00020EE24F06051D9266151DA22000EDE6EE7
:106FD000000EDE6E000EDE6E000EDD6E20EE28F07E
:106FE0006051D9266151DA22000EDE6E000EDE6E8F
:106FF000000EDE6E000EDD6E20EE2CF06051D92604
:107000006151DA22000EDE6E000EDE6E000EDE6EC4
:10701000000EDD6E20EE30F06051D9266151DA228B
:10702000000EDE6E000EDE6E000EDE6E000EDD6EF9
:1070300020EE34F06051D9266151DA22000EDE6E66
:10704000000EDE6E000EDE6E000EDD6E1200E72416
:107050002E9AD60B3171CD0A44ACE1A8A7E13DBA16
:10706000222B3A333333403333B33F0AD7233E0A1C
:10707000D7A33C000000000000C8420000A0C000F0
:1070800000A0400AD7233C000000000000000000E0
:1070900000000000000000000000007B048F04914D
:1070A00004B2046005450569052406C106F4066CB2
:1070B000079F07F1076108CB080E096209BD09D6D1
:1070C0000ADA0A920B00050A0F14191E23282D3222
:1070D000373C41464B50555A5F6438C67AF539C63D
:1070E0007BF505017C6B7D6B48C67EF549C67FF557
:1070F000806B816B46C682F547C683F5846B856BD2
:1071000073EC34F07AC559F57BC55AF536C67AF575
:1071100037C67BF505017C6B7D6B44C67EF545C6A5
:107120007FF5806B816B42C682F543C683F5846B25
:10713000856B73EC34F07AC557F57BC558F557501D
:1071400059240501866F58505A20876FD89087318F
:10715000886F863106015A6F88C55BF600F0120011
:1071600038C61BF539C61CF51D6A1E6A48C61FF5D0
:1071700049C620F5216A226A46C623F547C624F58A
:10718000256A266A3DEC35F01BC559F51CC55AF534
:1071900036C61BF537C61CF51D6A1E6A44C61FF5A8
:1071A00045C620F5216A226A42C623F543C624F566
:1071B000256A266A3DEC35F01BC557F51CC558F508
:1071C00057505924276E58505A20286ED89028308E
:1071D000296E273006015A6F29C55BF600F01200B0
:1071E000000EBE6E000EBF6E000EC06E080ECA6EA0
:1071F000DE0EC66ECC0EC76E070EC86EE70E04011B
:10720000106F730E086FFD0E006F000E216F000EE1
:10721000096F000E016F000E116F000E026F000E5D
:107220000A6F180E126F03690B69136904690C6900
:107230001469080E246F0F0E0201696F140E706F2F
:107240001A0E0A6F370E146F180E096F380E156F6D
:107250000B0E3D6F460E0D6F130E716F1200860EF2
:107260000501606F7F0E616F6EEC3FF0880E0501C7
:10727000606F7F0E616F73EC3FF08A0E0501606FE7
:107280007F0E616F78EC3FF0840E0501606F7F0E1A
:10729000616F69EC3FF0800E0501606F7F0E616FDA
:1072A0005FEC3FF07E0E0501606F7F0E616F5AEC60
:1072B0003FF0820E0501606F7F0E616F64EC3FF05E
:1072C000AE9C000E01011C6F000E1D6F0A0E1E6F9A
:1072D000FC0E1F6F9E8C1200000E0501656F000EE4
:1072E000646F62516311D8B478EF39F07AEF39F0F6
:1072F000A2EF39F0010E666F82EF39F0D890623755
:107300006337662B63AF87EF39F089EF39F07EEF93
:1073100039F0D890643765376251605D63516159C7
:10732000D8A095EF39F097EF39F09CEF39F0625122
:10733000605F6351615B6481D89063336233662F11
:1073400089EF39F064C560F565C561F5120000F09C
:107350000501FC05D8A4AFEF39F0B1EF39F0D7EF54
:1073600039F00601A005D8A4B8EF39F0BAEF39F02A
:10737000BFEF39F0010E06018A6FE1EF39F0000E20
:107380008A6F000E2A6E000E296E010E2C6E2C0ED6
:107390002B6E40EC32F0000E2A6E000E296E020EAB
:1073A0002C6E580E2B6ECAEC31F0E1EF39F0FC5127
:1073B000D8A4DDEF39F0DFEF39F0E1EF39F0BAEFC3
:1073C00039F01200000E6F6E020E706E000E716EBC
:1073D0003D0E726E000E736EFE0E746E000E756EB4
:1073E000000E766E000E776E000E796E1F0E7A6EAE
:1073F000000E7B6E1F0E7C6E000E7D6EB39CB39EE6
:1074000076907692A39EA39C000E0501606F000EFD
:10741000616F37EC3FF0000E0501606F000E616F89
:1074200032EC3FF0000E0501606F000E616F3CEC26
:107430003FF0800E786E1200000E606E020E616EDC
:10744000000E626E3D0E636E000E646EFE0E656E83
:10745000000E666E000E676E000E686E000E6A6E9D
:107460001F0E6B6E000E6C6E1F0E6D6E000E6E6E3C
:10747000B29CB29E67906792A29EA29C000E0501EC
:10748000606F000E616F46EC3FF0000E0501606F0B
:10749000000E616F41EC3FF0000E0501606F000EC1
:1074A000616F4BEC3FF0800E696E1200000E066EAD
:1074B000000E056E03500410D8B461EF3AF063EF8C
:1074C0003AF08BEF3AF0010E076E6BEF3AF0D8907E
:1074D00003360436072A04AE70EF3AF072EF3AF042
:1074E00067EF3AF0D890053606360350015C045039
:1074F0000258D8A07EEF3AF080EF3AF085EF3AF0EC
:107500000350015E0450025A0580D89004320332C1
:10751000072E72EF3AF005C501F506C502F5120017
:10752000000E0501686F000E696F000E6A6F000E95
:107530006B6F60A19EEF3AF0A0EF3AF0A8EF3AF03F
:10754000645168276551692366516A2367516B232B
:10755000D8906437653766376737D89063336233BE
:10756000613360336051611162116311D8A4BBEFC4
:107570003AF0BDEF3AF099EF3AF068C560F569C5A9
:1075800061F56AC562F56BC563F51200000E096E00
:10759000000E0A6E000E0B6E000E0C6E01A0D3EFF3
:1075A0003AF0D5EF3AF0DDEF3AF0055009260650F3
:1075B0000A2207500B2208500C22D89005360636B6
:1075C00007360836D89004320332023201320150B5
:1075D000021003100410D8A4F0EF3AF0F2EF3AF0E2
:1075E000CEEF3AF009C501F50AC502F50BC503F562
:1075F0000CC504F512000101018F040E49EC37F0AF
:107600000009D8A406EF3BF008EF3BF028EF3BF071
:10761000000E01014C6F260E4D6F000E4E6F000ED6
:107620004F6F600E006F970E016F100E026FC6EC69
:107630003EF0BCEC3EF0BCEC3DF022EC3EF035EC14
:107640003DF02FEC39F0060E49EC37F0C79ABF9A9F
:107650001200310E1E6E030E1F6E000E206E000E05
:10766000216E040E226E87C623F586C624F55DC5FD
:1076700025F585C626F5000E276E000E286E000E35
:10768000296E000E2A6E9BEC33F0BEB04AEF3BF041
:107690004DEF3BF0010E4EEF3BF0000EFF0A2C6E5B
:1076A000BE502C18FE0B2C18BE6E120003C509F537
:1076B00004C50AF501C507F502C508F575EF3BF0ED
:1076C000610024F4D9F4610028F4DAF4DF500B6E81
:1076D000094A0A2A61001CF4D9F4610020F4DAF4A2
:1076E00061002CF4DFF4074A082A0506D8A0060634
:1076F000052806E10628D8A480EF3BF082EF3BF096
:1077000060EF3BF01200000E256E2550020D5E0E5C
:10771000F324D96E050EF420DA6EDF50186E22C500
:1077200019F523C51AF52550B6EC32F0246E245015
:10773000D8B49DEF3BF09FEF3BF0A1EF3BF0AAEFF9
:107740003BF0252A2550D8B4A8EF3BF0AAEF3BF038
:1077500085EF3BF024501200000E03011F6F000E56
:10776000206F010E216F850E1D6FEE0E1C6FB198FC
:107770001C51600074FC62F50501636B62C563F522
:10778000626B62110601C66F050163510601C76F86
:10779000A188700E0501606F7F0E616F28EC3FF0CD
:1077A000310E03011E6F1200000E05019B1B000E1F
:1077B0009C1B000E9D1B800E9E1B97C56EF598C5E9
:1077C0006FF599C570F59AC571F59BC572F59CC5A5
:1077D00073F59DC574F59EC575F56DEC17F06EC516
:1077E00097F56FC598F570C599F571C59AF51200B2
:1077F000036E04EF3CF0BE8A19EF3CF0BE9A19EF1D
:107800003CF0BE9A19EF3CF00350016E026A025040
:10781000000AD8B40EEF3CF001EF3CF00150000A32
:10782000D8B4FEEF3BF0010AD8B4FBEF3BF001EF18
:107830003CF01200C690C784C682C69AC89AC89CFB
:10784000C89EC79A000E0501ED6F000EEC6F010E89
:10785000EF6F2C0EEE6F51EC31F0000E0501ED6F65
:10786000000EEC6F020EEF6F580EEE6FD8EC30F09A
:1078700012000501646F610090F5ECF30301F38FD2
:10788000F39DF381F3B147EF3CF049EF3CF042EF59
:107890003CF0EB510501636F626B0301EA51050196
:1078A0006225606F0301000E05016321616F120004
:1078B000BDEC3FF0300E1E6E030E1F6E000E206EEC
:1078C000000E216E060E226E59C523F557C524F50C
:1078D0004EC625F54CC626F55AC627F54AC628F5E4
:1078E000000E296E000E2A6E9BEC33F01200026E21
:1078F000000E016E040E026080EF3CF082EF3CF05F
:1079000094EF3CF002500C0D500EF324D96E010E92
:10791000F420DA6E0101DFAE90EF3CF092EF3CF024
:1079200094EF3CF0010E016E01501200010E19ECB3
:107930002DF065C538F666C539F6020E19EC2DF046
:1079400065C536F666C537F6030E19EC2DF065C52C
:1079500055F566C556F5040E19EC2DF065C553F5C1
:1079600066C554F500F0120005019F51A011A11148
:10797000A211D8B4BEEF3CF0C0EF3CF0C8EF3CF031
:10798000000E9F1B000EA01B000EA11B800EA21B51
:107990009FC59FF5A0C5A0F5A1C5A1F5A2C5A2F5FB
:1079A0001200B198C6C601F5C7C602F54CEC3DF011
:1079B00006015E4B5F2B5F5109E1050E5E5DD8A0AD
:1079C000E4EF3CF0E6EF3CF0EAEF3CF0000E5F6FD6
:1079D000000E5E6F2CEC33F01200B19E0601644B7A
:1079E000652B655109E10A0E645DD8A0FAEF3CF001
:1079F000FCEF3CF003EF3DF063EC3DF0000E0601C0
:107A0000656F000E646FA0EC3FF012000501606F1F
:107A100005016005D8A40FEF3DF011EF3DF014EF24
:107A20003DF09E8C1DEF3DF06051D8A41AEF3DF063
:107A30001CEF3DF01DEF3DF09E9C1200ABEC3FF0C3
:107A4000FAEC3DF07AEC3DF000EC26F0F0EC38F08A
:107A50006BEC3EF0ACEC3BF0E6EC3DF0E2EC39F0E8
:107A6000FBEC3AF01CEC3AF01200000E0501606FDE
:107A70006051020D5F0EF324D96E050EF420DA6E0C
:107A8000000EDF6E602B6051D8B449EF3DF04BEF34
:107A90003DF038EF3DF0120003011EA552EF3DF01E
:107AA00054EF3DF05DEF3DF01E9102501D6F6100FF
:107AB00004F41CF31E8162EF3DF002501D6F610063
:107AC00004F41CF312000601C851C911D8B46BEFBD
:107AD0003DF06DEF3DF079EF3DF002D879EF3DF0EC
:107AE0000500FA6EC851FD6EC951FE6EFF6AFA506C
:107AF00012001200040E0201946F800E956F180E92
:107B0000966F030E9E6F000E9A6F000E9B6F000E15
:107B1000976F000E8C6F000E8D6F000E9D6F120020
:107B20000501605162036100CCF364F56100D0F39C
:107B300065F560516303F350652761516203F350AB
:107B4000652764C560F565C561F51200010160A196
:107B5000ACEF3DF0AEEF3DF0BBEF3DF002D8BBEF38
:107B60003DF00500FA6E06017A51FD6E7B51FE6E06
:107B7000FF6AFA5012001200190E01015C6F040E28
:107B80005D6F600E5E6F050E5F6F500E0501606FDA
:107B90007F0E616F50EC3FF001011E83B298A28806
:107BA0001200015003026100CCF305F56100D0F32F
:107BB00006F501500402F350062602500302F3506A
:107BC000062605C501F506C502F51200480E03019B
:107BD0001B6F610E196F000E186FB19EA18E7C0E87
:107BE0000501606F7F0E616F2DEC3FF0800E030189
:107BF0001A6F1200000E0001606F000E616F000E20
:107C0000626F000E636F000E646F000E656F000EF2
:107C1000666F000E676F000E686F1200046E000E34
:107C2000036E045077EC3CF00009D8B41AEF3EF034
:107C30001CEF3EF020EF3EF0045077EC3EF0036E78
:107C4000035012005F0E0101946F95699669976960
:107C5000000E986F000E996F000E9A6F000E9B6FCA
:107C6000810E816F1200026E02500C0D530EF32430
:107C7000D96E010EF420DA6EDF50016E1F0E011670
:107C800001281200000E0501ED6F000EEC6F000ED2
:107C9000EF6F320EEE6F51EC31F0000E5D6E1200A0
:107CA000640E06013825486F000E3921496F9C0E7D
:107CB0003625446FFF0E3721456F1200A6EC3EF0CB
:107CC0000009D8B466EF3EF069EF3EF0010E6AEFAE
:107CD0003EF0000E1200700E0001AD6F000EAF6F8F
:107CE000000EB36F020EB16F000EB06F1200016E86
:107CF00001500C0D540EF324D96E010EF420DA6EEF
:107D0000DF50010B1200016E01500C0D540EF324D4
:107D1000D96E010EF420DA6EDF50090B120001015A
:107D200000050A0F14191E23282D32373C41464BFB
:057D300050555A5F648C
:107D3600010136B5A1EF3EF0A4EF3EF0010EA5EF2E
:107D46003EF0000E1200010136B9ACEF3EF0AFEF87
:107D56003EF0010EB0EF3EF0000E1200010136BB00
:107D6600B7EF3EF0BAEF3EF0010EBBEF3EF0000E6D
:107D76001200100E0101506F040E516F610E526F0A
:107D8600050E536F1200010E0101046F010E056FFF
:107D9600060E066F000E076F1200B1EC2DF0150EE1
:107DA6000501606F070E616FDFEC37F01200070EFA
:107DB6000601476F620E466F010E436F040E426F57
:107DC600120000EC36F0A7EC39F0000E0601A06FA9
:107DD600B9EC3FF01200610080F572F405016151C3
:107DE600736E1200610080F57AF4050161517B6EB5
:107DF6001200610080F563F405016151646E1200A2
:107E0600610080F56BF4050161516C6E120005018D
:107E1600606F610080F5FBF31200610004F472F4F8
:107E26000250736E1200610004F47AF402507B6E05
:107E36001200610004F463F40250646E12006100E3
:107E460004F46BF402506C6E120060C5C4F661C592
:107E5600C5F6120060C5C8F661C5C9F6120060C550
:107E6600D8F661C5D9F6120060C5DAF661C5DBF64B
:107E7600120060C5D6F661C5D7F6120060C568F671
:107E860061C569F6120060C56AF661C56BF6120037
:107E960060C566F661C567F6120060C57AF661C50B
:107EA6007BF6120001010239E832070B120060C5A9
:107EB6006EF661C56FF6120060C570F661C571F6A3
:107EC600120060C56CF661C56DF6120060C572F6EB
:107ED60061C573F6120060C578F661C579F61200C1
:107EE60060C576F661C577F6120060C574F661C5A1
:107EF60075F6120060C5CCF661C5CDF6120060C5F8
:107F0600CEF661C5CFF6120060C5D0F661C5D1F6D2
:107F1600120060C5D2F661C5D3F6120060C5CAF676
:107F260061C5CBF6120060C5D4F661C5D5F6120060
:107F360001010239E832070B1200F8EC29F0B0EC27
:107F460038F012000301F39B120013EC27F0120025
:107F5600D69A12007884120069841200788412007E
:107F660069841200010012001200120012001200B1
:107F7600120012001200120012001200120012006B
:067F8600120012001200BF
:020000040020DA
:10000000FF0FFF0FFF0FFF0FFF0FFF0FFF0FFF0F80
:10001000FF0FFF0FFF0FFF0FFF0FFF0FFF0FFF0F70
:020000040030CA
:10000000FAEFF7DF9FFFFFFFFFFFFFFFFFFFFFFF9D
:10001000FFFFFFFFFFFFFFFFFFFFFFFFFFFFFFFFF0
:04002000FFFFFFFFE0
:00000001FF
