:020000040000FA
:040000000DEF00F010
:0400080058EF33F08A
:06001800FF00FCEF34F0D4
:1025000000000000000000000000000000000000CB
:1025100000000000000000000000000000000000BB
:102520000000000000000000010203040506070887
:102530005001526561643A206E6F6E2D766F6C614A
:1025400074696C6520766F6C746167652076616C68
:1025500075652025662C20616E6420766F6C617431
:10256000696C6520766F6C746167652076616C7547
:10257000652025660053657420746865206E6F6E53
:102580002D766F6C6174696C6520766F6C74616711
:102590006520746F203156200A00536574207468DA
:1025A0006520766F6C6174696C6520766F6C746100
:1025B000676520746F203256200A0000BEC597F56B
:1025C000BFC598F5C0C599F5C1C59AF5C2C59BF5BB
:1025D000C3C59CF5C4C59DF5C5C59EF5F8EC39F09D
:1025E00097C5DEF598C5DFF599C5E0F59AC5E1F523
:1025F0006100F0F6D9F46100F4F6DAF4610078F3E2
:102600007EF5610078F37FF5610078F380F5610075
:1026100078F381F5DEC582F5DFC583F5E0C584F585
:10262000E1C585F528EC1BF07EC5C6F57FC5C7F56D
:1026300080C5C8F581C5C9F5000E0501826F000E81
:10264000836F000E846F3F0E856F20EE04F0BC5147
:10265000D926BD51DA22610078F37EF5610078F366
:102660007FF5610078F380F5610078F381F528EC5F
:102670001BF07EC5D6F57FC5D7F580C5D8F581C5D9
:10268000D9F5050120EE20F0BC51D926BD51DA2242
:10269000610078F382F5610078F383F5610078F3E7
:1026A00084F5610078F385F5D6C57EF5D7C57FF54D
:1026B000D8C580F5D9C581F528EC1BF07EC5DAF5C3
:1026C0007FC5DBF580C5DCF581C5DDF5DAC582F5B2
:1026D000DBC583F5DCC584F5DDC585F5DEC572F5A2
:1026E000DFC573F5E0C574F5E1C575F5050120EEAC
:1026F00028F0BC51D926BD51DA22610078F36EF57D
:10270000610078F36FF5610078F370F5610078F39C
:1027100071F567EC16F06EC57EF56FC57FF570C577
:1027200080F571C581F528EC1BF07EC5CAF57FC523
:10273000CBF580C5CCF581C5CDF5CAC56EF5CBC549
:102740006FF5CCC570F5CDC571F5050120EE24F00F
:10275000BC51D926BD51DA22610078F372F56100CF
:1027600078F373F5610078F374F5610078F375F52B
:1027700067EC16F0050120EE24F0BC51D926BD51BE
:10278000DA226100B8F5DEF46100BCF5DEF4610028
:10279000C0F5DEF46100C4F5DEF420EE20F0BC519B
:1027A000D926BD51DA22610078F39BF5610078F3F8
:1027B0009CF5610078F39DF5610078F39EF5000EBD
:1027C000826F000E836F000E846F400E856F20EEC7
:1027D0000CF0BC51D926BD51DA22610078F37EF5A8
:1027E000610078F37FF5610078F380F5610078F39C
:1027F00081F528EC1BF07EC597F57FC598F580C55F
:1028000099F581C59AF5F8EC39F097C5D6F598C5D4
:10281000D7F599C5D8F59AC5D9F5000E0501826F8F
:10282000000E836F000E846F400E856F20EE08F05F
:10283000BC51D926BD51DA22610078F37EF56100E2
:1028400078F37FF5610078F380F5610078F381F526
:1028500028EC1BF07EC5DAF57FC5DBF580C5DCF51D
:1028600081C5DDF5050120EE30F0BC51D926BD5102
:10287000DA22610078F39BF5610078F39CF5610042
:1028800078F39DF5610078F39EF5C2C597F5C3C551
:1028900098F5C4C599F5C5C59AF5F8EC39F097C512
:1028A00082F598C583F599C584F59AC585F5DAC58D
:1028B0007EF5DBC57FF5DCC580F5DDC581F528EC4F
:1028C0001BF07EC5CEF57FC5CFF580C5D0F581C59F
:1028D000D1F5050120EE2CF0BC51D926BD51DA22EC
:1028E000610078F382F5610078F383F5610078F395
:1028F00084F5610078F385F5D6C57EF5D7C57FF5FB
:10290000D8C580F5D9C581F528EC1BF07EC572F5D8
:102910007FC573F580C574F581C575F5CEC56EF5B7
:10292000CFC56FF5D0C570F5D1C571F567EC16F060
:102930006EC59FF56FC5A0F570C5A1F571C5A2F56F
:102940001BEC3BF09FC5A3F5A0C5A4F5A1C5A5F55B
:10295000A2C5A6F5050120EE20F0BC51D926BD5137
:10296000DA22610078F372F5610078F373F56100A3
:1029700078F374F5610078F375F5000E826F000E40
:10298000836F000E846F400E856F20EE0CF0BC51FB
:10299000D926BD51DA22610078F37EF5610078F323
:1029A0007FF5610078F380F5610078F381F528EC1C
:1029B0001BF07EC56EF57FC56FF580C570F581C5CE
:1029C00071F567EC16F06EC5A7F56FC5A8F570C573
:1029D000A9F571C5AAF550EC1DF0050120EE2CF00B
:1029E000BC51D926BD51DA2261008CF6DEF46100BB
:1029F00090F6DEF4610094F6DEF4610098F6DEF401
:102A0000000E606F000E616F000E626F400E636F0C
:102A100020EE2CF0BC51D926BD51DA22610078F3AA
:102A200064F5610078F365F5610078F366F561009F
:102A300078F367F544EC2CF00501D8A022EF15F0EF
:102A400024EF15F048EF15F020EE2CF0BC51D926FC
:102A5000BD51DA22610078F360F5610078F361F529
:102A6000610078F362F5610078F363F5000E646F3E
:102A7000000E656F000E666FC00E676F44EC2CF0A1
:102A80000501D8B046EF15F048EF15F056EF15F0F8
:102A900020EE24F0BC51D926BD51DA22000EDE6EA4
:102AA000000EDE6E000EDE6E000EDD6EC6C572F527
:102AB000C7C573F5C8C574F5C9C575F520EE24F012
:102AC000BC51D926BD51DA22610078F36EF5610060
:102AD00078F36FF5610078F370F5610078F371F5C4
:102AE00067EC16F06EC5D2F56FC5D3F570C5D4F599
:102AF00071C5D5F5D2C56EF5D3C56FF5D4C570F5E2
:102B0000D5C571F5050120EE2CF0BC51D926BD517B
:102B1000DA22610078F372F5610078F373F56100F1
:102B200078F374F5610078F375F567EC16F005013C
:102B300020EE34F0BC51D926BD51DA226100B8F53F
:102B4000DEF46100BCF5DEF46100C0F5DEF4610086
:102B5000C4F5DEF420EE14F0BC51D926BD51DA22C2
:102B6000610078F360F5610078F361F5610078F356
:102B700062F5610078F363F520EE34F0BC51D9269C
:102B8000BD51DA22610078F364F5610078F365F5F0
:102B9000610078F366F5610078F367F544EC2CF09A
:102BA0000501D8B0D6EF15F0D8EF15F0EEEF15F01F
:102BB00020EE14F0BC51D926BD51DA2210EE34F0CB
:102BC000BC51E126BD51E222DEC4E6F4DEC4E6F4E7
:102BD000DEC4E6F4DEC4E6F430EF16F020EE34F0A6
:102BE000BC51D926BD51DA22610078F360F561004D
:102BF00078F361F5610078F362F5610078F363F5CD
:102C000020EE10F0BC51D926BD51DA22610078F3D4
:102C100064F5610078F365F5610078F366F56100AD
:102C200078F367F544EC2CF00501D8B01AEF16F0F4
:102C30001CEF16F030EF16F020EE10F0BC51D92644
:102C4000BD51DA2210EE34F0BC51E126BD51E22232
:102C5000DEC4E6F4DEC4E6F4DEC4E6F4DEC4E6F484
:102C600020EE28F0BC51D926BD51DA22610078F758
:102C7000DEF461007CF7DEF4610080F7DEF46100D1
:102C800084F7DEF420EE30F0BC51D926BD51DA22B3
:102C9000610008F7DEF461000CF7DEF4610010F764
:102CA000DEF4610014F7DEF420EE34F0BC51D926D6
:102CB000BD51DA22610078F3BCF5610078F3BDF50F
:102CC000610078F3BEF5610078F3BFF512000501ED
:102CD0007151800B7A6F715171257C6F70AF73EFFA
:102CE00016F075EF16F076EF16F07C817C51D8B4B3
:102CF0007CEF16F07EEF16F093EF16F07C29D8A447
:102D000084EF16F086EF16F08EEF16F0000E6E6F61
:102D1000000E6F6F000E706F000E716F708F000EDF
:102D2000716F9BEF16F0000E6E6F000E6F6F000E4E
:102D3000706F000E716F7551800B7B6F7A517B192C
:102D4000D8B4A5EF16F0A7EF16F0A8EF16F07A8D1D
:102D5000755175257B6F74AFB0EF16F0B2EF16F0BA
:102D6000B3EF16F07B817B51D8B4B9EF16F0BBEF0F
:102D700016F0D0EF16F07B29D8A4C1EF16F0C3EF00
:102D800016F0CBEF16F0000E726F000E736F000E90
:102D9000746F000E756F748F000E756FD8EF16F09C
:102DA000000E726F000E736F000E746F000E756F61
:102DB0007C517B5DD8B0DFEF16F0E1EF16F008EF45
:102DC00017F07AADE6EF16F0E8EF16F0EAEF16F03E
:102DD000800E7A1B7CC57DF57BC57CF57DC57BF5BA
:102DE0006EC57DF572C56EF57DC572F56FC57DF555
:102DF00073C56FF57DC573F570C57DF574C570F548
:102E00007DC574F571C57DF575C571F57DC575F523
:102E1000000E7D6F7C517BC576F5776B765F000E7B
:102E2000775B77BF1DEF17F0775109E11A0E765DDA
:102E3000D8A01DEF17F01FEF17F056EF17F06E51E7
:102E40006F1170117111D8A428EF17F02BEF17F044
:102E5000010E2CEF17F0000E7D6F000E6E6F000E4E
:102E60006F6F000E706F000E716F7BC57CF55FEFAA
:102E700017F07DA13EEF17F040EF17F046EF17F087
:102E8000D8907D3101097D6F48EF17F0D8907D33E0
:102E90006EA14DEF17F04FEF17F050EF17F07D8F49
:102EA0007135713370336F336E337C2B7B517C5DA6
:102EB000D8A05DEF17F05FEF17F039EF17F07ABD8C
:102EC00064EF17F066EF17F0A6EF17F07C51D8A467
:102ED0006CEF17F06EEF17F078EF17F0000E6E6FD3
:102EE000000E6F6F000E706F000E716FC7EF18F05D
:102EF00072516E2773516F23745170237551712372
:102F000071A185EF17F087EF17F033EF18F07DA16F
:102F10008CEF17F08EEF17F094EF17F0D8907D310B
:102F200001097D6F96EF17F0D8907D336EA19BEF6E
:102F300017F09DEF17F09EEF17F07D8F713571330D
:102F400070336F336E337C2B33EF18F072516E5D3C
:102F500073516F59745170597151800A766F755160
:102F6000800A7659D8B0B7EF17F0B9EF17F0E4EF51
:102F700017F06E51725D766F6F517359776F7051A4
:102F80007459786F71517559796FFF0E76256E6F90
:102F9000FF0E77216F6FFF0E7821706FFF0E792182
:102FA000716F800E7A1B7D6D7D51D8A4DAEF17F01A
:102FB000DCEF17F0ECEF17F0010E6E27000E6F2319
:102FC00070237123ECEF17F072516E5F73516F5BDA
:102FD0007451705B7551715B6E516F11701171118D
:102FE000D8A4F5EF17F0F7EF17F02CEF18F07D519C
:102FF000D8A4FDEF17F0FFEF17F02CEF18F0000E3C
:103000006E6F000E6F6F000E706F000E716FC7EF66
:1030100018F0D8906E376F37703771377DAF13EF78
:1030200018F015EF18F016EF18F06E817DA11BEF68
:1030300018F01DEF18F021EF18F0D8807D3723EF3E
:1030400018F0D8907D377C51D8B429EF18F02BEFC9
:1030500018F02CEF18F07C0770AF31EF18F033EF59
:1030600018F009EF18F0000E7B6F7DAF3AEF18F003
:103070003CEF18F054EF18F07DC576F57F0E76170B
:10308000D8B445EF18F047EF18F04BEF18F0010EE9
:103090007B6F54EF18F06EA150EF18F052EF18F05C
:1030A00054EF18F047EF18F07B51D8B45AEF18F0EE
:1030B0005CEF18F087EF18F0010E6E27000E6F23FB
:1030C0007023712371A167EF18F069EF18F087EF93
:1030D00018F06EC576F56FC577F570C578F571C5D2
:1030E00079F57935793378337733763376C56EF57C
:1030F00077C56FF578C570F579C571F57C29D8B4B9
:1031000084EF18F086EF18F087EF18F07C2B7C29FD
:10311000D8B48DEF18F08FEF18F097EF18F07C51BE
:10312000D8A495EF18F097EF18F0A9EF18F0000E5B
:103130006E6F000E6F6F000E706F000E716F7C511E
:10314000D8A4A5EF18F0A7EF18F0A9EF18F0000E1B
:103150007A6F7CA1AEEF18F0B0EF18F0B3EF18F073
:10316000708FB4EF18F0709FD8907C31716F7AAF88
:10317000BCEF18F0BEEF18F0BFEF18F0718F6EC5FE
:103180006EF56FC56FF570C570F571C571F51200FC
:103190001250800B1B6E125012241D6E11AED3EF15
:1031A00018F0D5EF18F0D6EF18F01D801D50D8B4E8
:1031B000DCEF18F0DEEF18F0F3EF18F01D28D8A4BC
:1031C000E4EF18F0E6EF18F0EEEF18F0000E0F6ED7
:1031D000000E106E000E116E000E126E118E000E9B
:1031E000126EFBEF18F0000E0F6E000E106E000E48
:1031F000116E000E126E1650800B1C6E1B501C18A8
:10320000D8B405EF19F007EF19F008EF19F01B8C8F
:10321000165016241C6E15AE10EF19F012EF19F0AF
:1032200013EF19F01C801C50D8B419EF19F01BEFE4
:1032300019F030EF19F01C28D8A421EF19F023EF72
:1032400019F02BEF19F0000E136E000E146E000E25
:10325000156E000E166E158E000E166E38EF19F0F4
:10326000000E136E000E146E000E156E000E166E1C
:103270001D501C5CD8B03FEF19F041EF19F068EF1A
:1032800019F01BAC46EF19F048EF19F04AEF19F0AE
:10329000800E1B1A1DC51EF51CC51DF51EC51CF58F
:1032A0000FC51EF513C50FF51EC513F510C51EF588
:1032B00014C510F51EC514F511C51EF515C511F57B
:1032C0001EC515F512C51EF516C512F51EC516F557
:1032D000000E1E6E1D501CC517F5186A175E000EF5
:1032E000185A18BE7DEF19F0185009E11A0E175C34
:1032F000D8A07DEF19F07FEF19F0B6EF19F00F505D
:10330000101011101210D8A488EF19F08BEF19F0DB
:10331000010E8CEF19F0000E1E6E000E0F6E000EE7
:10332000106E000E116E000E126E1CC51DF5BFEF63
:1033300019F01EA09EEF19F0A0EF19F0A6EF19F0FA
:10334000D8901E3001091E6EA8EF19F0D8901E32D9
:103350000FA0ADEF19F0AFEF19F0B0EF19F01E8E1E
:1033600012341232113210320F321D2A1C501D5CE1
:10337000D8A0BDEF19F0BFEF19F099EF19F01BBC01
:10338000C4EF19F0C6EF19F006EF1AF01D50D8A4DB
:10339000CCEF19F0CEEF19F0D8EF19F0000E0F6E48
:1033A000000E106E000E116E000E126E27EF1BF055
:1033B00013500F26145010221550112216501222AD
:1033C00012A0E5EF19F0E7EF19F093EF1AF01EA045
:1033D000ECEF19F0EEEF19F0F4EF19F0D8901E3081
:1033E00001091E6EF6EF19F0D8901E320FA0FBEF08
:1033F00019F0FDEF19F0FEEF19F01E8E12341232A3
:10340000113210320F321D2A93EF1AF013500F5C55
:1034100014501058155011581250800A176E16503B
:10342000800A1758D8B017EF1AF019EF1AF044EFC6
:103430001AF00F50135C176E10501458186E11507C
:103440001558196E125016581A6EFF0E17240F6E6B
:10345000FF0E1820106EFF0E1920116EFF0E1A209D
:10346000126E800E1B1A1E6C1E50D8A43AEF1AF072
:103470003CEF1AF04CEF1AF0010E0F26000E10224E
:10348000112212224CEF1AF013500F5E1450105AF2
:103490001550115A1650125A0F50101011101210C8
:1034A000D8A455EF1AF057EF1AF08CEF1AF01E500F
:1034B000D8A45DEF1AF05FEF1AF08CEF1AF0000E4F
:1034C0000F6E000E106E000E116E000E126E27EFC2
:1034D0001BF0D8900F361036113612361EAE73EF31
:1034E0001AF075EF1AF076EF1AF00F801EA07BEF3E
:1034F0001AF07DEF1AF081EF1AF0D8801E3683EFB4
:103500001AF0D8901E361D50D8B489EF1AF08BEF00
:103510001AF08CEF1AF01D0611AE91EF1AF093EF2E
:103520001AF069EF1AF0000E1C6E1EAE9AEF1AF038
:103530009CEF1AF0B4EF1AF01EC517F57F0E1716A0
:10354000D8B4A5EF1AF0A7EF1AF0ABEF1AF0010EFE
:103550001C6EB4EF1AF00FA0B0EF1AF0B2EF1AF031
:10356000B4EF1AF0A7EF1AF01C50D8B4BAEF1AF063
:10357000BCEF1AF0E7EF1AF0010E0F26000E102232
:103580001122122212A0C7EF1AF0C9EF1AF0E7EFCA
:103590001AF00FC517F510C518F511C519F512C5A4
:1035A0001AF51A341A3219321832173217C50FF5B4
:1035B00018C510F519C511F51AC512F51D28D8B48E
:1035C000E4EF1AF0E6EF1AF0E7EF1AF01D2A1D28D3
:1035D000D8B4EDEF1AF0EFEF1AF0F7EF1AF01D5034
:1035E000D8A4F5EF1AF0F7EF1AF009EF1BF0000E70
:1035F0000F6E000E106E000E116E000E126E1D503A
:10360000D8A405EF1BF007EF1BF009EF1BF0000E2D
:103610001B6E1DA00EEF1BF010EF1BF013EF1BF045
:10362000118E14EF1BF0119ED8901D30126E1BAE40
:103630001CEF1BF01EEF1BF01FEF1BF0128E0FC5CF
:103640000FF510C510F511C511F512C512F51200D0
:1036500005018151800B8A6F81518125906F80AF68
:1036600034EF1BF036EF1BF037EF1BF090819051D9
:10367000D8B43DEF1BF03FEF1BF052EF1BF0902949
:10368000D8A445EF1BF047EF1BF04FEF1BF0000EE7
:103690007E6F000E7F6F000E806F000E816F808F37
:1036A0005AEF1BF0000E7E6F000E7F6F000E806FD2
:1036B000000E816F8551800B8A1B855185258F6F88
:1036C00084AF65EF1BF067EF1BF068EF1BF08F8195
:1036D0008F51D8B46EEF1BF070EF1BF083EF1BF02F
:1036E0008F29D8A476EF1BF078EF1BF080EF1BF04A
:1036F000000E826F000E836F000E846F000E856FC8
:10370000848F8BEF1BF0000E826F000E836F000E14
:10371000846F000E856F8F51D8B491EF1BF093EF3B
:103720001BF09BEF1BF09051D8A499EF1BF09BEF7F
:103730001BF0A5EF1BF0000E7E6F000E7F6F000EDA
:10374000806F000E816F4FEF1DF084517E0361008A
:10375000CCF395F56100D0F396F595518B6F8C6B9A
:103760008D6B8E6B9651916F926B936B946B8351B3
:103770007F036100CCF395F56100D0F396F5955188
:103780008B27000E8C238D238E2396519127000EBC
:10379000922393239423825180036100CCF395F507
:1037A0006100D0F396F595518B27000E8C238D2365
:1037B0008E2396519127000E9223932394238DC537
:1037C0008EF58CC58DF58BC58CF58B6B82517F0387
:1037D0006100CCF395F56100D0F396F595518B27F8
:1037E00096518C23000E8D23000E8E2383517E0371
:1037F0006100CCF395F56100D0F396F595518B27D8
:1038000096518C23000E8D23000E8E238DC58EF5D0
:103810008CC58DF58BC58CF58B6B82517E03610059
:10382000CCF395F56100D0F396F595518B27965121
:103830008C23000E8D23000E8E2384517F036100A4
:10384000CCF395F56100D0F396F5955191279651FB
:103850009223000E9323000E942383518003610072
:10386000CCF395F56100D0F396F5955191279651DB
:103870009223000E9323000E942384518003610051
:10388000CCF395F56100D0F396F59551866F96517E
:10389000876F886B896B88C589F587C588F586C56C
:1038A00087F5866B86519127875192238851932300
:1038B000895194238BC586F58CC587F58DC588F510
:1038C0008EC589F5190E6AEF1CF0D89089338833BC
:1038D00087338633E82E65EF1CF086519127875198
:1038E000922388519323895194238DC58EF58CC5DD
:1038F0008DF58BC58CF58B6B8F5190C586F5876BDD
:103900008627000E8723820E8625956FFF0E87215E
:10391000966FA0EF1CF0D890913792379337943779
:103920008EAF95EF1CF097EF1CF098EF1CF0918193
:10393000D8908B378C378D378E379507D8A0960760
:1039400093AFA5EF1CF0A7EF1CF08BEF1CF0000E5F
:103950008F6F8EAFAEEF1CF0B0EF1CF0D4EF1CF009
:10396000FF0E8B15866FFF0E8C15876FFF0E8D1562
:10397000886F7F0E8E15896F865187118811891186
:10398000D8B4C5EF1CF0C7EF1CF0CBEF1CF0010E54
:103990008F6FD4EF1CF091A1D0EF1CF0D2EF1CF090
:1039A000D4EF1CF0C7EF1CF08F51D8B4DAEF1CF045
:1039B000DCEF1CF000EF1DF0010E9127000E9223AA
:1039C0009323942394A1E7EF1CF0E9EF1CF000EFA0
:1039D0001DF091C586F592C587F593C588F594C508
:1039E00089F58935893388338733863386C591F5E0
:1039F00087C592F588C593F589C594F5954B962BA7
:103A000096BF0BEF1DF0965108E19529D8A00BEF5A
:103A10001DF00DEF1DF017EF1DF0000E916F000E61
:103A2000926F800E936F7F0E946F45EF1DF096BFDF
:103A300024EF1DF0965106E19505D8B022EF1DF058
:103A400024EF1DF030EF1DF0000E916F000E926F0D
:103A5000000E936F000E946F000E8A6F45EF1DF0FD
:103A600095C590F5FF0E9117FF0E92177F0E9317D5
:103A7000000E941790A13FEF1DF041EF1DF042EFB3
:103A80001DF0938FD8909031946F8A51941391C503
:103A90007EF592C57FF593C580F594C581F512003A
:103AA0000501A651800BB36FA651A625BA6FA5AF2D
:103AB0005CEF1DF05EEF1DF05FEF1DF0BA81BA51B3
:103AC000D8B465EF1DF067EF1DF07CEF1DF0BA294B
:103AD000D8A46DEF1DF06FEF1DF077EF1DF0000E15
:103AE000A36F000EA46F000EA56F000EA66FA58F2A
:103AF000000EA66F84EF1DF0000EA36F000EA46FE2
:103B0000000EA56F000EA66FAA51800BB31BAA5121
:103B1000AA25BB6FA9AF8FEF1DF091EF1DF092EFBB
:103B20001DF0BB81BB51D8B498EF1DF09AEF1DF08A
:103B3000AFEF1DF0BB29D8A4A0EF1DF0A2EF1DF040
:103B4000AAEF1DF0000EA76F000EA86F000EA96F60
:103B5000000EAA6FA98F000EAA6FB7EF1DF0000E1E
:103B6000A76F000EA86F000EA96F000EAA6FA751D5
:103B7000A811A911AA11D8A4C0EF1DF0C2EF1DF021
:103B8000DAEF1DF0000EA36F000EA46F000EA56FFC
:103B9000000EA66F800EA5137F0EA613B351A613B9
:103BA000A3C5A3F5A4C5A4F5A5C5A5F5A6C5A6F509
:103BB0001DEF1FF0BA51D8A4E0EF1DF0E2EF1DF0A9
:103BC000ECEF1DF0000EA36F000EA46F000EA56FAA
:103BD000000EA66F1DEF1FF0BB51BAC5ABF5AC6B65
:103BE000AB5F000EAC5B7F0EAB25B46F000EAC215B
:103BF000B56FA3C5AFF5A4C5B0F5A5C5B1F5A6C50C
:103C0000B2F5000EA36F000EA46F000EA56F000E9C
:103C1000A66F000EB66F000EB76F000EB86F000EE5
:103C2000B96F000EBB6F4DEF1EF0BB51D8B41BEF48
:103C30001EF01DEF1EF034EF1EF0D890AF37B037F6
:103C4000B137B237D890A337A437A537A637B9AF65
:103C50002CEF1EF02EEF1EF02FEF1EF0A381D89058
:103C6000B637B737B837B937A751AF5DA851B05994
:103C7000A951B159AA51B259D8A041EF1EF043EF52
:103C80001EF04CEF1EF0B98DA751AF5FA851B05B8D
:103C9000A951B15BAA51B25BBB2B190EBB6553EFA7
:103CA0001EF055EF1EF015EF1EF0AF51B011B1111F
:103CB000B211D8B45EEF1EF060EF1EF078EF1EF088
:103CC000B68178EF1EF0D890A337A437A537A63772
:103CD000B9AF6DEF1EF06FEF1EF070EF1EF0A38115
:103CE000D890B637B737B837B937B407D8A0B507C3
:103CF000A5AF7DEF1EF07FEF1EF063EF1EF0000E0C
:103D0000BB6FB9AF86EF1EF088EF1EF0ACEF1EF070
:103D1000FF0EB615AB6FFF0EB715AC6FFF0EB815E3
:103D2000AD6F7F0EB915AE6FAB51AC11AD11AE11C9
:103D3000D8B49DEF1EF09FEF1EF0A3EF1EF0010E12
:103D4000BB6FACEF1EF0A3A1A8EF1EF0AAEF1EF010
:103D5000ACEF1EF09FEF1EF0BB51D8B4B2EF1EF0D7
:103D6000B4EF1EF0D8EF1EF0010EA327000EA4231F
:103D7000A523A623A6A1BFEF1EF0C1EF1EF0D8EF2A
:103D80001EF0A3C5ABF5A4C5ACF5A5C5ADF5A6C59C
:103D9000AEF5AE35AE33AD33AC33AB33ABC5A3F517
:103DA000ACC5A4F5ADC5A5F5AEC5A6F5B44BB52B10
:103DB000B5BFE3EF1EF0B55108E1B429D8A0E3EF99
:103DC0001EF0E5EF1EF0F0EF1EF0000EB56FB469C7
:103DD000000EA36F000EA46F000EA56F000EA66F5D
:103DE000B5BFFDEF1EF0B55106E1B405D8B0FBEF4D
:103DF0001EF0FDEF1EF00BEF1FF0000EB56F000E72
:103E0000B46F000EA36F000EA46F000EA56F000E1E
:103E1000A66F000EB36FB4C5BAF5BAA112EF1FF0CA
:103E200014EF1FF017EF1FF0A58F18EF1FF0A59FDD
:103E3000D890BA31A66FCEEF1DF012006100B4F534
:103E4000D9F46100B8F5DAF4610078F373F5610034
:103E500078F374F5610078F375F5610078F376F521
:103E6000050120EE04F06D51D9266E51DA22DFA053
:103E70003CEF1FF03EEF1FF078EF1FF020EE01F057
:103E80006B51D9266C51DA227339E842F80BF80BE2
:103E9000DF6E050E6F6FD8907633753374337333DE
:103EA0006F2F4BEF1FF020EE02F06B51D9266C51B3
:103EB000DA226100CCF5DFF474C573F575C574F5CD
:103EC00076C575F5766B20EE03F06B51D9266C51F3
:103ED000DA2273511F0BDF6E050E6F6FD8907633A9
:103EE0007533743373336F2F6EEF1FF090EF1FF045
:103EF00020EE03F06B51D9266C51DA22000EDF6EF2
:103F000010EE02F06B51E1266C51E222DFC4E7F4BF
:103F100020EE01F06B51D9266C51DA22E7C4DFF4B0
:103F20006100ACF5D9F46100B0F5DAF46100CCF5CC
:103F3000DFF474C573F575C574F576C575F5766BE4
:103F400073C56FF5070E6F1720EE01F06B51D92680
:103F50006C51DA226F51DF1220EE04F06D51D92638
:103F60006E51DA22DF30E8320F0B726F20EE04F070
:103F70006D51D9266E51DA22DFB0C1EF1FF0C5EFC7
:103F80001FF06F6B6F2BC7EF1FF005016F6B6F3961
:103F9000F00B721320EE04F06D51D9266E51DA2227
:103FA000DFB2D5EF1FF0D9EF1FF0200E6F6FDBEF00
:103FB0001FF005016F6B6F51721320EE04F06D510D
:103FC000D9266E51DA22DFBEE8EF1FF0ECEF1FF0CA
:103FD000400E6F6FEEEF1FF005016F6B6F517213A4
:103FE00020EE04F06D51D9266E51DA22DFBCFBEFD2
:103FF0001FF0FFEF1FF0800E6F6F01EF20F0050143
:104000006F6B6F51721320EE04F06B51D9266C5117
:10401000DA226100C8F5DFF420EE04F06D51D926F4
:104020006E51DA22DFB217EF20F019EF20F045EFE2
:1040300020F0080E6B25606F000E6C21616F20EE82
:1040400005F06D51D9266E51DA22610078F362F5E0
:10405000610074F363F520EE04F06D51D9266E51C2
:10406000DA22DF30E8320F0B6F6F706B270E6F258F
:10407000F66E250E7021F76EF86A000EF822080021
:10408000F550646F656B1FEC39F01200610038F475
:10409000D9F461003CF4DAF4610078F314F56100BE
:1040A00078F315F5610078F316F5610078F317F5EC
:1040B00020EE04F00E50D9260F50DA22DFA063EF75
:1040C00020F065EF20F09FEF20F020EE01F00C5083
:1040D000D9260D50DA221438E842F80BF80BDF6EBF
:1040E000050E106ED8901732163215321432102E7B
:1040F00072EF20F020EE02F00C50D9260D50DA229B
:10410000610050F4DFF415C514F516C515F517C593
:1041100016F5176A20EE03F00C50D9260D50DA225E
:1041200014501F0BDF6E050E106ED890173216322A
:1041300015321432102E95EF20F0B7EF20F020EE5C
:1041400003F00C50D9260D50DA22000EDF6E10EE6F
:1041500002F00C50E1260D50E222DFC4E7F420EE1D
:1041600001F00C50D9260D50DA22E7C4DFF46100CB
:1041700030F4D9F4610034F4DAF4610050F4DFF47F
:1041800015C514F516C515F517C516F5176A14C526
:1041900010F5070E101620EE01F00C50D9260D5028
:1041A000DA221050DF1220EE04F00E50D9260F5004
:1041B000DA22DF30E8320F0B136E20EE04F00E50DF
:1041C000D9260F50DA22DFB0E8EF20F0ECEF20F034
:1041D000106A102AEDEF20F0106A1038F00B13125D
:1041E00020EE04F00E50D9260F50DA22DFB2FBEF9A
:1041F00020F0FFEF20F0200E106E00EF21F0106A8B
:104200001050131220EE04F00E50D9260F50DA226F
:10421000DFBE0DEF21F011EF21F0400E106E12EF16
:1042200021F0106A1050131220EE04F00E50D9261F
:104230000F50DA22DFBC1FEF21F023EF21F0800EB8
:10424000106E24EF21F0106A1050131220EE04F0CB
:104250000C50D9260D50DA2261004CF4DFF420EE28
:1042600004F00E50D9260F50DA22DFB23AEF21F0D7
:104270003CEF21F068EF21F0080E0C24016E000ED7
:104280000D20026E20EE05F00E50D9260F50DA22D6
:10429000610078F303F5610074F304F520EE04F097
:1042A0000E50D9260F50DA22DF30E8320F0B106E95
:1042B000116A270E1024F66E250E1120F76EF86A8B
:1042C000000EF8220800F550056E066A7AEC39F007
:1042D000120020EE04F00C50D9260D50DA22DF50E7
:1042E000176E17C510F520EE04F00E50D9260F50AA
:1042F000DA2210461046DF501018C30B1018DF6E7C
:1043000017B885EF21F089EF21F0106A102A8AEFA3
:1043100021F0106A20EE04F00E50D9260F50DA2258
:10432000DF501018FE0B1018DF6E17BA9AEF21F04D
:104330009EEF21F0106A102A9FEF21F0106A20EE04
:1043400004F00E50D9260F50DA221046DF50101814
:10435000FD0B1018DF6E17BCB0EF21F0B4EF21F0A9
:10436000106A102AB5EF21F0106A20EE04F00E500A
:10437000D9260F50DA2210321032DF5010187F0B7E
:104380001018DF6E17BEC7EF21F0CBEF21F0106AD7
:10439000102ACCEF21F0106A20EE04F00E50D9263E
:1043A0000F50DA22103A10461046DF501018BF0B9B
:1043B0001018DF6E20EE01F00C50D9260D50DA22D5
:1043C000DF50106E070E10161050136E146A156A27
:1043D000166A15C516F514C515F513C514F5136A37
:1043E000610030F4D9F4610034F4DAF4DF50106E77
:1043F0001050131220EE04F00E50D9260F50DA227E
:10440000DFA005EF22F007EF22F048EF22F0050EC3
:10441000D8901336143615361636E82E08EF22F0EB
:1044200020EE03F00C50D9260D50DA22DF50106E2A
:104430001F0E10161050131215C516F514C515F5DC
:1044400013C514F5136A20EE02F00C50D9260D5056
:10445000DA22DF50106E10501312050ED89013366A
:10446000143615361636E82E2EEF22F020EE01F027
:104470000C50D9260D50DA22DF50106ED890103231
:10448000D8901032D89010321F0E10161050131200
:10449000610038F4D9F461003CF4DAF461004CF4C2
:1044A000DEF4610050F4DEF4610054F4DEF46100E7
:1044B00058F4DEF4910E016E060E026E080E0C2406
:1044C000036E000E0D20046E20EE04F00E50D9266F
:1044D0000F50DA22DF30E8320F0B106E116A270E10
:1044E0001024F66E250E1120F76EF86A000EF822E1
:1044F0000800F550056E066A7AEC39F020EE05F0FA
:104500000E50D9260F50DA22910EDE6E060EDD6EA9
:104510001200020E0301F96F3F0EFA6F000ED86F02
:10452000000EFB6F000ED96F000EDA6F000EDB6F0E
:10453000000EDC6F000EDF6F000EE06F000EE36F09
:10454000000EE46F000EE56F000EE66F000EE76FE1
:10455000000EEA6F000EEB6F100EEC6FE80EEE6FC0
:10456000030EEF6F000EF06F000EF16F000EF26F92
:10457000000EF36F000EF46F100EF56F000EF66F65
:10458000000EF76F000EF86F000EFC6F010EFB6F50
:10459000000ED96F000EDA6F000EDB6F000EDC6FBD
:1045A000000EDF6F000EE06F000EE36F000EE46F91
:1045B000000EE56F000EE66F000EE76F000EEA6F6B
:1045C000000EEB6F040EEC6FE80EEE6F030EEF6F54
:1045D000000EF06F000EF16F000EF26F000EF36F21
:1045E000000EF46F100EF56F000EF66F000EF76FF1
:1045F000000EF86F000EFD6F020EFB6F000ED96FFC
:10460000000EDA6F000EDB6F000EDC6F000EDF6F46
:10461000000EE06F000EE36F000EE46F000EE56F1A
:10462000000EE66F000EE76F000EEA6F000EEB6FF4
:10463000120EEC6FE80EEE6F030EEF6F000EF06FD0
:10464000000EF16F000EF26F000EF36F000EF46FAC
:10465000100EF56F000EF66F000EF76F000EF86F7C
:10466000000EFE6F030EFB6F000ED96F000EDA6FA7
:10467000000EDB6F000EDC6F000EDF6F000EE06FD0
:10468000000EE36F000EE46F000EE56F000EE66FA4
:10469000000EE76F000EEA6F000EEB6F110EEC6F6D
:1046A000E80EEE6F030EEF6F000EF06F000EF16F6D
:1046B000000EF26F000EF36F000EF46F100EF56F28
:1046C000000EF66F000EF76F000EF86F000EFF6F12
:1046D000AF94AF96B090B092B094B096000E050132
:1046E000606F000E616F60EC3EF0000E0501606FC0
:1046F000000E616F56EC3EF0000E0501606F000E7B
:10470000616F51EC3EF0000E0501606F000E616FAD
:104710004CEC3EF0000E0501606F000E616F47EC3F
:104720003EF0000E0501606F000E616F5BEC3EF025
:10473000840E0301F36F12003EC57AF53FC57BF589
:1047400005017C6B7D6B40C67EF541C67FF5806BB5
:10475000816B3EC682F53FC683F5846B856BC7ECE3
:1047600031F07AC544F57BC545F53CC57AF53DC5C4
:104770007BF505017C6B7D6B3CC67EF53DC67FF508
:10478000806B816B3AC682F53BC683F5846B856B83
:10479000C7EC31F07AC542F57BC543F5425044245D
:1047A0000501866F43504520876FD8908731886F09
:1047B0008631406E88C541F500F0320E3E24050179
:1047C000866F000E3F20876F886B896B060128512A
:1047D0000501865D060129510501875906012A5107
:1047E000050188598951800A8A6F06012B51800A78
:1047F00005018A59D8A0FFEF23F001EF24F022EF42
:1048000024F0CE0E3E24866FFF0E3F20876F886B0C
:10481000896B86510601285D0501875106012959DA
:104820000501885106012A592B51800A05018A6F1A
:104830008951800A8A59D8B020EF24F022EF24F061
:1048400025EF24F0528027EF24F0FE0E5212320E94
:104850003C24866F000E3D20876F886B896B0601B4
:1048600024510501865D0601255105018759060180
:104870002651050188598951800A8A6F06012751FE
:10488000800A05018A59D8A048EF24F04AEF24F0A5
:104890006BEF24F0CE0E3C24866FFF0E3D20876F19
:1048A000886B896B86510601245D050187510601DD
:1048B000255905018851060126592751800A05010D
:1048C0008A6F8951800A8A59D8B069EF24F06BEF5A
:1048D00024F06EEF24F0528270EF24F0FD0E52129D
:1048E000050EFC19D8A477EF24F079EF24F07CEFC3
:1048F00024F0528495EF24F0090EFC19D8A483EF1C
:1049000024F085EF24F088EF24F0529495EF24F002
:10491000060EFC19D8A48FEF24F091EF24F093EF4A
:1049200024F085EF24F079EF24F0120091EC32F0BE
:104930000009D8B49EEF24F0A0EF24F08CEF25F00E
:10494000A10E226E060E236EA7EC39F0E806D8A45D
:10495000ACEF24F0AEEF24F08CEF25F000F0A1C610
:104960002CF5A2C62DF5A3C62EF5A4C62FF5610021
:1049700098FAD9F461009CFADAF4DF50376E060138
:1049800020EE01F0A651D926A751DA22DF50366E6B
:1049900020EE02F0A651D926A751DA22DF50336E5D
:1049A00020EE03F0A651D926A751DA22DF50346E4B
:1049B00020EE04F0A651D926A751DA22DF50356E39
:1049C00020EE05F0A651D926A751DA22DF50306E2D
:1049D00020EE06F0A651D926A751DA22DF50316E1B
:1049E00020EE07F0A651D926A751DA22DF50326E09
:1049F00046EF25F037C558F536C557F533C590F65F
:104A000034C58FF635C58EF60501FE05D8A40BEF2B
:104A100025F00DEF25F08CEF25F0010E566E8CEF92
:104A200025F03750070B8D6F3750180B8C6F3750B0
:104A3000E00B8B6F3650010B8A6F3650060B896F77
:104A40003650780B886F8CEF25F037C586F636C563
:104A500085F633C584F634C583F635C582F630C590
:104A600081F631C580F632C57FF68CEF25F037C56B
:104A7000FEF50501FE513FEC3AF08CEF25F037C50D
:104A800059F58CEF25F000F08CEF25F02CC526F5BC
:104A90002DC527F52EC528F52FC529F52950000A63
:104AA000D8B485EF25F043EF25F02750030AD8B49A
:104AB00064EF25F0070AD8B46FEF25F0010AD8B4E7
:104AC00076EF25F043EF25F02650200AD8B4FAEF10
:104AD00024F0670AD8B437EF25F043EF25F02650CD
:104AE000120AD8B43FEF25F043EF25F02650000A14
:104AF000D8B411EF25F0010AD8B425EF25F0030A48
:104B0000D8B48CEF25F043EF25F02850000AD8B434
:104B100055EF25F043EF25F012000501686F050100
:104B20006851D8B496EF25F098EF25F0BAEF25F04C
:104B300063BF9FEF25F09DEF25F0BAEF25F060C52C
:104B400064F561C565F562C566F563C567F5641F03
:104B5000651F661F671F642B000E6523662367238E
:104B600064C56AF565C56BF566C56CF567C56DF519
:104B7000C2EF25F060C56AF561C56BF562C56CF5DD
:104B800063C56DF56051611162116311D8A4CBEF5B
:104B900025F0CDEF25F0D7EF25F0000E606F000E69
:104BA000616F000E626F000E636F68EF26F0960E65
:104BB000696FE1EF25F0692BD8906D336C336B335F
:104BC0006A33000E6A15646F000E6B15656F000E78
:104BD0006C15666FFE0E6D15676F64516511661179
:104BE0006711D8A4F6EF25F0F8EF25F0DBEF25F0FC
:104BF00006EF26F0692B010E6A27000E6B236C234B
:104C00006D23D8906D336C336B336A33000E6A15A5
:104C1000646F000E6B15656F000E6C15666FFF0EEE
:104C20006D15676F6451651166116711D8A41BEF8C
:104C300026F01DEF26F0FAEF25F025EF26F06907A4
:104C4000D8906A376B376C376D376CBF2AEF26F018
:104C50002CEF26F034EF26F0020E696132EF26F0D9
:104C600034EF26F01FEF26F069B139EF26F03BEF65
:104C700026F03CEF26F06C9FD890693369C564F547
:104C8000656B666B676B64C567F5666B656B646BBC
:104C900064516A1365516B1366516C1367516D1340
:104CA0006851D8B456EF26F058EF26F060EF26F0A2
:104CB00063BF5FEF26F05DEF26F060EF26F06D8FAB
:104CC0006AC560F56BC561F56CC562F56DC563F5C8
:104CD00012003EC51BF53FC51CF51D6A1E6A40C685
:104CE0001FF541C620F5216A226A3EC623F53FC65C
:104CF00024F5256A266AF6EC32F01BC544F51CC57E
:104D000045F53CC51BF53DC51CF51D6A1E6A3CC634
:104D10001FF53DC620F5216A226A3AC623F53BC637
:104D200024F5256A266AF6EC32F01BC542F51CC54F
:104D300043F542504424276E43504520286ED890B6
:104D40002830296E2730406E29C541F500F0320E1B
:104D50003E24276E000E3F20286E296A2A6A06012B
:104D60002851275C295128582A5129582A50800A4D
:104D70002B6E2B51800A2B58D8A0C1EF26F0C3EF21
:104D800026F0DEEF26F0CE0E3E24276EFF0E3F20EB
:104D9000286E296A2A6A2750285D285029592950E7
:104DA0002A592B51800A2B6E2A50800A2B58D8B0D2
:104DB000DCEF26F0DEEF26F0E1EF26F05280E3EFA5
:104DC00026F0FE0E5212320E3C24276E000E3D20BD
:104DD000286E296A2A6A2451275C255128582651B1
:104DE00029582A50800A2B6E2751800A2B58D8A0A8
:104DF000FCEF26F0FEEF26F019EF27F0CE0E3C2454
:104E0000276EFF0E3D20286E296A2A6A2750245DEE
:104E100028502559295026592751800A2B6E2A508F
:104E2000800A2B58D8B017EF27F019EF27F01CEFA6
:104E300027F052821EEF27F0FD0E5212050E0501DB
:104E4000FC19D8A426EF27F028EF27F02BEF27F046
:104E5000528444EF27F0090EFC19D8A432EF27F052
:104E600034EF27F037EF27F0529444EF27F0060E87
:104E7000FC19D8A43EEF27F040EF27F042EF27F0CF
:104E800034EF27F028EF27F01200096E0950D8B44C
:104E90004CEF27F04EEF27F070EF27F004BE55EFF0
:104EA00027F053EF27F070EF27F001C505F502C595
:104EB00006F503C507F504C508F5051E061E071E01
:104EC000081E052A000E06220722082205C50BF53A
:104ED00006C50CF507C50DF508C50EF578EF27F0EA
:104EE00001C50BF502C50CF503C50DF504C50EF59E
:104EF0000150021003100410D8A481EF27F083EFB3
:104F000027F08DEF27F0000E016E000E026E000EEE
:104F1000036E000E046E1EEF28F0960E0A6E97EFD9
:104F200027F00A2AD8900E320D320C320B32000EC6
:104F30000B14056E000E0C14066E000E0D14076E99
:104F4000FE0E0E14086E0550061007100810D8A4A7
:104F5000ACEF27F0AEEF27F091EF27F0BCEF27F092
:104F60000A2A010E0B26000E0C220D220E22D890CA
:104F70000E320D320C320B32000E0B14056E000E89
:104F80000C14066E000E0D14076EFF0E0E14086E44
:104F90000550061007100810D8A4D1EF27F0D3EF62
:104FA00027F0B0EF27F0DBEF27F00A06D8900B369A
:104FB0000C360D360E360DBEE0EF27F0E2EF27F08F
:104FC000EAEF27F0020E0A60E8EF27F0EAEF27F099
:104FD000D5EF27F00AB0EFEF27F0F1EF27F0F2EF6F
:104FE00027F00D9ED8900A320AC505F5066A076AB1
:104FF000086A05C508F5076A066A056A05500B12B6
:1050000006500C1207500D1208500E120950D8B459
:105010000CEF28F00EEF28F016EF28F004BE15EF85
:1050200028F013EF28F016EF28F00E8E0BC501F5CF
:105030000CC502F50DC503F50EC504F512000501FA
:10504000F96F40C58BF50501F95161EC3AF0540454
:10505000D8A42DEF28F02FEF28F0D4EF28F05F042C
:10506000D8A435EF28F037EF28F0D4EF28F0F9C5B1
:1050700034F60601356B0501FE51F619D8A443EF4D
:1050800028F045EF28F0DFEF28F0FE05D8A44BEF1D
:1050900028F04DEF28F091EF28F040C560F541C5AC
:1050A00061F5626B636B000E8DEC25F060C5C2F597
:1050B00061C5C3F562C5C4F563C5C5F50501F95100
:1050C000606F616B626B636B000E8DEC25F060C5E9
:1050D000BEF561C5BFF562C5C0F563C5C1F5B00ECB
:1050E0000501BC6F060EBD6FDEEC12F0BCC5E2F52B
:1050F000BDC5E3F5BEC5E4F5BFC5E5F5C0EC2BF0D5
:10510000E2C5F7F5E3C5F8F5F7C5ECF5F8C5EDF53B
:10511000020E0501EF6F580EEE6F4AEC2DF0DFEF37
:1051200028F0FE51D8A497EF28F099EF28F0D2EF9D
:1051300028F040C560F541C561F5626B636B000EF8
:105140008DEC25F060C5C2F561C5C3F562C5C4F537
:1051500063C5C5F50501F951606F616B626B636BE7
:10516000000E8DEC25F060C5BEF561C5BFF562C5CA
:10517000C0F563C5C1F5B00E0501BC6F060EBD6F6D
:10518000DEEC12F0BCC5E2F5BDC5E3F5BEC5E4F545
:10519000BFC5E5F5C0EC2BF0E2C5F7F5E3C5F8F5C2
:1051A00084EF28F0DFEF28F0000E0501ED6F000E10
:1051B000EC6F020EEF6F580EEE6F4AEC2DF01200FE
:1051C00001011DAFE6EF28F0E8EF28F0F7EF28F037
:1051D00002D8F5EF28F00500FA6E06017251FD6E57
:1051E0007351FE6EFF6AFA50120001011D9F1DAD42
:1051F000FCEF28F0FEEF28F00DEF29F002D80BEFBE
:1052000029F00500FA6E06017051FD6E7151FE6EB7
:10521000FF6AFA50120001011D9D1DAB12EF29F02B
:1052200014EF29F023EF29F002D821EF29F005002F
:10523000FA6E06016E51FD6E6F51FE6EFF6AFA50F6
:10524000120001011D9B1CA728EF29F02AEF29F06D
:1052500039EF29F002D837EF29F00500FA6E060180
:105260006C51FD6E6D51FE6EFF6AFA501200010125
:105270001C971DA93EEF29F040EF29F04FEF29F0D0
:1052800002D84DEF29F00500FA6E06016A51FD6E55
:105290006B51FE6EFF6AFA50120001011D991DA5A7
:1052A00054EF29F056EF29F06CEF29F002D863EFA4
:1052B00029F00500FA6E06016851FD6E6951FE6E17
:1052C000FF6AFA501200010154A969EF29F06BEF4F
:1052D00029F06CEF29F054991DA771EF29F073EFB5
:1052E00029F089EF29F002D880EF29F00500FA6E45
:1052F00006016651FD6E6751FE6EFF6AFA5012009C
:10530000010160A786EF29F088EF29F089EF29F0E5
:105310006097AE9C12000501696FCEEF29F074EC26
:105320003EF0000ED9EC3DF0100EA0EC3AF060C556
:105330006AF561C56BF5010E05016C6FECEF29F0A4
:1053400074EC3EF0010ED9EC3DF0040EA0EC3AF006
:1053500060C56AF561C56BF59BEF29F074EC3EF012
:10536000020ED9EC3DF0120EA0EC3AF060C56AF5E1
:1053700061C56BF59BEF29F074EC3EF0030ED9ECA0
:105380003DF0110EA0EC3AF060C56AF561C56BF511
:105390009BEF29F0020E6C6FECEF29F005016951CB
:1053A000676F686B6851000AD8B4D9EF29F0CAEF6B
:1053B00029F06751010AD8B4AEEF29F0030AD8B436
:1053C000BCEF29F0010AD8B48FEF29F0070AD8B44E
:1053D000A0EF29F0CAEF29F06C05D8A4F2EF29F06C
:1053E000F4EF29F022EF2AF06B5107E1070E6A5D16
:1053F000D8B0FDEF29F0FFEF29F005EF2AF0000EFD
:105400006E6F000E6D6F0FEF2AF06AC56DF56BC5FC
:105410006EF5FB0E6D256D6FFF0E6E216E6F890EA2
:105420006D5D130E6E59D8A018EF2AF01AEF2AF00E
:105430001CEF2AF022EF2AF06DC565F56EC566F502
:1054400022EF2AF01200000E0501ED6F000EEC6F46
:10545000020EEF6F580EEE6F4AEC2DF0030E0501B1
:10546000F76F8A0EF66F550EE82EFED7F62FFCD793
:10547000F72FFAD700D0FDEC3AF0030E0501F76FD5
:105480008A0EF66F550EE82EFED7F62FFCD7F72FB3
:10549000FAD700D0CE0E3E240601406FFF0E3F200B
:1054A000416F320E3C243C6F000E3D203D6FCE0E0E
:1054B0003E2407012A6FFF0E3F202B6F320E3C2443
:1054C000006F000E3D20016F00F0000E0501ED6F32
:1054D000640EEC6F020EEF6F580EEE6F4AEC2DF07B
:1054E000090E0501F76FE10EF66FB20EE82EFED73A
:1054F000F62FFCD7F72FFAD700F0FDEC3AF0030EA9
:105500000501F76F8A0EF66F550EE82EFED7F62FBF
:10551000FCD7F72FFAD700D0CE0E3E2406013E6FFF
:10552000FF0E3F203F6F320E3C243A6F000E3D20AD
:105530003B6FCE0E3E240701526FFF0E3F20536F8C
:10554000320E3C24286F000E3D20296F00F0000E23
:105550000501ED6F000EEC6F010EEF6F2C0EEE6F7C
:105560004AEC2DF01200000E0501756F73BFBDEF00
:105570002AF0BBEF2AF0C7EF2AF0731F721F711FCA
:10558000706D000E712372237323010E756F6FBF50
:10559000CEEF2AF0CCEF2AF0D8EF2AF06F1F6E1F63
:1055A0006D1F6C6D000E6D236E236F23010E751B36
:1055B000000E766F000E776F000E786F000E796F19
:1055C0007051711172117311D8B4E9EF2AF0EBEF39
:1055D0002AF021EF2BF0010E746FF5EF2AF0D8902E
:1055E0007037713772377337742B73AFFAEF2AF055
:1055F000FCEF2AF0EFEF2AF0D8907637773778373C
:10560000793770516C5D71516D5972516E5973518A
:105610006F59D8A00EEF2BF010EF2BF019EF2BF0F5
:1056200070516C5F71516D5B72516E5B73516F5B4A
:105630007681D8907333723371337033742FFCEFEB
:105640002AF07551D8B427EF2BF029EF2BF031EF6A
:105650002BF0791F781F771F766D000E7723782344
:10566000792376C56CF577C56DF578C56EF579C586
:105670006FF51200000E166E14BE43EF2BF041EFD3
:105680002BF04DEF2BF0141E131E121E116C000E8A
:10569000122213221422010E166E10BE54EF2BF0AC
:1056A00052EF2BF05EEF2BF0101E0F1E0E1E0D6C36
:1056B000000E0E220F221022010E161A000E176E77
:1056C000000E186E000E196E000E1A6E1150121098
:1056D00013101410D8B46FEF2BF071EF2BF0A7EF6D
:1056E0002BF0010E156E7BEF2BF0D8901136123691
:1056F00013361436152A14AE80EF2BF082EF2BF000
:1057000075EF2BF0D8901736183619361A36115017
:105710000D5C12500E5813500F5814501058D8A04A
:1057200094EF2BF096EF2BF09FEF2BF011500D5EC6
:1057300012500E5A13500F5A1450105A1780D89006
:105740001432133212321132152E82EF2BF0165012
:10575000D8B4ADEF2BF0AFEF2BF0B7EF2BF01A1E54
:10576000191E181E176C000E182219221A2217C5AE
:105770000DF518C50EF519C50FF51AC510F512006F
:105780000501E435E535EB6FEB51D8A4CAEF2BF0FA
:10579000CCEF2BF0D6EF2BF0000EE26F000EE36F94
:1057A000000EE46F000EE56F43EF2CF0E2C5E6F566
:1057B000E3C5E7F5E4C5E8F5E5C5E9F5200EE6EF54
:1057C0002BF0D890E933E833E733E633E82EE1EF06
:1057D0002BF0E651EA6FE48FFF0EE217FF0EE3179E
:1057E000FF0EE417000EE517960EEB5FEBBFFDEF23
:1057F0002BF0FBEF2BF013EF2CF0EB51800A970FFF
:10580000D8B005EF2CF007EF2CF009EF2CF0CCEF1F
:105810002BF0D890E533E433E333E233EB3F09EF89
:105820002CF02BEF2CF01F0EEB6519EF2CF01BEF7B
:105830002CF023EF2CF0CCEF2BF0D890E237E337AD
:10584000E437E537EB07EB51D8A429EF2CF02BEF29
:105850002CF01DEF2CF0EA51D8B431EF2CF033EFDF
:105860002CF03BEF2CF0E51FE41FE31FE26D000E70
:10587000E323E423E523E2C5E2F5E3C5E3F5E4C56C
:10588000E4F5E5C5E5F51200000E05016015686F49
:10589000000E6115696F800E62156A6F7F0E6315C9
:1058A0006B6F685169116A116B11D8A45AEF2CF013
:1058B0005CEF2CF064EF2CF0000E606F000E616F57
:1058C000000E626F000E636F000E6415686F000EAD
:1058D0006515696F800E66156A6F7F0E67156B6FB1
:1058E000685169116A116B11D8A479EF2CF07BEF24
:1058F0002CF083EF2CF0000E646F000E656F000E2D
:10590000666F000E676F63AF88EF2CF08AEF2CF0A4
:1059100093EF2CF0606D611FD8B0612B621FD8B07F
:10592000622B800E635767AF98EF2CF09AEF2CF044
:10593000A3EF2CF0646D651FD8B0652B661FD8B03F
:10594000662B800E6757000E601B000E611B000E59
:10595000621B800E631B000E641B000E651B000E95
:10596000661B800E671B6451605D6551615966510D
:10597000625967516359D8B0C0EF2CF0C2EF2CF0D8
:10598000C5EF2CF0D890C6EF2CF0D880120021344F
:105990002234286E2850D8A4D0EF2CF0D2EF2CF06F
:1059A000DCEF2CF0000E1F6E000E206E000E216E3C
:1059B000000E226E49EF2DF01FC523F520C524F5FA
:1059C00021C525F522C526F5200EECEF2CF0D89048
:1059D0002632253224322332E82EE7EF2CF02350F2
:1059E000276E218EFF0E1F16FF0E2016FF0E2116AA
:1059F000000E2216960E285E28BE03EF2DF001EF52
:105A00002DF019EF2DF02850800A970FD8B00BEF2A
:105A10002DF00DEF2DF00FEF2DF0D2EF2CF0D890F0
:105A20002232213220321F32283E0FEF2DF031EF8B
:105A30002DF01F0E28641FEF2DF021EF2DF029EF20
:105A40002DF0D2EF2CF0D8901F362036213622369A
:105A500028062850D8A42FEF2DF031EF2DF023EF9A
:105A60002DF02750D8B437EF2DF039EF2DF041EF5E
:105A70002DF0221E211E201E1F6C000E202221222E
:105A800022221FC51FF520C520F521C521F522C5FD
:105A900022F51200490E05016C6F990E6D6F000E14
:105AA0006E6F000E6F6FEEC570F5EFC571F5726B1E
:105AB000736BB3EC2AF06CC5F2F56DC5F3F56A0EA5
:105AC0000501726F4D0E736F930E746FBF0E756F7D
:105AD000F2C560F5F3C561F5626B636B000E8DEC8A
:105AE00025F060C56EF561C56FF562C570F563C5DB
:105AF00071F567EC16F06EC5E2F56FC5E3F570C59C
:105B0000E4F571C5E5F5C0EC2BF0E2C5F2F5E3C5AF
:105B1000F3F5ECC5F0F5EDC5F1F50501D890F037DA
:105B2000F137D890F037F137F0C5F4F5F1C5F5F558
:105B3000F4C560F5F5C561F5000E636F640E626F24
:105B40002DEC3CF060C5F4F561C5F5F5F4C560F5E4
:105B5000F5C561F5EEC562F5EFC563F564EC37F0A8
:105B600060C5F4F561C5F5F5F4C560F5F5C561F5F9
:105B7000C4EC3DF0F2C560F5F3C561F5BDEC3DF058
:105B80007CEC3EF01200490E05016C6F990E6D6FB2
:105B9000000E6E6F000E6F6FEEC570F5EFC571F5FC
:105BA000726B736BB3EC2AF06CC5F2F56DC5F3F54F
:105BB0006A0E0501726F4D0E736F930E746FBF0EF8
:105BC000756FF2C560F5F3C561F5626B636B000E2E
:105BD0008DEC25F060C56EF561C56FF562C570F599
:105BE00063C571F567EC16F06EC5E2F56FC5E3F5B8
:105BF00070C5E4F571C5E5F5C0EC2BF0E2C5F2F532
:105C0000E3C5F3F5ECC5F0F5EDC5F1F50501D89068
:105C1000F037F137D890F037F137F0C5F4F5F1C52A
:105C2000F5F5F4C560F5F5C561F5000E636F640E1A
:105C3000626F2DEC3CF060C5F4F561C5F5F5F4C577
:105C400060F5F5C561F5EEC562F5EFC563F564EC89
:105C500037F060C5F4F561C5F5F5F4C560F5F5C537
:105C600061F5D2EC3DF0F2C560F5F3C561F5CBEC22
:105C70003DF07EEC3EF01200490E0D6E990E0E6E58
:105C8000000E0F6E000E106E2BC511F52CC512F50F
:105C9000136A146A3AEC2BF00DC52FF50EC530F5DA
:105CA0006A0E136E4D0E146E930E156EBF0E166EA9
:105CB0002FC501F530C502F5036A046A000E45ECF4
:105CC00027F001C50FF502C510F503C511F504C590
:105CD00012F5C8EC18F00FC51FF510C520F511C559
:105CE00021F512C522F5C7EC2CF01FC52FF520C5F4
:105CF00030F529C52DF52AC52EF5D8902D362E362E
:105D0000D8902D362E362DC531F52EC532F531C53C
:105D100001F532C502F5000E046E640E036E6EECE2
:105D20003CF001C531F502C532F531C501F532C58A
:105D300002F52BC503F52CC504F513EC38F001C5AD
:105D400031F502C532F531C501F532C502F5E5EC94
:105D50003DF02FC501F530C502F5DFEC3DF080ECDC
:105D60003EF01200490E0D6E990E0E6E000E0F6E73
:105D7000000E106E2BC511F52CC512F5136A146AAE
:105D80003AEC2BF00DC52FF50EC530F56A0E136EEB
:105D90004D0E146E930E156EBF0E166E2FC501F5C7
:105DA00030C502F5036A046A000E45EC27F001C510
:105DB0000FF502C510F503C511F504C512F5C8ECC1
:105DC00018F00FC51FF510C520F511C521F512C536
:105DD00022F5C7EC2CF01FC52FF520C530F529C5DD
:105DE0002DF52AC52EF5D8902D362E36D8902D3685
:105DF0002E362DC531F52EC532F531C501F532C52A
:105E000002F5000E046E640E036E6EEC3CF001C5EC
:105E100031F502C532F531C501F532C502F52BC5A4
:105E200003F52CC504F513EC38F001C531F502C5B6
:105E300032F531C501F532C502F5F1EC3DF02FC563
:105E400001F530C502F5EBEC3DF082EC3EF01200BE
:105E5000216E000E1D6E185048EC3DF0206E20A003
:105E600034EF2FF036EF2FF09CEF2FF018500C0D81
:105E7000580EF324D96E010EF420DA6E610078F327
:105E80001EF5610074F31FF51E501F10D8B44BEFC0
:105E90002FF04DEF2FF09CEF2FF01EC50CF51FC516
:105EA0000DF519C50EF51AC50FF569EC21F018505E
:105EB0000C0D510EF324D96E010EF420DA6E000E93
:105EC000DB802150020D5E0EF324D96E050EF42006
:105ED000DA6EDF2A1850DFEC3CF01B6E2150020D09
:105EE0005E0EF324D96E050EF420DA6E1B50DE5CD4
:105EF000D8A07DEF2FF07FEF2FF089EF2FF021500A
:105F0000020D5E0EF324D96E050EF420DA6E000E3B
:105F1000DF6E20A68EEF2FF090EF2FF09AEF2FF08C
:105F200018500C0D540EF324D96E010EF420DA6EC5
:105F3000F70EDF16010E1D6E1D5012000501666F73
:105F4000000E0501686F20EE04F06151D926625100
:105F5000DA22DF50696F69AFB0EF2FF0B2EF2FF0A8
:105F6000BEEF2FF065EC3EF0060AD8A4BAEF2FF092
:105F7000BCEF2FF0BEEF2FF00501688305016931FA
:105F8000E8320F0B636F080E6365C9EF2FF0CBEF9C
:105F90002FF0DEEF2FF069ADD0EF2FF0D2EF2FF022
:105FA000DCEF2FF065EC3EF0060AD8A4DAEF2FF014
:105FB000DCEF2FF0DEEF2FF0050168812F0EF66E7B
:105FC000250EF76EF86A08006100D4F363F5050149
:105FD0006931E8320F0B646F656B270E6425F66E2E
:105FE000250E6521F76EF86A000EF8220800F550BC
:105FF000635DD8B0FEEF2FF000EF30F001EF30F02E
:1060000068816651EEEC3CF00009D8A40AEF30F04C
:106010000CEF30F00FEF30F0030E050168130501AF
:106020006851120082C599F683C59AF684C59BF61D
:1060300085C59CF686C59DF687C59EF688C59FF6E4
:1060400089C5A0F67DC5A8F67EC5A9F67FC5AAF6C6
:1060500080C5ABF60601AC9DAC9FAC93AC9181C5FD
:106060008AF50F0E05018A178A478A470601AC5147
:1060700005018A19C30B8A190601AC6F990EAD6F21
:10608000060EAE6F6AEC3DF0E806D8A44AEF30F099
:106090004CEF30F04DEF30F000F05FEC3DF0E806F3
:1060A000D8A455EF30F057EF30F058EF30F000F053
:1060B00054EC3DF0E806D8A460EF30F062EF30F029
:1060C00063EF30F000F00AEC3DF0E806D8A46BEF87
:1060D00030F06DEF30F06EEF30F000F0000E71EC4C
:1060E0003BF005018A6F8AA178EF30F07AEF30F04B
:1060F00082EF30F0A80E776F060E786F000E11EC6D
:1061000034F000F012000601E851E911D8B48BEF29
:1061100030F08DEF30F099EF30F002D899EF30F099
:106120000500FA6EE851FD6EE951FE6EFF6AFA5005
:106130001200BFEC3AF05C2A060E5C18D8A4A3EF5C
:1061400030F0A5EF30F0A9EF30F0000E5C6EB4EC4B
:106150003DF05B2A0B0E5B18D8A4B1EF30F0B3EF23
:1061600030F0B7EF30F0000E5B6E4DEC39F05A2A8C
:10617000650E5A18D8A4BFEF30F0C1EF30F0C5EF6C
:1061800030F0000E5A6E8BEC3EF006015C4B5D2B3E
:106190002D0E5C1906E15D05D8A4D1EF30F0D3EFE8
:1061A00030F0D9EF30F0000E5D6F000E5C6F89ECBF
:1061B0003EF006015A4B5B2B590E5A1907E1020EAD
:1061C0005B19D8A4E6EF30F0E8EF30F0EEEF30F0F6
:1061D000000E5B6F000E5A6F8AEC3EF0120023C572
:1061E00099F624C59AF625C59BF626C59CF627C5C3
:1061F0009DF628C59EF629C59FF62AC5A0F61EC5A0
:10620000A8F61FC5A9F620C5AAF621C5ABF606015A
:10621000AC9DAC9FAC93AC9122C52BF50F0E2B1609
:106220002B462B46AC512B18C30B2B18AC6F990E79
:10623000AD6F060EAE6F8BEC3DF0E806D8A423EFF1
:1062400031F025EF31F026EF31F000F080EC3DF039
:10625000E806D8A42EEF31F030EF31F031EF31F015
:1062600000F075EC3DF0E806D8A439EF31F03BEFD3
:1062700031F03CEF31F000F017EC3DF0E806D8A427
:1062800044EF31F046EF31F047EF31F000F0000E0F
:10629000ABEC3CF02B6E2BA050EF31F052EF31F015
:1062A0005AEF31F0A80E186E060E196E000E94EC1F
:1062B00035F000F01200076E000E096E20EE04F0BB
:1062C0000250D9260350DA22DF500A6E0AAE6BEF75
:1062D00031F06DEF31F078EF31F06AEC3EF0060A04
:1062E000D8A475EF31F077EF31F078EF31F0098213
:1062F0000A30E8320F0B046E080E046482EF31F0AE
:1063000084EF31F096EF31F00AAC89EF31F08BEF8A
:1063100031F095EF31F06AEC3EF0060AD8A493EF25
:1063200031F095EF31F096EF31F009802F0EF66ED7
:10633000250EF76EF86A08006100D4F304F50A3000
:10634000E8320F0B056E066A270E0524F66E250E41
:106350000620F76EF86A000EF8220800F550045C7B
:10636000D8B0B5EF31F0B7EF31F0B8EF31F00980C8
:1063700007503CEC3DF00009D8A4C1EF31F0C3EF69
:1063800031F0C5EF31F0030E09120950120005017A
:106390007E517A5D606F7F517B59616F80517C596E
:1063A000626F81517D59636F640E646F000E656F7B
:1063B000000E666F000E676F86EC38F060C56CF5F6
:1063C00061C56DF562C56EF563C56FF505017E515A
:1063D000825D706F7F518359716F80518459726FE4
:1063E00081518559736FB3EC2AF06CC57AF56DC590
:1063F0007BF56EC57CF56FC57DF505017DBF05EFAD
:1064000032F003EF32F00FEF32F0000E7A6F000E31
:106410007B6F000E7C6F000E7D6F27EF32F07DBF2B
:106420001DEF32F07D517C117B1109E1650E7A5D23
:10643000D8A01DEF32F01FEF32F027EF32F0640EDC
:106440007A6F000E7B6F000E7C6F000E7D6F7AC539
:106450007AF57BC57BF51200000ECFB4010E016EFC
:10646000000ECEB2010E026E00F00104D8A43BEF84
:1064700032F03DEF32F04CEF32F00250D8A443EF4F
:1064800032F045EF32F04CEF32F0010E0501FD6FB6
:1064900053C57CF690EF32F00150D8A452EF32F0A1
:1064A00054EF32F063EF32F00204D8A45AEF32F026
:1064B0005CEF32F063EF32F0020E0501FD6F53C561
:1064C0007BF690EF32F00150D8A469EF32F06BEF19
:1064D00032F078EF32F00250D8A471EF32F073EF5F
:1064E00032F078EF32F0030E0501FD6F90EF32F0DD
:1064F0000104D8A47EEF32F080EF32F08DEF32F05D
:106500000204D8A486EF32F088EF32F08DEF32F03B
:10651000040E0501FD6F90EF32F0050E0501FD6FD1
:106520001200000E036E000E0A6E0A50020D5D0E80
:10653000F324D96E050EF420DA6EDF50066E065095
:1065400048EC3DF0056E05A0A8EF32F0AAEF32F05E
:10655000EBEF32F00650DFEC3CF0076E05A6B3EF30
:1065600032F0B5EF32F0B9EF32F007C504F5E9EFDC
:1065700032F006500C0D550EF324D96E010EF420A6
:10658000DA6EDF501F0B086E0A50020D5E0EF32408
:10659000D96E050EF420DA6EDF50096E0950085CE2
:1065A000D8B0D5EF32F0D7EF32F0DDEF32F009504E
:1065B000085C0724046EE9EF32F00850095CD8B09B
:1065C000E4EF32F0E6EF32F0B5EF32F00950085C5C
:1065D000046E045003260A2A0A50D8B4F2EF32F0AF
:1065E000F4EF32F095EF32F0035012001F501B5CB5
:1065F000016E20501C58026E21501D58036E22500F
:106600001E58046E640E056E000E066E000E076EB8
:10661000000E086EBCEC38F001C50DF502C50EF594
:1066200003C50FF504C510F51F50235C116E2050F3
:106630002458126E21502558136E22502658146E7D
:106640003AEC2BF00DC51BF50EC51CF50FC51DF55D
:1066500010C51EF51EBE31EF33F02FEF33F03BEFC8
:1066600033F0000E1B6E000E1C6E000E1D6E000E31
:106670001E6E53EF33F01EBE49EF33F01E501D1057
:106680001C1009E1650E1B5CD8A049EF33F04BEFFD
:1066900033F053EF33F0640E1B6E000E1C6E000ED1
:1066A0001D6E000E1E6E1BC51BF51CC51CF51200D1
:1066B0006100D8F338F56100DCF339F56100E0F3EF
:1066C0003AF56100D4F33BF5A1AE69EF33F06BEF1F
:1066D00033F076EF33F0B1AE70EF33F072EF33F0AA
:1066E00076EF33F08AEC3BF0ACEF33F0A1A87BEF10
:1066F00033F07DEF33F088EF33F0B1A882EF33F061
:1067000084EF33F088EF33F055EC3BF0ACEF33F02F
:106710009EAC8DEF33F08FEF33F09AEF33F0AEACE9
:1067200094EF33F096EF33F09AEF33F0E0EC28F08B
:10673000ACEF33F0A2A89FEF33F0A1EF33F0ACEF52
:1067400033F0B2A8A6EF33F0A8EF33F0ACEF33F09C
:1067500043EC3CF0ACEF33F06100ECF4F5F4610095
:10676000E8F4F8F46100E4F4F7F46100E0F4F6F41E
:1067700011000501FA6F57505518D8B4C2EF33F025
:10678000C4EF33F010EF34F0F0EF33F0010EF66F9A
:10679000000E60EC34F00EEF34F03C0EFB6F010E97
:1067A000F66FFB5160EC34F01A0E0501F86FF80E2D
:1067B000E82EFED7F82FFCD700F00501FB07FB51B0
:1067C000D8A4E5EF33F0E7EF33F0CFEF33F00EEF7F
:1067D00034F0010EF66F3C0E60EC34F00EEF34F046
:1067E0000501FA51F86FF96BF951000AD8B4FBEFC3
:1067F00033F00EEF34F0F851000AD8B40EEF34F055
:10680000010AD8B4CDEF33F0030AD8B4E9EF33F07E
:10681000010AD8B4C6EF33F00EEF34F057C555F582
:10682000120005017C6F05017C511CEC3AF0000957
:10683000D8B41DEF34F01FEF34F05FEF34F077C5BC
:1068400061F578C562F505017C519EEC2FF00501DC
:10685000796F7951D8A42FEF34F031EF34F05FEF36
:1068600034F07C510C0D580EF324D96E010EF42037
:10687000DA6E610078F37AF5610074F37BF57A5192
:106880007B11D8B446EF34F048EF34F05FEF34F0CA
:106890007AC56BF57BC56CF577C56DF578C56EF57A
:1068A0001EEC1FF005017C510C0D510EF324D96E26
:1068B000010EF420DA6E030EDF125FEF34F01200E7
:1068C0000501F76F5404D8A468EF34F06AEF34F090
:1068D000A3EF34F00501F7513C0D6100CCF34AF60B
:1068E0006100D0F34BF64AC660F54BC661F5000E69
:1068F000636F640E626F64EC37F060C54AF661C581
:106900004BF606014A514A6F4B6B0501FE51F619D1
:10691000D8A48DEF34F08FEF34F0AEEF34F0040EE6
:10692000FD6195EF34F097EF34F0AEEF34F04AC6E6
:10693000ECF54BC6EDF5010EEF6F2C0EEE6FC3ECD0
:106940002DF0AEEF34F0000E0501ED6F000EEC6F90
:10695000010EEF6F2C0EEE6FC3EC2DF01200BBECAE
:106960003BF081EC3AF030EC3DF0FDEC3AF0FCEC21
:106970003CF0AAEC3DF0D68E000EA3EC3BF0D0EC40
:106980003CF0000E0601576F000E566FFDEC3AF01A
:106990009CEC23F026EC36F086EC3EF00501FE512F
:1069A000D8A4D5EF34F0D7EF34F0E5EF34F0000E93
:1069B000F66F060154511FEC28F0000E0501F66F2A
:1069C000595060EC34F0C6EF34F0FE05D8A4EBEF7C
:1069D00034F0EDEF34F0C6EF34F0010EF66F58509E
:1069E0001FEC28F0000E0501FD6F5750B9EC33F095
:1069F000C6EF34F00DEF00F0520EF66E6D0EF76E2E
:106A0000000EF86E01EE00F310EE7EF00900F5C402
:106A1000EEF4E550E150FAE1700EF66E760EF76E88
:106A2000000EF86E01EEAFF210EE39F00900F5C479
:106A3000EEF4E550E150FAE1080EF66E7D0EF76EC9
:106A4000000EF86E09006100D4F35DF509006100E5
:106A5000D4F35EF509006100D4F35FF501EE00F2B6
:106A6000AF0EEE6AE806FDE10501FE6BFD6BFC6B07
:106A700001EE3CF1210EEE6AE806FDE10401080E8C
:106A80005D6F000E5E6F000E5F6F0001AFEF34F0C0
:106A90000501626F000E0501616F65EC3EF00501B6
:106AA000606F040E6019D8B458EF35F05AEF35F026
:106AB0006BEF35F06205D8B460EF35F062EF35F07A
:106AC0006BEF35F0040E6219D8A469EF35F06BEF67
:106AD00035F090EF35F00101035105016219F80B13
:106AE00062190101036F82EF35F001011DA97BEFEF
:106AF00035F07DEF35F082EF35F0020E0501616F64
:106B000092EF35F00239E832070B05016219D8A47B
:106B10008CEF35F08EEF35F075EF35F092EF35F004
:106B2000010E616F615112001D6E1D50DEEC3AF0D6
:106B30000009D8B49EEF35F0A0EF35F0DDEF35F069
:106B400018C502F519C503F51D505BEC31F01A6E3E
:106B50001A50D8A4AEEF35F0B0EF35F0DDEF35F0D8
:106B60001D500C0D580EF324D96E010EF420DA6E70
:106B7000610078F31BF5610074F31CF51B501C10C9
:106B8000D8B4C5EF35F0C7EF35F0DDEF35F01BC5F4
:106B90000CF51CC50DF518C50EF519C50FF546EC1D
:106BA00020F01D500C0D510EF324D96E010EF4206F
:106BB000DA6E030EDF12DDEF35F01200050120EE74
:106BC00024F06051D9266151DA22000EDE6E000EEB
:106BD000DE6E000EDE6E000EDD6E20EE28F06051DF
:106BE000D9266151DA22000EDE6E000EDE6E000E36
:106BF000DE6E000EDD6E20EE2CF06051D926615164
:106C0000DA22000EDE6E000EDE6E000EDE6E000E6C
:106C1000DD6E20EE30F06051D9266151DA22000E8F
:106C2000DE6E000EDE6E000EDE6E000EDD6E20EEFD
:106C300034F06051D9266151DA22000EDE6E000E6A
:106C4000DE6E000EDE6E000EDD6E120038C67AF5C6
:106C500039C67BF505017C6B7D6B48C67EF549C660
:106C60007FF5806B816B46C682F547C683F5846BE2
:106C7000856BC7EC31F07AC548F57BC549F536C65A
:106C80007AF537C67BF505017C6B7D6B44C67EF5D6
:106C900045C67FF5806B816B42C682F543C683F59E
:106CA000846B856BC7EC31F07AC546F57BC547F53B
:106CB000465048240501866F47504920876FD89079
:106CC0008731886F86310601546F88C555F600F00C
:106CD000120038C61BF539C61CF51D6A1E6A48C667
:106CE0001FF549C620F5216A226A46C623F547C624
:106CF00024F5256A266AF6EC32F01BC548F51CC55A
:106D000049F536C61BF537C61CF51D6A1E6A44C612
:106D10001FF545C620F5216A226A42C623F543C6FF
:106D200024F5256A266AF6EC32F01BC546F51CC52B
:106D300047F546504824276E47504920286ED89082
:106D40002830296E27300601546F29C555F600F00A
:106D500012003A0A2B0A220ABA093D09E108A708DB
:106D6000A807E106AC0644060A06CD057105310503
:106D70000B05D6049A042E042404E7037B048F0435
:106D80009104B2046005450569052406C106F406B0
:106D90006C079F07F1076108CB080E096209BD095E
:106DA000D60ADA0A920B00050A0F14191E23282DA1
:106DB00032373C41464B50555A5F6400050A0F1468
:106DC000191E23282D32373C41464B50555A5F64DB
:106DD000000EBE6E000EBF6E000EC06E080ECA6EB4
:106DE000DE0EC66ECC0EC76E070EC86EE70E04012F
:106DF000106F730E086FFD0E006F000E216F000EF6
:106E0000096F000E016F000E116F000E026F000E71
:106E10000A6F180E126F03690B69136904690C6914
:106E20001469080E246F0F0E0201696F140E706F43
:106E30001A0E0A6F370E146F180E096F380E156F81
:106E40000B0E3D6F460E0D6F130E716F1200240E68
:106E50000501606F7D0E616F38EC3EF0260E050176
:106E6000606F7D0E616F3DEC3EF0280E0501606F96
:106E70007D0E616F42EC3EF0220E0501606F7D0ECB
:106E8000616F33EC3EF01E0E0501606F7D0E616F89
:106E900029EC3EF01C0E0501606F7D0E616F24EC45
:106EA0003EF0200E0501606F7D0E616F2EEC3EF00E
:106EB000AE9C000E01011C6F000E1D6F0A0E1E6FAE
:106EC000FC0E1F6F9E8C1200000E0501656F000EF8
:106ED000646F62516311D8B470EF37F072EF37F01E
:106EE0009AEF37F0010E666F7AEF37F0D89062377D
:106EF0006337662B63AF7FEF37F081EF37F076EFC4
:106F000037F0D890643765376251605D63516159DD
:106F1000D8A08DEF37F08FEF37F094EF37F0625154
:106F2000605F6351615B6481D89063336233662F25
:106F300081EF37F064C560F565C561F51200000E9C
:106F40006F6E020E706E000E716E3D0E726E000E50
:106F5000736EFE0E746E000E756E000E766E000E71
:106F6000776E000E796E1F0E7A6E000E7B6E1F0E0E
:106F70007C6E000E7D6EB39CB39E76907692A39E3F
:106F8000A39C000E0501606F000E616F06EC3EF0E1
:106F9000000E0501606F000E616F01EC3EF0000E07
:106FA0000501606F000E616F0BEC3EF0800E786E95
:106FB0001200000E606E020E616E000E626E3D0EDB
:106FC000636E000E646EFE0E656E000E666E000E41
:106FD000676E000E686E000E6A6E1F0E6B6E000EFE
:106FE0006C6E1F0E6D6E000E6E6EB29CB29E679040
:106FF0006792A29EA29C000E0501606F000E616F59
:1070000015EC3EF0000E0501606F000E616F10EC94
:107010003EF0000E0501606F000E616F1AEC3EF04D
:10702000800E696E1200000E066E000E056E035093
:107030000410D8B41EEF38F020EF38F048EF38F0E5
:10704000010E076E28EF38F0D89003360436072A71
:1070500004AE2DEF38F02FEF38F024EF38F0D89051
:10706000053606360350015C04500258D8A03BEFA9
:1070700038F03DEF38F042EF38F00350015E045035
:10708000025A0580D89004320332072E2FEF38F0D1
:1070900005C501F506C502F5120000F00501FE0563
:1070A000D8A455EF38F057EF38F07BEF38F056049E
:1070B000D8A45DEF38F05FEF38F063EF38F0010EE1
:1070C000546E85EF38F0000E546E000E2A6E000EDE
:1070D000296E010E2C6E2C0E2B6EB2EC2EF0000ED3
:1070E0002A6E000E296E020E2C6E580E2B6E3CEC92
:1070F0002EF085EF38F0FE51D8A481EF38F083EF01
:1071000038F085EF38F05FEF38F01200000E05011F
:10711000686F000E696F000E6A6F000E6B6F60A1E2
:1071200094EF38F096EF38F09EEF38F0645168270E
:107130006551692366516A2367516B23D890643780
:10714000653766376737D8906333623361336033AE
:107150006051611162116311D8A4B1EF38F0B3EF3F
:1071600038F08FEF38F068C560F569C561F56AC51C
:1071700062F56BC563F51200000E096E000E0A6E13
:10718000000E0B6E000E0C6E01A0C9EF38F0CBEFB5
:1071900038F0D3EF38F00550092606500A22075080
:1071A0000B2208500C22D8900536063607360836D2
:1071B000D89004320332023201320150021003101F
:1071C0000410D8A4E6EF38F0E8EF38F0C4EF38F058
:1071D00009C501F50AC502F50BC503F50CC504F593
:1071E00012000101018F040E48EC35F00009D8A40B
:1071F000FCEF38F0FEEF38F01EEF39F0000E010121
:107200004C6F260E4D6F000E4E6F000E4F6F600ECE
:10721000006F970E016F100E026FA0EC3DF096EC20
:107220003DF059EC3CF0BFEC3CF0D2EC3BF027ECED
:1072300037F0060E48EC35F0C79ABF9A120062C5C7
:1072400068F563C569F560C566F561C567F53EEF2C
:1072500039F06100A0F5D9F46100A4F5DAF4DF504B
:107260006A6F684B692B610098F5D9F461009CF551
:10727000DAF46100A8F5DFF4664B672B05016407BB
:10728000D8A06507642906E16529D8A44AEF39F03A
:107290004CEF39F029EF39F01200310E1E6E030E5B
:1072A0001F6E000E206E000E216E040E226E52C55F
:1072B00023F551C524F5FDC525F550C526F5000E6D
:1072C000276E000E286E000E296E000E2A6EEFEC5F
:1072D00030F0BEB06EEF39F071EF39F0010E72EFA1
:1072E00039F0000EFF0A2C6EBE502C18FE0B2C1825
:1072F000BE6E120003C509F504C50AF501C507F500
:1073000002C508F599EF39F0610024F4D9F4610061
:1073100028F4DAF4DF500B6E094A0A2A61001CF4E3
:10732000D9F4610020F4DAF461002CF4DFF4074AA8
:10733000082A0506D8A00606052806E10628D8A4CE
:10734000A4EF39F0A6EF39F084EF39F01200000E07
:10735000256E2550020D5D0EF324D96E050EF42026
:10736000DA6EDF50186E22C519F523C51AF52550BF
:1073700028EC2FF0246E2450D8B4C1EF39F0C3EFBD
:1073800039F0C5EF39F0CEEF39F0252A2550D8B4C1
:10739000CCEF39F0CEEF39F0A9EF39F024501200DC
:1073A000000E03011F6F000E206F010E216F850E6E
:1073B0001D6FEE0E1C6FB1981C51600074FC62F5DD
:1073C0000501636B62C563F5626B62110601EA6FCA
:1073D000050163510601EB6FA1880E0E0501606F78
:1073E0007D0E616FF7EC3DF0310E03011E6F120050
:1073F000000E05019B1B000E9C1B000E9D1B800EAA
:107400009E1B97C56EF598C56FF599C570F59AC521
:1074100071F59BC572F59CC573F59DC574F59EC548
:1074200075F567EC16F06EC597F56FC598F570C5E4
:1074300099F571C59AF512000501616F000E0501FD
:10744000606F040E616127EF3AF029EF3AF03CEFEC
:107450003AF061510C0D500EF324D96E010EF42058
:10746000DA6E0101DFAE37EF3AF039EF3AF03CEF78
:107470003AF0010E0501606F050160511200036EC4
:107480004BEF3AF0BE8A60EF3AF0BE9A60EF3AF006
:10749000BE9A60EF3AF00350016E026A0250000A91
:1074A000D8B455EF3AF048EF3AF00150000AD8B49A
:1074B00045EF3AF0010AD8B442EF3AF048EF3AF01B
:1074C000120005018C6F000E05017D6F050E7E6FA9
:1074D000000E7F6F000E806F060E816F8CC582F5E7
:1074E0008BC583F540C584F554C685F552C586F530
:1074F000000E876F000E886F000E896F12EC30F05F
:107500001200C690C784C682C69AC89AC89CC89EF4
:10751000C79A000E0501ED6F000EEC6F010EEF6FC4
:107520002C0EEE6FC3EC2DF0000E0501ED6F000E7A
:10753000EC6F020EEF6F580EEE6F4AEC2DF012005A
:107540000501646F610090F5ECF30301F38FF39D87
:10755000F381F3B1AEEF3AF0B0EF3AF0A9EF3AF0C1
:10756000EB510501636F626B0301EA51050162256E
:10757000606F0301000E05016321616F12008CEC46
:107580003EF0300E1E6E030E1F6E000E206E000EBB
:10759000216E060E226E48C523F546C524F544C566
:1075A00025F542C526F554C627F540C528F5000E39
:1075B000296E000E2A6EEFEC30F01200026E000E03
:1075C000016E040E0260E7EF3AF0E9EF3AF0FBEFEC
:1075D0003AF002500C0D500EF324D96E010EF42037
:1075E000DA6E0101DFAEF7EF3AF0F9EF3AF0FBEFB8
:1075F0003AF0010E016E01501200010E8BEC29F0E1
:1076000065C538F666C539F6020E8BEC29F065C5FE
:1076100036F666C537F6030E8BEC29F065C53EF5E8
:1076200066C53FF5040E8BEC29F065C53CF566C5D3
:107630003DF500F0120005019F51A011A111A2110A
:10764000D8B425EF3BF027EF3BF02FEF3BF0000ED7
:107650009F1B000EA01B000EA11B800EA21B9FC52E
:107660009FF5A0C5A0F5A1C5A1F5A2C5A2F5120080
:10767000019A9919403333B33F000000000AD7A3A1
:107680003C000000000000C842000020C1000020B3
:10769000410AD7233C000000000000000000000069
:0976A000000000000000000000E1
:1076AA00B198EAC601F5EBC602F5E9EC3BF0060132
:1076BA00584B592B595109E1050E585DD8A068EF6E
:1076CA003BF06AEF3BF06EEF3BF0000E596F000E95
:1076DA00586F83EC30F012000501636F000E05014C
:1076EA00626F63511CEC3AF00009D8B47FEF3BF0AB
:1076FA0081EF3BF087EF3BF005016351EEEC3CF084
:10770A000501626F050162511200B19E06015E4BCE
:10771A005F2B5F5109E10A0E5E5DD8A097EF3BF03F
:10772A0099EF3BF0A0EF3BF000EC3CF0000E0601B5
:10773A005F6F000E5E6F6FEC3EF012000501606F26
:10774A0005016005D8A4ACEF3BF0AEEF3BF0B1EF1A
:10775A003BF09E8CBAEF3BF06051D8A4B7EF3BF0F8
:10776A00B9EF3BF0BAEF3BF09E9C12007AEC3EF088
:10777A0097EC3CF017EC3CF089EC22F0E8EC36F0A0
:10778A0024EC3DF0D0EC39F083EC3CF09FEC37F080
:10779A00F1EC38F0D9EC37F01200000E0501606FF9
:1077AA006051020D5E0EF324D96E050EF420DA6ED6
:1077BA00000EDF6E602B6051D8B4E6EF3BF0E8EFC5
:1077CA003BF0D5EF3BF0120003011EA5EFEF3BF0B3
:1077DA00F1EF3BF0FAEF3BF01E9102501D6F610092
:1077EA0004F41CF31E81FFEF3BF002501D6F610091
:1077FA0004F41CF312000601EC51ED11D8B408EFA1
:10780A003CF00AEF3CF016EF3CF002D816EF3CF0E1
:10781A000500FA6EEC51FD6EED51FE6EFF6AFA50EC
:10782A0012001200040E0201946F800E956F180E5A
:10783A00966F030E9E6F000E9A6F000E9B6F000EDE
:10784A00976F000E8C6F000E8D6F000E9D6F1200E9
:10785A000501605162036100CCF364F56100D0F365
:10786A0065F560516303F350652761516203F35074
:10787A00652764C560F565C561F51200010160A15F
:10788A0049EF3CF04BEF3CF058EF3CF002D858EF90
:10789A003CF00500FA6E06017451FD6E7551FE6EDC
:1078AA00FF6AFA5012001200190E01015C6F040EF1
:1078BA005D6F600E5E6F050E5F6FEE0E0501606F05
:1078CA007C0E616F1FEC3EF001011E83B298A28804
:1078DA001200015003026100CCF305F56100D0F3F8
:1078EA0006F501500402F350062602500302F35033
:1078FA00062605C501F506C502F51200480E030164
:10790A001B6F610E196F000E186FB19EA18E1A0EB1
:10791A000501606F7D0E616FFCEC3DF0800E030186
:10792A001A6F1200000E0001606F000E616F000EE8
:10793A00626F000E636F000E646F000E656F000EBB
:10794A00666F000E676F000E686F1200046E000EFD
:10795A00036E0450DEEC3AF00009D8B4B7EF3CF0FD
:10796A00B9EF3CF0BDEF3CF004503CEC3DF0036E47
:10797A00035012005F0E0101946F95699669976929
:10798A00000E986F000E996F000E9A6F000E9B6F93
:10799A00810E816F1200000E0501ED6F000EEC6F73
:1079AA00000EEF6F320EEE6FC3EC2DF0000E0501E4
:1079BA00FD6F1200026E02500C0D530EF324D96EA5
:1079CA00010EF420DA6EDF50016E1F0E0116012837
:1079DA0012000501606F050160510C0D540EF3246D
:1079EA00D96E010EF420DA6EDF50010B1200640E1C
:1079FA0006013825486F000E3921496F9C0E36253D
:107A0A00446FFF0E3721456F12005FEC3DF000090D
:107A1A00D8B412EF3DF015EF3DF0010E16EF3DF030
:107A2A00000E120080EC3DF00009D8B41FEF3DF0C3
:107A3A0022EF3DF0010E23EF3DF0000E1200700E12
:107A4A000001AD6F000EAF6F000EB36F020EB16F83
:107A5A00000EB06F1200C08CC08E23EC2AF0B00E5C
:107A6A000501606F060E616FDEEC35F01200016EE3
:107A7A0001500C0D540EF324D96E010EF420DA6E67
:107A8A00DF50010B1200016E01500C0D540EF3244D
:107A9A00D96E010EF420DA6EDF50090B12000101D3
:107AAA0036B55AEF3DF05DEF3DF0010E5EEF3DF069
:107ABA00000E1200010136B965EF3DF068EF3DF0A6
:107ACA00010E69EF3DF0000E1200010136BB70EFA6
:107ADA003DF073EF3DF0010E74EF3DF0000E120021
:107AEA00010136B57BEF3DF07EEF3DF0010E7FEFF1
:107AFA003DF0000E1200010136B986EF3DF089EF24
:107B0A003DF0010E8AEF3DF0000E1200010136BB76
:107B1A0091EF3DF094EF3DF0010E95EF3DF0000E30
:107B2A001200100E0101506F040E516F610E526F58
:107B3A00050E536F1200010E0101046F010E056F4D
:107B4A00060E066F000E076F1200070E0601476F3A
:107B5A00620E466F010E436F040E426F12002CEC48
:107B6A0032F04DEC38F0000E566E88EC3EF0120002
:107B7A00610080F572F405016151736E12006100B3
:107B8A0080F57AF4050161517B6E1200610080F57F
:107B9A0063F405016151646E1200610080F56BF4B3
:107BAA00050161516C6E12000501606F610080F57C
:107BBA00FBF31200610004F472F40250736E1200B7
:107BCA00610004F47AF402507B6E1200610004F43E
:107BDA0063F40250646E1200610004F46BF4025004
:107BEA006C6E120060C5E8F661C5E9F6120060C560
:107BFA00ECF661C5EDF6120060C5FCF661C5FDF64E
:107C0A00120060C5FEF661C5FFF6120060C5FAF6FD
:107C1A0061C5FBF6120060C562F661C563F6120023
:107C2A0060C564F661C565F6120060C560F661C597
:107C3A0061F6120060C574F661C575F6120060C57A
:107C4A0068F661C569F6120060C56AF661C56BF629
:107C5A00120060C566F661C567F6120060C56CF66B
:107C6A0061C56DF6120060C572F661C573F6120041
:107C7A0060C570F661C571F6120060C56EF661C521
:107C8A006FF6120060C5F0F661C5F1F6120060C524
:107C9A00F2F661C5F3F6120060C5F4F661C5F5F6B1
:107CAA00120060C5F6F661C5F7F6120060C5EEF679
:107CBA0061C5EFF6120060C5F8F661C5F9F6120063
:107CCA0001010239E832070B120001010239E832D8
:107CDA00070B120069EC26F069EC36F0120003017A
:107CEA00F39B120096EC24F01200D69A12007884C4
:107CFA00120069841200788412006984120001005B
:017D0A000177
:107D0C0012001200120012001200120012001200D7
:0E7D1C001200120012001200120012001200DB
:020000040020DA
:10000000FF0FFF0FFF0FFF0FFF0FFF0FFF0FFF0F80
:10001000FF0FFF0FFF0FFF0FFF0FFF0FFF0FFF0F70
:10002000FF0FFF0FFF0FFF0FFF0FFF0FFF0FFF0F60
:10003000FF0FFF0FFF0FFF0FFF0FFF0FFF0FFF0F50
:020000040030CA
:10000000FAEFF7DF9FFFFFFFFFFFFFFFFFFFFFFF9D
:10001000FFFFFFFFFFFFFFFFFFFFFFFFFFFFFFFFF0
:04002000FFFFFFFFE0
:00000001FF
