:020000040000FA
:040000000DEF00F010
:0400080084EF2AF067
:06001800FF0081EF2EF055
:1026000000000000000000000000000000000000CA
:1026100000000000000000000000000000000000BA
:102620000000000000000000010203040506070886
:102630005001526561643A206E6F6E2D766F6C6149
:1026400074696C6520766F6C746167652076616C67
:1026500075652025662C20616E6420766F6C617430
:10266000696C6520766F6C746167652076616C7546
:10267000652025660053657420746865206E6F6E52
:102680002D766F6C6174696C6520766F6C74616710
:102690006520746F203156200A00536574207468D9
:1026A0006520766F6C6174696C6520766F6C7461FF
:1026B000676520746F203256200A00000501C4515E
:1026C000800BCD6FC451C425CF6FC3AF6AEF13F039
:1026D0006CEF13F06DEF13F0CF81CF51D8B473EFDF
:1026E00013F075EF13F08AEF13F0CF29D8A47BEF26
:1026F00013F07DEF13F085EF13F0000EC16F000EA5
:10270000C26F000EC36F000EC46FC38F000EC46F84
:1027100092EF13F0000EC16F000EC26F000EC36F78
:10272000000EC46FC851800BCE6FCD51CE19D8B4F6
:102730009CEF13F09EEF13F09FEF13F0CD8DC85177
:10274000C825CE6FC7AFA7EF13F0A9EF13F0AAEF1C
:1027500013F0CE81CE51D8B4B0EF13F0B2EF13F036
:10276000C7EF13F0CE29D8A4B8EF13F0BAEF13F0E7
:10277000C2EF13F0000EC56F000EC66F000EC76FDC
:10278000000EC86FC78F000EC86FCFEF13F0000E9A
:10279000C56F000EC66F000EC76F000EC86FCF5119
:1027A000CE5DD8B0D6EF13F0D8EF13F0FFEF13F0F3
:1027B000CDADDDEF13F0DFEF13F0E1EF13F0800E9E
:1027C000CD1BCFC5D0F5CEC5CFF5D0C5CEF5C1C593
:1027D000D0F5C5C5C1F5D0C5C5F5C2C5D0F5C6C5CE
:1027E000C2F5D0C5C6F5C3C5D0F5C7C5C3F5D0C5BC
:1027F000C7F5C4C5D0F5C8C5C4F5D0C5C8F5000E29
:10280000D06FCF51CEC5C9F5CA6BC95F000ECA5B88
:10281000CABF14EF14F0CA5109E11A0EC95DD8A05D
:1028200014EF14F016EF14F04DEF14F0C151C21173
:10283000C311C411D8A41FEF14F022EF14F0010E3D
:1028400023EF14F0000ED06F000EC16F000EC26FA8
:10285000000EC36F000EC46FCEC5CFF556EF14F057
:10286000D0A135EF14F037EF14F03DEF14F0D8900D
:10287000D0310109D06F3FEF14F0D890D033C1A10F
:1028800044EF14F046EF14F047EF14F0D08FC43546
:10289000C433C333C233C133CF2BCE51CF5DD8A0A5
:1028A00054EF14F056EF14F030EF14F0CDBD5BEFA1
:1028B00014F05DEF14F09DEF14F0CF51D8A463EF46
:1028C00014F065EF14F06FEF14F0000EC16F000EFE
:1028D000C26F000EC36F000EC46FBEEF15F0C5517E
:1028E000C127C651C223C751C323C851C423C4A1A1
:1028F0007CEF14F07EEF14F02AEF15F0D0A183EFF7
:1029000014F085EF14F08BEF14F0D890D03101095A
:10291000D06F8DEF14F0D890D033C1A192EF14F0A6
:1029200094EF14F095EF14F0D08FC435C433C33353
:10293000C233C133CF2B2AEF15F0C551C15DC6514B
:10294000C259C751C359C451800AC96FC851800ABE
:10295000C959D8B0AEEF14F0B0EF14F0DBEF14F0BB
:10296000C151C55DC96FC251C659CA6FC351C7595C
:10297000CB6FC451C859CC6FFF0EC925C16FFF0E74
:10298000CA21C26FFF0ECB21C36FFF0ECC21C46FD3
:10299000800ECD1BD06DD051D8A4D1EF14F0D3EF61
:1029A00014F0E3EF14F0010EC127000EC223C3237D
:1029B000C423E3EF14F0C551C15FC651C25BC751D8
:1029C000C35BC851C45BC151C211C311C411D8A4A7
:1029D000ECEF14F0EEEF14F023EF15F0D051D8A483
:1029E000F4EF14F0F6EF14F023EF15F0000EC16FC2
:1029F000000EC26F000EC36F000EC46FBEEF15F065
:102A0000D890C137C237C337C437D0AF0AEF15F0FB
:102A10000CEF15F00DEF15F0C181D0A112EF15F0FC
:102A200014EF15F018EF15F0D880D0371AEF15F025
:102A3000D890D037CF51D8B420EF15F022EF15F051
:102A400023EF15F0CF07C3AF28EF15F02AEF15F0ED
:102A500000EF15F0000ECE6FD0AF31EF15F033EF71
:102A600015F04BEF15F0D0C5C9F57F0EC917D8B4D6
:102A70003CEF15F03EEF15F042EF15F0010ECE6F72
:102A80004BEF15F0C1A147EF15F049EF15F04BEFF3
:102A900015F03EEF15F0CE51D8B451EF15F053EFCD
:102AA00015F07EEF15F0010EC127000EC223C323DF
:102AB000C423C4A15EEF15F060EF15F07EEF15F0B2
:102AC000C1C5C9F5C2C5CAF5C3C5CBF5C4C5CCF5EA
:102AD000CC35CC33CB33CA33C933C9C5C1F5CAC52C
:102AE000C2F5CBC5C3F5CCC5C4F5CF29D8B47BEFAF
:102AF00015F07DEF15F07EEF15F0CF2BCF29D8B470
:102B000084EF15F086EF15F08EEF15F0CF51D8A4B5
:102B10008CEF15F08EEF15F0A0EF15F0000EC16FE1
:102B2000000EC26F000EC36F000EC46FCF51D8A449
:102B30009CEF15F09EEF15F0A0EF15F0000ECD6F95
:102B4000CFA1A5EF15F0A7EF15F0AAEF15F0C38FF1
:102B5000ABEF15F0C39FD890CF31C46FCDAFB3EFBB
:102B600015F0B5EF15F0B6EF15F0C48FC1C5C1F57E
:102B7000C2C5C2F5C3C5C3F5C4C5C4F51200125021
:102B8000800B1B6E125012241D6E11AECAEF15F091
:102B9000CCEF15F0CDEF15F01D801D50D8B4D3EF5C
:102BA00015F0D5EF15F0EAEF15F01D28D8A4DBEFEE
:102BB00015F0DDEF15F0E5EF15F0000E0F6E000ECD
:102BC000106E000E116E000E126E118E000E126E3F
:102BD000F2EF15F0000E0F6E000E106E000E116E6B
:102BE000000E126E1650800B1C6E1B501C18D8B4B1
:102BF000FCEF15F0FEEF15F0FFEF15F01B8C1650F3
:102C000016241C6E15AE07EF16F009EF16F00AEF4A
:102C100016F01C801C50D8B410EF16F012EF16F00E
:102C200027EF16F01C28D8A418EF16F01AEF16F0AC
:102C300022EF16F0000E136E000E146E000E156ECD
:102C4000000E166E158E000E166E2FEF16F0000E8B
:102C5000136E000E146E000E156E000E166E1D50D3
:102C60001C5CD8B036EF16F038EF16F05FEF16F0B8
:102C70001BAC3DEF16F03FEF16F041EF16F0800E63
:102C80001B1A1DC51EF51CC51DF51EC51CF50FC55F
:102C90001EF513C50FF51EC513F510C51EF514C599
:102CA00010F51EC514F511C51EF515C511F51EC587
:102CB00015F512C51EF516C512F51EC516F5000E42
:102CC0001E6E1D501CC517F5186A175E000E185AA7
:102CD00018BE74EF16F0185009E11A0E175CD8A050
:102CE00074EF16F076EF16F0ADEF16F00F501010EF
:102CF00011101210D8A47FEF16F082EF16F0010E1B
:102D000083EF16F0000E1E6E000E0F6E000E106E9A
:102D1000000E116E000E126E1CC51DF5B6EF16F0FA
:102D20001EA095EF16F097EF16F09DEF16F0D890D5
:102D30001E3001091E6E9FEF16F0D8901E320FA0B4
:102D4000A4EF16F0A6EF16F0A7EF16F01E8E1234C1
:102D50001232113210320F321D2A1C501D5CD8A0C5
:102D6000B4EF16F0B6EF16F090EF16F01BBCBBEF09
:102D700016F0BDEF16F0FDEF16F01D50D8A4C3EF0E
:102D800016F0C5EF16F0CFEF16F0000E0F6E000E26
:102D9000106E000E116E000E126E1EEF18F0135022
:102DA0000F2614501022155011221650122212A074
:102DB000DCEF16F0DEEF16F08AEF17F01EA0E3EF5F
:102DC00016F0E5EF16F0EBEF16F0D8901E30010983
:102DD0001E6EEDEF16F0D8901E320FA0F2EF16F037
:102DE000F4EF16F0F5EF16F01E8E12341232113297
:102DF00010320F321D2A8AEF17F013500F5C145057
:102E00001058155011581250800A176E1650800A2B
:102E10001758D8B00EEF17F010EF17F03BEF17F080
:102E20000F50135C176E10501458186E115015582F
:102E3000196E125016581A6EFF0E17240F6EFF0EE1
:102E40001820106EFF0E1920116EFF0E1A20126E40
:102E5000800E1B1A1E6C1E50D8A431EF17F033EFF2
:102E600017F043EF17F0010E0F26000E102211226B
:102E7000122243EF17F013500F5E1450105A1550E2
:102E8000115A1650125A0F50101011101210D8A4C7
:102E90004CEF17F04EEF17F083EF17F01E50D8A449
:102EA00054EF17F056EF17F083EF17F0000E0F6E88
:102EB000000E106E000E116E000E126E1EEF18F056
:102EC000D8900F361036113612361EAE6AEF17F054
:102ED0006CEF17F06DEF17F00F801EA072EF17F078
:102EE00074EF17F078EF17F0D8801E367AEF17F0EE
:102EF000D8901E361D50D8B480EF17F082EF17F02F
:102F000083EF17F01D0611AE88EF17F08AEF17F068
:102F100060EF17F0000E1C6E1EAE91EF17F093EFEE
:102F200017F0ABEF17F01EC517F57F0E1716D8B4C4
:102F30009CEF17F09EEF17F0A2EF17F0010E1C6E3A
:102F4000ABEF17F00FA0A7EF17F0A9EF17F0ABEF5B
:102F500017F09EEF17F01C50D8B4B1EF17F0B3EF95
:102F600017F0DEEF17F0010E0F26000E10221122CF
:102F7000122212A0BEEF17F0C0EF17F0DEEF17F02D
:102F80000FC517F510C518F511C519F512C51AF5B5
:102F90001A341A3219321832173217C50FF518C5FC
:102FA00010F519C511F51AC512F51D28D8B4DBEFB7
:102FB00017F0DDEF17F0DEEF17F01D2A1D28D8B44B
:102FC000E4EF17F0E6EF17F0EEEF17F01D50D8A47E
:102FD000ECEF17F0EEEF17F000EF18F0000E0F6EA9
:102FE000000E106E000E116E000E126E1D50D8A451
:102FF000FCEF17F0FEEF17F000EF18F0000E1B6E5D
:103000001DA005EF18F007EF18F00AEF18F0118E69
:103010000BEF18F0119ED8901D30126E1BAE13EFFF
:1030200018F015EF18F016EF18F0128E0FC50FF507
:1030300010C510F511C511F512C512F512000501E4
:10304000EE6F000E0501F36F000EF46F000EF56FCA
:10305000000EF66F00F005019205D8A432EF18F0CB
:1030600034EF18F06DEF19F0B151E66FB251E76F20
:10307000E86BE96B440EE625B36FFB0EE721B46FF6
:10308000FF0EE821B56FFF0EE921B66F640EB76F32
:10309000000EB86F000EB96F000EBA6FBBEC2DF0CA
:1030A000B3C5BFF5B4C5C0F5B5C5C1F5B6C5C2F564
:1030B0007A0E0501C36F070EC46F000EC56F000EB8
:1030C000C66F2AEC23F00501BF51EE5D606FC05161
:1030D000616B615BC151626B625BC251636B635B2D
:1030E00060510601282705016151060129230501C8
:1030F000625106012A230501635106012B23245145
:103100000501605DEF6F0601255105016159F06F02
:103110000601265105016259F16F0601275105018B
:103120006359F26FFAC5B3F5FBC5B4F5000EB4BF31
:10313000FF0EB56FB66F60C5B7F561C5B8F562C56E
:10314000B9F563C5BAF5BBEC2DF0B3C5E6F5B4C56A
:10315000E7F5B5C5E8F5B6C5E9F5F8C5B3F5F9C5C0
:10316000B4F50501000EB4BFFF0EB56FB66F28C6EB
:10317000B7F529C6B8F52AC6B9F52BC6BAF5BBEC22
:103180002DF00501B351E625EA6FB451E721EB6F4D
:10319000B551E821EC6FB651E921ED6F68C5B3F583
:1031A00069C5B4F5000EB4BFFF0EB56FB66FEFC5BD
:1031B000B7F5F0C5B8F5F1C5B9F5F2C5BAF5BBEC90
:1031C0002DF00501B351EA25F36FB451EB21F46FF3
:1031D000B551EC21F56FB651ED21F66FF3C5BFF592
:1031E000F4C5C0F5F5C5C1F5F6C5C2F5E80EC36F67
:1031F000030EC46F000EC56F000EC66F2AEC23F0DD
:10320000BFC5F3F5C0C5F4F5C1C5F5F5C2C5F6F502
:103210000501F6BF18EF19F0F651F511F41106E1AA
:10322000F305D8B016EF19F018EF19F022EF19F0E6
:10323000000EF36F000EF46F000EF56F000EF66FC8
:103240003AEF19F0F6BF30EF19F0F651F511F4111D
:1032500009E1650EF35DD8A030EF19F032EF19F0F7
:103260003AEF19F0640EF36F000EF46F000EF56F75
:10327000000EF66F00F05F500501E519D8A443EF8A
:1032800019F045EF19F063EF19F05F04D8A44BEF84
:1032900019F04DEF19F059EF19F0F3C5DBF5F4C54E
:1032A000DCF5020EDE6F580EDD6FBAEC25F063EF31
:1032B00019F05F50D8A45FEF19F061EF19F063EFD8
:1032C00019F04DEF19F060C524F661C525F662C509
:1032D00026F663C527F677EF19F0000EDC6F000EB7
:1032E000DB6F020EDE6F580EDD6FBAEC25F01200B8
:1032F0003C6E000E416E000E426E000E436E000EDC
:10330000446E00F005019205D8A489EF19F08BEF07
:1033100019F0BEEF1AF0B151346EB251356E366A03
:10332000376A440E3424016EFB0E3520026EFF0E08
:103330003620036EFF0E3720046E640E056E000EFD
:10334000066E000E076E000E086EF1EC2DF001C542
:103350000DF502C50EF503C50FF504C510F57A0E7F
:10336000116E070E126E000E136E000E146EB1EC8D
:1033700023F00D503C5C0501606F0E50616B615B8A
:103380000F50626B625B1050636B635B60510601B0
:103390002827050161510601292305016251060113
:1033A0002A230501635106012B2324510501605D89
:1033B0003D6E06012551050161593E6E06012651FB
:1033C000050162593F6E0601275105016359406EA0
:1033D000FAC501F5FBC502F5000E02BEFF0E036E35
:1033E000046E60C505F561C506F562C507F563C5E0
:1033F00008F5F1EC2DF001C534F502C535F503C52E
:1034000036F504C537F5F8C501F5F9C502F5000E26
:1034100002BEFF0E036E046E28C605F529C606F52A
:103420002AC607F52BC608F5F1EC2DF0015034241F
:10343000386E02503520396E035036203A6E0450F3
:1034400037203B6E68C501F569C502F5000E02BE66
:10345000FF0E036E046E3DC505F53EC506F53FC57E
:1034600007F540C508F5F1EC2DF001503824416E08
:1034700002503920426E03503A20436E04503B20E4
:10348000446E41C50DF542C50EF543C50FF544C563
:1034900010F5E80E116E030E126E000E136E000E84
:1034A000146EB1EC23F00DC541F50EC542F50FC504
:1034B00043F510C544F544BE6AEF1AF0445043107A
:1034C000421006E14104D8B068EF1AF06AEF1AF032
:1034D00074EF1AF0000E416E000E426E000E436E45
:1034E000000E446E8CEF1AF044BE82EF1AF0445086
:1034F0004310421009E1650E415CD8A082EF1AF03A
:1035000084EF1AF08CEF1AF0640E416E000E426EDA
:10351000000E436E000E446E00F05F503318D8A4C6
:1035200094EF1AF096EF1AF0B4EF1AF05F04D8A4F3
:103530009CEF1AF09EEF1AF0AAEF1AF041C529F598
:1035400042C52AF5020E2C6E580E2B6E25EC27F084
:10355000B4EF1AF05F50D8A4B0EF1AF0B2EF1AF03F
:10356000B4EF1AF09EEF1AF060C524F661C525F697
:1035700062C526F663C527F6C8EF1AF0000E2A6E5C
:10358000000E296E020E2C6E580E2B6E25EC27F0C5
:10359000120020EE04F00C50D9260D50DA22DF5034
:1035A000166E16C510F520EE04F00E50D9260F50F9
:1035B000DA2210461046DF501018C30B1018DF6EC9
:1035C00016B8E5EF1AF0E9EF1AF0106A102AEAEFE0
:1035D0001AF0106A20EE04F00E50D9260F50DA22AD
:1035E000DF501018FE0B1018DF6E16BAFAEF1AF043
:1035F000FEEF1AF0106A102AFFEF1AF0106A20EEA0
:1036000004F00E50D9260F50DA221046DF50101861
:10361000FD0B1018DF6E16BC10EF1BF014EF1BF043
:10362000106A102A15EF1BF0106A20EE04F00E50FD
:10363000D9260F50DA2210321032DF5010187F0BCB
:103640001018DF6E16BE27EF1BF02BEF1BF0106A71
:10365000102A2CEF1BF0106A20EE04F00E50D92631
:103660000F50DA22103A10461046DF501018BF0BE8
:103670001018DF6E20EE01F00C50D9260D50DA2222
:10368000DF50106E070E10161050126E136A146A77
:10369000156A14C515F513C514F512C513F5126A8C
:1036A000610030F4D9F4610034F4DAF4DF50106EC4
:1036B0001050121220EE04F00E50D9260F50DA22CC
:1036C000DFA065EF1BF067EF1BF0A8EF1BF0050E06
:1036D000D8901236133614361536E82E68EF1BF0E4
:1036E00020EE03F00C50D9260D50DA22DF50106E78
:1036F0001F0E10161050121214C515F513C514F52F
:1037000012C513F5126A20EE02F00C50D9260D50A6
:10371000DA22DF50106E10501212050ED8901236B9
:10372000133614361536E82E8EEF1BF020EE01F01E
:103730000C50D9260D50DA22DF50106ED89010327E
:10374000D8901032D89010321F0E1016105012124E
:10375000610038F4D9F461003CF4DAF4610048F413
:10376000DEF461004CF4DEF4610050F4DEF461003C
:1037700054F4DEF4560E016E060E026E080E0C2492
:10378000036E000E0D20046E20EE04F00E50D926BC
:103790000F50DA22DF30E8320F0B106E116A270E5D
:1037A0001024F66E260E1120F76EF86A000EF8222D
:1037B0000800F550056E066A54EC2EF020EE05F078
:1037C0000E50D9260F50DA22560EDE6E060EDD6E32
:1037D0001200020E0301F96F3F0EFA6F000ED86F50
:1037E000000EFB6F000ED96F000EDA6F000EDB6F5C
:1037F000000EDC6F000EDF6F000EE06F000EE36F57
:10380000000EE46F000EE56F000EE66F000EE76F2E
:10381000000EEA6F000EEB6F100EEC6FE80EEE6F0D
:10382000030EEF6F000EF06F000EF16F000EF26FDF
:10383000000EF36F000EF46F100EF56F000EF66FB2
:10384000000EF76F000EF86F000EFC6F010EFB6F9D
:10385000000ED96F000EDA6F000EDB6F000EDC6F0A
:10386000000EDF6F000EE06F000EE36F000EE46FDE
:10387000000EE56F000EE66F000EE76F000EEA6FB8
:10388000000EEB6F040EEC6FE80EEE6F030EEF6FA1
:10389000000EF06F000EF16F000EF26F000EF36F6E
:1038A000000EF46F100EF56F000EF66F000EF76F3E
:1038B000000EF86F000EFD6F020EFB6F000ED96F49
:1038C000000EDA6F000EDB6F000EDC6F000EDF6F94
:1038D000000EE06F000EE36F000EE46F000EE56F68
:1038E000000EE66F000EE76F000EEA6F000EEB6F42
:1038F000120EEC6FE80EEE6F030EEF6F000EF06F1E
:10390000000EF16F000EF26F000EF36F000EF46FF9
:10391000100EF56F000EF66F000EF76F000EF86FC9
:10392000000EFE6F030EFB6F000ED96F000EDA6FF4
:10393000000EDB6F000EDC6F000EDF6F000EE06F1D
:10394000000EE36F000EE46F000EE56F000EE66FF1
:10395000000EE76F000EEA6F000EEB6F110EEC6FBA
:10396000E80EEE6F030EEF6F000EF06F000EF16FBA
:10397000000EF26F000EF36F000EF46F100EF56F75
:10398000000EF66F000EF76F000EF86F000EFF6F5F
:10399000AF94AF96B090B092B094B096000E05017F
:1039A000B36F000EB46F3BEC32F0000E0501B36F45
:1039B000000EB46F31EC32F0000E0501B36F000E53
:1039C000B46F2CEC32F0000E0501B36F000EB46F33
:1039D00027EC32F0000E0501B36F000EB46F22EC3D
:1039E00032F0000E0501B36F000EB46F36EC32F00A
:1039F000840E0301F36F12005BEC29F00009D8B4C8
:103A000004EF1DF006EF1DF00CEF1EF0660E216EA8
:103A1000060E226ED8EC2EF0E806D8A412EF1DF0A8
:103A200014EF1DF00CEF1EF000F066C649F567C6F6
:103A30004AF568C64BF569C64CF56100ACF9D9F496
:103A40006100B0F9DAF4DF50546E060120EE01F0A7
:103A50006B51D9266C51DA22DF50536E20EE02F002
:103A60006B51D9266C51DA22DF50506E20EE03F0F4
:103A70006B51D9266C51DA22DF50516E20EE04F0E2
:103A80006B51D9266C51DA22DF50526E20EE05F0D0
:103A90006B51D9266C51DA22DF504D6E20EE06F0C4
:103AA0006B51D9266C51DA22DF504E6E20EE07F0B2
:103AB0006B51D9266C51DA22DF504F6EC6EF1DF0E4
:103AC00054C5A9F553C5A8F550C5A7F551C5A6F528
:103AD00052C5A5F55F04D8A470EF1DF072EF1DF07C
:103AE0000CEF1EF0010E336E0501A851D0EC2BF047
:103AF000010E336E0501A95178EC19F0010E050194
:103B0000AA6F0CEF1EF05450070B0501A46F545020
:103B1000180BA36F5450E00BA26F5350010BA16F11
:103B20005350060BA06F5350780B9F6F0CEF1EF095
:103B300054C59DF553C59CF550C59BF551C59AF5E7
:103B400052C599F54DC598F54EC597F54FC596F5F3
:103B50000CEF1EF054C55FF55F5025EC2FF00CEF15
:103B60001EF054C593F55F50D8A4B9EF1DF0BBEF1C
:103B70001DF00CEF1EF0000E336E05019351D0ECDA
:103B80002BF00CEF1EF000F00CEF1EF049C545F5D0
:103B90004AC546F54BC547F54CC548F54850000A9F
:103BA000D8B405EF1EF0C3EF1DF04650030AD8B499
:103BB000E4EF1DF0070AD8B4EFEF1DF0010AD8B406
:103BC000F6EF1DF0C3EF1DF04550200AD8B460EFAA
:103BD0001DF0670AD8B4AAEF1DF0C3EF1DF04550E1
:103BE000120AD8B4B1EF1DF0C3EF1DF04550000A22
:103BF000D8B483EF1DF0010AD8B498EF1DF0030A82
:103C0000D8B40CEF1EF0C3EF1DF04750000AD8B433
:103C1000D5EF1DF0C3EF1DF0120000F00501765145
:103C20005B5C77515C58D8B018EF1EF01AEF1EF0AD
:103C30003DEF1EF000F05B500501765D036E5C50B9
:103C40007759046E5B506E5D016E5C506F59026E69
:103C500081EC2DF001C508F502C509F5000E0B6ECB
:103C6000640E0A6ED6EC30F008C52CF609C52DF6A8
:103C700006012E6B2F6B5CEF1EF076515B5C036EC2
:103C800077515C58046E6E515B5C016E6F515C58ED
:103C9000026E81EC2DF001C508F502C509F5000E94
:103CA0000B6E640E0A6ED6EC30F008C52CF609C512
:103CB0002DF606012E6B2F6B05017451595C755161
:103CC0005A58D8B066EF1EF068EF1EF0B1EF1EF044
:103CD00000F0595005016C5D0E6E5A506D590F6E13
:103CE0000EC564F50FC565F5666B676B64C501F5B8
:103CF00065C502F566C503F567C504F5640E056E76
:103D0000000E066E000E076E000E086EF1EC2DF030
:103D100001C564F502C565F503C566F504C567F51B
:103D200064C501F565C502F566C503F567C504F50B
:103D300059500501745D0E6E5A5075590F6E0EC5BF
:103D400005F50FC506F5076A086AE5EC2AF001C516
:103D500064F502C565F503C566F504C567F5F8EFBA
:103D60001EF000F005016C51595C0E6E6D515A58F1
:103D70000F6E0EC564F50FC565F5666B676B64C5A0
:103D800001F565C502F566C503F567C504F5640E62
:103D9000056E000E066E000E076E000E086EF1EC4A
:103DA0002DF001C564F502C565F503C566F504C5CA
:103DB00067F564C501F565C502F566C503F567C518
:103DC00004F505017451595C0E6E75515A580F6E09
:103DD0000EC505F50FC506F5076A086AE5EC2AF079
:103DE00001C564F502C565F503C566F504C567F54B
:103DF00006012C517F0B05018C6F64517F0B8B6F7B
:103E00008C518B25016E026A0236000E046E020E82
:103E1000036E22EC2AF001500501AB6F00F0120096
:103E20000501BB6F0501BB51D8B419EF1FF01BEFA3
:103E30001FF03DEF1FF0B6BF22EF1FF020EF1FF085
:103E40003DEF1FF0B3C5B7F5B4C5B8F5B5C5B9F5C5
:103E5000B6C5BAF5B71FB81FB91FBA1FB72B000EEA
:103E6000B823B923BA23B7C5BDF5B8C5BEF5B9C5E2
:103E7000BFF5BAC5C0F545EF1FF0B3C5BDF5B4C574
:103E8000BEF5B5C5BFF5B6C5C0F5B351B411B51192
:103E9000B611D8A44EEF1FF050EF1FF05AEF1FF0ED
:103EA000000EB36F000EB46F000EB56F000EB66F4C
:103EB000EBEF1FF0960EBC6F64EF1FF0BC2BD89099
:103EC000C033BF33BE33BD33000EBD15B76F000E18
:103ED000BE15B86F000EBF15B96FFE0EC015BA6FD4
:103EE000B751B811B911BA11D8A479EF1FF07BEF0F
:103EF0001FF05EEF1FF089EF1FF0BC2B010EBD27F6
:103F0000000EBE23BF23C023D890C033BF33BE33BF
:103F1000BD33000EBD15B76F000EBE15B86F000E95
:103F2000BF15B96FFF0EC015BA6FB751B811B911EF
:103F3000BA11D8A49EEF1FF0A0EF1FF07DEF1FF085
:103F4000A8EF1FF0BC07D890BD37BE37BF37C037CA
:103F5000BFBFADEF1FF0AFEF1FF0B7EF1FF0020EC6
:103F6000BC61B5EF1FF0B7EF1FF0A2EF1FF0BCB1BF
:103F7000BCEF1FF0BEEF1FF0BFEF1FF0BF9FD89048
:103F8000BC33BCC5B7F5B86BB96BBA6BB7C5BAF57E
:103F9000B96BB86BB76BB751BD13B851BE13B951FC
:103FA000BF13BA51C013BB51D8B4D9EF1FF0DBEF28
:103FB0001FF0E3EF1FF0B6BFE2EF1FF0E0EF1FF0DE
:103FC000E3EF1FF0C08FBDC5B3F5BEC5B4F5BFC5E7
:103FD000B5F5C0C5B6F51200096E0950D8B4F3EFB7
:103FE0001FF0F5EF1FF017EF20F004BEFCEF1FF0FD
:103FF000FAEF1FF017EF20F001C505F502C506F531
:1040000003C507F504C508F5051E061E071E081E94
:10401000052A000E06220722082205C50BF506C553
:104020000CF507C50DF508C50EF51FEF20F001C50D
:104030000BF502C50CF503C50DF504C50EF50150D1
:10404000021003100410D8A428EF20F02AEF20F06B
:1040500034EF20F0000E016E000E026E000E036EB3
:10406000000E046EC5EF20F0960E0A6E3EEF20F0B3
:104070000A2AD8900E320D320C320B32000E0B147D
:10408000056E000E0C14066E000E0D14076EFE0E6B
:104090000E14086E0550061007100810D8A453EF30
:1040A00020F055EF20F038EF20F063EF20F00A2ADF
:1040B000010E0B26000E0C220D220E22D8900E327D
:1040C0000D320C320B32000E0B14056E000E0C1468
:1040D000066E000E0D14076EFF0E0E14086E0550CE
:1040E000061007100810D8A478EF20F07AEF20F01F
:1040F00057EF20F082EF20F00A06D8900B360C36EE
:104100000D360E360DBE87EF20F089EF20F091EFCF
:1041100020F0020E0A608FEF20F091EF20F07CEF8C
:1041200020F00AB096EF20F098EF20F099EF20F001
:104130000D9ED8900A320AC505F5066A076A086A14
:1041400005C508F5076A066A056A05500B12065090
:104150000C1207500D1208500E120950D8B4B3EFCC
:1041600020F0B5EF20F0BDEF20F004BEBCEF20F052
:10417000BAEF20F0BDEF20F00E8E0BC501F50CC597
:1041800002F50DC503F50EC504F5120001011DAFC2
:10419000CCEF20F0CEEF20F0DDEF20F002D8DBEF07
:1041A00020F00500FA6E06015251FD6E5351FE6E6D
:1041B000FF6AFA50120001011D9F1DADE2EF20F0D1
:1041C000E4EF20F0F3EF20F002D8F1EF20F005004B
:1041D000FA6E06015051FD6E5151FE6EFF6AFA50A3
:1041E000120001011D9D1DABF8EF20F0FAEF20F049
:1041F00009EF21F002D807EF21F00500FA6E060161
:104200004E51FD6E4F51FE6EFF6AFA5012000101D1
:104210001D9B1CA70EEF21F010EF21F01FEF21F0E6
:1042200002D81DEF21F00500FA6E06014C51FD6E1B
:104230004D51FE6EFF6AFA50120001011C971DA934
:1042400024EF21F026EF21F035EF21F002D833EFF3
:1042500021F00500FA6E06014A51FD6E4B51FE6ECB
:10426000FF6AFA50120001011D991DA53AEF21F0D5
:104270003CEF21F052EF21F002D849EF21F0050088
:10428000FA6E06014851FD6E4951FE6EFF6AFA5002
:104290001200010154A94FEF21F051EF21F052EF2C
:1042A00021F054991DA757EF21F059EF21F06FEF3E
:1042B00021F002D866EF21F00500FA6E06014651A2
:1042C000FD6E4751FE6EFF6AFA501200010160A7B1
:1042D0006CEF21F06EEF21F06FEF21F06097AE9C54
:1042E00012000501BC6FB4EF21F048EC32F0000E73
:1042F000AFEC31F0100E47EC2FF0B3C5BDF5B4C5EF
:10430000BEF5010E0501BF6FD2EF21F048EC32F08F
:10431000010EAFEC31F0040E47EC2FF0B3C5BDF544
:10432000B4C5BEF581EF21F048EC32F0020EAFECDF
:1043300031F0120E47EC2FF0B3C5BDF5B4C5BEF594
:1043400081EF21F048EC32F0030EAFEC31F0110EAA
:1043500047EC2FF0B3C5BDF5B4C5BEF581EF21F034
:10436000020EBF6FD2EF21F00501BC51BA6FBB6BDB
:10437000BB51000AD8B4BFEF21F0B0EF21F0BA5121
:10438000010AD8B494EF21F0030AD8B4A2EF21F0C7
:10439000010AD8B475EF21F0070AD8B486EF21F0EE
:1043A000B0EF21F0BF05D8A4D8EF21F0DAEF21F06B
:1043B00008EF22F0BE5107E1070EBD5DD8B0E3EF74
:1043C00021F0E5EF21F0EBEF21F0000EC16F000EC0
:1043D000C06FF5EF21F0BDC5C0F5BEC5C1F5FB0E40
:1043E000C025C06FFF0EC121C16F890EC05D130EC5
:1043F000C159D8A0FEEF21F000EF22F002EF22F029
:1044000008EF22F0C0C5B8F5C1C5B9F508EF22F034
:1044100012000A6E4AEF22F04BEC32F0000E40EC34
:1044200032F0100EDBEC2FF001C50BF502C50CF5D8
:10443000010E0D6E67EF22F04BEC32F0010E40ECF6
:1044400032F0040EDBEC2FF001C50BF502C50CF5C4
:1044500018EF22F04BEC32F0020E40EC32F0120E6C
:10446000DBEC2FF001C50BF502C50CF518EF22F0BF
:104470004BEC32F0030E40EC32F0110EDBEC2FF07F
:1044800001C50BF502C50CF518EF22F0020E0D6EFA
:1044900067EF22F00A50086E096A0950000AD8B482
:1044A00054EF22F046EF22F00850010AD8B42AEF68
:1044B00022F0030AD8B438EF22F0010AD8B40CEF86
:1044C00022F0070AD8B41CEF22F046EF22F00D04C8
:1044D000D8A46DEF22F06FEF22F09DEF22F00C5088
:1044E00007E1070E0B5CD8B078EF22F07AEF22F0EC
:1044F00080EF22F0000E0F6E000E0E6E8AEF22F09B
:104500000BC50EF50CC50FF5FB0E0E240E6EFF0E3F
:104510000F200F6E890E0E5C130E0F58D8A093EF6C
:1045200022F095EF22F097EF22F09DEF22F00EC5DA
:1045300006F50FC507F59DEF22F01200000E0501EC
:10454000DC6F000EDB6F020EDE6F580EDD6FBAEC13
:1045500025F0030E0501E66F8A0EE56F550EE82E75
:10456000FED7E52FFCD7E62FFAD700D065EC31F067
:10457000020E0501E66F450EE56FA90EE82EFED787
:10458000E52FFCD7E62FFAD700D000F0000E05018A
:10459000DC6F640EDB6F020EDE6F580EDD6FBAEC5F
:1045A00025F0070E0501E66F580EE56F590EE82E4F
:1045B000FED7E52FFCD7E62FFAD700D05AEC31F022
:1045C000020E0501E66F450EE56FA90EE82EFED737
:1045D000E52FFCD7E62FFAD700D000F0000E05013A
:1045E000DC6F000EDB6F020EDE6F580EDD6FBAEC73
:1045F00025F0000E0501DC6F320EDB6F010EDE6F61
:10460000900EDD6FBAEC25F0030E0501E66F8A0E01
:10461000E56F550EE82EFED7E52FFCD7E62FFAD72B
:1046200000D0000E0501DC6F320EDB6F020EDE6F74
:10463000580EDD6FBAEC25F0030E0501E66F8A0E09
:10464000E56F550EE82EFED7E52FFCD7E62FFAD7FB
:1046500000D01200000E0501C86FC6BF34EF23F072
:1046600032EF23F03EEF23F0C61FC51FC41FC36DFA
:10467000000EC423C523C623010EC86FC2BF45EF79
:1046800023F043EF23F04FEF23F0C21FC11FC01FE1
:10469000BF6D000EC023C123C223010EC81B000E34
:1046A000C96F000ECA6F000ECB6F000ECC6FC351E6
:1046B000C411C511C611D8B460EF23F062EF23F026
:1046C00098EF23F0010EC76F6CEF23F0D890C3373B
:1046D000C437C537C637C72BC6AF71EF23F073EFAA
:1046E00023F066EF23F0D890C937CA37CB37CC37E1
:1046F000C351BF5DC451C059C551C159C651C259FA
:10470000D8A085EF23F087EF23F090EF23F0C3517B
:10471000BF5FC451C05BC551C15BC651C25BC9819B
:10472000D890C633C533C433C333C72F73EF23F0D8
:10473000C851D8B49EEF23F0A0EF23F0A8EF23F0E8
:10474000CC1FCB1FCA1FC96D000ECA23CB23CC239D
:10475000C9C5BFF5CAC5C0F5CBC5C1F5CCC5C2F545
:104760001200000E166E14BEBAEF23F0B8EF23F05D
:10477000C4EF23F0141E131E121E116C000E122221
:1047800013221422010E166E10BECBEF23F0C9EFD8
:1047900023F0D5EF23F0101E0F1E0E1E0D6C000E21
:1047A0000E220F221022010E161A000E176E000E96
:1047B000186E000E196E000E1A6E115012101310A2
:1047C0001410D8B4E6EF23F0E8EF23F01EEF24F046
:1047D000010E156EF2EF23F0D89011361236133613
:1047E0001436152A14AEF7EF23F0F9EF23F0ECEFAF
:1047F00023F0D8901736183619361A3611500D5C3A
:1048000012500E5813500F5814501058D8A00BEFD8
:1048100024F00DEF24F016EF24F011500D5E12502D
:104820000E5A13500F5A1450105A1780D890143241
:10483000133212321132152EF9EF23F01650D8B47C
:1048400024EF24F026EF24F02EEF24F01A1E191E78
:10485000181E176C000E182219221A2217C50DF502
:1048600018C50EF519C50FF51AC510F5120005018A
:10487000D335D435DA6FDA51D8A441EF24F043EFC1
:1048800024F04DEF24F0000ED16F000ED26F000E19
:10489000D36F000ED46FBAEF24F0D1C5D5F5D2C5D1
:1048A000D6F5D3C5D7F5D4C5D8F5200E5DEF24F0E5
:1048B000D890D833D733D633D533E82E58EF24F0F9
:1048C000D551D96FD38FFF0ED117FF0ED217FF0E20
:1048D000D317000ED417960EDA5FDABF74EF24F008
:1048E00072EF24F08AEF24F0DA51800A970FD8B0E3
:1048F0007CEF24F07EEF24F080EF24F043EF24F0EF
:10490000D890D433D333D233D133DA3F80EF24F08D
:10491000A2EF24F01F0EDA6590EF24F092EF24F05E
:104920009AEF24F043EF24F0D890D137D237D33721
:10493000D437DA07DA51D8A4A0EF24F0A2EF24F09C
:1049400094EF24F0D951D8B4A8EF24F0AAEF24F0C2
:10495000B2EF24F0D41FD31FD21FD16D000ED2238B
:10496000D323D423D1C5D1F5D2C5D2F5D3C5D3F540
:10497000D4C5D4F5120021342234286E2850D8A48E
:10498000C4EF24F0C6EF24F0D0EF24F0000E1F6E29
:10499000000E206E000E216E000E226E3DEF25F0FF
:1049A0001FC523F520C524F521C525F522C526F50B
:1049B000200EE0EF24F0D890263225322432233224
:1049C000E82EDBEF24F02350276E218EFF0E1F16FA
:1049D000FF0E2016FF0E2116000E2216960E285EE0
:1049E00028BEF7EF24F0F5EF24F00DEF25F0285066
:1049F000800A970FD8B0FFEF24F001EF25F003EF06
:104A000025F0C6EF24F0D8902232213220321F3216
:104A1000283E03EF25F025EF25F01F0E286413EF45
:104A200025F015EF25F01DEF25F0C6EF24F0D89006
:104A30001F3620362136223628062850D8A423EFE8
:104A400025F025EF25F017EF25F02750D8B42BEFF0
:104A500025F02DEF25F035EF25F0221E211E201E1A
:104A60001F6C000E2022212222221FC51FF520C507
:104A700020F521C521F522C522F51200050172514C
:104A8000B15D1B6E7351B2591C6E1BC501F51CC57F
:104A900002F5036A046A640E056E000E066E000ECF
:104AA000076E000E086EF1EC2DF001C50DF502C584
:104AB0000EF503C50FF504C510F505017251060189
:104AC000325D1D6E05017351060133591E6E1DC501
:104AD00011F51EC512F5136A146AB1EC23F00D50DE
:104AE0005E6E05017051AF5D1B6E7151B0591C6E49
:104AF0001BC501F51CC502F5036A046A640E056E48
:104B0000000E066E000E076E000E086EF1EC2DF022
:104B100001C50DF502C50EF503C50FF504C510F569
:104B2000050170510601305D1D6E050171510601D0
:104B300031591E6E1DC511F51EC512F5136A146A92
:104B4000B1EC23F00D505D6E5E507F0B5E6E5D50DC
:104B50007F0B5D6E5E505D24016E026A0236000EB0
:104B6000046E020E036E22EC2AF0015005018A6FDA
:104B700000F01200490E0501BF6F990EC06F000EC4
:104B8000C16F000EC26FDDC5C3F5DEC5C4F5C56BD0
:104B9000C66B2AEC23F0BFC5E1F5C0C5E2F56A0E8D
:104BA0000501C56F4D0EC66F930EC76FBF0EC86F60
:104BB000E1C5B3F5E2C5B4F5B56BB66B000E10EC0C
:104BC0001FF0B3C5C1F5B4C5C2F5B5C5C3F5B6C5CB
:104BD000C4F55EEC13F0C1C5D1F5C2C5D2F5C3C5AD
:104BE000D3F5C4C5D4F537EC24F0D1C5E1F5D2C571
:104BF000E2F5DBC5DFF5DCC5E0F50501D890DF3770
:104C0000E037D890DF37E037DFC5E3F5E0C5E4F5FE
:104C1000E3C5B3F5E4C5B4F5000EB66F640EB56F29
:104C200095EC30F0B3C5E3F5B4C5E4F5E3C5B3F5F1
:104C3000E4C5B4F5DDC5B5F5DEC5B6F598EC2CF0E8
:104C4000B3C5E3F5B4C5E4F5E3C5B3F5E4C5B4F520
:104C500093EC31F0E1C5B3F5E2C5B4F58CEC31F07D
:104C600053EC32F01200010E0501E56F000E37EC37
:104C70002BF0C0EC29F005018E05D8A442EF26F0F8
:104C800044EF26F069EF26F0010EE56F1E0E37ECBB
:104C90002BF0030E0501E86F8A0EE76F550EE82E24
:104CA000FED7E72FFCD7E82FFAD700D0010E050179
:104CB000E56F320E37EC2BF0030E0501E86F8A0E1C
:104CC000E76F550EE82EFED7E72FFCD7E82FFAD76F
:104CD00000D0C0EC29F0030E05018E19D8A473EFA3
:104CE00026F075EF26F09AEF26F0010EE56F460EDE
:104CF00037EC2BF0030E0501E86F8A0EE76F550EB7
:104D0000E82EFED7E72FFCD7E82FFAD700D0010E08
:104D10000501E56F640E37EC2BF0020E0501E86F1C
:104D2000E70EE76F000EE82EFED7E72FFCD7E82F3F
:104D3000FAD700F0C0EC29F0020E05018E19D8A4B4
:104D4000A4EF26F0A6EF26F0ABEF26F0010EE56FFC
:104D5000000E37EC2BF01200490E0501BF6F990EC3
:104D6000C06F000EC16F000EC26FDDC5C3F5DEC59A
:104D7000C4F5C56BC66B2AEC23F0BFC5E1F5C0C511
:104D8000E2F56A0E0501C56F4D0EC66F930EC76F33
:104D9000BF0EC86FE1C5B3F5E2C5B4F5B56BB66B30
:104DA000000E10EC1FF0B3C5C1F5B4C5C2F5B5C512
:104DB000C3F5B6C5C4F55EEC13F0C1C5D1F5C2C5E7
:104DC000D2F5C3C5D3F5C4C5D4F537EC24F0D1C5AD
:104DD000E1F5D2C5E2F5DBC5DFF5DCC5E0F505019F
:104DE000D890DF37E037D890DF37E037DFC5E3F51D
:104DF000E0C5E4F5E3C5B3F5E4C5B4F5000EB66F60
:104E0000640EB56F95EC30F0B3C5E3F5B4C5E4F5C9
:104E1000E3C5B3F5E4C5B4F5DDC5B5F5DEC5B6F556
:104E200098EC2CF0B3C5E3F5B4C5E4F5E3C5B3F5F0
:104E3000E4C5B4F5A1EC31F0E1C5B3F5E2C5B4F5D4
:104E40009AEC31F055EC32F01200490E0D6E990ECD
:104E50000E6E000E0F6E000E106E2BC511F52CC5D8
:104E600012F5136A146AB1EC23F00DC52FF50EC5C7
:104E700030F56A0E136E4D0E146E930E156EBF0E46
:104E8000166E2FC501F530C502F5036A046A000EDF
:104E9000ECEC1FF001C50FF502C510F503C511F5C7
:104EA00004C512F5BFEC15F00FC51FF510C520F5B0
:104EB00011C521F512C522F5BBEC24F01FC52FF555
:104EC00020C530F529C52DF52AC52EF5D8902D36EB
:104ED0002E36D8902D362E362DC531F52EC532F50D
:104EE00031C508F532C509F5000E0B6E640E0A6E69
:104EF000D6EC30F008C531F509C532F531C501F5FC
:104F000032C502F52BC503F52CC504F581EC2DF057
:104F100001C531F502C532F531C501F532C502F5DD
:104F2000BBEC31F02FC501F530C502F5B5EC31F021
:104F300057EC32F01200490E0D6E990E0E6E000EF7
:104F40000F6E000E106E2BC511F52CC512F5136AED
:104F5000146AB1EC23F00DC52FF50EC530F56A0EBD
:104F6000136E4D0E146E930E156EBF0E166E2FC57A
:104F700001F530C502F5036A046A000EECEC1FF07F
:104F800001C50FF502C510F503C511F504C512F5ED
:104F9000BFEC15F00FC51FF510C520F511C521F5A3
:104FA00012C522F5BBEC24F01FC52FF520C530F546
:104FB00029C52DF52AC52EF5D8902D362E36D89038
:104FC0002D362E362DC531F52EC532F531C508F5F5
:104FD00032C509F5000E0B6E640E0A6ED6EC30F089
:104FE00008C531F509C532F531C501F532C502F5FF
:104FF0002BC503F52CC504F581EC2DF001C531F569
:1050000002C532F531C501F532C502F5C7EC31F004
:105010002FC501F530C502F5C1EC31F059EC32F085
:105020001200206E000E1C6E17504EEC31F01F6EF9
:105030001FA01DEF28F01FEF28F085EF28F0175074
:105040000C0D580EF324D96E010EF420DA6E6100B7
:1050500078F31DF5610074F31EF51D501E10D8B4D1
:1050600034EF28F036EF28F085EF28F01DC50CF559
:105070001EC50DF518C50EF519C50FF5C9EC1AF0CA
:1050800017500C0D510EF324D96E010EF420DA6E78
:10509000000EDB802050020DFD0EF324D96E050EAC
:1050A000F420DA6EDF2A175033EC31F01A6E2050FC
:1050B000020DFD0EF324D96E050EF420DA6E1A509F
:1050C000DE5CD8A066EF28F068EF28F072EF28F0D9
:1050D0002050020DFD0EF324D96E050EF420DA6E79
:1050E000000EDF6E1FA677EF28F079EF28F083EF30
:1050F00028F017500C0D540EF324D96E010EF42035
:10510000DA6EF70EDF16010E1C6E1C50120006013F
:1051100074517511D8B48FEF28F091EF28F09DEFFE
:1051200028F002D89DEF28F00500FA6E7451FD6E4C
:105130007551FE6EFF6AFA501200A8EC31F00501BD
:10514000AE2B060EAE19D8A4A8EF28F0AAEF28F0CF
:10515000AEEF28F0000EAE6F84EC31F00501AD2B00
:105160000B0EAD19D8A4B7EF28F0B9EF28F0BDEFBA
:1051700028F0000EAD6F5DEC32F00501AC2B650E32
:10518000AC19D8A4C6EF28F0C8EF28F0CCEF28F06F
:10519000000EAC6F5FEC32F00601444B452B2D0E38
:1051A000441906E14505D8A4D8EF28F0DAEF28F035
:1051B000E0EF28F0000E456F000E446F5CEC32F01B
:1051C0000601424B432B590E421907E1020E4319C7
:1051D000D8A4EDEF28F0EFEF28F0F5EF28F0000E5F
:1051E000436F000E426F5EEC32F01200000ECFB43F
:1051F000010E016E000ECEB2010E026E00F001042F
:10520000D8A405EF29F007EF29F016EF29F0025096
:10521000D8A40DEF29F00FEF29F016EF29F0010EB9
:1052200005018E6F91C590F55AEF29F00150D8A471
:105230001CEF29F01EEF29F02DEF29F00204D8A46D
:1052400024EF29F026EF29F02DEF29F0020E0501B9
:105250008E6F91C58FF55AEF29F00150D8A433EF26
:1052600029F035EF29F042EF29F00250D8A43BEFA6
:1052700029F03DEF29F042EF29F0030E05018E6F72
:105280005AEF29F00104D8A448EF29F04AEF29F099
:1052900057EF29F00204D8A450EF29F052EF29F07B
:1052A00057EF29F0040E05018E6F5AEF29F0050E15
:1052B00005018E6F1200000E036E000E0A6E0A507A
:1052C000020DFC0EF324D96E050EF420DA6EDF50C9
:1052D000066E06504EEC31F0056E05A072EF29F017
:1052E00074EF29F0B5EF29F0065033EC31F0076E7A
:1052F00005A67DEF29F07FEF29F083EF29F007C5A0
:1053000004F5B3EF29F006500C0D550EF324D96EB9
:10531000010EF420DA6EDF501F0B086E0A50020DEA
:10532000FD0EF324D96E050EF420DA6EDF50096EFF
:105330000950085CD8B09FEF29F0A1EF29F0A7EF42
:1053400029F00950085C0724046EB3EF29F00850D7
:10535000095CD8B0AEEF29F0B0EF29F07FEF29F06B
:105360000950085C046E045003260A2A0A50D8B477
:10537000BCEF29F0BEEF29F05FEF29F003501200D7
:10538000000ECFB4010E0501B36F000ECEB2010EB8
:10539000B46F00F00501B305D8A4D1EF29F0D3EF25
:1053A00029F0E1EF29F0B451D8A4D9EF29F0DBEFCF
:1053B00029F0E1EF29F0010E8E6F91C590F521EFF4
:1053C0002AF0B351D8A4E7EF29F0E9EF29F0F7EF7D
:1053D00029F0B405D8A4EFEF29F0F1EF29F0F7EFA9
:1053E00029F0020E8E6F91C58FF521EF2AF0B3518F
:1053F000D8A4FDEF29F0FFEF29F00BEF2AF0B4510C
:10540000D8A405EF2AF007EF2AF00BEF2AF0030EDD
:105410008E6F21EF2AF0B305D8A411EF2AF013EF15
:105420002AF01FEF2AF0B405D8A419EF2AF01BEFD9
:105430002AF01FEF2AF0040E8E6F21EF2AF0050EDE
:105440008E6F1200000E066E04BE2BEF2AF029EFBD
:105450002AF031EF2AF0036C041ED8B0042A010EA2
:10546000066E02BE38EF2AF036EF2AF03EEF2AF041
:10547000016C021ED8B0022A010E061A000E086E38
:10548000000E076E03500410D8B449EF2AF04BEF1A
:105490002AF073EF2AF0010E056E53EF2AF0D89030
:1054A00003360436052A04AE58EF2AF05AEF2AF0E4
:1054B0004FEF2AF0D890073608360350015C0450AD
:1054C0000258D8A066EF2AF068EF2AF06DEF2AF0B4
:1054D0000350015E0450025A0780D8900432033210
:1054E000052E5AEF2AF00650D8B479EF2AF07BEF58
:1054F0002AF07FEF2AF0076C081ED8B0082A07C5EB
:1055000001F508C502F512006100D8F355F56100F8
:10551000DCF356F56100E0F357F56100D4F358F57C
:10552000A1AE95EF2AF097EF2AF0A2EF2AF0B1AEE4
:105530009CEF2AF09EEF2AF0A2EF2AF0F4EC2FF075
:10554000D8EF2AF0A1A8A7EF2AF0A9EF2AF0B4EF2C
:105550002AF0B1A8AEEF2AF0B0EF2AF0B4EF2AF0AB
:10556000BFEC2FF0D8EF2AF09EACB9EF2AF0BBEFDA
:105570002AF0C6EF2AF0AEACC0EF2AF0C2EF2AF054
:10558000C6EF2AF0C6EC20F0D8EF2AF0A2A8CBEFA5
:105590002AF0CDEF2AF0D8EF2AF0B2A8D2EF2AF005
:1055A000D4EF2AF0D8EF2AF0ABEC30F0D8EF2AF0A5
:1055B000610060F5F5F461005CF5F8F4610058F500
:1055C000F7F4610054F5F6F41100000E096E000EB8
:1055D0000A6E000E0B6E000E0C6E055006100710C2
:1055E0000810D8B4F6EF2AF0F8EF2AF02EEF2BF0DF
:1055F000010E0D6E02EF2BF0D890053606360736F9
:1056000008360D2A08AE07EF2BF009EF2BF0FCEF60
:105610002AF0D89009360A360B360C360550015C54
:10562000065002580750035808500458D8A01BEFE2
:105630002BF01DEF2BF026EF2BF00550015E0650EE
:10564000025A0750035A0850045A0980D890083269
:105650000732063205320D2E09EF2BF009C501F590
:105660000AC502F50BC503F50CC504F512000501CA
:10567000E66F05019205D8A440EF2BF042EF2BF026
:1056800079EF2BF0E6513C0D6100CCF378F5610029
:10569000D0F379F578C5B3F579C5B4F5000EB66FDA
:1056A000640EB56F98EC2CF0B3C578F5B4C579F5F8
:1056B00005017851786F796B5F50E519D8A463EFD5
:1056C0002BF065EF2BF083EF2BF0040E8E616BEF68
:1056D0002BF06DEF2BF083EF2BF078C5DBF579C560
:1056E000DCF5010EDE6F2C0EDD6FACEC26F083EFE7
:1056F0002BF0000EDC6F000EDB6F010EDE6F2C0E48
:10570000DD6FACEC26F012000501B56F000E05014F
:10571000B46FFAEC31F00501B36F040EB319D8B4CD
:1057200094EF2BF096EF2BF0A7EF2BF0B505D8B444
:105730009CEF2BF09EEF2BF0A7EF2BF0040EB5198A
:10574000D8A4A5EF2BF0A7EF2BF0CCEF2BF00101A5
:1057500003510501B519F80BB5190101036FBEEF2F
:105760002BF001011DA9B7EF2BF0B9EF2BF0BEEF25
:105770002BF0020E0501B46FCEEF2BF00239E832A8
:10578000070B0501B519D8A4C8EF2BF0CAEF2BF011
:10579000B1EF2BF0CEEF2BF0010EB46FB45112002D
:1057A000346E05019205D8A4D8EF2BF0DAEF2BF078
:1057B00011EF2CF034503C0D6100CCF378F5610012
:1057C000D0F379F578C501F579C502F5000E046EC0
:1057D000640E036E81EC2DF001C578F502C579F5F4
:1057E00005017851786F796B5F503318D8A4FBEFBF
:1057F0002BF0FDEF2BF01BEF2CF0040E8E6103EF6E
:105800002CF005EF2CF01BEF2CF078C529F579C5AD
:105810002AF5010E2C6E2C0E2B6E9BEC27F01BEF45
:105820002CF0000E2A6E000E296E010E2C6E2C0E2E
:105830002B6E9BEC27F01200000EBE6E000EBF6EAA
:10584000000EC06E080ECA6EDE0EC66ECC0EC76E9F
:10585000070EC86EE70E0401106F730E086FFD0E81
:10586000006F000E216F000E096F000E016F000E19
:10587000116F000E026F000E0A6F180E126F03698F
:105880000B69136904690C691469080E246F0F0E03
:105890000201696F140E706F1A0E0A6F370E146FC3
:1058A000180E096F380E156F0B0E3D6F460E0D6FFB
:1058B000130E716F1200CC0E0501B36F640EB46F3E
:1058C00013EC32F0CE0E0501B36F640EB46F18EC1A
:1058D00032F0D00E0501B36F640EB46F1DEC32F0E0
:1058E000CA0E0501B36F640EB46F0EEC32F0C60E33
:1058F0000501B36F640EB46F04EC32F0C40E050101
:10590000B36F640EB46FFFEC31F0C80E0501B36FD6
:10591000640EB46F09EC32F0AE9C000E01011C6FF6
:10592000000E1D6F0A0E1E6FFC0E1F6F9E8C120064
:10593000000E0501B86F000EB76FB551B611D8B49F
:10594000A4EF2CF0A6EF2CF0CEEF2CF0010EB96FE7
:10595000AEEF2CF0D890B537B637B92BB6AFB3EF62
:105960002CF0B5EF2CF0AAEF2CF0D890B737B83761
:10597000B551B35DB651B459D8A0C1EF2CF0C3EF07
:105980002CF0C8EF2CF0B551B35FB651B45BB781C2
:10599000D890B633B533B92FB5EF2CF0B7C5B3F502
:1059A000B8C5B4F51200000E6F6E020E706E000ED8
:1059B000716E3D0E726E000E736EFE0E746E000EF2
:1059C000756E000E766E000E776E000E796E1F0EED
:1059D0007A6E000E7B6E1F0E7C6E000E7D6EB39C89
:1059E000B39E76907692A39EA39C000E0501B36FA2
:1059F000000EB46FDCEC31F0000E0501B36F000E49
:105A0000B46FD7EC31F0000E0501B36F000EB46F28
:105A1000E1EC31F0800E786E1200000E606E020E26
:105A2000616E000E626E3D0E636E000E646EFE0EC1
:105A3000656E000E666E000E676E000E686E000EDC
:105A40006A6E1F0E6B6E000E6C6E1F0E6D6E000E7A
:105A50006E6EB29CB29E67906792A29EA29C000E50
:105A60000501B36F000EB46FEBEC31F0000E0501D1
:105A7000B36F000EB46FE6EC31F0000E0501B36FAA
:105A8000000EB46FF0EC31F0800E696E120000F081
:105A90005F04D8A44EEF2DF050EF2DF076EF2DF0EF
:105AA0000501AA05D8A457EF2DF059EF2DF05EEFB0
:105AB0002DF0010E0501926F80EF2DF0000E926F18
:105AC000000E2A6E000E296E010E2C6E2C0E2B6E0F
:105AD0009BEC27F0000E2A6E000E296E010E2C6E34
:105AE0002C0E2B6E25EC27F080EF2DF05F50D8A404
:105AF0007CEF2DF07EEF2DF080EF2DF059EF2DF0A3
:105B00001200000E066E000E056E03500410D8B48D
:105B10008CEF2DF08EEF2DF0B6EF2DF0010E076E0D
:105B200096EF2DF0D89003360436072A04AE9BEF8B
:105B30002DF09DEF2DF092EF2DF0D8900536063622
:105B40000350015C04500258D8A0A9EF2DF0ABEF30
:105B50002DF0B0EF2DF00350015E0450025A058085
:105B6000D89004320332072E9DEF2DF005C501F5C4
:105B700006C502F51200000E0501BB6F000EBC6FDA
:105B8000000EBD6F000EBE6FB3A1C9EF2DF0CBEFBD
:105B90002DF0D3EF2DF0B751BB27B851BC23B9512D
:105BA000BD23BA51BE23D890B737B837B937BA3703
:105BB000D890B633B533B433B333B351B411B51150
:105BC000B611D8A4E6EF2DF0E8EF2DF0C4EF2DF0DC
:105BD000BBC5B3F5BCC5B4F5BDC5B5F5BEC5B6F519
:105BE0001200000E096E000E0A6E000E0B6E000E03
:105BF0000C6E01A0FEEF2DF000EF2EF008EF2EF05E
:105C00000550092606500A2207500B2208500C2284
:105C1000D8900536063607360836D8900432033257
:105C2000023201320150021003100410D8A41BEFFD
:105C30002EF01DEF2EF0F9EF2DF009C501F50AC584
:105C400002F50BC503F50CC504F512000101018F27
:105C5000040E84EC2BF00009D8A431EF2EF033EFC2
:105C60002EF053EF2EF0000E01014C6F260E4D6FFB
:105C7000000E4E6F000E4F6F600E006F970E016F9B
:105C8000100E026F7AEC31F070EC31F0C1EC30F0B4
:105C900013EC31F024EC30F05BEC2CF0060E84ECCD
:105CA0002BF0C79ABF9A120003C509F504C50AF57F
:105CB00001C507F502C508F573EF2EF0610024F465
:105CC000D9F4610028F4DAF4DF500B6E094A0A2A8D
:105CD00061001CF4D9F4610020F4DAF461002CF4C2
:105CE000DFF4074A082A0506D8A00606052806E1BB
:105CF0000628D8A47EEF2EF080EF2EF05EEF2EF077
:105D000012008A0EF66E640EF76E000EF86E01EE4B
:105D1000F8F110EE06F00900F5C4EEF4E550E1509C
:105D2000FAE101EE00F2740EEE6AE806FDE101EE22
:105D300060F1530EEE6AE806FDE101EE59F1070E3F
:105D4000EE6AE806FDE10401080E5D6F000E5E6F6D
:105D5000000E5F6F0001ADEF2EF00DEC30F09EEC09
:105D600022F069EC30F0D68E24EC31F066EC2FF0A6
:105D700033EC26F0BEB0BFEF2EF0C2EF2EF0010ED6
:105D8000C3EF2EF0000EFF0A0501F76FBE50F719A2
:105D9000FE0BF719BE6E320EAB6F00F0000E050160
:105DA000E56F1E0E1FEC18F0BAEF2EF00DEF00F0AD
:105DB000000E246E2450020DFC0EF324D96E050E45
:105DC000F420DA6EDF50176E21C518F522C519F5DB
:105DD000245011EC28F0236E2350D8B4F2EF2EF0AB
:105DE000F4EF2EF0F6EF2EF0FFEF2EF0242A2450E1
:105DF000D8B4FDEF2EF0FFEF2EF0DAEF2EF02350A7
:105E00001200000E03011F6F000E206F010E216FA4
:105E1000850E1D6FEE0E1C6FB1981C51600074FC56
:105E2000B5F50501B66BB5C5B6F5B56BB511FE6F29
:105E3000B651FF6FA188B60EB36F640EB46FCDEC90
:105E400031F0310E03011E6F1200036E31EF2FF09F
:105E5000BE8A46EF2FF0BE9A46EF2FF0BE9A46EF6D
:105E60002FF00350016E026A0250000AD8B43BEFD3
:105E70002FF02EEF2FF00150000AD8B42BEF2FF0A7
:105E8000010AD8B428EF2FF02EEF2FF012000501F1
:105E9000B76F6100DCF6ECF30301F38FF39DF38140
:105EA000F3B155EF2FF057EF2FF050EF2FF0EB51EC
:105EB0000501B66FB56B0301EA510501B525B36F56
:105EC0000301000E0501B621B46F1200C690C7840D
:105ED000C682C69AC89AC89CC89EC79A000E050179
:105EE000DC6F000EDB6F010EDE6F2C0EDD6FACEC95
:105EF00026F0000E0501DC6F000EDB6F020EDE6F78
:105F0000580EDD6FBAEC25F01200010E71EC21F095
:105F1000B8C56EF5B9C56FF5020E71EC21F0B8C5C4
:105F20006CF5B9C56DF5030E71EC21F0B8C5B1F58E
:105F3000B9C5B2F5040E71EC21F0B8C5AFF5B9C51D
:105F4000B0F51200010E09EC22F006C56EF507C58A
:105F50006FF5020E09EC22F006C56CF507C56DF56C
:105F6000030E09EC22F006C5B1F507C5B2F5040E23
:105F700009EC22F006C5AFF507C5B0F51200B198DF
:105F8000FEC501F5FFC502F53BEC30F005017A4B8B
:105F90007B2B7B5109E1050E7A5DD8A0D2EF2FF063
:105FA000D4EF2FF0D8EF2FF0000E7B6F000E7A6F3A
:105FB00087EC28F01200056E610014F4ECF3030185
:105FC000F38FF39DF381F3B1E8EF2FF0EAEF2FF0B9
:105FD000E3EF2FF0EB51046E036AEA510324016EE4
:105FE000000E0420026E1200B19E05017C4B7D2B39
:105FF0007D5109E10A0E7C5DD8A001EF30F003EF7E
:1060000030F00AEF30F052EC30F0000E05017D6FF9
:10601000000E7C6F61EC32F0120051EC32F0FFECBC
:1060200030F07FEC30F0E9EC1BF01CEC2CF042EC93
:1060300031F001EC2FF0EBEC30F0D3EC2CF026EC4F
:106040002EF00DEC2DF01200000E0501B36FB351D0
:10605000020DFD0EF324D96E050EF420DA6E000E4B
:10606000DF6EB32BB351D8B438EF30F03AEF30F0E5
:1060700027EF30F0120003011EA541EF30F043EF8F
:1060800030F04CEF30F01E9102501D6F610004F4AF
:106090001CF31E8151EF30F002501D6F610004F4BB
:1060A0001CF31200060176517711D8B45AEF30F084
:1060B0005CEF30F068EF30F002D868EF30F00500A8
:1060C000FA6E7651FD6E7751FE6EFF6AFA5012003D
:1060D0001200640E05016E255B6E000E6F215C6E72
:1060E0009C0E6C25596EFF0E6D215A6E000E776F57
:1060F000A00E766F070E756FC60E746F1200040E39
:106100000201946F800E956F180E966F030E9E6FAE
:10611000000E9A6F000E9B6F000E976F000E8C6F33
:10612000000E8D6F000E9D6F12000501B351B50377
:106130006100CCF3B7F56100D0F3B8F5B351B60305
:10614000F350B827B451B503F350B827B7C5B3F52A
:10615000B8C5B4F51200010160A1B1EF30F0B3EFA2
:1061600030F0C0EF30F002D8C0EF30F00500FA6E2A
:1061700006015451FD6E5551FE6EFF6AFA50120031
:106180001200190E01015C6F040E5D6F600E5E6FF0
:10619000050E5F6F9C0E0501B36F640EB46FF5ECD6
:1061A00031F001011E83B298A288120008500A0241
:1061B0006100CCF30CF56100D0F30DF508500B0233
:1061C000F3500D2609500A02F3500D260CC508F5B0
:1061D0000DC509F51200480E03011B6F610E196F02
:1061E000000E186FB19EA18EC00E0501B36F640E34
:1061F000B46FD2EC31F0800E03011A6F1200000E62
:106200000001606F000E616F000E626F000E636F21
:10621000000E646F000E656F000E666F000E676FF4
:10622000000E686F12005F0E0101946F9569966908
:106230009769000E986F000E996F000E9A6F000E0E
:106240009B6F810E816F1200000E0501DC6F000E46
:10625000DB6F000EDE6F320EDD6FACEC26F0000E51
:1062600005018E6F1200026E02500C0D530EF324C6
:10627000D96E010EF420DA6EDF50016E1F0E01168A
:1062800001281200700E0001AD6F000EAF6F000EFE
:10629000B36F020EB16F000EB06F1200016E0150AD
:1062A0000C0D540EF324D96E010EF420DA6EDF507B
:1062B000090B120085EC2FF0B1C532F6B2C533F6EA
:1062C000AFC530F6B0C531F6120085EC2FF0B1C580
:1062D00072F5B2C573F5AFC570F5B0C571F51200B2
:1062E000100E0101506F040E516F610E526F050EBA
:1062F000536F1200010E0101046F010E056F060EAF
:10630000066F000E076F1200F6EC28F047EC2DF038
:10631000000E0501AA6F12006100CCF672F40501AF
:10632000B451736E12006100CCF67AF40501B451D9
:106330007B6E12006100CCF663F40501B451646E0B
:1063400012006100CCF66BF40501B4516C6E1200C2
:10635000A2EC2FF03EEC25F00DEC1EF01200050132
:10636000B36F6100CCF6FBF31200610004F472F429
:106370000250736E1200610004F47AF402507B6ED6
:106380001200610004F463F40250646E12006100B4
:1063900004F46BF402506C6E1200B3C574F6B4C50D
:1063A00075F61200B3C576F6B4C577F61200B3C51C
:1063B00086F6B4C587F61200B3C588F6B4C589F66B
:1063C0001200B3C584F6B4C585F61200B3C580F5D6
:1063D000B4C581F51200B3C582F5B4C583F51200CA
:1063E000B3C57EF5B4C57FF51200B3C554F6B4C588
:1063F00055F6120001010239E832070B1200B3C54D
:1064000048F6B4C549F61200B3C54AF6B4C54BF612
:106410001200B3C546F6B4C547F61200B3C54CF634
:10642000B4C54DF61200B3C552F6B4C553F612000A
:10643000B3C550F6B4C551F61200B3C54EF6B4C597
:106440004FF61200B3C57AF6B4C57BF61200B3C599
:106450007CF6B4C57DF61200B3C57EF6B4C57FF6F2
:106460001200B3C580F6B4C581F61200B3C578F644
:10647000B4C579F61200B3C582F6B4C583F612002E
:10648000016E610004F4FBF312000100E803010057
:106490000301F39B12000301F39B1200FCEC1CF0C0
:1064A0001200D69A1200788412006984120078844F
:1064B0001200698412001200120012001200120071
:1064C000120012001200120012001200120012003C
:0264D0001200B8
:020000040020DA
:10000000FF0FFF0FFF0FFF0FFF0FFF0FFF0FFF0F80
:10001000FF0FFF0FFF0FFF0FFF0FFF0FFF0FFF0F70
:020000040030CA
:10000000FAEFF7DF9FFFFFFFFFFFFFFFFFFFFFFF9D
:10001000FFFFFFFFFFFFFFFFFFFFFFFFFFFFFFFFF0
:04002000FFFFFFFFE0
:00000001FF
