:020000040000FA
:040000000DEF00F010
:04000800C9EF36F016
:06001800FF0052EF3EF074
:1026000000128A5A83A888EC5BF2707075507004CF
:102610008ADE8BDA8BB886688B708BF689608B9E2E
:1026200089667AB2788E89000102030405060708DC
:102630005001526561643A206E6F6E2D766F6C6149
:1026400074696C6520766F6C746167652076616C67
:1026500075652025662C20616E6420766F6C617430
:10266000696C6520766F6C746167652076616C7546
:10267000652025660053657420746865206E6F6E52
:102680002D766F6C6174696C6520766F6C74616710
:102690006520746F203156200A00536574207468D9
:1026A0006520766F6C6174696C6520766F6C7461FF
:1026B000676520746F203256200A00494E46004E4E
:0F26C000414E00696E66006E616E006C66000030
:1026D000000E05017B6F000E7A6F49C58CF54AC567
:1026E0008DF54BC58EF54CC58FF58FBF7CEF13F084
:1026F0007AEF13F092EF13F0000E7B6F010E7A6FFA
:102700008CC501F58DC502F58EC503F58FC504F5A1
:10271000EAEC40F001C58CF502C58DF503C58EF5D8
:1027200004C58FF5000E0501936F000E926F2EC643
:102730007EF52FC67FF57A517B11D8A4A2EF13F056
:10274000A4EF13F0ABEF13F0E7A5A9EF13F0ABEF95
:1027500013F0C5EF13F07A517B11D8A4B2EF13F048
:10276000B4EF13F0BAEF13F0000E616F2B0E606F31
:10277000BEEF13F0000E616F2D0E606F60C500F7A5
:10278000924B932B7E07D8A07F078CC501F58DC592
:1027900002F58EC503F58FC504F51DEC31F001047B
:1027A0000210D8A4D6EF13F0D8EF13F02FEF14F0E7
:1027B000BF0E4E6EFF0E4F6E4D50506E516A4E5012
:1027C00050264F50512251500AE11A0E505CD8A0A9
:1027D000ECEF13F0EFEF13F0010EF0EF13F0000E3B
:1027E0000501626F636B62516311D8B4FAEF13F0A5
:1027F000FCEF13F00AEF14F0000E9225016E070EA5
:102800009321026EBB0E036E260E046E67EC3DF044
:1028100016EF14F0000E9225016E070E9321026E42
:10282000C30E036E260E046E67EC3DF00501FD0E2F
:102830007E27FF0E7F2347C511F548C512F5000E10
:10284000136E070E146E7EC515F57FC516F504ECE4
:1028500036F011C547F512C548F5BCEF19F08CC527
:1028600001F58DC502F58EC503F58FC504F51DEC88
:1028700031F001500210D8A440EF14F042EF14F0F0
:1028800099EF14F0BF0E4E6EFF0E4F6E4D50506E0E
:10289000516A4E5050264F50512251500AE11A0EA3
:1028A000505CD8A056EF14F059EF14F0010E5AEF17
:1028B00014F0000E0501646F656B64516511D8B4A6
:1028C00064EF14F066EF14F074EF14F0000E92252C
:1028D000016E070E9321026EBF0E036E260E046E6C
:1028E00067EC3DF080EF14F0000E9225016E070EAC
:1028F0009321026EC70E036E260E046E67EC3DF048
:102900000501FD0E7E27FF0E7F2347C511F548C543
:1029100012F5000E136E070E146E7EC515F57FC5F9
:1029200016F504EC36F011C547F512C548F5BCEFB5
:1029300019F0000E0501946F000E956F800E966FD2
:102940003F0E976F000E916F000E906F8CC501F5D2
:102950008DC502F58EC503F58FC504F5000E056E15
:10296000000E066E000E076E000E086E82EC37F049
:10297000D8B0BDEF14F0BFEF14F042EF15F0DEEF6A
:1029800014F094C501F595C502F596C503F597C5F4
:1029900004F5000E056E000E066E200E076E410E49
:1029A000086E7EEC1EF001C594F502C595F503C5D1
:1029B00096F504C597F50501904B912B8CC51AF53A
:1029C0008DC51BF58EC51CF58FC51DF5000E056E5A
:1029D000000E066E200E076E410E086E94C501F5BE
:1029E00095C502F596C503F597C504F57EEC1EF076
:1029F00001C51EF502C51FF503C520F504C521F567
:102A00009BEC30F0D8B007EF15F009EF15F0C1EFEF
:102A100014F029EF15F094C51AF595C51BF596C568
:102A20001CF597C51DF5000E1E6E000E1F6E200EC4
:102A3000206E410E216EB2EC22F01AC594F51BC532
:102A400095F51CC596F51DC597F505019007D8A00D
:102A500091078CC51AF58DC51BF58EC51CF58FC564
:102A60001DF594C51EF595C51FF596C520F597C5AE
:102A700021F59BEC30F0D8A040EF15F042EF15F0B7
:102A80000BEF15F04DC507F5086A9AEC3DF00750BD
:102A90000501816F81C580F5670E8119D8A453EFB8
:102AA00015F055EF15F07BEF15F0E551E611D8A4C0
:102AB0005CEF15F05EEF15F062EF15F0000EE66FBB
:102AC000010EE56FE6BF6FEF15F0E65106E1E50593
:102AD000D8B06DEF15F06FEF15F075EF15F0000E33
:102AE0007D6F060E7C6F84EF15F0E5C57CF5E6C5BD
:102AF0007DF584EF15F0E6BF80EF15F082EF15F05D
:102B00006FEF15F075EF15F0670E8119D8A48BEFF4
:102B100015F08DEF15F0BCEF15F091AF9BEF15F0B0
:102B2000FC0E905DFF0E9159D8A099EF15F09BEF28
:102B300015F0BAEF15F0FF0E4E6EFF0E4F6E7CC50E
:102B400050F57DC551F54E5050264F5051229051B1
:102B5000505C5150800A526E9151800A5258D8A050
:102B6000B4EF15F0B6EF15F0BAEF15F0660E806F02
:102B7000BCEF15F0650E806F7CC572F57DC573F5F1
:102B8000670E8119D8A4C7EF15F0C9EF15F0D9EF7A
:102B900015F0660E8019D8A4D0EF15F0D2EF15F01D
:102BA000DBEF15F091BFD9EF15F0D7EF15F0DBEFA4
:102BB00015F0724B732B660E8019D8A4E2EF15F056
:102BC000E4EF15F004EF16F091BFEBEF15F0E9EF2D
:102BD00015F0F7EF15F0000E946F000E956F800E54
:102BE000966F3F0E976F000E916F000E906F670EFD
:102BF0008119D8B4FEEF15F000EF16F004EF16F0CF
:102C00009051722791517323000E8B6F000E8A6FC3
:102C10008CC582F58DC583F58EC584F58FC585F588
:102C200094C574F595C575F596C576F597C577F590
:102C300095EF16F082C51AF583C51BF584C51CF502
:102C400085C51DF594C51EF595C51FF596C520F5DE
:102C500097C521F5B2EC22F01AC533F51BC534F542
:102C60001CC535F51DC536F5F4EC28F033C586F5E1
:102C700034C587F535C588F536C589F586C533F57C
:102C800087C534F588C535F589C536F518EC30F0BB
:102C900033C578F534C579F582C51FF583C520F5B0
:102CA00084C521F585C522F594C505F595C506F5BC
:102CB00096C507F597C508F586C501F587C502F5E0
:102CC00088C503F589C504F57EEC1EF001C523F522
:102CD00002C524F503C525F504C526F5B3EC3FF080
:102CE0001FC582F520C583F521C584F522C585F56C
:102CF00094C51AF595C51BF596C51CF597C51DF528
:102D0000000E1E6E000E1F6E200E206E410E216EF4
:102D1000B2EC22F01AC594F51BC595F51CC596F5C5
:102D20001DC597F505018A4B8B2B72518A5D8B511E
:102D3000800A4E6E7351800A4E58D8A0A2EF16F04A
:102D4000A4EF16F01AEF16F094C501F595C502F53B
:102D500096C503F597C504F5000E056E000E066EC8
:102D6000A00E076E400E086E7EEC1EF001C586F5C3
:102D700002C587F503C588F504C589F582C51AF52E
:102D800083C51BF584C51CF585C51DF586C51EF5D7
:102D900087C51FF588C520F589C521F59BEC30F066
:102DA000D8B0D5EF16F0D7EF16F0E2EF16F0000E20
:102DB0000501866F000E876F000E886F000E896F09
:102DC0000BEF17F082C501F583C502F584C503F545
:102DD00085C504F586C505F587C506F588C507F5DB
:102DE00089C508F582EC37F0D8A0F9EF16F0FBEFB3
:102DF00016F00BEF17F0050178B101EF17F003EFB4
:102E000017F00BEF17F0000E866F000E876F000EA5
:102E1000886F000E896F8CC50FF58DC510F58EC5B6
:102E200011F58FC512F586C513F587C514F588C54C
:102E300015F589C516F51EEC1CF00FC582F510C5F9
:102E400083F511C584F512C585F582C51AF583C5CC
:102E50001BF584C51CF585C51DF5000E056E000E1D
:102E6000066E200E076E410E086E74C501F575C51D
:102E700002F576C503F577C504F57EEC1EF001C5B5
:102E80001EF502C51FF503C520F504C521F59BEC11
:102E900030F0D8A04EEF17F050EF17F079EF17F0A1
:102EA0000501904B912B74C501F575C502F576C5EA
:102EB00003F577C504F5000E056E000E066E200EB4
:102EC000076E410E086E7EEC1EF001C574F502C55A
:102ED00075F503C576F504C577F5660E050180190D
:102EE000D8A475EF17F077EF17F079EF17F0724B62
:102EF000732B74C594F575C595F576C596F577C5AC
:102F000097F5650E05018019D8B489EF17F08BEF9E
:102F100017F091EF17F090C570F591C571F595EF29
:102F200017F0000E716F000E706F000E6F6F000EC5
:102F30006E6F000E6D6F000E6C6F000E8B6F000ECB
:102F40008A6F90EF18F082C51AF583C51BF584C50A
:102F50001CF585C51DF594C51EF595C51FF596C5CF
:102F600020F597C521F5B2EC22F01AC533F51BC543
:102F700034F51CC535F51DC536F5F4EC28F033C520
:102F800086F534C587F535C588F536C589F586C516
:102F900033F587C534F588C535F589C536F518ECA0
:102FA00030F033C578F534C579F50501E7B9DBEFC5
:102FB00017F0DDEF17F0FAEF17F078517911D8A478
:102FC000E4EF17F0E6EF17F0FAEF17F0670E81194C
:102FD000D8A4EDEF17F0EFEF17F0FAEF17F071BF8D
:102FE000F6EF17F0F4EF17F0FAEF17F06C4B6D2BCC
:102FF00044EF18F06E516F11D8A401EF18F003EFF1
:1030000018F02DEF18F071BF0AEF18F008EF18F064
:103010002DEF18F0000E9225D96E070E9321DA6E6F
:103020002E0EDF6E924B932B7E07D8A07F07000EEB
:103030006F6F010E6E6F2DEF18F0000E9225D96E96
:10304000070E9321DA6E300EDF6E924B932B7E07C4
:10305000D8A07F076C07D8A06D076C516D11D8A45C
:1030600034EF18F036EF18F01DEF18F0000E92252F
:10307000D96E070E9321DA6E7851300FDF6E924BC6
:10308000932B7E07D8A07F0782C51FF583C520F547
:1030900084C521F585C522F594C505F595C506F5C8
:1030A00096C507F597C508F586C501F587C502F5EC
:1030B00088C503F589C504F57EEC1EF001C523F52E
:1030C00002C524F503C525F504C526F5B3EC3FF08C
:1030D0001FC582F520C583F521C584F522C585F578
:1030E00094C51AF595C51BF596C51CF597C51DF534
:1030F000000E1E6E000E1F6E200E206E410E216E01
:10310000B2EC22F01AC594F51BC595F51CC596F5D1
:103110001DC597F505017007D8A071078A4B8B2B49
:1031200072518A5D8B51800A4E6E7351800A4E58DF
:10313000D8B09DEF18F09FEF18F0ADEF18F093BFE7
:10314000ABEF18F0935109E14B0E925DD8A0ABEFB5
:1031500018F0ADEF18F0A3EF17F06E516F11D8A46F
:10316000B4EF18F0B6EF18F0C7EF18F0E7A9BBEF0F
:1031700018F0BDEF18F0C7EF18F0000E9225D96EC9
:10318000070E9321DA6E2E0EDF6E924B932B000EFC
:103190009225D96E070E9321DA6E000EDF6E650E52
:1031A0008019D8A4D6EF18F0D8EF18F0AAEF19F0CC
:1031B000000E8B6F4F0E8A6F000E8A25D96E070E98
:1031C0008B21DA6E000EDF6E000E7B6F000E7A6FC1
:1031D00091BFEFEF18F0EDEF18F0F7EF18F0000ED9
:1031E0007B6F010E7A6F906D911FD8B0912B000EFE
:1031F0007D6F020E7C6F28EF19F08A07D8A08B072D
:10320000000E8A25D96E070E8B21DA6E90C501F566
:1032100091C502F5000E046E0A0E036E2AEC37F01B
:103220000150300FDF6E90C507F591C508F5000E0F
:103230000A6E0A0E096E67EC36F007C590F508C5F0
:1032400091F505017C07D8A07D077E07D8A07F07F0
:1032500090519111D8A42FEF19F031EF19F0FDEF33
:1032600018F07DBF3EEF19F07D5106E17C05D8B026
:103270003CEF19F03EEF19F0FDEF18F08A07D8A0E7
:103280008B077A517B11D8A448EF19F04AEF19F057
:1032900050EF19F0000E676F2B0E666F54EF19F0A8
:1032A000000E676F2D0E666F000E8A25D96E070E11
:1032B0008B21DA6E610098F5DFF47E07D8A07F07D6
:1032C0008A07D8A08B07BF0E4E6EFF0E4F6E4D5073
:1032D000506E516A4E5050264F50512251500AE1C3
:1032E0001A0E505CD8A077EF19F07AEF19F0010EA2
:1032F0007BEF19F0000E6A6F6B6B6A516B11D8A4EB
:1033000084EF19F086EF19F08CEF19F0000E696F59
:10331000650E686F90EF19F0000E696F450E686FCB
:10332000000E8A25D96E070E8B21DA6E6100A0F59A
:10333000DFF47E07D8A07F07000E9225016E070EEE
:103340009321026E000E8A25036E070E8B21046EF8
:1033500067EC3DF047C511F548C512F5000E136E38
:10336000070E146E7EC515F57FC516F504EC36F014
:1033700011C547F512C548F5120006019B51800B97
:10338000A46F9B519B25A66F9AAFC9EF19F0CBEFA5
:1033900019F0CCEF19F0A681A651D8B4D2EF19F0EC
:1033A000D4EF19F0E9EF19F0A629D8A4DAEF19F053
:1033B000DCEF19F0E4EF19F0000E986F000E996F32
:1033C000000E9A6F000E9B6F9A8F000E9B6FF1EFAD
:1033D00019F0000E986F000E996F000E9A6F000E94
:1033E0009B6F9F51800BA56FA451A519D8B4FBEF1B
:1033F00019F0FDEF19F0FEEF19F0A48D9F519F25F4
:10340000A56F9EAF06EF1AF008EF1AF009EF1AF059
:10341000A581A551D8B40FEF1AF011EF1AF026EFDD
:103420001AF0A529D8A417EF1AF019EF1AF021EF16
:103430001AF0000E9C6F000E9D6F000E9E6F000E26
:103440009F6F9E8F000E9F6F2EEF1AF0000E9C6FE5
:10345000000E9D6F000E9E6F000E9F6FA651A55D22
:10346000D8B035EF1AF037EF1AF05EEF1AF0A4ADCE
:103470003CEF1AF03EEF1AF040EF1AF0800EA41B5A
:10348000A6C6A7F6A5C6A6F6A7C6A5F698C6A7F629
:103490009CC698F6A7C69CF699C6A7F69DC699F64F
:1034A000A7C69DF69AC6A7F69EC69AF6A7C69EF62A
:1034B0009BC6A7F69FC69BF6A7C69FF6000EA76FF2
:1034C000A651A5C6A0F6A16BA05F000EA15BA1BF8F
:1034D00073EF1AF0A15109E11A0EA05DD8A073EFA5
:1034E0001AF075EF1AF0ACEF1AF0985199119A1181
:1034F0009B11D8A47EEF1AF081EF1AF0010E82EF33
:103500001AF0000EA76F000E986F000E996F000E54
:103510009A6F000E9B6FA5C6A6F6B5EF1AF0A7A18D
:1035200094EF1AF096EF1AF09CEF1AF0D890A731AA
:103530000109A76F9EEF1AF0D890A73398A1A3EFC7
:103540001AF0A5EF1AF0A6EF1AF0A78F9B359B3360
:103550009A3399339833A62BA551A65DD8A0B3EF23
:103560001AF0B5EF1AF08FEF1AF0A4BDBAEF1AF007
:10357000BCEF1AF0FCEF1AF0A651D8A4C2EF1AF073
:10358000C4EF1AF0CEEF1AF0000E986F000E996F8C
:10359000000E9A6F000E9B6F1DEF1CF09C51982738
:1035A0009D5199239E519A239F519B239BA1DBEF11
:1035B0001AF0DDEF1AF089EF1BF0A7A1E2EF1AF085
:1035C000E4EF1AF0EAEF1AF0D890A7310109A76FDB
:1035D000ECEF1AF0D890A73398A1F1EF1AF0F3EFBF
:1035E0001AF0F4EF1AF0A78F9B359B339A33993377
:1035F0009833A62B89EF1BF09C51985D9D519959EA
:103600009E519A599B51800AA06F9F51800AA059E0
:10361000D8B00DEF1BF00FEF1BF03AEF1BF09851F5
:103620009C5DA06F99519D59A16F9A519E59A26FAF
:103630009B519F59A36FFF0EA025986FFF0EA121EC
:10364000996FFF0EA2219A6FFF0EA3219B6F800E30
:10365000A41BA76DA751D8A430EF1BF032EF1BF0CD
:1036600042EF1BF0010E9827000E99239A239B230B
:1036700042EF1BF09C51985F9D51995B9E519A5B64
:103680009F519B5B985199119A119B11D8A44BEFB4
:103690001BF04DEF1BF082EF1BF0A751D8A453EFA6
:1036A0001BF055EF1BF082EF1BF0000E986F000E21
:1036B000996F000E9A6F000E9B6F1DEF1CF0D89053
:1036C000983799379A379B37A7AF69EF1BF06BEFA5
:1036D0001BF06CEF1BF09881A7A171EF1BF073EF4B
:1036E0001BF077EF1BF0D880A73779EF1BF0D8904D
:1036F000A737A651D8B47FEF1BF081EF1BF082EF04
:103700001BF0A6079AAF87EF1BF089EF1BF05FEF66
:103710001BF0000EA56FA7AF90EF1BF092EF1BF010
:10372000AAEF1BF0A7C6A0F67F0EA017D8B49BEF98
:103730001BF09DEF1BF0A1EF1BF0010EA56FAAEF90
:103740001BF098A1A6EF1BF0A8EF1BF0AAEF1BF04F
:103750009DEF1BF0A551D8B4B0EF1BF0B2EF1BF0FA
:10376000DDEF1BF0010E9827000E99239A239B236F
:103770009BA1BDEF1BF0BFEF1BF0DDEF1BF098C668
:10378000A0F699C6A1F69AC6A2F69BC6A3F6A335E3
:10379000A333A233A133A033A0C698F6A1C699F6ED
:1037A000A2C69AF6A3C69BF6A629D8B4DAEF1BF0F8
:1037B000DCEF1BF0DDEF1BF0A62BA629D8B4E3EF5E
:1037C0001BF0E5EF1BF0EDEF1BF0A651D8A4EBEFDB
:1037D0001BF0EDEF1BF0FFEF1BF0000E986F000EDB
:1037E000996F000E9A6F000E9B6FA651D8A4FBEF45
:1037F0001BF0FDEF1BF0FFEF1BF0000EA46FA6A166
:1038000004EF1CF006EF1CF009EF1CF09A8F0AEF92
:103810001CF09A9FD890A6319B6FA4AF12EF1CF0BA
:1038200014EF1CF015EF1CF09B8F98C698F699C604
:1038300099F69AC69AF69BC69BF612001250800B18
:103840001B6E125012241D6E11AE29EF1CF02BEFCF
:103850001CF02CEF1CF01D801D50D8B432EF1CF072
:1038600034EF1CF049EF1CF01D28D8A43AEF1CF0EF
:103870003CEF1CF044EF1CF0000E0F6E000E106EBB
:10388000000E116E000E126E118E000E126E51EFB0
:103890001CF0000E0F6E000E106E000E116E000E6A
:1038A000126E1650800B1C6E1B501C18D8B45BEFA8
:1038B0001CF05DEF1CF05EEF1CF01B8C1650162404
:1038C0001C6E15AE66EF1CF068EF1CF069EF1CF083
:1038D0001C801C50D8B46FEF1CF071EF1CF086EF09
:1038E0001CF01C28D8A477EF1CF079EF1CF081EFB6
:1038F0001CF0000E136E000E146E000E156E000EFE
:10390000166E158E000E166E8EEF1CF0000E136EE6
:10391000000E146E000E156E000E166E1D501C5C0F
:10392000D8B095EF1CF097EF1CF0BEEF1CF01BAC6D
:103930009CEF1CF09EEF1CF0A0EF1CF0800E1B1AF9
:103940001DC51EF51CC51DF51EC51CF50FC51EF5B4
:1039500013C50FF51EC513F510C51EF514C510F5DA
:103960001EC514F511C51EF515C511F51EC515F5B5
:1039700012C51EF516C512F51EC516F5000E1E6EF3
:103980001D501CC517F5186A175E000E185A18BE90
:10399000D3EF1CF0185009E11A0E175CD8A0D3EF32
:1039A0001CF0D5EF1CF00CEF1DF00F501010111093
:1039B0001210D8A4DEEF1CF0E1EF1CF0010EE2EFD4
:1039C0001CF0000E1E6E000E0F6E000E106E000E2C
:1039D000116E000E126E1CC51DF515EF1DF01EA018
:1039E000F4EF1CF0F6EF1CF0FCEF1CF0D8901E304A
:1039F00001091E6EFEEF1CF0D8901E320FA003EFDF
:103A00001DF005EF1DF006EF1DF01E8E1234123270
:103A1000113210320F321D2A1C501D5CD8A013EF3A
:103A20001DF015EF1DF0EFEF1CF01BBC1AEF1DF0A1
:103A30001CEF1DF05CEF1DF01D50D8A422EF1DF00F
:103A400024EF1DF02EEF1DF0000E0F6E000E106E15
:103A5000000E116E000E126E7DEF1EF013500F2639
:103A600014501022155011221650122212A03BEFB2
:103A70001DF03DEF1DF0E9EF1DF01EA042EF1DF01F
:103A800044EF1DF04AEF1DF0D8901E3001091E6E64
:103A90004CEF1DF0D8901E320FA051EF1DF053EFE8
:103AA0001DF054EF1DF01E8E1234123211321032FE
:103AB0000F321D2AE9EF1DF013500F5C14501058FF
:103AC000155011581250800A176E1650800A175858
:103AD000D8B06DEF1DF06FEF1DF09AEF1DF00F5095
:103AE000135C176E10501458186E11501558196E3B
:103AF000125016581A6EFF0E17240F6EFF0E182064
:103B0000106EFF0E1920116EFF0E1A20126E800E1D
:103B10001B1A1E6C1E50D8A490EF1DF092EF1DF0E2
:103B2000A2EF1DF0010E0F26000E1022112212220C
:103B3000A2EF1DF013500F5E1450105A1550115A79
:103B40001650125A0F50101011101210D8A4ABEFCB
:103B50001DF0ADEF1DF0E2EF1DF01E50D8A4B3EF45
:103B60001DF0B5EF1DF0E2EF1DF0000E0F6E000E20
:103B7000106E000E116E000E126E7DEF1EF0D890CA
:103B80000F361036113612361EAEC9EF1DF0CBEFD0
:103B90001DF0CCEF1DF00F801EA0D1EF1DF0D3EF74
:103BA0001DF0D7EF1DF0D8801E36D9EF1DF0D8904C
:103BB0001E361D50D8B4DFEF1DF0E1EF1DF0E2EF2F
:103BC0001DF01D0611AEE7EF1DF0E9EF1DF0BFEF90
:103BD0001DF0000E1C6E1EAEF0EF1DF0F2EF1DF09A
:103BE0000AEF1EF01EC517F57F0E1716D8B4FBEFAF
:103BF0001DF0FDEF1DF001EF1EF0010E1C6E0AEF2F
:103C00001EF00FA006EF1EF008EF1EF00AEF1EF0E8
:103C1000FDEF1DF01C50D8B410EF1EF012EF1EF097
:103C20003DEF1EF0010E0F26000E1022112212226F
:103C300012A01DEF1EF01FEF1EF03DEF1EF00FC58E
:103C400017F510C518F511C519F512C51AF51A346E
:103C50001A3219321832173217C50FF518C510F578
:103C600019C511F51AC512F51D28D8B43AEF1EF082
:103C70003CEF1EF03DEF1EF01D2A1D28D8B443EF87
:103C80001EF045EF1EF04DEF1EF01D50D8A44BEF77
:103C90001EF04DEF1EF05FEF1EF0000E0F6E000ED7
:103CA000106E000E116E000E126E1D50D8A45BEF48
:103CB0001EF05DEF1EF05FEF1EF0000E1B6E1DA0EC
:103CC00064EF1EF066EF1EF069EF1EF0118E6AEFD2
:103CD0001EF0119ED8901D30126E1BAE72EF1EF0BA
:103CE00074EF1EF075EF1EF0128E0FC50FF510C5A4
:103CF00010F511C511F512C512F512000450800B14
:103D00000D6E04500424136E03AE89EF1EF08BEF8A
:103D10001EF08CEF1EF013801350D8B492EF1EF0FB
:103D200094EF1EF0A7EF1EF01328D8A49AEF1EF010
:103D30009CEF1EF0A4EF1EF0000E016E000E026E4E
:103D4000000E036E000E046E038EAFEF1EF0000E29
:103D5000016E000E026E000E036E000E046E08501F
:103D6000800B0D1A08500824126E07AEBAEF1EF031
:103D7000BCEF1EF0BDEF1EF012801250D8B4C3EF9E
:103D80001EF0C5EF1EF0D8EF1EF01228D8A4CBEF1E
:103D90001EF0CDEF1EF0D5EF1EF0000E056E000EEA
:103DA000066E000E076E000E086E078EE0EF1EF026
:103DB000000E056E000E066E000E076E000E086EF9
:103DC0001250D8B4E6EF1EF0E8EF1EF0F0EF1EF050
:103DD0001350D8A4EEEF1EF0F0EF1EF0FAEF1EF035
:103DE000000E016E000E026E000E036E000E046ED9
:103DF000A4EF20F0075001026100CCF318F5610038
:103E0000D0F319F518500E6E0F6A106A116A195026
:103E1000146E156A166A176A065002026100CCF326
:103E200018F56100D0F319F518500E26000E0F2278
:103E30001022112219501426000E152216221722C4
:103E4000055003026100CCF318F56100D0F319F5B9
:103E500018500E26000E0F2210221122195014267F
:103E6000000E15221622172210C511F50FC510F5E8
:103E70000EC50FF50E6A055002026100CCF318F56D
:103E80006100D0F319F518500E2619500F22000EBC
:103E90001022000E1122065001026100CCF318F529
:103EA0006100D0F319F518500E2619500F22000E9C
:103EB0001022000E112210C511F50FC510F50EC508
:103EC0000FF50E6A055001026100CCF318F5610090
:103ED000D0F319F518500E2619500F22000E10229B
:103EE000000E1122075002026100CCF318F56100A8
:103EF000D0F319F51850142619501522000E162269
:103F0000000E1722065003026100CCF318F5610081
:103F1000D0F319F51850142619501522000E162248
:103F2000000E1722075003026100CCF318F5610060
:103F3000D0F319F51850096E19500A6E0B6A0C6A05
:103F40000BC50CF50AC50BF509C50AF5096A095038
:103F500014260A5015220B5016220C5017220EC59B
:103F600009F50FC50AF510C50BF511C50CF5190EAD
:103F7000BFEF1FF0D8900C320B320A320932E82E14
:103F8000BAEF1FF0095014260A5015220B501622C2
:103F90000C50172210C511F50FC510F50EC50FF501
:103FA0000E6A125013C509F50A6A0926000E0A2284
:103FB000820E0924186EFF0E0A20196EF5EF1FF00D
:103FC000D890143615361636173611AEEAEF1FF0B4
:103FD000ECEF1FF0EDEF1FF01480D8900E360F3687
:103FE000103611361806D8A0190616AEFAEF1FF0D3
:103FF000FCEF1FF0E0EF1FF0000E126E11AE03EFAA
:1040000020F005EF20F029EF20F0FF0E0E14096ECE
:10401000FF0E0F140A6EFF0E10140B6E7F0E11149C
:104020000C6E09500A100B100C10D8B41AEF20F0C7
:104030001CEF20F020EF20F0010E126E29EF20F08F
:1040400014A025EF20F027EF20F029EF20F01CEF3F
:1040500020F01250D8B42FEF20F031EF20F055EFC0
:1040600020F0010E1426000E15221622172217A08A
:104070003CEF20F03EEF20F055EF20F014C509F59D
:1040800015C50AF516C50BF517C50CF50C340C3221
:104090000B320A32093209C514F50AC515F50BC5EC
:1040A00016F50CC517F5184A192A19BE60EF20F04D
:1040B000195008E11828D8A060EF20F062EF20F036
:1040C0006CEF20F0000E146E000E156E800E166E52
:1040D0007F0E176E9AEF20F019BE79EF20F019507D
:1040E00006E11804D8B077EF20F079EF20F085EFE3
:1040F00020F0000E146E000E156E000E166E000EEF
:10410000176E000E0D6E9AEF20F018C513F5FF0E16
:104110001416FF0E15167F0E1616000E171613A096
:1041200094EF20F096EF20F097EF20F0168ED890C5
:104130001330176E0D50171214C501F515C502F591
:1041400016C503F517C504F51200610054F5D9F43E
:10415000610058F5DAF4DEC4F6F4DDC4F7F4F86A69
:104160000800F550250AD8A4B8EF20F0BAEF20F0E7
:1041700091EF22F0610054F5D9F4610058F5DAF4BA
:10418000DE2A000EDD22000E06012F6F000E2E6FBC
:104190002EC6E7F52FC6E8F50501E569E669610079
:1041A00054F5D9F4610058F5DAF4DEC4F6F4DDC450
:1041B000F7F4F86A0800F550076E086A9AEC3DF0CB
:1041C000075005019E6F9E51D8B4E9EF20F0EBEF48
:1041D00020F033EF21F0610054F5D9F4610058F577
:1041E000DAF4610078F359F5610074F35AF5010EC1
:1041F0005926000E5A22610064F5F6F4610068F554
:10420000F7F4F86A0800F550076E086A9AEC3DF07A
:10421000075005019F6F9F51D8B411EF21F013EFA4
:1042200021F033EF21F0610054F5D9F4610058F525
:10423000DAF4610078F359F5610074F35AF5020E6F
:104240005926000E5A22610064F5F6F4610068F503
:10425000F7F4F86A0800F550076E086A9AEC3DF02A
:1042600007500501A06F660E9E19D8A43AEF21F001
:104270003CEF21F08CEF21F0610054F5D9F461009E
:1042800058F5DAF4DEC4F6F4DDC4F7F4F86A080091
:104290006100D4F3A1F5610054F5D9F4610058F53B
:1042A000DAF4DE2A000EDD2261005CF5D9F461004B
:1042B00060F5DAF461007CF359F5040EDE26610046
:1042C0007CF35AF5000EDD22610064F5D9F461003B
:1042D00068F5DAF4610078F39AF5610078F39BF5FC
:1042E000610078F39CF5610078F39DF553C547F5BF
:1042F00054C548F59AC549F59BC54AF59CC54BF58B
:104300009DC54CF5A1C54DF568EC13F047C553F5B7
:1043100048C554F5B1EF22F09E0E016E050E026EF7
:10432000CB0E036E260E046E000E066E020E056E98
:104330009CEC31F001500210D8A4A1EF21F0A3EFC2
:1043400021F054EF22F0610054F5D9F4610058F5E2
:10435000DAF4610078F359F5610074F35AF5010E4F
:104360005926000E5A22610064F5F6F4610068F5E2
:10437000F7F4F86A08006100D4F3A1F5BF0E596E96
:10438000FF0E5A6E610054F5D9F4610058F5DAF465
:10439000DEC4F6F4DDC4F7F4F86A0800F5505B6E8D
:1043A0005C6A59505B265A505C225C500AE11A0E36
:1043B0005B5CD8A0DEEF21F0E1EF21F0010EE2EF2F
:1043C00021F0000E0501986F996B98519911D8B49E
:1043D000ECEF21F0EEEF21F012EF22F061005CF53E
:1043E000D9F4610060F5DAF461007CF359F5040E4C
:1043F000DE2661007CF35AF5000EDD22610064F5D3
:10440000D9F4610068F5DAF4610078F39AF5610097
:1044100078F39BF5610078F39CF5610078F39DF5E6
:1044200034EF22F061005CF5D9F4610060F5DAF454
:1044300061007CF359F5040EDE2661007CF35AF529
:10444000000EDD22610064F5D9F4610068F5DAF44C
:10445000610078F39AF5610078F39BF5610078F3D9
:104460009CF5610078F39DF5020E610054F5D9F4D6
:10447000610058F5DAF4DE26000EDD2253C547F55B
:1044800054C548F59AC549F59BC54AF59CC54BF5F9
:104490009DC54CF5A1C54DF568EC13F047C553F526
:1044A00048C554F5B1EF22F0610054F5D9F461002C
:1044B00058F5DAF4DEC4F6F4DDC4F7F4F86A08005F
:1044C000F550250AD8A467EF22F069EF22F082EFB9
:1044D00022F0610054F5D9F4610058F5DAF4DE2ACF
:1044E000000EDD22000E026E250E016E53C503F58F
:1044F00054C504F514EC39F0000E546E010E536EE1
:10450000B1EF22F0610054F5D9F4610058F5DAF406
:10451000DE2A000EDD22000E546E000E536EB1EF47
:1045200022F0610054F5D9F4610058F5DAF4DEC4E4
:10453000F6F4DDC4F7F4F86A0800F550016E026A7B
:1045400053C503F554C504F514EC39F0610054F576
:10455000D9F4610058F5DAF4DE2A000EDD227CEF92
:1045600022F012001D50800B2A6E1D501D24316E4A
:104570001CAEBDEF22F0BFEF22F0C0EF22F0318081
:104580003150D8B4C6EF22F0C8EF22F0DDEF22F0B0
:104590003128D8A4CEEF22F0D0EF22F0D8EF22F0CD
:1045A000000E1A6E000E1B6E000E1C6E000E1D6EAD
:1045B0001C8E000E1D6EE5EF22F0000E1A6E000E2E
:1045C0001B6E000E1C6E000E1D6E2150800B2A1AF1
:1045D00021502124326E20AEF0EF22F0F2EF22F0D3
:1045E000F3EF22F032803250D8B4F9EF22F0FBEF33
:1045F00022F010EF23F03228D8A401EF23F003EFCC
:1046000023F00BEF23F0000E1E6E000E1F6E000E47
:10461000206E000E216E208E000E216E18EF23F00A
:10462000000E1E6E000E1F6E000E206E000E216E1C
:104630001E501F1020102110D8A421EF23F023EFCB
:1046400023F03BEF23F0000E1A6E000E1B6E000EDF
:104650001C6E000E1D6E800E1C127F0E1D122A5045
:104660001D121AC51AF51BC51BF51CC51CF51DC569
:104670001DF57EEF24F03150D8A441EF23F043EF35
:1046800023F04DEF23F0000E1A6E000E1B6E000E8D
:104690001C6E000E1D6E7EEF24F0325031C522F5E7
:1046A000236A225E000E235A7F0E22242B6E000EF8
:1046B00023202C6E1AC526F51BC527F51CC528F529
:1046C0001DC529F5000E1A6E000E1B6E000E1C6E25
:1046D000000E1D6E000E2D6E000E2E6E000E2F6E43
:1046E000000E306E000E326EAEEF23F03250D8B4B2
:1046F0007CEF23F07EEF23F095EF23F0D890263661
:10470000273628362936D8901A361B361C361D36E1
:1047100030AE8DEF23F08FEF23F090EF23F01A806F
:10472000D8902D362E362F3630361E50265C1F5030
:1047300027582050285821502958D8A0A2EF23F0FC
:10474000A4EF23F0ADEF23F0308C1E50265E1F50F7
:10475000275A2050285A2150295A322A190E3264D9
:10476000B4EF23F0B6EF23F076EF23F026502710B6
:1047700028102910D8B4BFEF23F0C1EF23F0D9EFF0
:1047800023F02D80D9EF23F0D8901A361B361C3633
:104790001D3630AECEEF23F0D0EF23F0D1EF23F073
:1047A0001A80D8902D362E362F3630362B06D8A0CC
:1047B0002C061CAEDEEF23F0E0EF23F0C4EF23F075
:1047C000000E326E30AEE7EF23F0E9EF23F00DEF8D
:1047D00024F0FF0E2D14226EFF0E2E14236EFF0EFA
:1047E0002F14246E7F0E3014256E225023102410B7
:1047F0002510D8B4FEEF23F000EF24F004EF24F0EE
:10480000010E326E0DEF24F01AA009EF24F00BEF29
:1048100024F00DEF24F000EF24F03250D8B413EF61
:1048200024F015EF24F039EF24F0010E1A26000EC3
:104830001B221C221D221DA020EF24F022EF24F0B9
:1048400039EF24F01AC522F51BC523F51CC524F544
:104850001DC525F52534253224322332223222C5C6
:104860001AF523C51BF524C51CF525C51DF52B4AD6
:104870002C2A2CBE44EF24F02C5008E12B28D8A081
:1048800044EF24F046EF24F051EF24F0000E2C6E9C
:104890002B68000E1A6E000E1B6E000E1C6E000EB2
:1048A0001D6E2CBE5EEF24F02C5006E12B04D8B018
:1048B0005CEF24F05EEF24F06CEF24F0000E2C6E21
:1048C000000E2B6E000E1A6E000E1B6E000E1C6E7C
:1048D000000E1D6E000E2A6E2BC531F531A073EF50
:1048E00024F075EF24F078EF24F01C8E79EF24F09B
:1048F0001C9ED89031301D6E2FEF23F01200610006
:1049000038F4D9F461003CF4DAF4610078F314F57A
:10491000610078F315F5610078F316F5610078F31E
:1049200017F520EE04F00E50D9260F50DA22DFA042
:104930009CEF24F09EEF24F0D8EF24F020EE01F05D
:104940000C50D9260D50DA221438E842F80BF80B37
:10495000DF6E050E106ED8901732163215321432F3
:10496000102EABEF24F020EE02F00C50D9260D50A3
:10497000DA22610050F4DFF415C514F516C515F5FB
:1049800017C516F5176A20EE03F00C50D9260D5006
:10499000DA2214501F0BDF6E050E106ED8901732FE
:1049A000163215321432102ECEEF24F0F0EF24F030
:1049B00020EE03F00C50D9260D50DA22000EDF6EE7
:1049C00010EE02F00C50E1260D50E222DFC4E7F4B5
:1049D00020EE01F00C50D9260D50DA22E7C4DFF4A6
:1049E000610030F4D9F4610034F4DAF4610050F479
:1049F000DFF415C514F516C515F517C516F5176AB4
:104A000014C510F5070E101620EE01F00C50D92633
:104A10000D50DA221050DF1220EE04F00E50D9268D
:104A20000F50DA22DF30E8320F0B136E20EE04F065
:104A30000E50D9260F50DA22DFB021EF25F025EFF6
:104A400025F0106A102A26EF25F0106A1038F00BB6
:104A5000131220EE04F00E50D9260F50DA22DFB2E6
:104A600034EF25F038EF25F0200E106E39EF25F0E9
:104A7000106A1050131220EE04F00E50D9260F5079
:104A8000DA22DFBE46EF25F04AEF25F0400E106E29
:104A90004BEF25F0106A1050131220EE04F00E5068
:104AA000D9260F50DA22DFBC58EF25F05CEF25F055
:104AB000800E106E5DEF25F0106A1050131220EE7C
:104AC00004F00C50D9260D50DA2261004CF4DFF4CA
:104AD00020EE04F00E50D9260F50DA22DFB273EF29
:104AE00025F075EF25F0A1EF25F0080E0C24016EDE
:104AF000000E0D20026E20EE05F00E50D9260F504C
:104B0000DA22610078F303F5610074F304F520EE16
:104B100004F00E50D9260F50DA22DF30E8320F0BA6
:104B2000106E116A270E1024F66E260E1120F76EF5
:104B3000F86A000EF8220800F550056E066A25ECAA
:104B40003EF0120020EE04F00C50D9260D50DA226F
:104B5000DF50176E17C510F520EE04F00E50D92661
:104B60000F50DA2210461046DF501018C30B1018F1
:104B7000DF6E17B8BEEF25F0C2EF25F0106A102ADD
:104B8000C3EF25F0106A20EE04F00E50D9260F5026
:104B9000DA22DF501018FE0B1018DF6E17BAD3EFB1
:104BA00025F0D7EF25F0106A102AD8EF25F0106A0B
:104BB00020EE04F00E50D9260F50DA221046DF50B6
:104BC0001018FD0B1018DF6E17BCE9EF25F0EDEFA4
:104BD00025F0106A102AEEEF25F0106A20EE04F09E
:104BE0000E50D9260F50DA2210321032DF50101832
:104BF0007F0B1018DF6E17BE00EF26F004EF26F0D3
:104C0000106A102A05EF26F0106A20EE04F00E500C
:104C1000D9260F50DA22103A10461046DF501018ED
:104C2000BF0B1018DF6E20EE01F00C50D9260D508E
:104C3000DA22DF50106E070E10161050136E146A31
:104C4000156A166A15C516F514C515F513C514F5BC
:104C5000136A610030F4D9F4610034F4DAF4DF50FF
:104C6000106E1050131220EE04F00E50D9260F5083
:104C7000DA22DFA03EEF26F040EF26F081EF26F0AB
:104C8000050ED8901336143615361636E82E41EF39
:104C900026F020EE03F00C50D9260D50DA22DF501A
:104CA000106E1F0E10161050131215C516F514C5F0
:104CB00015F513C514F5136A20EE02F00C50D92631
:104CC0000D50DA22DF50106E10501312050ED890DE
:104CD0001336143615361636E82E67EF26F020EE1A
:104CE00001F00C50D9260D50DA22DF50106ED8900A
:104CF0001032D8901032D89010321F0E101610506B
:104D00001312610038F4D9F461003CF4DAF4610064
:104D10004CF4DEF4610050F4DEF4610054F4DEF48F
:104D2000610058F4DEF46C0E016E060E026E080E81
:104D30000C24036E000E0D20046E20EE04F00E50C5
:104D4000D9260F50DA22DF30E8320F0B106E116ACD
:104D5000270E1024F66E260E1120F76EF86A000E4C
:104D6000F8220800F550056E066A25EC3EF020EEAC
:104D700005F00E50D9260F50DA226C0EDE6E060EAC
:104D8000DD6E1200000E0501C06F000EC16F800EB7
:104D9000C26F3F0EC36F000E1E6E000E1F6EA00E80
:104DA000206E400E216E000E056E000E066E800E07
:104DB000076E450E086EC0C501F5C1C502F5C2C536
:104DC00003F5C3C504F57EEC1EF001C51AF502C556
:104DD0001BF503C51CF504C51DF5B2EC22F01AC580
:104DE00033F51BC534F51CC535F51DC536F518EC76
:104DF00030F033C5C6F534C5C7F5C6C51AF5C7C505
:104E00001BF5B5EC44F0750E0501A86F260EA96FD1
:104E100048EC43F0020E0501B76F450EB66FA90EC0
:104E2000E82EFED7B62FFCD7B72FFAD700D0000E4A
:104E30000501C06F000EC16F000EC26F400EC36F40
:104E4000000E1E6E000E1F6EA00E206E400E216E14
:104E5000000E056E000E066E800E076E450E086E83
:104E6000C0C501F5C1C502F5C2C503F5C3C504F54A
:104E70007EEC1EF001C51AF502C51BF503C51CF535
:104E800004C51DF5B2EC22F01AC533F51BC534F587
:104E90001CC535F51DC536F518EC30F033C5C4F525
:104EA00034C5C5F5C4C519F5C5C51AF5BFEC44F040
:104EB000020E0501B76F450EB66FA90EE82EFED79C
:104EC000B62FFCD7B72FFAD700D09A0E0501A86FDE
:104ED000260EA96F48EC43F0C60E1B6E050E1C6E25
:104EE000D7EC37F01BC5C4F51CC5C5F5C4C501F525
:104EF000C5C502F5036A046A000EDCEC2BF001C59F
:104F00001AF502C51BF503C51CF504C51DF5CD0E2C
:104F10001E6ECC0E1F6E4C0E206E440E216EB2EC37
:104F200022F01AC5B8F51BC5B9F51CC5BAF51DC5E3
:104F3000BBF5C6C501F5C7C502F5036A046A000ED4
:104F4000DCEC2BF001C51AF502C51BF503C51CF5F9
:104F500004C51DF5CD0E1E6ECC0E1F6E4C0E206EC0
:104F6000440E216EB2EC22F01AC5BCF51BC5BDF58E
:104F70001CC5BEF51DC5BFF5320E0501A86F260E76
:104F8000A96FBCC5AAF5BDC5ABF5BEC5ACF5BFC51F
:104F9000ADF5B8C5AEF5B9C5AFF5BAC5B0F5BBC589
:104FA000B1F548EC43F0020E0501B76F450EB66F40
:104FB000A90EE82EFED7B62FFCD7B72FFAD700D010
:104FC0001200020E0301F96F000EFA6F000ED86F87
:104FD000000EFB6F000ED96F000EDA6F000EDB6F54
:104FE000000EDC6F000EDF6F000EE06F000EE36F4F
:104FF000000EE46F000EE56F000EE66F000EE76F27
:10500000000EEA6F000EEB6F100EEC6F870EEE6F66
:10501000010EEF6F000EF06F000EF16F000EF26FD9
:10502000000EF36F000EF46F100EF56F000EF66FAA
:10503000000EF76F120EF86F000EFC6F010EFB6F83
:10504000000ED96F000EDA6F000EDB6F000EDC6F02
:10505000000EDF6F000EE06F000EE36F000EE46FD6
:10506000000EE56F000EE66F000EE76F000EEA6FB0
:10507000000EEB6F040EEC6F870EEE6F010EEF6FFC
:10508000000EF06F000EF16F000EF26F000EF36F66
:10509000000EF46F100EF56F000EF66F000EF76F36
:1050A000000EF86F000EFD6F020EFB6F000ED96F41
:1050B000000EDA6F000EDB6F000EDC6F000EDF6F8C
:1050C000000EE06F000EE36F000EE46F000EE56F60
:1050D000000EE66F000EE76F000EEA6F000EEB6F3A
:1050E000120EEC6F870EEE6F010EEF6F000EF06F79
:1050F000000EF16F000EF26F000EF36F000EF46FF2
:10510000100EF56F000EF66F000EF76F000EF86FC1
:10511000000EFE6F030EFB6F000ED96F000EDA6FEC
:10512000000EDB6F000EDC6F000EDF6F000EE06F15
:10513000000EE36F000EE46F000EE56F000EE66FE9
:10514000000EE76F000EEA6F000EEB6F110EEC6FB2
:10515000870EEE6F010EEF6F000EF06F000EF16F15
:10516000000EF26F000EF36F000EF46F100EF56F6D
:10517000000EF66F000EF76F000EF86F000EFF6F57
:10518000AF94AF96B090B092B094B096000E060176
:105190008A6F000E8B6F8FEC45F0000E06018A6F50
:1051A000000E8B6F85EC45F0000E06018A6F000E35
:1051B0008B6F80EC45F0000E06018A6F000E8B6F3E
:1051C0007BEC45F0000E06018A6F000E8B6F76ECCB
:1051D00045F0000E06018A6F000E8B6F8AEC45F0D9
:1051E000840E0301F36F120024C643F525C644F56F
:1051F00026C645F527C646F533C543F534C544F5FF
:1052000035C545F536C546F5810E376EFF0E386E4D
:1052100043C539F544C53AF545C53BF546C53CF5AA
:10522000180E18EF29F0D8903C323B323A3239321E
:10523000E82E13EF29F039503724416E000E382044
:10524000426E42BE2DEF29F0425009E1170E415C3B
:10525000D8A02DEF29F02FEF29F039EF29F033C531
:1052600033F534C534F535C535F536C536F5FCEFBF
:1052700029F042BE3EEF29F040EF29F0B0EF29F0CF
:1052800041C537F5FF0E386EFF0E396E7F0E3A6E50
:10529000000E3B6E37664FEF29F057EF29F03B3495
:1052A0003B323A3239323832372E4AEF29F038C59C
:1052B0003DF539C53EF53AC53FF53BC540F53D5096
:1052C0004314376E3E504414386E3F504514396EC7
:1052D000405046143A6E3750381039103A10D8A45E
:1052E00074EF29F076EF29F078EF29F02FEF29F00D
:1052F00043C537F544C538F545C539F546C53AF5D2
:10530000200E88EF29F0D8903A32393238323732CD
:10531000E82E83EF29F03750381039103A10D8B4FE
:1053200094EF29F096EF29F09EEF29F03D504326A7
:105330003E5044223F504522405046223D1C376E8D
:105340003E1C386E3F1C396E401C3A6E3750431677
:1053500038504416395045163A504616F4EF29F0A5
:1053600043C537F544C538F545C539F546C53AF561
:10537000200EC0EF29F0D8903A3239323832373225
:10538000E82EBBEF29F03750381039103A10D8A466
:10539000CCEF29F0CEEF29F0D8EF29F0000E436EC4
:1053A000000E446E000E456E000E466EF4EF29F0BE
:1053B000D8904334376E4434386E4534396E4634B1
:1053C0003A6E3750381039103A10D8B4EAEF29F055
:1053D000ECEF29F0F4EF29F0000E436E000E446E5E
:1053E000800E456EBF0E466E43C533F544C534F599
:1053F00045C535F546C536F512003BEC35F00009DC
:10540000D8B405EF2AF007EF2AF0FFEF2AF07C0E60
:10541000226E060E236ECEEC3EF0E806D8A413EF03
:105420002AF015EF2AF0FFEF2AF000F07CC6D5F540
:105430007DC6D6F57EC6D7F57FC6D8F5610004FADD
:10544000D9F4610008FADAF4DF500501E06F0601D3
:1054500020EE01F08151D9268251DA22DF50050178
:10546000DF6F060120EE02F08151D9268251DA2247
:10547000DF500501DC6F060120EE03F08151D926D3
:105480008251DA22DF500501DD6F060120EE04F0C3
:105490008151D9268251DA22DF500501DE6F0601E3
:1054A00020EE05F08151D9268251DA22DF50050124
:1054B000D96F060120EE06F08151D9268251DA22F9
:1054C000DF500501DA6F060120EE07F08151D92681
:1054D0008251DA22DF500501DB6FB9EF2AF0E0C517
:1054E000FCF5DFC5FBF5DCC5FAF5DDC5F9F5DEC574
:1054F000F8F5010E476EFB5169EC3FF0FFEF2AF023
:10550000E051070BF76FE051180BF66FE051E00B1D
:10551000F56FDF51010BF46FDF51060BF36FDF51B5
:10552000780BF26FFFEF2AF0E0C56AF6DFC569F687
:10553000DCC568F6DDC567F6DEC566F6D9C565F675
:10554000DAC564F6DBC563F6FFEF2AF0E0C5F1F5D6
:10555000F151F7EC3EF0FFEF2AF0E0C5F0F5000E58
:10556000476EF05169EC3FF0FFEF2AF000F0FFEFDB
:105570002AF0D5C5CFF5D6C5D0F5D7C5D1F5D8C554
:10558000D2F5D251000AD8B4F8EF2AF0B6EF2AF0DB
:10559000D051030AD8B4D7EF2AF0070AD8B4E2EF03
:1055A0002AF0010AD8B4E9EF2AF0B6EF2AF0CF5179
:1055B000200AD8B46FEF2AF0650AD8B4A6EF2AF013
:1055C000B6EF2AF0CF51120AD8B4ADEF2AF0B6EFF9
:1055D0002AF0CF51000AD8B480EF2AF0010AD8B4DB
:1055E00094EF2AF0030AD8B4FFEF2AF0B6EF2AF0BE
:1055F000D151000AD8B4C8EF2AF0B6EF2AF0120051
:105600000601926F06019251D8B409EF2BF00BEF0F
:105610002BF02DEF2BF08DBF12EF2BF010EF2BF0B6
:105620002DEF2BF08AC68EF68BC68FF68CC690F6C1
:105630008DC691F68E1F8F1F901F911F8E2B000E0F
:105640008F23902391238EC694F68FC695F690C62D
:1056500096F691C697F635EF2BF08AC694F68BC670
:1056600095F68CC696F68DC697F68A518B118C11DD
:105670008D11D8A43EEF2BF040EF2BF04AEF2BF02A
:10568000000E8A6F000E8B6F000E8C6F000E8D6FF8
:10569000DBEF2BF0960E936F54EF2BF0932BD890FB
:1056A0009733963395339433000E94158E6F000E16
:1056B00095158F6F000E9615906FFE0E9715916FD2
:1056C0008E518F1190119111D8A469EF2BF06BEFCF
:1056D0002BF04EEF2BF079EF2BF0932B010E94274C
:1056E000000E952396239723D890973396339533BE
:1056F0009433000E94158E6F000E95158F6F000E6B
:105700009615906FFF0E9715916F8E518F11901116
:105710009111D8A48EEF2BF090EF2BF06DEF2BF0C2
:1057200098EF2BF09307D8909437953796379737A3
:1057300096BF9DEF2BF09FEF2BF0A7EF2BF0020E03
:105740009361A5EF2BF0A7EF2BF092EF2BF093B125
:10575000ACEF2BF0AEEF2BF0AFEF2BF0969FD89085
:10576000933393C68EF68F6B906B916B8EC691F6CA
:10577000906B8F6B8E6B8E5194138F51951390514C
:105780009613915197139251D8B4C9EF2BF0CBEFE8
:105790002BF0D3EF2BF08DBFD2EF2BF0D0EF2BF00F
:1057A000D3EF2BF0978F94C68AF695C68BF696C6E4
:1057B0008CF697C68DF61200096E0950D8B4E3EF47
:1057C0002BF0E5EF2BF007EF2CF004BEECEF2BF005
:1057D000EAEF2BF007EF2CF001C505F502C506F541
:1057E00003C507F504C508F5051E061E071E081E9D
:1057F000052A000E06220722082205C50BF506C55C
:105800000CF507C50DF508C50EF50FEF2CF001C519
:105810000BF502C50CF503C50DF504C50EF50150D9
:10582000021003100410D8A418EF2CF01AEF2CF07B
:1058300024EF2CF0000E016E000E026E000E036EBF
:10584000000E046EB5EF2CF0960E0A6E2EEF2CF0C3
:105850000A2AD8900E320D320C320B32000E0B1485
:10586000056E000E0C14066E000E0D14076EFE0E73
:105870000E14086E0550061007100810D8A443EF48
:105880002CF045EF2CF028EF2CF053EF2CF00A2AE7
:10589000010E0B26000E0C220D220E22D8900E3285
:1058A0000D320C320B32000E0B14056E000E0C1470
:1058B000066E000E0D14076EFF0E0E14086E0550D6
:1058C000061007100810D8A468EF2CF06AEF2CF02F
:1058D00047EF2CF072EF2CF00A06D8900B360C36FE
:1058E0000D360E360DBE77EF2CF079EF2CF081EFF0
:1058F0002CF0020E0A607FEF2CF081EF2CF06CEFA1
:105900002CF00AB086EF2CF088EF2CF089EF2CF009
:105910000D9ED8900A320AC505F5066A076A086A1C
:1059200005C508F5076A066A056A05500B12065098
:105930000C1207500D1208500E120950D8B4A3EFE4
:105940002CF0A5EF2CF0ADEF2CF004BEACEF2CF05A
:10595000AAEF2CF0ADEF2CF00E8E0BC501F50CC5A7
:1059600002F50DC503F50EC504F5120001011DAFCA
:10597000BCEF2CF0BEEF2CF0CDEF2CF002D8CBEF2B
:105980002CF00500FA6E06015251FD6E5351FE6E69
:10599000FF6AFA50120001011D9F1DADD2EF2CF0DD
:1059A000D4EF2CF0E3EF2CF002D8E1EF2CF005005F
:1059B000FA6E06015051FD6E5151FE6EFF6AFA50AB
:1059C000120001011D9D1DABE8EF2CF0EAEF2CF059
:1059D000F9EF2CF002D8F7EF2CF00500FA6E060173
:1059E0004E51FD6E4F51FE6EFF6AFA5012000101DA
:1059F0001D9B1CA7FEEF2CF000EF2DF00FEF2DF0FC
:105A000002D80DEF2DF00500FA6E06014C51FD6E27
:105A10004D51FE6EFF6AFA50120001011C971DA93C
:105A200014EF2DF016EF2DF025EF2DF002D823EF17
:105A30002DF00500FA6E06014A51FD6E4B51FE6EC7
:105A4000FF6AFA50120001011D991DA52AEF2DF0E1
:105A50002CEF2DF042EF2DF002D839EF2DF005009C
:105A6000FA6E06014851FD6E4951FE6EFF6AFA500A
:105A70001200010154A93FEF2DF041EF2DF042EF4C
:105A80002DF054991DA747EF2DF049EF2DF05FEF52
:105A90002DF002D856EF2DF00500FA6E06014651A2
:105AA000FD6E4751FE6EFF6AFA501200010160A7B9
:105AB0005CEF2DF05EEF2DF05FEF2DF06097AE9C68
:105AC00012000A6EA2EF2DF0C3EC45F0000E99EC27
:105AD00045F0100E38EC41F001C50BF502C50CF590
:105AE000010E0D6EBFEF2DF0C3EC45F0010E99ECE9
:105AF00045F0040E38EC41F001C50BF502C50CF57C
:105B000070EF2DF0C3EC45F0020E99EC45F0120E4B
:105B100038EC41F001C50BF502C50CF570EF2DF026
:105B2000C3EC45F0030E99EC45F0110E38EC41F052
:105B300001C50BF502C50CF570EF2DF0020E0D6ED0
:105B4000BFEF2DF00A50086E096A0950000AD8B458
:105B5000ACEF2DF09EEF2DF00850010AD8B482EF83
:105B60002DF0030AD8B490EF2DF0010AD8B464EFF9
:105B70002DF0070AD8B474EF2DF09EEF2DF00D0430
:105B8000D8A4C5EF2DF0C7EF2DF0F5EF2DF00C5098
:105B900007E1070E0B5CD8B0D0EF2DF0D2EF2DF05F
:105BA000D8EF2DF0000E0F6E000E0E6EE2EF2DF00E
:105BB0000BC50EF50CC50FF5FB0E0E240E6EFF0E79
:105BC0000F200F6E890E0E5C130E0F58D8A0EBEF4E
:105BD0002DF0EDEF2DF0EFEF2DF0F5EF2DF00EC5E0
:105BE00006F50FC507F5F5EF2DF012006AEC44F04D
:105BF0000009D8B4FEEF2DF000EF2EF03AEF2EF0B2
:105C00000DEF2EF002EC45F086EF2EF0EFEC45F0B4
:105C100086EF2EF0000E86EF2EF012C60AF513C6A0
:105C20000BF502D81EEF2EF00500FA6E06010651A4
:105C3000FD6E0751FE6EFF6AFA5012000C6E0D6A7F
:105C40000D50000AD8B427EF2EF00AEF2EF00C50BA
:105C5000010AD8B40AEF2EF0030AD8B402EF2EF0EE
:105C6000010AD8B406EF2EF0070AD8B40AEF2EF0D6
:105C70000AEF2EF05FEC44F00009D8B442EF2EF0AA
:105C800044EF2EF085EF2EF006012351030B00099F
:105C9000D8B44DEF2EF04FEF2EF05BEF2EF0010E4B
:105CA0000C6E2351030B0D6E0C500D5E23510D181D
:105CB000FC0B0D18236F610074F8D9F4610078F8BB
:105CC000DAF4DF50106E1D4B1E2B1F07D8A02007E3
:105CD0001F512011D8A46FEF2EF071EF2EF079EF45
:105CE0002EF0B8EC3AF00C6E0C500E6E0F6A7DEF91
:105CF0002EF0000E0F6E030E0E6E0EC511F5105035
:105D00009EEC45F0115086EF2EF0030E1200000EAF
:105D10000601936F91BF91EF2EF08FEF2EF09BEF66
:105D20002EF0911F901F8F1F8E6D000E8F239023DA
:105D30009123010E936F8DBFA2EF2EF0A0EF2EF0F6
:105D4000ACEF2EF08D1F8C1F8B1F8A6D000E8B23E6
:105D50008C238D23010E931B000E946F000E956F04
:105D6000000E966F000E976F8E518F11901191114A
:105D7000D8B4BDEF2EF0BFEF2EF0F5EF2EF0010EF0
:105D8000926FC9EF2EF0D8908E378F3790379137BA
:105D9000922B91AFCEEF2EF0D0EF2EF0C3EF2EF07E
:105DA000D89094379537963797378E518A5D8F51B3
:105DB0008B5990518C5991518D59D8A0E2EF2EF00A
:105DC000E4EF2EF0EDEF2EF08E518A5F8F518B5B5A
:105DD00090518C5B91518D5B9481D890913390332D
:105DE0008F338E33922FD0EF2EF09351D8B4FBEF38
:105DF0002EF0FDEF2EF005EF2FF0971F961F951F49
:105E0000946D000E95239623972394C68AF695C623
:105E10008BF696C68CF697C68DF61200000E0A6EAB
:105E200008BE17EF2FF015EF2FF021EF2FF0081E0F
:105E3000071E061E056C000E062207220822010E10
:105E40000A6E04BE28EF2FF026EF2FF032EF2FF06E
:105E5000041E031E021E016C000E022203220422F5
:105E6000010E0A1A000E0B6E000E0C6E000E0D6E67
:105E7000000E0E6E0550061007100810D8B443EF40
:105E80002FF045EF2FF07BEF2FF0010E096E4FEF53
:105E90002FF0D8900536063607360836092A08AEA0
:105EA00054EF2FF056EF2FF049EF2FF0D8900B362C
:105EB0000C360D360E360550015C06500258075060
:105EC000035808500458D8A068EF2FF06AEF2FF05D
:105ED00073EF2FF00550015E0650025A0750035A27
:105EE0000850045A0B80D890083207320632053227
:105EF000092E56EF2FF00A50D8B481EF2FF083EF20
:105F00002FF08BEF2FF00E1E0D1E0C1E0B6C000ED3
:105F10000C220D220E220BC501F50CC502F50DC594
:105F200003F50EC504F512000601AA35AB35B16FB5
:105F3000B151D8A49EEF2FF0A0EF2FF0AAEF2FF0D1
:105F4000000EA86F000EA96F000EAA6F000EAB6FB7
:105F500017EF30F0A8C6ACF6A9C6ADF6AAC6AEF6E5
:105F6000ABC6AFF6200EBAEF2FF0D890AF33AE33FA
:105F7000AD33AC33E82EB5EF2FF0AC51B06FAA8F34
:105F8000FF0EA817FF0EA917FF0EAA17000EAB17DA
:105F9000960EB15FB1BFD1EF2FF0CFEF2FF0E7EF4B
:105FA0002FF0B151800A970FD8B0D9EF2FF0DBEF67
:105FB0002FF0DDEF2FF0A0EF2FF0D890AB33AA3306
:105FC000A933A833B13FDDEF2FF0FFEF2FF01F0E05
:105FD000B165EDEF2FF0EFEF2FF0F7EF2FF0A0EF1F
:105FE0002FF0D890A837A937AA37AB37B107B151EE
:105FF000D8A4FDEF2FF0FFEF2FF0F1EF2FF0B0510D
:10600000D8B405EF30F007EF30F00FEF30F0AB1FF2
:10601000AA1FA91FA86D000EA923AA23AB23A8C6F7
:10602000A8F6A9C6A9F6AAC6AAF6ABC6ABF6120090
:10603000353436343C6E3C50D8A421EF30F023EF99
:1060400030F02DEF30F0000E336E000E346E000E87
:10605000356E000E366E9AEF30F033C537F534C525
:1060600038F535C539F536C53AF5200E3DEF30F037
:10607000D8903A32393238323732E82E38EF30F0B1
:1060800037503B6E358EFF0E3316FF0E3416FF0E63
:106090003516000E3616960E3C5E3CBE54EF30F0C0
:1060A00052EF30F06AEF30F03C50800A970FD8B0D2
:1060B0005CEF30F05EEF30F060EF30F023EF30F067
:1060C000D89036323532343233323C3E60EF30F0E5
:1060D00082EF30F01F0E3C6470EF30F072EF30F062
:1060E0007AEF30F023EF30F0D8903336343635364F
:1060F00036363C063C50D8A480EF30F082EF30F0CA
:1061000074EF30F03B50D8B488EF30F08AEF30F0C5
:1061100092EF30F0361E351E341E336C000E3422E2
:106120003522362233C533F534C534F535C535F55A
:1061300036C536F51200000E1A14226E000E1B141E
:10614000236E800E1C14246E7F0E1D14256E2250AB
:10615000231024102510D8A4B0EF30F0B2EF30F0A7
:10616000BAEF30F0000E1A6E000E1B6E000E1C6EA1
:10617000000E1D6E000E1E14226E000E1F14236EE4
:10618000800E2014246E7F0E2114256E22502310C1
:1061900024102510D8A4CFEF30F0D1EF30F0D9EF94
:1061A00030F0000E1E6E000E1F6E000E206E000EF0
:1061B000216E1DAEDEEF30F0E0EF30F0E9EF30F0B1
:1061C0001A6C1B1ED8B01B2A1C1ED8B01C2A800EAD
:1061D0001D5621AEEEEF30F0F0EF30F0F9EF30F079
:1061E0001E6C1F1ED8B01F2A201ED8B0202A800E79
:1061F0002156000E1A1A000E1B1A000E1C1A800ED1
:106200001D1A000E1E1A000E1F1A000E201A800EF4
:10621000211A1E501A5C1F501B5820501C58215028
:106220001D58D8B016EF31F018EF31F01BEF31F0F8
:10623000D8901CEF31F0D880120028C60BF529C683
:106240000CF52AC60DF52BC60EF501C50BF502C5DA
:106250000CF503C50DF504C50EF50BC505F50CC50C
:1062600006F50DC507F50EC508F5180E3DEF31F022
:10627000D8900832073206320532E82E38EF31F076
:106280000550096E0A6A09500A10D8A44AEF31F085
:106290004CEF31F06CEF31F0D8900B34056E0C34CC
:1062A000066E0D34076E0E34086E0550061007108A
:1062B0000810D8A45EEF31F060EF31F066EF31F0F6
:1062C000000E026E020E016E9BEF31F0000E026EA8
:1062D000030E016E9BEF31F009280A10D8A473EF6A
:1062E00031F075EF31F097EF31F00BC505F50CC5C6
:1062F00006F50DC507F50EC508F5090ED89005364B
:10630000063607360836E82E7EEF31F005500610C7
:1063100007100810D8B48FEF31F092EF31F0010E72
:1063200093EF31F0000E016E026A9BEF31F0000E28
:10633000026E040E016E120001C508F502C509F5D2
:1063400003C50AF504C50BF50506D8A00606052801
:1063500006E10628D8A4AFEF31F0B1EF31F0BEEF7F
:1063600031F0000E026E000E016E15EF32F0084A99
:10637000092A0A4A0B2A0506D8A00606610020F45D
:10638000D9F4610024F4DAF4DF50D8B4CAEF31F064
:10639000CCEF31F0FFEF31F0610028F4F6F461004A
:1063A0002CF4F7F4F86A0800F5500009D8B4DBEFD4
:1063B00031F0DDEF31F0FFEF31F005500610D8B4C9
:1063C000E4EF31F0E6EF31F0FFEF31F0610020F45F
:1063D000D9F4610024F4DAF4DF50076E610028F488
:1063E000F6F461002CF4F7F4F86A0800F550071889
:1063F000D8B4FDEF31F0FFEF31F0B7EF31F06100CD
:1064000020F4D9F4610024F4DAF4DF50076E61005F
:1064100028F4F6F461002CF4F7F4F86A0800F5505B
:10642000075C016E026AD8A002061200490E06013E
:106430008A6F990E8B6F000E8C6F000E8D6FB4C635
:106440008EF6B5C68FF6906B916B87EC2EF08AC6F0
:10645000B8F68BC6B9F66A0E06019C6F4D0E9D6F9D
:10646000930E9E6FBF0E9F6FB8C68AF6B9C68BF6A5
:106470008C6B8D6B000E00EC2BF08AC698F68BC6E9
:1064800099F68CC69AF68DC69BF6BDEC19F098C6A7
:10649000A8F699C6A9F69AC6AAF69BC6ABF694ECDE
:1064A0002FF0A8C6B8F6A9C6B9F6B2C6B6F6B3C6F6
:1064B000B7F60601D890B637B737D890B637B737A2
:1064C000B6C6BAF6B7C6BBF6BAC68AF6BBC68BF670
:1064D000000E8D6F640E8C6FDAEC41F08AC6BAF64E
:1064E0008BC6BBF6BAC68AF6BBC68BF6B4C68CF6AC
:1064F000B5C68DF670EC3BF08AC6BAF68BC6BBF615
:10650000BAC68AF6BBC68BF6E6EC44F0B8C68AF685
:10651000B9C68BF6DFEC44F0E9EC45F01200490E09
:1065200006018A6F990E8B6F000E8C6F000E8D6FB7
:10653000B4C68EF6B5C68FF6906B916B87EC2EF0D5
:106540008AC6B8F68BC6B9F66A0E06019C6F4D0E68
:106550009D6F930E9E6FBF0E9F6FB8C68AF6B9C629
:106560008BF68C6B8D6B000E00EC2BF08AC698F6C8
:106570008BC699F68CC69AF68DC69BF6BDEC19F0C3
:1065800098C6A8F699C6A9F69AC6AAF69BC6ABF60F
:1065900094EC2FF0A8C6B8F6A9C6B9F6B2C6B6F6FE
:1065A000B3C6B7F60601D890B637B737D890B63726
:1065B000B737B6C6BAF6B7C6BBF6BAC68AF6BBC612
:1065C0008BF6000E8D6F640E8C6FDAEC41F08AC68C
:1065D000BAF68BC6BBF6BAC68AF6BBC68BF6B4C68D
:1065E0008CF6B5C68DF670EC3BF08AC6BAF68BC653
:1065F000BBF6BAC68AF6BBC68BF6F4EC44F0B8C656
:106600008AF6B9C68BF6EDEC44F0EBEC45F01200DF
:10661000490E016E990E026E000E036E000E046E9E
:106620003FC505F540C506F5076A086A0EEC2FF070
:1066300001C543F502C544F56A0E136E4D0E146E86
:10664000930E156EBF0E166E43C501F544C502F5D7
:10665000036A046A000EDCEC2BF001C50FF502C5DD
:1066600010F503C511F504C512F51EEC1CF00FC59D
:1066700033F510C534F511C535F512C536F518ECEE
:1066800030F033C543F534C544F53DC541F53EC54D
:1066900042F5D89041364236D8904136423641C50F
:1066A00045F542C546F545C501F546C502F5000E5E
:1066B000046E640E036EF7EC42F001C545F502C5A9
:1066C00046F545C501F546C502F53FC503F540C58C
:1066D00004F51FEC3CF001C545F502C546F545C57E
:1066E00001F546C502F51BEC45F043C501F544C56F
:1066F00002F515EC45F0F5EC45F01200216E000EA8
:106700001D6E18501CEC44F0206E20A08AEF33F070
:106710008CEF33F0F2EF33F018500C0D580EF324D9
:10672000D96E010EF420DA6E610078F31EF5610077
:1067300074F31FF51E501F10D8B4A1EF33F0A3EF70
:1067400033F0F2EF33F01EC50CF51FC50DF519C57A
:106750000EF51AC50FF5A2EC25F018500C0D510ED0
:10676000F324D96E010EF420DA6E000EDB80215086
:10677000020DD50EF324D96E060EF420DA6EDF2A50
:106780001850C2EC43F01B6E2150020DD50EF324BD
:10679000D96E060EF420DA6E1B50DE5CD8A0D3EF63
:1067A00033F0D5EF33F0DFEF33F02150020DD50E8B
:1067B000F324D96E060EF420DA6E000EDF6E20A6EA
:1067C000E4EF33F0E6EF33F0F0EF33F018500C0D58
:1067D000540EF324D96E010EF420DA6EF70EDF1694
:1067E000010E1D6E1D5012000601BC51BD11D8B422
:1067F000FCEF33F0FEEF33F00AEF34F002D80AEF8B
:1068000034F00500FA6EBC51FD6EBD51FE6EFF6A9C
:10681000FA5012003AEC40F00501FF2B060EFF196A
:10682000D8A415EF34F017EF34F01BEF34F0000E5E
:10683000FF6F93EC43F00501FE2B0B0EFE19D8A45D
:1068400024EF34F026EF34F02AEF34F0000EFE6F20
:1068500078EC40F00501FD2B650EFD19D8A433EF4F
:1068600034F035EF34F039EF34F0000EFD6FFBEC0F
:1068700045F006013C4B3D2B2D0E3C1906E13D0534
:10688000D8A445EF34F047EF34F04DEF34F0000E6C
:106890003D6F000E3C6FF9EC45F006013A4B3B2B87
:1068A000590E3A1907E1020E3B19D8A45AEF34F0F9
:1068B0005CEF34F062EF34F0000E3B6F000E3A6F85
:1068C000FAEC45F0120023C574F624C575F625C50B
:1068D00076F626C577F627C578F628C579F629C550
:1068E0007AF62AC57BF61EC583F61FC584F620C539
:1068F00085F621C586F60601879D879F8793879138
:1069000022C52BF50F0E2B162B462B4687512B1825
:10691000C30B2B18876F740E886F060E896F49ECB6
:1069200044F0E806D8A497EF34F099EF34F09AEFEA
:1069300034F000F03EEC44F0E806D8A4A2EF34F0C6
:10694000A4EF34F0A5EF34F000F033EC44F0E806A7
:10695000D8A4ADEF34F0AFEF34F0B0EF34F000F086
:10696000DFEC43F0E806D8A4B8EF34F0BAEF34F027
:10697000BBEF34F000F0000E34EC43F02B6E2BA094
:10698000C4EF34F0C6EF34F0CEEF34F0830E186E5F
:10699000060E196E000E5FEC39F000F01200076E63
:1069A000000E096E20EE04F00250D9260350DA22C0
:1069B000DF500A6E0AAEDFEF34F0E1EF34F0ECEFB7
:1069C00034F094EC45F0060AD8A4E9EF34F0EBEF8C
:1069D00034F0ECEF34F009820A30E8320F0B046E29
:1069E000080E0464F6EF34F0F8EF34F00AEF35F0F7
:1069F0000AACFDEF34F0FFEF34F009EF35F094EC22
:106A000045F0060AD8A407EF35F009EF35F00AEF94
:106A100035F009802F0EF66E260EF76EF86A080024
:106A20006100D4F304F50A30E8320F0B056E066AF4
:106A3000270E0524F66E260E0620F76EF86A000E65
:106A4000F8220800F550045CD8B029EF35F02BEFA0
:106A500035F02CEF35F009800750F8EC43F00009D1
:106A6000D8A435EF35F037EF35F039EF35F0030EB8
:106A7000091209501200000E036E000E0A6E0A5031
:106A8000020DD40EF324D96E060EF420DA6EDF5018
:106A9000066E06501CEC44F0056E05A052EF35F072
:106AA00054EF35F095EF35F00650C2EC43F0076E29
:106AB00005A65DEF35F05FEF35F063EF35F007C504
:106AC00004F593EF35F006500C0D550EF324D96EF6
:106AD000010EF420DA6EDF501F0B086E0A50020D13
:106AE000D50EF324D96E060EF420DA6EDF50096E4F
:106AF0000950085CD8B07FEF35F081EF35F087EFB3
:106B000035F00950085C0724046E93EF35F0085007
:106B1000095CD8B08EEF35F090EF35F05FEF35F0CF
:106B20000950085C046E045003260A2A0A50D8B49F
:106B30009CEF35F09EEF35F03FEF35F0035012003B
:106B4000000ECFB4010E016E000ECEB2010E026E29
:106B50000104D8A4AEEF35F0B0EF35F0BFEF35F05B
:106B60000250D8A4B6EF35F0B8EF35F0BFEF35F0EE
:106B7000010E06015E6FEFC560F603EF36F00150BF
:106B8000D8A4C5EF35F0C7EF35F0D6EF35F00204E5
:106B9000D8A4CDEF35F0CFEF35F0D6EF35F0020EBB
:106BA00006015E6FEFC55FF603EF36F00150D8A423
:106BB000DCEF35F0DEEF35F0EBEF35F00250D8A426
:106BC000E4EF35F0E6EF35F0EBEF35F0030E0601BC
:106BD0005E6F03EF36F00104D8A4F1EF35F0F3EF68
:106BE00035F000EF36F00204D8A4F9EF35F0FBEFF2
:106BF00035F000EF36F0040E06015E6F03EF36F05D
:106C0000050E06015E6F12000501E7A10AEF36F0DE
:106C10000CEF36F016EF36F013C50AF514C50BF578
:106C200011C50CF512C50DF5F9EC3FF016BE1BEFC2
:106C300036F01DEF36F023EF36F015C51AF516C500
:106C40001BF527EF36F0000E1B6E000E1A6E000EBD
:106C5000196E000E186E39EF36F0000E026E200E1F
:106C6000016E11C503F512C504F514EC39F0184A8C
:106C7000192A1A50185C1950800A176E1B50800A86
:106C80001758D8A046EF36F048EF36F02DEF36F023
:106C90000501E7B14EEF36F050EF36F05AEF36F01F
:106CA00013C50AF514C50BF511C50CF512C50DF584
:106CB000F9EC3FF013C501F514C502F595EC40F071
:106CC0001A500124116E1B500220126E1200000E89
:106CD0000C6E0ABE70EF36F06EEF36F076EF36F0DF
:106CE000096C0A1ED8B00A2A010E0C6E08BE7DEF90
:106CF00036F07BEF36F083EF36F0076C081ED8B025
:106D0000082A010E0C1A000E0E6E000E0D6E0950B0
:106D10000A10D8B48EEF36F090EF36F0B8EF36F0B8
:106D2000010E0B6E98EF36F0D89009360A360B2A12
:106D30000AAE9DEF36F09FEF36F094EF36F0D89024
:106D40000D360E360950075C0A500858D8A0ABEF34
:106D500036F0ADEF36F0B2EF36F00950075E0A506C
:106D6000085A0D80D8900A3209320B2E9FEF36F068
:106D70000C50D8B4BEEF36F0C0EF36F0C4EF36F0AA
:106D80000D6C0E1ED8B00E2A0DC507F50EC508F500
:106D900012006100D8F3E1F56100DCF3E2F5610077
:106DA000E0F3E3F56100D4F3E4F5A1AEDAEF36F0F9
:106DB000DCEF36F0E7EF36F0B1AEE1EF36F0E3EFBF
:106DC00036F0E7EF36F006EC41F01DEF37F0A1A802
:106DD000ECEF36F0EEEF36F0F9EF36F0B1A8F3EF66
:106DE00036F0F5EF36F0F9EF36F0B2EC40F01DEF8B
:106DF00037F09EACFEEF36F000EF37F00BEF37F0D8
:106E0000AEAC05EF37F007EF37F00BEF37F0B6EC2D
:106E10002CF01DEF37F0A2A810EF37F012EF37F08B
:106E20001DEF37F0B2A817EF37F019EF37F01DEF6D
:106E300037F0F0EC41F01DEF37F0610090F7F5F41A
:106E400061008CF7F8F4610088F7F7F4610084F7CB
:106E5000F6F41100000E066E02BE33EF37F031EF8C
:106E600037F039EF37F0016C021ED8B0022A010E5C
:106E7000066E04BE40EF37F03EEF37F044EF37F0D8
:106E8000036C041ED8B0042A03500410D8B44BEF8E
:106E900037F04DEF37F071EF37F0010E056E55EF1B
:106EA00037F0D89003360436052A04AE5AEF37F08F
:106EB0005CEF37F051EF37F00350015C045002589B
:106EC000D8A065EF37F067EF37F06BEF37F003507E
:106ED000015E0450025AD89004320332052E5CEF52
:106EE00037F00650D8B477EF37F079EF37F07DEF11
:106EF00037F0016C021ED8B0022A01C501F502C5A7
:106F000002F51200000E0114096E000E02140A6E42
:106F1000800E03140B6E7F0E04140C6E09500A10C1
:106F20000B100C10D8A497EF37F099EF37F0A1EFC2
:106F300037F0000E016E000E026E000E036E000EA2
:106F4000046E000E0514096E000E06140A6E800E03
:106F500007140B6E7F0E08140C6E09500A100B10EC
:106F60000C10D8A4B6EF37F0B8EF37F0C0EF37F019
:106F7000000E056E000E066E000E076E000E086E07
:106F8000055001180FE1065002180CE107500318D4
:106F900009E108500418D8B4D0EF37F0D2EF37F039
:106FA000D5EF37F0D890D6EF37F0D8801200220E08
:106FB000166E050E176E000E196E060E186E600E18
:106FC000D6EC3FF024C51DF51D3A0F0E1D162350BB
:106FD0001E6E1F6A1E3A1F3AF00E1F161E500F0B30
:106FE0001F12F00E1E161D501E24206E000E1F20B4
:106FF000216E1B501C10D8B400EF38F002EF38F0AF
:1070000023EF38F026501D6E1E6A1D3A1E3AF00E10
:107010001E161D500F0B1E12F00E1D1627C51FF554
:107020001F3A0F0E1F161F501D26000E1E22610054
:107030006CF4D9F4610070F4DAF4610074F4DEF4F5
:10704000610078F4DDF420C51BF521C51CF51200A4
:10705000060123894CEF38F0D8EC45F0080E78EFA4
:1070600038F0D8EC45F0070E78EF38F006011F290C
:10707000D7EC44F0040E78EF38F0070E0601211922
:10708000D8B445EF38F047EF38F049EF38F0DBEC93
:1070900045F00F0E78EF38F00CC60AF50DC60BF56B
:1070A00002D85CEF38F00500FA6E0051FD6E015118
:1070B000FE6EFF6AFA5012000C6E0D6A0D50000A47
:1070C000D8B465EF38F03DEF38F00C50010AD8B471
:1070D0003DEF38F0030AD8B431EF38F0010AD8B4E4
:1070E0002CEF38F0070AD8B436EF38F03DEF38F01F
:1070F000120075EC44F00009D8A481EF38F083EF5A
:1071000038F086EF38F0040EC7EF38F0060123514F
:10711000030B0009D8B48FEF38F091EF38F09DEFF2
:1071200038F0010E0E6E2351030B0F6E0E500F5EE2
:1071300023510F18FC0B0F18236F1F07D8A020072F
:107140001F512011D8B4A7EF38F0A9EF38F0B7EFEE
:1071500038F0D5EC45F0610074F8D9F4610078F8A6
:10716000DAF4DF6E06011D4B1E2B83EF38F028EC9E
:1071700038F0106ED5EC45F0610074F8D9F4610078
:1071800078F8DAF4DF6E06011D4B1E2B105012004A
:1071900006018C6F000E06018B6F4EEC45F0060168
:1071A0008A6F040E8A19D8B4D8EF38F0DAEF38F0C5
:1071B000EBEF38F08C05D8B4E0EF38F0E2EF38F0C0
:1071C000EBEF38F0040E8C19D8A4E9EF38F0EBEFB0
:1071D00038F010EF39F00101035106018C19F80B5A
:1071E0008C190101036F02EF39F001011DA9FBEFBA
:1071F00038F0FDEF38F002EF39F0020E06018B6F28
:1072000012EF39F00239E832070B06018C19D8A4C5
:107210000CEF39F00EEF39F0F5EF38F012EF39F0EE
:10722000010E8B6F8B51120003500410D8B41BEF6A
:1072300039F01DEF39F026EF39F003500410D8A4CF
:1072400024EF39F026EF39F02BEF39F00150FDEC47
:1072500045F05EEF39F020EE04F00350D9260450DB
:10726000DA22DE50DE10D8B438EF39F03AEF39F0D8
:1072700055EF39F020EE04F00350D9260450DA22FD
:1072800010EE02F00350E1260450E222DE50E65CEC
:10729000E650800A096EDE50800A0958D8B053EFD4
:1072A00039F055EF39F05EEF39F020EE02F003507F
:1072B000D9260450DA22DE2A000EDD2212001D6ECD
:1072C0001D5059EC40F00009D8B469EF39F06BEF6C
:1072D00039F0A8EF39F018C502F519C503F51D50AE
:1072E000CFEC34F01A6E1A50D8A479EF39F07BEF56
:1072F00039F0A8EF39F01D500C0D580EF324D96E5B
:10730000010EF420DA6E610078F31BF5610074F36E
:107310001CF51B501C10D8B490EF39F092EF39F0E7
:10732000A8EF39F01BC50CF51CC50DF518C50EF5F9
:1073300019C50FF57FEC24F01D500C0D510EF324F0
:10734000D96E010EF420DA6E030EDF12A8EF39F0C9
:107350001200016E010E026E060123B7B2EF39F082
:10736000B4EF39F0EFEF39F001C51CF62395238710
:10737000FC0E23170F0E216F010E1B6FF40E1A6FF8
:107380002389E60E006F8B0E016F000E0C6F000E4E
:107390000D6FE60E026F8B0E036F000E0E6F000E68
:1073A0000F6FE60E046F8B0E056F000E106F000E50
:1073B000116FE60E066F8B0E076F000E126F000E38
:1073C000136FE20E086F8B0E096F000E146F000E24
:1073D000156FBCEC45F006EC42F0000E026E025058
:1073E00012000501CC6FCCC501F5026A100E046EC7
:1073F000000E036EF7EC42F001C507F502C508F573
:10740000000E0A6E050E096E67EC36F007C5C8F56A
:1074100008C5C9F5CCC501F5026A100E046E000E50
:10742000036EF7EC42F001C507F502C508F5000E42
:107430000A6E050E096E67EC36F007C5CAF508C579
:10744000CBF50501C951166EC8C517F5C9C518F5A4
:10745000600E91EC3CF00501CB51166ECAC517F5D4
:10746000CBC518F5610E91EC3CF0C2EC26F0120091
:10747000056E01500210D8B440EF3AF042EF3AF0F6
:1074800060EF3AF00550020D000EF324D96E060E9F
:10749000F420DA6E610004F4DEF4610008F4DDF437
:1074A0000550020D0C0EF324D96E060EF420DA6E90
:1074B00061000CF4DEF4610010F4DDF478EF3AF0D2
:1074C0000550020D000EF324D96E060EF420DA6E7C
:1074D000E60EDE6E8B0EDD6E0550020D0C0EF324F3
:1074E000D96E060EF420DA6E000EDE6E000EDD6E32
:1074F0001200000EBE6E000EBF6E000EC06E080EB3
:10750000CA6EDE0EC66ECC0EC76E070EC86EE70ED4
:107510000401106F730E086FFD0E006F000E216FD7
:10752000000E096F000E016F000E116F000E026F4A
:10753000000E0A6F180E126F03690B691369046954
:107540000C691469080E246F0F0E0201696F140E86
:10755000706F1A0E0A6F370E146F180E096F380EFF
:10756000156F0B0E3D6F460E0D6F130E716F1200EF
:1075700006012389CDEF3AF0D8EC45F0070EF5EF80
:107580003AF006011F29D7EC44F0030EF5EF3AF06C
:10759000DBEC45F00A0EF5EF3AF00CC60AF50DC625
:1075A0000BF502D8DDEF3AF00500FA6E0051FD6EE2
:1075B0000151FE6EFF6AFA5012000C6E0D6A0D50FA
:1075C000000AD8B4E6EF3AF0C8EF3AF00C50010ADE
:1075D000D8B4C8EF3AF0030AD8B4BCEF3AF0060AC0
:1075E000D8B4C1EF3AF0C8EF3AF01200040E060129
:1075F0008A6F8C0E8B6F67EC45F0060E06018A6F62
:107600008C0E8B6F6CEC45F0080E06018A6F8C0EA9
:107610008B6F71EC45F0020E06018A6F8C0E8B6F3A
:1076200062EC45F0FE0E06018A6F8B0E8B6F58ECF4
:1076300045F0FC0E06018A6F8B0E8B6F53EC45F004
:10764000000E06018A6F8C0E8B6F5DEC45F0AE9CD0
:10765000000E01011C6F000E1D6F0A0E1E6FFC0E46
:107660001F6F9E8C1200A5EC3EF006012351030B08
:107670000009D8B43EEF3BF040EF3BF04DEF3BF05C
:107680006AEC44F00009D8B448EF3BF04AEF3BF015
:107690004DEF3BF0100E0601216F06012151020D46
:1076A000010EF324F66E260EF420F76EF86A000E33
:1076B000F82209006100D4F312F509006100D4F347
:1076C00013F502D86DEF3BF00500FA6E1250FD6E17
:1076D0001350FE6EFF6AFA5012000601216F12006D
:1076E000000E06018F6F000E8E6F8C518D11D8B475
:1076F0007CEF3BF07EEF3BF0A6EF3BF0010E906F8E
:1077000086EF3BF0D8908C378D37902B8DAF8BEF79
:107710003BF08DEF3BF082EF3BF0D8908E378F3708
:107720008C518A5D8D518B59D8A099EF3BF09BEF1E
:107730003BF0A0EF3BF08C518A5F8D518B5B8E81CB
:10774000D8908D338C33902F8DEF3BF08EC68AF618
:107750008FC68BF61200000E6F6E020E706E000E5A
:10776000716E3D0E726E000E736EFE0E746E000E24
:10777000756E000E766E000E776E000E796E1F0E1F
:107780007A6E000E7B6E1F0E7C6E000E7D6EB39CBB
:10779000B39E76907692A39EA39C000E06018A6FFC
:1077A000000E8B6F30EC45F0000E06018A6F000E64
:1077B0008B6F2BEC45F0000E06018A6F000E8B6F6D
:1077C00035EC45F0800E786E1200000E606E020EF1
:1077D000616E000E626E3D0E636E000E646EFE0EF4
:1077E000656E000E666E000E676E000E686E000E0F
:1077F0006A6E1F0E6B6E000E6C6E1F0E6D6E000EAD
:107800006E6EB29CB29E67906792A29EA29C000E82
:1078100006018A6F000E8B6F3FEC45F0000E0601EB
:107820008A6F000E8B6F3AEC45F0000E06018A6FEE
:10783000000E8B6F44EC45F0800E696E1200000E56
:10784000066E000E056E03500410D8B42AEF3CF00B
:107850002CEF3CF054EF3CF0010E076E34EF3CF09F
:10786000D89003360436072A04AE39EF3CF03BEFDC
:107870003CF030EF3CF0D890053606360350015C02
:1078800004500258D8A047EF3CF049EF3CF04EEFCF
:107890003CF00350015E0450025A0580D890043237
:1078A0000332072E3BEF3CF005C501F506C502F596
:1078B0001200BCEC45F0020E0601226F6CEF3CF0AA
:1078C00002EC45F090EF3CF0EFEC45F090EF3CF02F
:1078D000CFEC44F090EF3CF00EC60AF50FC60BF566
:1078E00002D87CEF3CF00500FA6E0251FD6E0351A8
:1078F000FE6EFF6AFA5012000C6E0D6A0D50000AFF
:10790000D8B485EF3CF068EF3CF00C50020AD8B4D4
:1079100060EF3CF0010AD8B464EF3CF068EF3CF053
:107920001200196E1950A9EC39F00009D8B49BEF78
:107930003CF09DEF3CF092EF3CF0BC0E066E840EE6
:10794000076E170E086E050E096E10EC44F0160E49
:10795000016E050E026E000E046E010E036E70ECD9
:1079600043F0000E066E000E076E000E086E000E4D
:10797000096E04EC44F0A8EC45F0CCEC42F0E806CB
:10798000D8B4C5EF3CF0C7EF3CF0BDEF3CF01200BF
:10799000186E1850A9EC39F00009D8B4D2EF3CF0B9
:1079A000D4EF3CF0C9EF3CF0400E066E850E076E3A
:1079B000170E086E050E096E10EC44F0160E016EDF
:1079C000050E026E000E046E010E036E70EC43F0A5
:1079D000000E066E000E076E000E086E000E096E99
:1079E00004EC44F0A8EC45F0CCEC42F0E806D8B446
:1079F000FCEF3CF0FEEF3CF0F4EF3CF01200A4C5CD
:107A00005DF5A5C55EF5000E06012D6F000E2C6F0D
:107A10001DEF3DF0A2C553F5A3C554F55D0E556E9F
:107A2000050E566EA6C557F5A7C558F5A5EC20F06E
:107A3000535006012C2754502D23610074F5F6F4A1
:107A4000610078F5F7F4F86A0800F5500009D8A449
:107A50002CEF3DF02EEF3DF00AEF3DF02CC6A2F5E5
:107A60002DC6A3F51200FC0E06012317020E226F8D
:107A7000239542EF3DF0EDEC45F066EF3DF00F0E43
:107A800066EF3DF010C60AF511C60BF502D852EFAD
:107A90003DF00500FA6E0451FD6E0551FE6EFF6A61
:107AA000FA5012000C6E0D6A0D50000AD8B45BEF4C
:107AB0003DF03FEF3DF00C50020AD8B43BEF3DF0F3
:107AC000010AD8B43BEF3DF03FEF3DF0120003C593
:107AD00007F504C508F501C509F502C50AF5075003
:107AE000056E0850066E074A082A610014F4F6F481
:107AF000610018F4F7F4000EF86E610024F4D9F474
:107B0000610028F4DAF4094A0A2A250EF76403D042
:107B10000800F55005D0F6C4E9F4F7C4EAF4EF50D4
:107B2000DF6EDF50D8A497EF3DF099EF3DF06FEF97
:107B30003DF01200BF0E096EFF0E0A6E07C50BF571
:107B400008C50CF509500B260A500C220C500AE10E
:107B50001A0E0B5CD8A0AFEF3DF0B2EF3DF0010E76
:107B6000B3EF3DF0000E0D6E0E6A0D500E10D8B43E
:107B7000BCEF3DF0BEEF3DF0C5EF3DF0200E07102D
:107B8000076E0850086EC9EF3DF007C507F508C538
:107B900008F512000101018F040EC8EC38F000094D
:107BA000D8A4D5EF3DF0D7EF3DF0F7EF3DF0000E54
:107BB00001014C6F260E4D6F000E4E6F000E4F6F81
:107BC000600E006F970E016F100E026FABEC44F069
:107BD000A1EC44F0E2EC42F082EC43F068EC41F0BE
:107BE000F6EC3AF0060EC8EC38F0C79ABF9A1200CD
:107BF000B5A2FDEF3DF0FFEF3DF001EF3EF024EFC9
:107C00003EF0B5A006EF3EF008EF3EF00AEF3EF082
:107C100024EF3EF002019AA510EF3EF012EF3EF085
:107C200014EF3EF024EF3EF09AAF19EF3EF01BEF59
:107C30003EF01DEF3EF024EF3EF097A922EF3EF01C
:107C400024EF3EF0F8EF3DF0120003C509F504C53E
:107C50000AF501C507F502C508F544EF3EF06100DD
:107C600024F4D9F4610028F4DAF4DF500B6E094AE9
:107C70000A2A61001CF4D9F4610020F4DAF46100EE
:107C80002CF4DFF4074A082A0506D8A006060528C2
:107C900006E10628D8A44FEF3EF051EF3EF02FEF5B
:107CA0003EF01200EE0EF66E8B0EF76E000EF86EC2
:107CB00009006100D4F3D4F609006100D4F3D5F6CD
:107CC00001EE00F3500EEE6AE806FDE101EE00F26F
:107CD0008A0EEE6AE806FDE101EEE5F11B0EEE6AA2
:107CE000E806FDE10401080E5D6F000E5E6F000EF8
:107CF0005F6F000128EF44F0146E010E156E06014F
:107D000023B585EF3EF087EF3EF0A3EF3EF02385ED
:107D1000000E156E1F51D7EC44F01450D8B493EFF9
:107D20003EF095EF3EF09CEF3EF0040E0601216F11
:107D3000ADEC41F0A1EF3EF0030E0601216F54ECD3
:107D400044F0B3EC43F01550120096EC44F00009F7
:107D5000D8B4ADEF3EF0AFEF3EF0B3EF3EF0E4EC61
:107D600045F0CDEF3EF080EC44F00009D8B4BBEF15
:107D70003EF0BDEF3EF0C1EF3EF0DEEC45F0CDEF62
:107D80003EF08BEC44F00009D8B4C9EF3EF0CBEFE5
:107D90003EF0CDEF3EF0E1EC45F01200000E256E16
:107DA0002550020DD40EF324D96E060EF420DA6E9F
:107DB000DF50186E22C519F523C51AF525507EEC43
:107DC00033F0246E2450D8B4E8EF3EF0EAEF3EF0F2
:107DD000ECEF3EF0F5EF3EF0252A2550D8B4F3EF56
:107DE0003EF0F5EF3EF0D0EF3EF0245012005F6E13
:107DF00006EF3FF0000EF1EC39F0BE8A1CEF3FF0C9
:107E0000BE9A1CEF3FF0BE9A1CEF3FF05F50050199
:107E1000CD6FCE6BCE51000AD8B411EF3FF003EF17
:107E20003FF0CD51000AD8B400EF3FF0010AD8B4BA
:107E3000FAEF3EF003EF3FF0120020EE02F00A509E
:107E4000D9260B50DA22610078F301F5610074F352
:107E500002F5610028F4D9F461002CF4DAF4610031
:107E600078F303F5610074F304F570EC43F0000E51
:107E7000066E000E076E000E086E000E096E10EC06
:107E800044F0020E120020EE02F00A50D9260B50E8
:107E9000DA22610078F301F5610074F302F5610004
:107EA00028F4D9F461002CF4DAF4610078F303F5D6
:107EB000610074F304F570EC43F0000E066E000EE2
:107EC000076E000E086E000E096E10EC44F0020EF4
:107ED0001200486E48503C0D6100CCF3E9F561009A
:107EE000D0F3EAF5E9C501F5EAC502F5000E046E26
:107EF000640E036E1FEC3CF001C5E9F502C5EAF51E
:107F00000501E951E96FEA6BE9C53DF5EAC53EF5C2
:107F1000010E406E2C0E3F6E08EC33F01200000E86
:107F200003011F6F000E206F010E216F850E1D6F64
:107F3000EE0E1C6FB1981C51600074FC8CF60601AB
:107F40008D6B8CC68DF68C6B8C11BE6F8D51BF6F97
:107F5000A188F00E8A6F8B0E8B6F21EC45F0310EED
:107F600003011E6F1200000E231A000E241A000EC9
:107F7000251A800E261A1FC50FF520C510F521C53C
:107F800011F522C512F523C513F524C514F525C531
:107F900015F526C516F51EEC1CF00FC51FF510C50E
:107FA00020F511C521F512C522F512001A6E1A50DE
:107FB000A9EC39F00009D8B4E0EF3FF0E2EF3FF070
:107FC000D7EF3FF016C501F517C502F518C503F543
:107FD00019C504F570EC43F0ACEC45F0CCEC42F084
:107FE000E806D8B4F6EF3FF0F8EF3FF0EEEF3FF0E1
:107FF0001200000E106E000E0F6E0AEF40F00EC55C
:1080000001F5026A0CC503F50DC504F514EC39F051
:108010000F4A102A0F500A24D96E10500B20DA6E26
:10802000DF500E6E0E50D8A418EF40F01AEF40F05B
:10803000FFEF3FF01200C690C784C682C69AC89A66
:10804000C89CC89EC79A000E0601B36F000EB26F9F
:10805000000EB56F320EB46F8FEC32F0000E0601D9
:10806000B36F000EB26F000EB56F320EB46F16EC28
:1080700032F01200A0EC35F0300E1E6E030E1F6EB3
:10808000000E206E000E216E060E226EEEC523F548
:10809000EDC524F5ECC525F5EBC526F5000E276EDC
:1080A000000E286E000E296E000E2A6E63EC34F06E
:1080B0001200026E000E016E040E026062EF40F0CC
