:020000040000FA
:040000000DEF00F010
:040008007BEF34F066
:06001800FF0089EF39F042
:1026000000000000000000000000000000000000CA
:1026100000000000000000000000000000000000BA
:102620000000000000000000010203040506070886
:102630005001526561643A206E6F6E2D766F6C6149
:1026400074696C6520766F6C746167652076616C67
:1026500075652025662C20616E6420766F6C617430
:10266000696C6520766F6C746167652076616C7546
:10267000652025660053657420746865206E6F6E52
:102680002D766F6C6174696C6520766F6C74616710
:102690006520746F203156200A00536574207468D9
:1026A0006520766F6C6174696C6520766F6C7461FF
:1026B000676520746F203256200A00000501BD5165
:1026C000800BC66FBD51BD25C86FBCAF6AEF13F05C
:1026D0006CEF13F06DEF13F0C881C851D8B473EFED
:1026E00013F075EF13F08AEF13F0C829D8A47BEF2D
:1026F00013F07DEF13F085EF13F0000EBA6F000EAC
:10270000BB6F000EBC6F000EBD6FBC8F000EBD6FA7
:1027100092EF13F0000EBA6F000EBB6F000EBC6F8D
:10272000000EBD6FC151800BC76FC651C719D8B419
:102730009CEF13F09EEF13F09FEF13F0C68DC15185
:10274000C125C76FC0AFA7EF13F0A9EF13F0AAEF31
:1027500013F0C781C751D8B4B0EF13F0B2EF13F044
:10276000C7EF13F0C729D8A4B8EF13F0BAEF13F0EE
:10277000C2EF13F0000EBE6F000EBF6F000EC06FF1
:10278000000EC16FC08F000EC16FCFEF13F0000EAF
:10279000BE6F000EBF6F000EC06F000EC16FC8513C
:1027A000C75DD8B0D6EF13F0D8EF13F0FFEF13F0FA
:1027B000C6ADDDEF13F0DFEF13F0E1EF13F0800EA5
:1027C000C61BC8C5C9F5C7C5C8F5C9C5C7F5BAC5CB
:1027D000C9F5BEC5BAF5C9C5BEF5BBC5C9F5BFC506
:1027E000BBF5C9C5BFF5BCC5C9F5C0C5BCF5C9C5F4
:1027F000C0F5BDC5C9F5C1C5BDF5C9C5C1F5000E5A
:10280000C96FC851C7C5C2F5C36BC25F000EC35BB9
:10281000C3BF14EF14F0C35109E11A0EC25DD8A072
:1028200014EF14F016EF14F04DEF14F0BA51BB1181
:10283000BC11BD11D8A41FEF14F022EF14F0010E4B
:1028400023EF14F0000EC96F000EBA6F000EBB6FBD
:10285000000EBC6F000EBD6FC7C5C8F556EF14F073
:10286000C9A135EF14F037EF14F03DEF14F0D89014
:10287000C9310109C96F3FEF14F0D890C933BAA12B
:1028800044EF14F046EF14F047EF14F0C98FBD3554
:10289000BD33BC33BB33BA33C82BC751C85DD8A0D6
:1028A00054EF14F056EF14F030EF14F0C6BD5BEFA8
:1028B00014F05DEF14F09DEF14F0C851D8A463EF4D
:1028C00014F065EF14F06FEF14F0000EBA6F000E05
:1028D000BB6F000EBC6F000EBD6FBEEF15F0BE519A
:1028E000BA27BF51BB23C051BC23C151BD23BDA1D9
:1028F0007CEF14F07EEF14F02AEF15F0C9A183EFFE
:1029000014F085EF14F08BEF14F0D890C931010961
:10291000C96F8DEF14F0D890C933BAA192EF14F0BB
:1029200094EF14F095EF14F0C98FBD35BD33BC336F
:10293000BB33BA33C82B2AEF15F0BE51BA5DBF5175
:10294000BB59C051BC59BD51800AC26FC151800AE8
:10295000C259D8B0AEEF14F0B0EF14F0DBEF14F0C2
:10296000BA51BE5DC26FBB51BF59C36FBC51C05994
:10297000C46FBD51C159C56FFF0EC225BA6FFF0E9E
:10298000C321BB6FFF0EC421BC6FFF0EC521BD6FFD
:10299000800EC61BC96DC951D8A4D1EF14F0D3EF76
:1029A00014F0E3EF14F0010EBA27000EBB23BC2392
:1029B000BD23E3EF14F0BE51BA5FBF51BB5BC05102
:1029C000BC5BC151BD5BBA51BB11BC11BD11D8A4D8
:1029D000ECEF14F0EEEF14F023EF15F0C951D8A48A
:1029E000F4EF14F0F6EF14F023EF15F0000EBA6FC9
:1029F000000EBB6F000EBC6F000EBD6FBEEF15F07A
:102A0000D890BA37BB37BC37BD37C9AF0AEF15F01E
:102A10000CEF15F00DEF15F0BA81C9A112EF15F00A
:102A200014EF15F018EF15F0D880C9371AEF15F02C
:102A3000D890C937C851D8B420EF15F022EF15F05F
:102A400023EF15F0C807BCAF28EF15F02AEF15F0FB
:102A500000EF15F0000EC76FC9AF31EF15F033EF7F
:102A600015F04BEF15F0C9C5C2F57F0EC217D8B4EB
:102A70003CEF15F03EEF15F042EF15F0010EC76F79
:102A80004BEF15F0BAA147EF15F049EF15F04BEFFA
:102A900015F03EEF15F0C751D8B451EF15F053EFD4
:102AA00015F07EEF15F0010EBA27000EBB23BC23F4
:102AB000BD23BDA15EEF15F060EF15F07EEF15F0C0
:102AC000BAC5C2F5BBC5C3F5BCC5C4F5BDC5C5F522
:102AD000C535C533C433C333C233C2C5BAF5C3C564
:102AE000BBF5C4C5BCF5C5C5BDF5C829D8B47BEFD9
:102AF00015F07DEF15F07EEF15F0C82BC829D8B47E
:102B000084EF15F086EF15F08EEF15F0C851D8A4BC
:102B10008CEF15F08EEF15F0A0EF15F0000EBA6FE8
:102B2000000EBB6F000EBC6F000EBD6FC851D8A465
:102B30009CEF15F09EEF15F0A0EF15F0000EC66F9C
:102B4000C8A1A5EF15F0A7EF15F0AAEF15F0BC8FFF
:102B5000ABEF15F0BC9FD890C831BD6FC6AFB3EFD7
:102B600015F0B5EF15F0B6EF15F0BD8FBAC5BAF593
:102B7000BBC5BBF5BCC5BCF5BDC5BDF5120031502C
:102B8000800B3A6E315031243C6E30AECAEF15F0F6
:102B9000CCEF15F0CDEF15F03C803C50D8B4D3EF1E
:102BA00015F0D5EF15F0EAEF15F03C28D8A4DBEFCF
:102BB00015F0DDEF15F0E5EF15F0000E2E6E000EAE
:102BC0002F6E000E306E000E316E308E000E316EA4
:102BD000F2EF15F0000E2E6E000E2F6E000E306E0E
:102BE000000E316E3550800B3B6E3A503B18D8B416
:102BF000FCEF15F0FEEF15F0FFEF15F03A8C3550B5
:102C000035243B6E34AE07EF16F009EF16F00AEFED
:102C100016F03B803B50D8B410EF16F012EF16F0D0
:102C200027EF16F03B28D8A418EF16F01AEF16F08D
:102C300022EF16F0000E326E000E336E000E346E70
:102C4000000E356E348E000E356E2FEF16F0000E2E
:102C5000326E000E336E000E346E000E356E3C5038
:102C60003B5CD8B036EF16F038EF16F05FEF16F099
:102C70003AAC3DEF16F03FEF16F041EF16F0800E44
:102C80003A1A3CC53DF53BC53CF53DC53BF52EC567
:102C90003DF532C52EF53DC532F52FC53DF533C5A1
:102CA0002FF53DC533F530C53DF534C530F53DC58F
:102CB00034F531C53DF535C531F53DC535F5000E69
:102CC0003D6E3C503BC536F5376A365E000E375ACE
:102CD00037BE74EF16F0375009E11A0E365CD8A0F3
:102CE00074EF16F076EF16F0ADEF16F02E502F10B1
:102CF00030103110D8A47FEF16F082EF16F0010EDD
:102D000083EF16F0000E3D6E000E2E6E000E2F6E3D
:102D1000000E306E000E316E3BC53CF5B6EF16F07E
:102D20003DA095EF16F097EF16F09DEF16F0D890B6
:102D30003D3001093D6E9FEF16F0D8903D322EA038
:102D4000A4EF16F0A6EF16F0A7EF16F03D8E313483
:102D5000313230322F322E323C2A3B503C5CD8A0EC
:102D6000B4EF16F0B6EF16F090EF16F03ABCBBEFEA
:102D700016F0BDEF16F0FDEF16F03C50D8A4C3EFEF
:102D800016F0C5EF16F0CFEF16F0000E2E6E000E07
:102D90002F6E000E306E000E316E1EEF18F03250A6
:102DA0002E2633502F22345030223550312231A07C
:102DB000DCEF16F0DEEF16F08AEF17F03DA0E3EF40
:102DC00016F0E5EF16F0EBEF16F0D8903D30010964
:102DD0003D6EEDEF16F0D8903D322EA0F2EF16F0DA
:102DE000F4EF16F0F5EF16F03D8E3134313230321B
:102DF0002F322E323C2A8AEF17F032502E5C33509D
:102E00002F58345030583150800A366E3550800A71
:102E10003658D8B00EEF17F010EF17F03BEF17F061
:102E20002E50325C366E2F503358376E3050345837
:102E3000386E31503558396EFF0E36242E6EFF0E27
:102E400037202F6EFF0E3820306EFF0E3920316E86
:102E5000800E3A1A3D6C3D50D8A431EF17F033EF95
:102E600017F043EF17F0010E2E26000E2F2230220E
:102E7000312243EF17F032502E5E33502F5A345028
:102E8000305A3550315A2E502F1030103110D8A4EE
:102E90004CEF17F04EEF17F083EF17F03D50D8A42A
:102EA00054EF17F056EF17F083EF17F0000E2E6E69
:102EB000000E2F6E000E306E000E316E1EEF18F0F9
:102EC000D8902E362F36303631363DAE6AEF17F0B9
:102ED0006CEF17F06DEF17F02E803DA072EF17F03A
:102EE00074EF17F078EF17F0D8803D367AEF17F0CF
:102EF000D8903D363C50D8B480EF17F082EF17F0F1
:102F000083EF17F03C0630AE88EF17F08AEF17F02A
:102F100060EF17F0000E3B6E3DAE91EF17F093EFB0
:102F200017F0ABEF17F03DC536F57F0E3616D8B467
:102F30009CEF17F09EEF17F0A2EF17F0010E3B6E1B
:102F4000ABEF17F02EA0A7EF17F0A9EF17F0ABEF3C
:102F500017F09EEF17F03B50D8B4B1EF17F0B3EF76
:102F600017F0DEEF17F0010E2E26000E2F22302272
:102F7000312231A0BEEF17F0C0EF17F0DEEF17F0EF
:102F80002EC536F52FC537F530C538F531C539F5BD
:102F90003934393238323732363236C52EF537C504
:102FA0002FF538C530F539C531F53C28D8B4DBEFFD
:102FB00017F0DDEF17F0DEEF17F03C2A3C28D8B40D
:102FC000E4EF17F0E6EF17F0EEEF17F03C50D8A45F
:102FD000ECEF17F0EEEF17F000EF18F0000E2E6E8A
:102FE000000E2F6E000E306E000E316E3C50D8A4D5
:102FF000FCEF17F0FEEF17F000EF18F0000E3A6E3E
:103000003CA005EF18F007EF18F00AEF18F0308E2B
:103010000BEF18F0309ED8903C30316E3AAE13EF83
:1030200018F015EF18F016EF18F0318E2EC52EF5AA
:103030002FC52FF530C530F531C531F5120005012A
:10304000A451800BAD6FA451A425B36FA3AF2BEF98
:1030500018F02DEF18F02EEF18F0B381B351D8B45B
:1030600034EF18F036EF18F049EF18F0B329D8A470
:103070003CEF18F03EEF18F046EF18F0000EA16F8D
:10308000000EA26F000EA36F000EA46FA38F51EF6E
:1030900018F0000EA16F000EA26F000EA36F000EBD
:1030A000A46FA851800BAD1BA851A825AE6FA7AF88
:1030B0005CEF18F05EEF18F05FEF18F0AE81AE51E4
:1030C000D8B465EF18F067EF18F07AEF18F0AE2972
:1030D000D8A46DEF18F06FEF18F077EF18F0000E2E
:1030E000A56F000EA66F000EA76F000EA86FA78F2A
:1030F00082EF18F0000EA56F000EA66F000EA76FEE
:10310000000EA86FAE51D8B488EF18F08AEF18F00F
:1031100092EF18F0B351D8A490EF18F092EF18F096
:103120009CEF18F0000EA16F000EA26F000EA36FAF
:10313000000EA46F46EF1AF0A751A1036100CCF373
:10314000B8F56100D0F3B9F5B851AF6FB06BB16BA2
:10315000B26BB951B46FB56BB66BB76BA651A20326
:103160006100CCF3B8F56100D0F3B9F5B851AF27E1
:10317000000EB023B123B223B951B427000EB523FA
:10318000B623B723A551A3036100CCF3B8F56100C2
:10319000D0F3B9F5B851AF27000EB023B123B22355
:1031A000B951B427000EB523B623B723B1C5B2F584
:1031B000B0C5B1F5AFC5B0F5AF6BA551A2036100C5
:1031C000CCF3B8F56100D0F3B9F5B851AF27B951D8
:1031D000B023000EB123000EB223A651A10361005B
:1031E000CCF3B8F56100D0F3B9F5B851AF27B951B8
:1031F000B023000EB123000EB223B1C5B2F5B0C5A5
:10320000B1F5AFC5B0F5AF6BA551A1036100CCF32B
:10321000B8F56100D0F3B9F5B851AF27B951B02373
:10322000000EB123000EB223A751A2036100CCF31C
:10323000B8F56100D0F3B9F5B851B427B951B52349
:10324000000EB623000EB723A651A3036100CCF3F2
:10325000B8F56100D0F3B9F5B851B427B951B52329
:10326000000EB623000EB723A751A3036100CCF3D1
:10327000B8F56100D0F3B9F5B851A96FB951AA6F8B
:10328000AB6BAC6BABC5ACF5AAC5ABF5A9C5AAF5E4
:10329000A96BA951B427AA51B523AB51B623AC51A0
:1032A000B723AFC5A9F5B0C5AAF5B1C5ABF5B2C591
:1032B000ACF5190E61EF19F0D890AC33AB33AA33EB
:1032C000A933E82E5CEF19F0A951B427AA51B52310
:1032D000AB51B623AC51B723B1C5B2F5B0C5B1F50A
:1032E000AFC5B0F5AF6BAE51B3C5A9F5AA6BA927B1
:1032F000000EAA23820EA925B86FFF0EAA21B96F6E
:1033000097EF19F0D890B437B537B637B737B2AFB3
:103310008CEF19F08EEF19F08FEF19F0B481D8907F
:10332000AF37B037B137B237B807D8A0B907B6AFA3
:103330009CEF19F09EEF19F082EF19F0000EAE6FBE
:10334000B2AFA5EF19F0A7EF19F0CBEF19F0FF0E10
:10335000AF15A96FFF0EB015AA6FFF0EB115AB6FB9
:103360007F0EB215AC6FA951AA11AB11AC11D8B434
:10337000BCEF19F0BEEF19F0C2EF19F0010EAE6FFD
:10338000CBEF19F0B4A1C7EF19F0C9EF19F0CBEFEB
:1033900019F0BEEF19F0AE51D8B4D1EF19F0D3EF58
:1033A00019F0F7EF19F0010EB427000EB523B6237C
:1033B000B723B7A1DEEF19F0E0EF19F0F7EF19F03E
:1033C000B4C5A9F5B5C5AAF5B6C5ABF5B7C5ACF595
:1033D000AC35AC33AB33AA33A933A9C5B4F5AAC510
:1033E000B5F5ABC5B6F5ACC5B7F5B84BB92BB9BF9C
:1033F00002EF1AF0B95108E1B829D8A002EF1AF08B
:1034000004EF1AF00EEF1AF0000EB46F000EB56F55
:10341000800EB66F7F0EB76F3CEF1AF0B9BF1BEF8F
:103420001AF0B95106E1B805D8B019EF1AF01BEF40
:103430001AF027EF1AF0000EB46F000EB56F000EF1
:10344000B66F000EB76F000EAD6F3CEF1AF0B8C547
:10345000B3F5FF0EB417FF0EB5177F0EB617000EAB
:10346000B717B3A136EF1AF038EF1AF039EF1AF0A8
:10347000B68FD890B331B76FAD51B713B4C5A1F5BE
:10348000B5C5A2F5B6C5A3F5B7C5A4F51200185089
:10349000800B216E18501824276E17AE52EF1AF0C9
:1034A00054EF1AF055EF1AF027802750D8B45BEF8D
:1034B0001AF05DEF1AF070EF1AF02728D8A463EF26
:1034C0001AF065EF1AF06DEF1AF0000E156E000E8F
:1034D000166E000E176E000E186E178E78EF1AF02B
:1034E000000E156E000E166E000E176E000E186E92
:1034F0001C50800B211A1C501C24266E1BAE83EF1F
:103500001AF085EF1AF086EF1AF026802650D8B40C
:103510008CEF1AF08EEF1AF0A1EF1AF02628D8A43B
:1035200094EF1AF096EF1AF09EEF1AF0000E196E53
:10353000000E1A6E000E1B6E000E1C6E1B8EA9EF85
:103540001AF0000E196E000E1A6E000E1B6E000EA1
:103550001C6E2650D8B4AFEF1AF0B1EF1AF0B9EFE5
:103560001AF02750D8A4B7EF1AF0B9EF1AF0C3EF4A
:103570001AF0000E156E000E166E000E176E000E7D
:10358000186E6DEF1CF01B5015026100CCF32CF58A
:103590006100D0F32DF52C50226E236A246A256A2F
:1035A0002D50286E296A2A6A2B6A1A501602610069
:1035B000CCF32CF56100D0F32DF52C502226000E13
:1035C0002322242225222D502826000E29222A22B9
:1035D0002B22195017026100CCF32CF56100D0F3B7
:1035E0002DF52C502226000E2322242225222D5098
:1035F0002826000E29222A222B2224C525F523C5A0
:1036000024F522C523F5226A195016026100CCF375
:103610002CF56100D0F32DF52C5022262D502322BD
:10362000000E2422000E25221A5015026100CCF350
:103630002CF56100D0F32DF52C5022262D5023229D
:10364000000E2422000E252224C525F523C524F5CD
:1036500022C523F5226A195015026100CCF32CF51E
:103660006100D0F32DF52C5022262D502322000E80
:103670002422000E25221B5016026100CCF32CF5EB
:103680006100D0F32DF52C5028262D502922000E54
:103690002A22000E2B221A5017026100CCF32CF5BF
:1036A0006100D0F32DF52C5028262D502922000E34
:1036B0002A22000E2B221B5017026100CCF32CF59E
:1036C0006100D0F32DF52C501D6E2D501E6E1F6A1B
:1036D000206A1FC520F51EC51FF51DC51EF51D6AF4
:1036E0001D5028261E5029221F502A2220502B22EE
:1036F00022C51DF523C51EF524C51FF525C520F5DA
:10370000190E88EF1BF0D89020321F321E321D3266
:10371000E82E83EF1BF01D5028261E5029221F5033
:103720002A2220502B2224C525F523C524F522C5A5
:1037300023F5226A265027C51DF51E6A1D26000E98
:103740001E22820E1D242C6EFF0E1E202D6EBEEF3B
:103750001BF0D890283629362A362B3625AEB3EF03
:103760001BF0B5EF1BF0B6EF1BF02880D890223687
:103770002336243625362C06D8A02D062AAEC3EFD4
:103780001BF0C5EF1BF0A9EF1BF0000E266E25AE57
:10379000CCEF1BF0CEEF1BF0F2EF1BF0FF0E22146C
:1037A0001D6EFF0E23141E6EFF0E24141F6E7F0E5F
:1037B0002514206E1D501E101F102010D8B4E3EFEA
:1037C0001BF0E5EF1BF0E9EF1BF0010E266EF2EFA8
:1037D0001BF028A0EEEF1BF0F0EF1BF0F2EF1BF058
:1037E000E5EF1BF02650D8B4F8EF1BF0FAEF1BF012
:1037F0001EEF1CF0010E2826000E29222A222B2261
:103800002BA005EF1CF007EF1CF01EEF1CF028C5E5
:103810001DF529C51EF52AC51FF52BC520F5203439
:1038200020321F321E321D321DC528F51EC529F556
:103830001FC52AF520C52BF52C4A2D2A2DBE29EFB0
:103840001CF02D5008E12C28D8A029EF1CF02BEFFC
:103850001CF035EF1CF0000E286E000E296E800E55
:103860002A6E7F0E2B6E63EF1CF02DBE42EF1CF014
:103870002D5006E12C04D8B040EF1CF042EF1CF0B4
:103880004EEF1CF0000E286E000E296E000E2A6E00
:10389000000E2B6E000E216E63EF1CF02CC527F579
:1038A000FF0E2816FF0E29167F0E2A16000E2B1665
:1038B00027A05DEF1CF05FEF1CF060EF1CF02A8E7C
:1038C000D89027302B6E21502B1228C515F529C50D
:1038D00016F52AC517F52BC518F5120000F00601DC
:1038E0003651385D37513959D8B079EF1CF07BEF3C
:1038F0001CF0C9EF1CF000F0060138510501E05D35
:103900000E6E060139510501E1590F6E0EC5DCF549
:103910000FC5DDF5DE6BDF6BDCC501F5DDC502F53E
:10392000DEC503F5DFC504F5640E056E000E066EF8
:10393000000E076E000E086EA8EC38F001C5DCF52D
:1039400002C5DDF503C5DEF504C5DFF5DCC501F50F
:10395000DDC502F5DEC503F5DFC504F50601385106
:10396000365D0E6E395137590F6E0EC505F50FC510
:1039700006F5076A086A32EC35F001C5DCF502C5C8
:10398000DDF503C5DEF504C5DFF5010E5F6E16EF4C
:103990001DF000F00501E0510601385D0E6E0501D5
:1039A000E151060139590F6E0EC5DCF50FC5DDF585
:1039B0000501DE6BDF6BDCC501F5DDC502F5DEC59B
:1039C00003F5DFC504F5640E056E000E066E000EED
:1039D000076E000E086EA8EC38F001C5DCF502C5D4
:1039E000DDF503C5DEF504C5DFF5DCC501F5DDC594
:1039F00002F5DEC503F5DFC504F506013651385D75
:103A00000E6E375139590F6E0EC505F50FC506F507
:103A1000076A086A32EC35F001C5DCF502C5DDF550
:103A200003C5DEF504C5DFF5020E5F6E06013251F7
:103A3000345D33513559D8B020EF1DF022EF1DF021
:103A40006DEF1DF03451325D0E6E355133590F6EEE
:103A50000EC5D8F50FC5D9F50501DA6BDB6B2CC6A1
:103A600001F52DC602F5036A046AD8C505F5D9C566
:103A700006F5DAC507F5DBC508F5A8EC38F001C591
:103A8000D8F502C5D9F503C5DAF504C5DBF5D8C507
:103A900001F5D9C502F5DAC503F5DBC504F5640EF9
:103AA000056E000E066E000E076E000E086E32ECFC
:103AB00035F00601345101240501D86F0601355156
:103AC00002200501D96F000E0320DA6F000E0420DA
:103AD000DB6F040E5F6EB7EF1DF000F006012E5194
:103AE000345D0E6E2F5135590F6E0EC5D8F50FC5CA
:103AF000D9F50501DA6BDB6BD8C501F5D9C502F53F
:103B0000DAC503F5DBC504F5640E056E000E066E1E
:103B1000000E076E000E086EA8EC38F001C5D8F54F
:103B200002C5D9F503C5DAF504C5DBF5D8C501F53D
:103B3000D9C502F5DAC503F5DBC504F50601325136
:103B4000345D0E6E335135590F6E0EC505F50FC538
:103B500006F5076A086A32EC35F001C5D8F502C5EA
:103B6000D9F503C5DAF504C5DBF5020E5F6E050174
:103B7000DC517F0B0601706F0501D8517F0B0601E8
:103B80006F6F70516F25016E026A0236000E046E6F
:103B9000020E036E19EC34F001500501E46F00F0E1
:103BA000140E0501E0250E6E000EE1210F6E106A65
:103BB000116ADC510E5CDD510F58DE511058DF5197
:103BC0001158D8A0E6EF1DF0E8EF1DF0FFEF1DF053
:103BD000EC0EE0250E6EFF0EE1210F6E106A116AE9
:103BE0000E50DC5D0F50DD591050DE591150DF5979
:103BF000D8B0FDEF1DF0FFEF1DF003EF1EF0060142
:103C00006E8106EF1EF0FE0E06016E13140E2E25B9
:103C10000E6E000E2F210F6E106A116A0501D85129
:103C20000E5CD9510F58DA511058DB511158D8A0F9
:103C30001CEF1EF01EEF1EF037EF1EF0EC0E06011B
:103C40002E250E6EFF0E2F210F6E106A116A0E5078
:103C50000501D85D0F50D9591050DA591150DB5970
:103C6000D8B035EF1EF037EF1EF03BEF1EF0060127
:103C70006E833EEF1EF0FD0E06016E13050E5F18FB
:103C8000D8A445EF1EF047EF1EF04AEF1EF06E85F8
:103C900063EF1EF0090E5F18D8A451EF1EF053EF2A
:103CA0001EF056EF1EF06E9563EF1EF0060E5F18C5
:103CB000D8A45DEF1EF05FEF1EF061EF1EF053EF32
:103CC0001EF047EF1EF0120005018B51800B986F1C
:103CD0008B518B259F6F8AAF70EF1EF072EF1EF035
:103CE00073EF1EF09F819F51D8B479EF1EF07BEFE8
:103CF0001EF090EF1EF09F29D8A481EF1EF083EFF5
:103D00001EF08BEF1EF0000E886F000E896F000E04
:103D10008A6F000E8B6F8A8F000E8B6F98EF1EF0EC
:103D2000000E886F000E896F000E8A6F000E8B6F79
:103D30008F51800B981B8F518F25A06F8EAFA3EFF3
:103D40001EF0A5EF1EF0A6EF1EF0A081A051D8B482
:103D5000ACEF1EF0AEEF1EF0C3EF1EF0A029D8A40A
:103D6000B4EF1EF0B6EF1EF0BEEF1EF0000E8C6F2B
:103D7000000E8D6F000E8E6F000E8F6F8E8F000EF7
:103D80008F6FCBEF1EF0000E8C6F000E8D6F000E4C
:103D90008E6F000E8F6F8C518D118E118F11D8A4E4
:103DA000D4EF1EF0D6EF1EF0EEEF1EF0000E886F7F
:103DB000000E896F000E8A6F000E8B6F800E8A13C3
:103DC0007F0E8B1398518B1388C588F589C589F5AB
:103DD0008AC58AF58BC58BF531EF20F09F51D8A4A9
:103DE000F4EF1EF0F6EF1EF000EF1FF0000E886FEC
:103DF000000E896F000E8A6F000E8B6F31EF20F07E
:103E0000A0519FC590F5916B905F000E915B7F0E66
:103E10009025996F000E91219A6F88C594F589C5F8
:103E200095F58AC596F58BC597F5000E886F000E3F
:103E3000896F000E8A6F000E8B6F000E9B6F000E55
:103E40009C6F000E9D6F000E9E6F000EA06F61EFC5
:103E50001FF0A051D8B42FEF1FF031EF1FF048EF43
:103E60001FF0D8909437953796379737D890883782
:103E700089378A378B379EAF40EF1FF042EF1FF034
:103E800043EF1FF08881D8909B379C379D379E3732
:103E90008C51945D8D5195598E5196598F519759EA
:103EA000D8A055EF1FF057EF1FF060EF1FF09E8D69
:103EB0008C51945F8D51955B8E51965B8F51975BC2
:103EC000A02B190EA06567EF1FF069EF1FF029EF17
:103ED0001FF09451951196119711D8B472EF1FF0FD
:103EE00074EF1FF08CEF1FF09B818CEF1FF0D890C8
:103EF000883789378A378B379EAF81EF1FF083EF82
:103F00001FF084EF1FF08881D8909B379C379D3736
:103F10009E379907D8A09A078AAF91EF1FF093EFC9
:103F20001FF077EF1FF0000EA06F9EAF9AEF1FF00B
:103F30009CEF1FF0C0EF1FF0FF0E9B15906FFF0E60
:103F40009C15916FFF0E9D15926F7F0E9E15936FBE
:103F50009051911192119311D8B4B1EF1FF0B3EFBA
:103F60001FF0B7EF1FF0010EA06FC0EF1FF088A188
:103F7000BCEF1FF0BEEF1FF0C0EF1FF0B3EF1FF05C
:103F8000A051D8B4C6EF1FF0C8EF1FF0ECEF1FF040
:103F9000010E8827000E89238A238B238BA1D3EF60
:103FA0001FF0D5EF1FF0ECEF1FF088C590F589C525
:103FB00091F58AC592F58BC593F59335933392337A
:103FC0009133903390C588F591C589F592C58AF5EE
:103FD00093C58BF5994B9A2B9ABFF7EF1FF09A5127
:103FE00008E19929D8A0F7EF1FF0F9EF1FF004EFCF
:103FF00020F0000E9A6F9969000E886F000E896F8D
:10400000000E8A6F000E8B6F9ABF11EF20F09A514D
:1040100006E19905D8B00FEF20F011EF20F01FEF67
:1040200020F0000E9A6F000E996F000E886F000E40
:10403000896F000E8A6F000E8B6F000E986F99C506
:104040009FF59FA126EF20F028EF20F02BEF20F026
:104050008A8F2CEF20F08A9FD8909F318B6FE2EFF0
:104060001EF0120000F006013E51405D3F514159E3
:10407000D8B03DEF20F03FEF20F088EF20F000F0C7
:10408000060140514A5D0E6E41514B590F6E0EC5EF
:1040900028F60FC529F62A6B2B6B28C601F529C611
:1040A00002F52AC603F52BC604F5640E056E000E54
:1040B000066E000E076E000E086EA8EC38F001C503
:1040C00028F602C529F603C52AF604C52BF628C62C
:1040D00001F529C602F52AC603F52BC604F506012B
:1040E00040513E5D0E6E41513F590F6E0EC505F5B4
:1040F0000FC506F5076A086A32EC35F001C528F6E7
:1041000002C529F603C52AF604C52BF6CDEF20F02B
:104110004A51405D0E6E4B5141590F6E0EC528F647
:104120000FC529F62A6B2B6B28C601F529C602F5A7
:104130002AC603F52BC604F5640E056E000E066E46
:10414000000E076E000E086EA8EC38F001C528F6C8
:1041500002C529F603C52AF604C52BF628C601F5C3
:1041600029C602F52AC603F52BC604F506013E5101
:10417000405D0E6E3F5141590F6E0EC505F50FC5DE
:1041800006F5076A086A32EC35F001C528F602C563
:1041900029F603C52AF604C52BF606013A513C5D03
:1041A0003B513D59D8B0D7EF20F0D9EF20F022EFA6
:1041B00021F000F006013C51305D0E6E3D51315949
:1041C0000F6E0EC524F60FC525F6266B276B24C689
:1041D00001F525C602F526C603F527C604F5640ECB
:1041E000056E000E066E000E076E000E086EA8EC3F
:1041F00038F001C524F602C525F603C526F604C528
:1042000027F624C601F525C602F526C603F527C6FE
:1042100004F506013C513A5D0E6E3D513B590F6E5F
:104220000EC505F50FC506F5076A086A32EC35F0CC
:1042300001C524F602C525F603C526F604C527F6F2
:1042400069EF21F000F0060130513C5D0E6E3151F6
:104250003D590F6E0EC524F60FC525F6266B276B4C
:1042600024C601F525C602F526C603F527C604F5C2
:10427000640E056E000E066E000E076E000E086ED0
:10428000A8EC38F001C524F602C525F603C526F6CC
:1042900004C527F624C601F525C602F526C603F592
:1042A00027C604F506013A513C5D0E6E3B513D595F
:1042B0000F6E0EC505F50FC506F5076A086A32ECE4
:1042C00035F001C524F602C525F603C526F604C55A
:1042D00027F6060128517F0B726F24517F0B716FF7
:1042E00072517125016E026A0236000E046E020ED2
:1042F000036E19EC34F0015006018E6F00F01200CD
:1043000052EC33F00009D8B488EF21F08AEF21F0A5
:10431000A8EF22F0A20E216E060E226E38EC39F0C4
:10432000E806D8A496EF21F098EF21F0A8EF22F04C
:1043300000F0A2C664F5A3C665F5A4C666F5A5C6D9
:1043400067F561009CFAD9F46100A0FADAF4DF5055
:1043500005016F6F060120EE01F0A751D926A85183
:10436000DA22DF5005016E6F060120EE02F0A75140
:10437000D926A851DA22DF5005016B6F060120EE25
:1043800003F0A751D926A851DA22DF5005016C6F3E
:10439000060120EE04F0A751D926A851DA22DF50F9
:1043A00005016D6F060120EE05F0A751D926A85131
:1043B000DA22DF500501686F060120EE06F0A751F2
:1043C000D926A851DA22DF500501696F060120EED7
:1043D00007F0A751D926A851DA22DF5005016A6FEC
:1043E00062EF22F06FC58CF66EC58BF66BC58AF650
:1043F0006CC589F66DC588F6E805D8A402EF22F0F1
:1044000004EF22F0A8EF22F0010E526E06018B514C
:1044100071EC36F0010E546E06018C5123EC27F03E
:10442000010E06018D6FA8EF22F06F51070B0601F8
:10443000876F05016F51180B0601866F05016F51DB
:10444000E00B0601856F05016E51010B0601846FBB
:1044500005016E51060B0601836F05016E51780B45
:104460000601826FA8EF22F06FC580F66EC57FF659
:104470006BC57EF66CC57DF66DC57CF668C57BF6B2
:1044800069C57AF66AC579F6A8EF22F06FC5E8F536
:10449000E851D3EC39F0A8EF22F06FC576F6E85179
:1044A000D8A455EF22F057EF22F0A8EF22F0000E2B
:1044B000526E0601765171EC36F0A8EF22F000F052
:1044C000A8EF22F064C560F565C561F566C562F5C3
:1044D00067C563F56351000AD8B4A1EF22F05FEF1E
:1044E00022F06151030AD8B480EF22F0070AD8B451
:1044F0008BEF22F0010AD8B492EF22F05FEF22F0A6
:104500006051200AD8B4F2EF21F0670AD8B446EF20
:1045100022F05FEF22F06051120AD8B44DEF22F082
:104520005FEF22F06051000AD8B415EF22F0010AC3
:10453000D8B434EF22F0030AD8B4A8EF22F05FEF2A
:1045400022F06251000AD8B471EF22F05FEF22F03E
:1045500012000601D56F000E0601D66F000ED96F4E
:10456000000ED86F00F00501E705D8A4BAEF22F0DD
:10457000BCEF22F0C2EF23F0E4510601D55D050146
:10458000E96FE9510601D6275E500501E95D060194
:10459000D76FCD0E0501A56FCC0EA66FCC0EA76F01
:1045A0003D0EA86F0601D65105017A6F000E7ABF45
:1045B000FF0E7B6F7C6F7D6F010E34EC28F07AC5A7
:1045C000A1F57BC5A2F57CC5A3F57DC5A4F51FECBF
:1045D00018F0A1C5BEF5A2C5BFF5A3C5C0F5A4C519
:1045E000C1F5660E0501A56F660EA66F660EA76F74
:1045F0003F0EA86FE9517A6F000E7ABFFF0E7B6FF6
:104600007C6F7D6F010E34EC28F07AC5A1F57BC577
:10461000A2F57CC5A3F57DC5A4F51FEC18F0A1C5D6
:10462000BAF5A2C5BBF5A3C5BCF5A4C5BDF55EEC46
:1046300013F0BAC5D1F6BBC5D2F6BCC5D3F6BDC51D
:10464000D4F6000E0501776F000E766F0601D75184
:104650000501746F756B74BF75074CEC3BF0050179
:1046600074C57AF575C57BF5000E7BBFFF0E7C6FB8
:104670007D6F010E34EC28F07AC5BEF57BC5BFF521
:104680007CC5C0F57DC5C1F5D1C6BAF5D2C6BBF5AE
:10469000D3C6BCF5D4C6BDF55EEC13F0BAC5CAF5F9
:1046A000BBC5CBF5BCC5CCF5BDC5CDF55BEC2DF0E0
:1046B000CAC5D8F6CBC5D9F600F00601D851D91134
:1046C000D8A465EF23F067EF23F06DEF23F0000E21
:1046D000D96F000ED86F94EF23F0D851D911D8B408
:1046E00074EF23F076EF23F083EF23F0D95107E145
:1046F000640ED85DD8B07FEF23F081EF23F083EF15
:1047000023F094EF23F0D95109E1650ED85DD8A0CC
:104710008CEF23F08EEF23F094EF23F0000ED96F8F
:10472000640ED86F94EF23F00501E8510601D0190B
:10473000D8A49DEF23F09FEF23F0BEEF23F00501F7
:10474000E805D8A4A6EF23F0A8EF23F0B0EF23F0FC
:10475000010E0601CE6FD851DCEC34F0BEEF23F031
:10476000E851D8A4B6EF23F0B8EF23F0BEEF23F062
:10477000000E0601CE6FD851DCEC34F0E9C55EF5D1
:10478000CCEF23F0000ED56F000ED46F020ED76F62
:10479000580ED66FDEEC2EF01200610038F4D9F41A
:1047A00061003CF4DAF4610078F313F5610078F30A
:1047B00014F5610078F315F5610078F316F520EE35
:1047C00004F00E50D9260F50DA22DFA0EAEF23F0D2
:1047D000ECEF23F026EF24F020EE01F00C50D92668
:1047E0000D50DA221338E842F80BF80BDF6E050E95
:1047F000106ED8901632153214321332102EF9EF93
:1048000023F020EE02F00C50D9260D50DA22610080
:104810004CF4DFF414C513F515C514F516C515F5DC
:10482000166A20EE03F00C50D9260D50DA221350F0
:104830001F0BDF6E050E106ED89016321532143233
:104840001332102E1CEF24F03EEF24F020EE03F084
:104850000C50D9260D50DA22000EDF6E10EE02F059
:104860000C50E1260D50E222DFC4E7F420EE01F007
:104870000C50D9260D50DA22E7C4DFF4610030F481
:10488000D9F4610034F4DAF461004CF4DFF414C5B7
:1048900013F515C514F516C515F5166A13C510F5EB
:1048A000070E101620EE01F00C50D9260D50DA221A
:1048B0001050DF1220EE04F00E50D9260F50DA22ED
:1048C000DF30E8320F0B126E20EE04F00E50D926C6
:1048D0000F50DA22DFB06FEF24F073EF24F0106A8C
:1048E000102A74EF24F0106A1038F00B121220EE28
:1048F00004F00E50D9260F50DA22DFB282EF24F0F6
:1049000086EF24F0200E106E87EF24F0106A10500E
:10491000121220EE04F00E50D9260F50DA22DFBE1C
:1049200094EF24F098EF24F0400E106E99EF24F0ED
:10493000106A1050121220EE04F00E50D9260F50BB
:10494000DA22DFBCA6EF24F0AAEF24F0800E106E6E
:10495000ABEF24F0106A1050121220EE04F00C504D
:10496000D9260D50DA22610048F4DFF420EE04F07D
:104970000E50D9260F50DA22DFB2C1EF24F0C3EF78
:1049800024F0EFEF24F0080E0C24016E000E0D2031
:10499000026E20EE05F00E50D9260F50DA2261008B
:1049A00078F303F5610074F304F520EE04F00E5083
:1049B000D9260F50DA22DF30E8320F0B106E116A61
:1049C000270E1024F66E260E1120F76EF86A000EE0
:1049D000F8220800F550056E066A0BEC39F012005B
:1049E00020EE04F00C50D9260D50DA22DF50166E5E
:1049F00016C510F520EE04F00E50D9260F50DA221D
:104A000010461046DF501018C30B1018DF6E16B892
:104A10000CEF25F010EF25F0106A102A11EF25F0A9
:104A2000106A20EE04F00E50D9260F50DA22DF5023
:104A30001018FE0B1018DF6E16BA21EF25F025EFC7
:104A400025F0106A102A26EF25F0106A20EE04F0F7
:104A50000E50D9260F50DA221046DF501018FD0BE9
:104A60001018DF6E16BC37EF25F03BEF25F0106A0B
:104A7000102A3CEF25F0106A20EE04F00E50D926E3
:104A80000F50DA2210321032DF5010187F0B10183E
:104A9000DF6E16BE4EEF25F052EF25F0106A102A99
:104AA00053EF25F0106A20EE04F00E50D9260F5077
:104AB000DA22103A10461046DF501018BF0B1018BB
:104AC000DF6E20EE01F00C50D9260D50DA22DF50B7
:104AD000106E070E10161050126E136A146A156AC3
:104AE00014C515F513C514F512C513F5126A610046
:104AF00030F4D9F4610034F4DAF4DF50106E105061
:104B0000121220EE04F00E50D9260F50DA22DFA048
:104B10008CEF25F08EEF25F0CFEF25F0050ED89025
:104B20001236133614361536E82E8FEF25F020EEA8
:104B300003F00C50D9260D50DA22DF50106E1F0EF4
:104B400010161050121214C515F513C514F512C520
:104B500013F5126A20EE02F00C50D9260D50DA221D
:104B6000DF50106E10501212050ED8901236133608
:104B700014361536E82EB5EF25F020EE01F00C5076
:104B8000D9260D50DA22DF50106ED8901032D8900E
:104B90001032D89010321F0E1016105012126100F1
:104BA00038F4D9F461003CF4DAF4610048F4DEF43E
:104BB00061004CF4DEF4610050F4DEF4610054F462
:104BC000DEF4920E016E060E026E080E0C24036EC9
:104BD000000E0D20046E20EE04F00E50D9260F506A
:104BE000DA22DF30E8320F0B106E116A270E102424
:104BF000F66E260E1120F76EF86A000EF8220800F5
:104C0000F550056E066A0BEC39F020EE05F00E50FB
:104C1000D9260F50DA22920EDE6E060EDD6E1200DD
:104C2000020E0301F96F3F0EFA6F000ED86F000EEF
:104C3000FB6F000ED96F000EDA6F000EDB6F000EF7
:104C4000DC6F000EDF6F000EE06F000EE36F000EF2
:104C5000E46F000EE56F000EE66F000EE76F000ECA
:104C6000EA6F000EEB6F100EEC6FE80EEE6F030EA6
:104C7000EF6F000EF06F000EF16F000EF26F000E7E
:104C8000F36F000EF46F100EF56F000EF66F000E4E
:104C9000F76F000EF86F000EFC6F010EFB6F000E39
:104CA000D96F000EDA6F000EDB6F000EDC6F000EA6
:104CB000DF6F000EE06F000EE36F000EE46F000E7A
:104CC000E56F000EE66F000EE76F000EEA6F000E54
:104CD000EB6F040EEC6FE80EEE6F030EEF6F000E3D
:104CE000F06F000EF16F000EF26F000EF36F000E0A
:104CF000F46F100EF56F000EF66F000EF76F000EDA
:104D0000F86F000EFD6F020EFB6F000ED96F000EE4
:104D1000DA6F000EDB6F000EDC6F000EDF6F000E2F
:104D2000E06F000EE36F000EE46F000EE56F000E03
:104D3000E66F000EE76F000EEA6F000EEB6F120ECB
:104D4000EC6FE80EEE6F030EEF6F000EF06F000ECB
:104D5000F16F000EF26F000EF36F000EF46F100E85
:104D6000F56F000EF66F000EF76F000EF86F000E75
:104D7000FE6F030EFB6F000ED96F000EDA6F000E90
:104D8000DB6F000EDC6F000EDF6F000EE06F000EB9
:104D9000E36F000EE46F000EE56F000EE66F000E8D
:104DA000E76F000EEA6F000EEB6F110EEC6FE80E6E
:104DB000EE6F030EEF6F000EF06F000EF16F000E3E
:104DC000F26F000EF36F000EF46F100EF56F000E11
:104DD000F66F000EF76F000EF86F000EFF6FAF94C6
:104DE000AF96B090B092B094B096000E0501746F7B
:104DF000000E756F50EC3DF0000E0501746F000E53
:104E0000756F46EC3DF0000E0501746F000E756F76
:104E100041EC3DF0000E0501746F000E756F3CEC27
:104E20003DF0000E0501746F000E756F37EC3DF01C
:104E3000000E0501746F000E756F4BEC3DF0840E93
:104E40000301F36F1200596E000E5A6E000E5D6E74
:104E5000000E5C6E00F00501E705D8A432EF27F0E4
:104E600034EF27F029EF28F0E451595CE96FE9515C
:104E70005A265E50E95D5B6ECD0E196ECC0E1A6E31
:104E8000CC0E1B6E3D0E1C6E5A50076E000E07BEF8
:104E9000FF0E086E096E0A6E010E10EC29F007C5B0
:104EA00015F508C516F509C517F50AC518F547EC37
:104EB0001AF015C532F516C533F517C534F518C502
:104EC00035F5660E196E660E1A6E660E1B6E3F0E77
:104ED0001C6E0501E951076E000E07BEFF0E086E3D
:104EE000096E0A6E010E10EC29F007C515F508C50C
:104EF00016F509C517F50AC518F547EC1AF015C5DA
:104F00002EF516C52FF517C530F518C531F5BFECD0
:104F100015F02EC555F52FC556F530C557F531C5D9
:104F200058F5000E046E000E036E5B50016E026AAF
:104F300001BE02068DEC3BF001C507F502C508F580
:104F4000000E08BEFF0E096E0A6E010E10EC29F06D
:104F500007C532F508C533F509C534F50AC535F579
:104F600055C52EF556C52FF557C530F558C531F541
:104F7000BFEC15F02EC53EF52FC53FF530C540F509
:104F800031C541F5DFEC2DF03EC55CF53FC55DF563
:104F900000F05C505D10D8A4D0EF27F0D2EF27F0DE
:104FA000D8EF27F0000E5D6E000E5C6EFFEF27F06D
:104FB0005C505D10D8B4DFEF27F0E1EF27F0EEEFA3
:104FC00027F05D5007E1640E5C5CD8B0EAEF27F093
:104FD000ECEF27F0EEEF27F0FFEF27F05D5009E14F
:104FE000650E5C5CD8A0F7EF27F0F9EF27F0FFEF34
:104FF00027F0000E5D6E640E5C6EFFEF27F005017A
:10500000E8515418D8A407EF28F009EF28F025EF4D
:1050100028F0E805D8A40FEF28F011EF28F018EFDA
:1050200028F0010E526E5C50D5EC35F025EF28F0DB
:10503000E851D8A41EEF28F020EF28F025EF28F043
:10504000000E526E5C50D5EC35F0E9C55EF533EFDD
:1050500028F0000E496E000E486E020E4B6E580E80
:105060004A6ED2EC2FF012000501826F05018251C9
:10507000D8B43DEF28F03FEF28F061EF28F07DBF76
:1050800046EF28F044EF28F061EF28F07AC57EF56E
:105090007BC57FF57CC580F57DC581F57E1F7F1FB3
:1050A000801F811F7E2B000E7F23802381237EC5DE
:1050B00084F57FC585F580C586F581C587F569EFDF
:1050C00028F07AC584F57BC585F57CC586F57DC558
:1050D00087F57A517B117C117D11D8A472EF28F0ED
:1050E00074EF28F07EEF28F0000E7A6F000E7B6FD1
:1050F000000E7C6F000E7D6F0FEF29F0960E836F10
:1051000088EF28F0832BD890873386338533843318
:10511000000E84157E6F000E85157F6F000E8615BC
:10512000806FFE0E8715816F7E517F118011811176
:10513000D8A49DEF28F09FEF28F082EF28F0ADEF84
:1051400028F0832B010E8427000E852386238723D6
:10515000D8908733863385338433000E84157E6F71
:10516000000E85157F6F000E8615806FFF0E871568
:10517000816F7E517F1180118111D8A4C2EF28F078
:10518000C4EF28F0A1EF28F0CCEF28F08307D890E7
:10519000843785378637873786BFD1EF28F0D3EF3E
:1051A00028F0DBEF28F0020E8361D9EF28F0DBEF67
:1051B00028F0C6EF28F083B1E0EF28F0E2EF28F006
:1051C000E3EF28F0869FD890833383C57EF57F6B0D
:1051D000806B816B7EC581F5806B7F6B7E6B7E51B2
:1051E00084137F5185138051861381518713825117
:1051F000D8B4FDEF28F0FFEF28F007EF29F07DBFCE
:1052000006EF29F004EF29F007EF29F0878F84C516
:105210007AF585C57BF586C57CF587C57DF51200D9
:105220000F6E0F50D8B417EF29F019EF29F03BEFAC
:1052300029F00ABE20EF29F01EEF29F03BEF29F0FC
:1052400007C50BF508C50CF509C50DF50AC50EF522
:105250000B1E0C1E0D1E0E1E0B2A000E0C220D2204
:105260000E220BC511F50CC512F50DC513F50EC5B3
:1052700014F543EF29F007C511F508C512F509C566
:1052800013F50AC514F50750081009100A10D8A420
:105290004CEF29F04EEF29F058EF29F0000E076E81
:1052A000000E086E000E096E000E0A6EE9EF29F07E
:1052B000960E106E62EF29F0102AD8901432133235
:1052C00012321132000E11140B6E000E12140C6EFD
:1052D000000E13140D6EFE0E14140E6E0B500C10F7
:1052E0000D100E10D8A477EF29F079EF29F05CEFBC
:1052F00029F087EF29F0102A010E1126000E122244
:1053000013221422D8901432133212321132000EAA
:1053100011140B6E000E12140C6E000E13140D6E91
:10532000FF0E14140E6E0B500C100D100E10D8A49E
:105330009CEF29F09EEF29F07BEF29F0A6EF29F0F2
:105340001006D890113612361336143613BEABEF52
:1053500029F0ADEF29F0B5EF29F0020E1060B3EFA0
:1053600029F0B5EF29F0A0EF29F010B0BAEF29F03D
:10537000BCEF29F0BDEF29F0139ED890103210C574
:105380000BF50C6A0D6A0E6A0BC50EF50D6A0C6AF8
:105390000B6A0B5011120C5012120D5013120E50BA
:1053A00014120F50D8B4D7EF29F0D9EF29F0E1EF5C
:1053B00029F00ABEE0EF29F0DEEF29F0E1EF29F055
:1053C000148E11C507F512C508F513C509F514C5E6
:1053D0000AF5120001011DAFF0EF29F0F2EF29F0FC
:1053E00001EF2AF002D8FFEF29F00500FA6E06015E
:1053F0006651FD6E6751FE6EFF6AFA5012000101A0
:105400001D9F1DAD06EF2AF008EF2AF017EF2AF0D6
:1054100002D815EF2AF00500FA6E06016451FD6E00
:105420006551FE6EFF6AFA50120001011D9D1DAB11
:105430001CEF2AF01EEF2AF02DEF2AF002D82BEFF6
:105440002AF00500FA6E06016251FD6E6351FE6E90
:10545000FF6AFA50120001011D9B1CA732EF2AF0CF
:1054600034EF2AF043EF2AF002D841EF2AF005008A
:10547000FA6E06016051FD6E6151FE6EFF6AFA50D0
:10548000120001011C971DA948EF2AF04AEF2AF0EB
:1054900059EF2AF002D857EF2AF00500FA6E0601FC
:1054A0005E51FD6E5F51FE6EFF6AFA5012000101FF
:1054B0001D991DA55EEF2AF060EF2AF076EF2AF025
:1054C00002D86DEF2AF00500FA6E06015C51FD6E00
:1054D0005D51FE6EFF6AFA501200010154A973EF8C
:1054E0002AF075EF2AF076EF2AF054991DA77BEF8A
:1054F0002AF07DEF2AF093EF2AF002D88AEF2AF003
:105500000500FA6E06015A51FD6E5B51FE6EFF6A90
:10551000FA501200010160A790EF2AF092EF2AF0F2
:1055200093EF2AF06097AE9C120005017D6FD8EFD3
:105530002AF05FEC3DF0000EC4EC3CF0100E14ECD1
:105540003AF074C57EF575C57FF5010E0501806FD3
:10555000F6EF2AF05FEC3DF0010EC4EC3CF0040ED7
:1055600014EC3AF074C57EF575C57FF5A5EF2AF009
:105570005FEC3DF0020EC4EC3CF0120E14EC3AF07D
:1055800074C57EF575C57FF5A5EF2AF05FEC3DF09B
:10559000030EC4EC3CF0110E14EC3AF074C57EF529
:1055A00075C57FF5A5EF2AF0020E806FF6EF2AF0A1
:1055B00005017D517B6F7C6B7C51000AD8B4E3EF11
:1055C0002AF0D4EF2AF07B51010AD8B4B8EF2AF0C0
:1055D000030AD8B4C6EF2AF0010AD8B499EF2AF02A
:1055E000070AD8B4AAEF2AF0D4EF2AF08005D8A48D
:1055F000FCEF2AF0FEEF2AF02CEF2BF07F5107E1B1
:10560000070E7E5DD8B007EF2BF009EF2BF00FEF00
:105610002BF0000E826F000E816F19EF2BF07EC50C
:1056200081F57FC582F5FB0E8125816FFF0E8221FA
:10563000826F890E815D130E8259D8A022EF2BF064
:1056400024EF2BF026EF2BF02CEF2BF081C579F512
:1056500082C57AF52CEF2BF012000A6E6EEF2BF05C
:1056600062EC3DF0000E5AEC3DF0100EA8EC3AF062
:1056700001C50BF502C50CF5010E0D6E8BEF2BF07D
:1056800062EC3DF0010E5AEC3DF0040EA8EC3AF04D
:1056900001C50BF502C50CF53CEF2BF062EC3DF0BB
:1056A000020E5AEC3DF0120EA8EC3AF001C50BF5D3
:1056B00002C50CF53CEF2BF062EC3DF0030E5AEC0A
:1056C0003DF0110EA8EC3AF001C50BF502C50CF542
:1056D0003CEF2BF0020E0D6E8BEF2BF00A50086E94
:1056E000096A0950000AD8B478EF2BF06AEF2BF062
:1056F0000850010AD8B44EEF2BF0030AD8B45CEF7F
:105700002BF0010AD8B430EF2BF0070AD8B440EFE1
:105710002BF06AEF2BF00D04D8A491EF2BF093EF50
:105720002BF0C1EF2BF00C5007E1070E0B5CD8B04B
:105730009CEF2BF09EEF2BF0A4EF2BF0000E0F6EE2
:10574000000E0E6EAEEF2BF00BC50EF50CC50FF56F
:10575000FB0E0E240E6EFF0E0F200F6E890E0E5CD8
:10576000130E0F58D8A0B7EF2BF0B9EF2BF0BBEF0B
:105770002BF0C1EF2BF00EC506F50FC507F5C1EFF5
:105780002BF01200000E0501D56F000ED46F020E33
:10579000D76F580ED66FDEEC2EF0030E0601CF6FDA
:1057A0008A0ECE6F550EE82EFED7CE2FFCD7CF2F08
:1057B000FAD700D057EC3CF0020E0601CF6F450E31
:1057C000CE6FA90EE82EFED7CE2FFCD7CF2FFAD75B
:1057D00000D000F0000E0501D56F640ED46F020EEC
:1057E000D76F580ED66FDEEC2EF0070E0601CF6F86
:1057F000580ECE6F590EE82EFED7CE2FFCD7CF2FE6
:10580000FAD700D04CEC3CF0020E0601CF6F450EEB
:10581000CE6FA90EE82EFED7CE2FFCD7CF2FFAD70A
:1058200000D000F0000E0501D56F000ED46F020EFF
:10583000D76F580ED66FDEEC2EF0000E0501D56F37
:10584000320ED46F010ED76F900ED66FDEEC2EF0B5
:10585000030E0601CF6F8A0ECE6F550EE82EFED7CF
:10586000CE2FFCD7CF2FFAD700D0000E0501D56F71
:10587000320ED46F020ED76F580ED66FDEEC2EF0BC
:10588000030E0601CF6F8A0ECE6F550EE82EFED79F
:10589000CE2FFCD7CF2FFAD700D01200000E050173
:1058A0007D6F7BBF58EF2CF056EF2CF062EF2CF0A1
:1058B0007B1F7A1F791F786D000E79237A237B2353
:1058C000010E7D6F77BF69EF2CF067EF2CF073EF5F
:1058D0002CF0771F761F751F746D000E75237623CD
:1058E0007723010E7D1B000E7E6F000E7F6F000E72
:1058F000806F000E816F785179117A117B11D8B4C5
:1059000084EF2CF086EF2CF0BCEF2CF0010E7C6FB6
:1059100090EF2CF0D890783779377A377B377C2B1B
:105920007BAF95EF2CF097EF2CF08AEF2CF0D8900E
:105930007E377F37803781377851745D795175595B
:105940007A5176597B517759D8A0A9EF2CF0ABEF5B
:105950002CF0B4EF2CF07851745F7951755B7A516B
:10596000765B7B51775B7E81D8907B337A3379335A
:1059700078337C2F97EF2CF07D51D8B4C2EF2CF008
:10598000C4EF2CF0CCEF2CF0811F801F7F1F7E6DA9
:10599000000E7F23802381237EC574F57FC575F5B6
:1059A00080C576F581C577F51200000E0A6E08BE37
:1059B000DEEF2CF0DCEF2CF0E8EF2CF0081E071ED9
:1059C000061E056C000E062207220822010E0A6E32
:1059D00004BEEFEF2CF0EDEF2CF0F9EF2CF0041EED
:1059E000031E021E016C000E022203220422010E7D
:1059F0000A1A000E0B6E000E0C6E000E0D6E000EDD
:105A00000E6E0550061007100810D8B40AEF2DF0DE
:105A10000CEF2DF042EF2DF0010E096E16EF2DF078
:105A2000D8900536063607360836092A08AE1BEF29
:105A30002DF01DEF2DF010EF2DF0D8900B360C3619
:105A40000D360E360550015C0650025807500358BB
:105A500008500458D8A02FEF2DF031EF2DF03AEF79
:105A60002DF00550015E0650025A0750035A0850A7
:105A7000045A0B80D8900832073206320532092EBC
:105A80001DEF2DF00A50D8B448EF2DF04AEF2DF05D
:105A900052EF2DF00E1E0D1E0C1E0B6C000E0C2274
:105AA0000D220E220BC501F50CC502F50DC503F53F
:105AB0000EC504F512000501CC35CD35D36FD35199
:105AC000D8A465EF2DF067EF2DF071EF2DF0000EEB
:105AD000CA6F000ECB6F000ECC6F000ECD6FDEEFE5
:105AE0002DF0CAC5CEF5CBC5CFF5CCC5D0F5CDC50B
:105AF000D1F5200E81EF2DF0D890D133D033CF33B4
:105B0000CE33E82E7CEF2DF0CE51D26FCC8FFF0E2E
:105B1000CA17FF0ECB17FF0ECC17000ECD17960E2F
:105B2000D35FD3BF98EF2DF096EF2DF0AEEF2DF0B1
:105B3000D351800A970FD8B0A0EF2DF0A2EF2DF02F
:105B4000A4EF2DF067EF2DF0D890CD33CC33CB33CD
:105B5000CA33D33FA4EF2DF0C6EF2DF01F0ED3654F
:105B6000B4EF2DF0B6EF2DF0BEEF2DF067EF2DF076
:105B7000D890CA37CB37CC37CD37D307D351D8A439
:105B8000C4EF2DF0C6EF2DF0B8EF2DF0D251D8B400
:105B9000CCEF2DF0CEEF2DF0D6EF2DF0CD1FCC1F9A
:105BA000CB1FCA6D000ECB23CC23CD23CAC5CAF5AB
:105BB000CBC5CBF5CCC5CCF5CDC5CDF51200403469
:105BC0004134476E4750D8A4E8EF2DF0EAEF2DF0AE
:105BD000F4EF2DF0000E3E6E000E3F6E000E406E94
:105BE000000E416E61EF2EF03EC542F53FC543F514
:105BF00040C544F541C545F5200E04EF2EF0D89080
:105C00004532443243324232E82EFFEF2DF042500B
:105C1000466E408EFF0E3E16FF0E3F16FF0E4016DC
:105C2000000E4116960E475E47BE1BEF2EF019EF91
:105C30002EF031EF2EF04750800A970FD8B023EFA7
:105C40002EF025EF2EF027EF2EF0EAEF2DF0D89072
:105C5000413240323F323E32473E27EF2EF049EF8D
:105C60002EF01F0E476437EF2EF039EF2EF041EF84
:105C70002EF0EAEF2DF0D8903E363F3640364136D2
:105C800047064750D8A447EF2EF049EF2EF03BEFE0
:105C90002EF04650D8B44FEF2EF051EF2EF059EFC2
:105CA0002EF0411E401E3F1E3E6C000E3F22402241
:105CB00041223EC53EF53FC53FF540C540F541C5D3
:105CC00041F51200010E0601CE6F000E84EC35F096
:105CD000B7EC33F00501E505D8A471EF2EF073EFB2
:105CE0002EF099EF2EF0010E0601CE6F1E0E84EC01
:105CF00035F0030E0601D16F8A0ED06F550EE82ED7
:105D0000FED7D02FFCD7D12FFAD700D0010E060135
:105D1000CE6F320E84EC35F0030E0601D16F8A0E81
:105D2000D06F550EE82EFED7D02FFCD7D12FFAD743
:105D300000D0B7EC33F0030E0501E519D8A4A3EFAA
:105D40002EF0A5EF2EF0CBEF2EF0010E0601CE6F58
:105D5000460E84EC35F0030E0601D16F8A0ED06F2B
:105D6000550EE82EFED7D02FFCD7D12FFAD700D072
:105D7000010E0601CE6F640E84EC35F0020E0601B2
:105D8000D16FE70ED06F000EE82EFED7D02FFCD7D4
:105D9000D12FFAD700F0B7EC33F0020E0501E51968
:105DA000D8A4D5EF2EF0D7EF2EF0DDEF2EF0010EB8
:105DB0000601CE6F000E84EC35F01200490E05018D
:105DC000746F990E756F000E766F000E776FD6C5E3
:105DD00078F5D7C579F57A6B7B6B4EEC2CF074C5F2
:105DE000CAF675C5CBF66A0E0501BE6F4D0EBF6FC4
:105DF000930EC06FBF0EC16FCAC67AF5CBC67BF5D6
:105E00007C6B7D6B000E34EC28F07AC5BAF57BC54F
:105E1000BBF57CC5BCF57DC5BDF55EEC13F0BAC520
:105E2000CAF5BBC5CBF5BCC5CCF5BDC5CDF55BECA6
:105E30002DF0CAC5CAF6CBC5CBF6D4C5C8F6D5C5B4
:105E4000C9F60601D890C837C937D890C837C937BE
:105E5000C8C6CCF6C9C6CDF6CCC674F5CDC675F5A8
:105E6000000E0501776F640E766F4CEC3BF074C545
:105E7000CCF675C5CDF6CCC674F5CDC675F5D6C5D0
:105E800076F5D7C577F5BFEC37F074C5CCF675C598
:105E9000CDF6CCC674F5CDC675F5A8EC3CF0CAC6F7
:105EA00074F5CBC675F5A1EC3CF06AEC3DF0120040
:105EB000490E0501746F990E756F000E766F000E16
:105EC000776FD6C578F5D7C579F57A6B7B6B4EECD5
:105ED0002CF074C5CAF675C5CBF66A0E0501BE6F07
:105EE0004D0EBF6F930EC06FBF0EC16FCAC67AF55D
:105EF000CBC67BF57C6B7D6B000E34EC28F07AC54D
:105F0000BAF57BC5BBF57CC5BCF57DC5BDF55EECC2
:105F100013F0BAC5CAF5BBC5CBF5BCC5CCF5BDC53C
:105F2000CDF55BEC2DF0CAC5CAF6CBC5CBF6D4C512
:105F3000C8F6D5C5C9F60601D890C837C937D89074
:105F4000C837C937C8C6CCF6C9C6CDF6CCC674F5B5
:105F5000CDC675F5000E0501776F640E766F4CECBB
:105F60003BF074C5CCF675C5CDF6CCC674F5CDC680
:105F700075F5D6C576F5D7C577F5BFEC37F074C59E
:105F8000CCF675C5CDF6CCC674F5CDC675F5B6ECB8
:105F90003CF0CAC674F5CBC675F5AFEC3CF06CECC2
:105FA0003DF01200490E016E990E026E000E036E56
:105FB000000E046E4AC505F54BC506F5076A086A6A
:105FC000D5EC2CF001C54EF502C54FF56A0E326EC8
:105FD0004D0E336E930E346EBF0E356E4EC507F503
:105FE0004FC508F5096A0A6A000E10EC29F007C5CA
:105FF0002EF508C52FF509C530F50AC531F5BFECFA
:1060000015F02EC53EF52FC53FF530C540F531C51D
:1060100041F5DFEC2DF03EC54EF53FC54FF548C5C7
:106020004CF549C54DF5D8904C364D36D8904C3688
:106030004D364CC550F54DC551F550C501F551C50E
:1060400002F5000E046E640E036E8DEC3BF001C58C
:1060500050F502C551F550C501F551C502F54AC5C7
:1060600003F54BC504F56EEC38F001C550F502C5DB
:1060700051F550C501F551C502F5D0EC3CF04EC5C7
:1060800001F54FC502F5CAEC3CF06EEC3DF0120094
:10609000490E016E990E026E000E036E000E046E24
:1060A0004AC505F54BC506F5076A086AD5EC2CF01C
:1060B00001C54EF502C54FF56A0E326E4D0E336EB8
:1060C000930E346EBF0E356E4EC507F54FC508F5FD
:1060D000096A0A6A000E10EC29F007C52EF508C5FA
:1060E0002FF509C530F50AC531F5BFEC15F02EC501
:1060F0003EF52FC53FF530C540F531C541F5DFEC24
:106100002DF03EC54EF53FC54FF548C54CF549C588
:106110004DF5D8904C364D36D8904C364D364CC552
:1061200050F54DC551F550C501F551C502F5000EAC
:10613000046E640E036E8DEC3BF001C550F502C594
:1061400051F550C501F551C502F54AC503F54BC5DA
:1061500004F56EEC38F001C550F502C551F550C597
:1061600001F551C502F5DCEC3CF04EC501F54FC51B
:1061700002F5D6EC3CF070EC3DF01200206E000E03
:106180001C6E175040EC3CF01F6E1FA0CAEF30F0A1
:10619000CCEF30F032EF31F017500C0D580EF324E5
:1061A000D96E010EF420DA6E610078F31DF56100FE
:1061B00074F31EF51D501E10D8B4E1EF30F0E3EF7C
:1061C00030F032EF31F01DC50CF51EC50DF518C5C8
:1061D0000EF519C50FF5F0EC24F017500C0D510E0B
:1061E000F324D96E010EF420DA6E000EDB8020500D
:1061F000020DEB0EF324D96E050EF420DA6EDF2AC1
:106200001750FEEC3BF01A6E2050020DEB0EF324FB
:10621000D96E050EF420DA6E1A50DE5CD8A013EFAA
:1062200031F015EF31F01FEF31F02050020DEB0E81
:10623000F324D96E050EF420DA6E000EDF6E1FA671
:1062400024EF31F026EF31F030EF31F017500C0D24
:10625000540EF324D96E010EF420DA6EF70EDF1619
:10626000010E1C6E1C501200DAEC3AF0C2EC2BF05E
:106270000DEC3CF097EC3CF0D68EEFEC3BF0F5ECFF
:1062800039F062EC2EF0BEB048EF31F04BEF31F058
:10629000010E4CEF31F0000EFF0A0601DA6FBE501E
:1062A000DA19FE0BDA19BE6E320E8E6F00F0000E98
:1062B0000501A56F000EA66FC80EA76F420EA86F4E
:1062C000000E8C6F800E8D6F3B0E8E6F450E8F6FA4
:1062D000A00E0601DA6F0F0EDB6F4A51DA5F4B51E9
:1062E000DB5BDAC67AF5DBC67BF505017C6B7D6B83
:1062F000000E34EC28F07AC588F57BC589F57CC59D
:106300008AF57DC58BF564EC1EF088C5A1F589C5BD
:10631000A2F58AC5A3F58BC5A4F51FEC18F0A1C59D
:10632000CAF5A2C5CBF5A3C5CCF5A4C5CDF55BECEC
:106330002DF00501CA510601DC6F000ED06FDC5153
:10634000A9EC22F043EF31F00DEF00F00601B0515F
:10635000B111D8B4AEEF31F0B0EF31F0BCEF31F0A5
:1063600002D8BCEF31F00500FA6EB051FD6EB151AC
:10637000FE6EFF6AFA501200BDEC3CF00601912B54
:10638000060E9119D8A4C7EF31F0C9EF31F0CDEF67
:1063900031F0000E916FAFEC39F00601902B0B0E2F
:1063A0009019D8A4D6EF31F0D8EF31F0DCEF31F00E
:1063B000000E906F75EC3DF006018F2B650E8F1966
:1063C000D8A4E5EF31F0E7EF31F0EBEF31F0000E5C
:1063D0008F6F77EC3DF00601504B512B2D0E50196D
:1063E00006E15105D8A4F7EF31F0F9EF31F0FFEFF6
:1063F00031F0000E516F000E506F74EC3DF006014D
:106400004E4B4F2B590E4E1907E1020E4F19D8A4CF
:106410000CEF32F00EEF32F014EF32F0000E4F6F4F
:10642000000E4E6F76EC3DF0120022C59AF623C5A1
:106430009BF624C59CF625C59DF626C59EF627C568
:106440009FF628C5A0F629C5A1F61DC5A9F61EC54B
:10645000AAF61FC5ABF620C5ACF60601AD9DAD9FF3
:10646000AD93AD9121C52AF50F0E2A162A462A466C
:10647000AD512A18C30B2A18AD6F9A0EAE6F060ED7
:10648000AF6F78EC3CF0E806D8A449EF32F04BEF60
:1064900032F04CEF32F000F06DEC3CF0E806D8A49E
:1064A00054EF32F056EF32F057EF32F000F062EC7A
:1064B0003CF0E806D8A45FEF32F061EF32F062EF13
:1064C00032F000F01BEC3CF0E806D8A46AEF32F0A2
:1064D0006CEF32F06DEF32F000F0000ECAEC3BF0E2
:1064E0002A6E2AA076EF32F078EF32F080EF32F0A9
:1064F000A90E176E060E186E000EBDEC36F000F0F9
:106500001200076E000E086E20EE04F00250D9262D
:106510000350DA22DF50096E09AE91EF32F093EFAB
:1065200032F09EEF32F055EC3DF0060AD8A49BEF16
:1065300032F09DEF32F09EEF32F008820930E832FF
:106540000F0B046E080E0464A8EF32F0AAEF32F0CD
:10655000BCEF32F009ACAFEF32F0B1EF32F0BBEF8D
:1065600032F055EC3DF0060AD8A4B9EF32F0BBEF9B
:1065700032F0BCEF32F008802F0EF66E260EF76E6A
:10658000F86A08006100D4F304F50930E8320F0B13
:10659000056E066A270E0524F66E260E0620F76E97
:1065A000F86A000EF8220800F550045CD8B0DBEF62
:1065B00032F0DDEF32F0DEEF32F00880075034ECDD
:1065C0003CF00009D8A4E7EF32F0E9EF32F0EBEF4E
:1065D00032F0030E081208501200000ECFB4010E64
:1065E000016E000ECEB2010E026E00F00104D8A4BE
:1065F000FCEF32F0FEEF32F00DEF33F00250D8A492
:1066000004EF33F006EF33F00DEF33F0010E050128
:10661000E56FE6C575F651EF33F00150D8A413EFDE
:1066200033F015EF33F024EF33F00204D8A41BEF5E
:1066300033F01DEF33F024EF33F0020E0501E56F68
:10664000E6C574F651EF33F00150D8A42AEF33F0C9
:106650002CEF33F039EF33F00250D8A432EF33F09F
:1066600034EF33F039EF33F0030E0501E56F51EFEE
:1066700033F00104D8A43FEF33F041EF33F04EEF95
:1066800033F00204D8A447EF33F049EF33F04EEF74
:1066900033F0040E0501E56F51EF33F0050E0501EF
:1066A000E56F1200000E036E000E0A6E0A50020D16
:1066B000EA0EF324D96E050EF420DA6EDF50066E72
:1066C000065040EC3CF0056E05A069EF33F06BEF2F
:1066D00033F0ACEF33F00650FEEC3BF0076E05A64E
:1066E00074EF33F076EF33F07AEF33F007C504F54B
:1066F000AAEF33F006500C0D550EF324D96E010E9F
:10670000F420DA6EDF501F0B086E0A50020DEB0EFC
:10671000F324D96E050EF420DA6EDF50096E0950AD
:10672000085CD8B096EF33F098EF33F09EEF33F07B
:106730000950085C0724046EAAEF33F00850095C86
:10674000D8B0A5EF33F0A7EF33F076EF33F0095070
:10675000085C046E045003260A2A0A50D8B4B3EF2A
:1067600033F0B5EF33F056EF33F003501200000E64
:10677000CFB4010E0501746F000ECEB2010E756F1D
:1067800000F005017405D8A4C8EF33F0CAEF33F068
:10679000D8EF33F07551D8A4D0EF33F0D2EF33F007
:1067A000D8EF33F0010EE56FE6C575F618EF34F05B
:1067B0007451D8A4DEEF33F0E0EF33F0EEEF33F0B6
:1067C0007505D8A4E6EF33F0E8EF33F0EEEF33F0E1
:1067D000020EE56FE6C574F618EF34F07451D8A4D4
:1067E000F4EF33F0F6EF33F002EF34F07551D8A444
:1067F000FCEF33F0FEEF33F002EF34F0030EE56F01
:1068000018EF34F07405D8A408EF34F00AEF34F030
:1068100016EF34F07505D8A410EF34F012EF34F011
:1068200016EF34F0040EE56F18EF34F0050EE56F47
:106830001200000E066E04BE22EF34F020EF34F09A
:1068400028EF34F0036C041ED8B0042A010E066E43
:1068500002BE2FEF34F02DEF34F035EF34F0016C41
:10686000021ED8B0022A010E061A000E086E000E93
:10687000076E03500410D8B440EF34F042EF34F008
:106880006AEF34F0010E056E4AEF34F0D89003360B
:106890000436052A04AE4FEF34F051EF34F046EFE2
:1068A00034F0D890073608360350015C0450025883
:1068B000D8A05DEF34F05FEF34F064EF34F00350B4
:1068C000015E0450025A0780D89004320332052E2C
:1068D00051EF34F00650D8B470EF34F072EF34F06A
:1068E00076EF34F0076C081ED8B0082A07C501F50A
:1068F00008C502F512006100D8F370F56100DCF301
:1069000071F56100E0F372F56100D4F373F5A1AEA7
:106910008CEF34F08EEF34F099EF34F0B1AE93EFAA
:1069200034F095EF34F099EF34F0C1EC3AF0CFEF5A
:1069300034F0A1A89EEF34F0A0EF34F0ABEF34F0C8
:10694000B1A8A5EF34F0A7EF34F0ABEF34F08CEC46
:106950003AF0CFEF34F09EACB0EF34F0B2EF34F059
:10696000BDEF34F0AEACB7EF34F0B9EF34F0BDEFBB
:1069700034F0EAEC29F0CFEF34F0A2A8C2EF34F003
:10698000C4EF34F0CFEF34F0B2A8C9EF34F0CBEF5E
:1069900034F0CFEF34F062EC3BF0CFEF34F0610035
:1069A000CCF5F5F46100C8F5F8F46100C4F5F7F42E
:1069B0006100C0F5F6F411000601CF6F0501E7058F
:1069C000D8A4E5EF34F0E7EF34F027EF35F0CFC689
:1069D0002CF606012D6B0501E8510601CE19D8A44D
:1069E000F4EF34F0F6EF34F031EF35F00501E8055F
:1069F000D8A4FDEF34F0FFEF34F011EF35F0220EA4
:106A000006012C250501D46F000E06012D2105017C
:106A1000D56F010ED76F2C0ED66FDEEC2EF031EF56
:106A200035F0E851D8A417EF35F019EF35F025EF20
:106A300035F02CC6D4F52DC6D5F5010ED76F2C0E2A
:106A4000D66FDEEC2EF031EF35F031EF35F0000E81
:106A5000D56F000ED46F020ED76F580ED66FDEECD6
:106A60002EF01200000E096E000E0A6E000E0B6E64
:106A7000000E0C6E0550061007100810D8B443EF36
:106A800035F045EF35F07BEF35F0010E0D6E4FEF31
:106A900035F0D89005360636073608360D2A08AE8A
:106AA00054EF35F056EF35F049EF35F0D890093610
:106AB0000A360B360C360550015C0650025807505A
:106AC000035808500458D8A068EF35F06AEF35F045
:106AD00073EF35F00550015E0650025A0750035A15
:106AE0000850045A0980D89008320732063205321D
:106AF0000D2E56EF35F009C501F50AC502F50BC597
:106B000003F50CC504F512000601CF6F0501E7057A
:106B1000D8A48DEF35F08FEF35F0CAEF35F00601D0
:106B2000CF513C0D6100CCF3E2F56100D0F3E3F509
:106B3000E2C574F5E3C575F5000E0501776F640EC7
:106B4000766FBFEC37F074C5E2F575C5E3F5050166
:106B5000E251E26FE36BE8510601CE19D8A4B3EF1E
:106B600035F0B5EF35F0D4EF35F0040E0501E561F1
:106B7000BCEF35F0BEEF35F0D4EF35F0E2C5D4F51B
:106B8000E3C5D5F5010ED76F2C0ED66F58EC2FF05C
:106B9000D4EF35F0000ED56F000ED46F010ED76F15
:106BA0002C0ED66F58EC2FF01200536E0501E7053E
:106BB000D8A4DDEF35F0DFEF35F01AEF36F053C52E
:106BC0002CF606012D6B0501E8515218D8A4EBEF05
:106BD00035F0EDEF35F024EF36F0E805D8A4F3EF0B
:106BE00035F0F5EF35F004EF36F0220E06012C25D6
:106BF000486E000E2D21496E010E4B6E2C0E4A6E12
:106C0000D2EC2FF024EF36F0E851D8A40AEF36F09A
:106C10000CEF36F018EF36F02CC648F52DC649F5C6
:106C2000010E4B6E2C0E4A6ED2EC2FF024EF36F094
:106C300024EF36F0000E496E000E486E020E4B6EC9
:106C4000580E4A6ED2EC2FF012000501766F000E3E
:106C50000501756F0FEC3DF00501746F040E74199A
:106C6000D8B435EF36F037EF36F048EF36F076052A
:106C7000D8B43DEF36F03FEF36F048EF36F0040E73
:106C80007619D8A446EF36F048EF36F06DEF36F0BF
:106C90000101035105017619F80B76190101036F03
:106CA0005FEF36F001011DA958EF36F05AEF36F0CC
:106CB0005FEF36F0020E0501756F6FEF36F00239A7
:106CC000E832070B05017619D8A469EF36F06BEFAF
:106CD00036F052EF36F06FEF36F0010E756F7551EA
:106CE0001200536E0501E705D8A479EF36F07BEF6B
:106CF00036F0B2EF36F053503C0D6100CCF3E2F5C4
:106D00006100D0F3E3F5E2C501F5E3C502F5000E3D
:106D1000046E640E036E6EEC38F001C5E2F502C538
:106D2000E3F50501E251E26FE36BE8515218D8A494
:106D30009CEF36F09EEF36F0BCEF36F0040EE561C6
:106D4000A4EF36F0A6EF36F0BCEF36F0E2C548F51A
:106D5000E3C549F5010E4B6E2C0E4A6E48EC30F03F
:106D6000BCEF36F0000E496E000E486E010E4B6E01
:106D70002C0E4A6E48EC30F012001C6E1C5033ECA6
:106D80003AF00009D8B4C7EF36F0C9EF36F006EF95
:106D900037F017C502F518C503F51C5081EC32F029
:106DA000196E1950D8A4D7EF36F0D9EF36F006EFA8
:106DB00037F01C500C0D580EF324D96E010EF42040
:106DC000DA6E610078F31AF5610074F31BF51A505E
:106DD0001B10D8B4EEEF36F0F0EF36F006EF37F0D8
:106DE0001AC50CF51BC50DF517C50EF518C50FF521
:106DF000CDEC23F01C500C0D510EF324D96E010E76
:106E0000F420DA6E030EDF1206EF37F01200000EE8
:106E1000BE6E000EBF6E000EC06E080ECA6EDE0E95
:106E2000C66ECC0EC76E070EC86EE70E0401106F5B
:106E3000730E086FFD0E006F000E216F000E096FBC
:106E4000000E016F000E116F000E026F000E0A6F30
:106E5000180E126F03690B69136904690C691469D0
:106E6000080E246F0F0E0201696F140E706F1A0E58
:106E70000A6F370E146F180E096F380E156F0B0E50
:106E80003D6F460E0D6F130E716F1200FC0E050163
:106E9000746F7A0E756F28EC3DF0FE0E0501746F6D
:106EA0007A0E756F2DEC3DF0000E0501746F7B0EB0
:106EB000756F32EC3DF0FA0E0501746F7A0E756F46
:106EC00023EC3DF0F60E0501746F7A0E756F19EC28
:106ED0003DF0F40E0501746F7A0E756F14EC3DF001
:106EE000F80E0501746F7A0E756F1EEC3DF0AE9CC6
:106EF000000E01011C6F000E1D6F0A0E1E6FFC0EAE
:106F00001F6F9E8C120000F00501E805D8A48BEFDE
:106F100037F08DEF37F0B4EF37F006018D05D8A4C8
:106F200094EF37F096EF37F09BEF37F0010E050145
:106F3000E76FBEEF37F0000E0501E76F000E496EF8
:106F4000000E486E010E4B6E2C0E4A6E48EC30F06F
:106F5000000E496E000E486E020E4B6E580E4A6EC1
:106F6000D2EC2FF0BEEF37F0E851D8A4BAEF37F0EB
:106F7000BCEF37F0BEEF37F096EF37F01200000E9F
:106F800005017A6F000E796F76517711D8B4CBEF87
:106F900037F0CDEF37F0F5EF37F0010E786FD5EF22
:106FA00037F0D89076377737782B77AFDAEF37F03E
:106FB000DCEF37F0D1EF37F0D89079377A37765168
:106FC000745D77517559D8A0E8EF37F0EAEF37F0E4
:106FD000EFEF37F07651745F7751755B7981D89018
:106FE00077337633782FDCEF37F079C574F57AC5CF
:106FF00075F51200000E6F6E020E706E000E716E4F
:107000003D0E726E000E736EFE0E746E000E756E87
:10701000000E766E000E776E000E796E1F0E7A6E81
:10702000000E7B6E1F0E7C6E000E7D6EB39CB39EB9
:1070300076907692A39EA39C000E0501746F000EBD
:10704000756FF1EC3CF0000E0501746F000E756F6A
:10705000ECEC3CF0000E0501746F000E756FF6EC61
:107060003CF0800E786E1200000E606E020E616EB3
:10707000000E626E3D0E636E000E646EFE0E656E57
:10708000000E666E000E676E000E686E000E6A6E71
:107090001F0E6B6E000E6C6E1F0E6D6E000E6E6E10
:1070A000B29CB29E67906792A29EA29C000E0501C0
:1070B000746F000E756F00EC3DF0000E0501746FEB
:1070C000000E756FFBEC3CF0000E0501746F000EB6
:1070D000756F05EC3DF0800E696E1200000E066EB5
:1070E000000E056E03500410D8B479EF38F07BEF32
:1070F00038F0A3EF38F0010E076E83EF38F0D89028
:1071000003360436072A04AE88EF38F08AEF38F0E9
:107110007FEF38F0D890053606360350015C0450F6
:107120000258D8A096EF38F098EF38F09DEF38F07D
:107130000350015E0450025A0580D8900432033295
:10714000072E8AEF38F005C501F506C502F51200D5
:10715000000E096E000E0A6E000E0B6E000E0C6E15
:1071600001A0B5EF38F0B7EF38F0BFEF38F00550B9
:10717000092606500A2207500B2208500C22D890EC
:107180000536063607360836D89004320332023206
:1071900001320150021003100410D8A4D2EF38F0CD
:1071A000D4EF38F0B0EF38F009C501F50AC502F5A3
:1071B0000BC503F50CC504F512000101018F040E87
:1071C00025EC36F00009D8A4E8EF38F0EAEF38F003
:1071D0000AEF39F0000E01014C6F260E4D6F000EC4
:1071E0004E6F000E4F6F600E006F970E016F100E06
:1071F000026F8DEC3CF083EC3CF078EC3BF0DEEC85
:107200003BF0F1EC3AF046EC37F0060E25EC36F0A8
:10721000C79ABF9A120003C509F504C50AF501C54E
:1072200007F502C508F52AEF39F0610024F4D9F416
:10723000610028F4DAF4DF500B6E094A0A2A610073
:107240001CF4D9F4610020F4DAF461002CF4DFF4CA
:10725000074A082A0506D8A00606052806E10628DA
:10726000D8A435EF39F037EF39F015EF39F01200C7
:10727000000E246E2450020DEA0EF324D96E050E82
:10728000F420DA6EDF50176E21C518F522C519F506
:107290002450BEEC30F0236E2350D8B452EF39F0B6
:1072A00054EF39F056EF39F05FEF39F0242A2450CB
:1072B000D8B45DEF39F05FEF39F03AEF39F0235091
:1072C0001200000E03011F6F000E206F010E216FD0
:1072D000850E1D6FEE0E1C6FB1981C51600074FC82
:1072E00076F50501776B76C577F5766B7611060135
:1072F000B26F050177510601B36FA188E60E050153
:10730000746F7A0E756FE2EC3CF0310E03011E6F64
:107310001200E40EF66E7A0EF76E000EF86E09009B
:107320006100D4F3EAF509006100D4F3EBF501EE56
:1073300000F2B00EEE6AE806FDE101EED8F1120EA1
:10734000EE6AE806FDE15F6A5E6A0401080E5D6FA1
:10735000000E5E6F000E5F6F000134EF31F0300EF3
:107360001D6E030E1E6E000E1F6E000E206E060EAA
:10737000216E28C622F524C623F5DCC524F5D8C520
:1073800025F5000E266E000E276E000E286E000EEC
:10739000296E15EC32F0EDEC32F083EC37F0000E94
:1073A00006018D6F1200036EDFEF39F0BE8AF4EF35
:1073B00039F0BE9AF4EF39F0BE9AF4EF39F0035089
:1073C000016E026A0250000AD8B4E9EF39F0DCEF2E
:1073D00039F00150000AD8B4D9EF39F0010AD8B415
:1073E000D6EF39F0DCEF39F01200C690C784C682C0
:1073F000C69AC89AC89CC89EC79A000E0501D56F48
:10740000000ED46F010ED76F2C0ED66F58EC2FF0F4
:10741000000E0501D56F000ED46F020ED76F580E07
:10742000D66FDEEC2EF012000501786F6100E0F5FA
:10743000ECF30301F38FF39DF381F3B122EF3AF004
:1074400024EF3AF01DEF3AF0EB510501776F766BC0
:107450000301EA5105017625746F0301000E050151
:107460007721756F1200026E000E016E040E02602D
:107470003CEF3AF03EEF3AF050EF3AF002500C0D8C
:10748000500EF324D96E010EF420DA6E0101DFAE46
:107490004CEF3AF04EEF3AF050EF3AF0010E016E39
:1074A00001501200010E95EC2AF079C54AF67AC512
:1074B0004BF6020E95EC2AF079C530F67AC531F616
:1074C000030E95EC2AF079C5E0F57AC5E1F5040ED6
:1074D00095EC2AF079C52EF67AC52FF61200010E2A
:1074E0002DEC2BF006C54AF607C54BF6020E2DEC27
:1074F0002BF006C530F607C531F6030E2DEC2BF048
:1075000006C5E0F507C5E1F5040E2DEC2BF006C528
:107510002EF607C52FF61200B198B2C601F5B3C614
:1075200002F508EC3BF006014C4B4D2B4D5109E1A7
:10753000050E4C5DD8A09FEF3AF0A1EF3AF0A5EF11
:107540003AF0000E4D6F000E4C6FA6EC31F01200B9
:10755000056E610014F4ECF30301F38FF39DF381E6
:10756000F3B1B5EF3AF0B7EF3AF0B0EF3AF0EB51D4
:10757000046E036AEA510324016E000E0420026EB9
:107580001200B19E0601524B532B535109E10A0ED2
:10759000525DD8A0CEEF3AF0D0EF3AF0D7EF3AF004
:1075A0001FEC3BF0000E0601536F000E526F79EC9A
:1075B0003DF0120068EC3DF0B6EC3BF036EC3BF0F1
:1075C00010EC26F007EC37F028EC3CF061EC39F0D9
:1075D000A2EC3BF0FAEC37F0DDEC38F034EC38F0AC
:1075E0001200000E0501746F7451020DEB0EF324AE
:1075F000D96E050EF420DA6E000EDF6E742B745116
:10760000D8B405EF3BF007EF3BF0F4EF3AF012008F
:1076100003011EA50EEF3BF010EF3BF019EF3BF01E
:107620001E9102501D6F610004F41CF31E811EEFB9
:107630003BF002501D6F610004F41CF312000601C0
:10764000B451B511D8B427EF3BF029EF3BF035EF3B
:107650003BF002D835EF3BF00500FA6EB451FD6EF9
:10766000B551FE6EFF6AFA5012001200040E0201BC
:10767000946F800E956F180E966F030E9E6F000E1E
:107680009A6F000E9B6F000E976F000E8C6F000EAE
:107690008D6F000E9D6F120005017451760361001D
:1076A000CCF378F56100D0F379F574517703F3509A
:1076B000792775517603F350792778C574F579C524
:1076C00075F51200010160A168EF3BF06AEF3BF035
:1076D00077EF3BF002D877EF3BF00500FA6E06013A
:1076E0006851FD6E6951FE6EFF6AFA501200120079
:1076F000190E01015C6F040E5D6F600E5E6F050E6A
:107700005F6FCA0E0501746F7A0E756F0AEC3DF05B
:1077100001011E83B298A288120001500302610089
:10772000CCF305F56100D0F306F501500402F350E7
:10773000062602500302F350062605C501F506C5CC
:1077400002F51200480E03011B6F610E196F000E47
:10775000186FB19EA18EF00E0501746F7A0E756FD1
:10776000E7EC3CF0800E03011A6F1200000E0001DE
:10777000606F000E616F000E626F000E636F000E8F
:10778000646F000E656F000E666F000E676F000E6F
:10779000686F1200046E000E036E045033EC3AF072
:1077A0000009D8B4D6EF3BF0D8EF3BF0DCEF3BF06C
:1077B000045034EC3CF0036E035012005F0E0101E4
:1077C000946F956996699769000E986F000E996F8E
:1077D000000E9A6F000E9B6F810E816F1200000EDB
:1077E0000501D56F000ED46F000ED76F320ED66F25
:1077F00058EC2FF0000E0501E56F1200026E0250EA
:107800000C0D530EF324D96E010EF420DA6EDF5006
:10781000016E1F0E011601281200640E06014A2592
:10782000406F000E4B21416F9C0E30253C6FFF0EC8
:1078300031213D6F12006DEC3CF00009D8B423EF0C
:107840003CF026EF3CF0010E27EF3CF0000E12005A
:10785000700E0001AD6F000EAF6F000EB36F020E21
:10786000B16F000EB06F1200016E01500C0D540E7E
:10787000F324D96E010EF420DA6EDF50010B1200F2
:10788000016E01500C0D540EF324D96E010EF4203C
:10789000DA6EDF50090B120052EC3AF0E0C536F612
:1078A000E1C537F62EC632F62FC633F6120052EC7B
:1078B0003AF0E0C538F6E1C539F62EC634F62FC6E3
:1078C00035F61200010136B568EF3CF06BEF3CF085
:1078D000010E6CEF3CF0000E1200010136B973EF9F
:1078E0003CF076EF3CF0010E77EF3CF0000E12001A
:1078F000010136BB7EEF3CF081EF3CF0010E82EFE0
:107900003CF0000E1200100E0101506F040E516F7A
:10791000610E526F050E536F1200010E0101046FCC
:10792000010E056F060E066F000E076F1200000EA7
:1079300006013F6FA00E3E6F070E3B6FC60E3A6FFB
:1079400012006100D0F572F405017551736E1200DA
:107950006100D0F57AF4050175517B6E120061006B
:10796000D0F563F405017551646E12006100D0F525
:107970006BF4050175516C6E12006FEC3AF06EEC11
:107980001CF032EC20F012000501746F6100D0F59C
:10799000FBF31200610004F472F40250736E1200E3
:1079A000610004F47AF402507B6E1200610004F46A
:1079B00063F40250646E1200610004F46BF4025030
:1079C0006C6E120074C5B0F675C5B1F6120074C5C0
:1079D000B4F675C5B5F6120074C5C4F675C5C5F61E
:1079E000120074C5C6F675C5C7F6120074C5C2F696
:1079F00075C5C3F6120074C556F675C557F6120064
:107A000074C558F675C559F6120074C554F675C597
:107A100055F6120074C568F675C569F612000101C5
:107A20000239E832070B120074C55CF675C55DF6C5
:107A3000120074C55EF675C55FF6120074C55AF67D
:107A400075C55BF6120074C560F675C561F6120067
:107A500074C566F675C567F6120074C564F675C51B
:107A600065F6120074C562F675C563F6120074C53A
:107A7000B8F675C5B9F6120074C5BAF675C5BBF689
:107A8000120074C5BCF675C5BDF6120074C5BEF60D
:107A900075C5BFF6120074C5B6F675C5B7F6120007
:107AA00074C5C0F675C5C1F6120001010239E8328D
:107AB000070B1200016E610004F4FBF312000301D6
:107AC000F39B12000301F39B120080EC21F01200E3
:107AD000D69A120078841200698412007884120009
:107AE000698412000100120012001200120012003C
:107AF00012001200120012001200120012001200F6
:027B0000120071
:020000040020DA
:10000000FF0FFF0FFF0FFF0FFF0FFF0FFF0FFF0F80
:10001000FF0FFF0FFF0FFF0FFF0FFF0FFF0FFF0F70
:020000040030CA
:10000000FAEFF7DF9FFFFFFFFFFFFFFFFFFFFFFF9D
:10001000FFFFFFFFFFFFFFFFFFFFFFFFFFFFFFFFF0
:04002000FFFFFFFFE0
:00000001FF
