:020000040000FA
:040000000DEF00F010
:0400080015EF32F0CE
:06001800FF0053EF35F07C
:1026000000000000000000000000000000000000CA
:1026100000000000000000000000000000000000BA
:102620000000000000000000010203040506070886
:102630005001526561643A206E6F6E2D766F6C6149
:1026400074696C6520766F6C746167652076616C67
:1026500075652025662C20616E6420766F6C617430
:10266000696C6520766F6C746167652076616C7546
:10267000652025660053657420746865206E6F6E52
:102680002D766F6C6174696C6520766F6C74616710
:102690006520746F203156200A00536574207468D9
:1026A0006520766F6C6174696C6520766F6C7461FF
:1026B000676520746F203256200A0000BEC597F56A
:1026C000BFC598F5C0C599F5C1C59AF5C2C59BF5BA
:1026D000C3C59CF5C4C59DF5C5C59EF539EC39F05B
:1026E00097C5DEF598C5DFF599C5E0F59AC5E1F522
:1026F0006100F0F6D9F46100F4F6DAF4610078F3E1
:102700007EF5610078F37FF5610078F380F5610074
:1027100078F381F5DEC582F5DFC583F5E0C584F584
:10272000E1C585F52EEC1CF07EC5C6F57FC5C7F565
:1027300080C5C8F581C5C9F5000E0501826F000E80
:10274000836F000E846F3F0E856F20EE04F0BC5146
:10275000D926BD51DA22610078F37EF5610078F365
:102760007FF5610078F380F5610078F381F52EEC58
:102770001CF07EC5D6F57FC5D7F580C5D8F581C5D7
:10278000D9F5050120EE20F0BC51D926BD51DA2241
:10279000610078F382F5610078F383F5610078F3E6
:1027A00084F5610078F385F5D6C57EF5D7C57FF54C
:1027B000D8C580F5D9C581F52EEC1CF07EC5DAF5BB
:1027C0007FC5DBF580C5DCF581C5DDF5DAC582F5B1
:1027D000DBC583F5DCC584F5DDC585F5DEC572F5A1
:1027E000DFC573F5E0C574F5E1C575F5050120EEAB
:1027F00028F0BC51D926BD51DA22610078F36EF57C
:10280000610078F36FF5610078F370F5610078F39B
:1028100071F56DEC17F06EC57EF56FC57FF570C56F
:1028200080F571C581F52EEC1CF07EC5CAF57FC51B
:10283000CBF580C5CCF581C5CDF5CAC56EF5CBC548
:102840006FF5CCC570F5CDC571F5050120EE24F00E
:10285000BC51D926BD51DA22610078F372F56100CE
:1028600078F373F5610078F374F5610078F375F52A
:102870006DEC17F0050120EE24F0BC51D926BD51B6
:10288000DA226100B8F5DEF46100BCF5DEF4610027
:10289000C0F5DEF46100C4F5DEF420EE1CF0BC519E
:1028A000D926BD51DA22610078F360F5610078F332
:1028B00061F5610078F362F5610078F363F520EE6D
:1028C00024F0BC51D926BD51DA22610078F364F5B9
:1028D000610078F365F5610078F366F5610078F3DF
:1028E00067F548EC2CF00501D8B079EF14F07BEFD8
:1028F00014F091EF14F020EE1CF0BC51D926BD511C
:10290000DA2210EE24F0BC51E126BD51E222DEC4F1
:10291000E6F4DEC4E6F4DEC4E6F4DEC4E6F4D3EFA7
:1029200014F020EE24F0BC51D926BD51DA2261000A
:1029300078F360F5610078F361F5610078F362F592
:10294000610078F363F520EE18F0BC51D926BD5133
:10295000DA22610078F364F5610078F365F56100CF
:1029600078F366F5610078F367F548EC2CF0050123
:10297000D8B0BDEF14F0BFEF14F0D3EF14F020EE99
:1029800018F0BC51D926BD51DA2210EE24F0BC510A
:10299000E126BD51E222DEC4E6F4DEC4E6F4DEC484
:1029A000E6F4DEC4E6F420EE20F0BC51D926BD5199
:1029B000DA22610078F39BF5610078F39CF5610001
:1029C00078F39DF5610078F39EF5000E826F000E9E
:1029D000836F000E846F400E856F20EE0CF0BC51AB
:1029E000D926BD51DA22610078F37EF5610078F3D3
:1029F0007FF5610078F380F5610078F381F52EECC6
:102A00001CF07EC597F57FC598F580C599F581C501
:102A10009AF539EC39F097C5D6F598C5D7F599C52B
:102A2000D8F59AC5D9F5000E0501826F000E836FA7
:102A3000000E846F400E856F20EE08F0BC51D92641
:102A4000BD51DA22610078F37EF5610078F37FF5FD
:102A5000610078F380F5610078F381F52EEC1CF0CD
:102A60007EC5DAF57FC5DBF580C5DCF581C5DDF512
:102A7000050120EE30F0BC51D926BD51DA226100AB
:102A800078F39BF5610078F39CF5610078F39DF590
:102A9000610078F39EF5C2C597F5C3C598F5C4C526
:102AA00099F5C5C59AF539EC39F097C582F598C501
:102AB00083F599C584F59AC585F5DAC57EF5DBC53C
:102AC0007FF5DCC580F5DDC581F52EEC1CF07EC5FB
:102AD000CEF57FC5CFF580C5D0F581C5D1F505010F
:102AE00020EE2CF0BC51D926BD51DA22610078F3DA
:102AF00082F5610078F383F5610078F384F5610075
:102B000078F385F5D6C57EF5D7C57FF5D8C580F5B0
:102B1000D9C581F52EEC1CF07EC572F57FC573F525
:102B200080C574F581C575F5CEC56EF5CFC56FF559
:102B3000D0C570F5D1C571F56DEC17F06EC59FF578
:102B40006FC5A0F570C5A1F571C5A2F519EC3AF0F5
:102B50009FC5A3F5A0C5A4F5A1C5A5F5A2C5A6F579
:102B6000050120EE20F0BC51D926BD51DA226100CA
:102B700078F372F5610078F373F5610078F374F51A
:102B8000610078F375F5000E826F000E836F000E02
:102B9000846F400E856F20EE0CF0BC51D926BD51DC
:102BA000DA22610078F37EF5610078F37FF5610049
:102BB00078F380F5610078F381F52EEC1CF07EC58A
:102BC0006EF57FC56FF580C570F581C571F56DEC4B
:102BD00017F06EC5A7F56FC5A8F570C5A9F571C545
:102BE000AAF556EC1EF0050120EE2CF0BC51D926BA
:102BF000BD51DA2261008CF6DEF4610090F6DEF45D
:102C0000610094F6DEF4610098F6DEF4000E606F69
:102C1000000E616F000E626F400E636F20EE2CF0AD
:102C2000BC51D926BD51DA22610078F364F5610008
:102C300078F365F5610078F366F5610078F367F580
:102C400048EC2CF00501D8A028EF16F02AEF16F07A
:102C50004EEF16F020EE2CF0BC51D926BD51DA22F1
:102C6000610078F360F5610078F361F5610078F355
:102C700062F5610078F363F5000E646F000E656F16
:102C8000000E666FC00E676F48EC2CF00501D8B0DF
:102C90004CEF16F04EEF16F05CEF16F020EE24F03D
:102CA000BC51D926BD51DA22000EDE6E000EDE6E5A
:102CB000000EDE6E000EDD6EC6C572F5C7C573F57B
:102CC000C8C574F5C9C575F520EE24F0BC51D926E8
:102CD000BD51DA22610078F36EF5610078F36FF58B
:102CE000610078F370F5610078F371F56DEC17F021
:102CF0006EC5D2F56FC5D3F570C5D4F571C5D5F5E0
:102D0000D2C56EF5D3C56FF5D4C570F5D5C571F5CF
:102D1000050120EE2CF0BC51D926BD51DA2261000C
:102D200078F372F5610078F373F5610078F374F568
:102D3000610078F375F56DEC17F0050120EE34F0C5
:102D4000BC51D926BD51DA226100B8F5DEF461002C
:102D5000BCF5DEF46100C0F5DEF46100C4F5DEF41C
:102D600020EE14F0BC51D926BD51DA22610078F36F
:102D700060F5610078F361F5610078F362F5610058
:102D800078F363F520EE34F0BC51D926BD51DA2238
:102D9000610078F364F5610078F365F5610078F31C
:102DA00066F5610078F367F548EC2CF00501D8B0C2
:102DB000DCEF16F0DEEF16F0F4EF16F020EE14F074
:102DC000BC51D926BD51DA2210EE34F0BC51E126B7
:102DD000BD51E222DEC4E6F4DEC4E6F4DEC4E6F46D
:102DE000DEC4E6F436EF17F020EE34F0BC51D926FD
:102DF000BD51DA22610078F360F5610078F361F586
:102E0000610078F362F5610078F363F520EE10F06D
:102E1000BC51D926BD51DA22610078F364F5610016
:102E200078F365F5610078F366F5610078F367F58E
:102E300048EC2CF00501D8B020EF17F022EF17F086
:102E400036EF17F020EE10F0BC51D926BD51DA2232
:102E500010EE34F0BC51E126BD51E222DEC4E6F4AE
:102E6000DEC4E6F4DEC4E6F4DEC4E6F420EE28F0C8
:102E7000BC51D926BD51DA22610078F7DEF4610039
:102E80007CF7DEF4610080F7DEF4610084F7DEF4A5
:102E900020EE30F0BC51D926BD51DA22610008F78E
:102EA000DEF461000CF7DEF4610010F7DEF461007F
:102EB00014F7DEF420EE34F0BC51D926BD51DA22ED
:102EC000610078F3BCF5610078F3BDF5610078F33B
:102ED000BEF5610078F3BFF5120005017151800B5A
:102EE0007A6F715171257C6F70AF79EF17F07BEFBE
:102EF00017F07CEF17F07C817C51D8B482EF17F08B
:102F000084EF17F099EF17F07C29D8A48AEF17F017
:102F10008CEF17F094EF17F0000E6E6F000E6F6FCE
:102F2000000E706F000E716F708F000E716FA1EF49
:102F300017F0000E6E6F000E6F6F000E706F000EB8
:102F4000716F7551800B7B6F7A517B19D8B4ABEFE1
:102F500017F0ADEF17F0AEEF17F07A8D75517525BC
:102F60007B6F74AFB6EF17F0B8EF17F0B9EF17F04B
:102F70007B817B51D8B4BFEF17F0C1EF17F0D6EFCC
:102F800017F07B29D8A4C7EF17F0C9EF17F0D1EFDE
:102F900017F0000E726F000E736F000E746F000E4C
:102FA000756F748F000E756FDEEF17F0000E726F85
:102FB000000E736F000E746F000E756F7C517B5D99
:102FC000D8B0E5EF17F0E7EF17F00EEF18F07AAD95
:102FD000ECEF17F0EEEF17F0F0EF17F0800E7A1B22
:102FE0007CC57DF57BC57CF57DC57BF56EC57DF526
:102FF00072C56EF57DC572F56FC57DF573C56FF54C
:103000007DC573F570C57DF574C570F57DC574F526
:1030100071C57DF575C571F57DC575F5000E7D6FC2
:103020007C517BC576F5776B765F000E775B77BF5B
:1030300023EF18F0775109E11A0E765DD8A023EF3F
:1030400018F025EF18F05CEF18F06E516F11701149
:103050007111D8A42EEF18F031EF18F0010E32EFF5
:1030600018F0000E7D6F000E6E6F000E6F6F000E79
:10307000706F000E716F7BC57CF565EF18F07DA158
:1030800044EF18F046EF18F04CEF18F0D8907D316F
:1030900001097D6F4EEF18F0D8907D336EA153EF8C
:1030A00018F055EF18F056EF18F07D8F7135713329
:1030B00070336F336E337C2B7B517C5DD8A063EF14
:1030C00018F065EF18F03FEF18F07ABD6AEF18F0CE
:1030D0006CEF18F0ACEF18F07C51D8A472EF18F038
:1030E00074EF18F07EEF18F0000E6E6F000E6F6F29
:1030F000000E706F000E716FCDEF19F072516E27D8
:1031000073516F23745170237551712371A18BEF2B
:1031100018F08DEF18F039EF19F07DA192EF18F04B
:1031200094EF18F09AEF18F0D8907D3101097D6F77
:103130009CEF18F0D8907D336EA1A1EF18F0A3EFAB
:1031400018F0A4EF18F07D8F7135713370336F3341
:103150006E337C2B39EF19F072516E5D73516F59DC
:10316000745170597151800A766F7551800A765981
:10317000D8B0BDEF18F0BFEF18F0EAEF18F06E51BD
:10318000725D766F6F517359776F70517459786FA4
:1031900071517559796FFF0E76256E6FFF0E77218D
:1031A0006F6FFF0E7821706FFF0E7921716F800EA7
:1031B0007A1B7D6D7D51D8A4E0EF18F0E2EF18F096
:1031C000F2EF18F0010E6E27000E6F2370237123AB
:1031D000F2EF18F072516E5F73516F5B7451705B58
:1031E0007551715B6E516F1170117111D8A4FBEFA5
:1031F00018F0FDEF18F032EF19F07D51D8A403EF6D
:1032000019F005EF19F032EF19F0000E6E6F000E95
:103210006F6F000E706F000E716FCDEF19F0D890C8
:103220006E376F37703771377DAF19EF19F01BEFBD
:1032300019F01CEF19F06E817DA121EF19F023EF39
:1032400019F027EF19F0D8807D3729EF19F0D890C1
:103250007D377C51D8B42FEF19F031EF19F032EFF0
:1032600019F07C0770AF37EF19F039EF19F00FEF55
:1032700019F0000E7B6F7DAF40EF19F042EF19F0AF
:103280005AEF19F07DC576F57F0E7617D8B44BEF5F
:1032900019F04DEF19F051EF19F0010E7B6F5AEF55
:1032A00019F06EA156EF19F058EF19F05AEF19F016
:1032B0004DEF19F07B51D8B460EF19F062EF19F0BF
:1032C0008DEF19F0010E6E27000E6F23702371230E
:1032D00071A16DEF19F06FEF19F08DEF19F06EC558
:1032E00076F56FC577F570C578F571C579F57935DF
:1032F000793378337733763376C56EF577C56FF5E6
:1033000078C570F579C571F57C29D8B48AEF19F0C4
:103310008CEF19F08DEF19F07C2B7C29D8B493EF4A
:1033200019F095EF19F09DEF19F07C51D8A49BEF9F
:1033300019F09DEF19F0AFEF19F0000E6E6F000E4F
:103340006F6F000E706F000E716F7C51D8A4ABEFE1
:1033500019F0ADEF19F0AFEF19F0000E7A6F7CA104
:10336000B4EF19F0B6EF19F0B9EF19F0708FBAEFAA
:1033700019F0709FD8907C31716F7AAFC2EF19F05D
:10338000C4EF19F0C5EF19F0718F6EC56EF56FC5FA
:103390006FF570C570F571C571F512001250800B94
:1033A0001B6E125012241D6E11AED9EF19F0DBEF17
:1033B00019F0DCEF19F01D801D50D8B4E2EF19F0C0
:1033C000E4EF19F0F9EF19F01D28D8A4EAEF19F08D
:1033D000ECEF19F0F4EF19F0000E0F6E000E106E06
:1033E000000E116E000E126E118E000E126E01EFA5
:1033F0001AF0000E0F6E000E106E000E116E000E11
:10340000126E1650800B1C6E1B501C18D8B40BEF9C
:103410001AF00DEF1AF00EEF1AF01B8C165016244E
:103420001C6E15AE16EF1AF018EF1AF019EF1AF01D
:103430001C801C50D8B41FEF1AF021EF1AF036EFA1
:103440001AF01C28D8A427EF1AF029EF1AF031EF50
:103450001AF0000E136E000E146E000E156E000EA4
:10346000166E158E000E166E3EEF1AF0000E136EDD
:10347000000E146E000E156E000E166E1D501C5CB4
:10348000D8B045EF1AF047EF1AF06EEF1AF01BAC08
:103490004CEF1AF04EEF1AF050EF1AF0800E1B1A94
:1034A0001DC51EF51CC51DF51EC51CF50FC51EF559
:1034B00013C50FF51EC513F510C51EF514C510F57F
:1034C0001EC514F511C51EF515C511F51EC515F55A
:1034D00012C51EF516C512F51EC516F5000E1E6E98
:1034E0001D501CC517F5186A175E000E185A18BE35
:1034F00083EF1AF0185009E11A0E175CD8A083EF79
:103500001AF085EF1AF0BCEF1AF00F5010101110DE
:103510001210D8A48EEF1AF091EF1AF0010E92EF6C
:103520001AF0000E1E6E000E0F6E000E106E000ED2
:10353000116E000E126E1CC51DF5C5EF1AF01EA00F
:10354000A4EF1AF0A6EF1AF0ACEF1AF0D8901E30E4
:1035500001091E6EAEEF1AF0D8901E320FA0B3EF25
:103560001AF0B5EF1AF0B6EF1AF01E8E12341232BE
:10357000113210320F321D2A1C501D5CD8A0C3EF2F
:103580001AF0C5EF1AF09FEF1AF01BBCCAEF1AF041
:10359000CCEF1AF00CEF1BF01D50D8A4D2EF1AF0AC
:1035A000D4EF1AF0DEEF1AF0000E0F6E000E106E60
:1035B000000E116E000E126E2DEF1CF013500F2630
:1035C00014501022155011221650122212A0EBEFA7
:1035D0001AF0EDEF1AF099EF1BF01EA0F2EF1AF0BF
:1035E000F4EF1AF0FAEF1AF0D8901E3001091E6EAF
:1035F000FCEF1AF0D8901E320FA001EF1BF003EF82
:103600001BF004EF1BF01E8E1234123211321032F6
:103610000F321D2A99EF1BF013500F5C14501058F5
:10362000155011581250800A176E1650800A1758FC
:10363000D8B01DEF1BF01FEF1BF04AEF1BF00F502F
:10364000135C176E10501458186E11501558196EDF
:10365000125016581A6EFF0E17240F6EFF0E182008
:10366000106EFF0E1920116EFF0E1A20126E800EC2
:103670001B1A1E6C1E50D8A440EF1BF042EF1BF02B
:1036800052EF1BF0010E0F26000E10221122122203
:1036900052EF1BF013500F5E1450105A1550115A70
:1036A0001650125A0F50101011101210D8A45BEFC0
:1036B0001BF05DEF1BF092EF1BF01E50D8A463EFE0
:1036C0001BF065EF1BF092EF1BF0000E0F6E000E6B
:1036D000106E000E116E000E126E2DEF1CF0D890C1
:1036E0000F361036113612361EAE79EF1BF07BEF17
:1036F0001BF07CEF1BF00F801EA081EF1BF083EF0F
:103700001BF087EF1BF0D8801E3689EF1BF0D89096
:103710001E361D50D8B48FEF1BF091EF1BF092EFC7
:103720001BF01D0611AE97EF1BF099EF1BF06FEF2A
:103730001BF0000E1C6E1EAEA0EF1BF0A2EF1BF0E4
:10374000BAEF1BF01EC517F57F0E1716D8B4ABEFF6
:103750001BF0ADEF1BF0B1EF1BF0010E1C6EBAEFCA
:103760001BF00FA0B6EF1BF0B8EF1BF0BAEF1BF089
:10377000ADEF1BF01C50D8B4C0EF1BF0C2EF1BF034
:10378000EDEF1BF0010E0F26000E10221122122267
:1037900012A0CDEF1BF0CFEF1BF0EDEF1BF00FC52C
:1037A00017F510C518F511C519F512C51AF51A3413
:1037B0001A3219321832173217C50FF518C510F51D
:1037C00019C511F51AC512F51D28D8B4EAEF1BF07A
:1037D000ECEF1BF0EDEF1BF01D2A1D28D8B4F3EF22
:1037E0001BF0F5EF1BF0FDEF1BF01D50D8A4FBEF15
:1037F0001BF0FDEF1BF00FEF1CF0000E0F6E000E24
:10380000106E000E116E000E126E1D50D8A40BEF3C
:103810001CF00DEF1CF00FEF1CF0000E1B6E1DA036
:1038200014EF1CF016EF1CF019EF1CF0118E1AEFBC
:103830001CF0119ED8901D30126E1BAE22EF1CF0B2
:1038400024EF1CF025EF1CF0128E0FC50FF510C5EC
:1038500010F511C511F512C512F5120005018151BF
:10386000800B8A6F81518125906F80AF3AEF1CF0F9
:103870003CEF1CF03DEF1CF090819051D8B443EF29
:103880001CF045EF1CF058EF1CF09029D8A44BEF2A
:103890001CF04DEF1CF055EF1CF0000E7E6F000E7B
:1038A0007F6F000E806F000E816F808F60EF1CF0C5
:1038B000000E7E6F000E7F6F000E806F000E816F16
:1038C0008551800B8A1B855185258F6F84AF6BEFE7
:1038D0001CF06DEF1CF06EEF1CF08F818F51D8B48F
:1038E00074EF1CF076EF1CF089EF1CF08F29D8A440
:1038F0007CEF1CF07EEF1CF086EF1CF0000E826F58
:10390000000E836F000E846F000E856F848F91EF21
:103910001CF0000E826F000E836F000E846F000E8D
:10392000856F8F51D8B497EF1CF099EF1CF0A1EF81
:103930001CF09051D8A49FEF1CF0A1EF1CF0ABEF4E
:103940001CF0000E7E6F000E7F6F000E806F000E69
:10395000816F55EF1EF084517E036100CCF395F525
:103960006100D0F396F595518B6F8C6B8D6B8E6BE0
:103970009651916F926B936B946B83517F036100AF
:10398000CCF395F56100D0F396F595518B27000E99
:103990008C238D238E2396519127000E92239323FF
:1039A0009423825180036100CCF395F56100D0F33C
:1039B00096F595518B27000E8C238D238E239651DF
:1039C0009127000E9223932394238DC58EF58CC5E9
:1039D0008DF58BC58CF58B6B82517F036100CCF329
:1039E00095F56100D0F396F595518B2796518C2370
:1039F000000E8D23000E8E2383517E036100CCF3D5
:103A000095F56100D0F396F595518B2796518C234F
:103A1000000E8D23000E8E238DC58EF58CC58DF581
:103A20008BC58CF58B6B82517E036100CCF395F5D1
:103A30006100D0F396F595518B2796518C23000E9B
:103A40008D23000E8E2384517F036100CCF395F506
:103A50006100D0F396F59551912796519223000E6F
:103A60009323000E9423835180036100CCF395F5DA
:103A70006100D0F396F59551912796519223000E4F
:103A80009323000E9423845180036100CCF395F5B9
:103A90006100D0F396F59551866F9651876F886BCC
:103AA000896B88C589F587C588F586C587F5866BD6
:103AB00086519127875192238851932389519423CA
:103AC0008BC586F58CC587F58DC588F58EC589F5BE
:103AD000190E70EF1DF0D890893388338733863301
:103AE000E82E6BEF1DF08651912787519223885164
:103AF0009323895194238DC58EF58CC58DF58BC587
:103B00008CF58B6B8F5190C586F5876B8627000EE1
:103B10008723820E8625956FFF0E8721966FA6EF6D
:103B20001DF0D89091379237933794378EAF9BEF33
:103B30001DF09DEF1DF09EEF1DF09181D8908B3709
:103B40008C378D378E379507D8A0960793AFABEF9C
:103B50001DF0ADEF1DF091EF1DF0000E8F6F8EAFD9
:103B6000B4EF1DF0B6EF1DF0DAEF1DF0FF0E8B1570
:103B7000866FFF0E8C15876FFF0E8D15886F7F0E79
:103B80008E15896F8651871188118911D8B4CBEFB2
:103B90001DF0CDEF1DF0D1EF1DF0010E8F6FDAEFAC
:103BA0001DF091A1D6EF1DF0D8EF1DF0DAEF1DF05A
:103BB000CDEF1DF08F51D8B4E0EF1DF0E2EF1DF016
:103BC00006EF1EF0010E9127000E922393239423FB
:103BD00094A1EDEF1DF0EFEF1DF006EF1EF091C583
:103BE00086F592C587F593C588F594C589F589351D
:103BF000893388338733863386C591F587C592F537
:103C000088C593F589C594F5954B962B96BF11EF12
:103C10001EF0965108E19529D8A011EF1EF013EF80
:103C20001EF01DEF1EF0000E916F000E926F800EC1
:103C3000936F7F0E946F4BEF1EF096BF2AEF1EF02E
:103C4000965106E19505D8B028EF1EF02AEF1EF038
:103C500036EF1EF0000E916F000E926F000E936F04
:103C6000000E946F000E8A6F4BEF1EF095C590F515
:103C7000FF0E9117FF0E92177F0E9317000E9417E9
:103C800090A145EF1EF047EF1EF048EF1EF0938F16
:103C9000D8909031946F8A51941391C57EF592C556
:103CA0007FF593C580F594C581F512000501A651F5
:103CB000800BB36FA651A625BA6FA5AF62EF1EF0B9
:103CC00064EF1EF065EF1EF0BA81BA51D8B46BEF05
:103CD0001EF06DEF1EF082EF1EF0BA29D8A473EF2C
:103CE0001EF075EF1EF07DEF1EF0000EA36F000EAC
:103CF000A46F000EA56F000EA66FA58F000EA66F15
:103D00008AEF1EF0000EA36F000EA46F000EA56FC9
:103D1000000EA66FAA51800BB31BAA51AA25BB6F38
:103D2000A9AF95EF1EF097EF1EF098EF1EF0BB8144
:103D3000BB51D8B49EEF1EF0A0EF1EF0B5EF1EF001
:103D4000BB29D8A4A6EF1EF0A8EF1EF0B0EF1EF01E
:103D5000000EA76F000EA86F000EA96F000EAA6FCD
:103D6000A98F000EAA6FBDEF1EF0000EA76F000E08
:103D7000A86F000EA96F000EAA6FA751A811A91174
:103D8000AA11D8A4C6EF1EF0C8EF1EF0E0EF1EF097
:103D9000000EA36F000EA46F000EA56F000EA66F9D
:103DA000800EA5137F0EA613B351A613A3C5A3F5CA
:103DB000A4C5A4F5A5C5A5F5A6C5A6F523EF20F0D5
:103DC000BA51D8A4E6EF1EF0E8EF1EF0F2EF1EF0B5
:103DD000000EA36F000EA46F000EA56F000EA66F5D
:103DE00023EF20F0BB51BAC5ABF5AC6BAB5F000E57
:103DF000AC5B7F0EAB25B46F000EAC21B56FA3C5D5
:103E0000AFF5A4C5B0F5A5C5B1F5A6C5B2F5000ED0
:103E1000A36F000EA46F000EA56F000EA66F000E1C
:103E2000B66F000EB76F000EB86F000EB96F000EC0
:103E3000BB6F53EF1FF0BB51D8B421EF1FF023EF3E
:103E40001FF03AEF1FF0D890AF37B037B137B23725
:103E5000D890A337A437A537A637B9AF32EF1FF0F4
:103E600034EF1FF035EF1FF0A381D890B637B73786
:103E7000B837B937A751AF5DA851B059A951B15959
:103E8000AA51B259D8A047EF1FF049EF1FF052EFE7
:103E90001FF0B98DA751AF5FA851B05BA951B15BBD
:103EA000AA51B25BBB2B190EBB6559EF1FF05BEF3C
:103EB0001FF01BEF1FF0AF51B011B111B211D8B408
:103EC00064EF1FF066EF1FF07EEF1FF0B6817EEF0C
:103ED0001FF0D890A337A437A537A637B9AF73EF33
:103EE0001FF075EF1FF076EF1FF0A381D890B63763
:103EF000B737B837B937B407D8A0B507A5AF83EF40
:103F00001FF085EF1FF069EF1FF0000EBB6FB9AF18
:103F10008CEF1FF08EEF1FF0B2EF1FF0FF0EB61503
:103F2000AB6FFF0EB715AC6FFF0EB815AD6F7F0E00
:103F3000B915AE6FAB51AC11AD11AE11D8B4A3EF42
:103F40001FF0A5EF1FF0A9EF1FF0010EBB6FB2EF3E
:103F50001FF0A3A1AEEF1FF0B0EF1FF0B2EF1FF004
:103F6000A5EF1FF0BB51D8B4B8EF1FF0BAEF1FF0A8
:103F7000DEEF1FF0010EA327000EA423A523A62326
:103F8000A6A1C5EF1FF0C7EF1FF0DEEF1FF0A3C51E
:103F9000ABF5A4C5ACF5A5C5ADF5A6C5AEF5AE357A
:103FA000AE33AD33AC33AB33ABC5A3F5ACC5A4F581
:103FB000ADC5A5F5AEC5A6F5B44BB52BB5BFE9EFBC
:103FC0001FF0B55108E1B429D8A0E9EF1FF0EBEFDD
:103FD0001FF0F6EF1FF0000EB56FB469000EA36F6F
:103FE000000EA46F000EA56F000EA66FB5BF03EF05
:103FF00020F0B55106E1B405D8B001EF20F003EF91
:1040000020F011EF20F0000EB56F000EB46F000E1F
:10401000A36F000EA46F000EA56F000EA66F000E1A
:10402000B36FB4C5BAF5BAA118EF20F01AEF20F0BB
:104030001DEF20F0A58F1EEF20F0A59FD890BA317C
:10404000A66FD4EF1EF01200610038F4D9F46100BD
:104050003CF4DAF4610078F313F5610078F314F5B9
:10406000610078F315F5610078F316F520EE04F0A1
:104070000E50D9260F50DA22DFA041EF20F043EF97
:1040800020F07DEF20F020EE01F00C50D9260D50ED
:10409000DA221338E842F80BF80BDF6E050E106ECB
:1040A000D8901632153214321332102E50EF20F001
:1040B00020EE02F00C50D9260D50DA2261004CF4AB
:1040C000DFF414C513F515C514F516C515F5166AF4
:1040D00020EE03F00C50D9260D50DA2213501F0B9E
:1040E000DF6E050E106ED890163215321432133270
:1040F000102E73EF20F095EF20F020EE03F00C501F
:10410000D9260D50DA22000EDF6E10EE02F00C50B0
:10411000E1260D50E222DFC4E7F420EE01F00C505E
:10412000D9260D50DA22E7C4DFF4610030F4D9F467
:10413000610034F4DAF461004CF4DFF414C513F5D3
:1041400015C514F516C515F5166A13C510F5070E35
:10415000101620EE01F00C50D9260D50DA22105026
:10416000DF1220EE04F00E50D9260F50DA22DF3095
:10417000E8320F0B126E20EE04F00E50D9260F50CD
:10418000DA22DFB0C6EF20F0CAEF20F0106A102A62
:10419000CBEF20F0106A1038F00B121220EE04F072
:1041A0000E50D9260F50DA22DFB2D9EF20F0DDEF22
:1041B00020F0200E106EDEEF20F0106A1050121268
:1041C00020EE04F00E50D9260F50DA22DFBEEBEFBE
:1041D00020F0EFEF20F0400E106EF0EF20F0106AAC
:1041E0001050121220EE04F00E50D9260F50DA2291
:1041F000DFBCFDEF20F001EF21F0800E106E02EF2A
:1042000021F0106A1050121220EE04F00C50D92642
:104210000D50DA22610048F4DFF420EE04F00E5075
:10422000D9260F50DA22DFB218EF21F01AEF21F071
:1042300046EF21F0080E0C24016E000E0D20026ED8
:1042400020EE05F00E50D9260F50DA22610078F3E7
:1042500003F5610074F304F520EE04F00E50D92646
:104260000F50DA22DF30E8320F0B106E116A270E82
:104270001024F66E260E1120F76EF86A000EF82252
:104280000800F550056E066ABBEC38F0120020EE0F
:1042900004F00C50D9260D50DA22DF50166E16C5E8
:1042A00010F520EE04F00E50D9260F50DA221046F9
:1042B0001046DF501018C30B1018DF6E16B863EFEE
:1042C00021F067EF21F0106A102A68EF21F0106AE0
:1042D00020EE04F00E50D9260F50DA22DF501018CD
:1042E000FE0B1018DF6E16BA78EF21F07CEF21F08C
:1042F000106A102A7DEF21F0106A20EE04F00E50B3
:10430000D9260F50DA221046DF501018FD0B101876
:10431000DF6E16BC8EEF21F092EF21F0106A102AAA
:1043200093EF21F0106A20EE04F00E50D9260F50C2
:10433000DA2210321032DF5010187F0B1018DF6EA7
:1043400016BEA5EF21F0A9EF21F0106A102AAAEFFE
:1043500021F0106A20EE04F00E50D9260F50DA2218
:10436000103A10461046DF501018BF0B1018DF6EC1
:1043700020EE01F00C50D9260D50DA22DF50106EDD
:10438000070E10161050126E136A146A156A14C5BF
:1043900015F513C514F512C513F5126A610030F452
:1043A000D9F4610034F4DAF4DF50106E10501212B8
:1043B00020EE04F00E50D9260F50DA22DFA0E3EFF2
:1043C00021F0E5EF21F026EF22F0050ED89012360D
:1043D000133614361536E82EE6EF21F020EE03F002
:1043E0000C50D9260D50DA22DF50106E1F0E101619
:1043F0001050121214C515F513C514F512C513F596
:10440000126A20EE02F00C50D9260D50DA22DF504D
:10441000106E10501212050ED89012361336143644
:104420001536E82E0CEF22F020EE01F00C50D926C4
:104430000D50DA22DF50106ED8901032D890103222
:10444000D89010321F0E101610501212610038F45E
:10445000D9F461003CF4DAF4610048F4DEF4610060
:104460004CF4DEF4610050F4DEF4610054F4DEF448
:104470009B0E016E060E026E080E0C24036E000EDB
:104480000D20046E20EE04F00E50D9260F50DA22D3
:10449000DF30E8320F0B106E116A270E1024F66E13
:1044A000260E1120F76EF86A000EF8220800F5506B
:1044B000056E066ABBEC38F020EE05F00E50D926EA
:1044C0000F50DA229B0EDE6E060EDD6E1200020E1B
:1044D0000301F96F3F0EFA6F000ED86F000EFB6FED
:1044E000000ED96F000EDA6F000EDB6F000EDC6F6E
:1044F000000EDF6F000EE06F000EE36F000EE46F42
:10450000000EE56F000EE66F000EE76F000EEA6F1B
:10451000000EEB6F100EEC6FE80EEE6F030EEF6FF8
:10452000000EF06F000EF16F000EF26F000EF36FD1
:10453000000EF46F100EF56F000EF66F000EF76FA1
:10454000000EF86F000EFC6F010EFB6F000ED96FAE
:10455000000EDA6F000EDB6F000EDC6F000EDF6FF7
:10456000000EE06F000EE36F000EE46F000EE56FCB
:10457000000EE66F000EE76F000EEA6F000EEB6FA5
:10458000040EEC6FE80EEE6F030EEF6F000EF06F8F
:10459000000EF16F000EF26F000EF36F000EF46F5D
:1045A000100EF56F000EF66F000EF76F000EF86F2D
:1045B000000EFD6F020EFB6F000ED96F000EDA6F5A
:1045C000000EDB6F000EDC6F000EDF6F000EE06F81
:1045D000000EE36F000EE46F000EE56F000EE66F55
:1045E000000EE76F000EEA6F000EEB6F120EEC6F1D
:1045F000E80EEE6F030EEF6F000EF06F000EF16F1E
:10460000000EF26F000EF36F000EF46F100EF56FD8
:10461000000EF66F000EF76F000EF86F000EFE6FC3
:10462000030EFB6F000ED96F000EDA6F000EDB6F0A
:10463000000EDC6F000EDF6F000EE06F000EE36F08
:10464000000EE46F000EE56F000EE66F000EE76FE0
:10465000000EEA6F000EEB6F110EEC6FE80EEE6FBE
:10466000030EEF6F000EF06F000EF16F000EF26F91
:10467000000EF36F000EF46F100EF56F000EF66F64
:10468000000EF76F000EF86F000EFF6FAF94AF963D
:10469000B090B092B094B096000E0501606F000E1D
:1046A000616F0BEC3DF0000E0501606F000E616F55
:1046B00001EC3DF0000E0501606F000E616FFCEC37
:1046C0003CF0000E0501606F000E616FF7EC3CF0EE
:1046D000000E0501606F000E616FF2EC3CF0000E01
:1046E0000501606F000E616F06EC3DF0840E030162
:1046F000F36F12004EEC31F00009D8B482EF23F0D2
:1047000084EF23F080EF24F0AB0E216E060E226EB4
:10471000E8EC38F0E806D8A490EF23F092EF23F00D
:1047200080EF24F000F0ABC639F5ACC63AF5ADC663
:104730003BF5AEC63CF56100C0FAD9F46100C4FA9D
:10474000DAF4DF50446E060120EE01F0B051D926B4
:10475000B151DA22DF50436E20EE02F0B051D9267B
:10476000B151DA22DF50406E20EE03F0B051D9266D
:10477000B151DA22DF50416E20EE04F0B051D9265B
:10478000B151DA22DF50426E20EE05F0B051D92649
:10479000B151DA22DF503D6E20EE06F0B051D9263D
:1047A000B151DA22DF503E6E20EE07F0B051D9262B
:1047B000B151DA22DF503F6E3AEF24F044C595F64E
:1047C00043C597F640C594F641C593F642C592F6A7
:1047D0000501FC05D8A4EFEF23F0F1EF23F080EF03
:1047E00024F0010E0601966F80EF24F04450070B71
:1047F000916F4450180B906F4450E00B8F6F4350F3
:10480000010B8E6F4350060B8D6F4350780B8C6FEE
:1048100080EF24F044C58AF643C589F640C588F682
:1048200041C587F642C586F63DC585F63EC584F688
:104830003FC583F680EF24F044C5FCF50501FC512B
:104840005DEC39F080EF24F044C580F60501FC51A1
:10485000D8A42DEF24F02FEF24F080EF24F0000EE9
:10486000336E060180512CEC34F080EF24F000F020
:1048700080EF24F039C535F53AC536F53BC537F537
:104880003CC538F53850000AD8B479EF24F037EF3A
:1048900024F03650030AD8B458EF24F0070AD8B4ED
:1048A00063EF24F0010AD8B46AEF24F037EF24F064
:1048B0003550200AD8B4DEEF23F0670AD8B41CEFD5
:1048C00024F037EF24F03550120AD8B424EF24F046
:1048D00037EF24F03550000AD8B4F6EF23F0010A80
:1048E000D8B40AEF24F0030AD8B480EF24F037EFED
:1048F00024F03750000AD8B449EF24F037EF24F001
:1049000012004BC57AF54CC57BF505017C6B7D6BC0
:1049100040C67EF541C67FF5806B816B3EC682F551
:104920003FC683F5846B856BE9EC30F07AC551F5B1
:104930007BC552F549C57AF54AC57BF505017C6B07
:104940007D6B3CC67EF53DC67FF5806B816B3AC6BC
:1049500082F53BC683F5846B856BE9EC30F07AC554
:104960004FF57BC550F54F5051240501866F5050CF
:104970005220876FD8908731886F86314D6E88C5F9
:104980004EF500F0640E4B240501866F000E4C209E
:10499000876F886B896B060128510501865D0601CA
:1049A00029510501875906012A5105018859895164
:1049B000800A8A6F06012B51800A05018A59D8A006
:1049C000E4EF24F0E6EF24F007EF25F09C0E4B24F3
:1049D000866FFF0E4C20876F886B896B86510601AE
:1049E000285D0501875106012959050188510601F5
:1049F0002A592B51800A05018A6F8951800A8A59E8
:104A0000D8B005EF25F007EF25F00AEF25F0598023
:104A10000CEF25F0FE0E5912640E4924866F000E2D
:104A20004A20876F886B896B060124510501865DDA
:104A300006012551050187590601265105018859AE
:104A40008951800A8A6F06012751800A05018A5917
:104A5000D8A02DEF25F02FEF25F050EF25F09C0E7C
:104A60004924866FFF0E4A20876F886B896B8651B9
:104A70000601245D0501875106012559050188516C
:104A8000060126592751800A05018A6F8951800A3B
:104A90008A59D8B04EEF25F050EF25F053EF25F0AE
:104AA000598255EF25F0FD0E5912050EFB19D8A4B9
:104AB0005CEF25F05EEF25F061EF25F059847AEF89
:104AC00025F0090EFB19D8A468EF25F06AEF25F050
:104AD0006DEF25F059947AEF25F0060EFB19D8A456
:104AE00074EF25F076EF25F078EF25F06AEF25F0EA
:104AF0005EEF25F012000501686F05016851D8B41A
:104B000084EF25F086EF25F0A8EF25F063BF8DEF49
:104B100025F08BEF25F0A8EF25F060C564F561C5A1
:104B200065F562C566F563C567F5641F651F661F99
:104B3000671F642B000E65236623672364C56AF52F
:104B400065C56BF566C56CF567C56DF5B0EF25F00D
:104B500060C56AF561C56BF562C56CF563C56DF539
:104B60006051611162116311D8A4B9EF25F0BBEF58
:104B700025F0C5EF25F0000E606F000E616F000E8E
:104B8000626F000E636F56EF26F0960E696FCFEFDF
:104B900025F0692BD8906D336C336B336A33000E7C
:104BA0006A15646F000E6B15656F000E6C15666FED
:104BB000FE0E6D15676F6451651166116711D8A4FB
:104BC000E4EF25F0E6EF25F0C9EF25F0F4EF25F04E
:104BD000692B010E6A27000E6B236C236D23D8907E
:104BE0006D336C336B336A33000E6A15646F000EDD
:104BF0006B15656F000E6C15666FFF0E6D15676F98
:104C00006451651166116711D8A409EF26F00BEF06
:104C100026F0E8EF25F013EF26F06907D8906A3701
:104C20006B376C376D376CBF18EF26F01AEF26F034
:104C300022EF26F0020E696120EF26F022EF26F027
:104C40000DEF26F069B127EF26F029EF26F02AEFC5
:104C500026F06C9FD890693369C564F5656B666B07
:104C6000676B64C567F5666B656B646B64516A134B
:104C700065516B1366516C1367516D136851D8B44D
:104C800044EF26F046EF26F04EEF26F063BF4DEFDF
:104C900026F04BEF26F04EEF26F06D8F6AC560F5DB
:104CA0006BC561F56CC562F56DC563F512004BC54A
:104CB0001BF54CC51CF51D6A1E6A40C61FF541C692
:104CC00020F5216A226A3EC623F53FC624F5256AEF
:104CD000266AB3EC31F01BC551F51CC552F549C528
:104CE0001BF54AC51CF51D6A1E6A3CC61FF53DC66C
:104CF00020F5216A226A3AC623F53BC624F5256AC7
:104D0000266AB3EC31F01BC54FF51CC550F54F506A
:104D10005124276E50505220286ED8902830296E8A
:104D200027304D6E29C54EF500F0640E4B24276EDA
:104D3000000E4C20286E296A2A6A06012851275C39
:104D4000295128582A5129582A50800A2B6E2B5154
:104D5000800A2B58D8A0AFEF26F0B1EF26F0CCEFA9
:104D600026F09C0E4B24276EFF0E4C20286E296ADD
:104D70002A6A2750285D2850295929502A592B5131
:104D8000800A2B6E2A50800A2B58D8B0CAEF26F022
:104D9000CCEF26F0CFEF26F05980D1EF26F0FE0EB3
:104DA0005912640E4924276E000E4A20286E296A83
:104DB0002A6A2451275C25512858265129582A50FF
:104DC000800A2B6E2751800A2B58D8A0EAEF26F0D4
:104DD000ECEF26F007EF27F09C0E4924276EFF0E1C
:104DE0004A20286E296A2A6A2750245D28502559AE
:104DF000295026592751800A2B6E2A50800A2B5899
:104E0000D8B005EF27F007EF27F00AEF27F0598217
:104E10000CEF27F0FD0E5912050E0501FB19D8A461
:104E200014EF27F016EF27F019EF27F0598432EF2F
:104E300027F0090EFB19D8A420EF27F022EF27F066
:104E400025EF27F0599432EF27F0060EFB19D8A46E
:104E50002CEF27F02EEF27F030EF27F022EF27F08E
:104E600016EF27F01200096E0950D8B43AEF27F078
:104E70003CEF27F05EEF27F004BE43EF27F041EF51
:104E800027F05EEF27F001C505F502C506F503C55D
:104E900007F504C508F5051E061E071E081E052A8F
:104EA000000E06220722082205C50BF506C50CF5E3
:104EB00007C50DF508C50EF566EF27F001C50BF522
:104EC00002C50CF503C50DF504C50EF50150021021
:104ED00003100410D8A46FEF27F071EF27F07BEFD9
:104EE00027F0000E016E000E026E000E036E000E23
:104EF000046E0CEF28F0960E0A6E85EF27F00A2A52
:104F0000D8900E320D320C320B32000E0B14056E9F
:104F1000000E0C14066E000E0D14076EFE0E0E141D
:104F2000086E0550061007100810D8A49AEF27F055
:104F30009CEF27F07FEF27F0AAEF27F00A2A010E57
:104F40000B26000E0C220D220E22D8900E320D32AE
:104F50000C320B32000E0B14056E000E0C14066E94
:104F6000000E0D14076EFF0E0E14086E055006108D
:104F700007100810D8A4BFEF27F0C1EF27F09EEF6D
:104F800027F0C9EF27F00A06D8900B360C360D36FD
:104F90000E360DBECEEF27F0D0EF27F0D8EF27F07A
:104FA000020E0A60D6EF27F0D8EF27F0C3EF27F004
:104FB0000AB0DDEF27F0DFEF27F0E0EF27F00D9EDE
:104FC000D8900A320AC505F5066A076A086A05C557
:104FD00008F5076A066A056A05500B1206500C129E
:104FE00007500D1208500E120950D8B4FAEF27F0EE
:104FF000FCEF27F004EF28F004BE03EF28F001EFE8
:1050000028F004EF28F00E8E0BC501F50CC502F553
:105010000DC503F50EC504F512000501F96F4DC568
:1050200060F50501F95135EC33F05B04D8A41BEFB2
:1050300028F01DEF28F0C2EF28F00601D205D8A411
:1050400024EF28F026EF28F0C2EF28F0F9C534F657
:10505000356B0501FC51F619D8A431EF28F033EF78
:1050600028F0CDEF28F0FC05D8A439EF28F03BEF6D
:1050700028F07FEF28F04DC560F54EC561F5626BF5
:10508000636B000E7BEC25F060C5C2F561C5C3F50E
:1050900062C5C4F563C5C5F50501F951606F616B63
:1050A000626B636B000E7BEC25F060C5BEF561C5DD
:1050B000BFF562C5C0F563C5C1F5000E0501BC6F43
:1050C000070EBD6F5EEC13F0BCC5E2F5BDC5E3F5A0
:1050D000BEC5E4F5BFC5E5F5C4EC2BF0E2C5F7F5B8
:1050E000E3C5F8F5F7C5ECF5F8C5EDF5020E0501D9
:1050F000EF6F580EEE6F4EEC2DF0CDEF28F0FC5117
:10510000D8A485EF28F087EF28F0C0EF28F04DC530
:1051100060F54EC561F5626B636B000E7BEC25F0AC
:1051200060C5C2F561C5C3F562C5C4F563C5C5F503
:105130000501F951606F616B626B636B000E7BEC74
:1051400025F060C5BEF561C5BFF562C5C0F563C594
:10515000C1F5000E0501BC6F070EBD6F5EEC13F0CC
:10516000BCC5E2F5BDC5E3F5BEC5E4F5BFC5E5F5D3
:10517000C4EC2BF0E2C5F7F5E3C5F8F572EF28F0C3
:10518000CDEF28F0000E0501ED6F000EEC6F020E62
:10519000EF6F580EEE6F4EEC2DF0120001011DAFB7
:1051A000D4EF28F0D6EF28F0E5EF28F002D8E3EFAF
:1051B00028F00500FA6E06017051FD6E7151FE6E09
:1051C000FF6AFA50120001011D9F1DADEAEF28F0A1
:1051D000ECEF28F0FBEF28F002D8F9EF28F00500FB
:1051E000FA6E06016E51FD6E6F51FE6EFF6AFA5047
:1051F000120001011D9D1DAB00EF29F002EF29F007
:1052000011EF29F002D80FEF29F00500FA6E060120
:105210006C51FD6E6D51FE6EFF6AFA501200010175
:105220001D9B1CA716EF29F018EF29F027EF29F096
:1052300002D825EF29F00500FA6E06016A51FD6ECD
:105240006B51FE6EFF6AFA50120001011C971DA9F6
:105250002CEF29F02EEF29F03DEF29F002D83BEF9B
:1052600029F00500FA6E06016851FD6E6951FE6E67
:10527000FF6AFA50120001011D991DA542EF29F0A5
:1052800044EF29F05AEF29F002D851EF29F0050038
:10529000FA6E06016651FD6E6751FE6EFF6AFA50A6
:1052A0001200010154A957EF29F059EF29F05AEFE4
:1052B00029F054991DA75FEF29F061EF29F077EFEE
:1052C00029F002D86EEF29F00500FA6E060164514C
:1052D000FD6E6551FE6EFF6AFA501200010160A773
:1052E00074EF29F076EF29F077EF29F06097AE9C04
:1052F0001200000E0501ED6F000EEC6F020EEF6F55
:10530000580EEE6F4EEC2DF0030E0501F76F8A0E6E
:10531000F66F550EE82EFED7F62FFCD7F72FFAD7EB
:1053200000D0FBEC39F0020E0501F76F450EF66F69
:10533000A90EE82EFED7F62FFCD7F72FFAD700D00C
:10534000640E4B240601406F000E4C20416F9C0EF2
:1053500049243C6FFF0E4A203D6F00F0000E05010E
:10536000ED6F640EEC6F020EEF6F580EEE6F4EECA9
:105370002DF0070E0501F76F580EF66F590EE82E47
:10538000FED7F62FFCD7F72FFAD700D0FBEC39F079
:10539000020E0501F76F450EF66FA90EE82EFED737
:1053A000F62FFCD7F72FFAD700D0640E4B24060156
:1053B0003E6F000E4C203F6F9C0E49243A6FFF0E4B
:1053C0004A203B6F00F0000E0501ED6F140EEC6FEC
:1053D000010EEF6F900EEE6F4EEC2DF0030E0501F7
:1053E000F76F8A0EF66F550EE82EFED7F62FFCD714
:1053F000F72FFAD700D0000E0501ED6F140EEC6FF9
:10540000020EEF6F580EEE6F4EEC2DF0030E0501FD
:10541000F76F8A0EF66F550EE82EFED7F62FFCD7E3
:10542000F72FFAD700D0000E0501ED6F000EEC6FDC
:10543000010EEF6F2C0EEE6F4EEC2DF012000501F9
:10544000696F62EF2AF01AEC3DF0000E7FEC3CF041
:10545000100E9EEC39F060C56AF561C56BF5010E62
:1054600005016C6F80EF2AF01AEC3DF0010E7FEC25
:105470003CF0040E9EEC39F060C56AF561C56BF531
:105480002FEF2AF01AEC3DF0020E7FEC3CF0120EEA
:105490009EEC39F060C56AF561C56BF52FEF2AF017
:1054A0001AEC3DF0030E7FEC3CF0110E9EEC39F04F
:1054B00060C56AF561C56BF52FEF2AF0020E6C6FBF
:1054C00080EF2AF005016951676F686B6851000A27
:1054D000D8B46DEF2AF05EEF2AF06751010AD8B414
:1054E00042EF2AF0030AD8B450EF2AF0010AD8B4E8
:1054F00023EF2AF0070AD8B434EF2AF05EEF2AF03F
:105500006C05D8A486EF2AF088EF2AF0B6EF2AF0CF
:105510006B5107E1070E6A5DD8B091EF2AF093EF67
:105520002AF099EF2AF0000E6E6F000E6D6FA3EF58
:105530002AF06AC56DF56BC56EF5FB0E6D256D6FB6
:10554000FF0E6E216E6F890E6D5D130E6E59D8A021
:10555000ACEF2AF0AEEF2AF0B0EF2AF0B6EF2AF067
:105560006DC565F56EC566F5B6EF2AF01200000E42
:105570000501756F73BFC1EF2AF0BFEF2AF0CBEFC3
:105580002AF0731F721F711F706D000E712372233A
:105590007323010E756F6FBFD2EF2AF0D0EF2AF0A0
:1055A000DCEF2AF06F1F6E1F6D1F6C6D000E6D23F8
:1055B0006E236F23010E751B000E766F000E776F42
:1055C000000E786F000E796F7051711172117311A6
:1055D000D8B4EDEF2AF0EFEF2AF025EF2BF0010E13
:1055E000746FF9EF2AF0D8907037713772377337CC
:1055F000742B73AFFEEF2AF000EF2BF0F3EF2AF0DD
:10560000D890763777377837793770516C5D71512C
:105610006D5972516E5973516F59D8A012EF2BF01A
:1056200014EF2BF01DEF2BF070516C5F71516D5B1F
:1056300072516E5B73516F5B7681D89073337233A6
:1056400071337033742F00EF2BF07551D8B42BEFFA
:105650002BF02DEF2BF035EF2BF0791F781F771FF4
:10566000766D000E77237823792376C56CF577C5A0
:105670006DF578C56EF579C56FF51200000E166EE2
:1056800014BE47EF2BF045EF2BF051EF2BF0141E1B
:10569000131E121E116C000E122213221422010E70
:1056A000166E10BE58EF2BF056EF2BF062EF2BF07A
:1056B000101E0F1E0E1E0D6C000E0E220F22102249
:1056C000010E161A000E176E000E186E000E196EDF
:1056D000000E1A6E1150121013101410D8B473EF7C
:1056E0002BF075EF2BF0ABEF2BF0010E156E7FEF6B
:1056F0002BF0D8901136123613361436152A14AE04
:1057000084EF2BF086EF2BF079EF2BF0D890173643
:10571000183619361A3611500D5C12500E581350A7
:105720000F5814501058D8A098EF2BF09AEF2BF088
:10573000A3EF2BF011500D5E12500E5A13500F5A5A
:105740001450105A1780D89014321332123211327A
:10575000152E86EF2BF01650D8B4B1EF2BF0B3EF27
:105760002BF0BBEF2BF01A1E191E181E176C000E23
:10577000182219221A2217C50DF518C50EF519C5DC
:105780000FF51AC510F512000501E435E535EB6F8C
:10579000EB51D8A4CEEF2BF0D0EF2BF0DAEF2BF0BB
:1057A000000EE26F000EE36F000EE46F000EE56F77
:1057B00047EF2CF0E2C5E6F5E3C5E7F5E4C5E8F50B
:1057C000E5C5E9F5200EEAEF2BF0D890E933E83390
:1057D000E733E633E82EE5EF2BF0E651EA6FE48F8E
:1057E000FF0EE217FF0EE317FF0EE417000EE5179A
:1057F000960EEB5FEBBF01EF2CF0FFEF2BF017EFF6
:105800002CF0EB51800A970FD8B009EF2CF00BEF7A
:105810002CF00DEF2CF0D0EF2BF0D890E533E433E3
:10582000E333E233EB3F0DEF2CF02FEF2CF01F0EA4
:10583000EB651DEF2CF01FEF2CF027EF2CF0D0EFD5
:105840002BF0D890E237E337E437E537EB07EB513D
:10585000D8A42DEF2CF02FEF2CF021EF2CF0EA51F3
:10586000D8B435EF2CF037EF2CF03FEF2CF0E51FDC
:10587000E41FE31FE26D000EE323E423E523E2C50A
:10588000E2F5E3C5E3F5E4C5E4F5E5C5E5F51200A9
:10589000000E05016015686F000E6115696F800EBE
:1058A00062156A6F7F0E63156B6F685169116A111B
:1058B0006B11D8A45EEF2CF060EF2CF068EF2CF0A9
:1058C000000E606F000E616F000E626F000E636F5E
:1058D000000E6415686F000E6515696F800E661501
:1058E0006A6F7F0E67156B6F685169116A116B11D2
:1058F000D8A47DEF2CF07FEF2CF087EF2CF0000E7A
:10590000646F000E656F000E666F000E676F63AF09
:105910008CEF2CF08EEF2CF097EF2CF0606D611F68
:10592000D8B0612B621FD8B0622B800E635767AF6F
:105930009CEF2CF09EEF2CF0A7EF2CF0646D651F10
:10594000D8B0652B661FD8B0662B800E6757000E47
:10595000601B000E611B000E621B800E631B000E9D
:10596000641B000E651B000E661B800E671B6451D6
:10597000605D655161596651625967516359D8B08C
:10598000C4EF2CF0C6EF2CF0C9EF2CF0D890CAEF82
:105990002CF0D880120021342234286E2850D8A44C
:1059A000D4EF2CF0D6EF2CF0E0EF2CF0000E1F6EB1
:1059B000000E206E000E216E000E226E4DEF2DF0B7
:1059C0001FC523F520C524F521C525F522C526F5DB
:1059D000200EF0EF2CF0D8902632253224322332DC
:1059E000E82EEBEF2CF02350276E218EFF0E1F16B2
:1059F000FF0E2016FF0E2116000E2216960E285EB0
:105A000028BE07EF2DF005EF2DF01DEF2DF02850EB
:105A1000800A970FD8B00FEF2DF011EF2DF013EF94
:105A20002DF0D6EF2CF0D8902232213220321F32C6
:105A3000283E13EF2DF035EF2DF01F0E286423EFD5
:105A40002DF025EF2DF02DEF2DF0D6EF2CF0D89086
:105A50001F3620362136223628062850D8A433EFA8
:105A60002DF035EF2DF027EF2DF02750D8B43BEF78
:105A70002DF03DEF2DF045EF2DF0221E211E201EB2
:105A80001F6C000E2022212222221FC51FF520C5D7
:105A900020F521C521F522C522F51200490E050188
:105AA0006C6F990E6D6F000E6E6F000E6F6FEEC50E
:105AB00070F5EFC571F5726B736BB7EC2AF06CC5BE
:105AC000F2F56DC5F3F56A0E0501726F4D0E736F39
:105AD000930E746FBF0E756FF2C560F5F3C561F577
:105AE000626B636B000E7BEC25F060C56EF561C5E3
:105AF0006FF562C570F563C571F56DEC17F06EC595
:105B0000E2F56FC5E3F570C5E4F571C5E5F5C4ECE4
:105B10002BF0E2C5F2F5E3C5F3F5ECC5F0F5EDC504
:105B2000F1F50501D890F037F137D890F037F1371B
:105B3000F0C5F4F5F1C5F5F5F4C560F5F5C561F509
:105B4000000E636F640E626F11EC3BF060C5F4F5FC
:105B500061C5F5F5F4C560F5F5C561F5EEC562F50D
:105B6000EFC563F598EC36F060C5F4F561C5F5F561
:105B7000F4C560F5F5C561F56AEC3CF0F2C560F579
:105B8000F3C561F563EC3CF022EC3DF01200490EE8
:105B900005016C6F990E6D6F000E6E6F000E6F6FCA
:105BA000EEC570F5EFC571F5726B736BB7EC2AF04B
:105BB0006CC5F2F56DC5F3F56A0E0501726F4D0EF9
:105BC000736F930E746FBF0E756FF2C560F5F3C5FA
:105BD00061F5626B636B000E7BEC25F060C56EF5C2
:105BE00061C56FF562C570F563C571F56DEC17F0B1
:105BF0006EC5E2F56FC5E3F570C5E4F571C5E5F571
:105C0000C4EC2BF0E2C5F2F5E3C5F3F5ECC5F0F515
:105C1000EDC5F1F50501D890F037F137D890F037A0
:105C2000F137F0C5F4F5F1C5F5F5F4C560F5F5C546
:105C300061F5000E636F640E626F11EC3BF060C59E
:105C4000F4F561C5F5F5F4C560F5F5C561F5EEC58A
:105C500062F5EFC563F598EC36F060C5F4F561C503
:105C6000F5F5F4C560F5F5C561F578EC3CF0F2C5E5
:105C700060F5F3C561F571EC3CF024EC3DF01200E9
:105C8000490E0D6E990E0E6E000E0F6E000E106E08
:105C90002BC511F52CC512F5136A146A3EEC2BF0D6
:105CA0000DC52FF50EC530F56A0E136E4D0E146E30
:105CB000930E156EBF0E166E2FC501F530C502F599
:105CC000036A046A000E33EC27F001C50FF502C524
:105CD00010F503C511F504C512F5CEEC19F00FC58A
:105CE0001FF510C520F511C521F512C522F5CBEC25
:105CF0002CF01FC52FF520C530F529C52DF52AC577
:105D00002EF5D8902D362E36D8902D362E362DC520
:105D100031F52EC532F531C501F532C502F5000E5B
:105D2000046E640E036E52EC3BF001C531F502C502
:105D300032F531C501F532C502F52BC503F52CC589
:105D400004F5BBEC37F001C531F502C532F531C5BC
:105D500001F532C502F58BEC3CF02FC501F530C5DD
:105D600002F585EC3CF026EC3DF01200490E0D6E7C
:105D7000990E0E6E000E0F6E000E106E2BC511F5F3
:105D80002CC512F5136A146A3EEC2BF00DC52FF5E5
:105D90000EC530F56A0E136E4D0E146E930E156E11
:105DA000BF0E166E2FC501F530C502F5036A046AF1
:105DB000000E33EC27F001C50FF502C510F503C541
:105DC00011F504C512F5CEEC19F00FC51FF510C57D
:105DD00020F511C521F512C522F5CBEC2CF01FC51D
:105DE0002FF520C530F529C52DF52AC52EF5D890FB
:105DF0002D362E36D8902D362E362DC531F52EC5A2
:105E000032F531C501F532C502F5000E046E640E9F
:105E1000036E52EC3BF001C531F502C532F531C5D8
:105E200001F532C502F52BC503F52CC504F5BBEC15
:105E300037F001C531F502C532F531C501F532C57E
:105E400002F597EC3CF02FC501F530C502F591EC59
:105E50003CF028EC3DF01200206E000E1C6E175036
:105E600004EC3CF01F6E1FA038EF2FF03AEF2FF03C
:105E7000A0EF2FF017500C0D580EF324D96E010E21
:105E8000F420DA6E610078F31DF5610074F31EF5FD
:105E90001D501E10D8B44FEF2FF051EF2FF0A0EF90
:105EA0002FF01DC50CF51EC50DF518C50EF519C54D
:105EB0000FF547EC21F017500C0D510EF324D96E5D
:105EC000010EF420DA6E000EDB802050020D5E0E13
:105ED000F324D96E050EF420DA6EDF2A1750B4ECE5
:105EE0003BF01A6E2050020D5E0EF324D96E050EA3
:105EF000F420DA6E1A50DE5CD8A081EF2FF083EF29
:105F00002FF08DEF2FF02050020D5E0EF324D96E8E
:105F1000050EF420DA6E000EDF6E1FA692EF2FF052
:105F200094EF2FF09EEF2FF017500C0D540EF3242A
:105F3000D96E010EF420DA6EF70EDF16010E1C6E1C
:105F40001C5012000601B951BA11D8B4AAEF2FF0B3
:105F5000ACEF2FF0B8EF2FF002D8B8EF2FF005001C
:105F6000FA6EB951FD6EBA51FE6EFF6AFA50120018
:105F7000BDEC39F006019A2B060E9A19D8A4C3EF8E
:105F80002FF0C5EF2FF0C9EF2FF0000E9A6F59ECEC
:105F90003CF00601992B0B0E9919D8A4D2EF2FF0E3
:105FA000D4EF2FF0D8EF2FF0000E996F8EEC38F071
:105FB0000601982B650E9819D8A4E1EF2FF0E3EFB6
:105FC0002FF0E7EF2FF0000E986F2FEC3DF0060159
:105FD0005A4B5B2B2D0E5A1906E15B05D8A4F3EF43
:105FE0002FF0F5EF2FF0FBEF2FF0000E5B6F000EA0
:105FF0005A6F2DEC3DF00601584B592B590E58198C
:1060000007E1020E5919D8A408EF30F00AEF30F07A
:1060100010EF30F0000E596F000E586F2EEC3DF06F
:10602000120022C5A3F623C5A4F624C5A5F625C5EE
:10603000A6F626C5A7F627C5A8F628C5A9F629C538
:10604000AAF61DC5B2F61EC5B3F61FC5B4F620C527
:10605000B5F60601B69DB69FB693B69121C52AF551
:106060000F0E2A162A462A46B6512A18C30B2A189A
:10607000B66FA30EB76F060EB86F26EC3CF0E806BD
:10608000D8A445EF30F047EF30F048EF30F000F0A3
:106090001BEC3CF0E806D8A450EF30F052EF30F0A3
:1060A00053EF30F000F010EC3CF0E806D8A45BEFC2
:1060B00030F05DEF30F05EEF30F000F0DFEC3BF001
:1060C000E806D8A466EF30F068EF30F069EF30F002
:1060D00000F0000E8FEC3BF02A6E2AA072EF30F039
:1060E00074EF30F07CEF30F0B20E176E060E186EC3
:1060F000000E78EC34F000F01200076E000E086E0F
:1061000020EE04F00250D9260350DA22DF50096E47
:1061100009AE8DEF30F08FEF30F09AEF30F010ECE9
:106120003DF0060AD8A497EF30F099EF30F09AEFDF
:1061300030F008820930E8320F0B046E080E046458
:10614000A4EF30F0A6EF30F0B8EF30F009ACABEFD1
:1061500030F0ADEF30F0B7EF30F010EC3DF0060A64
:10616000D8A4B5EF30F0B7EF30F0B8EF30F00880DA
:106170002F0EF66E260EF76EF86A08006100D4F353
:1061800004F50930E8320F0B056E066A270E052468
:10619000F66E260E0620F76EF86A000EF82208004A
:1061A000F550045CD8B0D7EF30F0D9EF30F0DAEF2B
:1061B00030F008800750F8EC3BF00009D8A4E3EF7A
:1061C00030F0E5EF30F0E7EF30F0030E0812085042
:1061D000120005017E517A5D606F7F517B59616FBE
:1061E00080517C59626F81517D59636F640E646F79
:1061F000000E656F000E666F000E676FF5EC37F0EE
:1062000060C56CF561C56DF562C56EF563C56FF56A
:1062100005017E51825D706F7F518359716F80518E
:106220008459726F81518559736FB7EC2AF06CC530
:106230007AF56DC57BF56EC57CF56FC57DF50501FD
:106240007DBF27EF31F025EF31F031EF31F0000E57
:106250007A6F000E7B6F000E7C6F000E7D6F49EF32
:1062600031F07DBF3FEF31F07D517C117B1109E1B1
:10627000650E7A5DD8A03FEF31F041EF31F049EF84
:1062800031F0640E7A6F000E7B6F000E7C6F000E93
:106290007D6F7AC57AF57BC57BF51200000E036E23
:1062A000000E0A6E0A50020D5D0EF324D96E050E23
:1062B000F420DA6EDF50066E065004EC3CF0056EFA
:1062C00005A065EF31F067EF31F0A8EF31F006502F
:1062D000B4EC3BF0076E05A670EF31F072EF31F0D1
:1062E00076EF31F007C504F5A6EF31F006500C0D3E
:1062F000550EF324D96E010EF420DA6EDF501F0B19
:10630000086E0A50020D5E0EF324D96E050EF420BD
:10631000DA6EDF50096E0950085CD8B092EF31F0A8
:1063200094EF31F09AEF31F00950085C0724046EC5
:10633000A6EF31F00850095CD8B0A1EF31F0A3EF1F
:1063400031F072EF31F00950085C046E04500326FE
:106350000A2A0A50D8B4AFEF31F0B1EF31F052EF62
:1063600031F0035012001F501B5C016E20501C586E
:10637000026E21501D58036E22501E58046E640E8A
:10638000056E000E066E000E076E000E086E2BECFA
:1063900038F001C50DF502C50EF503C50FF504C5AE
:1063A00010F51F50235C116E20502458126E21509E
:1063B0002558136E22502658146E3EEC2BF00DC556
:1063C0001BF50EC51CF50FC51DF510C51EF51EBE2F
:1063D000EEEF31F0ECEF31F0F8EF31F0000E1B6E24
:1063E000000E1C6E000E1D6E000E1E6E10EF32F0C1
:1063F0001EBE06EF32F01E501D101C1009E1650E86
:106400001B5CD8A006EF32F008EF32F010EF32F04C
:10641000640E1B6E000E1C6E000E1D6E000E1E6EB6
:106420001BC51BF51CC51CF512006100D8F345F512
:106430006100DCF346F56100E0F347F56100D4F359
:1064400048F5A1AE26EF32F028EF32F033EF32F00C
:10645000B1AE2DEF32F02FEF32F033EF32F06EECC1
:106460003AF069EF32F0A1A838EF32F03AEF32F0AB
:1064700045EF32F0B1A83FEF32F041EF32F045EF97
:1064800032F052EC3AF069EF32F09EAC4AEF32F063
:106490004CEF32F057EF32F0AEAC51EF32F053EF39
:1064A00032F057EF32F0CEEC28F069EF32F0A2A8CC
:1064B0005CEF32F05EEF32F069EF32F0B2A863EFDA
:1064C00032F065EF32F069EF32F027EC3BF069EF24
:1064D00032F0610020F5F5F461001CF5F8F461007C
:1064E00018F5F7F4610014F5F6F41100000ECFB4BE
:1064F000010E016E000ECEB2010E026E00F001041C
:10650000D8A485EF32F087EF32F095EF32F00250E9
:10651000D8A48DEF32F08FEF32F095EF32F0010E0C
:106520005C6E5AC57FF6D5EF32F00150D8A49BEFD0
:1065300032F09DEF32F0ABEF32F00204D8A4A3EFBB
:1065400032F0A5EF32F0ABEF32F0020E5C6E5AC5BE
:106550007EF6D5EF32F00150D8A4B1EF32F0B3EFB0
:1065600032F0BFEF32F00250D8A4B9EF32F0BBEFF7
:1065700032F0BFEF32F0030E5C6ED5EF32F0010463
:10658000D8A4C5EF32F0C7EF32F0D3EF32F00204F7
:10659000D8A4CDEF32F0CFEF32F0D3EF32F0040ECB
:1065A0005C6ED5EF32F0050E5C6E12000A0E4F24C1
:1065B0000501606F000E5020616F5150605D5250B8
:1065C0006159D8B0E6EF32F0E8EF32F0EDEF32F09B
:1065D000000E0601786F05EF33F00A0E5124606F4C
:1065E000000E5220616F4F50605D50506159D8B01D
:1065F000FCEF32F0FEEF32F000EF33F0E8EF32F074
:10660000010E0601786F000E586E0A0E5324050124
:10661000606F000E5420616F5550605D5650615997
:10662000D8B015EF33F017EF33F01CEF33F0000E56
:106630000601776F34EF33F00A0E5524606F000EB9
:106640005620616F5350605D54506159D8B02BEFA4
:1066500033F02DEF33F02FEF33F017EF33F0010E5F
:106660000601776F000E766F12000501666F050157
:106670006651616F626B6051636F646B0A0E6327D2
:10668000000E64236151635D6451800A656F62513D
:10669000800A6559D8B04FEF33F051EF33F056EF21
:1066A00033F0000E0601756F90EF33F06051616FAB
:1066B000626B6651636F646B0A0E6327000E64237E
:1066C0006151635D6451800A656F6251800A65594A
:1066D000D8B06DEF33F06FEF33F071EF33F051EF6F
:1066E00033F0010E0601756F000E0501FA6F060EFC
:1066F00060617DEF33F07FEF33F08BEF33F059AA19
:1067000084EF33F086EF33F08BEF33F0010E0601A8
:10671000746F90EF33F0000E0601746F000E576E29
:10672000120006017551D8A498EF33F09AEF33F0B8
:10673000A4EF33F00501FA29D8B4A1EF33F0A3EFA9
:1067400033F0A4EF33F0FA2B020E0501FA19D8A4A6
:10675000ACEF33F0AEEF33F0B4EF33F05988000E06
:106760000601D26FC0EF33F0020EFA65BAEF33F0D4
:10677000BCEF33F0C0EF33F0598A000E0601D16F41
:1067800006017405D8A4C7EF33F0C9EF33F0DFEF8B
:1067900033F05728D8B4CFEF33F0D1EF33F0D2EF46
:1067A00033F0572A020E5764D8EF33F0DAEF33F0A4
:1067B000DFEF33F0010ED16F000E746F599A1200A3
:1067C0000501626F000E0501616FCAEC3CF0050126
:1067D000606F040E6019D8B4F0EF33F0F2EF33F0CD
:1067E00003EF34F06205D8B4F8EF33F0FAEF33F08A
:1067F00003EF34F0040E6219D8A401EF34F003EF74
:1068000034F028EF34F00101035105016219F80B4F
:1068100062190101036F1AEF34F001011DA913EF92
:1068200034F015EF34F01AEF34F0020E0501616F09
:106830002AEF34F00239E832070B05016219D8A4B7
:1068400024EF34F026EF34F00DEF34F02AEF34F07B
:10685000010E616F61511200346E5B04D8A433EFF6
:1068600034F035EF34F06DEF34F034503C0D61000E
:10687000CCF34AF66100D0F34BF64AC601F54BC69D
:1068800002F5000E046E640E036EBBEC37F001C51A
:106890004AF602C54BF606014A514A6F4B6B050199
:1068A000FC513318D8A457EF34F059EF34F077EF98
:1068B00034F0040E5C605FEF34F061EF34F077EF9A
:1068C00034F04AC629F54BC62AF5010E2C6E2C0E63
:1068D0002B6EB6EC2EF077EF34F0000E2A6E000E21
:1068E000296E010E2C6E2C0E2B6EB6EC2EF01200C3
:1068F0001C6E1C50DCEC39F00009D8B482EF34F087
:1069000084EF34F0C1EF34F017C502F518C503F574
:106910001C507DEC30F0196E1950D8A492EF34F071
:1069200094EF34F0C1EF34F01C500C0D580EF324EA
:10693000D96E010EF420DA6E610078F31AF5610069
:1069400074F31BF51A501B10D8B4A9EF34F0ABEF59
:1069500034F0C1EF34F01AC50CF51BC50DF517C5A1
:106960000EF518C50FF524EC20F01C500C0D510E3F
:10697000F324D96E010EF420DA6E030EDF12C1EF9C
:1069800034F012009FEC3AF07FEC39F045EC3CF02B
:10699000FBEC39F0D1EC3BF04FEC3CF0D68E000E26
:1069A00087EC3AF0C3EC3BF0FBEC39F081EC24F0DF
:1069B00099EC35F0D6EC32F00501FC51D8A4E3EFA8
:1069C00034F0E5EF34F0EDEF34F0000EF66F060131
:1069D00054510DEC28F0D4EF34F0FC05D8A4F3EFBB
:1069E00034F0F5EF34F0D4EF34F0010EF66F060119
:1069F00054510DEC28F0000E5C6E97C6ECF50501C5
:106A0000ED6B010EEF6F2C0EEE6FC7EC2DF0D4EF97
:106A100034F00DEF00F0050120EE24F06051D9268E
:106A20006151DA22000EDE6E000EDE6E000EDE6EAA
:106A3000000EDD6E20EE28F06051D9266151DA2279
:106A4000000EDE6E000EDE6E000EDE6E000EDD6EDF
:106A500020EE2CF06051D9266151DA22000EDE6E54
:106A6000000EDE6E000EDE6E000EDD6E20EE30F0EB
:106A70006051D9266151DA22000EDE6E000EDE6E04
:106A8000000EDE6E000EDD6E20EE34F06051D92671
:106A90006151DA22000EDE6E000EDE6E000EDE6E3A
:106AA000000EDD6E12006C0EF66E740EF76E000EA8
:106AB000F86E01EE00F310EE38F00900F5C4EEF4C4
:106AC000E550E150FAE1560EF66E7A0EF76E000EC2
:106AD000F86E09006100D4F3D1F609006100D4F327
:106AE000D2F6540EF66E7A0EF76E000EF86E0900AE
:106AF0006100D4F35DF509006100D4F35EF501EEA9
:106B000000F2B90EEE6AE806FDE10501FC6BFB6BD5
:106B1000FA6B01EE49F1140EEE6AE806FDE104019C
:106B2000080E5D6F000E5E6F000E5F6F0001C2EF1A
:106B300034F038C67AF539C67BF505017C6B7D6B80
:106B400048C67EF549C67FF5806B816B46C682F5E7
:106B500047C683F5846B856BE9EC30F07AC555F553
:106B60007BC556F536C67AF537C67BF505017C6BD5
:106B70007D6B44C67EF545C67FF5806B816B42C652
:106B800082F543C683F5846B856BE9EC30F07AC5FA
:106B900053F57BC554F5535055240501866F545069
:106BA0005620876FD8908731886F86310601546FE1
:106BB00088C555F600F0120038C61BF539C61CF51D
:106BC0001D6A1E6A48C61FF549C620F5216A226A59
:106BD00046C623F547C624F5256A266AB3EC31F08C
:106BE0001BC555F51CC556F536C61BF537C61CF535
:106BF0001D6A1E6A44C61FF545C620F5216A226A31
:106C000042C623F543C624F5256A266AB3EC31F063
:106C10001BC553F51CC554F553505524276E5450CD
:106C20005620286ED8902830296E27300601546FE0
:106C300029C555F600F01200000EBE6E000EBF6EA4
:106C4000000EC06E080ECA6EDE0EC66ECC0EC76E8B
:106C5000070EC86EE70E0401106F730E086FFD0E6D
:106C6000006F000E216F000E096F000E016F000E05
:106C7000116F000E026F000E0A6F180E126F03697B
:106C80000B69136904690C691469080E246F0F0EEF
:106C90000201696F140E706F1A0E0A6F370E146FAF
:106CA000180E096F380E156F0B0E3D6F460E0D6FE7
:106CB000130E716F12006A0E0501606F7A0E616F1C
:106CC000E3EC3CF06C0E0501606F7A0E616FE8EC4E
:106CD0003CF06E0E0501606F7A0E616FEDEC3CF0DA
:106CE000680E0501606F7A0E616FDEEC3CF0640E99
:106CF0000501606F7A0E616FD4EC3CF0620E050105
:106D0000606F7A0E616FCFEC3CF0660E0501606F2C
:106D10007A0E616FD9EC3CF0AE9C000E01011C6F45
:106D2000000E1D6F0A0E1E6FFC0E1F6F9E8C120050
:106D3000000E0501656F000E646F62516311D8B4D7
:106D4000A4EF36F0A6EF36F0CEEF36F0010E666F08
:106D5000AEEF36F0D89062376337662B63AFB3EF90
:106D600036F0B5EF36F0AAEF36F0D89064376537D5
:106D70006251605D63516159D8A0C1EF36F0C3EF35
:106D800036F0C8EF36F06251605F6351615B648139
:106D9000D89063336233662FB5EF36F064C560F583
:106DA00065C561F51200000E6F6E020E706E000E6A
:106DB000716E3D0E726E000E736EFE0E746E000EDE
:106DC000756E000E766E000E776E000E796E1F0ED9
:106DD0007A6E000E7B6E1F0E7C6E000E7D6EB39C75
:106DE000B39E76907692A39EA39C000E0501606FE1
:106DF000000E616FACEC3CF0000E0501606F000E00
:106E0000616FA7EC3CF0000E0501606F000E616F32
:106E1000B1EC3CF0800E786E1200000E606E020E37
:106E2000616E000E626E3D0E636E000E646EFE0EAD
:106E3000656E000E666E000E676E000E686E000EC8
:106E40006A6E1F0E6B6E000E6C6E1F0E6D6E000E66
:106E50006E6EB29CB29E67906792A29EA29C000E3C
:106E60000501606F000E616FBBEC3CF0000E050188
:106E7000606F000E616FB6EC3CF0000E0501606FB4
:106E8000000E616FC0EC3CF0800E696E120000F0E5
:106E90000501FC05D8A44FEF37F051EF37F076EF3E
:106EA00037F006019605D8A458EF37F05AEF37F0BF
:106EB0005EEF37F0010E5B6E80EF37F0000E5B6E19
:106EC000000E2A6E000E296E010E2C6E2C0E2B6EFB
:106ED000B6EC2EF0000E2A6E000E296E020E2C6EFD
:106EE000580E2B6E40EC2EF080EF37F0FC51D8A4FA
:106EF0007CEF37F07EEF37F080EF37F05AEF37F066
:106F0000120006017851D8A488EF37F08AEF37F0E5
:106F100093EF37F05828D8B490EF37F092EF37F06E
:106F200093EF37F0582A7751D8A499EF37F09BEFB9
:106F300037F0A4EF37F05828D8B4A1EF37F0A3EF1B
:106F400037F0A4EF37F0762B010E5864AAEF37F034
:106F5000ACEF37F0AFEF37F05986000ED26F010E6D
:106F60007665B5EF37F0B7EF37F0BAEF37F05986FF
:106F7000000ED26F1200000E066E000E056E03505A
:106F80000410D8B4C6EF37F0C8EF37F0F0EF37F0A1
:106F9000010E076ED0EF37F0D89003360436072A7B
:106FA00004AED5EF37F0D7EF37F0CCEF37F0D8900D
:106FB000053606360350015C04500258D8A0E3EFB2
:106FC00037F0E5EF37F0EAEF37F00350015E045099
:106FD000025A0580D89004320332072ED7EF37F0DB
:106FE00005C501F506C502F51200000E0501686F22
:106FF000000E696F000E6A6F000E6B6F60A103EFE9
:1070000038F005EF38F00DEF38F06451682765511E
:10701000692366516A2367516B23D89064376537BB
:1070200066376737D89063336233613360336051BA
:10703000611162116311D8A420EF38F022EF38F00B
:10704000FEEF37F068C560F569C561F56AC562F5A0
:107050006BC563F51200000E096E000E0A6E000E7D
:107060000B6E000E0C6E01A038EF38F03AEF38F0DE
:1070700042EF38F00550092606500A2207500B222D
:1070800008500C22D8900536063607360836D890B8
:107090000432033202320132015002100310041094
:1070A000D8A455EF38F057EF38F033EF38F009C572
:1070B00001F50AC502F50BC503F50CC504F5120070
:1070C0000101018F040EE0EC33F00009D8A46BEF4E
:1070D00038F06DEF38F08DEF38F0000E01014C6F95
:1070E000260E4D6F000E4E6F000E4F6F600E006F3C
:1070F000970E016F100E026F3BEC3CF031EC3CF050
:107100003DEC3BF0A3EC3BF0B6EC3AF05BEC36F038
:10711000060EE0EC33F0C79ABF9A1200310E1D6ED6
:10712000030E1E6E000E1F6E000E206E040E216EEA
:1071300059C522F57DC623F55CC524F57CC625F529
:10714000000E266E000E276E000E286E000E296EB1
:1071500011EC30F0BEB0AFEF38F0B2EF38F0010E06
:10716000B3EF38F0000EFF0A2B6EBE502B18FE0B4B
:107170002B18BE6E120003C509F504C50AF501C53A
:1071800007F502C508F5DAEF38F0610024F4D9F408
:10719000610028F4DAF4DF500B6E094A0A2A610014
:1071A0001CF4D9F4610020F4DAF461002CF4DFF46B
:1071B000074A082A0506D8A00606052806E106287B
:1071C000D8A4E5EF38F0E7EF38F0C5EF38F012005B
:1071D000000E246E2450020D5D0EF324D96E050EB0
:1071E000F420DA6EDF50176E21C518F522C519F5A7
:1071F00024502CEC2FF0236E2350D8B402EF39F03A
:1072000004EF39F006EF39F00FEF39F0242A24505B
:10721000D8B40DEF39F00FEF39F0EAEF38F0235022
:107220001200000E03011F6F000E206F010E216F70
:10723000850E1D6FEE0E1C6FB1981C51600074FC22
:1072400062F50501636B62C563F5626B621106014D
:10725000BB6F050163510601BC6FA188580E050183
:10726000606F7A0E616F9DEC3CF0310E03011E6F72
:107270001200000E05019B1B000E9C1B000E9D1BA7
:10728000800E9E1B97C56EF598C56FF599C570F574
:107290009AC571F59BC572F59CC573F59DC574F5CE
:1072A0009EC575F56DEC17F06EC597F56FC598F531
:1072B00070C599F571C59AF51200036E69EF39F042
:1072C000BE8A7EEF39F0BE9A7EEF39F0BE9A7EEF2D
:1072D00039F00350016E026A0250000AD8B473EF0D
:1072E00039F066EF39F00150000AD8B463EF39F095
:1072F000010AD8B460EF39F066EF39F01200C69099
:10730000C784C682C69AC89AC89CC89EC79A000EEF
:107310000501ED6F000EEC6F010EEF6F2C0EEE6F9E
:10732000C7EC2DF0000E0501ED6F000EEC6F020EA4
:10733000EF6F580EEE6F4EEC2DF012000501646FEA
:10734000610090F5ECF30301F38FF39DF381F3B14A
:10735000ACEF39F0AEEF39F0A7EF39F0EB510501A2
:10736000636F626B0301EA5105016225606F0301DF
:10737000000E05016321616F120081EC37F0300EC1
:107380001D6E030E1E6E000E1F6E000E206E060E8A
:10739000216E55C522F553C523F551C524F54FC5BA
:1073A00025F554C626F54DC527F5000E286E000EAE
:1073B000296E11EC30F01200026E000E016E040E08
:1073C0000260E5EF39F0E7EF39F0F9EF39F00250FC
:1073D0000C0D500EF324D96E010EF420DA6E01016B
:1073E000DFAEF5EF39F0F7EF39F0F9EF39F0010ED4
:1073F000016E01501200010E1FEC2AF065C538F62F
:1074000066C539F6020E1FEC2AF065C536F666C56C
:1074100037F6030E1FEC2AF065C54BF566C54CF533
:10742000040E1FEC2AF065C549F566C54AF500F063
:10743000120005019F51A011A111A211D8B423EF90
:107440003AF025EF3AF02DEF3AF0000E9F1B000EB8
:10745000A01B000EA11B800EA21B9FC59FF5A0C5FF
:10746000A0F5A1C5A1F5A2C5A2F5120033333340A2
:107470003333B33F0AD7233E0AD7A33C00000000B2
:107480000000C8420000A0C00000A0400AD7233C72
:1074900000000000000000000000000000000000EC
:1074A00000000000B198BBC601F5BCC602F5CDECEA
:1074B0003AF00601564B572B575109E1050E565D20
:1074C000D8A065EF3AF067EF3AF06BEF3AF0000EB4
:1074D000576F000E566FA2EC2FF01200B19E0601FE
:1074E0005C4B5D2B5D5109E10A0E5C5DD8A07BEF22
:1074F0003AF07DEF3AF084EF3AF0E4EC3AF0000E27
:1075000006015D6F000E5C6F15EC3DF01200050189
:10751000606F05016005D8A490EF3AF092EF3AF061
:1075200095EF3AF09E8C9EEF3AF06051D8A49BEF15
:107530003AF09DEF3AF09EEF3AF09E9C120020EC5C
:107540003DF07BEC3BF0FBEC3AF067EC22F01CECFE
:1075500036F0ECEC3BF011EC39F067EC3BF0D3EC9F
:1075600036F060EC38F00DEC37F01200000E05013B
:10757000606F6051020D5E0EF324D96E050EF4208B
:10758000DA6E000EDF6E602B6051D8B4CAEF3AF0AD
:10759000CCEF3AF0B9EF3AF0120003011EA5D3EF99
:1075A0003AF0D5EF3AF0DEEF3AF01E9102501D6F3F
:1075B000610004F41CF31E81E3EF3AF002501D6FEA
:1075C000610004F41CF312000601BD51BE11D8B4D1
:1075D000ECEF3AF0EEEF3AF0FAEF3AF002D8FAEFC9
:1075E0003AF00500FA6EBD51FD6EBE51FE6EFF6AA7
:1075F000FA5012001200040E0201946F800E956F73
:10760000180E966F030E9E6F000E9A6F000E9B6F02
:10761000000E976F000E8C6F000E8D6F000E9D6F29
:1076200012000501605162036100CCF364F5610052
:10763000D0F365F560516303F35065276151620330
:10764000F350652764C560F565C561F51200010159
:1076500060A12DEF3BF02FEF3BF03CEF3BF002D869
:107660003CEF3BF00500FA6E06017251FD6E73515E
:10767000FE6EFF6AFA5012001200190E01015C6FD3
:10768000040E5D6F600E5E6F050E5F6F3A0E0501B2
:10769000606F7A0E616FC5EC3CF001011E83B298F9
:1076A000A2881200015003026100CCF305F56100CD
:1076B000D0F306F501500402F350062602500302EF
:1076C000F350062605C501F506C502F51200480E61
:1076D00003011B6F610E196F000E186FB19EA18E12
:1076E000600E0501606F7A0E616FA2EC3CF0800EB7
:1076F00003011A6F1200000E0001606F000E616F2F
:10770000000E626F000E636F000E646F000E656FF7
:10771000000E666F000E676F000E686F1200046E39
:10772000000E036E0450DCEC39F00009D8B49BEF76
:107730003BF09DEF3BF0A1EF3BF00450F8EC3BF049
:10774000036E035012005F0E0101946F95699669F4
:107750009769000E986F000E996F000E9A6F000ED9
:107760009B6F810E816F1200026E02500C0D530E42
:10777000F324D96E010EF420DA6EDF50016E1F0E75
:10778000011601281200000E0501ED6F000EEC6FCE
:10779000000EEF6F320EEE6FC7EC2DF0000E5C6E38
:1077A0001200640E06013825486F000E3921496F1A
:1077B0009C0E3625446FFF0E3721456F12001BECDF
:1077C0003CF00009D8B4E7EF3BF0EAEF3BF0010EE4
:1077D000EBEF3BF0000E1200700E0001AD6F000EDB
:1077E000AF6F000EB36F020EB16F000EB06F1200DC
:1077F000016E01500C0D540EF324D96E010EF420CD
:10780000DA6EDF50010B1200016E01500C0D540EA8
:10781000F324D96E010EF420DA6EDF50090B12004A
:10782000010136B516EF3CF019EF3CF0010E1AEFEE
:107830003CF0000E1200010136B921EF3CF024EFBC
:107840003CF0010E25EF3CF0000E1200010136BBAA
:107850002CEF3CF02FEF3CF0010E30EF3CF0000E2F
:107860001200100E0101506F040E516F610E526F25
:10787000050E536F1200010E0101046F010E056F1A
:10788000060E066F000E076F120079EC29F0000E4D
:107890000501606F070E616F0BEC35F01200070EEB
:1078A0000601476F620E466F010E436F040E426F72
:1078B000120076EC32F047EC37F0000E0601966FBE
:1078C00091EC33F01200610080F572F40501615112
:1078D000736E1200610080F57AF4050161517B6ED0
:1078E0001200610080F563F405016151646E1200BD
:1078F000610080F56BF4050161516C6E12000501A9
:10790000606F610080F5FBF31200610004F472F413
:107910000250736E1200610004F47AF402507B6E20
:107920001200610004F463F40250646E12006100FE
:1079300004F46BF402506C6E120060C5B9F661C5B8
:10794000BAF6120060C5BDF661C5BEF6120060C58C
:10795000CDF661C5CEF6120060C5CFF661C5D0F692
:10796000120060C5CBF661C5CCF6120060C560F6AA
:1079700061C561F6120060C562F661C563F612006A
:1079800060C55EF661C55FF6120060C572F661C53E
:1079900073F6120001010239E832070B120060C5CC
:1079A00066F661C567F6120060C568F661C569F6DE
:1079B000120060C564F661C565F6120060C56AF61E
:1079C00061C56BF6120060C570F661C571F61200F4
:1079D00060C56EF661C56FF6120060C56CF661C5D4
:1079E0006DF6120060C5C1F661C5C2F6120060C531
:1079F000C3F661C5C4F6120060C5C5F661C5C6F61A
:107A0000120060C5C7F661C5C8F6120060C5BFF6B2
:107A100061C5C0F6120060C5C9F661C5CAF612009C
:107A200001010239E832070B120057EC26F0DCECBA
:107A300035F012000301F39B12007AEC23F01200E0
:107A4000D69A120078841200698412007884120099
:107A500069841200010001011200120012001200DC
:107A60001200120012001200120012001200120086
:020000040020DA
:10000000FF0FFF0FFF0FFF0FFF0FFF0FFF0FFF0F80
:10001000FF0FFF0FFF0FFF0FFF0FFF0FFF0FFF0F70
:020000040030CA
:10000000FAEFF7DF9FFFFFFFFFFFFFFFFFFFFFFF9D
:10001000FFFFFFFFFFFFFFFFFFFFFFFFFFFFFFFFF0
:04002000FFFFFFFFE0
:00000001FF
