:040000000DEF00F010
:0400080084EF15F07C
:06001800FF0003EF17F0EA
:1026000000000000000000000000000000000000CA
:1026100000000000000000000000000000000000BA
:102620000000000000000000010203040506070886
:0326300050010056
:10263400020E0301F96F3F0EFA6F000ED86F000E01
:10264400FB6F000ED96F000EDA6F000EDB6F000E09
:10265400DC6F000EDF6F000EE06F000EE36F000E04
:10266400E46F000EE56F000EE66F000EE76F000EDC
:10267400EA6F000EEB6F040EEC6F870EEE6F010E27
:10268400EF6F000EF06F000EF16F000EF26F000E90
:10269400F36F000EF46F100EF56F000EF66F000E60
:1026A400F76F120EF86F000EFC6F010EFB6F000E39
:1026B400D96F000EDA6F000EDB6F000EDC6F000EB8
:1026C400DF6F000EE06F000EE36F000EE46F000E8C
:1026D400E56F000EE66F000EE76F000EEA6F000E66
:1026E400EB6F100EEC6F870EEE6F010EEF6F000EA6
:1026F400F06F000EF16F000EF26F000EF36F000E1C
:10270400F46F100EF56F000EF66F000EF76F000EEB
:10271400F86F000EFD6F020EFB6F000ED96F000EF6
:10272400DA6F000EDB6F000EDC6F000EDF6F000E41
:10273400E06F000EE36F000EE46F000EE56F000E15
:10274400E66F000EE76F000EEA6F000EEB6F110EDE
:10275400EC6F870EEE6F010EEF6F000EF06F000E40
:10276400F16F000EF26F000EF36F000EF46F100E97
:10277400F56F000EF66F000EF76F000EF86F000E87
:10278400FE6F030EFB6F000ED96F000EDA6F000EA2
:10279400DB6F000EDC6F000EDF6F000EE06F000ECB
:1027A400E36F000EE46F000EE56F000EE66F000E9F
:1027B400E76F000EEA6F000EEB6F120EEC6F870EE0
:1027C400EE6F010EEF6F000EF06F000EF16F000E52
:1027D400F26F000EF36F000EF46F100EF56F000E23
:1027E400F66F000EF76F000EF86F000EFF6FAF94D8
:1027F400AF96B090B092B094B096000E536E000EA7
:10280400546E8FEC17F0000E536E000E546E85EC70
:1028140017F0000E536E000E546E80EC17F0000E8D
:10282400536E000E546E7BEC17F0000E536E000EC8
:10283400546E76EC17F0000E536E000E546E8AEC54
:1028440017F0840E0301F36F120001011DAF2DEF89
:1028540014F02FEF14F03DEF14F002D83BEF14F016
:102864000500FA6E3750FD6E3850FE6EFF6AFA505E
:10287400120001011D9F1DAD42EF14F044EF14F04E
:1028840052EF14F002D850EF14F00500FA6E3550F0
:10289400FD6E3650FE6EFF6AFA50120001011D9D56
:1028A4001DAB57EF14F059EF14F067EF14F002D892
:1028B40065EF14F00500FA6E3350FD6E3450FE6E71
:1028C400FF6AFA50120001011D9B1CA76CEF14F063
:1028D4006EEF14F07CEF14F002D87AEF14F00500D8
:1028E400FA6E3150FD6E3250FE6EFF6AFA501200DD
:1028F40001011C971DA981EF14F083EF14F091EFEF
:1029040014F002D88FEF14F00500FA6E2F50FD6E0C
:102914003050FE6EFF6AFA50120001011D99AE9C00
:102924001200556E000E546E58EC17F0536E040EE0
:102934005318D8B4A0EF14F0A2EF14F0B3EF14F0CE
:102944005504D8B4A8EF14F0AAEF14F0B3EF14F0C0
:10295400040E5518D8A4B1EF14F0B3EF14F0D3EF6C
:1029640014F0010103515518F80B5518036FC6EF05
:1029740014F01DA9C0EF14F0C2EF14F0C6EF14F068
:10298400020E546ED5EF14F00239E832070B5518D5
:10299400D8A4CFEF14F0D1EF14F0BBEF14F0D5EFBF
:1029A40014F0010E546E54501200000EBE6E000E50
:1029B400BF6E000EC06E080ECA6EDE0EC66ECC0E62
:1029C400C76E070EC86EE70E0401106F730E086F12
:1029D400FD0E006F000E216F000E096F000E016FD7
:1029E400000E116F000E026F000E0A6F180E126FA8
:1029F40003690B69136904690C691469080E246F6F
:102A04000F0E0201696F140E706F1A0E0A6F370EE3
:102A1400146F180E096F380E156F0B0E3D6F460EAE
:102A24000D6F130E716F1200000E6F6E020E706E3A
:102A3400000E716E0F0E726E270E736E000E746EA2
:102A4400000E756E000E766E000E776E000E796EB7
:102A5400880E7A6E130E7B6E880E7C6E130E7D6E5E
:102A6400B39CB39E76907692A39EA39C000E536E65
:102A7400000E546E3FEC17F0000E536E000E546EB1
:102A84003AEC17F0000E536E000E546E44EC17F03F
:102A9400800E786E1200000E606E020E616E000EE3
:102AA400626E0F0E636E030E646EFE0E656E000E94
:102AB400666E000E676E000E686E000E6A6E880EFB
:102AC4006B6E010E6C6E880E6D6E010E6E6EB29C96
:102AD400B29E67906792A29EA29C000E536E000E57
:102AE400546E4EEC17F0000E536E000E546E49EC0B
:102AF40017F0000E536E000E546E53EC17F0800E58
:102B0400696E1200A1AE89EF15F08BEF15F096EF08
:102B140015F0B1AE90EF15F092EF15F096EF15F0B9
:102B2400C7EC16F0BAEF15F0A1A89BEF15F09DEFD6
:102B340015F0A8EF15F0B1A8A2EF15F0A4EF15F069
:102B4400A8EF15F052EC16F0BAEF15F09EACADEF0D
:102B540015F0AFEF15F0BAEF15F0AEACB4EF15F019
:102B6400B6EF15F0BAEF15F027EC14F0BAEF15F044
:102B74001100340E536E2F0E546E67EC17F0360EA0
:102B8400536E2F0E546E6CEC17F0380E536E2F0EDE
:102B9400546E71EC17F0320E536E2F0E546E62ECBD
:102BA40017F0300E536E2F0E546E5DEC17F0AE9C82
:102BB400000E01011C6F000E1D6F080E1E6FFC0E2F
:102BC4001F6F9E8C1200BEB0EAEF15F0EDEF15F00A
:102BD400010EEEEF15F0000EFF0A516EBE505118B3
:102BE400FE0B5118BE6E39503A10D8B4FCEF15F0F4
:102BF400FEEF15F00AEF16F002D80AEF16F0050002
:102C0400FA6E3950FD6E3A50FE6EFF6AFA501200A9
:102C140012000101018F040E93EC14F00009D8A4F2
:102C240016EF16F018EF16F02EEF16F0000E010155
:102C34004C6F380E4D6F000E4E6F000E4F6F600ECE
:102C4400006F970E016F000E026F1FEC17F0BBECC4
:102C540015F0060E93EC14F01200000E03011F6F22
:102C6400000E206F010E216F0B0E1D6FDC0E1C6F0A
:102C7400B1981C51600074FC55F5566A55C556F55B
:102C8400556A55103B6E56503C6EA1882C0E536EFF
:102C94002F0E546E30EC17F0210E03011E6F12003C
:102CA400B1983BC551F53CC552F584EC16F0254A64
:102CB400262A265009E1320E255CD8A064EF16F0CE
:102CC40066EF16F06CEF16F0E5EC15F0000E266ECC
:102CD400000E256E120094EC17F0DCEC16F09BEC61
:102CE40016F01AEC13F0D7EC14F013EC17F02FECE9
:102CF40016F0F0EC16F016EC15F00BEC16F04DECAB
:102D040015F0120003011EA58AEF16F08CEF16F0E1
:102D140095EF16F01E9152501D6F610044F51CF39F
:102D24001E819AEF16F052501D6F610044F51CF39A
:102D34001200040E0201946F800E956F180E966FA8
:102D4400000E9E6F000E9A6F000E9B6F000E976F21
:102D5400000E8C6F000E8D6F040E9D6F12003D509F
:102D64003E10D8B4B8EF16F0BAEF16F0C6EF16F06E
:102D740002D8C6EF16F00500FA6E3D50FD6E3E50C7
:102D8400FE6EFF6AFA5012001200B19E274A282AEA
:102D9400285009E10A0E275CD8A0D3EF16F0D5EF2E
:102DA40016F0DBEF16F0B1EC16F0000E286E000EF4
:102DB400276E1200000E0001606F000E616F000E9E
:102DC400626F000E636F000E646F000E656F000E7D
:102DD400666F000E676F000E686F1200470E0301E6
:102DE4001B6FC20E196F000E186FB19EA18E2E0EAE
:102DF400536E2F0E546E35EC17F0800E03011A6FCC
:102E0400120001EE01F1380EEE6AE806FDE104015C
:102E1400080E5D6F000E5E6F000E5F6F000129EFFC
:102E240017F0700E0001AD6F000EAF6F000EB36FA0
:102E3400020EB16F000EB06F1200010E0101046F9B
:102E4400010E056F060E066F000E076F12006DEC83
:102E540016F0D68E2CEF17F00DEF00F053C539F5B0
:102E640054C53AF5120053C53DF554C53EF512005C
:102E740053C54DF554C54EF5120053C54FF554C511
:102E840050F5120053C54BF554C54CF5120053C50B
:102E94002BF554C52CF5120053C52DF554C52EF54C
:102EA400120053C529F554C52AF51200010102394F
:102EB400E832070B120053C52FF554C530F5120044
:102EC40053C531F554C532F5120053C537F554C511
:102ED40038F5120053C535F554C536F5120053C5FF
:102EE40033F554C534F5120053C541F554C542F5C4
:102EF400120053C543F554C544F5120053C545F5B6
:102F040054C546F5120053C547F554C548F512009B
:102F140053C53FF554C540F5120053C549F554C592
:102F24004AF51200D69A1200120012001200120082
:062F340012001200120061
:020000040020DA
:10000000FF0FFF0FFF0FFF0FFF0FFF0FFF0FFF0F80
:10001000FF0FFF0FFF0FFF0FFF0FFF0FFF0FFF0F70
:020000040030CA
:10000000FAFFF7FF9FFFFFFFFFFFFFFFFFFFFFFF6D
:10001000FFFFFFFFFFFFFFFFFFFFFFFFFFFFFFFFF0
:04002000FFFFFFFFE0
:00000001FF
