:020000040000FA
:040000000DEF00F010
:04000800D1EF2CF018
:06001800FF000EEF32F0C4
:1026000000000000000000000000000000000000CA
:1026100000000000000000000000000000000000BA
:102620000000000000000000010203040506070886
:102630005001526561643A206E6F6E2D766F6C6149
:1026400074696C6520766F6C746167652076616C67
:1026500075652025662C20616E6420766F6C617430
:10266000696C6520766F6C746167652076616C7546
:10267000652025660053657420746865206E6F6E52
:102680002D766F6C6174696C6520766F6C74616710
:102690006520746F203156200A00536574207468D9
:1026A0006520766F6C6174696C6520766F6C7461FF
:1026B000676520746F203256200A000005018A5198
:1026C000800B936F8A518A25956F89AF6AEF13F05B
:1026D0006CEF13F06DEF13F095819551D8B473EF53
:1026E00013F075EF13F08AEF13F09529D8A47BEF60
:1026F00013F07DEF13F085EF13F0000E876F000EDF
:10270000886F000E896F000E8A6F898F000E8A6FA6
:1027100092EF13F0000E876F000E886F000E896F26
:10272000000E8A6F8E51800B946F93519419D8B418
:102730009CEF13F09EEF13F09FEF13F0938D8E51EB
:102740008E25946F8DAFA7EF13F0A9EF13F0AAEFCA
:1027500013F094819451D8B4B0EF13F0B2EF13F0AA
:10276000C7EF13F09429D8A4B8EF13F0BAEF13F021
:10277000C2EF13F0000E8B6F000E8C6F000E8D6F8A
:10278000000E8E6F8D8F000E8E6FCFEF13F0000E48
:102790008B6F000E8C6F000E8D6F000E8E6F95513B
:1027A000945DD8B0D6EF13F0D8EF13F0FFEF13F02D
:1027B00093ADDDEF13F0DFEF13F0E1EF13F0800ED8
:1027C000931B95C596F594C595F596C594F587C563
:1027D00096F58BC587F596C58BF588C596F58CC59E
:1027E00088F596C58CF589C596F58DC589F596C58C
:1027F0008DF58AC596F58EC58AF596C58EF5000EBF
:10280000966F955194C58FF5906B8F5F000E905B1E
:1028100090BF14EF14F0905109E11A0E8F5DD8A00B
:1028200014EF14F016EF14F04DEF14F087518811E7
:1028300089118A11D8A41FEF14F022EF14F0010EB1
:1028400023EF14F0000E966F000E876F000E886F56
:10285000000E896F000E8A6F94C595F556EF14F03F
:1028600096A135EF14F037EF14F03DEF14F0D89047
:1028700096310109966F3FEF14F0D890963387A1F7
:1028800044EF14F046EF14F047EF14F0968F8A35BA
:102890008A33893388338733952B9451955DD8A03B
:1028A00054EF14F056EF14F030EF14F093BD5BEFDB
:1028B00014F05DEF14F09DEF14F09551D8A463EF80
:1028C00014F065EF14F06FEF14F0000E876F000E38
:1028D000886F000E896F000E8A6FBEEF15F08B5166
:1028E00087278C5188238D5189238E518A238AA171
:1028F0007CEF14F07EEF14F02AEF15F096A183EF31
:1029000014F085EF14F08BEF14F0D8909631010994
:10291000966F8DEF14F0D890963387A192EF14F054
:1029200094EF14F095EF14F0968F8A358A3389333B
:1029300088338733952B2AEF15F08B51875D8C51A7
:1029400088598D5189598A51800A8F6F8E51800A1A
:102950008F59D8B0AEEF14F0B0EF14F0DBEF14F0F5
:1029600087518B5D8F6F88518C59906F89518D592C
:10297000916F8A518E59926FFF0E8F25876FFF0ED0
:102980009021886FFF0E9121896FFF0E92218A6F2F
:10299000800E931B966D9651D8A4D1EF14F0D3EF0F
:1029A00014F0E3EF14F0010E8727000E882389232B
:1029B0008A23E3EF14F08B51875F8C51885B8D5134
:1029C000895B8E518A5B8751881189118A11D8A43D
:1029D000ECEF14F0EEEF14F023EF15F09651D8A4BD
:1029E000F4EF14F0F6EF14F023EF15F0000E876FFC
:1029F000000E886F000E896F000E8A6FBEEF15F013
:102A0000D8908737883789378A3796AF0AEF15F01D
:102A10000CEF15F00DEF15F0878196A112EF15F070
:102A200014EF15F018EF15F0D88096371AEF15F05F
:102A3000D89096379551D8B420EF15F022EF15F0C5
:102A400023EF15F0950789AF28EF15F02AEF15F061
:102A500000EF15F0000E946F96AF31EF15F033EFE5
:102A600015F04BEF15F096C58FF57F0E8F17D8B484
:102A70003CEF15F03EEF15F042EF15F0010E946FAC
:102A80004BEF15F087A147EF15F049EF15F04BEF2D
:102A900015F03EEF15F09451D8B451EF15F053EF07
:102AA00015F07EEF15F0010E8727000E882389238D
:102AB0008A238AA15EEF15F060EF15F07EEF15F026
:102AC00087C58FF588C590F589C591F58AC592F5BA
:102AD00092359233913390338F338FC587F590C5FC
:102AE00088F591C589F592C58AF59529D8B47BEF0B
:102AF00015F07DEF15F07EEF15F0952B9529D8B4E4
:102B000084EF15F086EF15F08EEF15F09551D8A4EF
:102B10008CEF15F08EEF15F0A0EF15F0000E876F1B
:102B2000000E886F000E896F000E8A6F9551D8A431
:102B30009CEF15F09EEF15F0A0EF15F0000E936FCF
:102B400095A1A5EF15F0A7EF15F0AAEF15F0898F65
:102B5000ABEF15F0899FD89095318A6F93AFB3EFA3
:102B600015F0B5EF15F0B6EF15F08A8F87C587F52C
:102B700088C588F589C589F58AC58AF512001F5070
:102B8000800B286E1F501F242A6E1EAECAEF15F050
:102B9000CCEF15F0CDEF15F02A802A50D8B4D3EF42
:102BA00015F0D5EF15F0EAEF15F02A28D8A4DBEFE1
:102BB00015F0DDEF15F0E5EF15F0000E1C6E000EC0
:102BC0001D6E000E1E6E000E1F6E1E8E000E1F6EFE
:102BD000F2EF15F0000E1C6E000E1D6E000E1E6E44
:102BE000000E1F6E2350800B296E28502918D8B470
:102BF000FCEF15F0FEEF15F0FFEF15F0288C2350D9
:102C00002324296E22AE07EF16F009EF16F00AEF23
:102C100016F029802950D8B410EF16F012EF16F0F4
:102C200027EF16F02928D8A418EF16F01AEF16F09F
:102C300022EF16F0000E206E000E216E000E226EA6
:102C4000000E236E228E000E236E2FEF16F0000E64
:102C5000206E000E216E000E226E000E236E2A5092
:102C6000295CD8B036EF16F038EF16F05FEF16F0AB
:102C700028AC3DEF16F03FEF16F041EF16F0800E56
:102C8000281A2AC52BF529C52AF52BC529F51CC5F7
:102C90002BF520C51CF52BC520F51DC52BF521C531
:102CA0001DF52BC521F51EC52BF522C51EF52BC51F
:102CB00022F51FC52BF523C51FF52BC523F5000EE7
:102CC0002B6E2A5029C524F5256A245E000E255A4C
:102CD00025BE74EF16F0255009E11A0E245CD8A029
:102CE00074EF16F076EF16F0ADEF16F01C501D10D5
:102CF0001E101F10D8A47FEF16F082EF16F0010E01
:102D000083EF16F0000E2B6E000E1C6E000E1D6E73
:102D1000000E1E6E000E1F6E29C52AF5B6EF16F0C6
:102D20002BA095EF16F097EF16F09DEF16F0D890C8
:102D30002B3001092B6E9FEF16F0D8902B321CA080
:102D4000A4EF16F0A6EF16F0A7EF16F02B8E1F34A7
:102D50001F321E321D321C322A2A29502A5CD8A06A
:102D6000B4EF16F0B6EF16F090EF16F028BCBBEFFC
:102D700016F0BDEF16F0FDEF16F02A50D8A4C3EF01
:102D800016F0C5EF16F0CFEF16F0000E1C6E000E19
:102D90001D6E000E1E6E000E1F6E1EEF18F02050EE
:102DA0001C2621501D2222501E2223501F221FA00C
:102DB000DCEF16F0DEEF16F08AEF17F02BA0E3EF52
:102DC00016F0E5EF16F0EBEF16F0D8902B30010976
:102DD0002B6EEDEF16F0D8902B321CA0F2EF16F010
:102DE000F4EF16F0F5EF16F02B8E1F341F321E3263
:102DF0001D321C322A2A8AEF17F020501C5C215009
:102E00001D5822501E581F50800A246E2350800ADD
:102E10002458D8B00EEF17F010EF17F03BEF17F073
:102E20001C50205C246E1D502158256E1E502258C7
:102E3000266E1F502358276EFF0E24241C6EFF0E93
:102E400025201D6EFF0E26201E6EFF0E27201F6EF2
:102E5000800E281A2B6C2B50D8A431EF17F033EFCB
:102E600017F043EF17F0010E1C26000E1D221E2244
:102E70001F2243EF17F020501C5E21501D5A225094
:102E80001E5A23501F5A1C501D101E101F10D8A46C
:102E90004CEF17F04EEF17F083EF17F02B50D8A43C
:102EA00054EF17F056EF17F083EF17F0000E1C6E7B
:102EB000000E1D6E000E1E6E000E1F6E1EEF18F02F
:102EC000D8901C361D361E361F362BAE6AEF17F013
:102ED0006CEF17F06DEF17F01C802BA072EF17F05E
:102EE00074EF17F078EF17F0D8802B367AEF17F0E1
:102EF000D8902B362A50D8B480EF17F082EF17F015
:102F000083EF17F02A061EAE88EF17F08AEF17F04E
:102F100060EF17F0000E296E2BAE91EF17F093EFD4
:102F200017F0ABEF17F02BC524F57F0E2416D8B49D
:102F30009CEF17F09EEF17F0A2EF17F0010E296E2D
:102F4000ABEF17F01CA0A7EF17F0A9EF17F0ABEF4E
:102F500017F09EEF17F02950D8B4B1EF17F0B3EF88
:102F600017F0DEEF17F0010E1C26000E1D221E22A8
:102F70001F221FA0BEEF17F0C0EF17F0DEEF17F013
:102F80001CC524F51DC525F51EC526F51FC527F54D
:102F90002734273226322532243224C51CF525C594
:102FA0001DF526C51EF527C51FF52A28D8B4DBEF69
:102FB00017F0DDEF17F0DEEF17F02A2A2A28D8B431
:102FC000E4EF17F0E6EF17F0EEEF17F02A50D8A471
:102FD000ECEF17F0EEEF17F000EF18F0000E1C6E9C
:102FE000000E1D6E000E1E6E000E1F6E2A50D8A41D
:102FF000FCEF17F0FEEF17F000EF18F0000E286E50
:103000002AA005EF18F007EF18F00AEF18F01E8E4F
:103010000BEF18F01E9ED8902A301F6E28AE13EFCB
:1030200018F015EF18F016EF18F01F8E1CC51CF5E0
:103030001DC51DF51EC51EF51FC51FF51200050196
:10304000D351A95DBB6F000EAA59BC6F000EAB59DE
:10305000BD6F000EAC59BE6F000E876F400E886FBB
:103060001C0E896FC60E8A6FBFC579F5C0C57AF58B
:10307000C1C57BF5C2C57CF5010E9DEC1FF079C57D
:103080008BF57AC58CF57BC58DF57CC58EF515EC79
:1030900026F00501D8B04FEF18F051EF18F07FEF90
:1030A00018F0BFC579F5C0C57AF5C1C57BF5C2C5B5
:1030B0007CF5010E9DEC1FF079C587F57AC588F582
:1030C0007BC589F57CC58AF5000E05018B6F400E26
:1030D0008C6F1C0E8D6F460E8E6F15EC26F0050161
:1030E000D8B075EF18F077EF18F07FEF18F0BB51FC
:1030F000BF27BC51C023BD51C123BE51C223D3C57C
:10310000CBF60601CC6BCD6BCE6B0501B75106013A
:10311000CB5D0501B8510601CC590501B951060135
:10312000CD59CE51800ACF6F0501BA51800A0601F0
:10313000CF59D8B09EEF18F0A0EF18F0ADEF18F00F
:103140000501D351B75DAE6F000EB859AF6F000ED9
:10315000B959B06F000EBA59B16F0501D351B76FAD
:10316000B86BB96BBA6BBBC66CF5BCC66DF5BDC6AA
:103170006EF5BEC66FF5BBC570F5BCC571F5BDC5B6
:1031800072F5BEC573F5D8EC31F06CC5CBF66DC5E4
:10319000CCF66EC5CDF66FC5CEF6B7C66CF5B8C623
:1031A0006DF5B9C66EF5BAC66FF5BFC570F5C0C589
:1031B00071F5C1C572F5C2C573F5D8EC31F00501E2
:1031C0006C510601CB25CF6F05016D510601CC2155
:1031D000D06F05016E510601CD21D16F05016F51F0
:1031E0000601CE21D26F24C66CF525C66DF526C624
:1031F0006EF527C66FF5AEC570F5AFC571F5B0C5F4
:1032000072F5B1C573F5D8EC31F005016C510601CA
:10321000CF25D36F05016D510601D021D46F050173
:103220006E510601D121D56F05016F510601D221E2
:10323000D66FBF51D3250501B26F0601C051D4210D
:103240000501B36F0601C151D5210501B46F060117
:10325000C251D6210501B56F00F0B2C56CF5B3C5FA
:103260006DF5B4C56EF5B5C56FF5000E0501706F4F
:10327000040E716F000E726F000E736F84EC24F0F9
:103280006CC5B2F56DC5B3F56EC5B4F56FC5B5F5D2
:103290000501B5BF50EF19F04EEF19F05AEF19F0D4
:1032A000000EB26F000EB36F000EB46F000EB56F5C
:1032B00072EF19F0B5BF68EF19F0B551B411B31141
:1032C00009E1650EB25DD8A068EF19F06AEF19F058
:1032D00072EF19F0640EB26F000EB36F000EB46F90
:1032E000000EB56FD405D8A478EF19F07AEF19F075
:1032F000A3EF19F0E551AD19D8A481EF19F083EFD0
:1033000019F0ADEF19F0E505D8A489EF19F08BEFAE
:1033100019F08DEF19F0ADEF19F0E551D8A493EF46
:1033200019F095EF19F0A1EF19F0B2C5A1F5B3C5E9
:10333000A2F5010EA46F2C0EA36F38EC2BF0ADEFAD
:1033400019F0ADEF19F0000EA26F000EA16F010E83
:10335000A46F2C0EA36F38EC2BF012000501D35193
:103360003E5CBB6F000E3F58BC6F000E4058BD6FF7
:10337000000E4158BE6F000E1C6E400E1D6E1C0EDE
:103380001E6EC60E1F6EBFC50EF5C0C50FF5C1C5BA
:1033900010F5C2C511F5010E79EC20F00EC520F52F
:1033A0000FC521F510C522F511C523F51BEC27F03B
:1033B000D8B0DDEF19F0DFEF19F00CEF1AF0BFC550
:1033C0000EF5C0C50FF5C1C510F5C2C511F5010E4A
:1033D00079EC20F00EC51CF50FC51DF510C51EF5C6
:1033E00011C51FF5000E206E400E216E1C0E226EC0
:1033F000460E236E1BEC27F0D8B001EF1AF003EF56
:103400001AF00CEF1AF00501BB51BF27BC51C023C5
:10341000BD51C123BE51C223D3C543F5446A456A99
:10342000466A0501B751435CB8514458B9514558F3
:103430004650800A476EBA51800A4758D8B023EFE9
:103440001AF025EF1AF031EF1AF0D351B75D4F6E35
:10345000000EB859506E000EB959516E000EBA598F
:10346000526ED351B76FB86BB96BBA6BBBC601F56F
:10347000BCC602F5BDC603F5BEC604F5BBC505F561
:10348000BCC506F5BDC507F5BEC508F543EC32F071
:1034900001C543F502C544F503C545F504C546F528
:1034A000B7C601F5B8C602F5B9C603F5BAC604F544
:1034B000BFC505F5C0C506F5C1C507F5C2C508F508
:1034C00043EC32F001504324476E02504420486ED2
:1034D00003504520496E045046204A6E24C601F52B
:1034E00025C602F526C603F527C604F54FC505F522
:1034F00050C506F551C507F552C508F543EC32F045
:10350000015047244B6E025048204C6E0350492016
:103510004D6E04504A204E6E0601BF514B24536E2F
:10352000C0514C20546EC1514D20556EC2514E2099
:10353000566E00F053C50DF554C50EF555C50FF583
:1035400056C510F5000E116E040E126E000E136EAD
:10355000000E146E0BEC25F00DC553F50EC554F599
:103560000FC555F510C556F556BEBBEF1AF0B9EFAD
:103570001AF0C5EF1AF0000E536E000E546E000ED6
:10358000556E000E566EDDEF1AF056BED3EF1AF0F0
:1035900056505510541009E1650E535CD8A0D3EF76
:1035A0001AF0D5EF1AF0DDEF1AF0640E536E000E2C
:1035B000546E000E556E000E566E0501D405D8A44B
:1035C000E4EF1AF0E6EF1AF00FEF1BF0E5514218A6
:1035D000D8A4EDEF1AF0EFEF1AF019EF1BF0E505A4
:1035E000D8A4F5EF1AF0F7EF1AF0F9EF1AF019EF87
:1035F0001BF0E551D8A4FFEF1AF001EF1BF00DEF1F
:103600001BF053C536F554C537F5010E396E2C0E37
:10361000386EA2EC2BF019EF1BF019EF1BF0000E27
:10362000376E000E366E010E396E2C0E386EA2EC1F
:103630002BF012006100E4F5D9F46100E8F5DAF44A
:10364000610078F37EF5610078F37FF5610078F32F
:1036500080F5610078F381F5050120EE04F07951E1
:10366000D9267A51DA22DFA038EF1BF03AEF1BF0AF
:1036700074EF1BF020EE01F07751D9267851DA2251
:103680007E39E842F80BF80BDF6E050E7B6FD890A1
:10369000813380337F337E337B2F47EF1BF020EE67
:1036A00002F07751D9267851DA226100F8F5DFF47B
:1036B0007FC57EF580C57FF581C580F5816B20EEE5
:1036C00003F07751D9267851DA227E511F0BDF6E35
:1036D000050E7B6FD890813380337F337E337B2F11
:1036E0006AEF1BF08CEF1BF020EE03F07751D92628
:1036F0007851DA22000EDF6E10EE02F07751E126EB
:103700007851E222DFC4E7F420EE01F07751D926A8
:103710007851DA22E7C4DFF46100DCF5D9F4610006
:10372000E0F5DAF46100F8F5DFF47FC57EF580C5D9
:103730007FF581C580F5816B7EC57BF5070E7B1714
:1037400020EE01F07751D9267851DA227B51DF1231
:1037500020EE04F07951D9267A51DA22DF30E832AE
:103760000F0B7D6F20EE04F07951D9267A51DA22C1
:10377000DFB0BDEF1BF0C1EF1BF07B6B7B2BC3EF0A
:103780001BF005017B6B7B39F00B7D1320EE04F001
:103790007951D9267A51DA22DFB2D1EF1BF0D5EF79
:1037A0001BF0200E7B6FD7EF1BF005017B6B7B516D
:1037B0007D1320EE04F07951D9267A51DA22DFBE4A
:1037C000E4EF1BF0E8EF1BF0400E7B6FEAEF1BF01D
:1037D00005017B6B7B517D1320EE04F07951D926D6
:1037E0007A51DA22DFBCF7EF1BF0FBEF1BF0800E03
:1037F0007B6FFDEF1BF005017B6B7B517D1320EE92
:1038000004F07751D9267851DA226100F4F5DFF41B
:1038100020EE04F07951D9267A51DA22DFB213EF83
:103820001CF015EF1CF041EF1CF0080E77256C6FB3
:10383000000E78216D6F20EE05F07951D9267A516E
:10384000DA22610078F36EF5610074F36FF520EE13
:1038500004F07951D9267A51DA22DF30E8320F0BA1
:103860007B6F7C6B270E7B25F66E260E7C21F76E18
:10387000F86A000EF8220800F550706F716BA6EC24
:1038800032F012000AEC2CF00009D8B44AEF1CF018
:103890004CEF1CF069EF1DF0910E216E060E226EAA
:1038A00001EC33F0E806D8A458EF1CF05AEF1CF0F6
:1038B00069EF1DF000F091C660F592C661F593C600
:1038C00062F594C663F5610058FAD9F461005CFAB8
:1038D000DAF4DF5005016B6F060120EE01F096511E
:1038E000D9269751DA22DF5005016A6F060120EED2
:1038F00002F09651D9269751DA22DF500501676F01
:10390000060120EE03F09651D9269751DA22DF50B6
:103910000501686F060120EE04F09651D9269751F3
:10392000DA22DF500501696F060120EE05F096519D
:10393000D9269751DA22DF500501646F060120EE87
:1039400006F09651D9269751DA22DF500501656FAE
:10395000060120EE07F09651D9269751DA22DF5062
:103960000501666F23EF1DF06BC5EAF56AC5E9F541
:1039700067C5E8F568C5E7F569C5E6F5E505D8A4C6
:10398000C4EF1CF0C6EF1CF069EF1DF0E951406E6A
:10399000416A426A436A010E446EE6EC2DF005016D
:1039A000EA513E6E3F6A406A416A010E426EAEECD9
:1039B00019F0010E0501E46F69EF1DF06B51070B63
:1039C000E36F6B51180BE26F6B51E00BE16F6A51C3
:1039D000010BE06F6A51060BDF6F6A51780BDE6FE7
:1039E00069EF1DF06BC5DDF56AC5DCF567C5DBF574
:1039F00068C5DAF569C5D9F564C5D8F565C5D7F5E3
:103A000066C5D6F569EF1DF06BC5E5F5E55175ECBA
:103A100033F069EF1DF06BC5D5F5E551D8A413EF70
:103A20001DF015EF1DF069EF1DF0D551406E416A94
:103A3000426A436A000E446EE6EC2DF069EF1DF019
:103A400000F069EF1DF060C557F561C558F562C516
:103A500059F563C55AF55A50000AD8B462EF1DF003
:103A600020EF1DF05850030AD8B441EF1DF0070AAB
:103A7000D8B44CEF1DF0010AD8B453EF1DF020EF7D
:103A80001DF05750200AD8B4B4EF1CF0670AD8B420
:103A900004EF1DF020EF1DF05750120AD8B40BEFC1
:103AA0001DF020EF1DF05750000AD8B4DEEF1CF0D7
:103AB000010AD8B4F2EF1CF0030AD8B469EF1DF084
:103AC00020EF1DF05950000AD8B432EF1DF020EF5E
:103AD0001DF0120020EE04F00C50D9260D50DA2211
:103AE000DF50166E16C510F520EE04F00E50D926E4
:103AF0000F50DA2210461046DF501018C30B101872
:103B0000DF6E16B886EF1DF08AEF1DF0106A102ADE
:103B10008BEF1DF0106A20EE04F00E50D9260F50E6
:103B2000DA22DF501018FE0B1018DF6E16BA9BEF6A
:103B30001DF09FEF1DF0106A102AA0EF1DF0106A13
:103B400020EE04F00E50D9260F50DA221046DF5036
:103B50001018FD0B1018DF6E16BCB1EF1DF0B5EF9D
:103B60001DF0106A102AB6EF1DF0106A20EE04F066
:103B70000E50D9260F50DA2210321032DF501018B2
:103B80007F0B1018DF6E16BEC8EF1DF0CCEF1DF0D6
:103B9000106A102ACDEF1DF0106A20EE04F00E50CE
:103BA000D9260F50DA22103A10461046DF5010186E
:103BB000BF0B1018DF6E20EE01F00C50D9260D500F
:103BC000DA22DF50106E070E10161050126E136AB4
:103BD000146A156A14C515F513C514F512C513F545
:103BE000126A610030F4D9F4610034F4DAF4DF5081
:103BF000106E1050121220EE04F00E50D9260F5005
:103C0000DA22DFA006EF1EF008EF1EF049EF1EF0EB
:103C1000050ED8901236133614361536E82E09EFF5
:103C20001EF020EE03F00C50D9260D50DA22DF50A2
:103C3000106E1F0E10161050121214C515F513C574
:103C400014F512C513F5126A20EE02F00C50D926B5
:103C50000D50DA22DF50106E10501212050ED8905F
:103C60001236133614361536E82E2FEF1EF020EEDE
:103C700001F00C50D9260D50DA22DF50106ED8908A
:103C80001032D8901032D89010321F0E10161050EB
:103C90001212610038F4D9F461003CF4DAF46100E6
:103CA00048F4DEF461004CF4DEF4610050F4DEF41C
:103CB000610054F4DEF4890E016E060E026E080EE9
:103CC0000C24036E000E0D20046E20EE04F00E5046
:103CD000D9260F50DA22DF30E8320F0B106E116A4E
:103CE000270E1024F66E260E1120F76EF86A000ECD
:103CF000F8220800F550056E066AD4EC32F020EE8A
:103D000005F00E50D9260F50DA22890EDE6E060E0F
:103D1000DD6E1200020E0301F96F3F0EFA6F000E06
:103D2000D86F000EFB6F000ED96F000EDA6F000E19
:103D3000DB6F000EDC6F000EDF6F000EE06F000E19
:103D4000E36F000EE46F000EE56F000EE66F000EED
:103D5000E76F000EEA6F000EEB6F100EEC6FE80ECF
:103D6000EE6F030EEF6F000EF06F000EF16F000E9E
:103D7000F26F000EF36F000EF46F100EF56F000E71
:103D8000F66F000EF76F000EF86F000EFC6F010E5D
:103D9000FB6F000ED96F000EDA6F000EDB6F000EA6
:103DA000DC6F000EDF6F000EE06F000EE36F000EA1
:103DB000E46F000EE56F000EE66F000EE76F000E79
:103DC000EA6F000EEB6F040EEC6FE80EEE6F030E61
:103DD000EF6F000EF06F000EF16F000EF26F000E2D
:103DE000F36F000EF46F100EF56F000EF66F000EFD
:103DF000F76F000EF86F000EFD6F020EFB6F000EE6
:103E0000D96F000EDA6F000EDB6F000EDC6F000E54
:103E1000DF6F000EE06F000EE36F000EE46F000E28
:103E2000E56F000EE66F000EE76F000EEA6F000E02
:103E3000EB6F120EEC6FE80EEE6F030EEF6F000EDD
:103E4000F06F000EF16F000EF26F000EF36F000EB8
:103E5000F46F100EF56F000EF66F000EF76F000E88
:103E6000F86F000EFE6F030EFB6F000ED96F000E91
:103E7000DA6F000EDB6F000EDC6F000EDF6F000EDE
:103E8000E06F000EE36F000EE46F000EE56F000EB2
:103E9000E66F000EE76F000EEA6F000EEB6F110E7B
:103EA000EC6FE80EEE6F030EEF6F000EF06F000E7A
:103EB000F16F000EF26F000EF36F000EF46F100E34
:103EC000F56F000EF66F000EF76F000EF86F000E24
:103ED000FF6FAF94AF96B090B092B094B096000ED2
:103EE00005016C6F000E6D6FDCEC36F0000E050105
:103EF0006C6F000E6D6FD2EC36F0000E05016C6F2A
:103F0000000E6D6FCDEC36F0000E05016C6F000EEB
:103F10006D6FC8EC36F0000E05016C6F000E6D6F12
:103F2000C3EC36F0000E05016C6F000E6D6FD7EC20
:103F300036F0840E0301F36F12000501816F050155
:103F40008151D8B4A6EF1FF0A8EF1FF0CAEF1FF001
:103F50007CBFAFEF1FF0ADEF1FF0CAEF1FF079C5C8
:103F60007DF57AC57EF57BC57FF57CC580F57D1F27
:103F70007E1F7F1F801F7D2B000E7E237F238023CB
:103F80007DC583F57EC584F57FC585F580C586F53D
:103F9000D2EF1FF079C583F57AC584F57BC585F529
:103FA0007CC586F579517A117B117C11D8A4DBEFA1
:103FB0001FF0DDEF1FF0E7EF1FF0000E796F000E2E
:103FC0007A6F000E7B6F000E7C6F78EF20F0960EFC
:103FD000826FF1EF1FF0822BD890863385338433C4
:103FE0008333000E83157D6F000E84157E6F000EE7
:103FF00085157F6FFE0E8615806F7D517E117F11B6
:104000008011D8A406EF20F008EF20F0EBEF1FF0AE
:1040100016EF20F0822B010E8327000E84238523C8
:104020008623D8908633853384338333000E8315FB
:104030007D6F000E84157E6F000E85157F6FFF0E5D
:104040008615806F7D517E117F118011D8A42BEFD2
:1040500020F02DEF20F00AEF20F035EF20F082075E
:10406000D890833784378537863785BF3AEF20F07D
:104070003CEF20F044EF20F0020E826142EF20F08E
:1040800044EF20F02FEF20F082B149EF20F04BEF0A
:1040900020F04CEF20F0859FD890823382C57DF5CB
:1040A0007E6B7F6B806B7DC580F57F6B7E6B7D6BE0
:1040B0007D5183137E5184137F5185138051861364
:1040C0008151D8B466EF20F068EF20F070EF20F057
:1040D0007CBF6FEF20F06DEF20F070EF20F0868F47
:1040E00083C579F584C57AF585C57BF586C57CF5EC
:1040F0001200166E1650D8B480EF20F082EF20F038
:10410000A4EF20F011BE89EF20F087EF20F0A4EF9C
:1041100020F00EC512F50FC513F510C514F511C525
:1041200015F5121E131E141E151E122A000E132240
:104130001422152212C518F513C519F514C51AF560
:1041400015C51BF5ACEF20F00EC518F50FC519F518
:1041500010C51AF511C51BF50E500F1010101110D7
:10416000D8A4B5EF20F0B7EF20F0C1EF20F0000E9B
:104170000E6E000E0F6E000E106E000E116E52EFDE
:1041800021F0960E176ECBEF20F0172AD8901B3235
:104190001A3219321832000E1814126E000E191449
:1041A000136E000E1A14146EFE0E1B14156E1250B0
:1041B000131014101510D8A4E0EF20F0E2EF20F057
:1041C000C5EF20F0F0EF20F0172A010E1826000EA0
:1041D00019221A221B22D8901B321A321932183295
:1041E000000E1814126E000E1914136E000E1A141D
:1041F000146EFF0E1B14156E1250131014101510B0
:10420000D8A405EF21F007EF21F0E4EF20F00FEF45
:1042100021F01706D890183619361A361B361ABEF2
:1042200014EF21F016EF21F01EEF21F0020E1760BF
:104230001CEF21F01EEF21F009EF21F017B023EF62
:1042400021F025EF21F026EF21F01A9ED8901732A9
:1042500017C512F5136A146A156A12C515F5146AA2
:10426000136A126A125018121350191214501A12AB
:1042700015501B121650D8B440EF21F042EF21F038
:104280004AEF21F011BE49EF21F047EF21F04AEF4C
:1042900021F01B8E18C50EF519C50FF51AC510F5BE
:1042A0001BC511F51200000E0501A26F000EA16FD3
:1042B000000EA46F320EA36F9DEC27F0000E0501D7
:1042C000C66F000EC56F000EAB6F000EAC6F000E18
:1042D000AD6F000EAE6F010EAF6F91EC2DF05AEC8A
:1042E0002AF00501C505C611D8A479EF21F07BEFAE
:1042F00021F0AEEF21F01E0EAB6F000EAC6F000E82
:10430000AD6F000EAE6F010EAF6F91EC2DF0030E8E
:104310000501B16F8A0EB06F550EE82EFED7B02F93
:10432000FCD7B12FFAD700D0320E0501AB6F000ECB
:10433000AC6F000EAD6F000EAE6F010EAF6F91EC63
:104340002DF0030E0501B16F8A0EB06F550EE82EE9
:10435000FED7B02FFCD7B12FFAD700D05AEC2AF0F5
:10436000030E0501C519C611D8A4B9EF21F0BBEFA2
:1043700021F0EEEF21F0460EAB6F000EAC6F000E99
:10438000AD6F000EAE6F010EAF6F91EC2DF0030E0E
:104390000501B16F8A0EB06F550EE82EFED7B02F13
:1043A000FCD7B12FFAD700D0640E0501AB6F000E19
:1043B000AC6F000EAD6F000EAE6F010EAF6F91ECE3
:1043C0002DF0020E0501B16FE70EB06F000EE82E62
:1043D000FED7B02FFCD7B12FFAD700F05AEC2AF055
:1043E000020E0501C519C611D8A4F9EF21F0FBEFA3
:1043F00021F007EF22F0000EAB6F000EAC6F000E45
:10440000AD6F000EAE6F010EAF6F91EC2DF012008C
:1044100001011DAF0EEF22F010EF22F01FEF22F08E
:1044200002D81DEF22F00500FA6E06017A51FD6EEA
:104430007B51FE6EFF6AFA50120001011D9F1DADF7
:1044400024EF22F026EF22F035EF22F002D833EFEE
:1044500022F00500FA6E06017851FD6E7951FE6E6C
:10446000FF6AFA50120001011D9D1DAB3AEF22F0C8
:104470003CEF22F04BEF22F002D849EF22F005008A
:10448000FA6E06017651FD6E7751FE6EFF6AFA50A4
:10449000120001011D9B1CA750EF22F052EF22F0E9
:1044A00061EF22F002D85FEF22F00500FA6E0601FC
:1044B0007451FD6E7551FE6EFF6AFA5012000101D3
:1044C0001C971DA966EF22F068EF22F077EF22F02B
:1044D00002D875EF22F00500FA6E06017251FD6EEA
:1044E0007351FE6EFF6AFA50120001011D991DA55D
:1044F0007CEF22F07EEF22F094EF22F002D88BEFD7
:1045000022F00500FA6E06017051FD6E7151FE6ECB
:10451000FF6AFA501200010154A991EF22F093EFC3
:1045200022F094EF22F054991DA799EF22F09BEF0F
:1045300022F0B1EF22F002D8A8EF22F00500FA6EC7
:1045400006016E51FD6E6F51FE6EFF6AFA50120049
:10455000010160A7AEEF22F0B0EF22F0B1EF22F040
:104560006097AE9C1200000E0501A26F000EA16FB5
:10457000020EA46F580EA36F38EC2BF0030E05014A
:10458000AA6F8A0EA96F550EE82EFED7A92FFCD769
:10459000AA2FFAD700D0030E57EC23F071C54CF6C2
:1045A00072C54DF6040E57EC23F071C54AF672C57C
:1045B0004BF6020E0501AA6F450EA96FA90EE82E53
:1045C000FED7A92FFCD7AA2FFAD700D000F0000EF3
:1045D0000501A26F640EA16F020EA46F580EA36FA7
:1045E00038EC2BF0070E0501AA6F580EA96F590E73
:1045F000E82EFED7A92FFCD7AA2FFAD700D0030E9A
:1046000057EC23F071C548F672C549F6040E57EC15
:1046100023F071C546F672C547F6020E0501AA6F72
:10462000450EA96FA90EE82EFED7A92FFCD7AA2FF9
:10463000FAD700D000F0000E0501A26F140EA16F92
:10464000010EA46F900EA36F38EC2BF0030E050142
:10465000AA6F8A0EA96F550EE82EFED7A92FFCD798
:10466000AA2FFAD700D0000E0501A26F140EA16F79
:10467000020EA46F580EA36F38EC2BF0030E050149
:10468000AA6F8A0EA96F550EE82EFED7A92FFCD768
:10469000AA2FFAD700D0000E0501A26F000EA16F5D
:1046A000020EA46F580EA36F38EC2BF01200050118
:1046B000756F9AEF23F0EBEC36F0000E55EC36F008
:1046C000100E97EC33F06CC576F56DC577F5010EDD
:1046D0000501786FB8EF23F0EBEC36F0010E55ECE6
:1046E00036F0040E97EC33F06CC576F56DC577F5B2
:1046F00067EF23F0EBEC36F0020E55EC36F0120EBD
:1047000097EC33F06CC576F56DC577F567EF23F060
:10471000EBEC36F0030E55EC36F0110E97EC33F05F
:104720006CC576F56DC577F567EF23F0020E786FEF
:10473000B8EF23F005017551736F746B7451000A63
:10474000D8B4A5EF23F096EF23F07351010AD8B443
:104750007AEF23F0030AD8B488EF23F0010AD8B423
:104760005BEF23F0070AD8B46CEF23F096EF23F049
:104770007805D8A4BEEF23F0C0EF23F0EEEF23F0CE
:10478000775107E1070E765DD8B0C9EF23F0CBEF84
:1047900023F0D1EF23F0000E7A6F000E796FDBEF7C
:1047A00023F076C579F577C57AF5FB0E7925796F13
:1047B000FF0E7A217A6F890E795D130E7A59D8A08F
:1047C000E4EF23F0E6EF23F0E8EF23F0EEEF23F041
:1047D00079C571F57AC572F5EEEF23F012000A6E15
:1047E00030EF24F0EEEC36F0000EE6EC36F0100E72
:1047F0005EEC34F001C50BF502C50CF5010E0D6E33
:104800004DEF24F0EEEC36F0010EE6EC36F0040E3F
:104810005EEC34F001C50BF502C50CF5FEEF23F09C
:10482000EEEC36F0020EE6EC36F0120E5EEC34F0F2
:1048300001C50BF502C50CF5FEEF23F0EEEC36F0EA
:10484000030EE6EC36F0110E5EEC34F001C50BF50C
:1048500002C50CF5FEEF23F0020E0D6E4DEF24F0B5
:104860000A50086E096A0950000AD8B43AEF24F0D9
:104870002CEF24F00850010AD8B410EF24F0030AFA
:10488000D8B41EEF24F0010AD8B4F2EF23F0070ADF
:10489000D8B402EF24F02CEF24F00D04D8A453EF89
:1048A00024F055EF24F083EF24F00C5007E1070EBD
:1048B0000B5CD8B05EEF24F060EF24F066EF24F0DC
:1048C000000E0F6E000E0E6E70EF24F00BC50EF58D
:1048D0000CC50FF5FB0E0E240E6EFF0E0F200F6E93
:1048E000890E0E5C130E0F58D8A079EF24F07BEFE1
:1048F00024F07DEF24F083EF24F00EC506F50FC5FC
:1049000007F583EF24F01200000E0501756F73BFE9
:104910008EEF24F08CEF24F098EF24F0731F721FB9
:10492000711F706D000E712372237323010E756F5A
:104930006FBF9FEF24F09DEF24F0A9EF24F06F1FCD
:104940006E1F6D1F6C6D000E6D236E236F23010EA5
:10495000751B000E766F000E776F000E786F000EDD
:10496000796F7051711172117311D8B4BAEF24F0CC
:10497000BCEF24F0F2EF24F0010E746FC6EF24F0C8
:10498000D8907037713772377337742B73AFCBEFA2
:1049900024F0CDEF24F0C0EF24F0D89076377737AD
:1049A0007837793770516C5D71516D5972516E590C
:1049B00073516F59D8A0DFEF24F0E1EF24F0EAEF54
:1049C00024F070516C5F71516D5B72516E5B73516D
:1049D0006F5B7681D8907333723371337033742F79
:1049E000CDEF24F07551D8B4F8EF24F0FAEF24F0AD
:1049F00002EF25F0791F781F771F766D000E772361
:104A00007823792376C56CF577C56DF578C56EF595
:104A100079C56FF51200000E166E14BE14EF25F066
:104A200012EF25F01EEF25F0141E131E121E116C3E
:104A3000000E122213221422010E166E10BE25EF54
:104A400025F023EF25F02FEF25F0101E0F1E0E1E70
:104A50000D6C000E0E220F221022010E161A000EEF
:104A6000176E000E186E000E196E000E1A6E1150A1
:104A7000121013101410D8B440EF25F042EF25F0B7
:104A800078EF25F0010E156E4CEF25F0D890113619
:104A9000123613361436152A14AE51EF25F053EFA3
:104AA00025F046EF25F0D8901736183619361A3605
:104AB00011500D5C12500E5813500F5814501058CE
:104AC000D8A065EF25F067EF25F070EF25F01150C5
:104AD0000D5E12500E5A13500F5A1450105A178070
:104AE000D8901432133212321132152E53EF25F0B2
:104AF0001650D8B47EEF25F080EF25F088EF25F032
:104B00001A1E191E181E176C000E182219221A22BE
:104B100017C50DF518C50EF519C50FF51AC510F511
:104B20001200050199359A35A06FA051D8A49BEFCA
:104B300025F09DEF25F0A7EF25F0000E976F000EF2
:104B4000986F000E996F000E9A6F14EF26F097C5BC
:104B50009BF598C59CF599C59DF59AC59EF5200EC7
:104B6000B7EF25F0D8909E339D339C339B33E82ECE
:104B7000B2EF25F09B519F6F998FFF0E9717FF0E95
:104B80009817FF0E9917000E9A17960EA05FA0BFF8
:104B9000CEEF25F0CCEF25F0E4EF25F0A051800A10
:104BA000970FD8B0D6EF25F0D8EF25F0DAEF25F043
:104BB0009DEF25F0D8909A33993398339733A03FDF
:104BC000DAEF25F0FCEF25F01F0EA065EAEF25F0E7
:104BD000ECEF25F0F4EF25F09DEF25F0D890973716
:104BE000983799379A37A007A051D8A4FAEF25F043
:104BF000FCEF25F0EEEF25F09F51D8B402EF26F040
:104C000004EF26F00CEF26F09A1F991F981F976D5E
:104C1000000E982399239A2397C597F598C598F580
:104C200099C599F59AC59AF51200000E05018715E8
:104C30008F6F000E8815906F800E8915916F7F0E13
:104C40008A15926F8F51901191119211D8A42BEF68
:104C500026F02DEF26F035EF26F0000E876F000EC0
:104C6000886F000E896F000E8A6F000E8B158F6F94
:104C7000000E8C15906F800E8D15916F7F0E8E1526
:104C8000926F8F51901191119211D8A44AEF26F092
:104C90004CEF26F054EF26F0000E8B6F000E8C6F59
:104CA000000E8D6F000E8E6F8AAF59EF26F05BEF0E
:104CB00026F064EF26F0876D881FD8B0882B891FF7
:104CC000D8B0892B800E8A578EAF69EF26F06BEF34
:104CD00026F074EF26F08B6D8C1FD8B08C2B8D1FB7
:104CE000D8B08D2B800E8E57000E871B000E881BB0
:104CF000000E891B800E8A1B000E8B1B000E8C1B66
:104D0000000E8D1B800E8E1B8B51875D8C51885938
:104D10008D5189598E518A59D8B091EF26F093EF71
:104D200026F096EF26F0D89097EF26F0D880120064
:104D30002E342F34356E3550D8A4A1EF26F0A3EFD2
:104D400026F0ADEF26F0000E2C6E000E2D6E000E3C
:104D50002E6E000E2F6E1AEF27F02CC530F52DC5E4
:104D600031F52EC532F52FC533F5200EBDEF26F0F7
:104D7000D8903332323231323032E82EB8EF26F06A
:104D80003050346E2E8EFF0E2C16FF0E2D16FF0E99
:104D90002E16000E2F16960E355E35BED4EF26F079
:104DA000D2EF26F0EAEF26F03550800A970FD8B000
:104DB000DCEF26F0DEEF26F0E0EF26F0A3EF26F0A2
:104DC000D8902F322E322D322C32353EE0EF26F0A5
:104DD00002EF27F01F0E3564F0EF26F0F2EF26F019
:104DE000FAEF26F0A3EF26F0D8902C362D362E368B
:104DF0002F3635063550D8A400EF27F002EF27F004
:104E0000F4EF26F03450D8B408EF27F00AEF27F07B
:104E100012EF27F02F1E2E1E2D1E2C6C000E2D22A1
:104E20002E222F222CC52CF52DC52DF52EC52EF5A5
:104E30002FC52FF51200000E1C14246E000E1D1439
:104E4000256E800E1E14266E7F0E1F14276E2450B2
:104E5000251026102710D8A430EF27F032EF27F0C6
:104E60003AEF27F0000E1C6E000E1D6E000E1E6E37
:104E7000000E1F6E000E2014246E000E2114256EED
:104E8000800E2214266E7F0E2314276E24502510C8
:104E900026102710D8A44FEF27F051EF27F059EF35
:104EA00027F0000E206E000E216E000E226E000E06
:104EB000236E1FAE5EEF27F060EF27F069EF27F05B
:104EC0001C6C1D1ED8B01D2A1E1ED8B01E2A800EB6
:104ED0001F5623AE6EEF27F070EF27F079EF27F023
:104EE000206C211ED8B0212A221ED8B0222A800E82
:104EF0002356000E1C1A000E1D1A000E1E1A800EDC
:104F00001F1A000E201A000E211A000E221A800EFF
:104F1000231A20501C5C21501D5822501E5823502B
:104F20001F58D8B096EF27F098EF27F09BEF27F0A7
:104F3000D8909CEF27F0D8801200490E05016C6FC5
:104F4000990E6D6F000E6E6F000E6F6FA3C570F53A
:104F5000A4C571F5726B736B84EC24F06CC5A7F576
:104F60006DC5A8F56A0E05018B6F4D0E8C6F930E03
:104F70008D6FBF0E8E6FA7C579F5A8C57AF57B6BCF
:104F80007C6B000E9DEC1FF079C587F57AC588F51E
:104F90007BC589F57CC58AF55EEC13F087C597F56E
:104FA00088C598F589C599F58AC59AF591EC25F0DB
:104FB00097C5A7F598C5A8F5A1C5A5F5A2C5A6F5FD
:104FC0000501D890A537A637D890A537A637A5C52F
:104FD000A9F5A6C5AAF5A9C579F5AAC57AF5000E61
:104FE0007C6F640E7B6F1AEC35F079C5A9F57AC534
:104FF000AAF5A9C56CF5AAC56DF5A3C56EF5A4C53E
:105000006FF57BEC30F06CC5A9F56DC5AAF5A9C5A7
:105010006CF5AAC56DF547EC36F0A7C56CF5A8C5CB
:105020006DF540EC36F0F8EC36F01200490E0D6EDE
:10503000990E0E6E000E0F6E000E106E38C511F533
:1050400039C512F5136A146A0BEC25F00DC53CF551
:105050000EC53DF56A0E206E4D0E216E930E226E2A
:10506000BF0E236E3CC50EF53DC50FF5106A116AE3
:10507000000E79EC20F00EC51CF50FC51DF510C50E
:105080001EF511C51FF5BFEC15F01CC52CF51DC58F
:105090002DF51EC52EF51FC52FF598EC26F02CC555
:1050A0003CF52DC53DF536C53AF537C53BF5D890ED
:1050B0003A363B36D8903A363B363AC53EF53BC594
:1050C0003FF53EC50EF53FC50FF5000E116E640E9F
:1050D000106E5BEC35F00EC53EF50FC53FF53EC5D5
:1050E00001F53FC502F538C503F539C504F565EC92
:1050F00031F001C53EF502C53FF53EC501F53FC59E
:1051000002F56DEC36F03CC501F53DC502F567ECE6
:1051100036F0FCEC36F01200206E000E1C6E1750BC
:10512000DFEC35F01F6E1FA098EF28F09AEF28F003
:1051300000EF29F017500C0D580EF324D96E010E14
:10514000F420DA6E610078F31DF5610074F31EF54A
:105150001D501E10D8B4AFEF28F0B1EF28F000EFCB
:1051600029F01DC50CF51EC50DF518C50EF519C5A0
:105170000FF56AEC1DF017500C0D510EF324D96E8B
:10518000010EF420DA6E000EDB802050020DF30ECB
:10519000F324D96E050EF420DA6EDF2A1750A9EC3D
:1051A00035F01A6E2050020DF30EF324D96E050E61
:1051B000F420DA6E1A50DE5CD8A0E1EF28F0E3EFBD
:1051C00028F0EDEF28F02050020DF30EF324D96EF5
:1051D000050EF420DA6E000EDF6E1FA6F2EF28F047
:1051E000F4EF28F0FEEF28F017500C0D540EF324C6
:1051F000D96E010EF420DA6EF70EDF16010E1C6E6A
:105200001C5012000501726F000E0501736F20EE35
:1052100004F06D51D9266E51DA22DF50746F74AFED
:1052200014EF29F016EF29F022EF29F0E1EC36F027
:10523000060AD8A41EEF29F020EF29F022EF29F06A
:105240000501738305017431E8320F0B6F6F080E8F
:105250006F652DEF29F02FEF29F042EF29F074ADA3
:1052600034EF29F036EF29F040EF29F0E1EC36F089
:10527000060AD8A43EEF29F040EF29F042EF29F0CA
:10528000050173812F0EF66E260EF76EF86A080080
:105290006100D4F36FF505017431E8320F0B706FC4
:1052A000716B270E7025F66E260E7121F76EF86A67
:1052B000000EF8220800F5506F5DD8B062EF29F0BB
:1052C00064EF29F065EF29F073817251B8EC35F085
:1052D0000009D8A46EEF29F070EF29F073EF29F0E0
:1052E000030E05017313050173511200000ECFB4B4
:1052F000010E016E000ECEB2010E026E00F001042E
:10530000D8A485EF29F087EF29F09AEF29F0025011
:10531000D8A48DEF29F08FEF29F09AEF29F0000E35
:105320000501C66F010EC56FC3C55EF6C4C55FF645
:10533000E8EF29F00150D8A4A0EF29F0A2EF29F05E
:10534000B5EF29F00204D8A4A8EF29F0AAEF29F0BC
:10535000B5EF29F0000E0501C66F020EC56FC3C57B
:105360005CF6C4C55DF6E8EF29F00150D8A4BBEFA8
:1053700029F0BDEF29F0CCEF29F00250D8A4C3EFFB
:1053800029F0C5EF29F0CCEF29F0000E0501C66F1A
:10539000030EC56FE8EF29F00104D8A4D2EF29F07D
:1053A000D4EF29F0E3EF29F00204D8A4DAEF29F0D2
:1053B000DCEF29F0E3EF29F0000E0501C66F040EC3
:1053C000C56FE8EF29F0000E0501C66F050EC56F29
:1053D00012008DC5C3F68EC5C4F68FC5C5F690C53F
:1053E000C6F691C5C7F692C5C8F693C5C9F694C569
:1053F000CAF688C598F689C599F68AC59AF68BC506
:105400009BF606019C9D9C9F9C939C918CC595F559
:105410000F0E050195179547954706019C5105010B
:105420009519C30B951906019C6FC30E9D6F060E4F
:105430009E6F01EC36F0E806D8A421EF2AF023EFA6
:105440002AF024EF2AF000F0F6EC35F0E806D8A4B4
:105450002CEF2AF02EEF2AF02FEF2AF000F0EBECE1
:1054600035F0E806D8A437EF2AF039EF2AF03AEF02
:105470002AF000F0C6EC35F0E806D8A442EF2AF096
:1054800044EF2AF045EF2AF000F0000E45EC34F02E
:105490000501956F95A14FEF2AF051EF2AF059EFD2
:1054A0002AF0980E826F060E836F000EDFEC2EF04E
:1054B00000F01200000ECFB4010E05016C6F000E5B
:1054C000CEB2010E6D6F00F005016C05D8A46BEF34
:1054D0002AF06DEF2AF07FEF2AF06D51D8A473EF18
:1054E0002AF075EF2AF07FEF2AF0000EC66F010E4A
:1054F000C56FC3C55EF6C4C55FF6C9EF2AF06C512F
:10550000D8A485EF2AF087EF2AF099EF2AF06D05ED
:10551000D8A48DEF2AF08FEF2AF099EF2AF0000E31
:10552000C66F020EC56FC3C55CF6C4C55DF6C9EF94
:105530002AF06C51D8A49FEF2AF0A1EF2AF0AFEF28
:105540002AF06D51D8A4A7EF2AF0A9EF2AF0AFEF07
:105550002AF0000EC66F030EC56FC9EF2AF06C0566
:10556000D8A4B5EF2AF0B7EF2AF0C5EF2AF06D0501
:10557000D8A4BDEF2AF0BFEF2AF0C5EF2AF0000E45
:10558000C66F040EC56FC9EF2AF0000EC66F050E78
:10559000C56F120006019F51A011D8B4D2EF2AF0B6
:1055A000D4EF2AF0E0EF2AF002D8E0EF2AF005006D
:1055B000FA6E9F51FD6EA051FE6EFF6AFA50120006
:1055C0004EEC36F05F2A060E5F18D8A4EAEF2AF0F8
:1055D000ECEF2AF0F0EF2AF0000E5F6E2AEC36F0C6
:1055E0000501F12B0B0EF119D8A4F9EF2AF0FBEF0E
:1055F0002AF0FFEF2AF0000EF16F01EC37F0050101
:10560000F02B650EF019D8A408EF2BF00AEF2BF061
:105610000EEF2BF0000EF06F03EC37F00601644B39
:10562000652B2D0E641906E16505D8A41AEF2BF041
:105630001CEF2BF022EF2BF0000E656F000E646F55
:1056400000EC37F00601624B632B590E621907E13B
:10565000020E6319D8A42FEF2BF031EF2BF037EFA8
:105660002BF0000E636F000E626F02EC37F0120039
:10567000A3C570F5A4C571F50501726B736B900E2F
:105680006C6F010E6D6F000E6E6F000E6F6F3AEC57
:105690002EF06CC579F56DC57AF5A1C57BF5A2C56F
:1056A0007CF51AEC35F079C5A7F57AC5A8F5A7C53C
:1056B0006CF5A8C56DF539EC36F06A0E05018B6FF7
:1056C0004D0E8C6F930E8D6FBF0E8E6FA3C570F550
:1056D000A4C571F5726B736B490E6C6F990E6D6F8B
:1056E000000E6E6F000E6F6F3AEC2EF06CC579F500
:1056F0006DC57AF56EC57BF56FC57CF5000E9DEC2A
:105700001FF079C587F57AC588F57BC589F57CC515
:105710008AF55EEC13F087C597F588C598F589C5BD
:1057200099F58AC59AF591EC25F097C5A5F598C528
:10573000A6F5A5C56CF5A6C56DF532EC36F0F6EC10
:1057400036F0120038C505F539C506F5076A086A4E
:10575000900E016E010E026E000E036E000E046EBE
:105760008DEC2EF001C50EF502C50FF536C510F50E
:1057700037C511F55BEC35F00EC53CF50FC53DF5B1
:105780003CC501F53DC502F561EC36F06A0E206EB0
:105790004D0E216E930E226EBF0E236E38C505F599
:1057A00039C506F5076A086A490E016E990E026E40
:1057B000000E036E000E046E8DEC2EF001C50EF58A
:1057C00002C50FF503C510F504C511F5000E79ECFF
:1057D00020F00EC51CF50FC51DF510C51EF511C531
:1057E0001FF5BFEC15F01CC52CF51DC52DF51EC50C
:1057F0002EF51FC52FF598EC26F02CC53AF52DC5D2
:105800003BF53AC501F53BC502F55BEC36F0FAEC29
:1058100036F01200000E036E000E0A6E0A50020DE2
:10582000F20EF324D96E050EF420DA6EDF50066E08
:105830000650DFEC35F0056E05A021EF2CF023EFCC
:105840002CF064EF2CF00650A9EC35F0076E05A69D
:105850002CEF2CF02EEF2CF032EF2CF007C504F5D6
:1058600062EF2CF006500C0D550EF324D96E010E8C
:10587000F420DA6EDF501F0B086E0A50020DF30E93
:10588000F324D96E050EF420DA6EDF50096E09504C
:10589000085CD8B04EEF2CF050EF2CF056EF2CF007
:1058A0000950085C0724046E62EF2CF00850095C74
:1058B000D8B05DEF2CF05FEF2CF02EEF2CF00950FC
:1058C000085C046E045003260A2A0A50D8B46BEF11
:1058D0002CF06DEF2CF00EEF2CF003501200000EA8
:1058E000066E04BE78EF2CF076EF2CF07EEF2CF0F5
:1058F000036C041ED8B0042A010E066E02BE85EFAA
:105900002CF083EF2CF08BEF2CF0016C021ED8B042
:10591000022A010E061A000E086E000E076E0350D2
:105920000410D8B496EF2CF098EF2CF0C0EF2CF0C8
:10593000010E056EA0EF2CF0D89003360436052A30
:1059400004AEA5EF2CF0A7EF2CF09CEF2CF0D89034
:10595000073608360350015C04500258D8A0B3EF54
:105960002CF0B5EF2CF0BAEF2CF00350015E045090
:10597000025A0780D89004320332052EA7EF2CF08C
:105980000650D8B4C6EF2CF0C8EF2CF0CCEF2CF0BA
:10599000076C081ED8B0082A07C501F508C502F52E
:1059A00012006100D8F35BF56100DCF35CF5610087
:1059B000E0F35DF56100D4F35EF5A1AEE2EF2CF00B
:1059C000E4EF2CF0EFEF2CF0B1AEE9EF2CF0EBEFC1
:1059D0002CF0EFEF2CF077EC34F025EF2DF0A1A8B0
:1059E000F4EF2CF0F6EF2CF001EF2DF0B1A8FBEF67
:1059F0002CF0FDEF2CF001EF2DF00FEC34F025EF43
:105A00002DF09EAC06EF2DF008EF2DF013EF2DF0EA
:105A1000AEAC0DEF2DF00FEF2DF013EF2DF008ECE5
:105A200022F025EF2DF0A2A818EF2DF01AEF2DF09F
:105A300025EF2DF0B2A81FEF2DF021EF2DF025EF6F
:105A40002DF030EC35F025EF2DF0610078F5F5F410
:105A5000610074F5F8F4610070F5F7F461006CF51D
:105A6000F6F411001F501B5C016E20501C58026E92
:105A700021501D58036E22501E58046E640E056E90
:105A8000000E066E000E076E000E086E43EC32F03C
:105A900001C50DF502C50EF503C50FF504C510F5DA
:105AA0001F50235C116E20502458126E215025582F
:105AB000136E22502658146E0BEC25F00DC51BF505
:105AC0000EC51CF50FC51DF510C51EF51EBE6DEFEC
:105AD0002DF06BEF2DF077EF2DF0000E1B6E000E0A
:105AE0001C6E000E1D6E000E1E6E8FEF2DF01EBE82
:105AF00085EF2DF01E501D101C1009E1650E1B5C7A
:105B0000D8A085EF2DF087EF2DF08FEF2DF0640EEC
:105B10001B6E000E1C6E000E1D6E000E1E6E1B50C6
:105B200012000501D405D8A498EF2DF09AEF2DF0BE
:105B3000DBEF2DF0ABC579F5ACC57AF5000E7C6FC7
:105B40003C0E7B6F1AEC35F079C5C3F57AC5C4F508
:105B5000C3C56CF5C4C56DF5000E05016F6F640E0D
:105B60006E6F7BEC30F06CC5C3F56DC5C4F50501F7
:105B7000C351C36FC46BE551AF19D8A4C2EF2DF068
:105B8000C4EF2DF0E5EF2DF0C65107E1040EC55D21
:105B9000D8B0CDEF2DF0CFEF2DF0E5EF2DF0C3C550
:105BA000A1F5C4C5A2F5010EA46F2C0EA36F9DEC48
:105BB00027F0E5EF2DF0000EA26F000EA16F010E91
:105BC000A46F2C0EA36F9DEC27F012000501D405E5
:105BD000D8A4EDEF2DF0EFEF2DF02FEF2EF040C514
:105BE0000EF541C50FF5000E116E3C0E106E5BEC0C
:105BF00035F00EC5C3F50FC5C4F5C3C501F5C4C561
:105C000002F5000E046E640E036E65EC31F001C502
:105C1000C3F502C5C4F50501C351C36FC46BE5519B
:105C20004418D8A416EF2EF018EF2EF039EF2EF00E
:105C3000C65107E1040EC55DD8B021EF2EF023EF69
:105C40002EF039EF2EF0C3C536F5C4C537F5010E79
:105C5000396E2C0E386E16EC28F039EF2EF0000E4F
:105C6000376E000E366E010E396E2C0E386E16EC45
:105C700028F01200000E0501746F000E756F000E03
:105C8000766F000E776F7051711172117311D8B465
:105C90004CEF2EF04EEF2EF084EF2EF0010E786FC9
:105CA00058EF2EF0D8907037713772377337782BE2
:105CB00073AF5DEF2EF05FEF2EF052EF2EF0D89025
:105CC000743775377637773770516C5D71516D5910
:105CD00072516E5973516F59D8A071EF2EF073EF56
:105CE0002EF07CEF2EF070516C5F71516D5B725134
:105CF0006E5B73516F5B7481D89073337233713301
:105D00007033782F5FEF2EF074C56CF575C56DF5A7
:105D100076C56EF577C56FF51200000E096E000EA0
:105D20000A6E000E0B6E000E0C6E0550061007106A
:105D30000810D8B49EEF2EF0A0EF2EF0D6EF2EF084
:105D4000010E0D6EAAEF2EF0D890053606360736F6
:105D500008360D2A08AEAFEF2EF0B1EF2EF0A4EF0B
:105D60002EF0D89009360A360B360C360550015CF9
:105D7000065002580750035808500458D8A0C3EFE3
:105D80002EF0C5EF2EF0CEEF2EF00550015E06503E
:105D9000025A0750035A0850045A0980D890083212
:105DA0000732063205320D2EB1EF2EF009C501F58E
:105DB0000AC502F50BC503F50CC504F51200050173
:105DC000876F0501875152EC33F00009D8B4EBEF2F
:105DD0002EF0EDEF2EF02DEF2FF082C56DF583C57F
:105DE0006EF50501875102EC29F00501846F84519D
:105DF000D8A4FDEF2EF0FFEF2EF02DEF2FF08751FE
:105E00000C0D580EF324D96E010EF420DA6E6100E9
:105E100078F385F5610074F386F585518611D8B461
:105E200014EF2FF016EF2FF02DEF2FF085C577F53B
:105E300086C578F582C579F583C57AF51AEC1BF02D
:105E4000050187510C0D510EF324D96E010EF4207B
:105E5000DA6E030EDF122DEF2FF0120005016E6FC8
:105E6000000E05016D6FE1EC36F005016C6F040E5C
:105E70006C19D8B43EEF2FF040EF2FF051EF2FF018
:105E80006E05D8B446EF2FF048EF2FF051EF2FF00A
:105E9000040E6E19D8A44FEF2FF051EF2FF076EFCC
:105EA0002FF00101035105016E19F80B6E19010164
:105EB000036F68EF2FF001011DA961EF2FF063EF71
:105EC0002FF068EF2FF0020E05016D6F78EF2FF0C5
:105ED0000239E832070B05016E19D8A472EF2FF0D2
:105EE00074EF2FF05BEF2FF078EF2FF0010E6D6F56
:105EF0006D511200A8EC34F0B6EC33F0B3EC22F0A4
:105F00002BEC34F053EC21F0D68E000E90EC34F0F4
:105F1000BEB08DEF2FF090EF2FF0010E91EF2FF02C
:105F2000000EFF0A0501B66FBE50B619FE0BB6197A
:105F3000BE6EEF51A96FAA6BAB6BAC6B000EAD6F71
:105F40001FEC18F0300E0501886F030E896F000EEC
:105F50008A6F000E8B6F060E8C6FEEC58DF5EDC54A
:105F60008EF5ECC58FF5EBC590F5000E916F000E28
:105F7000926F000E936F000E946FE9EC29F088EF9A
:105F80002FF00DEF00F0000EBE6E000EBF6E000E83
:105F9000C06E080ECA6EDE0EC66ECC0EC76E070E41
:105FA000C86EE70E0401106F730E086FFD0E006FD0
:105FB000000E216F000E096F000E016F000E116FB1
:105FC000000E026F000E0A6F180E126F03690B6944
:105FD000136904690C691469080E246F0F0E02011D
:105FE000696F140E706F1A0E0A6F370E146F180E49
:105FF000096F380E156F0B0E3D6F460E0D6F130EA9
:10600000716F1200140E05016C6F6E0E6D6FB4ECA3
:1060100036F0160E05016C6F6E0E6D6FB9EC36F032
:10602000180E05016C6F6E0E6D6FBEEC36F0120E21
:1060300005016C6F6E0E6D6FAFEC36F00E0E050144
:106040006C6F6E0E6D6FA5EC36F00C0E05016C6F6B
:106050006E0E6D6FA0EC36F0100E05016C6F6E0EBB
:106060006D6FAAEC36F0AE9C000E01011C6F000EA5
:106070001D6F0A0E1E6FFC0E1F6F9E8C120044C611
:106080001BF545C61CF51D6A1E6A4CC61FF54DC69C
:1060900020F5216A226A48C623F549C624F5256AF7
:1060A000266A32EC2DF00501EC6F42C61BF543C6A3
:1060B0001CF51D6A1E6A4AC61FF54BC620F5216AEB
:1060C000226A46C623F547C624F5256A266A32ECBD
:1060D0002DF00501EB6FEC51EB25016E026A0236E3
:1060E000000E046E020E036E6FEC2CF001500501E1
:1060F000D36F00F01200000E0501716F000E706F7B
:106100006E516F11D8B487EF30F089EF30F0B1EFF6
:1061100030F0010E726F91EF30F0D8906E376F371C
:10612000722B6FAF96EF30F098EF30F08DEF30F0CC
:10613000D890703771376E516C5D6F516D59D8A022
:10614000A4EF30F0A6EF30F0ABEF30F06E516C5FA3
:106150006F516D5B7081D8906F336E33722F98EFF3
:1061600030F070C56CF571C56DF5120058C61BF5A1
:1061700059C61CF51D6A1E6A5AC61FF55BC620F576
:10618000216A226A52C623F553C624F5256A266A77
:1061900032EC2DF00501EE6F54C61BF555C61CF50B
:1061A0001D6A1E6A56C61FF557C620F5216A226A67
:1061B00050C623F551C624F5256A266A32EC2DF027
:1061C0000501ED6FEE51ED25016E026A0236000EFB
:1061D000046E020E036E6FEC2CF001500501EF6FA0
:1061E0001200000E6F6E020E706E000E716E3D0E8C
:1061F000726E000E736EFE0E746E000E756E000EE3
:10620000766E000E776E000E796E1F0E7A6E000E9F
:106210007B6E1F0E7C6E000E7D6EB39CB39E7690DF
:106220007692A39EA39C000E05016C6F000E6D6F0D
:1062300082EC36F0000E05016C6F000E6D6F7DEC88
:1062400036F0000E05016C6F000E6D6F87EC36F0B6
:10625000800E786E1200000E606E020E616E000EEF
:10626000626E3D0E636E000E646EFE0E656E000E75
:10627000666E000E676E000E686E000E6A6E1F0E70
:106280006B6E000E6C6E1F0E6D6E000E6E6EB29C0D
:10629000B29E67906792A29EA29C000E05016C6F51
:1062A000000E6D6F91EC36F0000E05016C6F000E64
:1062B0006D6F8CEC36F0000E05016C6F000E6D6F8B
:1062C00096EC36F0800E696E1200000E066E000E1F
:1062D000056E03500410D8B470EF31F072EF31F056
:1062E0009AEF31F0010E076E7AEF31F0D890033655
:1062F0000436072A04AE7FEF31F081EF31F076EFFC
:1063000031F0D890053606360350015C045002582F
:10631000D8A08DEF31F08FEF31F094EF31F00350D2
:10632000015E0450025A0580D89004320332072ED1
:1063300081EF31F005C501F506C502F5120000F048
:106340000501E505D8A4A7EF31F0A9EF31F0CDEFB5
:1063500031F0E405D8A4AFEF31F0B1EF31F0B5EF93
:1063600031F0010ED46FD7EF31F0000ED46F000E74
:10637000376E000E366E010E396E2C0E386E16EC2E
:1063800028F0000E376E000E366E010E396E2C0EA0
:10639000386EA2EC2BF0D7EF31F0E551D8A4D3EF53
:1063A00031F0D5EF31F0D7EF31F0B1EF31F012002D
:1063B000000E0501746F000E756F000E766F000EF3
:1063C000776F6CA1E6EF31F0E8EF31F0F0EF31F0EC
:1063D000705174277151752372517623735177234D
:1063E000D8907037713772377337D8906F336E33F8
:1063F0006D336C336C516D116E116F11D8A403EFB6
:1064000032F005EF32F0E1EF31F074C56CF575C58F
:106410006DF576C56EF577C56FF51200180EF66E40
:106420006C0EF76E000EF86E01EEB7F210EE14F07F
:106430000900F5C4EEF4E550E150FAE1FC0EF66E09
:106440006D0EF76E000EF86E09006100D4F3F2F5E0
:1064500009006100D4F3F3F501EE00F29F0EEE6A3D
:10646000E806FDE101EEB7F13B0EEE6AE806FDE15C
:106470005F6A0401080E5D6F000E5E6F000E5F6FB5
:1064800000017AEF2FF0000E096E000E0A6E000E6A
:106490000B6E000E0C6E01A050EF32F052EF32F096
:1064A0005AEF32F00550092606500A2207500B22F7
:1064B00008500C22D8900536063607360836D89094
:1064C0000432033202320132015002100310041070
:1064D000D8A46DEF32F06FEF32F04BEF32F009C518
:1064E00001F50AC502F50BC503F50CC504F512004C
:1064F0000101018F040E2EEC2FF00009D8A483EFC8
:1065000032F085EF32F0A5EF32F0000E01014C6F52
:10651000260E4D6F000E4E6F000E4F6F600E006F17
:10652000970E016F100E026F20EC36F016EC36F06D
:1065300046EC35F098EC35F0BFEC34F002EC30F07E
:10654000060E2EEC2FF0C79ABF9A12006EC574F596
:106550006FC575F56CC572F56DC573F5C5EF32F095
:106560006100D0F5D9F46100D4F5DAF4DF50766F2C
:10657000744B752B6100C8F5D9F46100CCF5DAF4E1
:106580006100D8F5DFF4724B732B05017007D8A0BA
:106590007107702906E17129D8A4D1EF32F0D3EF49
:1065A00032F0B0EF32F0120003C509F504C50AF568
:1065B00001C507F502C508F5F3EF32F0610024F4D8
:1065C000D9F4610028F4DAF4DF500B6E094A0A2A84
:1065D00061001CF4D9F4610020F4DAF461002CF4B9
:1065E000DFF4074A082A0506D8A00606052806E1B2
:1065F0000628D8A4FEEF32F000EF33F0DEEF32F0E1
:106600001200000E246E2450020DF20EF324D96EF7
:10661000050EF420DA6EDF50176E21C518F522C57D
:1066200019F524508CEC28F0236E2350D8B41BEFBE
:1066300033F01DEF33F01FEF33F028EF33F0242A4F
:106640002450D8B426EF33F028EF33F003EF33F0C3
:1066500023501200000E03011F6F000E206F010E69
:10666000216F850E1D6FEE0E1C6FB1981C516000DE
:1066700074FC6EF505016F6B6EC56FF56E6B6E1178
:106680000601A16F05016F510601A26FA188FE0EE0
:1066900005016C6F6D0E6D6F73EC36F0310E0301FA
:1066A0001E6F120005016D6F000E05016C6F040E68
:1066B0006D615DEF33F05FEF33F072EF33F06D51EA
:1066C0000C0D500EF324D96E010EF420DA6E010188
:1066D000DFAE6DEF33F06FEF33F072EF33F0010E9A
:1066E00005016C6F05016C511200036E81EF33F0F0
:1066F000BE8A96EF33F0BE9A96EF33F0BE9A96EFCD
:1067000033F00350016E026A0250000AD8B48BEFD6
:1067100033F07EEF33F00150000AD8B47BEF33F052
:10672000010AD8B478EF33F07EEF33F012000501A0
:10673000706F6100C0F5ECF30301F38FF39DF381FB
:10674000F3B1A5EF33F0A7EF33F0A0EF33F0EB5147
:1067500005016F6F6E6B0301EA5105016E256C6FC9
:106760000301000E05016F216D6F1200C690C784F2
:10677000C682C69AC89AC89CC89EC79A000E0501D0
:10678000A26F000EA16F010EA46F2C0EA36F9DECE3
:1067900027F0000E0501A26F000EA16F020EA46F7C
:1067A000580EA36F38EC2BF01200010E57EC23F0BB
:1067B00071C558F672C559F6020E57EC23F071C533
:1067C00054F672C555F6030E57EC23F071C544F626
:1067D00072C545F6040E57EC23F071C542F672C53A
:1067E00043F61200010EEFEC23F006C558F607C57C
:1067F00059F6020EEFEC23F006C554F607C555F620
:10680000030EEFEC23F006C544F607C545F6040E6B
:10681000EFEC23F006C542F607C543F61200B19827
:10682000A1C601F5A2C602F5D6EC34F00601604B14
:10683000612B615109E1050E605DD8A022EF34F0B3
:1068400024EF34F028EF34F0000E616F000E606F1B
:10685000CAEC2AF01200D5EC33F0640E060158257C
:106860005A6F000E59215B6F9C0E5425566FFF0E18
:106870005521576F00F0070E0601536F620E526FDD
:10688000010E516F040E506F120005016F6F000E64
:1068900005016E6F6F5152EC33F00009D8B453EF1D
:1068A00034F055EF34F05BEF34F005016F51B8EC84
:1068B00035F005016E6F05016E511200056E610025
:1068C00014F4ECF30301F38FF39DF381F3B16BEF59
:1068D00034F06DEF34F066EF34F0EB51046E036A80
:1068E000EA510324016E000E0420026E1200B19ED4
:1068F0000601664B672B675109E10A0E665DD8A059
:1069000084EF34F086EF34F08DEF34F0EDEC34F0BA
:10691000000E0601676F000E666F05EC37F012007F
:1069200005016C6F05016C51D8A499EF34F09BEF11
:1069300034F09EEF34F09E9CA7EF34F06C05D8A4A1
:10694000A4EF34F0A6EF34F0A7EF34F09E8C1200E1
:10695000F4EC36F084EC35F004EC35F08AEC1EF003
:10696000C3EC2FF0D3EC35F02AEC33F070EC35F0BB
:10697000F1EC30F078EC32F02BEC31F01200000E3C
:1069800005016C6F6C51020DF30EF324D96E050EE8
:10699000F420DA6E000EDF6E6C2B6C51D8B4D3EF9E
:1069A00034F0D5EF34F0C2EF34F0120003011EA52D
:1069B000DCEF34F0DEEF34F0E7EF34F01E910250FC
:1069C0001D6F610004F41CF31E81ECEF34F00250E3
:1069D0001D6F610004F41CF312000601A351A41101
:1069E000D8B4F5EF34F0F7EF34F003EF35F002D818
:1069F00003EF35F00500FA6EA351FD6EA451FE6E53
:106A0000FF6AFA5012001200040E0201946F800E09
:106A1000956F180E966F030E9E6F000E9A6F000E04
:106A20009B6F000E976F000E8C6F000E8D6F000E27
:106A30009D6F1200050179517B036100CCF37DF558
:106A40006100D0F37EF579517C03F3507E277A51B3
:106A50007B03F3507E277DC579F57EC57AF512005C
:106A6000010160A136EF35F038EF35F045EF35F034
:106A700002D845EF35F00500FA6E06017C51FD6E37
:106A80007D51FE6EFF6AFA5012001200190E0101CC
:106A90005C6F040E5D6F600E5E6F050E5F6FE20E41
:106AA00005016C6F6D0E6D6F9BEC36F001011E835E
:106AB000B298A28812000E5010026100CCF312F5B9
:106AC0006100D0F313F50E501102F35013260F504E
:106AD0001002F350132612C50EF513C50FF5120060
:106AE000480E03011B6F610E196F000E186FB19EE7
:106AF000A18E080E05016C6F6E0E6D6F78EC36F08E
:106B0000800E03011A6F1200000E0001606F000E6C
:106B1000616F000E626F000E636F000E646F000EF7
:106B2000656F000E666F000E676F000E686F1200D3
:106B30005F0E0101946F956996699769000E986FD1
:106B4000000E996F000E9A6F000E9B6F810E816F81
:106B50001200026E02500C0D530EF324D96E010E7A
:106B6000F420DA6EDF50016E1F0E011601281200AC
:106B700005016C6F05016C510C0D540EF324D96E98
:106B8000010EF420DA6EDF50010B1200F6EC35F046
:106B90000009D8B4CEEF35F0D1EF35F0010ED2EFC9
:106BA00035F0000E1200700E0001AD6F000EAF6FD9
:106BB000000EB36F020EB16F000EB06F1200016EC7
:106BC00001500C0D540EF324D96E010EF420DA6E30
:106BD000DF50090B1200010136B5F1EF35F0F4EF8B
:106BE00035F0010EF5EF35F0000E1200010136B957
:106BF000FCEF35F0FFEF35F0010E00EF36F0000E40
:106C00001200010136BB07EF36F00AEF36F0010E35
:106C10000BEF36F0000E120003000000E803000046
:106C200050C300004255464645524341100E0101F3
:106C3000506F040E516F610E526F050E536F1200AC
:106C4000010E0101046F010E056F060E066F000EA6
:106C5000076F120076EC29F09FEC31F0000E050171
:106C6000E46F12006100B0F572F405016D51736EAE
:106C700012006100B0F57AF405016D517B6E1200CF
:106C80006100B0F563F405016D51646E120061009E
:106C9000B0F56BF405016D516C6E1200F2EC33F03F
:106CA0003FEC30F0B6EC30F0120005016C6F610083
:106CB000B0F5FBF31200610004F472F40250736E3D
:106CC0001200610004F47AF402507B6E120061003D
:106CD00004F463F40250646E1200610004F46BF477
:106CE00002506C6E12006CC59FF66DC5A0F61200C6
:106CF0006CC5A3F66DC5A4F612006CC5B3F66DC5E0
:106D0000B4F612006CC5B5F66DC5B6F612006CC5CA
:106D1000B1F66DC5B2F612006CC56AF66DC56BF6BC
:106D200012006CC56CF66DC56DF612006CC568F688
:106D30006DC569F612006CC57CF66DC57DF6120056
:106D40006CC570F66DC571F612006CC572F66DC536
:106D500073F612006CC56EF66DC56FF612006CC549
:106D600074F66DC575F612006CC57AF66DC57BF6C6
:106D700012006CC578F66DC579F612006CC576F612
:106D80006DC577F612006CC5A7F66DC5A8F61200A2
:106D90006CC5A9F66DC5AAF612006CC5ABF66DC53B
:106DA000ACF612006CC5ADF66DC5AEF612006CC542
:106DB000A5F66DC5A6F612006CC5AFF66DC5B0F6AA
:106DC000120001010239E832070B1200016E610066
:106DD00004F4FBF312000301F39B12000301F39B85
:106DE000120042EC1CF01200D69A120078841200B5
:106DF0006984120078841200698412000100120074
:106E000012001200120012001200120012001200F2
:0A6E1000120012001200120012001E
:020000040020DA
:10000000FF0FFF0FFF0FFF0FFF0FFF0FFF0FFF0F80
:10001000FF0FFF0FFF0FFF0FFF0FFF0FFF0FFF0F70
:020000040030CA
:10000000FAEFF7DF9FFFFFFFFFFFFFFFFFFFFFFF9D
:10001000FFFFFFFFFFFFFFFFFFFFFFFFFFFFFFFFF0
:04002000FFFFFFFFE0
:00000001FF
