:020000040000FA
:040000000DEF00F010
:0400080038EF2CF0B1
:06001800FF00FCEF30F0D8
:1026000000000000000000000000000000000000CA
:1026100000000000000000000000000000000000BA
:102620000000000000000000010203040506070886
:102630005001526561643A206E6F6E2D766F6C6149
:1026400074696C6520766F6C746167652076616C67
:1026500075652025662C20616E6420766F6C617430
:10266000696C6520766F6C746167652076616C7546
:10267000652025660053657420746865206E6F6E52
:102680002D766F6C6174696C6520766F6C74616710
:102690006520746F203156200A00536574207468D9
:1026A0006520766F6C6174696C6520766F6C7461FF
:1026B000676520746F203256200A00000501C05162
:1026C000800BC96FC051C025CB6FBFAF6AEF13F04D
:1026D0006CEF13F06DEF13F0CB81CB51D8B473EFE7
:1026E00013F075EF13F08AEF13F0CB29D8A47BEF2A
:1026F00013F07DEF13F085EF13F0000EBD6F000EA9
:10270000BE6F000EBF6F000EC06FBF8F000EC06F98
:1027100092EF13F0000EBD6F000EBE6F000EBF6F84
:10272000000EC06FC451800BCA6FC951CA19D8B40A
:102730009CEF13F09EEF13F09FEF13F0C98DC4517F
:10274000C425CA6FC3AFA7EF13F0A9EF13F0AAEF28
:1027500013F0CA81CA51D8B4B0EF13F0B2EF13F03E
:10276000C7EF13F0CA29D8A4B8EF13F0BAEF13F0EB
:10277000C2EF13F0000EC16F000EC26F000EC36FE8
:10278000000EC46FC38F000EC46FCFEF13F0000EA6
:10279000C16F000EC26F000EC36F000EC46FCB512D
:1027A000CA5DD8B0D6EF13F0D8EF13F0FFEF13F0F7
:1027B000C9ADDDEF13F0DFEF13F0E1EF13F0800EA2
:1027C000C91BCBC5CCF5CAC5CBF5CCC5CAF5BDC5B3
:1027D000CCF5C1C5BDF5CCC5C1F5BEC5CCF5C2C5EE
:1027E000BEF5CCC5C2F5BFC5CCF5C3C5BFF5CCC5DC
:1027F000C3F5C0C5CCF5C4C5C0F5CCC5C4F5000E45
:10280000CC6FCB51CAC5C5F5C66BC55F000EC65BA4
:10281000C6BF14EF14F0C65109E11A0EC55DD8A069
:1028200014EF14F016EF14F04DEF14F0BD51BE117B
:10283000BF11C011D8A41FEF14F022EF14F0010E45
:1028400023EF14F0000ECC6F000EBD6F000EBE6FB4
:10285000000EBF6F000EC06FCAC5CBF556EF14F067
:10286000CCA135EF14F037EF14F03DEF14F0D89011
:10287000CC310109CC6F3FEF14F0D890CC33BDA11F
:1028800044EF14F046EF14F047EF14F0CC8FC0354E
:10289000C033BF33BE33BD33CB2BCA51CB5DD8A0C1
:1028A00054EF14F056EF14F030EF14F0C9BD5BEFA5
:1028B00014F05DEF14F09DEF14F0CB51D8A463EF4A
:1028C00014F065EF14F06FEF14F0000EBD6F000E02
:1028D000BE6F000EBF6F000EC06FBEEF15F0C1518E
:1028E000BD27C251BE23C351BF23C451C023C0A1C1
:1028F0007CEF14F07EEF14F02AEF15F0CCA183EFFB
:1029000014F085EF14F08BEF14F0D890CC3101095E
:10291000CC6F8DEF14F0D890CC33BDA192EF14F0B2
:1029200094EF14F095EF14F0CC8FC035C033BF3363
:10293000BE33BD33CB2B2AEF15F0C151BD5DC25163
:10294000BE59C351BF59C051800AC56FC451800AD6
:10295000C559D8B0AEEF14F0B0EF14F0DBEF14F0BF
:10296000BD51C15DC56FBE51C259C66FBF51C3597C
:10297000C76FC051C459C86FFF0EC525BD6FFF0E8C
:10298000C621BE6FFF0EC721BF6FFF0EC821C06FEB
:10299000800EC91BCC6DCC51D8A4D1EF14F0D3EF6D
:1029A00014F0E3EF14F0010EBD27000EBE23BF2389
:1029B000C023E3EF14F0C151BD5FC251BE5BC351F0
:1029C000BF5BC451C05BBD51BE11BF11C011D8A4C3
:1029D000ECEF14F0EEEF14F023EF15F0CC51D8A487
:1029E000F4EF14F0F6EF14F023EF15F0000EBD6FC6
:1029F000000EBE6F000EBF6F000EC06FBEEF15F071
:102A0000D890BD37BE37BF37C037CCAF0AEF15F00F
:102A10000CEF15F00DEF15F0BD81CCA112EF15F004
:102A200014EF15F018EF15F0D880CC371AEF15F029
:102A3000D890CC37CB51D8B420EF15F022EF15F059
:102A400023EF15F0CB07BFAF28EF15F02AEF15F0F5
:102A500000EF15F0000ECA6FCCAF31EF15F033EF79
:102A600015F04BEF15F0CCC5C5F57F0EC517D8B4E2
:102A70003CEF15F03EEF15F042EF15F0010ECA6F76
:102A80004BEF15F0BDA147EF15F049EF15F04BEFF7
:102A900015F03EEF15F0CA51D8B451EF15F053EFD1
:102AA00015F07EEF15F0010EBD27000EBE23BF23EB
:102AB000C023C0A15EEF15F060EF15F07EEF15F0BA
:102AC000BDC5C5F5BEC5C6F5BFC5C7F5C0C5C8F50A
:102AD000C835C833C733C633C533C5C5BDF5C6C54C
:102AE000BEF5C7C5BFF5C8C5C0F5CB29D8B47BEFC7
:102AF00015F07DEF15F07EEF15F0CB2BCB29D8B478
:102B000084EF15F086EF15F08EEF15F0CB51D8A4B9
:102B10008CEF15F08EEF15F0A0EF15F0000EBD6FE5
:102B2000000EBE6F000EBF6F000EC06FCB51D8A459
:102B30009CEF15F09EEF15F0A0EF15F0000EC96F99
:102B4000CBA1A5EF15F0A7EF15F0AAEF15F0BF8FF9
:102B5000ABEF15F0BF9FD890CB31C06FC9AFB3EFCB
:102B600015F0B5EF15F0B6EF15F0C08FBDC5BDF58A
:102B7000BEC5BEF5BFC5BFF5C0C5C0F51200125039
:102B8000800B1B6E125012241D6E11AECAEF15F091
:102B9000CCEF15F0CDEF15F01D801D50D8B4D3EF5C
:102BA00015F0D5EF15F0EAEF15F01D28D8A4DBEFEE
:102BB00015F0DDEF15F0E5EF15F0000E0F6E000ECD
:102BC000106E000E116E000E126E118E000E126E3F
:102BD000F2EF15F0000E0F6E000E106E000E116E6B
:102BE000000E126E1650800B1C6E1B501C18D8B4B1
:102BF000FCEF15F0FEEF15F0FFEF15F01B8C1650F3
:102C000016241C6E15AE07EF16F009EF16F00AEF4A
:102C100016F01C801C50D8B410EF16F012EF16F00E
:102C200027EF16F01C28D8A418EF16F01AEF16F0AC
:102C300022EF16F0000E136E000E146E000E156ECD
:102C4000000E166E158E000E166E2FEF16F0000E8B
:102C5000136E000E146E000E156E000E166E1D50D3
:102C60001C5CD8B036EF16F038EF16F05FEF16F0B8
:102C70001BAC3DEF16F03FEF16F041EF16F0800E63
:102C80001B1A1DC51EF51CC51DF51EC51CF50FC55F
:102C90001EF513C50FF51EC513F510C51EF514C599
:102CA00010F51EC514F511C51EF515C511F51EC587
:102CB00015F512C51EF516C512F51EC516F5000E42
:102CC0001E6E1D501CC517F5186A175E000E185AA7
:102CD00018BE74EF16F0185009E11A0E175CD8A050
:102CE00074EF16F076EF16F0ADEF16F00F501010EF
:102CF00011101210D8A47FEF16F082EF16F0010E1B
:102D000083EF16F0000E1E6E000E0F6E000E106E9A
:102D1000000E116E000E126E1CC51DF5B6EF16F0FA
:102D20001EA095EF16F097EF16F09DEF16F0D890D5
:102D30001E3001091E6E9FEF16F0D8901E320FA0B4
:102D4000A4EF16F0A6EF16F0A7EF16F01E8E1234C1
:102D50001232113210320F321D2A1C501D5CD8A0C5
:102D6000B4EF16F0B6EF16F090EF16F01BBCBBEF09
:102D700016F0BDEF16F0FDEF16F01D50D8A4C3EF0E
:102D800016F0C5EF16F0CFEF16F0000E0F6E000E26
:102D9000106E000E116E000E126E1EEF18F0135022
:102DA0000F2614501022155011221650122212A074
:102DB000DCEF16F0DEEF16F08AEF17F01EA0E3EF5F
:102DC00016F0E5EF16F0EBEF16F0D8901E30010983
:102DD0001E6EEDEF16F0D8901E320FA0F2EF16F037
:102DE000F4EF16F0F5EF16F01E8E12341232113297
:102DF00010320F321D2A8AEF17F013500F5C145057
:102E00001058155011581250800A176E1650800A2B
:102E10001758D8B00EEF17F010EF17F03BEF17F080
:102E20000F50135C176E10501458186E115015582F
:102E3000196E125016581A6EFF0E17240F6EFF0EE1
:102E40001820106EFF0E1920116EFF0E1A20126E40
:102E5000800E1B1A1E6C1E50D8A431EF17F033EFF2
:102E600017F043EF17F0010E0F26000E102211226B
:102E7000122243EF17F013500F5E1450105A1550E2
:102E8000115A1650125A0F50101011101210D8A4C7
:102E90004CEF17F04EEF17F083EF17F01E50D8A449
:102EA00054EF17F056EF17F083EF17F0000E0F6E88
:102EB000000E106E000E116E000E126E1EEF18F056
:102EC000D8900F361036113612361EAE6AEF17F054
:102ED0006CEF17F06DEF17F00F801EA072EF17F078
:102EE00074EF17F078EF17F0D8801E367AEF17F0EE
:102EF000D8901E361D50D8B480EF17F082EF17F02F
:102F000083EF17F01D0611AE88EF17F08AEF17F068
:102F100060EF17F0000E1C6E1EAE91EF17F093EFEE
:102F200017F0ABEF17F01EC517F57F0E1716D8B4C4
:102F30009CEF17F09EEF17F0A2EF17F0010E1C6E3A
:102F4000ABEF17F00FA0A7EF17F0A9EF17F0ABEF5B
:102F500017F09EEF17F01C50D8B4B1EF17F0B3EF95
:102F600017F0DEEF17F0010E0F26000E10221122CF
:102F7000122212A0BEEF17F0C0EF17F0DEEF17F02D
:102F80000FC517F510C518F511C519F512C51AF5B5
:102F90001A341A3219321832173217C50FF518C5FC
:102FA00010F519C511F51AC512F51D28D8B4DBEFB7
:102FB00017F0DDEF17F0DEEF17F01D2A1D28D8B44B
:102FC000E4EF17F0E6EF17F0EEEF17F01D50D8A47E
:102FD000ECEF17F0EEEF17F000EF18F0000E0F6EA9
:102FE000000E106E000E116E000E126E1D50D8A451
:102FF000FCEF17F0FEEF17F000EF18F0000E1B6E5D
:103000001DA005EF18F007EF18F00AEF18F0118E69
:103010000BEF18F0119ED8901D30126E1BAE13EFFF
:1030200018F015EF18F016EF18F0128E0FC50FF507
:1030300010C510F511C511F512C512F5120000F0FA
:1030400005017F51E15D606F000EE259616F000E76
:10305000E359626F000EE459636F000EBD6F400EBE
:10306000BE6F1C0EBF6FC60EC06F64C5AFF565C5E1
:10307000B0F566C5B1F567C5B2F5010E07EC1FF0F6
:10308000AFC5C1F5B0C5C2F5B1C5C3F5B2C5C4F58C
:103090007AEC25F00501D8B050EF18F052EF18F097
:1030A00080EF18F064C5AFF565C5B0F566C5B1F53C
:1030B00067C5B2F5010E07EC1FF0AFC5BDF5B0C591
:1030C000BEF5B1C5BFF5B2C5C0F5000E0501C16FB3
:1030D000400EC26F1C0EC36F460EC46F7AEC25F013
:1030E0000501D8B076EF18F078EF18F080EF18F0FF
:1030F00060516427615165236251662363516723E0
:103100000601245105017F5DF26F0601255105017D
:10311000F36BF35B060126510501F46BF45B0601CA
:1031200027510501F56BF55B91C6AFF592C6B0F579
:1031300093C6B1F594C6B2F560C5B3F561C5B4F5F3
:1031400062C5B5F563C5B6F591EC30F0AFC5E6F5EF
:10315000B0C5E7F5B1C5E8F5B2C5E9F58DC6AFF57F
:103160008EC6B0F58FC6B1F590C6B2F564C5B3F59D
:1031700065C5B4F566C5B5F567C5B6F591EC30F033
:103180000501AF51E625EA6FB051E721EB6FB15170
:10319000E821EC6FB251E921ED6F89C6AFF58AC61F
:1031A000B0F58BC6B1F58CC6B2F5F2C5B3F5F3C573
:1031B000B4F5F4C5B5F5F5C5B6F591EC30F00501FB
:1031C000AF51EA25EE6FB051EB21EF6FB151EC2119
:1031D000F06FB251ED21F16F060195510501EE2519
:1031E000F66F060196510501EF21F76F0601975121
:1031F0000501F021F86F060198510501F121F96FE1
:1032000000F0F6C5AFF5F7C5B0F5F8C5B1F5F9C5ED
:10321000B2F5000E0501B36F040EB46F000EB56F6A
:10322000000EB66FE9EC23F0AFC5F6F5B0C5F7F5C3
:10323000B1C5F8F5B2C5F9F50501F9BF24EF19F0EC
:1032400022EF19F02EEF19F0000EF66F000EF76F57
:10325000000EF86F000EF96F46EF19F0F9BF3CEF62
:1032600019F0F951F811F71109E1650EF65DD8A0D2
:103270003CEF19F03EEF19F046EF19F0640EF66FCF
:10328000000EF76F000EF86F000EF96F00F0F6C534
:10329000D7F5F7C5D8F5010E0501DA6F2C0ED96FF9
:1032A00002EC27F060C528F661C529F662C52AF64A
:1032B00063C52BF605017F510601246F256B266B34
:1032C000276B120000F005017F51335C606F000E28
:1032D0003458616F000E3558626F000E3658636FB8
:1032E000000E0F6E400E106E1C0E116EC60E126E8A
:1032F00064C501F565C502F566C503F567C504F546
:10330000010EE3EC1FF001C513F502C514F503C56A
:1033100015F504C516F580EC26F0D8B092EF19F03B
:1033200094EF19F0C1EF19F064C501F565C502F518
:1033300066C503F567C504F5010EE3EC1FF001C592
:103340000FF502C510F503C511F504C512F5000E01
:10335000136E400E146E1C0E156E460E166E80EC2B
:1033600026F0D8B0B6EF19F0B8EF19F0C1EF19F0A8
:1033700005016051642761516523625166236351E1
:1033800067230601245105017F5D446E0601255126
:10339000456A455A2651466A465A2751476A475A4E
:1033A00091C601F592C602F593C603F594C604F5DD
:1033B00060C505F561C506F562C507F563C508F585
:1033C000C7EC30F001C538F502C539F503C53AF54B
:1033D00004C53BF58DC601F58EC602F58FC603F513
:1033E00090C604F564C505F565C506F566C507F51F
:1033F00067C508F5C7EC30F0015038243C6E025028
:1034000039203D6E03503A203E6E04503B203F6E03
:1034100089C601F58AC602F58BC603F58CC604F58C
:1034200044C505F545C506F546C507F547C508F584
:10343000C7EC30F001503C24406E02503D20416EFC
:1034400003503E20426E04503F20436E06019551CA
:103450004024486E96514120496E975142204A6E51
:10346000985143204B6E00F048C50DF549C50EF547
:103470004AC50FF54BC510F5000E116E040E126E05
:10348000000E136E000E146E70EC24F00DC548F59E
:103490000EC549F50FC54AF510C54BF54BBE55EFA6
:1034A0001AF053EF1AF05FEF1AF0000E486E000E9C
:1034B000496E000E4A6E000E4B6E77EF1AF04BBE4F
:1034C0006DEF1AF04B504A10491009E1650E485C47
:1034D000D8A06DEF1AF06FEF1AF077EF1AF0640EC4
:1034E000486E000E496E000E4A6E000E4B6E00F0E4
:1034F00048C529F549C52AF5010E2C6E2C0E2B6EF8
:10350000F4EC27F060C528F661C529F662C52AF6F5
:1035100063C52BF605017F510601246F256B266BD1
:10352000276B12006100F0F6D9F46100F4F6DAF4CA
:10353000610078F3C1F5610078F3C2F5610078F3BA
:10354000C3F5610078F3C4F5050120EE04F0BC5129
:10355000D926BD51DA22DFA0B0EF1AF0B2EF1AF08F
:10356000ECEF1AF020EE01F0BA51D926BB51DA2265
:10357000C139E842F80BF80BDF6E050EBE6FD8902C
:10358000C433C333C233C133BE2FBFEF1AF020EEB2
:1035900002F0BA51D926BB51DA22610004F7DFF4F8
:1035A000C2C5C1F5C3C5C2F5C4C5C3F5C46B20EE21
:1035B00003F0BA51D926BB51DA22C1511F0BDF6E7D
:1035C000050EBE6FD890C433C333C233C133BE2F90
:1035D000E2EF1AF004EF1BF020EE03F0BA51D92607
:1035E000BB51DA22000EDF6E10EE02F0BA51E12676
:1035F000BB51E222DFC4E7F420EE01F0BA51D92634
:10360000BB51DA22E7C4DFF46100E8F6D9F46100C7
:10361000ECF6DAF4610004F7DFF4C2C5C1F5C3C506
:10362000C2F5C4C5C3F5C46BC1C5BEF5070EBE1750
:1036300020EE01F0BA51D926BB51DA22BE51DF1279
:1036400020EE04F0BC51D926BD51DA22DF30E83239
:103650000F0BC06F20EE04F0BC51D926BD51DA2209
:10366000DFB035EF1BF039EF1BF0BE6BBE2B3BEF2D
:103670001BF00501BE6BBE39F00BC01320EE04F049
:10368000BC51D926BD51DA22DFB249EF1BF04DEF14
:103690001BF0200EBE6F4FEF1BF00501BE6BBE513D
:1036A000C01320EE04F0BC51D926BD51DA22DFBE92
:1036B0005CEF1BF060EF1BF0400EBE6F62EF1BF083
:1036C0000501BE6BBE51C01320EE04F0BC51D926DB
:1036D000BD51DA22DFBC6FEF1BF073EF1BF0800EE1
:1036E000BE6F75EF1BF00501BE6BBE51C01320EE1F
:1036F00004F0BA51D926BB51DA22610000F7DFF499
:1037000020EE04F0BC51D926BD51DA22DFB28BEF96
:103710001BF08DEF1BF0B9EF1BF0080EBA25AF6F51
:10372000000EBB21B06F20EE05F0BC51D926BD5173
:10373000DA22610078F3B1F5610074F3B2F520EE9E
:1037400004F0BC51D926BD51DA22DF30E8320F0B2C
:10375000BE6FBF6B270EBE25F66E260EBF21F76E1D
:10376000F86A000EF8220800F550B36FB46B5EECF7
:1037700031F0120020EE04F00C50D9260D50DA2260
:10378000DF50166E16C510F520EE04F00E50D92647
:103790000F50DA2210461046DF501018C30B1018D5
:1037A000DF6E16B8D6EF1BF0DAEF1BF0106A102AA6
:1037B000DBEF1BF0106A20EE04F00E50D9260F50FC
:1037C000DA22DF501018FE0B1018DF6E16BAEBEF7E
:1037D0001BF0EFEF1BF0106A102AF0EF1BF0106ADD
:1037E00020EE04F00E50D9260F50DA221046DF509A
:1037F0001018FD0B1018DF6E16BC01EF1CF005EF62
:103800001CF0106A102A06EF1CF0106A20EE04F07B
:103810000E50D9260F50DA2210321032DF50101815
:103820007F0B1018DF6E16BE18EF1CF01CEF1CF09B
:10383000106A102A1DEF1CF0106A20EE04F00E50E2
:10384000D9260F50DA22103A10461046DF501018D1
:10385000BF0B1018DF6E20EE01F00C50D9260D5072
:10386000DA22DF50106E070E10161050126E136A17
:10387000146A156A14C515F513C514F512C513F5A8
:10388000126A610030F4D9F4610034F4DAF4DF50E4
:10389000106E1050121220EE04F00E50D9260F5068
:1038A000DA22DFA056EF1CF058EF1CF099EF1CF065
:1038B000050ED8901236133614361536E82E59EF09
:1038C0001CF020EE03F00C50D9260D50DA22DF5008
:1038D000106E1F0E10161050121214C515F513C5D8
:1038E00014F512C513F5126A20EE02F00C50D92619
:1038F0000D50DA22DF50106E10501212050ED890C3
:103900001236133614361536E82E7FEF1CF020EEF3
:1039100001F00C50D9260D50DA22DF50106ED890ED
:103920001032D8901032D89010321F0E101610504E
:103930001212610038F4D9F461003CF4DAF4610049
:1039400048F4DEF461004CF4DEF4610050F4DEF47F
:10395000610054F4DEF45C0E016E060E026E080E79
:103960000C24036E000E0D20046E20EE04F00E50A9
:10397000D9260F50DA22DF30E8320F0B106E116AB1
:10398000270E1024F66E260E1120F76EF86A000E30
:10399000F8220800F550056E066A8CEC31F020EE36
:1039A00005F00E50D9260F50DA225C0EDE6E060EA0
:1039B000DD6E12000FEC2BF00009D8B4E2EF1CF022
:1039C000E4EF1CF0F3EF1DF0A80E216E050E226E41
:1039D000B9EC31F0E806D8A4F0EF1CF0F2EF1CF0DF
:1039E000F3EF1DF000F0A8C550F5A9C551F5AAC523
:1039F00052F5ABC553F56100B4F6D9F46100B8F6E1
:103A0000DAF4DF505B6E050120EE01F0AD51D926EE
:103A1000AE51DA22DF505A6E20EE02F0AD51D926B7
:103A2000AE51DA22DF50576E20EE03F0AD51D926A9
:103A3000AE51DA22DF50586E20EE04F0AD51D92697
:103A4000AE51DA22DF50596E20EE05F0AD51D92685
:103A5000AE51DA22DF50546E20EE06F0AD51D92679
:103A6000AE51DA22DF50556E20EE07F0AD51D92667
:103A7000AE51DA22DF50566EADEF1DF05BC59EF5FC
:103A80005AC59DF557C59CF558C59BF559C59AF57E
:103A90008805D8A44EEF1DF050EF1DF0F3EF1DF098
:103AA0009D51336E346A356A366A010E376E4AECC0
:103AB0002DF005019E51336E346A356A366A010E67
:103AC000376E62EC19F0010E05019F6FF3EF1DF0E8
:103AD0005B50070B996F5B50180B986F5B50E00BB6
:103AE000976F5A50010B966F5A50060B956F5A50AC
:103AF000780B946FF3EF1DF05BC592F55AC591F505
:103B000057C590F558C58FF559C58EF554C58DF537
:103B100055C58CF556C58BF5F3EF1DF05BC588F5E3
:103B2000885129EC32F0F3EF1DF05BC587F5885121
:103B3000D8A49DEF1DF09FEF1DF0F3EF1DF087510E
:103B4000336E346A356A366A000E376E4AEC2DF0F1
:103B5000F3EF1DF000F0F3EF1DF050C54CF551C52B
:103B60004DF552C54EF553C54FF54F50000AD8B428
:103B7000ECEF1DF0AAEF1DF04D50030AD8B4CBEFC7
:103B80001DF0070AD8B4D6EF1DF0010AD8B4DDEF56
:103B90001DF0AAEF1DF04C50200AD8B43EEF1DF0E6
:103BA000670AD8B48EEF1DF0AAEF1DF04C50120A30
:103BB000D8B495EF1DF0AAEF1DF04C50000AD8B410
:103BC00068EF1DF0010AD8B47CEF1DF0030AD8B4E9
:103BD000F3EF1DF0AAEF1DF04E50000AD8B4BCEF71
:103BE0001DF0AAEF1DF01200020E0301F96F3F0E47
:103BF000FA6F000ED86F000EFB6F000ED96F000E2B
:103C0000DA6F000EDB6F000EDC6F000EDF6F000E50
:103C1000E06F000EE36F000EE46F000EE56F000E24
:103C2000E66F000EE76F000EEA6F000EEB6F100EEE
:103C3000EC6FE80EEE6F030EEF6F000EF06F000EEC
:103C4000F16F000EF26F000EF36F000EF46F100EA6
:103C5000F56F000EF66F000EF76F000EF86F000E96
:103C6000FC6F010EFB6F000ED96F000EDA6F000EB5
:103C7000DB6F000EDC6F000EDF6F000EE06F000EDA
:103C8000E36F000EE46F000EE56F000EE66F000EAE
:103C9000E76F000EEA6F000EEB6F040EEC6FE80E9C
:103CA000EE6F030EEF6F000EF06F000EF16F000E5F
:103CB000F26F000EF36F000EF46F100EF56F000E32
:103CC000F66F000EF76F000EF86F000EFD6F020E1C
:103CD000FB6F000ED96F000EDA6F000EDB6F000E67
:103CE000DC6F000EDF6F000EE06F000EE36F000E62
:103CF000E46F000EE56F000EE66F000EE76F000E3A
:103D0000EA6F000EEB6F120EEC6FE80EEE6F030E13
:103D1000EF6F000EF06F000EF16F000EF26F000EED
:103D2000F36F000EF46F100EF56F000EF66F000EBD
:103D3000F76F000EF86F000EFE6F030EFB6F000EA4
:103D4000D96F000EDA6F000EDB6F000EDC6F000E15
:103D5000DF6F000EE06F000EE36F000EE46F000EE9
:103D6000E56F000EE66F000EE76F000EEA6F000EC3
:103D7000EB6F110EEC6FE80EEE6F030EEF6F000E9F
:103D8000F06F000EF16F000EF26F000EF36F000E79
:103D9000F46F100EF56F000EF66F000EF76F000E49
:103DA000F86F000EFF6FAF94AF96B090B092B094E2
:103DB000B096000E0501AF6F000EB06F7DEC35F0D0
:103DC000000E0501AF6F000EB06F73EC35F0000E02
:103DD0000501AF6F000EB06F6EEC35F0000E0501FF
:103DE000AF6F000EB06F69EC35F0000E0501AF6FDC
:103DF000000EB06F64EC35F0000E0501AF6F000EE1
:103E0000B06F78EC35F0840E0301F36F12000501FA
:103E1000B76F0501B751D8B410EF1FF012EF1FF0C4
:103E200034EF1FF0B2BF19EF1FF017EF1FF034EFA0
:103E30001FF0AFC5B3F5B0C5B4F5B1C5B5F5B2C5A2
:103E4000B6F5B31FB41FB51FB61FB32B000EB423B6
:103E5000B523B623B3C5B9F5B4C5BAF5B5C5BBF539
:103E6000B6C5BCF53CEF1FF0AFC5B9F5B0C5BAF5A6
:103E7000B1C5BBF5B2C5BCF5AF51B011B111B211AE
:103E8000D8A445EF1FF047EF1FF051EF1FF0000ED1
:103E9000AF6F000EB06F000EB16F000EB26FE2EFA9
:103EA0001FF0960EB86F5BEF1FF0B82BD890BC33A5
:103EB000BB33BA33B933000EB915B36F000EBA1560
:103EC000B46F000EBB15B56FFE0EBC15B66FB351C7
:103ED000B411B511B611D8A470EF1FF072EF1FF036
:103EE00055EF1FF080EF1FF0B82B010EB927000E21
:103EF000BA23BB23BC23D890BC33BB33BA33B9330A
:103F0000000EB915B36F000EBA15B46F000EBB15D5
:103F1000B56FFF0EBC15B66FB351B411B511B61124
:103F2000D8A495EF1FF097EF1FF074EF1FF09FEFED
:103F30001FF0B807D890B937BA37BB37BC37BBBF0B
:103F4000A4EF1FF0A6EF1FF0AEEF1FF0020EB86156
:103F5000ACEF1FF0AEEF1FF099EF1FF0B8B1B3EF69
:103F60001FF0B5EF1FF0B6EF1FF0BB9FD890B8332E
:103F7000B8C5B3F5B46BB56BB66BB3C5B6F5B56B79
:103F8000B46BB36BB351B913B451BA13B551BB137E
:103F9000B651BC13B751D8B4D0EF1FF0D2EF1FF019
:103FA000DAEF1FF0B2BFD9EF1FF0D7EF1FF0DAEF53
:103FB0001FF0BC8FB9C5AFF5BAC5B0F5BBC5B1F53B
:103FC000BCC5B2F51200096E0950D8B4EAEF1FF073
:103FD000ECEF1FF00EEF20F004BEF3EF1FF0F1EF57
:103FE0001FF00EEF20F001C505F502C506F503C56B
:103FF00007F504C508F5051E061E071E081E052A3E
:10400000000E06220722082205C50BF506C50CF591
:1040100007C50DF508C50EF516EF20F001C50BF527
:1040200002C50CF503C50DF504C50EF501500210CF
:1040300003100410D8A41FEF20F021EF20F02BEF85
:1040400020F0000E016E000E026E000E036E000ED8
:10405000046EBCEF20F0960E0A6E35EF20F00A2AAF
:10406000D8900E320D320C320B32000E0B14056E4E
:10407000000E0C14066E000E0D14076EFE0E0E14CC
:10408000086E0550061007100810D8A44AEF20F05B
:104090004CEF20F02FEF20F05AEF20F00A2A010E0B
:1040A0000B26000E0C220D220E22D8900E320D325D
:1040B0000C320B32000E0B14056E000E0C14066E43
:1040C000000E0D14076EFF0E0E14086E055006103C
:1040D00007100810D8A46FEF20F071EF20F04EEF1A
:1040E00020F079EF20F00A06D8900B360C360D360A
:1040F0000E360DBE7EEF20F080EF20F088EF20F02E
:10410000020E0A6086EF20F088EF20F073EF20F0B7
:104110000AB08DEF20F08FEF20F090EF20F00D9E91
:10412000D8900A320AC505F5066A076A086A05C505
:1041300008F5076A066A056A05500B1206500C124C
:1041400007500D1208500E120950D8B4AAEF20F0F3
:10415000ACEF20F0B4EF20F004BEB3EF20F0B1EFED
:1041600020F0B4EF20F00E8E0BC501F50CC502F562
:104170000DC503F50EC504F51200000E0501D86F3C
:10418000000ED76F000EDA6F320ED96F7BEC27F07E
:10419000000E0501826F000EE16F000EE26F000E4F
:1041A000E36F000EE46F010EE56FF8EC2CF074EC99
:1041B0002BF005018205D8A4E0EF20F0E2EF20F01B
:1041C00015EF21F01E0EE16F000EE26F000EE36F9F
:1041D000000EE46F010EE56FF8EC2CF0030E050104
:1041E000E76F8A0EE66F550EE82EFED7E62FFCD756
:1041F000E72FFAD700D0320E0501E16F000EE26F13
:10420000000EE36F000EE46F010EE56FF8EC2CF08A
:10421000030E0501E76F8A0EE66F550EE82EFED7F6
:10422000E62FFCD7E72FFAD700D074EC2BF0030E63
:1042300005018219D8A41FEF21F021EF21F054EFDE
:1042400021F0460EE16F000EE26F000EE36F000EEC
:10425000E46F010EE56FF8EC2CF0030E0501E76F3B
:104260008A0EE66F550EE82EFED7E62FFCD7E72F15
:10427000FAD700D0640E0501E16F000EE26F000E68
:10428000E36F000EE46F010EE56FF8EC2CF0020E08
:104290000501E76FE70EE66F000EE82EFED7E62F6A
:1042A000FCD7E72FFAD700F074EC2BF0020E0501D3
:1042B0008219D8A45EEF21F060EF21F06CEF21F0BD
:1042C000000EE16F000EE26F000EE36F000EE46F70
:1042D000010EE56FF8EC2CF0120001011DAF73EF39
:1042E00021F075EF21F084EF21F002D882EF21F068
:1042F0000500FA6E06015851FD6E5951FE6EFF6AB7
:10430000FA50120001011D9F1DAD89EF21F08BEFC6
:1043100021F09AEF21F002D898EF21F00500FA6E13
:1043200006015651FD6E5751FE6EFF6AFA5012009B
:1043300001011D9D1DAB9FEF21F0A1EF21F0B0EF1A
:1043400021F002D8AEEF21F00500FA6E06015451BB
:10435000FD6E5551FE6EFF6AFA50120001011D9B61
:104360001CA7B5EF21F0B7EF21F0C6EF21F002D87E
:10437000C4EF21F00500FA6E06015251FD6E535153
:10438000FE6EFF6AFA50120001011C971DA9CBEFC7
:1043900021F0CDEF21F0DCEF21F002D8DAEF21F0AF
:1043A0000500FA6E06015051FD6E5151FE6EFF6A16
:1043B000FA50120001011D991DA5E1EF21F0E3EF74
:1043C00021F0F9EF21F002D8F0EF21F00500FA6EAC
:1043D00006014E51FD6E4F51FE6EFF6AFA501200FB
:1043E000010154A9F6EF21F0F8EF21F0F9EF21F0E7
:1043F00054991DA7FEEF21F000EF22F016EF22F0F6
:1044000002D80DEF22F00500FA6E06014C51FD6E48
:104410004D51FE6EFF6AFA501200010160A713EFC2
:1044200022F015EF22F016EF22F06097AE9C1200FA
:10443000000E0501D86F000ED76F020EDA6F580E0E
:10444000D96F02EC27F0030E0501E26F8A0EE16FCF
:10445000550EE82EFED7E12FFCD7E22FFAD700D079
:10446000030EBCEC22F0B4C536F6B5C537F6040E23
:10447000BCEC22F0B4C534F6B5C535F6020E050124
:10448000E26F450EE16FA90EE82EFED7E12FFCD7B3
:10449000E22FFAD700D000F0000E0501D86F640EAD
:1044A000D76F020EDA6F580ED96F02EC27F0070EA5
:1044B0000501E26F580EE16F590EE82EFED7E12F8D
:1044C000FCD7E22FFAD700D0030EBCEC22F0B4C523
:1044D00032F6B5C533F6040EBCEC22F0B4C530F6A6
:1044E000B5C531F6020E0501E26F450EE16FA90E6A
:1044F000E82EFED7E12FFCD7E22FFAD700D000F04C
:10450000000E0501D86F320ED76F010EDA6F900ED4
:10451000D96F02EC27F0030E0501E26F8A0EE16FFE
:10452000550EE82EFED7E12FFCD7E22FFAD700D0A8
:10453000000E0501D86F320ED76F020EDA6F580EDB
:10454000D96F02EC27F0030E0501E26F8A0EE16FCE
:10455000550EE82EFED7E12FFCD7E22FFAD700D078
:10456000000E0501D86F000ED76F020EDA6F580EDD
:10457000D96F02EC27F012000501B86FFFEF22F0AF
:104580008CEC35F0000EF6EC34F0100E6CEC32F0E2
:10459000AFC5B9F5B0C5BAF5010E0501BB6F1DEF8A
:1045A00023F08CEC35F0010EF6EC34F0040E6CECDC
:1045B00032F0AFC5B9F5B0C5BAF5CCEF22F08CEC4E
:1045C00035F0020EF6EC34F0120E6CEC32F0AFC5A2
:1045D000B9F5B0C5BAF5CCEF22F08CEC35F0030E8E
:1045E000F6EC34F0110E6CEC32F0AFC5B9F5B0C595
:1045F000BAF5CCEF22F0020EBB6F1DEF23F00501E0
:10460000B851B66FB76BB751000AD8B40AEF23F0B0
:10461000FBEF22F0B651010AD8B4DFEF22F0030A13
:10462000D8B4EDEF22F0010AD8B4C0EF22F0070AA7
:10463000D8B4D1EF22F0FBEF22F0BB05D8A423EFD2
:1046400023F025EF23F053EF23F0BA5107E1070ED3
:10465000B95DD8B02EEF23F030EF23F036EF23F022
:10466000000EBD6F000EBC6F40EF23F0B9C5BCF566
:10467000BAC5BDF5FB0EBC25BC6FFF0EBD21BD6FDD
:10468000890EBC5D130EBD59D8A049EF23F04BEF46
:1046900023F04DEF23F053EF23F0BCC5B4F5BDC5B7
:1046A000B5F553EF23F012000A6E95EF23F08FEC6F
:1046B00035F0000E87EC35F0100E19EC33F001C523
:1046C0000BF502C50CF5010E0D6EB2EF23F08FEC69
:1046D00035F0010E87EC35F0040E19EC33F001C50E
:1046E0000BF502C50CF563EF23F08FEC35F0020EED
:1046F00087EC35F0120E19EC33F001C50BF502C54D
:104700000CF563EF23F08FEC35F0030E87EC35F0FA
:10471000110E19EC33F001C50BF502C50CF563EF72
:1047200023F0020E0D6EB2EF23F00A50086E096AF4
:104730000950000AD8B49FEF23F091EF23F00850FE
:10474000010AD8B475EF23F0030AD8B483EF23F03D
:10475000010AD8B457EF23F0070AD8B467EF23F063
:1047600091EF23F00D04D8A4B8EF23F0BAEF23F0B3
:10477000E8EF23F00C5007E1070E0B5CD8B0C3EF55
:1047800023F0C5EF23F0CBEF23F0000E0F6E000EE9
:104790000E6ED5EF23F00BC50EF50CC50FF5FB0E15
:1047A0000E240E6EFF0E0F200F6E890E0E5C130E80
:1047B0000F58D8A0DEEF23F0E0EF23F0E2EF23F074
:1047C000E8EF23F00EC506F50FC507F5E8EF23F077
:1047D0001200000E0501B86FB6BFF3EF23F0F1EF42
:1047E00023F0FDEF23F0B61FB51FB41FB36D000E0D
:1047F000B423B523B623010EB86FB2BF04EF24F083
:1048000002EF24F00EEF24F0B21FB11FB01FAF6D06
:10481000000EB023B123B223010EB81B000EB96FF6
:10482000000EBA6F000EBB6F000EBC6FB351B41117
:10483000B511B611D8B41FEF24F021EF24F057EFD3
:1048400024F0010EB76F2BEF24F0D890B337B437B4
:10485000B537B637B72BB6AF30EF24F032EF24F0D0
:1048600025EF24F0D890B937BA37BB37BC37B351EE
:10487000AF5DB451B059B551B159B651B259D8A084
:1048800044EF24F046EF24F04FEF24F0B351AF5F34
:10489000B451B05BB551B15BB651B25BB981D89040
:1048A000B633B533B433B333B72F32EF24F0B85146
:1048B000D8B45DEF24F05FEF24F067EF24F0BC1F65
:1048C000BB1FBA1FB96D000EBA23BB23BC23B9C5E9
:1048D000AFF5BAC5B0F5BBC5B1F5BCC5B2F51200B0
:1048E000000E166E14BE79EF24F077EF24F083EFFC
:1048F00024F0141E131E121E116C000E122213221D
:104900001422010E166E10BE8AEF24F088EF24F0F8
:1049100094EF24F0101E0F1E0E1E0D6C000E0E22C2
:104920000F221022010E161A000E176E000E186EBE
:10493000000E196E000E1A6E115012101310141082
:10494000D8B4A5EF24F0A7EF24F0DDEF24F0010E9A
:10495000156EB1EF24F0D890113612361336143696
:10496000152A14AEB6EF24F0B8EF24F0ABEF24F024
:10497000D8901736183619361A3611500D5C125069
:104980000E5813500F5814501058D8A0CAEF24F0E6
:10499000CCEF24F0D5EF24F011500D5E12500E5ADA
:1049A00013500F5A1450105A1780D89014321332E3
:1049B00012321132152EB8EF24F01650D8B4E3EFAE
:1049C00024F0E5EF24F0EDEF24F01A1E191E181E56
:1049D000176C000E182219221A2217C50DF518C5DA
:1049E0000EF519C50FF51AC510F512000501CF35E2
:1049F000D035D66FD651D8A400EF25F002EF25F0C0
:104A00000CEF25F0000ECD6F000ECE6F000ECF6FB5
:104A1000000ED06F79EF25F0CDC5D1F5CEC5D2F51A
:104A2000CFC5D3F5D0C5D4F5200E1CEF25F0D89016
:104A3000D433D333D233D133E82E17EF25F0D1510D
:104A4000D56FCF8FFF0ECD17FF0ECE17FF0ECF17EE
:104A5000000ED017960ED65FD6BF33EF25F031EF9C
:104A600025F049EF25F0D651800A970FD8B03BEFDB
:104A700025F03DEF25F03FEF25F002EF25F0D8902F
:104A8000D033CF33CE33CD33D63F3FEF25F061EF78
:104A900025F01F0ED6654FEF25F051EF25F059EFA9
:104AA00025F002EF25F0D890CD37CE37CF37D0376D
:104AB000D607D651D8A45FEF25F061EF25F053EF6C
:104AC00025F0D551D8B467EF25F069EF25F071EFE7
:104AD00025F0D01FCF1FCE1FCD6D000ECE23CF23CC
:104AE000D023CDC5CDF5CEC5CEF5CFC5CFF5D0C53C
:104AF000D0F51200000E0501BD15C56F000EBE15E4
:104B0000C66F800EBF15C76F7F0EC015C86FC55129
:104B1000C611C711C811D8A490EF25F092EF25F067
:104B20009AEF25F0000EBD6F000EBE6F000EBF6F36
:104B3000000EC06F000EC115C56F000EC215C66F06
:104B4000800EC315C76F7F0EC415C86FC551C6113F
:104B5000C711C811D8A4AFEF25F0B1EF25F0B9EF18
:104B600025F0000EC16F000EC26F000EC36F000E65
:104B7000C46FC0AFBEEF25F0C0EF25F0C9EF25F040
:104B8000BD6DBE1FD8B0BE2BBF1FD8B0BF2B800ECF
:104B9000C057C4AFCEEF25F0D0EF25F0D9EF25F008
:104BA000C16DC21FD8B0C22BC31FD8B0C32B800E9B
:104BB000C457000EBD1B000EBE1B000EBF1B800E97
:104BC000C01B000EC11B000EC21B000EC31B800EBB
:104BD000C41BC151BD5DC251BE59C351BF59C4515F
:104BE000C059D8B0F6EF25F0F8EF25F0FBEF25F02F
:104BF000D890FCEF25F0D880120021342234286EA2
:104C00002850D8A406EF26F008EF26F012EF26F081
:104C1000000E1F6E000E206E000E216E000E226E22
:104C20007FEF26F01FC523F520C524F521C525F506
:104C300022C526F5200E22EF26F0D8902632253206
:104C400024322332E82E1DEF26F02350276E218ECA
:104C5000FF0E1F16FF0E2016FF0E2116000E221645
:104C6000960E285E28BE39EF26F037EF26F04FEF7C
:104C700026F02850800A970FD8B041EF26F043EF76
:104C800026F045EF26F008EF26F0D89022322132A8
:104C900020321F32283E45EF26F067EF26F01F0E28
:104CA000286455EF26F057EF26F05FEF26F008EF67
:104CB00026F0D8901F362036213622362806285076
:104CC000D8A465EF26F067EF26F059EF26F02750BD
:104CD000D8B46DEF26F06FEF26F077EF26F0221EA6
:104CE000211E201E1F6C000E2022212222221FC501
:104CF0001FF520C520F521C521F522C522F512009A
:104D0000000E0F14176E000E1014186E800E111482
:104D1000196E7F0E12141A6E1750181019101A10EF
:104D2000D8A495EF26F097EF26F09FEF26F0000E1F
:104D30000F6E000E106E000E116E000E126E000E41
:104D40001314176E000E1414186E800E1514196EBD
:104D50007F0E16141A6E1750181019101A10D8A4B6
:104D6000B4EF26F0B6EF26F0BEEF26F0000E136E7D
:104D7000000E146E000E156E000E166E12AEC3EF0E
:104D800026F0C5EF26F0CEEF26F00F6C101ED8B03F
:104D9000102A111ED8B0112A800E125616AED3EF6B
:104DA00026F0D5EF26F0DEEF26F0136C141ED8B0F7
:104DB000142A151ED8B0152A800E1656000E0F1A8A
:104DC000000E101A000E111A800E121A000E131A7D
:104DD000000E141A000E151A800E161A13500F5CCE
:104DE000145010581550115816501258D8B0FBEFE7
:104DF00026F0FDEF26F000EF27F0D89001EF27F026
:104E0000D8801200490E0501AF6F990EB06F000EE9
:104E1000B16F000EB26FD9C5B3F5DAC5B4F5B56B95
:104E2000B66BE9EC23F0AFC5DDF5B0C5DEF56A0E73
:104E30000501C16F4D0EC26F930EC36FBF0EC46FDD
:104E4000DDC5AFF5DEC5B0F5B16BB26B000E07EC9A
:104E50001FF0AFC5BDF5B0C5BEF5B1C5BFF5B2C554
:104E6000C0F55EEC13F0BDC5CDF5BEC5CEF5BFC532
:104E7000CFF5C0C5D0F5F6EC24F0CDC5DDF5CEC537
:104E8000DEF5D7C5DBF5D8C5DCF50501D890DB37F5
:104E9000DC37D890DB37DC37DBC5DFF5DCC5E0F588
:104EA000DFC5AFF5E0C5B0F5000EB26F640EB16FAF
:104EB000BDEC33F0AFC5DFF5B0C5E0F5DFC5AFF54C
:104EC000E0C5B0F5D9C5B1F5DAC5B2F534EC2FF0CF
:104ED000AFC5DFF5B0C5E0F5DFC5AFF5E0C5B0F5AE
:104EE000DAEC34F0DDC5AFF5DEC5B0F5D3EC34F067
:104EF00097EC35F01200490E0501AF6F990EB06FB7
:104F0000000EB16F000EB26FD9C5B3F5DAC5B4F5B6
:104F1000B56BB66BE9EC23F0AFC5DDF5B0C5DEF5DA
:104F20006A0E0501C16F4D0EC26F930EC36FBF0EA7
:104F3000C46FDDC5AFF5DEC5B0F5B16BB26B000E69
:104F400007EC1FF0AFC5BDF5B0C5BEF5B1C5BFF5E7
:104F5000B2C5C0F55EEC13F0BDC5CDF5BEC5CEF54E
:104F6000BFC5CFF5C0C5D0F5F6EC24F0CDC5DDF555
:104F7000CEC5DEF5D7C5DBF5D8C5DCF50501D89083
:104F8000DB37DC37D890DB37DC37DBC5DFF5DCC55A
:104F9000E0F5DFC5AFF5E0C5B0F5000EB26F640E09
:104FA000B16FBDEC33F0AFC5DFF5B0C5E0F5DFC5DF
:104FB000AFF5E0C5B0F5D9C5B1F5DAC5B2F534EC59
:104FC0002FF0AFC5DFF5B0C5E0F5DFC5AFF5E0C543
:104FD000B0F5E8EC34F0DDC5AFF5DEC5B0F5E1ECD9
:104FE00034F099EC35F01200490E0D6E990E0E6EEC
:104FF000000E0F6E000E106E2BC511F52CC512F5AC
:10500000136A146A70EC24F00DC52FF50EC530F547
:105010006A0E136E4D0E146E930E156EBF0E166E45
:105020002FC501F530C502F5036A046A000EE3ECF2
:105030001FF001C50FF502C510F503C511F504C534
:1050400012F5BFEC15F00FC51FF510C520F511C501
:1050500021F512C522F5FDEC25F01FC52FF520C561
:1050600030F529C52DF52AC52EF5D8902D362E36CA
:10507000D8902D362E362DC531F52EC532F531C5D9
:1050800001F532C502F5000E046E640E036EFEECEF
:1050900033F001C531F502C532F531C501F532C530
:1050A00002F52BC503F52CC504F51EEC30F001C547
:1050B00031F502C532F531C501F532C502F502EC14
:1050C00035F02FC501F530C502F5FCEC34F09BEC52
:1050D00035F01200490E0D6E990E0E6E000E0F6E19
:1050E000000E106E2BC511F52CC512F5136A146A4B
:1050F00070EC24F00DC52FF50EC530F56A0E136E59
:105100004D0E146E930E156EBF0E166E2FC501F563
:1051100030C502F5036A046A000EE3EC1FF001C516
:105120000FF502C510F503C511F504C512F5BFEC66
:1051300015F00FC51FF510C520F511C521F512C5D5
:1051400022F5FDEC25F01FC52FF520C530F529C54A
:105150002DF52AC52EF5D8902D362E36D8902D3621
:105160002E362DC531F52EC532F531C501F532C5C6
:1051700002F5000E046E640E036EFEEC33F001C502
:1051800031F502C532F531C501F532C502F52BC541
:1051900003F52CC504F51EEC30F001C531F502C550
:1051A00032F531C501F532C502F50EEC35F02FC5EB
:1051B00001F530C502F508EC35F09DEC35F0120034
:1051C000206E000E1C6E175082EC34F01F6E1FA074
:1051D000ECEF28F0EEEF28F054EF29F017500C0D0B
:1051E000580EF324D96E010EF420DA6E610078F3C4
:1051F0001DF5610074F31EF51D501E10D8B403EFA9
:1052000029F005EF29F054EF29F01DC50CF51EC556
:105210000DF518C50EF519C50FF5BAEC1BF01750B2
:105220000C0D510EF324D96E010EF420DA6E000E2F
:10523000DB802050020DFE0EF324D96E050EF42003
:10524000DA6EDF2A17504CEC34F01A6E2050020D43
:10525000FE0EF324D96E050EF420DA6E1A50DE5CD1
:10526000D8A035EF29F037EF29F041EF29F0205091
:10527000020DFE0EF324D96E050EF420DA6E000E38
:10528000DF6E1FA646EF29F048EF29F052EF29F014
:1052900017500C0D540EF324D96E010EF420DA6E63
:1052A000F70EDF16010E1C6E1C5012000501B56FC3
:1052B000000E0501B66F20EE04F0B051D926B151B1
:1052C000DA22DF50B76FB7AF68EF29F06AEF29F045
:1052D00076EF29F082EC35F0060AD8A472EF29F0B7
:1052E00074EF29F076EF29F00501B6830501B73197
:1052F000E8320F0BB26F080EB26581EF29F083EF31
:1053000029F096EF29F0B7AD88EF29F08AEF29F060
:1053100094EF29F082EC35F0060AD8A492EF29F038
:1053200094EF29F096EF29F00501B6812F0EF66E65
:10533000260EF76EF86A08006100D4F3B2F5050195
:10534000B731E8320F0BB36FB46B270EB325F66E8F
:10535000260EB421F76EF86A000EF8220800F55008
:10536000B25DD8B0B6EF29F0B8EF29F0B9EF29F067
:10537000B681B5515BEC34F00009D8A4C2EF29F036
:10538000C4EF29F0C7EF29F0030E0501B61305019C
:10539000B6511200D0C564F6D1C565F6D2C566F621
:1053A000D3C567F6D4C568F6D5C569F6D6C56AF61D
:1053B000D7C56BF6CBC56CF6CCC56DF6CDC56EF614
:1053C000CEC56FF60601709D709F70937091CFC52A
:1053D000D8F50F0E0501D817D847D84706017051E8
:1053E0000501D819C30BD8190601706F640E716FCF
:1053F000060E726FA4EC34F0E806D8A402EF2AF08F
:1054000004EF2AF005EF2AF000F099EC34F0E806FA
:10541000D8A40DEF2AF00FEF2AF010EF2AF000F0D9
:105420008EEC34F0E806D8A418EF2AF01AEF2AF030
:105430001BEF2AF000F069EC34F0E806D8A423EF63
:105440002AF025EF2AF026EF2AF000F0000E00ECFB
:1054500033F00501D86FD8A130EF2AF032EF2AF0EF
:105460003AEF2AF06C0EC56F060EC66F000E9BEC6D
:105470002DF000F01200060173517411D8B443EFFF
:105480002AF045EF2AF051EF2AF002D851EF2AF026
:105490000500FA6E7351FD6E7451FE6EFF6AFA508C
:1054A0001200EFEC34F00501A72B060EA719D8A4C3
:1054B0005CEF2AF05EEF2AF062EF2AF0000EA76F91
:1054C000CBEC34F00501A62B0B0EA619D8A46BEF7C
:1054D0002AF06DEF2AF071EF2AF0000EA66FA2EC11
:1054E00035F00501A52B650EA519D8A47AEF2AF091
:1054F0007CEF2AF080EF2AF0000EA56FA4EC35F0C7
:1055000006014A4B4B2B2D0E4A1906E14B05D8A438
:105510008CEF2AF08EEF2AF094EF2AF0000E4B6FFA
:10552000000E4A6FA1EC35F00601484B492B590E8D
:10553000481907E1020E4919D8A4A1EF2AF0A3EFF8
:105540002AF0A9EF2AF0000E496F000E486FA3EC75
:1055500035F01200000ECFB4010E016E000ECEB277
:10556000010E026E00F00104D8A4B9EF2AF0BBEFDF
:105570002AF0CAEF2AF00250D8A4C1EF2AF0C3EFF4
:105580002AF0CAEF2AF0010E0501826F85C584F565
:105590000EEF2BF00150D8A4D0EF2AF0D2EF2AF072
:1055A000E1EF2AF00204D8A4D8EF2AF0DAEF2AF0CB
:1055B000E1EF2AF0020E0501826F85C583F50EEF3B
:1055C0002BF00150D8A4E7EF2AF0E9EF2AF0F6EF2C
:1055D0002AF00250D8A4EFEF2AF0F1EF2AF0F6EF0C
:1055E0002AF0030E0501826F0EEF2BF00104D8A400
:1055F000FCEF2AF0FEEF2AF00BEF2BF00204D8A408
:1056000004EF2BF006EF2BF00BEF2BF0040E05014F
:10561000826F0EEF2BF0050E0501826F1200000E57
:10562000036E000E0A6E0A50020DFD0EF324D96EB1
:10563000050EF420DA6EDF50066E065082EC34F070
:10564000056E05A026EF2BF028EF2BF069EF2BF06D
:1056500006504CEC34F0076E05A631EF2BF033EF1B
:105660002BF037EF2BF007C504F567EF2BF0065052
:105670000C0D550EF324D96E010EF420DA6EDF50B6
:105680001F0B086E0A50020DFE0EF324D96E050E94
:10569000F420DA6EDF50096E0950085CD8B053EF81
:1056A0002BF055EF2BF05BEF2BF00950085C072433
:1056B000046E67EF2BF00850095CD8B062EF2BF056
:1056C00064EF2BF033EF2BF00950085C046E0450AC
:1056D00003260A2A0A50D8B470EF2BF072EF2BF091
:1056E00013EF2BF003501200000ECFB4010E050192
:1056F000AF6F000ECEB2010EB06F00F00501AF0526
:10570000D8A485EF2BF087EF2BF095EF2BF0B0515D
:10571000D8A48DEF2BF08FEF2BF095EF2BF0010E2F
:10572000826F85C584F5D5EF2BF0AF51D8A49BEFE0
:105730002BF09DEF2BF0ABEF2BF0B005D8A4A3EF2F
:105740002BF0A5EF2BF0ABEF2BF0020E826F85C58F
:1057500083F5D5EF2BF0AF51D8A4B1EF2BF0B3EF19
:105760002BF0BFEF2BF0B051D8A4B9EF2BF0BBEF6B
:105770002BF0BFEF2BF0030E826FD5EF2BF0AF05B0
:10578000D8A4C5EF2BF0C7EF2BF0D3EF2BF0B0056B
:10579000D8A4CDEF2BF0CFEF2BF0D3EF2BF0040EEE
:1057A000826FD5EF2BF0050E826F1200000E066E91
:1057B00004BEDFEF2BF0DDEF2BF0E5EF2BF0036CF9
:1057C000041ED8B0042A010E066E02BEECEF2BF0C8
:1057D000EAEF2BF0F2EF2BF0016C021ED8B0022A98
:1057E000010E061A000E086E000E076E035004101C
:1057F000D8B4FDEF2BF0FFEF2BF027EF2CF0010ECC
:10580000056E07EF2CF0D89003360436052A04AE57
:105810000CEF2CF00EEF2CF003EF2CF0D8900736A5
:1058200008360350015C04500258D8A01AEF2CF03F
:105830001CEF2CF021EF2CF00350015E0450025AB3
:105840000780D89004320332052E0EEF2CF006505C
:10585000D8B42DEF2CF02FEF2CF033EF2CF0076C99
:10586000081ED8B0082A07C501F508C502F51200C0
:105870006100D8F35CF56100DCF35DF56100E0F3F5
:105880005EF56100D4F35FF5A1AE49EF2CF04BEF6C
:105890002CF056EF2CF0B1AE50EF2CF052EF2CF074
:1058A00056EF2CF032EC33F08CEF2CF0A1A85BEF2C
:1058B0002CF05DEF2CF068EF2CF0B1A862EF2CF02B
:1058C00064EF2CF068EF2CF0E4EC32F08CEF2CF06D
:1058D0009EAC6DEF2CF06FEF2CF07AEF2CF0AEACAD
:1058E00074EF2CF076EF2CF07AEF2CF06DEC21F0C9
:1058F0008CEF2CF0A2A87FEF2CF081EF2CF08CEF36
:105900002CF0B2A886EF2CF088EF2CF08CEF2CF066
:10591000D3EC33F08CEF2CF061007CF5F5F46100F2
:1059200078F5F8F4610074F5F7F4610070F5F6F4B9
:1059300011001F501B5C016E20501C58026E21503C
:105940001D58036E22501E58046E640E056E000E24
:10595000066E000E076E000E086EC7EC30F001C533
:105960000DF502C50EF503C50FF504C510F51F5062
:10597000235C116E20502458126E21502558136E4E
:1059800022502658146E70EC24F00DC51BF50EC580
:105990001CF50FC51DF510C51EF51EBED4EF2CF06D
:1059A000D2EF2CF0DEEF2CF0000E1B6E000E1C6E02
:1059B000000E1D6E000E1E6EF6EF2CF01EBEECEFFC
:1059C0002CF01E501D101C1009E1650E1B5CD8A0A8
:1059D000ECEF2CF0EEEF2CF0F6EF2CF0640E1B6EDB
:1059E000000E1C6E000E1D6E000E1E6E1B5012006F
:1059F00005018605D8A4FFEF2CF001EF2DF03FEF55
:105A00002DF0E1C5AFF5E2C5B0F5000EB26F3C0E6A
:105A1000B16FBDEC33F0AFC56EF5B0C56FF56EC5B7
:105A2000AFF56FC5B0F5000E0501B26F640EB16F32
:105A300034EC2FF0AFC56EF5B0C56FF505016E51B2
:105A40006E6F6F6B8851E519D8A429EF2DF02BEFFD
:105A50002DF049EF2DF0040E826131EF2DF033EF80
:105A60002DF049EF2DF06EC5D7F56FC5D8F5010EB5
:105A7000DA6F2C0ED96F7BEC27F049EF2DF0000E7A
:105A8000D86F000ED76F010EDA6F2C0ED96F7BEC3A
:105A900027F0120005018605D8A451EF2DF053EF31
:105AA0002DF090EF2DF033C501F534C502F5000E51
:105AB000046E3C0E036EFEEC33F001C56EF502C5BC
:105AC0006FF56EC501F56FC502F5000E046E640E2C
:105AD000036E1EEC30F001C56EF502C56FF50501D1
:105AE0006E516E6F6F6B88513718D8A47AEF2DF016
:105AF0007CEF2DF09AEF2DF0040E826182EF2DF0F5
:105B000084EF2DF09AEF2DF06EC529F56FC52AF5BB
:105B1000010E2C6E2C0E2B6E6AEC28F09AEF2DF0F5
:105B2000000E2A6E000E296E010E2C6E2C0E2B6EAE
:105B30006AEC28F012000501CA6F0501CA5106EC93
:105B400032F00009D8B4A7EF2DF0A9EF2DF0E9EF5E
:105B50002DF0C5C5B0F5C6C5B1F50501CA5156EC65
:105B600029F00501C76FC751D8A4B9EF2DF0BBEFDD
:105B70002DF0E9EF2DF0CA510C0D580EF324D96E1B
:105B8000010EF420DA6E610078F3C8F5610074F359
:105B9000C9F5C851C911D8B4D0EF2DF0D2EF2DF00E
:105BA000E9EF2DF0C8C5BAF5C9C5BBF5C5C5BCF54B
:105BB000C6C5BDF592EC1AF00501CA510C0D510E87
:105BC000F324D96E010EF420DA6E030EDF12E9EF32
:105BD0002DF012000501B16F000E0501B06F82ECCF
:105BE00035F00501AF6F040EAF19D8B4FAEF2DF000
:105BF000FCEF2DF00DEF2EF0B105D8B402EF2EF032
:105C000004EF2EF00DEF2EF0040EB119D8A40BEF17
:105C10002EF00DEF2EF032EF2EF0010103510501B1
:105C2000B119F80BB1190101036F24EF2EF0010136
:105C30001DA91DEF2EF01FEF2EF024EF2EF0020E07
:105C40000501B06F34EF2EF00239E832070B050181
:105C5000B119D8A42EEF2EF030EF2EF017EF2EF062
:105C600034EF2EF0010EB06FB05112004BEC33F058
:105C70008BEC32F018EC22F04BEC32F0BDEC20F063
:105C8000D68EBEB046EF2EF049EF2EF0010E4AEF51
:105C90002EF0000EFF0A0501FA6FBE50FA19FE0B36
:105CA000FA19BE6EA451E16FE26BE36BE46B000E78
:105CB000E56F1FEC18F0300E0501CB6F030ECC6FB3
:105CC000000ECD6F000ECE6F060ECF6FA3C5D0F5C0
:105CD000A2C5D1F5A1C5D2F5A0C5D3F5000ED46FEC
:105CE000000ED56F000ED66F000ED76FCAEC29F0EC
:105CF00041EF2EF00DEF00F0000EBE6E000EBF6EF5
:105D0000000EC06E080ECA6EDE0EC66ECC0EC76EDA
:105D1000070EC86EE70E0401106F730E086FFD0EBC
:105D2000006F000E216F000E096F000E016F000E54
:105D3000116F000E026F000E0A6F180E126F0369CA
:105D40000B69136904690C691469080E246F0F0E3E
:105D50000201696F140E706F1A0E0A6F370E146FFE
:105D6000180E096F380E156F0B0E3D6F460E0D6F36
:105D7000130E716F1200560E0501AF6F6B0EB06FF0
:105D800055EC35F0580E0501AF6F6B0EB06F5AEC45
:105D900035F05A0E0501AF6F6B0EB06F5FEC35F04A
:105DA000540E0501AF6F6B0EB06F50EC35F0500E16
:105DB0000501AF6F6B0EB06F46EC35F04E0E05016E
:105DC000AF6F6B0EB06F41EC35F0520E0501AF6F47
:105DD0006B0EB06F4BEC35F0AE9C000E01011C6FEA
:105DE000000E1D6F0A0E1E6FFC0E1F6F9E8C1200A0
:105DF0002EC61BF52FC61CF51D6A1E6A36C61FF57A
:105E000037C620F5216A226A32C623F533C624F547
:105E1000256A266A99EC2CF00501A16F2CC61BF5AA
:105E20002DC61CF51D6A1E6A34C61FF535C620F541
:105E3000216A226A30C623F531C624F5256A266A0E
:105E400099EC2CF00501A06FA151A025016E026A0A
:105E50000236000E046E020E036ED6EC2BF00150DB
:105E600005017F6F00F01200000E0501B46F000EF7
:105E7000B36FB151B211D8B440EF2FF042EF2FF011
:105E80006AEF2FF0010EB56F4AEF2FF0D890B137BF
:105E9000B237B52BB2AF4FEF2FF051EF2FF046EFE7
:105EA0002FF0D890B337B437B151AF5DB251B0597C
:105EB000D8A05DEF2FF05FEF2FF064EF2FF0B1511E
:105EC000AF5FB251B05BB381D890B233B133B52F6D
:105ED00051EF2FF0B3C5AFF5B4C5B0F512006CC5E6
:105EE0001BF56DC51CF51D6A1E6A3EC61FF53FC633
:105EF00020F5216A226A3AC623F53BC624F5256AB5
:105F0000266A99EC2CF00501A36F6AC51BF56BC5D9
:105F10001CF51D6A1E6A3CC61FF53DC620F5216AA8
:105F2000226A38C623F539C624F5256A266A99EC13
:105F30002CF00501A26FA351A225016E026A023660
:105F4000000E046E020E036ED6EC2BF0015005011C
:105F5000A46F1200000E6F6E020E706E000E716E56
:105F60003D0E726E000E736EFE0E746E000E756E38
:105F7000000E766E000E776E000E796E1F0E7A6E32
:105F8000000E7B6E1F0E7C6E000E7D6EB39CB39E6A
:105F900076907692A39EA39C000E0501AF6F000E33
:105FA000B06F23EC35F0000E0501AF6F000EB06F3F
:105FB0001EEC35F0000E0501AF6F000EB06F28EC3F
:105FC00035F0800E786E1200000E606E020E616E6B
:105FD000000E626E3D0E636E000E646EFE0E656E08
:105FE000000E666E000E676E000E686E000E6A6E22
:105FF0001F0E6B6E000E6C6E1F0E6D6E000E6E6EC1
:10600000B29CB29E67906792A29EA29C000E050170
:10601000AF6F000EB06F32EC35F0000E0501AF6FC0
:10602000000EB06F2DEC35F0000E0501AF6F000EC5
:10603000B06F37EC35F0800E696E1200000E066E00
:10604000000E056E03500410D8B429EF30F02BEF8A
:1060500030F053EF30F0010E076E33EF30F0D89090
:1060600003360436072A04AE38EF30F03AEF30F04A
:106070002FEF30F0D890053606360350015C0450FF
:106080000258D8A046EF30F048EF30F04DEF30F036
:106090000350015E0450025A0580D8900432033246
:1060A000072E3AEF30F005C501F506C502F51200DE
:1060B00000F005018805D8A460EF30F062EF30F001
:1060C00086EF30F09F05D8A468EF30F06AEF30F02B
:1060D0006EEF30F0010E866F90EF30F0000E866F9D
:1060E000000E2A6E000E296E010E2C6E2C0E2B6EE9
:1060F0006AEC28F0000E2A6E000E296E010E2C6E3E
:106100002C0E2B6EF4EC27F090EF30F08851D8A4D1
:106110008CEF30F08EEF30F090EF30F06AEF30F02F
:106120001200000E0501B76F000EB86F000EB96FB8
:10613000000EBA6FAFA19FEF30F0A1EF30F0A9EFE2
:1061400030F0B351B727B451B823B551B923B65184
:10615000BA23D890B337B437B537B637D890B233FF
:10616000B133B033AF33AF51B011B111B211D8A4C4
:10617000BCEF30F0BEEF30F09AEF30F0B7C5AFF5BE
:10618000B8C5B0F5B9C5B1F5BAC5B2F51200000E83
:10619000096E000E0A6E000E0B6E000E0C6E01A052
:1061A000D4EF30F0D6EF30F0DEEF30F005500926B6
:1061B00006500A2207500B2208500C22D8900536B0
:1061C000063607360836D8900432033202320132DE
:1061D0000150021003100410D8A4F1EF30F0F3EFD7
:1061E00030F0CFEF30F009C501F50AC502F50BC557
:1061F00003F50CC504F51200860EF66E690EF76EF7
:10620000000EF86E01EE89F210EE10F00900F5C4F0
:10621000EEF4E550E150FAE13E0EF66E6B0EF76ECD
:10622000000EF86E09006100D4F3FDF5090061006D
:10623000D4F3FEF501EE00F2730EEE6AE806FDE11E
:1062400001EE60F14F0EEE6AE806FDE10401080E72
:106250005D6F000E5E6F000E5F6F000136EF2EF077
:106260000101018F040EEAEC2DF00009D8A43BEFE8
:1062700031F03DEF31F05DEF31F0000E01014C6F78
:10628000260E4D6F000E4E6F000E4F6F600E006FAA
:10629000970E016F100E026FB9EC34F0AFEC34F0D2
:1062A000E9EC33F03BEC34F062EC33F0BBEC2EF075
:1062B000060EEAEC2DF0C79ABF9A1200B1C5B7F5E9
:1062C000B2C5B8F5AFC5B5F5B0C5B6F57DEF31F0DF
:1062D0006100DCF6D9F46100E0F6DAF4DF50B96F62
:1062E000B74BB82B6100D4F6D9F46100D8F6DAF4D4
:1062F0006100E4F6DFF4B54BB62B0501B307D8A077
:10630000B407B32906E1B429D8A489EF31F08BEFA3
:1063100031F068EF31F0120003C509F504C50AF544
:1063200001C507F502C508F5ABEF31F0610024F4B3
:10633000D9F4610028F4DAF4DF500B6E094A0A2A16
:1063400061001CF4D9F4610020F4DAF461002CF44B
:10635000DFF4074A082A0506D8A00606052806E144
:106360000628D8A4B6EF31F0B8EF31F096EF31F04F
:106370001200000E246E2450020DFD0EF324D96E7F
:10638000050EF420DA6EDF50176E21C518F522C510
:1063900019F52450E0EC28F0236E2350D8B4D3EF45
:1063A00031F0D5EF31F0D7EF31F0E0EF31F0242AC2
:1063B0002450D8B4DEEF31F0E0EF31F0BBEF31F034
:1063C00023501200000E03011F6F000E206F010EFC
:1063D000216F850E1D6FEE0E1C6FB1981C51600071
:1063E00074FCB1F50501B26BB1C5B2F5B16BB11179
:1063F000FB6FB251FC6FA188400EAF6F6B0EB06F98
:1064000014EC35F0310E03011E6F12000501B06F60
:10641000000E0501AF6F040EB06111EF32F013EF03
:1064200032F026EF32F0B0510C0D500EF324D96E3D
:10643000010EF420DA6E0101DFAE21EF32F023EF1E
:1064400032F026EF32F0010E0501AF6F0501AF51BA
:106450001200036E35EF32F0BE8A4AEF32F0BE9A78
:106460004AEF32F0BE9A4AEF32F00350016E026AF0
:106470000250000AD8B43FEF32F032EF32F0015050
:10648000000AD8B42FEF32F0010AD8B42CEF32F062
:1064900032EF32F01200AAEC32F0640E05016C25E6
:1064A00006013E6F000E05016D2106013F6F9C0E37
:1064B00005016A2506013C6FFF0E05016B210601EF
:1064C0003D6F00F0070E06013B6F620E3A6F010E42
:1064D000396F040E386F12000501B36F6100CCF6FE
:1064E000ECF30301F38FF39DF381F3B17AEF32F014
:1064F0007CEF32F075EF32F0EB510501B26FB16B0A
:106500000301EA510501B125AF6F0301000E05013A
:10651000B221B06F1200C690C784C682C69AC89ACC
:10652000C89CC89EC79A000E0501D86F000ED76F91
:10653000010EDA6F2C0ED96F7BEC27F0000E0501EF
:10654000D86F000ED76F020EDA6F580ED96F02ECBB
:1065500027F01200010EBCEC22F0B4C56CF5B5C5F5
:106560006DF5020EBCEC22F0B4C56AF5B5C56BF54D
:10657000030EBCEC22F0B4C52EF6B5C52FF6040E02
:10658000BCEC22F0B4C52CF6B5C52DF61200010EF8
:1065900054EC23F006C56CF507C56DF5020E54ECFE
:1065A00023F006C56AF507C56BF5030E54EC23F01E
:1065B00006C52EF607C52FF6040E54EC23F006C5CB
:1065C0002CF607C52DF61200B198FBC501F5FCC5E8
:1065D00002F579EC33F00501704B712B715109E133
:1065E000050E705DD8A0F7EF32F0F9EF32F0FDEF55
:1065F00032F0000E716F000E706F3BEC2AF012004B
:106600000501B26F000E0501B16FB25106EC32F018
:106610000009D8B40EEF33F010EF33F016EF33F07B
:106620000501B2515BEC34F00501B16F0501B151C8
:106630001200056E610014F4ECF30301F38FF39D77
:10664000F381F3B126EF33F028EF33F021EF33F08D
:10665000EB51046E036AEA510324016E000E04201C
:10666000026E1200B19E0501724B732B735109E14A
:106670000A0E725DD8A03FEF33F041EF33F048EFE0
:1066800033F090EC33F0000E0501736F000E726F63
:10669000A6EC35F0120095EC35F027EC34F0A7ECC1
:1066A00033F0F4EC1DF07CEC2EF076EC34F0E2EC00
:1066B00031F013EC34F0AAEC2FF030EC31F0E4ECD4
:1066C0002FF01200000E0501AF6FAF51020DFE0E4C
:1066D000F324D96E050EF420DA6E000EDF6EAF2BB8
:1066E000AF51D8B476EF33F078EF33F065EF33F095
:1066F000120003011EA57FEF33F081EF33F08AEF24
:1067000033F01E9102501D6F610004F41CF31E81D2
:106710008FEF33F002501D6F610004F41CF3120080
:10672000060175517611D8B498EF33F09AEF33F033
:10673000A6EF33F002D8A6EF33F00500FA6E7551DC
:10674000FD6E7651FE6EFF6AFA5012001200040EC2
:106750000201946F800E956F180E966F030E9E6F58
:10676000000E9A6F000E9B6F000E976F000E8C6FDD
:10677000000E8D6F000E9D6F12000501AF51B10329
:106780006100CCF3B3F56100D0F3B4F5AF51B203BF
:10679000F350B427B051B103F350B427B3C5AFF5EC
:1067A000B4C5B0F51200010160A1D9EF33F0DBEF01
:1067B00033F0E8EF33F002D8E8EF33F00500FA6E7B
:1067C00006015A51FD6E5B51FE6EFF6AFA501200CF
:1067D0001200190E01015C6F040E5D6F600E5E6F9A
:1067E000050E5F6F240E0501AF6F6B0EB06F3CECB2
:1067F00035F001011E83B298A288120001500302F5
:106800006100CCF305F56100D0F306F501500402F8
:10681000F350062602500302F350062605C501F583
:1068200006C502F51200480E03011B6F610E196FB9
:10683000000E186FB19EA18E4A0E0501AF6F6B0E50
:10684000B06F19EC35F0800E03011A6F1200000EC4
:106850000001606F000E616F000E626F000E636FCB
:10686000000E646F000E656F000E666F000E676F9E
:10687000000E686F12005F0E0101946F95699669B2
:106880009769000E986F000E996F000E9A6F000EB8
:106890009B6F810E816F1200026E02500C0D530E21
:1068A000F324D96E010EF420DA6EDF50016E1F0E54
:1068B0000116012812000501AF6F0501AF510C0D43
:1068C000540EF324D96E010EF420DA6EDF50010B62
:1068D000120099EC34F00009D8B471EF34F074EF81
:1068E00034F0010E75EF34F0000E1200700E00014E
:1068F000AD6F000EAF6F000EB36F020EB16F000EE2
:10690000B06F1200016E01500C0D540EF324D96EBD
:10691000010EF420DA6EDF50090B1200010136B5CA
:1069200094EF34F097EF34F0010E98EF34F0000E4E
:106930001200010136B99FEF34F0A2EF34F0010EDE
:10694000A3EF34F0000E1200010136BBAAEF34F0C1
:10695000ADEF34F0010EAEEF34F0000E1200100E69
:106960000101506F040E516F610E526F050E536F8F
:106970001200010E0101046F010E056F060E066F75
:10698000000E076F12003075000003000000E803DE
:10699000000050C30000AAEC2AF058EC30F0000EC2
:1069A00005019F6F12006100BCF672F40501B05141
:1069B000736E12006100BCF67AF40501B0517B6E73
:1069C00012006100BCF663F40501B051646E120060
:1069D0006100BCF66BF40501B0516C6E1200C7EC9F
:1069E00032F0F8EC2EF06FEC2FF012000501AF6FD3
:1069F0006100BCF6FBF31200610004F472F4025073
:106A0000736E1200610004F47AF402507B6E12007F
:106A1000610004F463F40250646E1200610004F437
:106A20006BF402506C6E1200AFC573F6B0C574F60D
:106A30001200AFC575F6B0C576F61200AFC585F683
:106A4000B0C586F61200AFC587F6B0C588F612004D
:106A5000AFC583F6B0C584F61200AFC576F5B0C5F4
:106A600077F51200AFC578F5B0C579F51200AFC55E
:106A700074F5B0C575F51200AFC55AF6B0C55BF632
:106A80001200AFC54EF6B0C54FF61200AFC550F6B6
:106A9000B0C551F61200AFC54CF6B0C54DF61200A8
:106AA000AFC552F6B0C553F61200AFC558F6B0C523
:106AB00059F61200AFC556F6B0C557F61200AFC56D
:106AC00054F6B0C555F61200AFC579F6B0C57AF6E2
:106AD0001200AFC57BF6B0C57CF61200AFC57DF6DF
:106AE000B0C57EF61200AFC57FF6B0C580F61200C5
:106AF000AFC577F6B0C578F61200AFC581F6B0C560
:106B000082F6120001010239E832070B1200016E11
:106B1000610004F4FBF312000301F39B1200030174
:106B2000F39B1200DAEC1CF01200D69A1200788463
:106B30001200698412007884120069841200010036
:106B400012001200120012001200120012001200B5
:0C6B5000120012001200120012001200CD
:020000040020DA
:10000000FF0FFF0FFF0FFF0FFF0FFF0FFF0FFF0F80
:10001000FF0FFF0FFF0FFF0FFF0FFF0FFF0FFF0F70
:020000040030CA
:10000000FAEFF7DF9FFFFFFFFFFFFFFFFFFFFFFF9D
:10001000FFFFFFFFFFFFFFFFFFFFFFFFFFFFFFFFF0
:04002000FFFFFFFFE0
:00000001FF
