:020000040000FA
:040000000DEF00F010
:040008008BEF2CF05E
:06001800FF00AEEF31F025
:1026000000000000000000000000000000000000CA
:1026100000000000000000000000000000000000BA
:102620000000000000000000010203040506070886
:102630005001526561643A206E6F6E2D766F6C6149
:1026400074696C6520766F6C746167652076616C67
:1026500075652025662C20616E6420766F6C617430
:10266000696C6520766F6C746167652076616C7546
:10267000652025660053657420746865206E6F6E52
:102680002D766F6C6174696C6520766F6C74616710
:102690006520746F203156200A00536574207468D9
:1026A0006520766F6C6174696C6520766F6C7461FF
:1026B000676520746F203256200A00000501D5514D
:1026C000800BDE6FD551D525E06FD4AF6AEF13F0E4
:1026D0006CEF13F06DEF13F0E081E051D8B473EFBD
:1026E00013F075EF13F08AEF13F0E029D8A47BEF15
:1026F00013F07DEF13F085EF13F0000ED26F000E94
:10270000D36F000ED46F000ED56FD48F000ED56F2F
:1027100092EF13F0000ED26F000ED36F000ED46F45
:10272000000ED56FD951800BDF6FDE51DF19D8B4A1
:102730009CEF13F09EEF13F09FEF13F0DE8DD95155
:10274000D925DF6FD8AFA7EF13F0A9EF13F0AAEFE9
:1027500013F0DF81DF51D8B4B0EF13F0B2EF13F014
:10276000C7EF13F0DF29D8A4B8EF13F0BAEF13F0D6
:10277000C2EF13F0000ED66F000ED76F000ED86FA9
:10278000000ED96FD88F000ED96FCFEF13F0000E67
:10279000D66F000ED76F000ED86F000ED96FE051C4
:1027A000DF5DD8B0D6EF13F0D8EF13F0FFEF13F0E2
:1027B000DEADDDEF13F0DFEF13F0E1EF13F0800E8D
:1027C000DE1BE0C5E1F5DFC5E0F5E1C5DFF5D2C50B
:1027D000E1F5D6C5D2F5E1C5D6F5D3C5E1F5D7C546
:1027E000D3F5E1C5D7F5D4C5E1F5D8C5D4F5E1C534
:1027F000D8F5D5C5E1F5D9C5D5F5E1C5D9F5000EB2
:10280000E16FE051DFC5DAF5DB6BDA5F000EDB5B11
:10281000DBBF14EF14F0DB5109E11A0EDA5DD8A02A
:1028200014EF14F016EF14F04DEF14F0D251D31151
:10283000D411D511D8A41FEF14F022EF14F0010E1B
:1028400023EF14F0000EE16F000ED26F000ED36F75
:10285000000ED46F000ED56FDFC5E0F556EF14F013
:10286000E1A135EF14F037EF14F03DEF14F0D890FC
:10287000E1310109E16F3FEF14F0D890E133D2A1CB
:1028800044EF14F046EF14F047EF14F0E18FD53524
:10289000D533D433D333D233E02BDF51E05DD8A02E
:1028A00054EF14F056EF14F030EF14F0DEBD5BEF90
:1028B00014F05DEF14F09DEF14F0E051D8A463EF35
:1028C00014F065EF14F06FEF14F0000ED26F000EED
:1028D000D36F000ED46F000ED56FBEEF15F0D6513A
:1028E000D227D751D323D851D423D951D523D5A119
:1028F0007CEF14F07EEF14F02AEF15F0E1A183EFE6
:1029000014F085EF14F08BEF14F0D890E131010949
:10291000E16F8DEF14F0D890E133D2A192EF14F073
:1029200094EF14F095EF14F0E18FD535D533D4330F
:10293000D333D233E02B2AEF15F0D651D25DD751E5
:10294000D359D851D459D551800ADA6FD951800A58
:10295000DA59D8B0AEEF14F0B0EF14F0DBEF14F0AA
:10296000D251D65DDA6FD351D759DB6FD451D859D4
:10297000DC6FD551D959DD6FFF0EDA25D26FFF0E0E
:10298000DB21D36FFF0EDC21D46FFF0EDD21D56F6D
:10299000800EDE1BE16DE151D8A4D1EF14F0D3EF2E
:1029A00014F0E3EF14F0010ED227000ED323D4234A
:1029B000D523E3EF14F0D651D25FD751D35BD85172
:1029C000D45BD951D55BD251D311D411D511D8A430
:1029D000ECEF14F0EEEF14F023EF15F0E151D8A472
:1029E000F4EF14F0F6EF14F023EF15F0000ED26FB1
:1029F000000ED36F000ED46F000ED56FBEEF15F032
:102A0000D890D237D337D437D537E1AF0AEF15F0A6
:102A10000CEF15F00DEF15F0D281E1A112EF15F0DA
:102A200014EF15F018EF15F0D880E1371AEF15F014
:102A3000D890E137E051D8B420EF15F022EF15F02F
:102A400023EF15F0E007D4AF28EF15F02AEF15F0CB
:102A500000EF15F0000EDF6FE1AF31EF15F033EF4F
:102A600015F04BEF15F0E1C5DAF57F0EDA17D8B4A3
:102A70003CEF15F03EEF15F042EF15F0010EDF6F61
:102A80004BEF15F0D2A147EF15F049EF15F04BEFE2
:102A900015F03EEF15F0DF51D8B451EF15F053EFBC
:102AA00015F07EEF15F0010ED227000ED323D423AC
:102AB000D523D5A15EEF15F060EF15F07EEF15F090
:102AC000D2C5DAF5D3C5DBF5D4C5DCF5D5C5DDF562
:102AD000DD35DD33DC33DB33DA33DAC5D2F5DBC5A4
:102AE000D3F5DCC5D4F5DDC5D5F5E029D8B47BEF49
:102AF00015F07DEF15F07EEF15F0E02BE029D8B44E
:102B000084EF15F086EF15F08EEF15F0E051D8A4A4
:102B10008CEF15F08EEF15F0A0EF15F0000ED26FD0
:102B2000000ED36F000ED46F000ED56FE051D8A405
:102B30009CEF15F09EEF15F0A0EF15F0000EDE6F84
:102B4000E0A1A5EF15F0A7EF15F0AAEF15F0D48FCF
:102B5000ABEF15F0D49FD890E031D56FDEAFB3EF77
:102B600015F0B5EF15F0B6EF15F0D58FD2C5D2F54B
:102B7000D3C5D3F5D4C5D4F5D5C5D5F512001250BB
:102B8000800B1B6E125012241D6E11AECAEF15F091
:102B9000CCEF15F0CDEF15F01D801D50D8B4D3EF5C
:102BA00015F0D5EF15F0EAEF15F01D28D8A4DBEFEE
:102BB00015F0DDEF15F0E5EF15F0000E0F6E000ECD
:102BC000106E000E116E000E126E118E000E126E3F
:102BD000F2EF15F0000E0F6E000E106E000E116E6B
:102BE000000E126E1650800B1C6E1B501C18D8B4B1
:102BF000FCEF15F0FEEF15F0FFEF15F01B8C1650F3
:102C000016241C6E15AE07EF16F009EF16F00AEF4A
:102C100016F01C801C50D8B410EF16F012EF16F00E
:102C200027EF16F01C28D8A418EF16F01AEF16F0AC
:102C300022EF16F0000E136E000E146E000E156ECD
:102C4000000E166E158E000E166E2FEF16F0000E8B
:102C5000136E000E146E000E156E000E166E1D50D3
:102C60001C5CD8B036EF16F038EF16F05FEF16F0B8
:102C70001BAC3DEF16F03FEF16F041EF16F0800E63
:102C80001B1A1DC51EF51CC51DF51EC51CF50FC55F
:102C90001EF513C50FF51EC513F510C51EF514C599
:102CA00010F51EC514F511C51EF515C511F51EC587
:102CB00015F512C51EF516C512F51EC516F5000E42
:102CC0001E6E1D501CC517F5186A175E000E185AA7
:102CD00018BE74EF16F0185009E11A0E175CD8A050
:102CE00074EF16F076EF16F0ADEF16F00F501010EF
:102CF00011101210D8A47FEF16F082EF16F0010E1B
:102D000083EF16F0000E1E6E000E0F6E000E106E9A
:102D1000000E116E000E126E1CC51DF5B6EF16F0FA
:102D20001EA095EF16F097EF16F09DEF16F0D890D5
:102D30001E3001091E6E9FEF16F0D8901E320FA0B4
:102D4000A4EF16F0A6EF16F0A7EF16F01E8E1234C1
:102D50001232113210320F321D2A1C501D5CD8A0C5
:102D6000B4EF16F0B6EF16F090EF16F01BBCBBEF09
:102D700016F0BDEF16F0FDEF16F01D50D8A4C3EF0E
:102D800016F0C5EF16F0CFEF16F0000E0F6E000E26
:102D9000106E000E116E000E126E1EEF18F0135022
:102DA0000F2614501022155011221650122212A074
:102DB000DCEF16F0DEEF16F08AEF17F01EA0E3EF5F
:102DC00016F0E5EF16F0EBEF16F0D8901E30010983
:102DD0001E6EEDEF16F0D8901E320FA0F2EF16F037
:102DE000F4EF16F0F5EF16F01E8E12341232113297
:102DF00010320F321D2A8AEF17F013500F5C145057
:102E00001058155011581250800A176E1650800A2B
:102E10001758D8B00EEF17F010EF17F03BEF17F080
:102E20000F50135C176E10501458186E115015582F
:102E3000196E125016581A6EFF0E17240F6EFF0EE1
:102E40001820106EFF0E1920116EFF0E1A20126E40
:102E5000800E1B1A1E6C1E50D8A431EF17F033EFF2
:102E600017F043EF17F0010E0F26000E102211226B
:102E7000122243EF17F013500F5E1450105A1550E2
:102E8000115A1650125A0F50101011101210D8A4C7
:102E90004CEF17F04EEF17F083EF17F01E50D8A449
:102EA00054EF17F056EF17F083EF17F0000E0F6E88
:102EB000000E106E000E116E000E126E1EEF18F056
:102EC000D8900F361036113612361EAE6AEF17F054
:102ED0006CEF17F06DEF17F00F801EA072EF17F078
:102EE00074EF17F078EF17F0D8801E367AEF17F0EE
:102EF000D8901E361D50D8B480EF17F082EF17F02F
:102F000083EF17F01D0611AE88EF17F08AEF17F068
:102F100060EF17F0000E1C6E1EAE91EF17F093EFEE
:102F200017F0ABEF17F01EC517F57F0E1716D8B4C4
:102F30009CEF17F09EEF17F0A2EF17F0010E1C6E3A
:102F4000ABEF17F00FA0A7EF17F0A9EF17F0ABEF5B
:102F500017F09EEF17F01C50D8B4B1EF17F0B3EF95
:102F600017F0DEEF17F0010E0F26000E10221122CF
:102F7000122212A0BEEF17F0C0EF17F0DEEF17F02D
:102F80000FC517F510C518F511C519F512C51AF5B5
:102F90001A341A3219321832173217C50FF518C5FC
:102FA00010F519C511F51AC512F51D28D8B4DBEFB7
:102FB00017F0DDEF17F0DEEF17F01D2A1D28D8B44B
:102FC000E4EF17F0E6EF17F0EEEF17F01D50D8A47E
:102FD000ECEF17F0EEEF17F000EF18F0000E0F6EA9
:102FE000000E106E000E116E000E126E1D50D8A451
:102FF000FCEF17F0FEEF17F000EF18F0000E1B6E5D
:103000001DA005EF18F007EF18F00AEF18F0118E69
:103010000BEF18F0119ED8901D30126E1BAE13EFFF
:1030200018F015EF18F016EF18F0128E0FC50FF507
:1030300010C510F511C511F512C512F512000501E4
:103040007C517E5D7D517F59D8B029EF18F02BEF70
:1030500018F073EF18F07E517C5DD16F7F517D5970
:10306000D26FD1C564F5D2C565F5666B676B55C582
:10307000C4F556C5C5F5C66BC76B64C5C8F565C54F
:10308000C9F566C5CAF567C5CBF585EC30F0C4C592
:1030900064F5C5C565F5C6C566F5C7C567F564C5FC
:1030A000C4F565C5C5F566C5C6F567C5C7F5640E43
:1030B0000501C86F000EC96F000ECA6F000ECB6FFE
:1030C00049EC2DF005017E51C425646F7F51C52167
:1030D000656F000EC621666F000EC721676F010E77
:1030E000996FB7EF18F07C517E5DD16F7D517F599C
:1030F000D26FD1C564F5D2C565F5666B676B55C5F2
:10310000C4F556C5C5F5C66BC76B64C5C8F565C5BE
:10311000C9F566C5CAF567C5CBF585EC30F0C4C501
:1031200064F5C5C565F5C6C566F5C7C567F57EC551
:10313000C4F57FC5C5F5000E0501C76F640EC66FE7
:1031400087EC33F00501C451D16FC551D26FD36BF9
:10315000D46B6451D15D646F6551D259656F66510E
:10316000D359666F6751D459676F020E996F7851C2
:103170007A5D79517B59D8B0C0EF18F0C2EF18F0E2
:103180000AEF19F07A51785DD16F7B517959D26F7E
:10319000D1C560F5D2C561F5626B636B55C5C4F5E9
:1031A00056C5C5F5C66BC76B60C5C8F561C5C9F521
:1031B00062C5CAF563C5CBF585EC30F0C4C560F5D2
:1031C000C5C561F5C6C562F5C7C563F560C5C4F57B
:1031D00061C5C5F562C5C6F563C5C7F5640E0501D1
:1031E000C86F000EC96F000ECA6F000ECB6F49EC9E
:1031F0002DF005017A51C425606F7B51C521616FA7
:10320000000EC621626F000EC721636F040E996F16
:103210004EEF19F078517A5DD16F79517B59D26FA9
:10322000D1C560F5D2C561F5626B636B55C5C4F558
:1032300056C5C5F5C66BC76B60C5C8F561C5C9F590
:1032400062C5CAF563C5CBF585EC30F0C4C560F541
:10325000C5C561F5C6C562F5C7C563F57AC5C4F5D0
:103260007BC5C5F5000E0501C76F640EC66F87EC00
:1032700033F00501C451D16FC551D26FD36BD46BFC
:103280006051D15D606F6151D259616F6251D35904
:10329000626F6351D459636F080E996F64517F0B4D
:1032A0009F6F60517F0B9E6F9F519E25C46FC56BB2
:1032B000C537000EC76F020EC66F64EC2BF0050118
:1032C000C4519D6F00F0140E05017225D16F000EE0
:1032D0007321D26FD36BD46B6451D15D6551D259D8
:1032E0006651D3596751D459D8A079EF19F07BEFC3
:1032F00019F092EF19F0EC0E7225D16FFF0E7321C9
:10330000D26FD36BD46BD151645DD2516559D35117
:103310006659D4516759D8B090EF19F092EF19F06F
:1033200095EF19F09C8197EF19F0FE0E9C13140E87
:103330007025D16F000E7121D26FD36BD46B6051A9
:10334000D15D6151D2596251D3596351D459D8A03A
:10335000ACEF19F0AEEF19F0C5EF19F0EC0E7025D7
:10336000D16FFF0E7121D26FD36BD46BD151605DE1
:10337000D2516159D3516259D4516359D8B0C3EF76
:1033800019F0C5EF19F0C8EF19F09C83CAEF19F0D6
:10339000FD0E9C13050E9919D8A4D1EF19F0D3EFA7
:1033A00019F0D6EF19F09C85EFEF19F0090E991975
:1033B000D8A4DDEF19F0DFEF19F0E2EF19F09C95DA
:1033C000EFEF19F0060E9919D8A4E9EF19F0EBEF19
:1033D00019F0EDEF19F0DFEF19F0D3EF19F012004B
:1033E00005017C517E5D7D517F59D8B0FAEF19F00F
:1033F000FCEF19F043EF1AF07E517C5D0E6E7F51A9
:103400007D590F6E0EC564F50FC565F5666B676B6C
:1034100055C501F556C502F5036A046A64C505F58C
:1034200065C506F566C507F567C508F5F0EC30F02B
:1034300001C564F502C565F503C566F504C567F504
:1034400064C501F565C502F566C503F567C504F5F4
:10345000640E056E000E066E000E076E000E086EFE
:103460009CEC2DF005017E510124646F7F510220F8
:10347000656F000E0320666F000E0420676F010E5B
:10348000996F86EF1AF07C517E5D0E6E7D517F59EB
:103490000F6E0EC564F50FC565F5666B676B55C598
:1034A00001F556C502F5036A046A64C505F565C5EC
:1034B00006F566C507F567C508F5F0EC30F001C5FF
:1034C00064F502C565F503C566F504C567F57EC5F7
:1034D00001F57FC502F5000E046E640E036EC8ECA4
:1034E00033F001500E6E02500F6E106A116A050122
:1034F00064510E5C646F65510F58656F66511058CA
:10350000666F67511158676F020E996F78517A5D37
:1035100079517B59D8B08FEF1AF091EF1AF0D8EFAC
:103520001AF07A51785D0E6E7B5179590F6E0EC587
:1035300060F50FC561F5626B636B55C501F556C546
:1035400002F5036A046A60C505F561C506F562C542
:1035500007F563C508F5F0EC30F001C560F502C56C
:1035600061F503C562F504C563F560C501F561C584
:1035700002F562C503F563C504F5640E056E000E21
:10358000066E000E076E000E086E9CEC2DF0050115
:103590007A510124606F7B510220616F000E03207D
:1035A000626F000E0420636F040E996F1BEF1BF017
:1035B00078517A5D0E6E79517B590F6E0EC560F5AC
:1035C0000FC561F5626B636B55C501F556C502F514
:1035D000036A046A60C505F561C506F562C507F5AD
:1035E00063C508F5F0EC30F001C560F502C561F582
:1035F00003C562F504C563F57AC501F57BC502F51F
:10360000000E046E640E036EC8EC33F001500E6EB3
:1036100002500F6E106A116A050160510E5C606FF6
:1036200061510F58616F62511058626F63511158A8
:10363000636F080E996F64517F0B9F6F60517F0B12
:103640009E6F9F519E25016E026A0236000E046E27
:10365000020E036E29EC2CF0015005019D6F00F065
:10366000140E050172250E6E000E73210F6E106A86
:10367000116A64510E5C65510F58665110586751BC
:103680001158D8A046EF1BF048EF1BF05FEF1BF07E
:10369000EC0E72250E6EFF0E73210F6E106A116A0A
:1036A0000E50645D0F50655910506659115067599E
:1036B000D8B05DEF1BF05FEF1BF062EF1BF09C8159
:1036C00064EF1BF0FE0E9C13140E70250E6E000EA0
:1036D00071210F6E106A116A60510E5C61510F58B2
:1036E0006251105863511158D8A079EF1BF07BEF4D
:1036F0001BF092EF1BF0EC0E70250E6EFF0E712189
:103700000F6E106A116A0E50605D0F5061591050B3
:10371000625911506359D8B090EF1BF092EF1BF033
:1037200095EF1BF09C8397EF1BF0FD0E9C13050E8D
:103730009919D8A49EEF1BF0A0EF1BF0A3EF1BF08C
:103740009C85BCEF1BF0090E9919D8A4AAEF1BF0B9
:10375000ACEF1BF0AFEF1BF09C95BCEF1BF0060E1F
:103760009919D8A4B6EF1BF0B8EF1BF0BAEF1BF015
:10377000ACEF1BF0A0EF1BF0120020EE04F00C5099
:10378000D9260D50DA22DF50176E17C510F520EE3E
:1037900004F00E50D9260F50DA2210461046DF50A2
:1037A0001018C30B1018DF6E17B8D9EF1BF0DDEF40
:1037B0001BF0106A102ADEEF1BF0106A20EE04F0F6
:1037C0000E50D9260F50DA22DF501018FE0B1018B9
:1037D000DF6E17BAEEEF1BF0F2EF1BF0106A102A43
:1037E000F3EF1BF0106A20EE04F00E50D9260F50B4
:1037F000DA221046DF501018FD0B1018DF6E17BCD0
:1038000004EF1CF008EF1CF0106A102A09EF1CF0FE
:10381000106A20EE04F00E50D9260F50DA22103232
:103820001032DF5010187F0B1018DF6E17BE1BEF21
:103830001CF01FEF1CF0106A102A20EF1CF0106A19
:1038400020EE04F00E50D9260F50DA22103A10461E
:103850001046DF501018BF0B1018DF6E20EE01F07D
:103860000C50D9260D50DA22DF50106E070E1016BC
:103870001050136E146A156A166A15C516F514C52C
:1038800015F513C514F5136A610030F4D9F461001D
:1038900034F4DAF4DF50106E1050131220EE04F0FE
:1038A0000E50D9260F50DA22DFA059EF1CF05BEF43
:1038B0001CF09CEF1CF0050ED8901336143615360C
:1038C0001636E82E5CEF1CF020EE03F00C50D926E3
:1038D0000D50DA22DF50106E1F0E1016105013120A
:1038E00015C516F514C515F513C514F5136A20EEA4
:1038F00002F00C50D9260D50DA22DF50106E105015
:103900001312050ED8901336143615361636E82ED7
:1039100082EF1CF020EE01F00C50D9260D50DA2277
:10392000DF50106ED8901032D8901032D8901032EC
:103930001F0E101610501312610038F4D9F46100F4
:103940003CF4DAF461004CF4DEF4610050F4DEF48F
:10395000610054F4DEF4610058F4DEF43E0E016EB2
:10396000060E026E080E0C24036E000E0D20046E6F
:1039700020EE04F00E50D9260F50DA22DF30E83264
:103980000F0B106E116A270E1024F66E260E1120F2
:10399000F76EF86A000EF8220800F550056E066A08
:1039A00081EC31F020EE05F00E50D9260F50DA22CE
:1039B0003E0EDE6E060EDD6E120000F0A30E050157
:1039C000D16F550EE82EFED7D12FFCD700F000F0B6
:1039D00000F005018451865D85518759D8B0F3EF19
:1039E0001CF0F5EF1CF03CEF1DF08651765DD16FB9
:1039F00087517759D26FD1C56CF5D2C56DF56E6B15
:103A00006F6B6CC5C4F56DC5C5F56EC5C6F56FC5E4
:103A1000C7F5640EC86F000EC96F000ECA6F000EA6
:103A2000CB6F85EC30F0C4C56CF5C5C56DF5C6C56A
:103A30006EF5C7C56FF56CC5C4F56DC5C5F56EC52A
:103A4000C6F56FC5C7F505018451865DD16F8551F7
:103A50008759D26FD1C5C8F5D2C5C9F5CA6BCB6B32
:103A600049EC2DF0C4C56CF5C5C56DF5C6C56EF540
:103A7000C7C56FF54AEF1DF07651865DD16F77515E
:103A80008759D26FD1C56CF5D2C56DF56E6B6F6B72
:103A900001EF1DF005018051825D81518359D8B03D
:103AA00054EF1DF056EF1DF09DEF1DF08251745D37
:103AB000D16F83517559D26FD1C568F5D2C569F5FB
:103AC0006A6B6B6B68C5C4F569C5C5F56AC5C6F593
:103AD0006BC5C7F5640EC86F000EC96F000ECA6FC4
:103AE000000ECB6F85EC30F0C4C568F5C5C569F52F
:103AF000C6C56AF5C7C56BF568C5C4F569C5C5F522
:103B00006AC5C6F56BC5C7F505018251805DD16FE9
:103B100083518159D26FD1C5C8F5D2C5C9F5CA6BD9
:103B2000CB6B49EC2DF0C4C568F5C5C569F5C6C5B4
:103B30006AF5C7C56BF5E2EF1DF07451825DD16F78
:103B400075518359D26FD1C568F5D2C569F56A6BD5
:103B50006B6B68C5C4F569C5C5F56AC5C6F56BC5A7
:103B6000C7F5640EC86F000EC96F000ECA6F000E55
:103B7000CB6F85EC30F0C4C568F5C5C569F5C6C521
:103B80006AF5C7C56BF568C5C4F569C5C5F56AC5ED
:103B9000C6F56BC5C7F505018051825DD16F8151B6
:103BA0008359D26FD1C5C8F5D2C5C9F5CA6BCB6BE5
:103BB00049EC2DF0C4C568F5C5C569F5C6C56AF5FB
:103BC000C7C56BF505016C517F0BA26F68517F0B68
:103BD000A16FA251A125C46FC56BC537000EC76F79
:103BE000020EC66F64EC2BF00501C451A06F00F00B
:103BF000120000F0A30E0E6E550EE82EFED70E2E0C
:103C0000FCD700F000F000F000F005018451865D63
:103C100085518759D8B00FEF1EF011EF1EF058EF05
:103C20001EF08651765D0E6E875177590F6E0EC568
:103C30006CF50FC56DF56E6B6F6B6CC501F56DC5E1
:103C400002F56EC503F56FC504F5640E056E000E32
:103C5000066E000E076E000E086EF0EC30F001C527
:103C60006CF502C56DF503C56EF504C56FF56CC541
:103C700001F56DC502F56EC503F56FC504F50501C7
:103C80008451865D0E6E855187590F6E0EC505F500
:103C90000FC506F5076A086A9CEC2DF001C56CF5A6
:103CA00002C56DF503C56EF504C56FF566EF1EF030
:103CB0007651865D0E6E775187590F6E0EC56CF585
:103CC0000FC56DF56E6B6F6B1DEF1EF0050180511A
:103CD000825D81518359D8B070EF1EF072EF1EF0F3
:103CE000B9EF1EF08251745D0E6E835175590F6EDF
:103CF0000EC568F50FC569F56A6B6B6B68C501F594
:103D000069C502F56AC503F56BC504F5640E056E59
:103D1000000E066E000E076E000E086EF0EC30F01E
:103D200001C568F502C569F503C56AF504C56BF5FB
:103D300068C501F569C502F56AC503F56BC504F5EB
:103D400005018251805D0E6E835181590F6E0EC543
:103D500005F50FC506F5076A086A9CEC2DF001C54C
:103D600068F502C569F503C56AF504C56BF5FEEF94
:103D70001EF07451825D0E6E755183590F6E0EC523
:103D800068F50FC569F56A6B6B6B68C501F569C5A8
:103D900002F56AC503F56BC504F5640E056E000EE9
:103DA000066E000E076E000E086EF0EC30F001C5D6
:103DB00068F502C569F503C56AF504C56BF568C504
:103DC00001F569C502F56AC503F56BC504F5050182
:103DD0008051825D0E6E815183590F6E0EC505F5BF
:103DE0000FC506F5076A086A9CEC2DF001C568F559
:103DF00002C569F503C56AF504C56BF505016C518B
:103E00007F0BA26F68517F0BA16FA251A125016E9C
:103E1000026A0236000E046E020E036E29EC2CF0CC
:103E200001500501A06F00F01200020E0301F96FAE
:103E30003F0EFA6F000ED86F000EFB6F000ED96FA9
:103E4000000EDA6F000EDB6F000EDC6F000EDF6F0E
:103E5000000EE06F000EE36F000EE46F000EE56FE2
:103E6000000EE66F000EE76F000EEA6F000EEB6FBC
:103E7000100EEC6FE80EEE6F030EEF6F000EF06F9A
:103E8000000EF16F000EF26F000EF36F000EF46F74
:103E9000100EF56F000EF66F000EF76F000EF86F44
:103EA000000EFC6F010EFB6F000ED96F000EDA6F73
:103EB000000EDB6F000EDC6F000EDF6F000EE06F98
:103EC000000EE36F000EE46F000EE56F000EE66F6C
:103ED000000EE76F000EEA6F000EEB6F040EEC6F42
:103EE000E80EEE6F030EEF6F000EF06F000EF16F35
:103EF000000EF26F000EF36F000EF46F100EF56FF0
:103F0000000EF66F000EF76F000EF86F000EFD6FDB
:103F1000020EFB6F000ED96F000EDA6F000EDB6F22
:103F2000000EDC6F000EDF6F000EE06F000EE36F1F
:103F3000000EE46F000EE56F000EE66F000EE76FF7
:103F4000000EEA6F000EEB6F120EEC6FE80EEE6FD4
:103F5000030EEF6F000EF06F000EF16F000EF26FA8
:103F6000000EF36F000EF46F100EF56F000EF66F7B
:103F7000000EF76F000EF86F000EFE6F030EFB6F62
:103F8000000ED96F000EDA6F000EDB6F000EDC6FD3
:103F9000000EDF6F000EE06F000EE36F000EE46FA7
:103FA000000EE56F000EE66F000EE76F000EEA6F81
:103FB000000EEB6F110EEC6FE80EEE6F030EEF6F5D
:103FC000000EF06F000EF16F000EF26F000EF36F37
:103FD000000EF46F100EF56F000EF66F000EF76F07
:103FE000000EF86F000EFF6FAF94AF96B090B092D6
:103FF000B094B096000E0501C46F000EC56F4AEC78
:1040000035F0000E0501C46F000EC56F40EC35F0B1
:10401000000E0501C46F000EC56F3BEC35F0000EBD
:104020000501C46F000EC56F36EC35F0000E0501BA
:10403000C46F000EC56F31EC35F0000E0501C46F82
:10404000000EC56F45EC35F0840E0301F36F1200CE
:10405000FFEC2AF00009D8B430EF20F032EF20F066
:1040600033EF21F0BD0E226E050E236ED8EC31F039
:10407000E806D8A43EEF20F040EF20F033EF21F027
:1040800000F0BDC545F5BEC546F5BFC547F5C0C581
:1040900048F5610008F7D9F461000CF7DAF4DF5055
:1040A000506E050120EE01F0C251D926C351DA222B
:1040B000DF504F6E20EE02F0C251D926C351DA22F2
:1040C000DF504C6E20EE03F0C251D926C351DA22E4
:1040D000DF504D6E20EE04F0C251D926C351DA22D2
:1040E000DF504E6E20EE05F0C251D926C351DA22C0
:1040F000DF50496E20EE06F0C251D926C351DA22B4
:10410000DF504A6E20EE07F0C251D926C351DA22A1
:10411000DF504B6EEDEF20F050C55AF54FC559F505
:104120004CC5BCF54DC5BBF54EC5BAF55804D8A471
:104130009CEF20F09EEF20F033EF21F0010E336E64
:104140005950D4EC2EF0010E366E5A50C2EC24F0C9
:10415000010E5B6E33EF21F05050070BB96F5050DA
:10416000180BB86F5050E00BB76F4F50010BB66F84
:104170004F50060BB56F4F50780BB46F33EF21F0F3
:1041800050C5B2F54FC5B1F54CC5B0F54DC5AFF54D
:104190004EC5AEF549C5ADF54AC5ACF54BC5ABF559
:1041A00033EF21F050C558F5585025EC32F033EF7D
:1041B00021F050C557F55850D8A4E1EF20F0E3EFB7
:1041C00020F033EF21F0000E336E5750D4EC2EF078
:1041D00033EF21F000F033EF21F045C53FF546C540
:1041E00040F547C541F548C542F54250000AD8B4EC
:1041F0002CEF21F0EAEF20F04050030AD8B40BEF87
:1042000021F0070AD8B416EF21F0010AD8B41DEF47
:1042100021F0EAEF20F03F50200AD8B48CEF20F0D4
:10422000670AD8B4D2EF20F0EAEF20F03F50120A2C
:10423000D8B4D9EF20F0EAEF20F03F50000AD8B40C
:10424000ACEF20F0010AD8B4C0EF20F0030AD8B4D4
:1042500033EF21F0EAEF20F04150000AD8B4FCEF30
:1042600020F0EAEF20F012000501CC6F0501CC51DF
:10427000D8B43DEF21F03FEF21F061EF21F0C7BF4F
:1042800046EF21F044EF21F061EF21F0C4C5C8F5FD
:10429000C5C5C9F5C6C5CAF5C7C5CBF5C81FC91F71
:1042A000CA1FCB1FC82B000EC923CA23CB23C8C5E6
:1042B000CEF5C9C5CFF5CAC5D0F5CBC5D1F569EFE7
:1042C00021F0C4C5CEF5C5C5CFF5C6C5D0F5C7C567
:1042D000D1F5C451C511C611C711D8A472EF21F090
:1042E00074EF21F07EEF21F0000EC46F000EC56F59
:1042F000000EC66F000EC76F0FEF22F0960ECD6F47
:1043000088EF21F0CD2BD890D133D033CF33CE33BB
:10431000000ECE15C86F000ECF15C96F000ED01558
:10432000CA6FFE0ED115CB6FC851C911CA11CB117E
:10433000D8A49DEF21F09FEF21F082EF21F0ADEFA7
:1043400021F0CD2B010ECE27000ECF23D023D12379
:10435000D890D133D033CF33CE33000ECE15C86FC3
:10436000000ECF15C96F000ED015CA6FFF0ED11504
:10437000CB6FC851C911CA11CB11D8A4C2EF21F01B
:10438000C4EF21F0A1EF21F0CCEF21F0CD07D890C0
:10439000CE37CF37D037D137D0BFD1EF21F0D3EFE1
:1043A00021F0DBEF21F0020ECD61D9EF21F0DBEF40
:1043B00021F0C6EF21F0CDB1E0EF21F0E2EF21F0E6
:1043C000E3EF21F0D09FD890CD33CDC5C8F5C96BB0
:1043D000CA6BCB6BC8C5CBF5CA6BC96BC86BC85170
:1043E000CE13C951CF13CA51D013CB51D113CC51D5
:1043F000D8B4FDEF21F0FFEF21F007EF22F0C7BFA7
:1044000006EF22F004EF22F007EF22F0D18FCEC5A5
:10441000C4F5CFC5C5F5D0C5C6F5D1C5C7F51200E1
:10442000096E0950D8B417EF22F019EF22F03BEFD4
:1044300022F004BE20EF22F01EEF22F03BEF22F02C
:1044400001C505F502C506F503C507F504C508F560
:10445000051E061E071E081E052A000E062207223C
:10446000082205C50BF506C50CF507C50DF508C5F1
:104470000EF543EF22F001C50BF502C50CF503C59F
:104480000DF504C50EF50150021003100410D8A458
:104490004CEF22F04EEF22F058EF22F0000E016EAA
:1044A000000E026E000E036E000E046EE9EF22F0A5
:1044B000960E0A6E62EF22F00A2AD8900E320D3262
:1044C0000C320B32000E0B14056E000E0C14066E2F
:1044D000000E0D14076EFE0E0E14086E0550061029
:1044E00007100810D8A477EF22F079EF22F05CEFE4
:1044F00022F087EF22F00A2A010E0B26000E0C2272
:104500000D220E22D8900E320D320C320B32000EDC
:104510000B14056E000E0C14066E000E0D14076EC3
:10452000FF0E0E14086E0550061007100810D8A4D0
:104530009CEF22F09EEF22F07BEF22F0A6EF22F01C
:104540000A06D8900B360C360D360E360DBEABEF84
:1045500022F0ADEF22F0B5EF22F0020E0A60B3EFC9
:1045600022F0B5EF22F0A0EF22F00AB0BAEF22F06D
:10457000BCEF22F0BDEF22F00D9ED8900A320AC5A2
:1045800005F5066A076A086A05C508F5076A066A36
:10459000056A05500B1206500C1207500D120850F8
:1045A0000E120950D8B4D7EF22F0D9EF22F0E1EF84
:1045B00022F004BEE0EF22F0DEEF22F0E1EF22F085
:1045C0000E8E0BC501F50CC502F50DC503F50EC524
:1045D00004F5120001011DAFF0EF22F0F2EF22F01E
:1045E00001EF23F002D8FFEF22F00500FA6E06017A
:1045F0003C51FD6E3D51FE6EFF6AFA501200010102
:104600001D9F1DAD06EF23F008EF23F017EF23F0F9
:1046100002D815EF23F00500FA6E06013A51FD6E3F
:104620003B51FE6EFF6AFA50120001011D9D1DAB49
:104630001CEF23F01EEF23F02DEF23F002D82BEF19
:1046400023F00500FA6E06013851FD6E3951FE6EF9
:10465000FF6AFA50120001011D9B1CA732EF23F0E4
:1046600034EF23F043EF23F002D841EF23F00500AD
:10467000FA6E06013651FD6E3751FE6EFF6AFA5032
:10468000120001011C971DA948EF23F04AEF23F007
:1046900059EF23F002D857EF23F00500FA6E060118
:1046A0003451FD6E3551FE6EFF6AFA501200010161
:1046B0001D991DA55EEF23F060EF23F076EF23F048
:1046C00002D86DEF23F00500FA6E06013251FD6E3F
:1046D0003351FE6EFF6AFA501200010154A973EFC4
:1046E00023F075EF23F076EF23F054991DA77BEFAD
:1046F00023F07DEF23F093EF23F002D88AEF23F02D
:104700000500FA6E06013051FD6E3151FE6EFF6AF2
:10471000FA501200010160A790EF23F092EF23F00E
:1047200093EF23F06097AE9C12000501CD6FD8EF98
:1047300023F054EC35F0000EBEEC34F0100EA8EC73
:1047400032F0C4C5CEF5C5C5CFF5010E0501D06F59
:10475000F6EF23F054EC35F0010EBEEC34F0040E0D
:10476000A8EC32F0C4C5CEF5C5C5CFF5A5EF23F052
:1047700054EC35F0020EBEEC34F0120EA8EC32F020
:10478000C4C5CEF5C5C5CFF5A5EF23F054EC35F083
:10479000030EBEEC34F0110EA8EC32F0C4C5CEF519
:1047A000C5C5CFF5A5EF23F0020ED06FF6EF23F0CD
:1047B0000501CD51CB6FCC6BCC51000AD8B4E3EFDF
:1047C00023F0D4EF23F0CB51010AD8B4B8EF23F093
:1047D000030AD8B4C6EF23F0010AD8B499EF23F046
:1047E000070AD8B4AAEF23F0D4EF23F0D005D8A459
:1047F000FCEF23F0FEEF23F02CEF24F0CF5107E184
:10480000070ECE5DD8B007EF24F009EF24F00FEFCC
:1048100024F0000ED26F000ED16F19EF24F0CEC538
:10482000D1F5CFC5D2F5FB0ED125D16FFF0ED22128
:10483000D26F890ED15D130ED259D8A022EF24F089
:1048400024EF24F026EF24F02CEF24F0D1C5C9F595
:10485000D2C5CAF52CEF24F012000A6E6EEF24F0D8
:1048600057EC35F0000E4FEC35F0100EE3EC32F063
:1048700001C50BF502C50CF5010E0D6E8BEF24F092
:1048800057EC35F0010E4FEC35F0040EE3EC32F04E
:1048900001C50BF502C50CF53CEF24F057EC35F0E3
:1048A000020E4FEC35F0120EE3EC32F001C50BF5C1
:1048B00002C50CF53CEF24F057EC35F0030E4FEC3D
:1048C00035F0110EE3EC32F001C50BF502C50CF525
:1048D0003CEF24F0020E0D6E8BEF24F00A50086EB0
:1048E000096A0950000AD8B478EF24F06AEF24F07E
:1048F0000850010AD8B44EEF24F0030AD8B45CEF94
:1049000024F0010AD8B430EF24F0070AD8B440EFFD
:1049100024F06AEF24F00D04D8A491EF24F093EF73
:1049200024F0C1EF24F00C5007E1070E0B5CD8B067
:104930009CEF24F09EEF24F0A4EF24F0000E0F6E05
:10494000000E0E6EAEEF24F00BC50EF50CC50FF584
:10495000FB0E0E240E6EFF0E0F200F6E890E0E5CE6
:10496000130E0F58D8A0B7EF24F0B9EF24F0BBEF27
:1049700024F0C1EF24F00EC506F50FC507F5C1EF11
:1049800024F01200376E0501A805D8A4CAEF24F060
:10499000CCEF24F042EF25F09DC538F53850375C58
:1049A0005F6E5F50392696515F5C3A6E5F500A0D1C
:1049B0006100CCF33BF539500A0D6100CCF33CF5B6
:1049C0003A500A0D6100CCF33DF53B503C243D24A8
:1049D0003E6E3E50800A7F0FD8B0F1EF24F0F3EF27
:1049E00024F0F7EF24F0000E3E6E1BEF25F03E5052
:1049F000800A7F0FD8A0FFEF24F001EF25F00DEF24
:104A000025F03E50800A1C0FD8B009EF25F00BEFBF
:104A100025F00DEF25F01BEF25F03E50800A1B0F0F
:104A2000D8A015EF25F017EF25F01BEF25F0640E49
:104A30003E6E1BEF25F058503618D8A422EF25F013
:104A400024EF25F03EEF25F05804D8A42AEF25F0F6
:104A50002CEF25F033EF25F0010E336E3E503BEC8A
:104A60002EF03EEF25F05850D8A439EF25F03BEF5B
:104A700025F03EEF25F03E5025EC34F05FC596F56D
:104A80004CEF25F0000E2A6E000E296E020E2C6EE1
:104A9000580E2B6E42EC29F01200000E0501CD6F6E
:104AA000CBBF57EF25F055EF25F061EF25F0CB1F79
:104AB000CA1FC91FC86D000EC923CA23CB23010E0C
:104AC000CD6FC7BF68EF25F066EF25F072EF25F0D8
:104AD000C71FC61FC51FC46D000EC523C623C7232D
:104AE000010ECD1B000ECE6F000ECF6F000ED06FEB
:104AF000000ED16FC851C911CA11CB11D8B483EFC0
:104B000025F085EF25F0BBEF25F0010ECC6F8FEF80
:104B100025F0D890C837C937CA37CB37CC2BCBAFA5
:104B200094EF25F096EF25F089EF25F0D890CE3759
:104B3000CF37D037D137C851C45DC951C559CA51D3
:104B4000C659CB51C759D8A0A8EF25F0AAEF25F038
:104B5000B3EF25F0C851C45FC951C55BCA51C65BEC
:104B6000CB51C75BCE81D890CB33CA33C933C8335E
:104B7000CC2F96EF25F0CD51D8B4C1EF25F0C3EF7F
:104B800025F0CBEF25F0D11FD01FCF1FCE6D000E2B
:104B9000CF23D023D123CEC5C4F5CFC5C5F5D0C50D
:104BA000C6F5D1C5C7F51200000E0A6E08BEDDEFCE
:104BB00025F0DBEF25F0E7EF25F0081E071E061EA7
:104BC000056C000E062207220822010E0A6E04BEA2
:104BD000EEEF25F0ECEF25F0F8EF25F0041E031EB4
:104BE000021E016C000E022203220422010E0A1A88
:104BF000000E0B6E000E0C6E000E0D6E000E0E6E93
:104C00000550061007100810D8B409EF26F00BEF76
:104C100026F041EF26F0010E096E15EF26F0D89030
:104C20000536063607360836092A08AE1AEF26F08A
:104C30001CEF26F00FEF26F0D8900B360C360D3611
:104C40000E360550015C06500258075003580850B4
:104C50000458D8A02EEF26F030EF26F039EF26F0DA
:104C60000550015E0650025A0750035A0850045A74
:104C70000B80D8900832073206320532092E1CEF1D
:104C800026F00A50D8B447EF26F049EF26F051EF4E
:104C900026F00E1E0D1E0C1E0B6C000E0C220D229B
:104CA0000E220BC501F50CC502F50DC503F50EC5A9
:104CB00004F512000501E435E535EB6FEB51D8A49E
:104CC00064EF26F066EF26F070EF26F0000EE26F3C
:104CD000000EE36F000EE46F000EE56FDDEF26F0CF
:104CE000E2C5E6F5E3C5E7F5E4C5E8F5E5C5E9F5B0
:104CF000200E80EF26F0D890E933E833E733E6332F
:104D0000E82E7BEF26F0E651EA6FE48FFF0EE21704
:104D1000FF0EE317FF0EE417000EE517960EEB5F8C
:104D2000EBBF97EF26F095EF26F0ADEF26F0EB51B5
:104D3000800A970FD8B09FEF26F0A1EF26F0A3EFDF
:104D400026F066EF26F0D890E533E433E333E23320
:104D5000EB3FA3EF26F0C5EF26F01F0EEB65B3EF98
:104D600026F0B5EF26F0BDEF26F066EF26F0D890DE
:104D7000E237E337E437E537EB07EB51D8A4C3EF6D
:104D800026F0C5EF26F0B7EF26F0EA51D8B4CBEF06
:104D900026F0CDEF26F0D5EF26F0E51FE41FE31F48
:104DA000E26D000EE323E423E523E2C5E2F5E3C56B
:104DB000E3F5E4C5E4F5E5C5E5F512002134223458
:104DC000286E2850D8A4E7EF26F0E9EF26F0F3EF9D
:104DD00026F0000E1F6E000E206E000E216E000EDB
:104DE000226E60EF27F01FC523F520C524F521C5ED
:104DF00025F522C526F5200E03EF27F0D8902632A0
:104E0000253224322332E82EFEEF26F02350276E7F
:104E1000218EFF0E1F16FF0E2016FF0E2116000E0C
:104E20002216960E285E28BE1AEF27F018EF27F0FC
:104E300030EF27F02850800A970FD8B022EF27F0E4
:104E400024EF27F026EF27F0E9EF26F0D890223262
:104E5000213220321F32283E26EF27F048EF27F07C
:104E60001F0E286436EF27F038EF27F040EF27F0C9
:104E7000E9EF26F0D8901F36203621362236280654
:104E80002850D8A446EF27F048EF27F03AEF27F054
:104E90002750D8B44EEF27F050EF27F058EF27F007
:104EA000221E211E201E1F6C000E202221222222E3
:104EB0001FC51FF520C520F521C521F522C522F506
:104EC0001200490E0501C46F990EC56F000EC66F22
:104ED000000EC76FEEC5C8F5EFC5C9F5CA6BCB6B41
:104EE0004DEC25F0C4C5F2F5C5C5F3F56A0E050114
:104EF000D66F4D0ED76F930ED86FBF0ED96FF2C518
:104F0000C4F5F3C5C5F5C66BC76B000E34EC21F0D4
:104F1000C4C5D2F5C5C5D3F5C6C5D4F5C7C5D5F545
:104F20005EEC13F0D2C5E2F5D3C5E3F5D4C5E4F5E4
:104F3000D5C5E5F55AEC26F0E2C5F2F5E3C5F3F583
:104F4000ECC5F0F5EDC5F1F50501D890F037F13776
:104F5000D890F037F137F0C5F4F5F1C5F5F5F4C5A3
:104F6000C4F5F5C5C5F5000EC76F640EC66F87ECB6
:104F700033F0C4C5F4F5C5C5F5F5F4C5C4F5F5C5FC
:104F8000C5F5EEC5C6F5EFC5C7F59CEC2FF0C4C559
:104F9000F4F5C5C5F5F5F4C5C4F5F5C5C5F5A9EC39
:104FA00034F0F2C5C4F5F3C5C5F5A2EC34F05FECFE
:104FB00035F01200010E0501F66F000EEEEC2DF03B
:104FC000C7EC2BF00501A405D8A4E9EF27F0EBEF1F
:104FD00027F010EF28F0010EF66F1E0EEEEC2DF00C
:104FE000030E0501F96F8A0EF86F550EE82EFED7F5
:104FF000F82FFCD7F92FFAD700D0010E0501F66F74
:10500000320EEEEC2DF0030E0501F96F8A0EF86FEB
:10501000550EE82EFED7F82FFCD7F92FFAD700D07F
:10502000C7EC2BF0030E0501A419D8A41AEF28F041
:105030001CEF28F041EF28F0010EF66F460EEEEC63
:105040002DF0030E0501F96F8A0EF86F550EE82E4C
:10505000FED7F82FFCD7F92FFAD700D0010E0501A3
:10506000F66F640EEEEC2DF0020E0501F96FE70EFF
:10507000F86F000EE82EFED7F82FFCD7F92FFAD7DD
:1050800000F0C7EC2BF0020E0501A419D8A44BEFD9
:1050900028F04DEF28F052EF28F0010EF66F000EC9
:1050A000EEEC2DF01200490E0501C46F990EC56F8C
:1050B000000EC66F000EC76FEEC5C8F5EFC5C9F587
:1050C000CA6BCB6B4DEC25F0C4C5F2F5C5C5F3F545
:1050D0006A0E0501D66F4D0ED76F930ED86FBF0EB7
:1050E000D96FF2C5C4F5F3C5C5F5C66BC76B000E25
:1050F00034EC21F0C4C5D2F5C5C5D3F5C6C5D4F589
:10510000C7C5D5F55EEC13F0D2C5E2F5D3C5E3F51E
:10511000D4C5E4F5D5C5E5F55AEC26F0E2C5F2F5BF
:10512000E3C5F3F5ECC5F0F5EDC5F1F50501D89053
:10513000F037F137D890F037F137F0C5F4F5F1C515
:10514000F5F5F4C5C4F5F5C5C5F5000EC76F640ED9
:10515000C66F87EC33F0C4C5F4F5C5C5F5F5F4C5E5
:10516000C4F5F5C5C5F5EEC5C6F5EFC5C7F59CECAC
:105170002FF0C4C5F4F5C5C5F5F5F4C5C4F5F5C5FE
:10518000C5F5B7EC34F0F2C5C4F5F3C5C5F5B0EC20
:1051900034F061EC35F01200490E016E990E026E8A
:1051A000000E036E000E046E2BC505F52CC506F52A
:1051B000076A086AD4EC25F001C52FF502C530F561
:1051C0006A0E136E4D0E146E930E156EBF0E166E94
:1051D0002FC501F530C502F5036A046A000E10EC14
:1051E00022F001C50FF502C510F503C511F504C580
:1051F00012F5BFEC15F00FC51FF510C520F511C550
:1052000021F512C522F5DEEC26F01FC52FF520C5CD
:1052100030F529C52DF52AC52EF5D8902D362E3618
:10522000D8902D362E362DC531F52EC532F531C527
:1052300001F532C502F5000E046E640E036EC8EC73
:1052400033F001C531F502C532F531C501F532C57E
:1052500002F52BC503F52CC504F54BEC30F001C568
:1052600031F502C532F531C501F532C502F5CAEC9A
:1052700034F02FC501F530C502F5C4EC34F063EC11
:1052800035F01200490E016E990E026E000E036E8B
:10529000000E046E2BC505F52CC506F5076A086AD5
:1052A000D4EC25F001C52FF502C530F56A0E136E5A
:1052B0004D0E146E930E156EBF0E166E2FC501F5B2
:1052C00030C502F5036A046A000E10EC22F001C535
:1052D0000FF502C510F503C511F504C512F5BFECB5
:1052E00015F00FC51FF510C520F511C521F512C524
:1052F00022F5DEEC26F01FC52FF520C530F529C5B7
:105300002DF52AC52EF5D8902D362E36D8902D366F
:105310002E362DC531F52EC532F531C501F532C514
:1053200002F5000E046E640E036EC8EC33F001C586
:1053300031F502C532F531C501F532C502F52BC58F
:1053400003F52CC504F54BEC30F001C531F502C571
:1053500032F531C501F532C502F5D6EC34F02FC572
:1053600001F530C502F5D0EC34F065EC35F01200F3
:10537000216E000E1D6E18505DEC34F0206E20A0E2
:10538000C4EF29F0C6EF29F02CEF2AF018500C0DCD
:10539000580EF324D96E010EF420DA6E610078F312
:1053A0001EF5610074F31FF51E501F10D8B4DBEF1B
:1053B00029F0DDEF29F02CEF2AF01EC50CF51FC5F2
:1053C0000DF519C50EF51AC50FF5BDEC1BF01850FB
:1053D0000C0D510EF324D96E010EF420DA6E000E7E
:1053E000DB802150020DFF0EF324D96E050EF42050
:1053F000DA6EDF2A185034EC34F01B6E2150020DA7
:10540000FF0EF324D96E050EF420DA6E1B50DE5C1D
:10541000D8A00DEF2AF00FEF2AF019EF2AF0215053
:10542000020DFF0EF324D96E050EF420DA6E000E85
:10543000DF6E20A61EEF2AF020EF2AF02AEF2AF0D6
:1054400018500C0D540EF324D96E010EF420DA6EB0
:10545000F70EDF16010E1D6E1D501200060155518C
:105460005611D8B436EF2AF038EF2AF044EF2AF07C
:1054700002D844EF2AF00500FA6E5551FD6E5651E0
:10548000FE6EFF6AFA5012006DEC35F05E2A060ED1
:105490005E18D8A44EEF2AF050EF2AF054EF2AF00D
:1054A000000E5E6E99EC34F05D2A0B0E5D18D8A4E8
:1054B0005CEF2AF05EEF2AF062EF2AF0000E5D6EDC
:1054C0006AEC35F05C2A650E5C18D8A46AEF2AF005
:1054D0006CEF2AF070EF2AF0000E5C6E6CEC35F089
:1054E00006012E4B2F2B2D0E2E1906E12F05D8A4C9
:1054F0007CEF2AF07EEF2AF084EF2AF0000E2F6F67
:10550000000E2E6F69EC35F006012C4B2D2B590E39
:105510002C1907E1020E2D19D8A491EF2AF093EF70
:105520002AF099EF2AF0000E2D6F000E2C6F6BEC15
:1055300035F01200000ECFB4010E016E000ECEB297
:10554000010E026E00F00104D8A4A9EF2AF0ABEF1F
:105550002AF0BAEF2AF00250D8A4B1EF2AF0B3EF44
:105560002AF0BAEF2AF0010E0501A46FA7C5A6F52F
:10557000FEEF2AF00150D8A4C0EF2AF0C2EF2AF0C3
:10558000D1EF2AF00204D8A4C8EF2AF0CAEF2AF01B
:10559000D1EF2AF0020E0501A46FA7C5A5F5FEEF15
:1055A0002AF00150D8A4D7EF2AF0D9EF2AF0E6EF7D
:1055B0002AF00250D8A4DFEF2AF0E1EF2AF0E6EF5C
:1055C0002AF0030E0501A46FFEEF2AF00104D8A40F
:1055D000ECEF2AF0EEEF2AF0FBEF2AF00204D8A459
:1055E000F4EF2AF0F6EF2AF0FBEF2AF0040E0501A3
:1055F000A46FFEEF2AF0050E0501A46F1200000E45
:10560000036E000E0A6E0A50020DFE0EF324D96ED0
:10561000050EF420DA6EDF50066E06505DEC34F0B5
:10562000056E05A016EF2BF018EF2BF059EF2BF0BD
:10563000065034EC34F0076E05A621EF2BF023EF73
:105640002BF027EF2BF007C504F557EF2BF0065092
:105650000C0D550EF324D96E010EF420DA6EDF50D6
:105660001F0B086E0A50020DFF0EF324D96E050EB3
:10567000F420DA6EDF50096E0950085CD8B043EFB1
:105680002BF045EF2BF04BEF2BF00950085C072473
:10569000046E57EF2BF00850095CD8B052EF2BF096
:1056A00054EF2BF023EF2BF00950085C046E0450EC
:1056B00003260A2A0A50D8B460EF2BF062EF2BF0D1
:1056C00003EF2BF003501200000E0501C96FC7BF96
:1056D0006EEF2BF06CEF2BF074EF2BF0C66DC71F45
:1056E000D8B0C72B010EC96FC5BF7BEF2BF079EF88
:1056F0002BF081EF2BF0C46DC51FD8B0C52B010E68
:10570000C91B000ECB6F000ECA6FC651C711D8B4AB
:105710008CEF2BF08EEF2BF0B6EF2BF0010EC86F55
:1057200096EF2BF0D890C637C737C82BC7AF9BEF83
:105730002BF09DEF2BF092EF2BF0D890CA37CB37A0
:10574000C651C45DC751C559D8A0A9EF2BF0ABEF26
:105750002BF0B0EF2BF0C651C45FC751C55BCA81B7
:10576000D890C733C633C82F9DEF2BF0C951D8B49A
:10577000BCEF2BF0BEEF2BF0C2EF2BF0CA6DCB1FAE
:10578000D8B0CB2BCAC5C4F5CBC5C5F51200000EE9
:10579000CFB4010E0501C46F000ECEB2010EC56F6D
:1057A00000F00501C405D8A4D8EF2BF0DAEF2BF0F8
:1057B000E8EF2BF0C551D8A4E0EF2BF0E2EF2BF08F
:1057C000E8EF2BF0010EA46FA7C5A6F528EF2CF08B
:1057D000C451D8A4EEEF2BF0F0EF2BF0FEEF2BF03E
:1057E000C505D8A4F6EF2BF0F8EF2BF0FEEF2BF069
:1057F000020EA46FA7C5A5F528EF2CF0C451D8A4BC
:1058000004EF2CF006EF2CF012EF2CF0C551D8A4C9
:105810000CEF2CF00EEF2CF012EF2CF0030EA46F17
:1058200028EF2CF0C405D8A418EF2CF01AEF2CF0B8
:1058300026EF2CF0C505D8A420EF2CF022EF2CF099
:1058400026EF2CF0040EA46F28EF2CF0050EA46FA9
:105850001200000E066E04BE32EF2CF030EF2CF07A
:1058600038EF2CF0036C041ED8B0042A010E066E2B
:1058700002BE3FEF2CF03DEF2CF045EF2CF0016C19
:10588000021ED8B0022A010E061A000E086E000E83
:10589000076E03500410D8B450EF2CF052EF2CF0E8
:1058A0007AEF2CF0010E056E5AEF2CF0D8900336EB
:1058B0000436052A04AE5FEF2CF061EF2CF056EFB2
:1058C0002CF0D890073608360350015C045002587B
:1058D000D8A06DEF2CF06FEF2CF074EF2CF003508C
:1058E000015E0450025A0780D89004320332052E1C
:1058F00061EF2CF00650D8B480EF2CF082EF2CF042
:1059000086EF2CF0076C081ED8B0082A07C501F5F1
:1059100008C502F512006100D8F351F56100DCF30F
:1059200052F56100E0F353F56100D4F354F5A1AEF4
:105930009CEF2CF09EEF2CF0A9EF2CF0B1AEA3EF72
:105940002CF0A5EF2CF0A9EF2CF0FCEC32F0DFEFFF
:105950002CF0A1A8AEEF2CF0B0EF2CF0BBEF2CF0A8
:10596000B1A8B5EF2CF0B7EF2CF0BBEF2CF0C7ECE3
:1059700032F0DFEF2CF09EACC0EF2CF0C2EF2CF039
:10598000CDEF2CF0AEACC7EF2CF0C9EF2CF0CDEF83
:105990002CF0EAEC22F0DFEF2CF0A2A8D2EF2CF0F2
:1059A000D4EF2CF0DFEF2CF0B2A8D9EF2CF0DBEF26
:1059B0002CF0DFEF2CF09DEC33F0DFEF2CF06100EA
:1059C00050F5F5F461004CF5F8F4610048F5F7F492
:1059D000610044F5F6F4110087EC34F000F0000E9D
:1059E0000501ED6F000EEC6F020EEF6F580EEE6FBB
:1059F00061EC27F0030E0501F76F8A0EF66F550E66
:105A0000E82EFED7F62FFCD7F72FFAD700D0000EDE
:105A10000501ED6F640EEC6F020EEF6F580EEE6F26
:105A200061EC27F00D0E0501F76FAF0EF66FB60EA5
:105A3000E82EFED7F62FFCD7F72FFAD700F090EC20
:105A400034F00D0E0501F76FAF0EF66FB60EE82EAF
:105A5000FED7F62FFCD7F72FFAD700F000F0030E91
:105A60000501F76F8A0EF66F550EE82EFED7F62F5A
:105A7000FCD7F72FFAD700D0000E0501ED6F000E0E
:105A8000EC6F020EEF6F580EEE6F61EC27F000F036
:105A90001200000E0501CC6F000ECD6F000ECE6F10
:105AA000000ECF6FC851C911CA11CB11D8B45BEF2A
:105AB0002DF05DEF2DF093EF2DF0010ED06F67EF1D
:105AC0002DF0D890C837C937CA37CB37D02BCBAFDA
:105AD0006CEF2DF06EEF2DF061EF2DF0D890CC37FC
:105AE000CD37CE37CF37C851C45DC951C559CA511A
:105AF000C659CB51C759D8A080EF2DF082EF2DF0B9
:105B00008BEF2DF0C851C45FC951C55BCA51C65B4C
:105B1000CB51C75BCC81D890CB33CA33C933C833A0
:105B2000D02F6EEF2DF0CCC5C4F5CDC5C5F5CEC5D3
:105B3000C6F5CFC5C7F51200000E096E000E0A6E3D
:105B4000000E0B6E000E0C6E0550061007100810AC
:105B5000D8B4ADEF2DF0AFEF2DF0E5EF2DF0010E45
:105B60000D6EB9EF2DF0D89005360636073608369B
:105B70000D2A08AEBEEF2DF0C0EF2DF0B3EF2DF0E3
:105B8000D89009360A360B360C360550015C0650A3
:105B900002580750035808500458D8A0D2EF2DF0EF
:105BA000D4EF2DF0DDEF2DF00550015E0650025AC6
:105BB0000750035A0850045A0980D8900832073217
:105BC000063205320D2EC0EF2DF009C501F50AC5CC
:105BD00002F50BC503F50CC504F512000501F76FBE
:105BE0000501A805D8A4F7EF2DF0F9EF2DF030EF5F
:105BF0002EF0F7513C0D6100CCF388F56100D0F335
:105C000089F588C5C4F589C5C5F5000EC76F640E52
:105C1000C66F9CEC2FF0C4C588F5C5C589F5050194
:105C20008851886F896B5850F619D8A41AEF2EF056
:105C30001CEF2EF03AEF2EF0040EA46122EF2EF0AE
:105C400024EF2EF03AEF2EF088C5ECF589C5EDF57E
:105C5000010EEF6F2C0EEE6F53EC28F03AEF2EF0A2
:105C6000000EED6F000EEC6F010EEF6F2C0EEE6F5D
:105C700053EC28F01200346E0501A805D8A443EFB8
:105C80002EF045EF2EF07DEF2EF034C555F5566A17
:105C900058503318D8A44FEF2EF051EF2EF087EF65
:105CA0002EF05804D8A457EF2EF059EF2EF067EFDE
:105CB0002EF0220E5524296E000E56202A6E010E5B
:105CC0002C6E2C0E2B6E42EC29F087EF2EF05850E4
:105CD000D8A46DEF2EF06FEF2EF07BEF2EF055C5B0
:105CE00029F556C52AF5010E2C6E2C0E2B6E42ECB2
:105CF00029F087EF2EF087EF2EF0000E2A6E000EAF
:105D0000296E020E2C6E580E2B6E42EC29F01200FA
:105D10000501C66F000E0501C56F09EC35F00501E0
:105D2000C46F040EC419D8B498EF2EF09AEF2EF079
:105D3000ABEF2EF0C605D8B4A0EF2EF0A2EF2EF0F8
:105D4000ABEF2EF0040EC619D8A4A9EF2EF0ABEFDE
:105D50002EF0D0EF2EF0010103510501C619F80B0A
:105D6000C6190101036FC2EF2EF001011DA9BBEF9F
:105D70002EF0BDEF2EF0C2EF2EF0020E0501C56F22
:105D8000D2EF2EF00239E832070B0501C619D8A46C
:105D9000CCEF2EF0CEEF2EF0B5EF2EF0D2EF2EF0AE
:105DA000010EC56FC5511200346E0501A805D8A4B7
:105DB000DCEF2EF0DEEF2EF015EF2FF034503C0D1F
:105DC0006100CCF388F56100D0F389F588C501F551
:105DD00089C502F5000E046E640E036E4BEC30F0C4
:105DE00001C588F502C589F505018851886F896B61
:105DF00058503318D8A4FFEF2EF001EF2FF01FEF0B
:105E00002FF0040EA46107EF2FF009EF2FF01FEF22
:105E10002FF088C529F589C52AF5010E2C6E2C0EA8
:105E20002B6ECCEC28F01FEF2FF0000E2A6E000E28
:105E3000296E010E2C6E2C0E2B6ECCEC28F012006D
:105E4000000EBE6E000EBF6E000EC06E080ECA6E53
:105E5000DE0EC66ECC0EC76E070EC86EE70E0401CE
:105E6000106F730E086FFD0E006F000E216F000E95
:105E7000096F000E016F000E116F000E026F000E11
:105E80000A6F180E126F03690B69136904690C69B4
:105E90001469080E246F0F0E0201696F140E706FE3
:105EA0001A0E0A6F370E146F180E096F380E156F21
:105EB0000B0E3D6F460E0D6F130E716F1200E80E44
:105EC0000501C46F6A0EC56F22EC35F0EA0E0501BC
:105ED000C46F6A0EC56F27EC35F0EC0E0501C46F78
:105EE0006A0EC56F2CEC35F0E60E0501C46F6A0E24
:105EF000C56F1DEC35F0E20E0501C46F6A0EC56F6B
:105F000013EC35F0E00E0501C46F6A0EC56F0EECA0
:105F100035F0E40E0501C46F6A0EC56F18EC35F05C
:105F2000AE9C000E01011C6F000E1D6F0A0E1E6F4D
:105F3000FC0E1F6F9E8C1200000E0501C96F000E33
:105F4000C86FC651C711D8B4A8EF2FF0AAEF2FF031
:105F5000D2EF2FF0010ECA6FB2EF2FF0D890C637F4
:105F6000C737CA2BC7AFB7EF2FF0B9EF2FF0AEEF9F
:105F70002FF0D890C837C937C651C45DC751C5592D
:105F8000D8A0C5EF2FF0C7EF2FF0CCEF2FF0C65100
:105F9000C45FC751C55BC881D890C733C633CA2F09
:105FA000B9EF2FF0C8C5C4F5C9C5C5F51200000E7C
:105FB0006F6E020E706E000E716E3D0E726E000EF0
:105FC000736EFE0E746E000E756E000E766E000E11
:105FD000776E000E796E1F0E7A6E000E7B6E1F0EAE
:105FE0007C6E000E7D6EB39CB39E76907692A39EDF
:105FF000A39C000E0501C46F000EC56FEBEC34F0DE
:10600000000E0501C46F000EC56FE6EC34F0000E03
:106010000501C46F000EC56FF0EC34F0800E786E91
:106020001200000E606E020E616E000E626E3D0E7A
:10603000636E000E646EFE0E656E000E666E000EE0
:10604000676E000E686E000E6A6E1F0E6B6E000E9D
:106050006C6E1F0E6D6E000E6E6EB29CB29E6790DF
:106060006792A29EA29C000E0501C46F000EC56F30
:10607000FAEC34F0000E0501C46F000EC56FF5ECAC
:1060800034F0000E0501C46F000EC56FFFEC34F054
:10609000800E696E1200000E066E000E056E035033
:1060A0000410D8B456EF30F058EF30F080EF30F0F5
:1060B000010E076E60EF30F0D89003360436072AE1
:1060C00004AE65EF30F067EF30F05CEF30F0D89061
:1060D000053606360350015C04500258D8A073EF11
:1060E00030F075EF30F07AEF30F00350015E04507D
:1060F000025A0580D89004320332072E67EF30F041
:1061000005C501F506C502F51200000E0501CC6FAC
:10611000000ECD6F000ECE6F000ECF6FC4A193EFB7
:1061200030F095EF30F09DEF30F0C851CC27C951D9
:10613000CD23CA51CE23CB51CF23D890C837C937EE
:10614000CA37CB37D890C733C633C533C433C451ED
:10615000C511C611C711D8A4B0EF30F0B2EF30F0BE
:106160008EEF30F0CCC5C4F5CDC5C5F5CEC5C6F5AE
:10617000CFC5C7F5120015EC33F0D68E47EC32F0E0
:1061800043EC34F07DEC34F087EC34F016EC34F072
:1061900089EC32F0ECEC2CF0DAEC27F0BEB0D3EF67
:1061A00030F0D6EF30F0010ED7EF30F0000EFF0ADE
:1061B0000501FA6FBE50FA19FE0BFA19BE6E0D0EEC
:1061C0000501FB6FAF0EFA6FB60EE82EFED7FA2F61
:1061D000FCD7FB2FFAD700F0CEEF30F00DEF00F038
:1061E000000E096E000E0A6E000E0B6E000E0C6E95
:1061F00001A0FDEF30F0FFEF30F007EF31F0055078
:10620000092606500A2207500B2208500C22D8906B
:106210000536063607360836D89004320332023285
:1062200001320150021003100410D8A41AEF31F00B
:106230001CEF31F0F8EF30F009C501F50AC502F5A1
:106240000BC503F50CC504F512000101018F040E06
:1062500088EC2EF00009D8A430EF31F032EF31F0A5
:1062600052EF31F0000E01014C6F260E4D6F000E03
:106270004E6F000E4F6F600E006F970E016F100E85
:10628000026F73EC34F069EC34F0B3EC33F005ECEE
:1062900034F02CEC33F05FEC2FF0060E88EC2EF08F
:1062A000C79ABF9A120000F05804D8A45AEF31F0F0
:1062B0005CEF31F080EF31F05B04D8A462EF31F095
:1062C00064EF31F069EF31F0010E0501A86F80EF46
:1062D00031F0000E0501A86F000E2A6E000E296E27
:1062E000010E2C6E2C0E2B6ECCEC28F0000E2A6EBC
:1062F000000E296E020E2C6E580E2B6E42EC29F009
:10630000120003C509F504C50AF501C507F502C564
:1063100008F5A0EF31F0610024F4D9F4610028F40D
:10632000DAF4DF500B6E094A0A2A61001CF4D9F432
:10633000610020F4DAF461002CF4DFF4074A082A43
:106340000506D8A00606052806E10628D8A4ABEF66
:1063500031F0ADEF31F08BEF31F01200CE0EF66E72
:106360006A0EF76E000EF86E09006100D4F3FEF5B8
:1063700009006100D4F3FFF501EE00F2550EEE6A5C
:10638000E806FDE101EE60F1640EEE6AE806FDE16B
:1063900001EE55F10B0EEE6AE806FDE10401080E70
:1063A0005D6F000E5E6F000E5F6F0001BBEF30F09F
:1063B000000E256E2550020DFE0EF324D96E050E3B
:1063C000F420DA6EDF50186E22C519F523C51AF5D0
:1063D0002550B8EC29F0246E2450D8B4F2EF31F0F7
:1063E000F4EF31F0F6EF31F0FFEF31F0252A2550D0
:1063F000D8B4FDEF31F0FFEF31F0DAEF31F0245097
:106400001200000E03011F6F000E206F010E216F9E
:10641000850E1D6FEE0E1C6FB1981C51600074FC50
:10642000C6F50501C76BC6C5C7F5C66BC611FC6FBF
:10643000C751FD6FA188D00EC46F6A0EC56FDCEC2A
:1064400034F0310E03011E6F1200036E31EF32F093
:10645000BE8A46EF32F0BE9A46EF32F0BE9A46EF61
:1064600032F00350016E026A0250000AD8B43BEFCA
:1064700032F02EEF32F00150000AD8B42BEF32F098
:10648000010AD8B428EF32F02EEF32F01200010EDC
:1064900095EC23F0C9C576F5CAC577F5020E95ECE3
:1064A00023F0C9C574F5CAC575F5030E95EC23F044
:1064B000C9C572F5CAC573F5040E95EC23F0C9C5BC
:1064C00070F5CAC571F51FEC18F0DDEC1CF0120078
:1064D000010E2DEC24F006C576F507C577F5020E02
:1064E0002DEC24F006C574F507C575F5030E2DECEB
:1064F00024F006C572F507C573F5040E2DEC24F0E3
:1065000006C570F507C571F5F0EC19F0F9EC1DF052
:106510001200C690C784C682C69AC89AC89CC89EF4
:10652000C79A000E0501ED6F000EEC6F010EEF6FC4
:106530002C0EEE6F53EC28F0000E0501ED6F000EEF
:10654000EC6F020EEF6F580EEE6F61EC27F0120049
:106550000501C86F610020F7ECF30301F38FF39D91
:10656000F381F3B1B6EF32F0B8EF32F0B1EF32F0C1
:10657000EB510501C76FC66B0301EA510501C62542
:10658000C46F0301000E0501C721C56F1200B19849
:10659000FCC501F5FDC502F543EC33F005018A4B5E
:1065A0008B2B8B5109E1050E8A5DD8A0DAEF32F012
:1065B000DCEF32F0E0EF32F0000E8B6F000E8A6FEE
:1065C0002EEC2AF01200056E610014F4ECF30301C6
:1065D000F38FF39DF381F3B1F0EF32F0F2EF32F08D
:1065E000EBEF32F0EB51046E036AEA510324016EC3
:1065F000000E0420026E1200B19E05018C4B8D2B03
:106600008D5109E10A0E8C5DD8A009EF33F00BEF34
:1066100033F012EF33F05AEC33F0000E05018D6FBA
:10662000000E8C6F6FEC35F012005DEC35F0F1EC84
:1066300033F071EC33F015EC1FF020EC2FF051EC3F
:1066400034F001EC32F0DDEC33F0D7EC2FF025EC38
:1066500031F011EC30F01200000E0501C46FC4518E
:10666000020DFF0EF324D96E050EF420DA6E000E33
:10667000DF6EC42BC451D8B440EF33F042EF33F097
:106680002FEF33F0120003011EA549EF33F04BEF5B
:1066900033F054EF33F01E9102501D6F610004F48B
:1066A0001CF31E8159EF33F002501D6F610004F49A
:1066B0001CF31200060157515811D8B462EF33F0A1
:1066C00064EF33F070EF33F002D870EF33F0050071
:1066D000FA6E5751FD6E5851FE6EFF6AFA50120065
:1066E0001200040E0201946F800E956F180E966FC3
:1066F000030E9E6F000E9A6F000E9B6F000E976F39
:10670000000E8C6F000E8D6F000E9D6F1200050144
:10671000C451C6036100CCF3C8F56100D0F3C9F5DC
:10672000C451C703F350C927C551C603F350C92745
:10673000C8C5C4F5C9C5C5F51200010160A1A3EF24
:1067400033F0A5EF33F0B2EF33F002D8B2EF33F00D
:106750000500FA6E05019451FD6E9551FE6EFF6ABB
:10676000FA5012001200190E01015C6F040E5D6FE9
:10677000600E5E6F050E5F6FB40E0501C46F6A0E8A
:10678000C56F04EC35F001011E83B298A288120097
:10679000015003026100CCF305F56100D0F306F56A
:1067A00001500402F350062602500302F35006265D
:1067B00005C501F506C502F51200480E03011B6F61
:1067C000610E196F000E186FB19EA18EDC0E0501CF
:1067D000C46F6A0EC56FE1EC34F0800E03011A6FCE
:1067E0001200000E0001606F000E616F000E626FFC
:1067F000000E636F000E646F000E656F000E666F13
:10680000000E676F000E686F12005F0E0101946F3B
:10681000956996699769000E986F000E996F000E42
:106820009A6F000E9B6F810E816F1200000E0501A2
:10683000ED6F000EEC6F000EEF6F320EEE6F53EC4B
:1068400028F0000E0501A46F1200356E5850D8A430
:106850002CEF34F02EEF34F033EF34F0000E336EC3
:1068600035503BEC2EF01200026E02500C0D530E10
:10687000F324D96E010EF420DA6EDF50016E1F0E84
:10688000011601281200640E05017625866F000EA0
:106890007721876F9C0E7425826FFF0E7521836FA1
:1068A0001200700E0001AD6F000EAF6F000EB36FDF
:1068B000020EB16F000EB06F1200016E01500C0D90
:1068C000540EF324D96E010EF420DA6EDF50090B5A
:1068D0001200100E0101506F040E516F610E526FC5
:1068E000050E536F1200010E0101046F010E056FBA
:1068F000060E066F000E076F1200000E0501856F71
:10690000A00E846F070E816F8A0E806F120072C511
:106910007EF573C57FF570C57AF571C57BF51200FC
:1069200072C57CF573C57DF570C578F571C579F5CF
:10693000120068EC32F09AEC2AF053EC31F0000EC1
:106940005B6E1200610010F772F40501C551736EA1
:106950001200610010F77AF40501C5517B6E120038
:10696000610010F763F40501C551646E1200610007
:1069700010F76BF40501C5516C6E12000501C46F70
:10698000610010F7FBF31200610004F463F402509D
:10699000646E1200610004F46BF402506C6E12001D
:1069A000610004F472F40250736E1200610004F48A
:1069B0007AF402507B6E1200C4C555F6C5C556F672
:1069C0001200C4C557F6C5C558F61200C4C567F60F
:1069D000C5C568F61200C4C569F6C5C56AF61200D9
:1069E000C4C565F6C5C566F61200C4C590F5C5C533
:1069F00091F51200C4C592F5C5C593F51200C4C542
:106A00008EF5C5C58FF51200C4C594F5C5C595F5BD
:106A1000120001010239E832070B1200C4C532F638
:106A2000C5C533F61200C4C534F6C5C535F6120027
:106A3000C4C530F6C5C531F61200C4C536F6C5C5A5
:106A400037F61200C4C53CF6C5C53DF61200C4C5F4
:106A50003AF6C5C53BF61200C4C538F6C5C539F6C9
:106A60001200C4C55BF6C5C55CF61200C4C55DF670
:106A7000C5C55EF61200C4C55FF6C5C560F6120056
:106A8000C4C561F6C5C562F61200C4C559F6C5C5D0
:106A90005AF61200C4C563F6C5C564F61200016E4D
:106AA000610004F4FBF312000301F39B12000301E5
:106AB000F39B120028EC20F01200D69A1200788482
:106AC00012006984120069841200788412000100A7
:106AD0001200120012001200120012001200120026
:0E6AE00012001200120012001200120012002A
:020000040020DA
:10000000FF0FFF0FFF0FFF0FFF0FFF0FFF0FFF0F80
:10001000FF0FFF0FFF0FFF0FFF0FFF0FFF0FFF0F70
:020000040030CA
:10000000FAEFF7DF9FFFFFFFFFFFFFFFFFFFFFFF9D
:10001000FFFFFFFFFFFFFFFFFFFFFFFFFFFFFFFFF0
:04002000FFFFFFFFE0
:00000001FF
