:020000040000FA
:040000000DEF00F010
:04000800C8EF36F017
:06001800FF0051EF3EF075
:1026000000228A5883A688EA5BF0706E754E7014BB
:102610008AE88BE48BB686788B808B068A708BAECB
:1026200089647AB0789E89000102030405060708D0
:102630005001526561643A206E6F6E2D766F6C6149
:1026400074696C6520766F6C746167652076616C67
:1026500075652025662C20616E6420766F6C617430
:10266000696C6520766F6C746167652076616C7546
:10267000652025660053657420746865206E6F6E52
:102680002D766F6C6174696C6520766F6C74616710
:102690006520746F203156200A00536574207468D9
:1026A0006520766F6C6174696C6520766F6C7461FF
:1026B000676520746F203256200A00494E46004E4E
:0F26C000414E00696E66006E616E006C66000030
:1026D000000E05017B6F000E7A6F49C58CF54AC567
:1026E0008DF54BC58EF54CC58FF58FBF7CEF13F084
:1026F0007AEF13F092EF13F0000E7B6F010E7A6FFA
:102700008CC501F58DC502F58EC503F58FC504F5A1
:10271000E9EC40F001C58CF502C58DF503C58EF5D9
:1027200004C58FF5000E0501936F000E926F2EC643
:102730007EF52FC67FF57A517B11D8A4A2EF13F056
:10274000A4EF13F0ABEF13F0E7A5A9EF13F0ABEF95
:1027500013F0C5EF13F07A517B11D8A4B2EF13F048
:10276000B4EF13F0BAEF13F0000E616F2B0E606F31
:10277000BEEF13F0000E616F2D0E606F60C500F7A5
:10278000924B932B7E07D8A07F078CC501F58DC592
:1027900002F58EC503F58FC504F51CEC31F001047C
:1027A0000210D8A4D6EF13F0D8EF13F02FEF14F0E7
:1027B000BF0E4E6EFF0E4F6E4D50506E516A4E5012
:1027C00050264F50512251500AE11A0E505CD8A0A9
:1027D000ECEF13F0EFEF13F0010EF0EF13F0000E3B
:1027E0000501626F636B62516311D8B4FAEF13F0A5
:1027F000FCEF13F00AEF14F0000E9225016E070EA5
:102800009321026EBB0E036E260E046E66EC3DF045
:1028100016EF14F0000E9225016E070E9321026E42
:10282000C30E036E260E046E66EC3DF00501FD0E30
:102830007E27FF0E7F2347C511F548C512F5000E10
:10284000136E070E146E7EC515F57FC516F503ECE5
:1028500036F011C547F512C548F5BCEF19F08CC527
:1028600001F58DC502F58EC503F58FC504F51CEC89
:1028700031F001500210D8A440EF14F042EF14F0F0
:1028800099EF14F0BF0E4E6EFF0E4F6E4D50506E0E
:10289000516A4E5050264F50512251500AE11A0EA3
:1028A000505CD8A056EF14F059EF14F0010E5AEF17
:1028B00014F0000E0501646F656B64516511D8B4A6
:1028C00064EF14F066EF14F074EF14F0000E92252C
:1028D000016E070E9321026EBF0E036E260E046E6C
:1028E00066EC3DF080EF14F0000E9225016E070EAD
:1028F0009321026EC70E036E260E046E66EC3DF049
:102900000501FD0E7E27FF0E7F2347C511F548C543
:1029100012F5000E136E070E146E7EC515F57FC5F9
:1029200016F503EC36F011C547F512C548F5BCEFB6
:1029300019F0000E0501946F000E956F800E966FD2
:102940003F0E976F000E916F000E906F8CC501F5D2
:102950008DC502F58EC503F58FC504F5000E056E15
:10296000000E066E000E076E000E086E81EC37F04A
:10297000D8B0BDEF14F0BFEF14F042EF15F0DEEF6A
:1029800014F094C501F595C502F596C503F597C5F4
:1029900004F5000E056E000E066E200E076E410E49
:1029A000086E7EEC1EF001C594F502C595F503C5D1
:1029B00096F504C597F50501904B912B8CC51AF53A
:1029C0008DC51BF58EC51CF58FC51DF5000E056E5A
:1029D000000E066E200E076E410E086E94C501F5BE
:1029E00095C502F596C503F597C504F57EEC1EF076
:1029F00001C51EF502C51FF503C520F504C521F567
:102A00009AEC30F0D8B007EF15F009EF15F0C1EFF0
:102A100014F029EF15F094C51AF595C51BF596C568
:102A20001CF597C51DF5000E1E6E000E1F6E200EC4
:102A3000206E410E216EB2EC22F01AC594F51BC532
:102A400095F51CC596F51DC597F505019007D8A00D
:102A500091078CC51AF58DC51BF58EC51CF58FC564
:102A60001DF594C51EF595C51FF596C520F597C5AE
:102A700021F59AEC30F0D8A040EF15F042EF15F0B8
:102A80000BEF15F04DC507F5086A99EC3DF00750BE
:102A90000501816F81C580F5670E8119D8A453EFB8
:102AA00015F055EF15F07BEF15F0E551E611D8A4C0
:102AB0005CEF15F05EEF15F062EF15F0000EE66FBB
:102AC000010EE56FE6BF6FEF15F0E65106E1E50593
:102AD000D8B06DEF15F06FEF15F075EF15F0000E33
:102AE0007D6F060E7C6F84EF15F0E5C57CF5E6C5BD
:102AF0007DF584EF15F0E6BF80EF15F082EF15F05D
:102B00006FEF15F075EF15F0670E8119D8A48BEFF4
:102B100015F08DEF15F0BCEF15F091AF9BEF15F0B0
:102B2000FC0E905DFF0E9159D8A099EF15F09BEF28
:102B300015F0BAEF15F0FF0E4E6EFF0E4F6E7CC50E
:102B400050F57DC551F54E5050264F5051229051B1
:102B5000505C5150800A526E9151800A5258D8A050
:102B6000B4EF15F0B6EF15F0BAEF15F0660E806F02
:102B7000BCEF15F0650E806F7CC572F57DC573F5F1
:102B8000670E8119D8A4C7EF15F0C9EF15F0D9EF7A
:102B900015F0660E8019D8A4D0EF15F0D2EF15F01D
:102BA000DBEF15F091BFD9EF15F0D7EF15F0DBEFA4
:102BB00015F0724B732B660E8019D8A4E2EF15F056
:102BC000E4EF15F004EF16F091BFEBEF15F0E9EF2D
:102BD00015F0F7EF15F0000E946F000E956F800E54
:102BE000966F3F0E976F000E916F000E906F670EFD
:102BF0008119D8B4FEEF15F000EF16F004EF16F0CF
:102C00009051722791517323000E8B6F000E8A6FC3
:102C10008CC582F58DC583F58EC584F58FC585F588
:102C200094C574F595C575F596C576F597C577F590
:102C300095EF16F082C51AF583C51BF584C51CF502
:102C400085C51DF594C51EF595C51FF596C520F5DE
:102C500097C521F5B2EC22F01AC533F51BC534F542
:102C60001CC535F51DC536F5F4EC28F033C586F5E1
:102C700034C587F535C588F536C589F586C533F57C
:102C800087C534F588C535F589C536F517EC30F0BC
:102C900033C578F534C579F582C51FF583C520F5B0
:102CA00084C521F585C522F594C505F595C506F5BC
:102CB00096C507F597C508F586C501F587C502F5E0
:102CC00088C503F589C504F57EEC1EF001C523F522
:102CD00002C524F503C525F504C526F5B2EC3FF081
:102CE0001FC582F520C583F521C584F522C585F56C
:102CF00094C51AF595C51BF596C51CF597C51DF528
:102D0000000E1E6E000E1F6E200E206E410E216EF4
:102D1000B2EC22F01AC594F51BC595F51CC596F5C5
:102D20001DC597F505018A4B8B2B72518A5D8B511E
:102D3000800A4E6E7351800A4E58D8A0A2EF16F04A
:102D4000A4EF16F01AEF16F094C501F595C502F53B
:102D500096C503F597C504F5000E056E000E066EC8
:102D6000A00E076E400E086E7EEC1EF001C586F5C3
:102D700002C587F503C588F504C589F582C51AF52E
:102D800083C51BF584C51CF585C51DF586C51EF5D7
:102D900087C51FF588C520F589C521F59AEC30F067
:102DA000D8B0D5EF16F0D7EF16F0E2EF16F0000E20
:102DB0000501866F000E876F000E886F000E896F09
:102DC0000BEF17F082C501F583C502F584C503F545
:102DD00085C504F586C505F587C506F588C507F5DB
:102DE00089C508F581EC37F0D8A0F9EF16F0FBEFB4
:102DF00016F00BEF17F0050178B101EF17F003EFB4
:102E000017F00BEF17F0000E866F000E876F000EA5
:102E1000886F000E896F8CC50FF58DC510F58EC5B6
:102E200011F58FC512F586C513F587C514F588C54C
:102E300015F589C516F51EEC1CF00FC582F510C5F9
:102E400083F511C584F512C585F582C51AF583C5CC
:102E50001BF584C51CF585C51DF5000E056E000E1D
:102E6000066E200E076E410E086E74C501F575C51D
:102E700002F576C503F577C504F57EEC1EF001C5B5
:102E80001EF502C51FF503C520F504C521F59AEC12
:102E900030F0D8A04EEF17F050EF17F079EF17F0A1
:102EA0000501904B912B74C501F575C502F576C5EA
:102EB00003F577C504F5000E056E000E066E200EB4
:102EC000076E410E086E7EEC1EF001C574F502C55A
:102ED00075F503C576F504C577F5660E050180190D
:102EE000D8A475EF17F077EF17F079EF17F0724B62
:102EF000732B74C594F575C595F576C596F577C5AC
:102F000097F5650E05018019D8B489EF17F08BEF9E
:102F100017F091EF17F090C570F591C571F595EF29
:102F200017F0000E716F000E706F000E6F6F000EC5
:102F30006E6F000E6D6F000E6C6F000E8B6F000ECB
:102F40008A6F90EF18F082C51AF583C51BF584C50A
:102F50001CF585C51DF594C51EF595C51FF596C5CF
:102F600020F597C521F5B2EC22F01AC533F51BC543
:102F700034F51CC535F51DC536F5F4EC28F033C520
:102F800086F534C587F535C588F536C589F586C516
:102F900033F587C534F588C535F589C536F517ECA1
:102FA00030F033C578F534C579F50501E7B9DBEFC5
:102FB00017F0DDEF17F0FAEF17F078517911D8A478
:102FC000E4EF17F0E6EF17F0FAEF17F0670E81194C
:102FD000D8A4EDEF17F0EFEF17F0FAEF17F071BF8D
:102FE000F6EF17F0F4EF17F0FAEF17F06C4B6D2BCC
:102FF00044EF18F06E516F11D8A401EF18F003EFF1
:1030000018F02DEF18F071BF0AEF18F008EF18F064
:103010002DEF18F0000E9225D96E070E9321DA6E6F
:103020002E0EDF6E924B932B7E07D8A07F07000EEB
:103030006F6F010E6E6F2DEF18F0000E9225D96E96
:10304000070E9321DA6E300EDF6E924B932B7E07C4
:10305000D8A07F076C07D8A06D076C516D11D8A45C
:1030600034EF18F036EF18F01DEF18F0000E92252F
:10307000D96E070E9321DA6E7851300FDF6E924BC6
:10308000932B7E07D8A07F0782C51FF583C520F547
:1030900084C521F585C522F594C505F595C506F5C8
:1030A00096C507F597C508F586C501F587C502F5EC
:1030B00088C503F589C504F57EEC1EF001C523F52E
:1030C00002C524F503C525F504C526F5B2EC3FF08D
:1030D0001FC582F520C583F521C584F522C585F578
:1030E00094C51AF595C51BF596C51CF597C51DF534
:1030F000000E1E6E000E1F6E200E206E410E216E01
:10310000B2EC22F01AC594F51BC595F51CC596F5D1
:103110001DC597F505017007D8A071078A4B8B2B49
:1031200072518A5D8B51800A4E6E7351800A4E58DF
:10313000D8B09DEF18F09FEF18F0ADEF18F093BFE7
:10314000ABEF18F0935109E14B0E925DD8A0ABEFB5
:1031500018F0ADEF18F0A3EF17F06E516F11D8A46F
:10316000B4EF18F0B6EF18F0C7EF18F0E7A9BBEF0F
:1031700018F0BDEF18F0C7EF18F0000E9225D96EC9
:10318000070E9321DA6E2E0EDF6E924B932B000EFC
:103190009225D96E070E9321DA6E000EDF6E650E52
:1031A0008019D8A4D6EF18F0D8EF18F0AAEF19F0CC
:1031B000000E8B6F4F0E8A6F000E8A25D96E070E98
:1031C0008B21DA6E000EDF6E000E7B6F000E7A6FC1
:1031D00091BFEFEF18F0EDEF18F0F7EF18F0000ED9
:1031E0007B6F010E7A6F906D911FD8B0912B000EFE
:1031F0007D6F020E7C6F28EF19F08A07D8A08B072D
:10320000000E8A25D96E070E8B21DA6E90C501F566
:1032100091C502F5000E046E0A0E036E29EC37F01C
:103220000150300FDF6E90C507F591C508F5000E0F
:103230000A6E0A0E096E66EC36F007C590F508C5F1
:1032400091F505017C07D8A07D077E07D8A07F07F0
:1032500090519111D8A42FEF19F031EF19F0FDEF33
:1032600018F07DBF3EEF19F07D5106E17C05D8B026
:103270003CEF19F03EEF19F0FDEF18F08A07D8A0E7
:103280008B077A517B11D8A448EF19F04AEF19F057
:1032900050EF19F0000E676F2B0E666F54EF19F0A8
:1032A000000E676F2D0E666F000E8A25D96E070E11
:1032B0008B21DA6E610098F5DFF47E07D8A07F07D6
:1032C0008A07D8A08B07BF0E4E6EFF0E4F6E4D5073
:1032D000506E516A4E5050264F50512251500AE1C3
:1032E0001A0E505CD8A077EF19F07AEF19F0010EA2
:1032F0007BEF19F0000E6A6F6B6B6A516B11D8A4EB
:1033000084EF19F086EF19F08CEF19F0000E696F59
:10331000650E686F90EF19F0000E696F450E686FCB
:10332000000E8A25D96E070E8B21DA6E6100A0F59A
:10333000DFF47E07D8A07F07000E9225016E070EEE
:103340009321026E000E8A25036E070E8B21046EF8
:1033500066EC3DF047C511F548C512F5000E136E39
:10336000070E146E7EC515F57FC516F503EC36F015
:1033700011C547F512C548F5120006019B51800B97
:10338000A46F9B519B25A66F9AAFC9EF19F0CBEFA5
:1033900019F0CCEF19F0A681A651D8B4D2EF19F0EC
:1033A000D4EF19F0E9EF19F0A629D8A4DAEF19F053
:1033B000DCEF19F0E4EF19F0000E986F000E996F32
:1033C000000E9A6F000E9B6F9A8F000E9B6FF1EFAD
:1033D00019F0000E986F000E996F000E9A6F000E94
:1033E0009B6F9F51800BA56FA451A519D8B4FBEF1B
:1033F00019F0FDEF19F0FEEF19F0A48D9F519F25F4
:10340000A56F9EAF06EF1AF008EF1AF009EF1AF059
:10341000A581A551D8B40FEF1AF011EF1AF026EFDD
:103420001AF0A529D8A417EF1AF019EF1AF021EF16
:103430001AF0000E9C6F000E9D6F000E9E6F000E26
:103440009F6F9E8F000E9F6F2EEF1AF0000E9C6FE5
:10345000000E9D6F000E9E6F000E9F6FA651A55D22
:10346000D8B035EF1AF037EF1AF05EEF1AF0A4ADCE
:103470003CEF1AF03EEF1AF040EF1AF0800EA41B5A
:10348000A6C6A7F6A5C6A6F6A7C6A5F698C6A7F629
:103490009CC698F6A7C69CF699C6A7F69DC699F64F
:1034A000A7C69DF69AC6A7F69EC69AF6A7C69EF62A
:1034B0009BC6A7F69FC69BF6A7C69FF6000EA76FF2
:1034C000A651A5C6A0F6A16BA05F000EA15BA1BF8F
:1034D00073EF1AF0A15109E11A0EA05DD8A073EFA5
:1034E0001AF075EF1AF0ACEF1AF0985199119A1181
:1034F0009B11D8A47EEF1AF081EF1AF0010E82EF33
:103500001AF0000EA76F000E986F000E996F000E54
:103510009A6F000E9B6FA5C6A6F6B5EF1AF0A7A18D
:1035200094EF1AF096EF1AF09CEF1AF0D890A731AA
:103530000109A76F9EEF1AF0D890A73398A1A3EFC7
:103540001AF0A5EF1AF0A6EF1AF0A78F9B359B3360
:103550009A3399339833A62BA551A65DD8A0B3EF23
:103560001AF0B5EF1AF08FEF1AF0A4BDBAEF1AF007
:10357000BCEF1AF0FCEF1AF0A651D8A4C2EF1AF073
:10358000C4EF1AF0CEEF1AF0000E986F000E996F8C
:10359000000E9A6F000E9B6F1DEF1CF09C51982738
:1035A0009D5199239E519A239F519B239BA1DBEF11
:1035B0001AF0DDEF1AF089EF1BF0A7A1E2EF1AF085
:1035C000E4EF1AF0EAEF1AF0D890A7310109A76FDB
:1035D000ECEF1AF0D890A73398A1F1EF1AF0F3EFBF
:1035E0001AF0F4EF1AF0A78F9B359B339A33993377
:1035F0009833A62B89EF1BF09C51985D9D519959EA
:103600009E519A599B51800AA06F9F51800AA059E0
:10361000D8B00DEF1BF00FEF1BF03AEF1BF09851F5
:103620009C5DA06F99519D59A16F9A519E59A26FAF
:103630009B519F59A36FFF0EA025986FFF0EA121EC
:10364000996FFF0EA2219A6FFF0EA3219B6F800E30
:10365000A41BA76DA751D8A430EF1BF032EF1BF0CD
:1036600042EF1BF0010E9827000E99239A239B230B
:1036700042EF1BF09C51985F9D51995B9E519A5B64
:103680009F519B5B985199119A119B11D8A44BEFB4
:103690001BF04DEF1BF082EF1BF0A751D8A453EFA6
:1036A0001BF055EF1BF082EF1BF0000E986F000E21
:1036B000996F000E9A6F000E9B6F1DEF1CF0D89053
:1036C000983799379A379B37A7AF69EF1BF06BEFA5
:1036D0001BF06CEF1BF09881A7A171EF1BF073EF4B
:1036E0001BF077EF1BF0D880A73779EF1BF0D8904D
:1036F000A737A651D8B47FEF1BF081EF1BF082EF04
:103700001BF0A6079AAF87EF1BF089EF1BF05FEF66
:103710001BF0000EA56FA7AF90EF1BF092EF1BF010
:10372000AAEF1BF0A7C6A0F67F0EA017D8B49BEF98
:103730001BF09DEF1BF0A1EF1BF0010EA56FAAEF90
:103740001BF098A1A6EF1BF0A8EF1BF0AAEF1BF04F
:103750009DEF1BF0A551D8B4B0EF1BF0B2EF1BF0FA
:10376000DDEF1BF0010E9827000E99239A239B236F
:103770009BA1BDEF1BF0BFEF1BF0DDEF1BF098C668
:10378000A0F699C6A1F69AC6A2F69BC6A3F6A335E3
:10379000A333A233A133A033A0C698F6A1C699F6ED
:1037A000A2C69AF6A3C69BF6A629D8B4DAEF1BF0F8
:1037B000DCEF1BF0DDEF1BF0A62BA629D8B4E3EF5E
:1037C0001BF0E5EF1BF0EDEF1BF0A651D8A4EBEFDB
:1037D0001BF0EDEF1BF0FFEF1BF0000E986F000EDB
:1037E000996F000E9A6F000E9B6FA651D8A4FBEF45
:1037F0001BF0FDEF1BF0FFEF1BF0000EA46FA6A166
:1038000004EF1CF006EF1CF009EF1CF09A8F0AEF92
:103810001CF09A9FD890A6319B6FA4AF12EF1CF0BA
:1038200014EF1CF015EF1CF09B8F98C698F699C604
:1038300099F69AC69AF69BC69BF612001250800B18
:103840001B6E125012241D6E11AE29EF1CF02BEFCF
:103850001CF02CEF1CF01D801D50D8B432EF1CF072
:1038600034EF1CF049EF1CF01D28D8A43AEF1CF0EF
:103870003CEF1CF044EF1CF0000E0F6E000E106EBB
:10388000000E116E000E126E118E000E126E51EFB0
:103890001CF0000E0F6E000E106E000E116E000E6A
:1038A000126E1650800B1C6E1B501C18D8B45BEFA8
:1038B0001CF05DEF1CF05EEF1CF01B8C1650162404
:1038C0001C6E15AE66EF1CF068EF1CF069EF1CF083
:1038D0001C801C50D8B46FEF1CF071EF1CF086EF09
:1038E0001CF01C28D8A477EF1CF079EF1CF081EFB6
:1038F0001CF0000E136E000E146E000E156E000EFE
:10390000166E158E000E166E8EEF1CF0000E136EE6
:10391000000E146E000E156E000E166E1D501C5C0F
:10392000D8B095EF1CF097EF1CF0BEEF1CF01BAC6D
:103930009CEF1CF09EEF1CF0A0EF1CF0800E1B1AF9
:103940001DC51EF51CC51DF51EC51CF50FC51EF5B4
:1039500013C50FF51EC513F510C51EF514C510F5DA
:103960001EC514F511C51EF515C511F51EC515F5B5
:1039700012C51EF516C512F51EC516F5000E1E6EF3
:103980001D501CC517F5186A175E000E185A18BE90
:10399000D3EF1CF0185009E11A0E175CD8A0D3EF32
:1039A0001CF0D5EF1CF00CEF1DF00F501010111093
:1039B0001210D8A4DEEF1CF0E1EF1CF0010EE2EFD4
:1039C0001CF0000E1E6E000E0F6E000E106E000E2C
:1039D000116E000E126E1CC51DF515EF1DF01EA018
:1039E000F4EF1CF0F6EF1CF0FCEF1CF0D8901E304A
:1039F00001091E6EFEEF1CF0D8901E320FA003EFDF
:103A00001DF005EF1DF006EF1DF01E8E1234123270
:103A1000113210320F321D2A1C501D5CD8A013EF3A
:103A20001DF015EF1DF0EFEF1CF01BBC1AEF1DF0A1
:103A30001CEF1DF05CEF1DF01D50D8A422EF1DF00F
:103A400024EF1DF02EEF1DF0000E0F6E000E106E15
:103A5000000E116E000E126E7DEF1EF013500F2639
:103A600014501022155011221650122212A03BEFB2
:103A70001DF03DEF1DF0E9EF1DF01EA042EF1DF01F
:103A800044EF1DF04AEF1DF0D8901E3001091E6E64
:103A90004CEF1DF0D8901E320FA051EF1DF053EFE8
:103AA0001DF054EF1DF01E8E1234123211321032FE
:103AB0000F321D2AE9EF1DF013500F5C14501058FF
:103AC000155011581250800A176E1650800A175858
:103AD000D8B06DEF1DF06FEF1DF09AEF1DF00F5095
:103AE000135C176E10501458186E11501558196E3B
:103AF000125016581A6EFF0E17240F6EFF0E182064
:103B0000106EFF0E1920116EFF0E1A20126E800E1D
:103B10001B1A1E6C1E50D8A490EF1DF092EF1DF0E2
:103B2000A2EF1DF0010E0F26000E1022112212220C
:103B3000A2EF1DF013500F5E1450105A1550115A79
:103B40001650125A0F50101011101210D8A4ABEFCB
:103B50001DF0ADEF1DF0E2EF1DF01E50D8A4B3EF45
:103B60001DF0B5EF1DF0E2EF1DF0000E0F6E000E20
:103B7000106E000E116E000E126E7DEF1EF0D890CA
:103B80000F361036113612361EAEC9EF1DF0CBEFD0
:103B90001DF0CCEF1DF00F801EA0D1EF1DF0D3EF74
:103BA0001DF0D7EF1DF0D8801E36D9EF1DF0D8904C
:103BB0001E361D50D8B4DFEF1DF0E1EF1DF0E2EF2F
:103BC0001DF01D0611AEE7EF1DF0E9EF1DF0BFEF90
:103BD0001DF0000E1C6E1EAEF0EF1DF0F2EF1DF09A
:103BE0000AEF1EF01EC517F57F0E1716D8B4FBEFAF
:103BF0001DF0FDEF1DF001EF1EF0010E1C6E0AEF2F
:103C00001EF00FA006EF1EF008EF1EF00AEF1EF0E8
:103C1000FDEF1DF01C50D8B410EF1EF012EF1EF097
:103C20003DEF1EF0010E0F26000E1022112212226F
:103C300012A01DEF1EF01FEF1EF03DEF1EF00FC58E
:103C400017F510C518F511C519F512C51AF51A346E
:103C50001A3219321832173217C50FF518C510F578
:103C600019C511F51AC512F51D28D8B43AEF1EF082
:103C70003CEF1EF03DEF1EF01D2A1D28D8B443EF87
:103C80001EF045EF1EF04DEF1EF01D50D8A44BEF77
:103C90001EF04DEF1EF05FEF1EF0000E0F6E000ED7
:103CA000106E000E116E000E126E1D50D8A45BEF48
:103CB0001EF05DEF1EF05FEF1EF0000E1B6E1DA0EC
:103CC00064EF1EF066EF1EF069EF1EF0118E6AEFD2
:103CD0001EF0119ED8901D30126E1BAE72EF1EF0BA
:103CE00074EF1EF075EF1EF0128E0FC50FF510C5A4
:103CF00010F511C511F512C512F512000450800B14
:103D00000D6E04500424136E03AE89EF1EF08BEF8A
:103D10001EF08CEF1EF013801350D8B492EF1EF0FB
:103D200094EF1EF0A7EF1EF01328D8A49AEF1EF010
:103D30009CEF1EF0A4EF1EF0000E016E000E026E4E
:103D4000000E036E000E046E038EAFEF1EF0000E29
:103D5000016E000E026E000E036E000E046E08501F
:103D6000800B0D1A08500824126E07AEBAEF1EF031
:103D7000BCEF1EF0BDEF1EF012801250D8B4C3EF9E
:103D80001EF0C5EF1EF0D8EF1EF01228D8A4CBEF1E
:103D90001EF0CDEF1EF0D5EF1EF0000E056E000EEA
:103DA000066E000E076E000E086E078EE0EF1EF026
:103DB000000E056E000E066E000E076E000E086EF9
:103DC0001250D8B4E6EF1EF0E8EF1EF0F0EF1EF050
:103DD0001350D8A4EEEF1EF0F0EF1EF0FAEF1EF035
:103DE000000E016E000E026E000E036E000E046ED9
:103DF000A4EF20F0075001026100CCF318F5610038
:103E0000D0F319F518500E6E0F6A106A116A195026
:103E1000146E156A166A176A065002026100CCF326
:103E200018F56100D0F319F518500E26000E0F2278
:103E30001022112219501426000E152216221722C4
:103E4000055003026100CCF318F56100D0F319F5B9
:103E500018500E26000E0F2210221122195014267F
:103E6000000E15221622172210C511F50FC510F5E8
:103E70000EC50FF50E6A055002026100CCF318F56D
:103E80006100D0F319F518500E2619500F22000EBC
:103E90001022000E1122065001026100CCF318F529
:103EA0006100D0F319F518500E2619500F22000E9C
:103EB0001022000E112210C511F50FC510F50EC508
:103EC0000FF50E6A055001026100CCF318F5610090
:103ED000D0F319F518500E2619500F22000E10229B
:103EE000000E1122075002026100CCF318F56100A8
:103EF000D0F319F51850142619501522000E162269
:103F0000000E1722065003026100CCF318F5610081
:103F1000D0F319F51850142619501522000E162248
:103F2000000E1722075003026100CCF318F5610060
:103F3000D0F319F51850096E19500A6E0B6A0C6A05
:103F40000BC50CF50AC50BF509C50AF5096A095038
:103F500014260A5015220B5016220C5017220EC59B
:103F600009F50FC50AF510C50BF511C50CF5190EAD
:103F7000BFEF1FF0D8900C320B320A320932E82E14
:103F8000BAEF1FF0095014260A5015220B501622C2
:103F90000C50172210C511F50FC510F50EC50FF501
:103FA0000E6A125013C509F50A6A0926000E0A2284
:103FB000820E0924186EFF0E0A20196EF5EF1FF00D
:103FC000D890143615361636173611AEEAEF1FF0B4
:103FD000ECEF1FF0EDEF1FF01480D8900E360F3687
:103FE000103611361806D8A0190616AEFAEF1FF0D3
:103FF000FCEF1FF0E0EF1FF0000E126E11AE03EFAA
:1040000020F005EF20F029EF20F0FF0E0E14096ECE
:10401000FF0E0F140A6EFF0E10140B6E7F0E11149C
:104020000C6E09500A100B100C10D8B41AEF20F0C7
:104030001CEF20F020EF20F0010E126E29EF20F08F
:1040400014A025EF20F027EF20F029EF20F01CEF3F
:1040500020F01250D8B42FEF20F031EF20F055EFC0
:1040600020F0010E1426000E15221622172217A08A
:104070003CEF20F03EEF20F055EF20F014C509F59D
:1040800015C50AF516C50BF517C50CF50C340C3221
:104090000B320A32093209C514F50AC515F50BC5EC
:1040A00016F50CC517F5184A192A19BE60EF20F04D
:1040B000195008E11828D8A060EF20F062EF20F036
:1040C0006CEF20F0000E146E000E156E800E166E52
:1040D0007F0E176E9AEF20F019BE79EF20F019507D
:1040E00006E11804D8B077EF20F079EF20F085EFE3
:1040F00020F0000E146E000E156E000E166E000EEF
:10410000176E000E0D6E9AEF20F018C513F5FF0E16
:104110001416FF0E15167F0E1616000E171613A096
:1041200094EF20F096EF20F097EF20F0168ED890C5
:104130001330176E0D50171214C501F515C502F591
:1041400016C503F517C504F51200610054F5D9F43E
:10415000610058F5DAF4DEC4F6F4DDC4F7F4F86A69
:104160000800F550250AD8A4B8EF20F0BAEF20F0E7
:1041700091EF22F0610054F5D9F4610058F5DAF4BA
:10418000DE2A000EDD22000E06012F6F000E2E6FBC
:104190002EC6E7F52FC6E8F50501E569E669610079
:1041A00054F5D9F4610058F5DAF4DEC4F6F4DDC450
:1041B000F7F4F86A0800F550076E086A99EC3DF0CC
:1041C000075005019E6F9E51D8B4E9EF20F0EBEF48
:1041D00020F033EF21F0610054F5D9F4610058F577
:1041E000DAF4610078F359F5610074F35AF5010EC1
:1041F0005926000E5A22610064F5F6F4610068F554
:10420000F7F4F86A0800F550076E086A99EC3DF07B
:10421000075005019F6F9F51D8B411EF21F013EFA4
:1042200021F033EF21F0610054F5D9F4610058F525
:10423000DAF4610078F359F5610074F35AF5020E6F
:104240005926000E5A22610064F5F6F4610068F503
:10425000F7F4F86A0800F550076E086A99EC3DF02B
:1042600007500501A06F660E9E19D8A43AEF21F001
:104270003CEF21F08CEF21F0610054F5D9F461009E
:1042800058F5DAF4DEC4F6F4DDC4F7F4F86A080091
:104290006100D4F3A1F5610054F5D9F4610058F53B
:1042A000DAF4DE2A000EDD2261005CF5D9F461004B
:1042B00060F5DAF461007CF359F5040EDE26610046
:1042C0007CF35AF5000EDD22610064F5D9F461003B
:1042D00068F5DAF4610078F39AF5610078F39BF5FC
:1042E000610078F39CF5610078F39DF553C547F5BF
:1042F00054C548F59AC549F59BC54AF59CC54BF58B
:104300009DC54CF5A1C54DF568EC13F047C553F5B7
:1043100048C554F5B1EF22F09E0E016E050E026EF7
:10432000CB0E036E260E046E000E066E020E056E98
:104330009BEC31F001500210D8A4A1EF21F0A3EFC3
:1043400021F054EF22F0610054F5D9F4610058F5E2
:10435000DAF4610078F359F5610074F35AF5010E4F
:104360005926000E5A22610064F5F6F4610068F5E2
:10437000F7F4F86A08006100D4F3A1F5BF0E596E96
:10438000FF0E5A6E610054F5D9F4610058F5DAF465
:10439000DEC4F6F4DDC4F7F4F86A0800F5505B6E8D
:1043A0005C6A59505B265A505C225C500AE11A0E36
:1043B0005B5CD8A0DEEF21F0E1EF21F0010EE2EF2F
:1043C00021F0000E0501986F996B98519911D8B49E
:1043D000ECEF21F0EEEF21F012EF22F061005CF53E
:1043E000D9F4610060F5DAF461007CF359F5040E4C
:1043F000DE2661007CF35AF5000EDD22610064F5D3
:10440000D9F4610068F5DAF4610078F39AF5610097
:1044100078F39BF5610078F39CF5610078F39DF5E6
:1044200034EF22F061005CF5D9F4610060F5DAF454
:1044300061007CF359F5040EDE2661007CF35AF529
:10444000000EDD22610064F5D9F4610068F5DAF44C
:10445000610078F39AF5610078F39BF5610078F3D9
:104460009CF5610078F39DF5020E610054F5D9F4D6
:10447000610058F5DAF4DE26000EDD2253C547F55B
:1044800054C548F59AC549F59BC54AF59CC54BF5F9
:104490009DC54CF5A1C54DF568EC13F047C553F526
:1044A00048C554F5B1EF22F0610054F5D9F461002C
:1044B00058F5DAF4DEC4F6F4DDC4F7F4F86A08005F
:1044C000F550250AD8A467EF22F069EF22F082EFB9
:1044D00022F0610054F5D9F4610058F5DAF4DE2ACF
:1044E000000EDD22000E026E250E016E53C503F58F
:1044F00054C504F513EC39F0000E546E010E536EE2
:10450000B1EF22F0610054F5D9F4610058F5DAF406
:10451000DE2A000EDD22000E546E000E536EB1EF47
:1045200022F0610054F5D9F4610058F5DAF4DEC4E4
:10453000F6F4DDC4F7F4F86A0800F550016E026A7B
:1045400053C503F554C504F513EC39F0610054F577
:10455000D9F4610058F5DAF4DE2A000EDD227CEF92
:1045600022F012001D50800B2A6E1D501D24316E4A
:104570001CAEBDEF22F0BFEF22F0C0EF22F0318081
:104580003150D8B4C6EF22F0C8EF22F0DDEF22F0B0
:104590003128D8A4CEEF22F0D0EF22F0D8EF22F0CD
:1045A000000E1A6E000E1B6E000E1C6E000E1D6EAD
:1045B0001C8E000E1D6EE5EF22F0000E1A6E000E2E
:1045C0001B6E000E1C6E000E1D6E2150800B2A1AF1
:1045D00021502124326E20AEF0EF22F0F2EF22F0D3
:1045E000F3EF22F032803250D8B4F9EF22F0FBEF33
:1045F00022F010EF23F03228D8A401EF23F003EFCC
:1046000023F00BEF23F0000E1E6E000E1F6E000E47
:10461000206E000E216E208E000E216E18EF23F00A
:10462000000E1E6E000E1F6E000E206E000E216E1C
:104630001E501F1020102110D8A421EF23F023EFCB
:1046400023F03BEF23F0000E1A6E000E1B6E000EDF
:104650001C6E000E1D6E800E1C127F0E1D122A5045
:104660001D121AC51AF51BC51BF51CC51CF51DC569
:104670001DF57EEF24F03150D8A441EF23F043EF35
:1046800023F04DEF23F0000E1A6E000E1B6E000E8D
:104690001C6E000E1D6E7EEF24F0325031C522F5E7
:1046A000236A225E000E235A7F0E22242B6E000EF8
:1046B00023202C6E1AC526F51BC527F51CC528F529
:1046C0001DC529F5000E1A6E000E1B6E000E1C6E25
:1046D000000E1D6E000E2D6E000E2E6E000E2F6E43
:1046E000000E306E000E326EAEEF23F03250D8B4B2
:1046F0007CEF23F07EEF23F095EF23F0D890263661
:10470000273628362936D8901A361B361C361D36E1
:1047100030AE8DEF23F08FEF23F090EF23F01A806F
:10472000D8902D362E362F3630361E50265C1F5030
:1047300027582050285821502958D8A0A2EF23F0FC
:10474000A4EF23F0ADEF23F0308C1E50265E1F50F7
:10475000275A2050285A2150295A322A190E3264D9
:10476000B4EF23F0B6EF23F076EF23F026502710B6
:1047700028102910D8B4BFEF23F0C1EF23F0D9EFF0
:1047800023F02D80D9EF23F0D8901A361B361C3633
:104790001D3630AECEEF23F0D0EF23F0D1EF23F073
:1047A0001A80D8902D362E362F3630362B06D8A0CC
:1047B0002C061CAEDEEF23F0E0EF23F0C4EF23F075
:1047C000000E326E30AEE7EF23F0E9EF23F00DEF8D
:1047D00024F0FF0E2D14226EFF0E2E14236EFF0EFA
:1047E0002F14246E7F0E3014256E225023102410B7
:1047F0002510D8B4FEEF23F000EF24F004EF24F0EE
:10480000010E326E0DEF24F01AA009EF24F00BEF29
:1048100024F00DEF24F000EF24F03250D8B413EF61
:1048200024F015EF24F039EF24F0010E1A26000EC3
:104830001B221C221D221DA020EF24F022EF24F0B9
:1048400039EF24F01AC522F51BC523F51CC524F544
:104850001DC525F52534253224322332223222C5C6
:104860001AF523C51BF524C51CF525C51DF52B4AD6
:104870002C2A2CBE44EF24F02C5008E12B28D8A081
:1048800044EF24F046EF24F051EF24F0000E2C6E9C
:104890002B68000E1A6E000E1B6E000E1C6E000EB2
:1048A0001D6E2CBE5EEF24F02C5006E12B04D8B018
:1048B0005CEF24F05EEF24F06CEF24F0000E2C6E21
:1048C000000E2B6E000E1A6E000E1B6E000E1C6E7C
:1048D000000E1D6E000E2A6E2BC531F531A073EF50
:1048E00024F075EF24F078EF24F01C8E79EF24F09B
:1048F0001C9ED89031301D6E2FEF23F01200610006
:1049000038F4D9F461003CF4DAF4610078F314F57A
:10491000610078F315F5610078F316F5610078F31E
:1049200017F520EE04F00E50D9260F50DA22DFA042
:104930009CEF24F09EEF24F0D8EF24F020EE01F05D
:104940000C50D9260D50DA221438E842F80BF80B37
:10495000DF6E050E106ED8901732163215321432F3
:10496000102EABEF24F020EE02F00C50D9260D50A3
:10497000DA22610050F4DFF415C514F516C515F5FB
:1049800017C516F5176A20EE03F00C50D9260D5006
:10499000DA2214501F0BDF6E050E106ED8901732FE
:1049A000163215321432102ECEEF24F0F0EF24F030
:1049B00020EE03F00C50D9260D50DA22000EDF6EE7
:1049C00010EE02F00C50E1260D50E222DFC4E7F4B5
:1049D00020EE01F00C50D9260D50DA22E7C4DFF4A6
:1049E000610030F4D9F4610034F4DAF4610050F479
:1049F000DFF415C514F516C515F517C516F5176AB4
:104A000014C510F5070E101620EE01F00C50D92633
:104A10000D50DA221050DF1220EE04F00E50D9268D
:104A20000F50DA22DF30E8320F0B136E20EE04F065
:104A30000E50D9260F50DA22DFB021EF25F025EFF6
:104A400025F0106A102A26EF25F0106A1038F00BB6
:104A5000131220EE04F00E50D9260F50DA22DFB2E6
:104A600034EF25F038EF25F0200E106E39EF25F0E9
:104A7000106A1050131220EE04F00E50D9260F5079
:104A8000DA22DFBE46EF25F04AEF25F0400E106E29
:104A90004BEF25F0106A1050131220EE04F00E5068
:104AA000D9260F50DA22DFBC58EF25F05CEF25F055
:104AB000800E106E5DEF25F0106A1050131220EE7C
:104AC00004F00C50D9260D50DA2261004CF4DFF4CA
:104AD00020EE04F00E50D9260F50DA22DFB273EF29
:104AE00025F075EF25F0A1EF25F0080E0C24016EDE
:104AF000000E0D20026E20EE05F00E50D9260F504C
:104B0000DA22610078F303F5610074F304F520EE16
:104B100004F00E50D9260F50DA22DF30E8320F0BA6
:104B2000106E116A270E1024F66E260E1120F76EF5
:104B3000F86A000EF8220800F550056E066A24ECAB
:104B40003EF0120020EE04F00C50D9260D50DA226F
:104B5000DF50176E17C510F520EE04F00E50D92661
:104B60000F50DA2210461046DF501018C30B1018F1
:104B7000DF6E17B8BEEF25F0C2EF25F0106A102ADD
:104B8000C3EF25F0106A20EE04F00E50D9260F5026
:104B9000DA22DF501018FE0B1018DF6E17BAD3EFB1
:104BA00025F0D7EF25F0106A102AD8EF25F0106A0B
:104BB00020EE04F00E50D9260F50DA221046DF50B6
:104BC0001018FD0B1018DF6E17BCE9EF25F0EDEFA4
:104BD00025F0106A102AEEEF25F0106A20EE04F09E
:104BE0000E50D9260F50DA2210321032DF50101832
:104BF0007F0B1018DF6E17BE00EF26F004EF26F0D3
:104C0000106A102A05EF26F0106A20EE04F00E500C
:104C1000D9260F50DA22103A10461046DF501018ED
:104C2000BF0B1018DF6E20EE01F00C50D9260D508E
:104C3000DA22DF50106E070E10161050136E146A31
:104C4000156A166A15C516F514C515F513C514F5BC
:104C5000136A610030F4D9F4610034F4DAF4DF50FF
:104C6000106E1050131220EE04F00E50D9260F5083
:104C7000DA22DFA03EEF26F040EF26F081EF26F0AB
:104C8000050ED8901336143615361636E82E41EF39
:104C900026F020EE03F00C50D9260D50DA22DF501A
:104CA000106E1F0E10161050131215C516F514C5F0
:104CB00015F513C514F5136A20EE02F00C50D92631
:104CC0000D50DA22DF50106E10501312050ED890DE
:104CD0001336143615361636E82E67EF26F020EE1A
:104CE00001F00C50D9260D50DA22DF50106ED8900A
:104CF0001032D8901032D89010321F0E101610506B
:104D00001312610038F4D9F461003CF4DAF4610064
:104D10004CF4DEF4610050F4DEF4610054F4DEF48F
:104D2000610058F4DEF46C0E016E060E026E080E81
:104D30000C24036E000E0D20046E20EE04F00E50C5
:104D4000D9260F50DA22DF30E8320F0B106E116ACD
:104D5000270E1024F66E260E1120F76EF86A000E4C
:104D6000F8220800F550056E066A24EC3EF020EEAD
:104D700005F00E50D9260F50DA226C0EDE6E060EAC
:104D8000DD6E1200000E0501C06F000EC16F800EB7
:104D9000C26F3F0EC36F000E1E6E000E1F6EA00E80
:104DA000206E400E216E000E056E000E066E800E07
:104DB000076E450E086EC0C501F5C1C502F5C2C536
:104DC00003F5C3C504F57EEC1EF001C51AF502C556
:104DD0001BF503C51CF504C51DF5B2EC22F01AC580
:104DE00033F51BC534F51CC535F51DC536F517EC77
:104DF00030F033C5C6F534C5C7F5C6C51AF5C7C505
:104E00001BF5B4EC44F0750E0501A86F260EA96FD2
:104E100047EC43F0020E0501B76F450EB66FA90EC1
:104E2000E82EFED7B62FFCD7B72FFAD700D0000E4A
:104E30000501C06F000EC16F000EC26F400EC36F40
:104E4000000E1E6E000E1F6EA00E206E400E216E14
:104E5000000E056E000E066E800E076E450E086E83
:104E6000C0C501F5C1C502F5C2C503F5C3C504F54A
:104E70007EEC1EF001C51AF502C51BF503C51CF535
:104E800004C51DF5B2EC22F01AC533F51BC534F587
:104E90001CC535F51DC536F517EC30F033C5C4F526
:104EA00034C5C5F5C4C519F5C5C51AF5C7EC44F038
:104EB000020E0501B76F450EB66FA90EE82EFED79C
:104EC000B62FFCD7B72FFAD700D09A0E0501A86FDE
:104ED000260EA96F47EC43F0C60E1B6E050E1C6E26
:104EE000D6EC37F01BC5C4F51CC5C5F5C4C501F526
:104EF000C5C502F5036A046A000EDBEC2BF001C5A0
:104F00001AF502C51BF503C51CF504C51DF5CD0E2C
:104F10001E6ECC0E1F6E4C0E206E440E216EB2EC37
:104F200022F01AC5B8F51BC5B9F51CC5BAF51DC5E3
:104F3000BBF5C6C501F5C7C502F5036A046A000ED4
:104F4000DBEC2BF001C51AF502C51BF503C51CF5FA
:104F500004C51DF5CD0E1E6ECC0E1F6E4C0E206EC0
:104F6000440E216EB2EC22F01AC5BCF51BC5BDF58E
:104F70001CC5BEF51DC5BFF5320E0501A86F260E76
:104F8000A96FBCC5AAF5BDC5ABF5BEC5ACF5BFC51F
:104F9000ADF5B8C5AEF5B9C5AFF5BAC5B0F5BBC589
:104FA000B1F547EC43F0020E0501B76F450EB66F41
:104FB000A90EE82EFED7B62FFCD7B72FFAD700D010
:104FC0001200020E0301F96F000EFA6F000ED86F87
:104FD000000EFB6F000ED96F000EDA6F000EDB6F54
:104FE000000EDC6F000EDF6F000EE06F000EE36F4F
:104FF000000EE46F000EE56F000EE66F000EE76F27
:10500000000EEA6F000EEB6F100EEC6F870EEE6F66
:10501000010EEF6F000EF06F000EF16F000EF26FD9
:10502000000EF36F000EF46F100EF56F000EF66FAA
:10503000000EF76F120EF86F000EFC6F010EFB6F83
:10504000000ED96F000EDA6F000EDB6F000EDC6F02
:10505000000EDF6F000EE06F000EE36F000EE46FD6
:10506000000EE56F000EE66F000EE76F000EEA6FB0
:10507000000EEB6F040EEC6F870EEE6F010EEF6FFC
:10508000000EF06F000EF16F000EF26F000EF36F66
:10509000000EF46F100EF56F000EF66F000EF76F36
:1050A000000EF86F000EFD6F020EFB6F000ED96F41
:1050B000000EDA6F000EDB6F000EDC6F000EDF6F8C
:1050C000000EE06F000EE36F000EE46F000EE56F60
:1050D000000EE66F000EE76F000EEA6F000EEB6F3A
:1050E000120EEC6F870EEE6F010EEF6F000EF06F79
:1050F000000EF16F000EF26F000EF36F000EF46FF2
:10510000100EF56F000EF66F000EF76F000EF86FC1
:10511000000EFE6F030EFB6F000ED96F000EDA6FEC
:10512000000EDB6F000EDC6F000EDF6F000EE06F15
:10513000000EE36F000EE46F000EE56F000EE66FE9
:10514000000EE76F000EEA6F000EEB6F110EEC6FB2
:10515000870EEE6F010EEF6F000EF06F000EF16F15
:10516000000EF26F000EF36F000EF46F100EF56F6D
:10517000000EF66F000EF76F000EF86F000EFF6F57
:10518000AF94AF96B090B092B094B096000E060176
:105190008A6F000E8B6F97EC45F0000E06018A6F48
:1051A000000E8B6F8DEC45F0000E06018A6F000E2D
:1051B0008B6F88EC45F0000E06018A6F000E8B6F36
:1051C00083EC45F0000E06018A6F000E8B6F7EECBB
:1051D00045F0000E06018A6F000E8B6F92EC45F0D1
:1051E000840E0301F36F120024C643F525C644F56F
:1051F00026C645F527C646F533C543F534C544F5FF
:1052000035C545F536C546F5810E376EFF0E386E4D
:1052100043C539F544C53AF545C53BF546C53CF5AA
:10522000180E18EF29F0D8903C323B323A3239321E
:10523000E82E13EF29F039503724416E000E382044
:10524000426E42BE2DEF29F0425009E1170E415C3B
:10525000D8A02DEF29F02FEF29F039EF29F033C531
:1052600033F534C534F535C535F536C536F5FCEFBF
:1052700029F042BE3EEF29F040EF29F0B0EF29F0CF
:1052800041C537F5FF0E386EFF0E396E7F0E3A6E50
:10529000000E3B6E37664FEF29F057EF29F03B3495
:1052A0003B323A3239323832372E4AEF29F038C59C
:1052B0003DF539C53EF53AC53FF53BC540F53D5096
:1052C0004314376E3E504414386E3F504514396EC7
:1052D000405046143A6E3750381039103A10D8A45E
:1052E00074EF29F076EF29F078EF29F02FEF29F00D
:1052F00043C537F544C538F545C539F546C53AF5D2
:10530000200E88EF29F0D8903A32393238323732CD
:10531000E82E83EF29F03750381039103A10D8B4FE
:1053200094EF29F096EF29F09EEF29F03D504326A7
:105330003E5044223F504522405046223D1C376E8D
:105340003E1C386E3F1C396E401C3A6E3750431677
:1053500038504416395045163A504616F4EF29F0A5
:1053600043C537F544C538F545C539F546C53AF561
:10537000200EC0EF29F0D8903A3239323832373225
:10538000E82EBBEF29F03750381039103A10D8A466
:10539000CCEF29F0CEEF29F0D8EF29F0000E436EC4
:1053A000000E446E000E456E000E466EF4EF29F0BE
:1053B000D8904334376E4434386E4534396E4634B1
:1053C0003A6E3750381039103A10D8B4EAEF29F055
:1053D000ECEF29F0F4EF29F0000E436E000E446E5E
:1053E000800E456EBF0E466E43C533F544C534F599
:1053F00045C535F546C536F512003AEC35F00009DD
:10540000D8B405EF2AF007EF2AF0FEEF2AF07C0E61
:10541000226E060E236ECDEC3EF0E806D8A413EF04
:105420002AF015EF2AF0FEEF2AF000F07CC6D5F541
:105430007DC6D6F57EC6D7F57FC6D8F5610004FADD
:10544000D9F4610008FADAF4DF500501E06F0601D3
:1054500020EE01F08151D9268251DA22DF50050178
:10546000DF6F060120EE02F08151D9268251DA2247
:10547000DF500501DC6F060120EE03F08151D926D3
:105480008251DA22DF500501DD6F060120EE04F0C3
:105490008151D9268251DA22DF500501DE6F0601E3
:1054A00020EE05F08151D9268251DA22DF50050124
:1054B000D96F060120EE06F08151D9268251DA22F9
:1054C000DF500501DA6F060120EE07F08151D92681
:1054D0008251DA22DF500501DB6FB8EF2AF0E0C518
:1054E000FCF5DFC5FBF5DCC5FAF5DDC5F9F5DEC574
:1054F000F8F5010E476EFB5168EC3FF00501FC51D9
:10550000F0EC39F0FEEF2AF0E051070BF76FE051B5
:10551000180BF66FE051E00BF56FDF51010BF46FE4
:10552000DF51060BF36FDF51780BF26FFEEF2AF0BD
:10553000E0C56AF6DFC569F6DCC568F6DDC567F665
:10554000DEC566F6D9C565F6DAC564F6DBC563F671
:10555000FEEF2AF0E0C5F1F5F151F6EC3EF0FEEF7A
:105560002AF0E0C5F0F5FEEF2AF000F0FEEF2AF099
:10557000D5C5CFF5D6C5D0F5D7C5D1F5D8C5D2F5A7
:10558000D251000AD8B4F7EF2AF0B5EF2AF0D05183
:10559000030AD8B4D6EF2AF0070AD8B4E1EF2AF00C
:1055A000010AD8B4E8EF2AF0B5EF2AF0CF51200A6B
:1055B000D8B46FEF2AF0650AD8B4AAEF2AF0B5EF95
:1055C0002AF0CF51120AD8B4B1EF2AF0B5EF2AF081
:1055D000CF51000AD8B484EF2AF0010AD8B498EF6A
:1055E0002AF0030AD8B4FEEF2AF0B5EF2AF0D15121
:1055F000000AD8B4C7EF2AF0B5EF2AF0120006016E
:10560000926F06019251D8B408EF2BF00AEF2BF0FD
:105610002CEF2BF08DBF11EF2BF00FEF2BF02CEFB9
:105620002BF08AC68EF68BC68FF68CC690F68DC68A
:1056300091F68E1F8F1F901F911F8E2B000E8F23B0
:10564000902391238EC694F68FC695F690C696F653
:1056500091C697F634EF2BF08AC694F68BC695F672
:105660008CC696F68DC697F68A518B118C118D11CA
:10567000D8A43DEF2BF03FEF2BF049EF2BF0000EBD
:105680008A6F000E8B6F000E8C6F000E8D6FDAEF3D
:105690002BF0960E936F53EF2BF0932BD8909733FC
:1056A000963395339433000E94158E6F000E951536
:1056B0008F6F000E9615906FFE0E9715916F8E519D
:1056C0008F1190119111D8A468EF2BF06AEF2BF095
:1056D0004DEF2BF078EF2BF0932B010E9427000E5B
:1056E000952396239723D890973396339533943305
:1056F000000E94158E6F000E95158F6F000E961587
:10570000906FFF0E9715916F8E518F11901191111F
:10571000D8A48DEF2BF08FEF2BF06CEF2BF097EFE1
:105720002BF09307D890943795379637973796BFD5
:105730009CEF2BF09EEF2BF0A6EF2BF0020E936167
:10574000A4EF2BF0A6EF2BF091EF2BF093B1ABEF82
:105750002BF0ADEF2BF0AEEF2BF0969FD89093335C
:1057600093C68EF68F6B906B916B8EC691F6906B95
:105770008F6B8E6B8E5194138F519513905196139E
:10578000915197139251D8B4C8EF2BF0CAEF2BF078
:10579000D2EF2BF08DBFD1EF2BF0CFEF2BF0D2EF6C
:1057A0002BF0978F94C68AF695C68BF696C68CF624
:1057B00097C68DF61200096E0950D8B4E2EF2BF0AF
:1057C000E4EF2BF006EF2CF004BEEBEF2BF0E9EF4B
:1057D0002BF006EF2CF001C505F502C506F503C553
:1057E00007F504C508F5051E061E071E081E052A36
:1057F000000E06220722082205C50BF506C50CF58A
:1058000007C50DF508C50EF50EEF2CF001C50BF51B
:1058100002C50CF503C50DF504C50EF501500210C7
:1058200003100410D8A417EF2CF019EF2CF023EF7D
:105830002CF0000E016E000E026E000E036E000EC4
:10584000046EB4EF2CF0960E0A6E2DEF2CF00A2A9F
:10585000D8900E320D320C320B32000E0B14056E46
:10586000000E0C14066E000E0D14076EFE0E0E14C4
:10587000086E0550061007100810D8A442EF2CF04F
:1058800044EF2CF027EF2CF052EF2CF00A2A010EF7
:105890000B26000E0C220D220E22D8900E320D3255
:1058A0000C320B32000E0B14056E000E0C14066E3B
:1058B000000E0D14076EFF0E0E14086E0550061034
:1058C00007100810D8A467EF2CF069EF2CF046EF12
:1058D0002CF071EF2CF00A06D8900B360C360D36F2
:1058E0000E360DBE76EF2CF078EF2CF080EF2CF01A
:1058F000020E0A607EEF2CF080EF2CF06BEF2CF0A4
:105900000AB085EF2CF087EF2CF088EF2CF00D9E7D
:10591000D8900A320AC505F5066A076A086A05C5FD
:1059200008F5076A066A056A05500B1206500C1244
:1059300007500D1208500E120950D8B4A2EF2CF0E7
:10594000A4EF2CF0ACEF2CF004BEABEF2CF0A9EFE1
:105950002CF0ACEF2CF00E8E0BC501F50CC502F54A
:105960000DC503F50EC504F5120001011DAFBBEF17
:105970002CF0BDEF2CF0CCEF2CF002D8CAEF2CF0BD
:105980000500FA6E06015251FD6E5351FE6EFF6A1C
:10599000FA50120001011D9F1DADD1EF2CF0D3EF85
:1059A0002CF0E2EF2CF002D8E0EF2CF00500FA6EBC
:1059B00006015051FD6E5151FE6EFF6AFA50120001
:1059C00001011D9D1DABE7EF2CF0E9EF2CF0F8EF86
:1059D0002CF002D8F6EF2CF00500FA6E06014E51BD
:1059E000FD6E4F51FE6EFF6AFA50120001011D9BC1
:1059F0001CA7FDEF2CF0FFEF2CF00EEF2DF002D8DE
:105A00000CEF2DF00500FA6E06014C51FD6E4D5164
:105A1000FE6EFF6AFA50120001011C971DA913EFD8
:105A20002DF015EF2DF024EF2DF002D822EF2DF000
:105A30000500FA6E06014A51FD6E4B51FE6EFF6A7B
:105A4000FA50120001011D991DA529EF2DF02BEF31
:105A50002DF041EF2DF002D838EF2DF00500FA6E51
:105A600006014851FD6E4951FE6EFF6AFA50120060
:105A7000010154A93EEF2DF040EF2DF041EF2DF044
:105A800054991DA746EF2DF048EF2DF05EEF2DF055
:105A900002D855EF2DF00500FA6E06014651FD6E55
:105AA0004751FE6EFF6AFA501200010160A75BEFDA
:105AB0002DF05DEF2DF05EEF2DF06097AE9C1200A3
:105AC0000A6EA1EF2DF0C8EC45F0000EA1EC45F0F8
:105AD000100E37EC41F001C50BF502C50CF5010EB7
:105AE0000D6EBEEF2DF0C8EC45F0010EA1EC45F0B7
:105AF000040E37EC41F001C50BF502C50CF56FEF54
:105B00002DF0C8EC45F0020EA1EC45F0120E37EC7A
:105B100041F001C50BF502C50CF56FEF2DF0C8EC97
:105B200045F0030EA1EC45F0110E37EC41F001C534
:105B30000BF502C50CF56FEF2DF0020E0D6EBEEFEA
:105B40002DF00A50086E096A0950000AD8B4ABEF6C
:105B50002DF09DEF2DF00850010AD8B481EF2DF003
:105B6000030AD8B48FEF2DF0010AD8B463EF2DF0FB
:105B7000070AD8B473EF2DF09DEF2DF00D04D8A4D3
:105B8000C4EF2DF0C6EF2DF0F4EF2DF00C5007E12F
:105B9000070E0B5CD8B0CFEF2DF0D1EF2DF0D7EF83
:105BA0002DF0000E0F6E000E0E6EE1EF2DF00BC506
:105BB0000EF50CC50FF5FB0E0E240E6EFF0E0F201A
:105BC0000F6E890E0E5C130E0F58D8A0EAEF2DF061
:105BD000ECEF2DF0EEEF2DF0F4EF2DF00EC506F505
:105BE0000FC507F5F4EF2DF0120069EC44F0000941
:105BF000D8B4FDEF2DF0FFEF2DF039EF2EF00CEFC4
:105C00002EF00AEC45F085EF2EF0F4EC45F085EF30
:105C10002EF0000E85EF2EF012C60AF513C60BF516
:105C200002D81DEF2EF00500FA6E06010651FD6E3A
:105C30000751FE6EFF6AFA5012000C6E0D6A0D508D
:105C4000000AD8B426EF2EF009EF2EF00C50010A0E
:105C5000D8B409EF2EF0030AD8B401EF2EF0010AF0
:105C6000D8B405EF2EF0070AD8B409EF2EF009EFEB
:105C70002EF05EEC44F00009D8B441EF2EF043EF73
:105C80002EF084EF2EF006012351030B0009D8B447
:105C90004CEF2EF04EEF2EF05AEF2EF0010E0C6E60
:105CA0002351030B0D6E0C500D5E23510D18FC0B90
:105CB0000D18236F610074F8D9F4610078F8DAF4F4
:105CC000DF50106E1D4B1E2B1F07D8A020071F5141
:105CD0002011D8A46EEF2EF070EF2EF078EF2EF09A
:105CE000B7EC3AF00C6E0C500E6E0F6A7CEF2EF093
:105CF000000E0F6E030E0E6E0EC511F51050A6ECC1
:105D000045F0115085EF2EF0030E1200000E060133
:105D1000936F91BF90EF2EF08EEF2EF09AEF2EF052
:105D2000911F901F8F1F8E6D000E8F239023912344
:105D3000010E936F8DBFA1EF2EF09FEF2EF0ABEF12
:105D40002EF08D1F8C1F8B1F8A6D000E8B238C23D2
:105D50008D23010E931B000E946F000E956F000EA5
:105D6000966F000E976F8E518F1190119111D8B4CC
:105D7000BCEF2EF0BEEF2EF0F4EF2EF0010E926F7E
:105D8000C8EF2EF0D8908E378F3790379137922BFF
:105D900091AFCDEF2EF0CFEF2EF0C2EF2EF0D890D6
:105DA00094379537963797378E518A5D8F518B5937
:105DB00090518C5991518D59D8A0E1EF2EF0E3EF1D
:105DC0002EF0ECEF2EF08E518A5F8F518B5B90514D
:105DD0008C5B91518D5B9481D890913390338F334C
:105DE0008E33922FCFEF2EF09351D8B4FAEF2EF0DE
:105DF000FCEF2EF004EF2FF0971F961F951F946D68
:105E0000000E95239623972394C68AF695C68BF6A3
:105E100096C68CF697C68DF61200000E0A6E08BE66
:105E200016EF2FF014EF2FF020EF2FF0081E071EB3
:105E3000061E056C000E062207220822010E0A6EBD
:105E400004BE27EF2FF025EF2FF031EF2FF0041EC7
:105E5000031E021E016C000E022203220422010E08
:105E60000A1A000E0B6E000E0C6E000E0D6E000E68
:105E70000E6E0550061007100810D8B442EF2FF030
:105E800044EF2FF07AEF2FF0010E096E4EEF2FF056
:105E9000D8900536063607360836092A08AE53EF7D
:105EA0002FF055EF2FF048EF2FF0D8900B360C362F
:105EB0000D360E360550015C065002580750035847
:105EC00008500458D8A067EF2FF069EF2FF072EF59
:105ED0002FF00550015E0650025A0750035A085031
:105EE000045A0B80D8900832073206320532092E48
:105EF00055EF2FF00A50D8B480EF2FF082EF2FF03B
:105F00008AEF2FF00E1E0D1E0C1E0B6C000E0C22C5
:105F10000D220E220BC501F50CC502F50DC503F5CA
:105F20000EC504F512000601AA35AB35B16FB151AB
:105F3000D8A49DEF2FF09FEF2FF0A9EF2FF0000EC8
:105F4000A86F000EA96F000EAA6F000EAB6F16EFC0
:105F500030F0A8C6ACF6A9C6ADF6AAC6AEF6ABC67A
:105F6000AFF6200EB9EF2FF0D890AF33AE33AD338C
:105F7000AC33E82EB4EF2FF0AC51B06FAA8FFF0E08
:105F8000A817FF0EA917FF0EAA17000EAB17960E43
:105F9000B15FB1BFD0EF2FF0CEEF2FF0E6EF2FF0D3
:105FA000B151800A970FD8B0D8EF2FF0DAEF2FF069
:105FB000DCEF2FF09FEF2FF0D890AB33AA33A9334B
:105FC000A833B13FDCEF2FF0FEEF2FF01F0EB165CD
:105FD000ECEF2FF0EEEF2FF0F6EF2FF09FEF2FF01A
:105FE000D890A837A937AA37AB37B107B151D8A491
:105FF000FCEF2FF0FEEF2FF0F0EF2FF0B051D8B400
:1060000004EF30F006EF30F00EEF30F0AB1FAA1FB8
:10601000A91FA86D000EA923AA23AB23A8C6A8F622
:10602000A9C6A9F6AAC6AAF6ABC6ABF612003534C5
:1060300036343C6E3C50D8A420EF30F022EF30F0E4
:106040002CEF30F0000E336E000E346E000E356E05
:10605000000E366E99EF30F033C537F534C538F59C
:1060600035C539F536C53AF5200E3CEF30F0D890FD
:106070003A32393238323732E82E37EF30F0375093
:106080003B6E358EFF0E3316FF0E3416FF0E35169F
:10609000000E3616960E3C5E3CBE53EF30F051EFCC
:1060A00030F069EF30F03C50800A970FD8B05BEFCA
:1060B00030F05DEF30F05FEF30F022EF30F0D8904D
:1060C00036323532343233323C3E5FEF30F081EFDE
:1060D00030F01F0E3C646FEF30F071EF30F079EF6D
:1060E00030F022EF30F0D89033363436353636364D
:1060F0003C063C50D8A47FEF30F081EF30F073EFD6
:1061000030F03B50D8B487EF30F089EF30F091EFAA
:1061100030F0361E351E341E336C000E342235220C
:10612000362233C533F534C534F535C535F536C5B6
:1061300036F51200000E1A14226E000E1B14236E88
:10614000800E1C14246E7F0E1D14256E2250231009
:1061500024102510D8A4AFEF30F0B1EF30F0B9EF34
:1061600030F0000E1A6E000E1B6E000E1C6E000E3C
:106170001D6E000E1E14226E000E1F14236E800E64
:106180002014246E7F0E2114256E2250231024101B
:106190002510D8A4CEEF30F0D0EF30F0D8EF30F0AB
:1061A000000E1E6E000E1F6E000E206E000E216E81
:1061B0001DAEDDEF30F0DFEF30F0E8EF30F01A6CBD
:1061C0001B1ED8B01B2A1C1ED8B01C2A800E1D56C0
:1061D00021AEEDEF30F0EFEF30F0F8EF30F01E6C65
:1061E0001F1ED8B01F2A201ED8B0202A800E21568C
:1061F000000E1A1A000E1B1A000E1C1A800E1D1A11
:10620000000E1E1A000E1F1A000E201A800E211AF0
:106210001E501A5C1F501B5820501C5821501D58EE
:10622000D8B015EF31F017EF31F01AEF31F0D89008
:106230001BEF31F0D880120028C60BF529C60CF5EB
:106240002AC60DF52BC60EF501C50BF502C50CF5DA
:1062500003C50DF504C50EF50BC505F50CC506F512
:106260000DC507F50EC508F5180E3CEF31F0D890B6
:106270000832073206320532E82E37EF31F005508A
:10628000096E0A6A09500A10D8A449EF31F04BEFA1
:1062900031F06BEF31F0D8900B34056E0C34066E94
:1062A0000D34076E0E34086E0550061007100810E6
:1062B000D8A45DEF31F05FEF31F065EF31F0000E03
:1062C000026E020E016E9AEF31F0000E026E030EA6
:1062D000016E9AEF31F009280A10D8A472EF31F05C
:1062E00074EF31F096EF31F00BC505F50CC506F5EE
:1062F0000DC507F50EC508F5090ED890053606360A
:1063000007360836E82E7DEF31F0055006100710ED
:106310000810D8B48EEF31F091EF31F0010E92EF0A
:1063200031F0000E016E026A9AEF31F0000E026E3B
:10633000040E016E120001C508F502C509F503C57A
:106340000AF504C50BF50506D8A00606052806E1E2
:106350000628D8A4AEEF31F0B0EF31F0BDEF31F048
:10636000000E026E000E016E14EF32F0084A092A88
:106370000A4A0B2A0506D8A00606610020F4D9F4C3
:10638000610024F4DAF4DF50D8B4C9EF31F0CBEF78
:1063900031F0FEEF31F0610028F4F6F461002CF4E6
:1063A000F7F4F86A0800F5500009D8B4DAEF31F0D4
:1063B000DCEF31F0FEEF31F005500610D8B4E3EF1A
:1063C00031F0E5EF31F0FEEF31F0610020F4D9F467
:1063D000610024F4DAF4DF50076E610028F4F6F46B
:1063E00061002CF4F7F4F86A0800F5500718D8B4E7
:1063F000FCEF31F0FEEF31F0B6EF31F0610020F448
:10640000D9F4610024F4DAF4DF50076E610028F457
:10641000F6F461002CF4F7F4F86A0800F550075C14
:10642000016E026AD8A002061200490E06018A6FA8
:10643000990E8B6F000E8C6F000E8D6FB4C68EF6AA
:10644000B5C68FF6906B916B86EC2EF08AC6B8F6C7
:106450008BC6B9F66A0E06019C6F4D0E9D6F930EAA
:106460009E6FBF0E9F6FB8C68AF6B9C68BF68C6B4F
:106470008D6B000EFFEC2AF08AC698F68BC699F653
:106480008CC69AF68DC69BF6BDEC19F098C6A8F698
:1064900099C6A9F69AC6AAF69BC6ABF693EC2FF05E
:1064A000A8C6B8F6A9C6B9F6B2C6B6F6B3C6B7F668
:1064B0000601D890B637B737D890B637B737B6C6D3
:1064C000BAF6B7C6BBF6BAC68AF6BBC68BF6000EDE
:1064D0008D6F640E8C6FD9EC41F08AC6BAF68BC60C
:1064E000BBF6BAC68AF6BBC68BF6B4C68CF6B5C682
:1064F0008DF66FEC3BF08AC6BAF68BC6BBF6BAC611
:106500008AF6BBC68BF6EEEC44F0B8C68AF6B9C67E
:106510008BF6E7EC44F0EEEC45F01200490E060174
:106520008A6F990E8B6F000E8C6F000E8D6FB4C644
:106530008EF6B5C68FF6906B916B86EC2EF08AC600
:10654000B8F68BC6B9F66A0E06019C6F4D0E9D6FAC
:10655000930E9E6FBF0E9F6FB8C68AF6B9C68BF6B4
:106560008C6B8D6B000EFFEC2AF08AC698F68BC6FA
:1065700099F68CC69AF68DC69BF6BDEC19F098C6B6
:10658000A8F699C6A9F69AC6AAF69BC6ABF693ECEE
:106590002FF0A8C6B8F6A9C6B9F6B2C6B6F6B3C605
:1065A000B7F60601D890B637B737D890B637B737B1
:1065B000B6C6BAF6B7C6BBF6BAC68AF6BBC68BF67F
:1065C000000E8D6F640E8C6FD9EC41F08AC6BAF65E
:1065D0008BC6BBF6BAC68AF6BBC68BF6B4C68CF6BB
:1065E000B5C68DF66FEC3BF08AC6BAF68BC6BBF625
:1065F000BAC68AF6BBC68BF6FCEC44F0B8C68AF67F
:10660000B9C68BF6F5EC44F0F0EC45F01200490EFB
:10661000016E990E026E000E036E000E046E3FC5F1
:1066200005F540C506F5076A086A0DEC2FF001C5AF
:1066300043F502C544F56A0E136E4D0E146E930EAB
:10664000156EBF0E166E43C501F544C502F5036A0B
:10665000046A000EDBEC2BF001C50FF502C510F546
:1066600003C511F504C512F51EEC1CF00FC533F57A
:1066700010C534F511C535F512C536F517EC30F0F7
:1066800033C543F534C544F53DC541F53EC542F536
:10669000D89041364236D8904136423641C545F50C
:1066A00042C546F545C501F546C502F5000E046E26
:1066B000640E036EF6EC42F001C545F502C546F5E1
:1066C00045C501F546C502F53FC503F540C504F5CE
:1066D0001EEC3CF001C545F502C546F545C501F582
:1066E00046C502F523EC45F043C501F544C502F566
:1066F0001DEC45F0FAEC45F01200216E000E1D6E07
:1067000018501BEC44F0206E20A089EF33F08BEF83
:1067100033F0F1EF33F018500C0D580EF324D96E0E
:10672000010EF420DA6E610078F31EF5610074F357
:106730001FF51E501F10D8B4A0EF33F0A2EF33F0B6
:10674000F1EF33F01EC50CF51FC50DF519C50EF59B
:106750001AC50FF5A2EC25F018500C0D510EF324BC
:10676000D96E010EF420DA6E000EDB802150020D8E
:10677000D50EF324D96E060EF420DA6EDF2A1850F7
:10678000C1EC43F01B6E2150020DD50EF324D96EDF
:10679000060EF420DA6E1B50DE5CD8A0D2EF33F088
:1067A000D4EF33F0DEEF33F02150020DD50EF32499
:1067B000D96E060EF420DA6E000EDF6E20A6E3EF2F
:1067C00033F0E5EF33F0EFEF33F018500C0D540ECB
:1067D000F324D96E010EF420DA6EF70EDF16010EE7
:1067E0001D6E1D5012000601BC51BD11D8B4FBEF47
:1067F00033F0FDEF33F009EF34F002D809EF34F055
:106800000500FA6EBC51FD6EBD51FE6EFF6AFA5076
:10681000120039EC40F00501FF2B060EFF19D8A439
:1068200014EF34F016EF34F01AEF34F0000EFF6F6F
:1068300092EC43F00501FE2B0B0EFE19D8A423EFBA
:1068400034F025EF34F029EF34F0000EFE6F77ECD2
:1068500040F00501FD2B650EFD19D8A432EF34F090
:1068600034EF34F038EF34F0000EFD6F00EC46F0FA
:1068700006013C4B3D2B2D0E3C1906E13D05D8A4ED
:1068800044EF34F046EF34F04CEF34F0000E3D6F3F
:10689000000E3C6FFEEC45F006013A4B3B2B590EC7
:1068A0003A1907E1020E3B19D8A459EF34F05BEF17
:1068B00034F061EF34F0000E3B6F000E3A6FFFECE6
:1068C00045F0120023C574F624C575F625C576F685
:1068D00026C577F627C578F628C579F629C57AF64C
:1068E0002AC57BF61EC583F61FC584F620C585F62E
:1068F00021C586F60601879D879F8793879122C5CC
:106900002BF50F0E2B162B462B4687512B18C30B3E
:106910002B18876F740E886F060E896F48EC44F051
:10692000E806D8A496EF34F098EF34F099EF34F0FD
:1069300000F03DEC44F0E806D8A4A1EF34F0A3EF5A
:1069400034F0A4EF34F000F032EC44F0E806D8A4C0
:10695000ACEF34F0AEEF34F0AFEF34F000F0DEEC3B
:1069600043F0E806D8A4B7EF34F0B9EF34F0BAEF4B
:1069700034F000F0000E33EC43F02B6E2BA0C3EF8D
:1069800034F0C5EF34F0CDEF34F0830E186E060E00
:10699000196E000E5EEC39F000F01200076E000E6A
:1069A000096E20EE04F00250D9260350DA22DF509F
:1069B0000A6E0AAEDEEF34F0E0EF34F0EBEF34F0C5
:1069C0009CEC45F0060AD8A4E8EF34F0EAEF34F086
:1069D000EBEF34F009820A30E8320F0B046E080E38
:1069E0000464F5EF34F0F7EF34F009EF35F00AAC5A
:1069F000FCEF34F0FEEF34F008EF35F09CEC45F09E
:106A0000060AD8A406EF35F008EF35F009EF35F0A7
:106A100009802F0EF66E260EF76EF86A08006100E8
:106A2000D4F304F50A30E8320F0B056E066A270E20
:106A30000524F66E260E0620F76EF86A000EF82280
:106A40000800F550045CD8B028EF35F02AEF35F097
:106A50002BEF35F009800750F7EC43F00009D8A47C
:106A600034EF35F036EF35F038EF35F0030E09121C
:106A700009501200000E036E000E0A6E0A50020D3D
:106A8000D40EF324D96E060EF420DA6EDF50066EB3
:106A900006501BEC44F0056E05A051EF35F053EFA6
:106AA00035F094EF35F00650C1EC43F0076E05A6C3
:106AB0005CEF35F05EEF35F062EF35F007C504F5B9
:106AC00092EF35F006500C0D550EF324D96E010EE1
:106AD000F420DA6EDF501F0B086E0A50020DD50E3F
:106AE000F324D96E060EF420DA6EDF50096E0950D9
:106AF000085CD8B07EEF35F080EF35F086EF35F0EA
:106B00000950085C0724046E92EF35F00850095CC8
:106B1000D8B08DEF35F08FEF35F05EEF35F00950DE
:106B2000085C046E045003260A2A0A50D8B49BEF6E
:106B300035F09DEF35F03EEF35F003501200000EBA
:106B4000CFB4010E016E000ECEB2010E026E010432
:106B5000D8A4ADEF35F0AFEF35F0BEEF35F0025011
:106B6000D8A4B5EF35F0B7EF35F0BEEF35F0010E34
:106B700006015E6FEFC560F602EF36F00150D8A453
:106B8000C4EF35F0C6EF35F0D5EF35F00204D8A4E8
:106B9000CCEF35F0CEEF35F0D5EF35F0020E060133
:106BA0005E6FEFC55FF602EF36F00150D8A4DBEF61
:106BB00035F0DDEF35F0EAEF35F00250D8A4E3EF21
:106BC00035F0E5EF35F0EAEF35F0030E06015E6FC4
:106BD00002EF36F00104D8A4F0EF35F0F2EF35F013
:106BE000FFEF35F00204D8A4F8EF35F0FAEF35F0F6
:106BF000FFEF35F0040E06015E6F02EF36F0050E72
:106C000006015E6F12000501E7A109EF36F00BEFF8
:106C100036F015EF36F013C50AF514C50BF511C59E
:106C20000CF512C50DF5F8EC3FF016BE1AEF36F074
:106C30001CEF36F022EF36F015C51AF516C51BF518
:106C400026EF36F0000E1B6E000E1A6E000E196E47
:106C5000000E186E38EF36F0000E026E200E016E38
:106C600011C503F512C504F513EC39F0184A192AB9
:106C70001A50185C1950800A176E1B50800A17585A
:106C8000D8A045EF36F047EF36F02CEF36F005018F
:106C9000E7B14DEF36F04FEF36F059EF36F013C550
:106CA0000AF514C50BF511C50CF512C50DF5F8EC78
:106CB0003FF013C501F514C502F594EC40F01A50ED
:106CC0000124116E1B500220126E1200000E0C6E79
:106CD0000ABE6FEF36F06DEF36F075EF36F0096CE7
:106CE0000A1ED8B00A2A010E0C6E08BE7CEF36F0E0
:106CF0007AEF36F082EF36F0076C081ED8B0082A1B
:106D0000010E0C1A000E0E6E000E0D6E09500A10C8
:106D1000D8B48DEF36F08FEF36F0B7EF36F0010EC6
:106D20000B6E97EF36F0D89009360A360B2A0AAE6A
:106D30009CEF36F09EEF36F093EF36F0D8900D369C
:106D40000E360950075C0A500858D8A0AAEF36F052
:106D5000ACEF36F0B1EF36F00950075E0A50085A32
:106D60000D80D8900A3209320B2E9EEF36F00C506F
:106D7000D8B4BDEF36F0BFEF36F0C3EF36F00D6C90
:106D80000E1ED8B00E2A0DC507F50EC508F5120067
:106D90006100D8F3E1F56100DCF3E2F56100E0F3B6
:106DA000E3F56100D4F3E4F5A1AED9EF36F0DBEF03
:106DB00036F0E6EF36F0B1AEE0EF36F0E2EF36F067
:106DC000E6EF36F005EC41F01CEF37F0A1A8EBEF51
:106DD00036F0EDEF36F0F8EF36F0B1A8F2EF36F01E
:106DE000F4EF36F0F8EF36F0B1EC40F01CEF37F08E
:106DF0009EACFDEF36F0FFEF36F00AEF37F0AEACA9
:106E000004EF37F006EF37F00AEF37F0B5EC2CF06F
:106E10001CEF37F0A2A80FEF37F011EF37F01CEF9F
:106E200037F0B2A816EF37F018EF37F01CEF37F055
:106E3000EFEC41F01CEF37F0610090F7F5F46100E2
:106E40008CF7F8F4610088F7F7F4610084F7F6F442
:106E50001100000E066E02BE32EF37F030EF37F051
:106E600038EF37F0016C021ED8B0022A010E066E10
:106E700004BE3FEF37F03DEF37F043EF37F0036CE0
:106E8000041ED8B0042A03500410D8B44AEF37F0D7
:106E90004CEF37F070EF37F0010E056E54EF37F01E
:106EA000D89003360436052A04AE59EF37F05BEF6D
:106EB00037F050EF37F00350015C04500258D8A06F
:106EC00064EF37F066EF37F06AEF37F00350015E9A
:106ED0000450025AD89004320332052E5BEF37F08B
:106EE0000650D8B476EF37F078EF37F07CEF37F014
:106EF000016C021ED8B0022A01C501F502C502F5D7
:106F00001200000E0114096E000E02140A6E800EAB
:106F100003140B6E7F0E04140C6E09500A100B1034
:106F20000C10D8A496EF37F098EF37F0A0EF37F0B9
:106F3000000E016E000E026E000E036E000E046E57
:106F4000000E0514096E000E06140A6E800E07145A
:106F50000B6E7F0E08140C6E09500A100B100C10EB
:106F6000D8A4B5EF37F0B7EF37F0BFEF37F0000E2A
:106F7000056E000E066E000E076E000E086E0550C0
:106F800001180FE1065002180CE10750031809E13F
:106F900008500418D8B4CFEF37F0D1EF37F0D4EF62
:106FA00037F0D890D5EF37F0D8801200220E166E49
:106FB000050E176E000E196E060E186E600ED5ECDB
:106FC0003FF024C51DF51D3A0F0E1D1623501E6EF1
:106FD0001F6A1E3A1F3AF00E1F161E500F0B1F128B
:106FE000F00E1E161D501E24206E000E1F20216E56
:106FF0001B501C10D8B4FFEF37F001EF38F022EF30
:1070000038F026501D6E1E6A1D3A1E3AF00E1E16EE
:107010001D500F0B1E12F00E1D1627C51FF51F3A2F
:107020000F0E1F161F501D26000E1E2261006CF44D
:10703000D9F4610070F4DAF4610074F4DEF46100F4
:1070400078F4DDF420C51BF521C51CF512000601FE
:1070500023894BEF38F0DDEC45F0080E77EF38F080
:10706000DDEC45F0070E77EF38F006011F29DFEC65
:1070700044F0040E77EF38F0070E06012119D8B45A
:1070800044EF38F046EF38F048EF38F0E0EC45F0E8
:107090000F0E77EF38F00CC60AF50DC60BF502D8C7
:1070A0005BEF38F00500FA6E0051FD6E0151FE6E87
:1070B000FF6AFA5012000C6E0D6A0D50000AD8B427
:1070C00064EF38F03CEF38F00C50010AD8B43CEFD4
:1070D00038F0030AD8B430EF38F0010AD8B42BEFF7
:1070E00038F0070AD8B435EF38F03CEF38F012002A
:1070F00074EC44F00009D8A480EF38F082EF38F047
:1071000085EF38F0040EC6EF38F006012351030B6B
:107110000009D8B48EEF38F090EF38F09CEF38F0DB
:10712000010E0E6E2351030B0F6E0E500F5E235196
:107130000F18FC0B0F18236F1F07D8A020071F5133
:107140002011D8B4A6EF38F0A8EF38F0B6EF38F039
:10715000DAEC45F0610074F8D9F4610078F8DAF4FB
:10716000DF6E06011D4B1E2B82EF38F027EC38F046
:10717000106EDAEC45F0610074F8D9F4610078F82B
:10718000DAF4DF6E06011D4B1E2B105012000601B3
:107190008C6F000E06018B6F56EC45F006018A6F6E
:1071A000040E8A19D8B4D7EF38F0D9EF38F0EAEFE7
:1071B00038F08C05D8B4DFEF38F0E1EF38F0EAEFC3
:1071C00038F0040E8C19D8A4E8EF38F0EAEF38F064
:1071D0000FEF39F00101035106018C19F80B8C19DE
:1071E0000101036F01EF39F001011DA9FAEF38F039
:1071F000FCEF38F001EF39F0020E06018B6F11EF52
:1072000039F00239E832070B06018C19D8A40BEFCC
:1072100039F00DEF39F0F4EF38F011EF39F0010EDD
:107220008B6F8B51120003500410D8B41AEF39F051
:107230001CEF39F025EF39F003500410D8A423EFE8
:1072400039F025EF39F02AEF39F0015002EC46F021
:107250005DEF39F020EE04F00350D9260450DA2215
:10726000DE50DE10D8B437EF39F039EF39F054EF93
:1072700039F020EE04F00350D9260450DA2210EE43
:1072800002F00350E1260450E222DE50E65CE650B4
:10729000800A096EDE50800A0958D8B052EF39F0E2
:1072A00054EF39F05DEF39F020EE02F00350D926AB
:1072B0000450DA22DE2A000EDD2212001D6E1D505F
:1072C00058EC40F00009D8B468EF39F06AEF39F0B3
:1072D000A7EF39F018C502F519C503F51D50CEEC1E
:1072E00034F01A6E1A50D8A478EF39F07AEF39F0EA
:1072F000A7EF39F01D500C0D580EF324D96E010E76
:10730000F420DA6E610078F31BF5610074F31CF56C
:107310001B501C10D8B48FEF39F091EF39F0A7EF64
:1073200039F01BC50CF51CC50DF518C50EF519C5B2
:107330000FF57FEC24F01D500C0D510EF324D96E87
:10734000010EF420DA6E030EDF12A7EF39F01200FF
:10735000016E010E026E060123B7B1EF39F0B3EFF3
:1073600039F0EEEF39F001C51CF623952387FC0EAA
:1073700023170F0E216F010E1B6FF40E1A6F238956
:10738000F00E006F8B0E016F000E0C6F000E0D6F74
:10739000F00E026F8B0E036F000E0E6F000E0F6F5C
:1073A000F00E046F8B0E056F000E106F000E116F44
:1073B000F00E066F8B0E076F000E126F000E136F2C
:1073C000EC0E086F8B0E096F000E146F000E156F18
:1073D000C4EC45F005EC42F0000E026E02501200C3
:1073E0000501CC6FCCC501F5026A100E046E000ECB
:1073F000036EF6EC42F001C507F502C508F5000E74
:107400000A6E050E096E66EC36F007C5C8F508C5AC
:10741000C9F5CCC501F5026A100E046E000E036EAC
:10742000F6EC42F001C507F502C508F5000E0A6E3C
:10743000050E096E66EC36F007C5CAF508C5CBF532
:107440000501C951166EC8C517F5C9C518F5600EF6
:1074500090EC3CF00501CB51166ECAC517F5CBC5B3
:1074600018F5610E90EC3CF0C2EC26F01200056EAF
:1074700001500210D8B43FEF3AF041EF3AF05FEF1D
:107480003AF00550020D000EF324D96E060EF420DA
:10749000DA6E610004F4DEF4610008F4DDF40550F6
:1074A000020D0C0EF324D96E060EF420DA6E610084
:1074B0000CF4DEF4610010F4DDF477EF3AF00550DF
:1074C000020D000EF324D96E060EF420DA6EF00ED3
:1074D000DE6E8B0EDD6E0550020D0C0EF324D96EA0
:1074E000060EF420DA6E000EDE6E000EDD6E120067
:1074F000000EBE6E000EBF6E000EC06E080ECA6E8D
:10750000DE0EC66ECC0EC76E070EC86EE70E040107
:10751000106F730E086FFD0E006F000E216F000ECE
:10752000096F000E016F000E116F000E026F000E4A
:107530000A6F180E126F03690B69136904690C69ED
:107540001469080E246F0F0E0201696F140E706F1C
:107550001A0E0A6F370E146F180E096F380E156F5A
:107560000B0E3D6F460E0D6F130E716F120006016C
:107570002389CCEF3AF0DDEC45F0070EF4EF3AF05A
:1075800006011F29DFEC44F0030EF4EF3AF0E0ECC3
:1075900045F00A0EF4EF3AF00CC60AF50DC60BF5ED
:1075A00002D8DCEF3AF00500FA6E0051FD6E015191
:1075B000FE6EFF6AFA5012000C6E0D6A0D50000A42
:1075C000D8B4E5EF3AF0C7EF3AF00C50010AD8B45E
:1075D000C7EF3AF0030AD8B4BBEF3AF0060AD8B4C2
:1075E000C0EF3AF0C7EF3AF012000E0E06018A6FB4
:1075F0008C0E8B6F6FEC45F0100E06018A6F8C0EAF
:107600008B6F74EC45F0120E06018A6F8C0E8B6F37
:1076100079EC45F00C0E06018A6F8C0E8B6F6AECCC
:1076200045F0080E06018A6F8C0E8B6F60EC45F0FA
:10763000060E06018A6F8C0E8B6F5BEC45F00A0E0E
:1076400006018A6F8C0E8B6F65EC45F0AE9C000EC8
:1076500001011C6F000E1D6F0A0E1E6FFC0E1F6FC6
:107660009E8C1200A4EC3EF006012351030B00098E
:10767000D8B43DEF3BF03FEF3BF04CEF3BF069EC13
:1076800044F00009D8B447EF3BF049EF3BF04CEF32
:107690003BF0100E0601216F06012151020D010E73
:1076A000F324F66E260EF420F76EF86A000EF82228
:1076B00009006100D4F312F509006100D4F313F559
:1076C00002D86CEF3BF00500FA6E1250FD6E1350BD
:1076D000FE6EFF6AFA5012000601216F1200000EC2
:1076E00006018F6F000E8E6F8C518D11D8B47BEF19
:1076F0003BF07DEF3BF0A5EF3BF0010E906F85EF87
:107700003BF0D8908C378D37902B8DAF8AEF3BF0C4
:107710008CEF3BF081EF3BF0D8908E378F378C5158
:107720008A5D8D518B59D8A098EF3BF09AEF3BF0D2
:107730009FEF3BF08C518A5F8D518B5B8E81D8908F
:107740008D338C33902F8CEF3BF08EC68AF68FC62C
:107750008BF61200000E6F6E020E706E000E716ED0
:107760003D0E726E000E736EFE0E746E000E756E20
:10777000000E766E000E776E000E796E1F0E7A6E1A
:10778000000E7B6E1F0E7C6E000E7D6EB39CB39E52
:1077900076907692A39EA39C000E06018A6F000E3F
:1077A0008B6F38EC45F0000E06018A6F000E8B6F70
:1077B00033EC45F0000E06018A6F000E8B6F3DEC36
:1077C00045F0800E786E1200000E606E020E616E43
:1077D000000E626E3D0E636E000E646EFE0E656EF0
:1077E000000E666E000E676E000E686E000E6A6E0A
:1077F0001F0E6B6E000E6C6E1F0E6D6E000E6E6EA9
:10780000B29CB29E67906792A29EA29C000E060157
:107810008A6F000E8B6F47EC45F0000E06018A6FF1
:10782000000E8B6F42EC45F0000E06018A6F000ED1
:107830008B6F4CEC45F0800E696E1200000E066EE8
:10784000000E056E03500410D8B429EF3CF02BEF66
:107850003CF053EF3CF0010E076E33EF3CF0D89054
:1078600003360436072A04AE38EF3CF03AEF3CF01A
:107870002FEF3CF0D890053606360350015C0450DB
:107880000258D8A046EF3CF048EF3CF04DEF3CF0FA
:107890000350015E0450025A0580D890043203322E
:1078A000072E3AEF3CF005C501F506C502F51200BA
:1078B000C4EC45F0020E0601226F6BEF3CF00AECBF
:1078C00045F08FEF3CF0F4EC45F08FEF3CF0D7EC57
:1078D00044F08FEF3CF00EC60AF50FC60BF502D848
:1078E0007BEF3CF00500FA6E0251FD6E0351FE6E17
:1078F000FF6AFA5012000C6E0D6A0D50000AD8B4DF
:1079000084EF3CF067EF3CF00C50020AD8B45FEF14
:107910003CF0010AD8B463EF3CF067EF3CF0120092
:10792000196E1950A8EC39F00009D8B49AEF3CF060
:107930009CEF3CF091EF3CF0BA0E066E840E076EA1
:10794000170E086E050E096E0FEC44F0160E016E50
:10795000050E026E000E046E010E036E6FEC43F016
:10796000000E066E000E076E000E086E000E096E09
:1079700003EC44F0B0EC45F0CBEC42F0E806D8B4B0
:10798000C4EF3CF0C6EF3CF0BCEF3CF01200186EC8
:107990001850A8EC39F00009D8B4D1EF3CF0D3EF7F
:1079A0003CF0C8EF3CF03E0E066E850E076E170EDB
:1079B000086E050E096E0FEC44F0160E016E050EF2
:1079C000026E000E046E010E036E6FEC43F0000EAB
:1079D000066E000E076E000E086E000E096E03ECB8
:1079E00044F0B0EC45F0CBEC42F0E806D8B4FBEF45
:1079F0003CF0FDEF3CF0F3EF3CF01200A4C55DF568
:107A0000A5C55EF5000E06012D6F000E2C6F1CEF54
:107A10003DF0A2C553F5A3C554F55D0E556E050E98
:107A2000566EA6C557F5A7C558F5A5EC20F05350DE
:107A300006012C2754502D23610074F5F6F46100E3
:107A400078F5F7F4F86A0800F5500009D8A42BEF90
:107A50003DF02DEF3DF009EF3DF02CC6A2F52DC60F
:107A6000A3F51200FC0E06012317020E226F2395C8
:107A700041EF3DF0F2EC45F065EF3DF00F0E65EFA4
:107A80003DF010C60AF511C60BF502D851EF3DF0D6
:107A90000500FA6E0451FD6E0551FE6EFF6AFA5044
:107AA00012000C6E0D6A0D50000AD8B45AEF3DF06A
:107AB0003EEF3DF00C50020AD8B43AEF3DF0010A17
:107AC000D8B43AEF3DF03EEF3DF0120003C507F5A4
:107AD00004C508F501C509F502C50AF50750056E8C
:107AE0000850066E074A082A610014F4F6F4610093
:107AF00018F4F7F4000EF86E610024F4D9F4610074
:107B000028F4DAF4094A0A2A250EF76403D008009B
:107B1000F55005D0F6C4E9F4F7C4EAF4EF50DF6E8F
:107B2000DF50D8A496EF3DF098EF3DF06EEF3DF0BA
:107B30001200BF0E096EFF0E0A6E07C50BF508C5D1
:107B40000CF509500B260A500C220C500AE11A0EB3
:107B50000B5CD8A0AEEF3DF0B1EF3DF0010EB2EFFF
:107B60003DF0000E0D6E0E6A0D500E10D8B4BBEF36
:107B70003DF0BDEF3DF0C4EF3DF0200E0710076E65
:107B80000850086EC8EF3DF007C507F508C508F5B1
:107B900012000101018F040EC7EC38F00009D8A4CF
:107BA000D4EF3DF0D6EF3DF0F6EF3DF0000E0101D1
:107BB0004C6F260E4D6F000E4E6F000E4F6F600E15
:107BC000006F970E016F100E026FAAEC44F0A0EC4C
:107BD00044F0E1EC42F081EC43F067EC41F0F5EC6D
:107BE0003AF0060EC7EC38F0C79ABF9A1200B5A259
:107BF000FCEF3DF0FEEF3DF000EF3EF023EF3EF0F6
:107C0000B5A005EF3EF007EF3EF009EF3EF023EFA1
:107C10003EF002019AA50FEF3EF011EF3EF013EF98
:107C20003EF023EF3EF09AAF18EF3EF01AEF3EF031
:107C30001CEF3EF023EF3EF097A921EF3EF023EF3B
:107C40003EF0F7EF3DF0120003C509F504C50AF553
:107C500001C507F502C508F543EF3EF0610024F4C5
:107C6000D9F4610028F4DAF4DF500B6E094A0A2ACD
:107C700061001CF4D9F4610020F4DAF461002CF402
:107C8000DFF4074A082A0506D8A00606052806E1FB
:107C90000628D8A44EEF3EF050EF3EF02EEF3EF017
:107CA0001200F80EF66E8B0EF76E000EF86E0900DD
:107CB0006100D4F3D4F609006100D4F3D5F601EEE7
:107CC00000F3500EEE6AE806FDE101EE00F28A0EC6
:107CD000EE6AE806FDE101EEE5F11B0EEE6AE8064C
:107CE000FDE10401080E5D6F000E5E6F000E5F6F18
:107CF000000127EF44F0146E010E156E060123B546
:107D000084EF3EF086EF3EF0A2EF3EF02385000EBA
:107D1000156E1F51DFEC44F01450D8B492EF3EF0D2
:107D200094EF3EF09BEF3EF0040E0601216FACECA9
:107D300041F0A0EF3EF0030E0601216F53EC44F03A
:107D4000B2EC43F01550120095EC44F00009D8B4A1
:107D5000ACEF3EF0AEEF3EF0B2EF3EF0E9EC45F0B6
:107D6000CCEF3EF07FEC44F00009D8B4BAEF3EF01F
:107D7000BCEF3EF0C0EF3EF0E3EC45F0CCEF3EF060
:107D80008AEC44F00009D8B4C8EF3EF0CAEF3EF0E8
:107D9000CCEF3EF0E6EC45F01200000E256E2550CB
:107DA000020DD40EF324D96E060EF420DA6EDF50E5
:107DB000186E22C519F523C51AF525507DEC33F050
:107DC000246E2450D8B4E7EF3EF0E9EF3EF0EBEF3D
:107DD0003EF0F4EF3EF0252A2550D8B4F2EF3EF005
:107DE000F4EF3EF0CFEF3EF0245012005F6E05EF4F
:107DF0003FF0000EF0EC39F0BE8A1BEF3FF0BE9A68
:107E00001BEF3FF0BE9A1BEF3FF05F500501CD6FB7
:107E1000CE6BCE51000AD8B410EF3FF002EF3FF026
:107E2000CD51000AD8B4FFEF3EF0010AD8B4F9EF03
:107E30003EF002EF3FF0120020EE02F00A50D92689
:107E40000B50DA22610078F301F5610074F302F55A
:107E5000610028F4D9F461002CF4DAF4610078F3BD
:107E600003F5610074F304F56FEC43F0000E066E49
:107E7000000E076E000E086E000E096E0FEC44F047
:107E8000020E120020EE02F00A50D9260B50DA2220
:107E9000610078F301F5610074F302F5610028F4E4
:107EA000D9F461002CF4DAF4610078F303F5610091
:107EB00074F304F56FEC43F0000E066E000E076ECF
:107EC000000E086E000E096E0FEC44F0020E120058
:107ED000486E48503C0D6100CCF3E9F56100D0F3E9
:107EE000EAF5E9C501F5EAC502F5000E046E640E77
:107EF000036E1EEC3CF001C5E9F502C5EAF505018B
:107F0000E951E96FEA6BE9C53DF5EAC53EF5010EB9
:107F1000406E2C0E3F6E07EC33F01200000E030192
:107F20001F6F000E206F010E216F850E1D6FEE0E6C
:107F30001C6FB1981C51600074FC8CF606018D6BAF
:107F40008CC68DF68C6B8C11BE6F8D51BF6FA18866
:107F5000FA0E8A6F8B0E8B6F29EC45F0310E030100
:107F60001E6F1200000E231A000E241A000E251A8E
:107F7000800E261A1FC50FF520C510F521C511F575
:107F800022C512F523C513F524C514F525C515F52D
:107F900026C516F51EEC1CF00FC51FF510C520F503
:107FA00011C521F512C522F512001A6E1A50A8EC5F
:107FB00039F00009D8B4DFEF3FF0E1EF3FF0D6EF42
:107FC0003FF016C501F517C502F518C503F519C52B
:107FD00004F56FEC43F0B4EC45F0CBEC42F0E8066E
:107FE000D8B4F5EF3FF0F7EF3FF0EDEF3FF01200C0
:107FF000000E106E000E0F6E09EF40F00EC501F579
:10800000026A0CC503F50DC504F513EC39F00F4AEF
:10801000102A0F500A24D96E10500B20DA6EDF5050
:108020000E6E0E50D8A417EF40F019EF40F0FEEF9F
:108030003FF01200C690C784C682C69AC89AC89CF0
:10804000C89EC79A000E0601B36F000EB26F000EF5
:10805000B56F320EB46F8EEC32F0000E0601B36FC6
:10806000000EB26F000EB56F320EB46F15EC32F029
:1080700012009FEC35F0300E1E6E030E1F6E000EC8
:10808000206E000E216E060E226EEEC523F5EDC5A4
:1080900024F5ECC525F5EBC526F5000E276E000E80
:1080A000286E000E296E000E2A6E62EC34F012006B
:1080B000026E000E016E040E026061EF40F063EF8D
