:020000040000FA
:040000000DEF00F010
:0400080032EF2DF0B6
:06001800FF000DEF31F0C6
:1026000000000000000000000000000000000000CA
:1026100000000000000000000000000000000000BA
:102620000000000000000000010203040506070886
:102630005001526561643A206E6F6E2D766F6C6149
:1026400074696C6520766F6C746167652076616C67
:1026500075652025662C20616E6420766F6C617430
:10266000696C6520766F6C746167652076616C7546
:10267000652025660053657420746865206E6F6E52
:102680002D766F6C6174696C6520766F6C74616710
:102690006520746F203156200A00536574207468D9
:1026A0006520766F6C6174696C6520766F6C7461FF
:1026B000676520746F203256200A00000501C15161
:1026C000800BCA6FC151C125CC6FC0AF6AEF13F048
:1026D0006CEF13F06DEF13F0CC81CC51D8B473EFE5
:1026E00013F075EF13F08AEF13F0CC29D8A47BEF29
:1026F00013F07DEF13F085EF13F0000EBE6F000EA8
:10270000BF6F000EC06F000EC16FC08F000EC16F93
:1027100092EF13F0000EBE6F000EBF6F000EC06F81
:10272000000EC16FC551800BCB6FCA51CB19D8B405
:102730009CEF13F09EEF13F09FEF13F0CA8DC5517D
:10274000C525CB6FC4AFA7EF13F0A9EF13F0AAEF25
:1027500013F0CB81CB51D8B4B0EF13F0B2EF13F03C
:10276000C7EF13F0CB29D8A4B8EF13F0BAEF13F0EA
:10277000C2EF13F0000EC26F000EC36F000EC46FE5
:10278000000EC56FC48F000EC56FCFEF13F0000EA3
:10279000C26F000EC36F000EC46F000EC56FCC5128
:1027A000CB5DD8B0D6EF13F0D8EF13F0FFEF13F0F6
:1027B000CAADDDEF13F0DFEF13F0E1EF13F0800EA1
:1027C000CA1BCCC5CDF5CBC5CCF5CDC5CBF5BEC5AB
:1027D000CDF5C2C5BEF5CDC5C2F5BFC5CDF5C3C5E6
:1027E000BFF5CDC5C3F5C0C5CDF5C4C5C0F5CDC5D4
:1027F000C4F5C1C5CDF5C5C5C1F5CDC5C5F5000E3E
:10280000CD6FCC51CBC5C6F5C76BC65F000EC75B9D
:10281000C7BF14EF14F0C75109E11A0EC65DD8A066
:1028200014EF14F016EF14F04DEF14F0BE51BF1179
:10283000C011C111D8A41FEF14F022EF14F0010E43
:1028400023EF14F0000ECD6F000EBE6F000EBF6FB1
:10285000000EC06F000EC16FCBC5CCF556EF14F063
:10286000CDA135EF14F037EF14F03DEF14F0D89010
:10287000CD310109CD6F3FEF14F0D890CD33BEA11B
:1028800044EF14F046EF14F047EF14F0CD8FC1354C
:10289000C133C033BF33BE33CC2BCB51CC5DD8A0BA
:1028A00054EF14F056EF14F030EF14F0CABD5BEFA4
:1028B00014F05DEF14F09DEF14F0CC51D8A463EF49
:1028C00014F065EF14F06FEF14F0000EBE6F000E01
:1028D000BF6F000EC06F000EC16FBEEF15F0C2518A
:1028E000BE27C351BF23C451C023C551C123C1A1B9
:1028F0007CEF14F07EEF14F02AEF15F0CDA183EFFA
:1029000014F085EF14F08BEF14F0D890CD3101095D
:10291000CD6F8DEF14F0D890CD33BEA192EF14F0AF
:1029200094EF14F095EF14F0CD8FC135C133C0335F
:10293000BF33BE33CC2B2AEF15F0C251BE5DC3515D
:10294000BF59C451C059C151800AC66FC551800AD0
:10295000C659D8B0AEEF14F0B0EF14F0DBEF14F0BE
:10296000BE51C25DC66FBF51C359C76FC051C45974
:10297000C86FC151C559C96FFF0EC625BE6FFF0E86
:10298000C721BF6FFF0EC821C06FFF0EC921C16FE5
:10299000800ECA1BCD6DCD51D8A4D1EF14F0D3EF6A
:1029A00014F0E3EF14F0010EBE27000EBF23C02386
:1029B000C123E3EF14F0C251BE5FC351BF5BC451EA
:1029C000C05BC551C15BBE51BF11C011C111D8A4BC
:1029D000ECEF14F0EEEF14F023EF15F0CD51D8A486
:1029E000F4EF14F0F6EF14F023EF15F0000EBE6FC5
:1029F000000EBF6F000EC06F000EC16FBEEF15F06E
:102A0000D890BE37BF37C037C137CDAF0AEF15F00A
:102A10000CEF15F00DEF15F0BE81CDA112EF15F002
:102A200014EF15F018EF15F0D880CD371AEF15F028
:102A3000D890CD37CC51D8B420EF15F022EF15F057
:102A400023EF15F0CC07C0AF28EF15F02AEF15F0F3
:102A500000EF15F0000ECB6FCDAF31EF15F033EF77
:102A600015F04BEF15F0CDC5C6F57F0EC617D8B4DF
:102A70003CEF15F03EEF15F042EF15F0010ECB6F75
:102A80004BEF15F0BEA147EF15F049EF15F04BEFF6
:102A900015F03EEF15F0CB51D8B451EF15F053EFD0
:102AA00015F07EEF15F0010EBE27000EBF23C023E8
:102AB000C123C1A15EEF15F060EF15F07EEF15F0B8
:102AC000BEC5C6F5BFC5C7F5C0C5C8F5C1C5C9F502
:102AD000C935C933C833C733C633C6C5BEF5C7C544
:102AE000BFF5C8C5C0F5C9C5C1F5CC29D8B47BEFC1
:102AF00015F07DEF15F07EEF15F0CC2BCC29D8B476
:102B000084EF15F086EF15F08EEF15F0CC51D8A4B8
:102B10008CEF15F08EEF15F0A0EF15F0000EBE6FE4
:102B2000000EBF6F000EC06F000EC16FCC51D8A455
:102B30009CEF15F09EEF15F0A0EF15F0000ECA6F98
:102B4000CCA1A5EF15F0A7EF15F0AAEF15F0C08FF7
:102B5000ABEF15F0C09FD890CC31C16FCAAFB3EFC7
:102B600015F0B5EF15F0B6EF15F0C18FBEC5BEF587
:102B7000BFC5BFF5C0C5C0F5C1C5C1F51200125033
:102B8000800B1B6E125012241D6E11AECAEF15F091
:102B9000CCEF15F0CDEF15F01D801D50D8B4D3EF5C
:102BA00015F0D5EF15F0EAEF15F01D28D8A4DBEFEE
:102BB00015F0DDEF15F0E5EF15F0000E0F6E000ECD
:102BC000106E000E116E000E126E118E000E126E3F
:102BD000F2EF15F0000E0F6E000E106E000E116E6B
:102BE000000E126E1650800B1C6E1B501C18D8B4B1
:102BF000FCEF15F0FEEF15F0FFEF15F01B8C1650F3
:102C000016241C6E15AE07EF16F009EF16F00AEF4A
:102C100016F01C801C50D8B410EF16F012EF16F00E
:102C200027EF16F01C28D8A418EF16F01AEF16F0AC
:102C300022EF16F0000E136E000E146E000E156ECD
:102C4000000E166E158E000E166E2FEF16F0000E8B
:102C5000136E000E146E000E156E000E166E1D50D3
:102C60001C5CD8B036EF16F038EF16F05FEF16F0B8
:102C70001BAC3DEF16F03FEF16F041EF16F0800E63
:102C80001B1A1DC51EF51CC51DF51EC51CF50FC55F
:102C90001EF513C50FF51EC513F510C51EF514C599
:102CA00010F51EC514F511C51EF515C511F51EC587
:102CB00015F512C51EF516C512F51EC516F5000E42
:102CC0001E6E1D501CC517F5186A175E000E185AA7
:102CD00018BE74EF16F0185009E11A0E175CD8A050
:102CE00074EF16F076EF16F0ADEF16F00F501010EF
:102CF00011101210D8A47FEF16F082EF16F0010E1B
:102D000083EF16F0000E1E6E000E0F6E000E106E9A
:102D1000000E116E000E126E1CC51DF5B6EF16F0FA
:102D20001EA095EF16F097EF16F09DEF16F0D890D5
:102D30001E3001091E6E9FEF16F0D8901E320FA0B4
:102D4000A4EF16F0A6EF16F0A7EF16F01E8E1234C1
:102D50001232113210320F321D2A1C501D5CD8A0C5
:102D6000B4EF16F0B6EF16F090EF16F01BBCBBEF09
:102D700016F0BDEF16F0FDEF16F01D50D8A4C3EF0E
:102D800016F0C5EF16F0CFEF16F0000E0F6E000E26
:102D9000106E000E116E000E126E1EEF18F0135022
:102DA0000F2614501022155011221650122212A074
:102DB000DCEF16F0DEEF16F08AEF17F01EA0E3EF5F
:102DC00016F0E5EF16F0EBEF16F0D8901E30010983
:102DD0001E6EEDEF16F0D8901E320FA0F2EF16F037
:102DE000F4EF16F0F5EF16F01E8E12341232113297
:102DF00010320F321D2A8AEF17F013500F5C145057
:102E00001058155011581250800A176E1650800A2B
:102E10001758D8B00EEF17F010EF17F03BEF17F080
:102E20000F50135C176E10501458186E115015582F
:102E3000196E125016581A6EFF0E17240F6EFF0EE1
:102E40001820106EFF0E1920116EFF0E1A20126E40
:102E5000800E1B1A1E6C1E50D8A431EF17F033EFF2
:102E600017F043EF17F0010E0F26000E102211226B
:102E7000122243EF17F013500F5E1450105A1550E2
:102E8000115A1650125A0F50101011101210D8A4C7
:102E90004CEF17F04EEF17F083EF17F01E50D8A449
:102EA00054EF17F056EF17F083EF17F0000E0F6E88
:102EB000000E106E000E116E000E126E1EEF18F056
:102EC000D8900F361036113612361EAE6AEF17F054
:102ED0006CEF17F06DEF17F00F801EA072EF17F078
:102EE00074EF17F078EF17F0D8801E367AEF17F0EE
:102EF000D8901E361D50D8B480EF17F082EF17F02F
:102F000083EF17F01D0611AE88EF17F08AEF17F068
:102F100060EF17F0000E1C6E1EAE91EF17F093EFEE
:102F200017F0ABEF17F01EC517F57F0E1716D8B4C4
:102F30009CEF17F09EEF17F0A2EF17F0010E1C6E3A
:102F4000ABEF17F00FA0A7EF17F0A9EF17F0ABEF5B
:102F500017F09EEF17F01C50D8B4B1EF17F0B3EF95
:102F600017F0DEEF17F0010E0F26000E10221122CF
:102F7000122212A0BEEF17F0C0EF17F0DEEF17F02D
:102F80000FC517F510C518F511C519F512C51AF5B5
:102F90001A341A3219321832173217C50FF518C5FC
:102FA00010F519C511F51AC512F51D28D8B4DBEFB7
:102FB00017F0DDEF17F0DEEF17F01D2A1D28D8B44B
:102FC000E4EF17F0E6EF17F0EEEF17F01D50D8A47E
:102FD000ECEF17F0EEEF17F000EF18F0000E0F6EA9
:102FE000000E106E000E116E000E126E1D50D8A451
:102FF000FCEF17F0FEEF17F000EF18F0000E1B6E5D
:103000001DA005EF18F007EF18F00AEF18F0118E69
:103010000BEF18F0119ED8901D30126E1BAE13EFFF
:1030200018F015EF18F016EF18F0128E0FC50FF507
:1030300010C510F511C511F512C512F512000501E4
:103040008851E25D646F000EE359656F000EE4592C
:10305000666F000EE559676F000EBE6F400EBF6FC2
:103060001C0EC06FC60EC16F68C5B0F569C5B1F55D
:103070006AC5B2F56BC5B3F5010E76EC1FF0B0C5AD
:10308000C2F5B1C5C3F5B2C5C4F5B3C5C5F5B4EC59
:1030900024F00501D8B04FEF18F051EF18F07FEF92
:1030A00018F068C5B0F569C5B1F56AC5B2F56BC56C
:1030B000B3F5010E76EC1FF0B0C5BEF5B1C5BFF596
:1030C000B2C5C0F5B3C5C1F5000E0501C26F400E13
:1030D000C36F1C0EC46F460EC56FB4EC24F005011F
:1030E000D8B075EF18F077EF18F07FEF18F0645153
:1030F00068276551692366516A2367516B2388C528
:10310000E7F5E86BE96BEA6B6051E75D6151E859FF
:103110006251E959EA51800AEB6F6351800AEB5919
:10312000D8B095EF18F097EF18F0A3EF18F088518A
:10313000605DF36F000E6159F46F000E6259F56F18
:10314000000E6359F66F8851606F616B626B636B41
:103150009CC6B0F59DC6B1F59EC6B2F59FC6B3F547
:1031600064C5B4F565C5B5F566C5B6F567C5B7F50B
:10317000A2EC30F0B0C5E7F5B1C5E8F5B2C5E9F5A8
:10318000B3C5EAF598C6B0F599C6B1F59AC6B2F5D9
:103190009BC6B3F568C5B4F569C5B5F56AC5B6F59E
:1031A0006BC5B7F5A2EC30F00501B051E725EB6F28
:1031B000B151E821EC6FB251E921ED6FB351EA2131
:1031C000EE6F24C6B0F525C6B1F526C6B2F527C602
:1031D000B3F5F3C5B4F5F4C5B5F5F5C5B6F5F6C563
:1031E000B7F5A2EC30F00501B051EB25EF6FB1510E
:1031F000EC21F06FB251ED21F16FB351EE21F26F7E
:103200000601A0510501EF25F76F0601A151050147
:10321000F021F86F0601A2510501F121F96F0601B5
:10322000A3510501F221FA6F00F0F7C5BCF5F8C50E
:10323000BDF5F9C5BEF5FAC5BFF5000E0501C06FB5
:10324000040EC16F000EC26F000EC36F23EC23F09B
:10325000BCC5F7F5BDC5F8F5BEC5F9F5BFC5FAF5AE
:103260000501FABF38EF19F036EF19F042EF19F007
:10327000000EF76F000EF86F000EF96F000EFA6F78
:103280005AEF19F0FABF50EF19F0FA51F911F8118D
:1032900009E1650EF75DD8A050EF19F052EF19F073
:1032A0005AEF19F0640EF76F000EF86F000EF96F09
:1032B000000EFA6F00F005019205D8A462EF19F034
:1032C00064EF19F08DEF19F09451E619D8A46BEF63
:1032D00019F06DEF19F097EF19F09405D8A473EF7A
:1032E00019F075EF19F081EF19F0F7C5D8F5F8C5A9
:1032F000D9F5020EDB6F580EDA6F3CEC26F097EF33
:1033000019F09451D8A487EF19F089EF19F08BEFD9
:1033100019F075EF19F097EF19F0000ED96F000E44
:10332000D86F020EDB6F580EDA6F3CEC26F01200FD
:1033300005018851335C646F000E3458656F000ED0
:103340003558666F000E3658676F000E0F6E400ED0
:10335000106E1C0E116EC60E126E68C501F569C5A1
:1033600002F56AC503F56BC504F5010E52EC20F0B9
:1033700001C513F502C514F503C515F504C516F509
:10338000BAEC25F0D8B0C7EF19F0C9EF19F0F6EF95
:1033900019F068C501F569C502F56AC503F56BC585
:1033A00004F5010E52EC20F001C50FF502C510F531
:1033B00003C511F504C512F5000E136E400E146E10
:1033C0001C0E156E460E166EBAEC25F0D8B0EBEF5B
:1033D00019F0EDEF19F0F6EF19F0050164516827C7
:1033E0006551692366516A2367516B2388C538F597
:1033F000396A3A6A3B6A05016051385C6151395853
:1034000062513A583B50800A3C6E6351800A3C58E6
:10341000D8B00DEF1AF00FEF1AF01BEF1AF0885129
:10342000605D446E000E6159456E000E6259466E35
:10343000000E6359476E8851606F616B626B636BFE
:103440009CC601F59DC602F59EC603F59FC604F510
:1034500064C505F565C506F566C507F567C508F5D4
:10346000D8EC30F001C538F502C539F503C53AF599
:1034700004C53BF598C601F599C602F59AC603F551
:103480009BC604F568C505F569C506F56AC507F567
:103490006BC508F5D8EC30F0015038243C6E025072
:1034A00039203D6E03503A203E6E04503B203F6E63
:1034B00024C601F525C602F526C603F527C604F580
:1034C00044C505F545C506F546C507F547C508F5E4
:1034D000D8EC30F001503C24406E02503D20416E4B
:1034E00003503E20426E04503F20436E0601A0511F
:1034F0004024486EA1514120496EA25142204A6E9B
:10350000A35143204B6E00F048C501F549C502F5B3
:103510004AC503F54BC504F5000E056E040E066E94
:10352000000E076E000E086EAAEC23F001C548F5E8
:1035300002C549F503C54AF504C54BF54BBEA5EFD9
:103540001AF0A3EF1AF0AFEF1AF0000E486E000E5B
:10355000496E000E4A6E000E4B6EC7EF1AF04BBE5E
:10356000BDEF1AF04B504A10491009E1650E485C56
:10357000D8A0BDEF1AF0BFEF1AF0C7EF1AF0640E33
:10358000486E000E496E000E4A6E000E4B6E00F043
:1035900005019205D8A4CFEF1AF0D1EF1AF0FAEF97
:1035A0001AF094513718D8A4D8EF1AF0DAEF1AF0BD
:1035B00004EF1BF09405D8A4E0EF1AF0E2EF1AF044
:1035C000EEEF1AF048C529F549C52AF5020E2C6E12
:1035D000580E2B6EA7EC27F004EF1BF09451D8A4E3
:1035E000F4EF1AF0F6EF1AF0F8EF1AF0E2EF1AF033
:1035F00004EF1BF0000E2A6E000E296E020E2C6ED8
:10360000580E2B6EA7EC27F012006100F4F6D9F4E7
:103610006100F8F6DAF4610078F3C2F5610078F33E
:10362000C3F5610078F3C4F5610078F3C5F50501D1
:1036300020EE04F0BD51D926BE51DA22DFA023EFDF
:103640001BF025EF1BF05FEF1BF020EE01F0BB51EC
:10365000D926BC51DA22C239E842F80BF80BDF6EEA
:10366000050EBF6FD890C533C433C333C233BF2FE9
:1036700032EF1BF020EE02F0BB51D926BC51DA220A
:10368000610008F7DFF4C3C5C2F5C4C5C3F5C5C5FD
:10369000C4F5C56B20EE03F0BB51D926BC51DA222C
:1036A000C2511F0BDF6E050EBF6FD890C533C433F8
:1036B000C333C233BF2F55EF1BF077EF1BF020EE63
:1036C00003F0BB51D926BC51DA22000EDF6E10EE9A
:1036D00002F0BB51E126BC51E222DFC4E7F420EE48
:1036E00001F0BB51D926BC51DA22E7C4DFF46100F6
:1036F000ECF6D9F46100F0F6DAF4610008F7DFF4D3
:10370000C3C5C2F5C4C5C3F5C5C5C4F5C56BC2C53F
:10371000BFF5070EBF1720EE01F0BB51D926BC51F3
:10372000DA22BF51DF1220EE04F0BD51D926BE517E
:10373000DA22DF30E8320F0BC16F20EE04F0BD510A
:10374000D926BE51DA22DFB0A8EF1BF0ACEF1BF098
:10375000BF6BBF2BAEEF1BF00501BF6BBF39F00B8A
:10376000C11320EE04F0BD51D926BE51DA22DFB2DA
:10377000BCEF1BF0C0EF1BF0200EBF6FC2EF1BF0C1
:103780000501BF6BBF51C11320EE04F0BD51D92616
:10379000BE51DA22DFBECFEF1BF0D3EF1BF0400E9D
:1037A000BF6FD5EF1BF00501BF6BBF51C11320EEFA
:1037B00004F0BD51D926BE51DA22DFBCE2EF1BF086
:1037C000E6EF1BF0800EBF6FE8EF1BF00501BF6B4B
:1037D000BF51C11320EE04F0BB51D926BC51DA22EF
:1037E000610004F7DFF420EE04F0BD51D926BE518C
:1037F000DA22DFB2FEEF1BF000EF1CF02CEF1CF022
:10380000080EBB25B06F000EBC21B16F20EE05F095
:10381000BD51D926BE51DA22610078F3B2F56100BC
:1038200074F3B3F520EE04F0BD51D926BE51DA226F
:10383000DF30E8320F0BBF6FC06B270EBF25F66E6F
:10384000260EC021F76EF86A000EF8220800F55027
:10385000B46FB56B6FEC31F0120020EE04F00C5039
:10386000D9260D50DA22DF50166E16C510F520EE5F
:1038700004F00E50D9260F50DA2210461046DF50C1
:103880001018C30B1018DF6E16B849EF1CF04DEF7F
:103890001CF0106A102A4EEF1CF0106A20EE04F0A3
:1038A0000E50D9260F50DA22DF501018FE0B1018D8
:1038B000DF6E16BA5EEF1CF062EF1CF0106A102A81
:1038C00063EF1CF0106A20EE04F00E50D9260F5062
:1038D000DA221046DF501018FD0B1018DF6E16BCF0
:1038E00074EF1CF078EF1CF0106A102A79EF1CF0CE
:1038F000106A20EE04F00E50D9260F50DA22103252
:103900001032DF5010187F0B1018DF6E16BE8BEFD1
:103910001CF08FEF1CF0106A102A90EF1CF0106A58
:1039200020EE04F00E50D9260F50DA22103A10463D
:103930001046DF501018BF0B1018DF6E20EE01F09C
:103940000C50D9260D50DA22DF50106E070E1016DB
:103950001050126E136A146A156A14C515F513C552
:1039600014F512C513F5126A610030F4D9F4610040
:1039700034F4DAF4DF50106E1050121220EE04F01E
:103980000E50D9260F50DA22DFA0C9EF1CF0CBEF82
:103990001CF00CEF1DF0050ED890123613361436BD
:1039A0001536E82ECCEF1CF020EE03F00C50D92693
:1039B0000D50DA22DF50106E1F0E1016105012122A
:1039C00014C515F513C514F512C513F5126A20EECA
:1039D00002F00C50D9260D50DA22DF50106E105034
:1039E0001212050ED8901236133614361536E82EFC
:1039F000F2EF1CF020EE01F00C50D9260D50DA2227
:103A0000DF50106ED8901032D8901032D89010320B
:103A10001F0E101610501212610038F4D9F4610014
:103A20003CF4DAF4610048F4DEF461004CF4DEF4B6
:103A3000610050F4DEF4610054F4DEF4640E016EB3
:103A4000060E026E080E0C24036E000E0D20046E8E
:103A500020EE04F00E50D9260F50DA22DF30E83283
:103A60000F0B106E116A270E1024F66E260E112011
:103A7000F76EF86A000EF8220800F550056E066A27
:103A80009DEC31F020EE05F00E50D9260F50DA22D1
:103A9000640EDE6E060EDD6E1200A6EC2BF0000941
:103AA000D8B455EF1DF057EF1DF062EF1EF0740E05
:103AB000216E060E226ECAEC31F0E806D8A463EF40
:103AC0001DF065EF1DF062EF1EF000F074C650F5BA
:103AD00075C651F576C652F577C653F56100E4F91F
:103AE000D9F46100E8F9DAF4DF505B6E060120EEEC
:103AF00001F07951D9267A51DA22DF505A6E20EE40
:103B000002F07951D9267A51DA22DF50576E20EE31
:103B100003F07951D9267A51DA22DF50586E20EE1F
:103B200004F07951D9267A51DA22DF50596E20EE0D
:103B300005F07951D9267A51DA22DF50546E20EE01
:103B400006F07951D9267A51DA22DF50556E20EEEF
:103B500007F07951D9267A51DA22DF50566E1CEFE0
:103B60001EF05BC5AAF55AC5A9F557C5A8F558C5F5
:103B7000A7F559C5A6F505019405D8A4C2EF1DF017
:103B8000C4EF1DF062EF1EF0010E336EA9517BEC05
:103B90002EF00501AA51336E346A356A366A010E79
:103BA000376E98EC19F0010E0501AB6F62EF1EF055
:103BB0005B50070B0501A56F5B50180BA46F5B50A2
:103BC000E00BA36F5A50010BA26F5A50060BA16F66
:103BD0005A50780BA06F62EF1EF05BC59EF55AC578
:103BE0009DF557C59CF558C59BF559C59AF554C523
:103BF00099F555C598F556C597F562EF1EF05BC56A
:103C000094F5050194513AEC32F062EF1EF05BC579
:103C100093F505019451D8A410EF1EF012EF1EF099
:103C200062EF1EF0000E336E93517BEC2EF062EFCC
:103C30001EF000F062EF1EF050C54CF551C54DF579
:103C400052C54EF553C54FF54F50000AD8B45BEF3F
:103C50001EF019EF1EF04D50030AD8B43AEF1EF0D3
:103C6000070AD8B445EF1EF0010AD8B44CEF1EF095
:103C700019EF1EF04C50200AD8B4B1EF1DF0670ABE
:103C8000D8B4FFEF1DF019EF1EF04C50120AD8B453
:103C900007EF1EF019EF1EF04C50000AD8B4D8EF11
:103CA0001DF0010AD8B4EDEF1DF0030AD8B462EF9D
:103CB0001EF019EF1EF04E50000AD8B42BEF1EF084
:103CC00019EF1EF01200020E0301F96F3F0EFA6F9A
:103CD000000ED86F000EFB6F000ED96F000EDA6F6A
:103CE000000EDB6F000EDC6F000EDF6F000EE06F6A
:103CF000000EE36F000EE46F000EE56F000EE66F3E
:103D0000000EE76F000EEA6F000EEB6F100EEC6F07
:103D1000E80EEE6F030EEF6F000EF06F000EF16F06
:103D2000000EF26F000EF36F000EF46F100EF56FC1
:103D3000000EF66F000EF76F000EF86F000EFC6FAE
:103D4000010EFB6F000ED96F000EDA6F000EDB6FF5
:103D5000000EDC6F000EDF6F000EE06F000EE36FF1
:103D6000000EE46F000EE56F000EE66F000EE76FC9
:103D7000000EEA6F000EEB6F040EEC6FE80EEE6FB4
:103D8000030EEF6F000EF06F000EF16F000EF26F7A
:103D9000000EF36F000EF46F100EF56F000EF66F4D
:103DA000000EF76F000EF86F000EFD6F020EFB6F36
:103DB000000ED96F000EDA6F000EDB6F000EDC6FA5
:103DC000000EDF6F000EE06F000EE36F000EE46F79
:103DD000000EE56F000EE66F000EE76F000EEA6F53
:103DE000000EEB6F120EEC6FE80EEE6F030EEF6F2E
:103DF000000EF06F000EF16F000EF26F000EF36F09
:103E0000000EF46F100EF56F000EF66F000EF76FD8
:103E1000000EF86F000EFE6F030EFB6F000ED96FE1
:103E2000000EDA6F000EDB6F000EDC6F000EDF6F2E
:103E3000000EE06F000EE36F000EE46F000EE56F02
:103E4000000EE66F000EE76F000EEA6F000EEB6FDC
:103E5000110EEC6FE80EEE6F030EEF6F000EF06FB9
:103E6000000EF16F000EF26F000EF36F000EF46F94
:103E7000100EF56F000EF66F000EF76F000EF86F64
:103E8000000EFF6FAF94AF96B090B092B094B09622
:103E9000000E0501B06F000EB16F84EC35F0000E1E
:103EA0000501B06F000EB16F7AEC35F0000E050120
:103EB000B06F000EB16F75EC35F0000E0501B06FFC
:103EC000000EB16F70EC35F0000E0501B06F000E02
:103ED000B16F6BEC35F0000E0501B06F000EB16FE5
:103EE0007FEC35F0840E0301F36F12000501B86F0B
:103EF0000501B851D8B47FEF1FF081EF1FF0A3EF99
:103F00001FF0B3BF88EF1FF086EF1FF0A3EF1FF085
:103F1000B0C5B4F5B1C5B5F5B2C5B6F5B3C5B7F51D
:103F2000B41FB51FB61FB71FB42B000EB523B623A1
:103F3000B723B4C5BAF5B5C5BBF5B6C5BCF5B7C5AD
:103F4000BDF5ABEF1FF0B0C5BAF5B1C5BBF5B2C555
:103F5000BCF5B3C5BDF5B051B111B211B311D8A4C0
:103F6000B4EF1FF0B6EF1FF0C0EF1FF0000EB06F00
:103F7000000EB16F000EB26F000EB36F51EF20F064
:103F8000960EB96FCAEF1FF0B92BD890BD33BC3372
:103F9000BB33BA33000EBA15B46F000EBB15B56F44
:103FA000000EBC15B66FFE0EBD15B76FB451B5113E
:103FB000B611B711D8A4DFEF1FF0E1EF1FF0C4EF87
:103FC0001FF0EFEF1FF0B92B010EBA27000EBB2335
:103FD000BC23BD23D890BD33BC33BB33BA33000EF2
:103FE000BA15B46F000EBB15B56F000EBC15B66FD9
:103FF000FF0EBD15B76FB451B511B611B711D8A4E6
:1040000004EF20F006EF20F0E3EF1FF00EEF20F0BA
:10401000B907D890BA37BB37BC37BD37BCBF13EF31
:1040200020F015EF20F01DEF20F0020EB9611BEF1C
:1040300020F01DEF20F008EF20F0B9B122EF20F0C2
:1040400024EF20F025EF20F0BC9FD890B933B9C5FC
:10405000B4F5B56BB66BB76BB4C5B7F5B66BB56BEE
:10406000B46BB451BA13B551BB13B651BC13B751AD
:10407000BD13B851D8B43FEF20F041EF20F049EF25
:1040800020F0B3BF48EF20F046EF20F049EF20F0DA
:10409000BD8FBAC5B0F5BBC5B1F5BCC5B2F5BDC5E0
:1040A000B3F51200096E0950D8B459EF20F05BEF58
:1040B00020F07DEF20F004BE62EF20F060EF20F0F2
:1040C0007DEF20F001C505F502C506F503C507F52E
:1040D00004C508F5051E061E071E081E052A000E4B
:1040E00006220722082205C50BF506C50CF507C5F3
:1040F0000DF508C50EF585EF20F001C50BF502C5DD
:104100000CF503C50DF504C50EF5015002100310A2
:104110000410D8A48EEF20F090EF20F09AEF20F05A
:10412000000E016E000E026E000E036E000E046E95
:104130002BEF21F0960E0A6EA4EF20F00A2AD890F9
:104140000E320D320C320B32000E0B14056E000EC7
:104150000C14066E000E0D14076EFE0E0E14086E83
:104160000550061007100810D8A4B9EF20F0BBEFD7
:1041700020F09EEF20F0C9EF20F00A2A010E0B2656
:10418000000E0C220D220E22D8900E320D320C326F
:104190000B32000E0B14056E000E0C14066E000E92
:1041A0000D14076EFF0E0E14086E05500610071052
:1041B0000810D8A4DEEF20F0E0EF20F0BDEF20F0F3
:1041C000E8EF20F00A06D8900B360C360D360E3686
:1041D0000DBEEDEF20F0EFEF20F0F7EF20F0020E34
:1041E0000A60F5EF20F0F7EF20F0E2EF20F00AB0E0
:1041F000FCEF20F0FEEF20F0FFEF20F00D9ED890B6
:104200000A320AC505F5066A076A086A05C508F58F
:10421000076A066A056A05500B1206500C12075011
:104220000D1208500E120950D8B419EF21F01BEFEF
:1042300021F023EF21F004BE22EF21F020EF21F046
:1042400023EF21F00E8E0BC501F50CC502F50DC54F
:1042500003F50EC504F51200000E0501D96F000E1E
:10426000D86F020EDB6F580EDA6F3CEC26F0030EAF
:104270000501E36F8A0EE26F550EE82EFED7E22F9E
:10428000FCD7E32FFAD700D09AEC32F0020E0501EA
:10429000E36F450EE26FA90EE82EFED7E22FFCD7A2
:1042A000E32FFAD700D0640E0501722506013E6F98
:1042B000000E0501732106013F6F9C0E050170255C
:1042C00006013A6FFF0E0501712106013B6F00F0F8
:1042D000000E0501D96F640ED86F020EDB6F580E09
:1042E000DA6F3CEC26F0070E0501E36F580EE26F23
:1042F000590EE82EFED7E22FFCD7E32FFAD700D0D5
:104300009AEC32F0020E0501E36F450EE26FA90E42
:10431000E82EFED7E22FFCD7E32FFAD700D0640EA9
:104320000501722506013C6F000E0501732106018F
:104330003D6F9C0E050170250601386FFF0E0501CB
:1043400071210601396F00F0000E0501D96F140EBE
:10435000D86F010EDB6F900EDA6F3CEC26F0030E87
:104360000501E36F8A0EE26F550EE82EFED7E22FAD
:10437000FCD7E32FFAD700D0000E0501D96F140E39
:10438000D86F020EDB6F580EDA6F3CEC26F0030E8E
:104390000501E36F8A0EE26F550EE82EFED7E22F7D
:1043A000FCD7E32FFAD700D0000E0501D96F000E1D
:1043B000D86F010EDB6F2C0EDA6F3CEC26F012008A
:1043C00001011DAFE6EF21F0E8EF21F0F7EF21F05A
:1043D00002D8F5EF21F00500FA6E06016051FD6E7E
:1043E0006151FE6EFF6AFA50120001011D9F1DAD62
:1043F000FCEF21F0FEEF21F00DEF22F002D80BEFE1
:1044000022F00500FA6E06015E51FD6E5F51FE6EF0
:10441000FF6AFA50120001011D9D1DAB12EF22F040
:1044200014EF22F023EF22F002D821EF22F0050052
:10443000FA6E06015C51FD6E5D51FE6EFF6AFA5028
:10444000120001011D9B1CA728EF22F02AEF22F089
:1044500039EF22F002D837EF22F00500FA6E06019C
:104460005A51FD6E5B51FE6EFF6AFA501200010157
:104470001C971DA93EEF22F040EF22F04FEF22F0F3
:1044800002D84DEF22F00500FA6E06015851FD6E7C
:104490005951FE6EFF6AFA50120001011D991DA5C7
:1044A00054EF22F056EF22F06CEF22F002D863EFC7
:1044B00022F00500FA6E06015651FD6E5751FE6E50
:1044C000FF6AFA501200010154A969EF22F06BEF64
:1044D00022F06CEF22F054991DA771EF22F073EFD8
:1044E00022F089EF22F002D880EF22F00500FA6E68
:1044F00006015451FD6E5551FE6EFF6AFA501200CE
:10450000010160A786EF22F088EF22F089EF22F008
:104510006097AE9C12000501B96FCEEF22F08EECD1
:1045200035F0000EFDEC34F0100E7BEC32F0B0C52F
:10453000BAF5B1C5BBF5010E0501BC6FECEF22F079
:104540008EEC35F0010EFDEC34F0040E7BEC32F015
:10455000B0C5BAF5B1C5BBF59BEF22F08EEC35F0D6
:10456000020EFDEC34F0120E7BEC32F0B0C5BAF561
:10457000B1C5BBF59BEF22F08EEC35F0030EFDECE0
:1045800034F0110E7BEC32F0B0C5BAF5B1C5BBF515
:104590009BEF22F0020EBC6FECEF22F00501B95147
:1045A000B76FB86BB851000AD8B4D9EF22F0CAEF90
:1045B00022F0B751010AD8B4AEEF22F0030AD8B402
:1045C000BCEF22F0010AD8B48FEF22F0070AD8B46A
:1045D000A0EF22F0CAEF22F0BC05D8A4F2EF22F03F
:1045E000F4EF22F022EF23F0BB5107E1070EBA5D92
:1045F000D8B0FDEF22F0FFEF22F005EF23F0000E20
:10460000BE6F000EBD6F0FEF23F0BAC5BDF5BBC581
:10461000BEF5FB0EBD25BD6FFF0EBE21BE6F890E20
:10462000BD5D130EBE59D8A018EF23F01AEF23F08A
:104630001CEF23F022EF23F0BDC5B5F5BEC5B6F5DE
:1046400022EF23F01200000E0501C56FC3BF2DEF4E
:1046500023F02BEF23F037EF23F0C31FC21FC11F3E
:10466000C06D000EC123C223C323010EC56FBFBF9F
:104670003EEF23F03CEF23F048EF23F0BF1FBE1FB7
:10468000BD1FBC6D000EBD23BE23BF23010EC51B85
:10469000000EC66F000EC76F000EC86F000EC96F08
:1046A000C051C111C211C311D8B459EF23F05BEF4F
:1046B00023F091EF23F0010EC46F65EF23F0D89043
:1046C000C037C137C237C337C42BC3AF6AEF23F03B
:1046D0006CEF23F05FEF23F0D890C637C737C837A9
:1046E000C937C051BC5DC151BD59C251BE59C3513A
:1046F000BF59D8A07EEF23F080EF23F089EF23F09D
:10470000C051BC5FC151BD5BC251BE5BC351BF5BF9
:10471000C681D890C333C233C133C033C42F6CEFCA
:1047200023F0C551D8B497EF23F099EF23F0A1EF10
:1047300023F0C91FC81FC71FC66D000EC723C8239B
:10474000C923C6C5BCF5C7C5BDF5C8C5BEF5C9C535
:10475000BFF51200000E0A6E08BEB3EF23F0B1EFF2
:1047600023F0BDEF23F0081E071E061E056C000E89
:10477000062207220822010E0A6E04BEC4EF23F0AF
:10478000C2EF23F0CEEF23F0041E031E021E016CC5
:10479000000E022203220422010E0A1A000E0B6EE2
:1047A000000E0C6E000E0D6E000E0E6E0550061003
:1047B00007100810D8B4DFEF23F0E1EF23F017EF74
:1047C00024F0010E096EEBEF23F0D8900536063683
:1047D00007360836092A08AEF0EF23F0F2EF23F08F
:1047E000E5EF23F0D8900B360C360D360E3605501B
:1047F000015C065002580750035808500458D8A0CE
:1048000004EF24F006EF24F00FEF24F00550015ED2
:104810000650025A0750035A0850045A0B80D89089
:104820000832073206320532092EF2EF23F00A5021
:10483000D8B41DEF24F01FEF24F027EF24F00E1E54
:104840000D1E0C1E0B6C000E0C220D220E220BC531
:1048500001F50CC502F50DC503F50EC504F51200F2
:104860000501D035D135D76FD751D8A43AEF24F010
:104870003CEF24F046EF24F0000ECE6F000ECF6F19
:10488000000ED06F000ED16FB3EF24F0CEC5D2F57D
:10489000CFC5D3F5D0C5D4F5D1C5D5F5200E56EF8B
:1048A00024F0D890D533D433D333D233E82E51EF1C
:1048B00024F0D251D66FD08FFF0ECE17FF0ECF1738
:1048C000FF0ED017000ED117960ED75FD7BF6DEF32
:1048D00024F06BEF24F083EF24F0D751800A970F78
:1048E000D8B075EF24F077EF24F079EF24F03CEFA7
:1048F00024F0D890D133D033CF33CE33D73F79EFB4
:1049000024F09BEF24F01F0ED76589EF24F08BEF86
:1049100024F093EF24F03CEF24F0D890CE37CF373B
:10492000D037D137D707D751D8A499EF24F09BEFD0
:1049300024F08DEF24F0D651D8B4A1EF24F0A3EFEA
:1049400024F0ABEF24F0D11FD01FCF1FCE6D000E8F
:10495000CF23D023D123CEC5CEF5CFC5CFF5D0C53B
:10496000D0F5D1C5D1F51200000E0501BE15C66FF8
:10497000000EBF15C76F800EC015C86F7F0EC11522
:10498000C96FC651C711C811C911D8A4CAEF24F004
:10499000CCEF24F0D4EF24F0000EBE6F000EBF6FFA
:1049A000000EC06F000EC16F000EC215C66F000E64
:1049B000C315C76F800EC415C86F7F0EC515C96FAC
:1049C000C651C711C811C911D8A4E9EF24F0EBEF03
:1049D00024F0F3EF24F0000EC26F000EC36F000E40
:1049E000C46F000EC56FC1AFF8EF24F0FAEF24F0EA
:1049F00003EF25F0BE6DBF1FD8B0BF2BC01FD8B0CE
:104A0000C02B800EC157C5AF08EF25F00AEF25F087
:104A100013EF25F0C26DC31FD8B0C32BC41FD8B08D
:104A2000C42B800EC557000EBE1B000EBF1B000E10
:104A3000C01B800EC11B000EC21B000EC31B000E4C
:104A4000C41B800EC51BC251BE5DC351BF59C451AA
:104A5000C059C551C159D8B030EF25F032EF25F01B
:104A600035EF25F0D89036EF25F0D88012002134AC
:104A70002234286E2850D8A440EF25F042EF25F0CC
:104A80004CEF25F0000E1F6E000E206E000E216E02
:104A9000000E226EB9EF25F01FC523F520C524F5C1
:104AA00021C525F522C526F5200E5CEF25F0D8900E
:104AB0002632253224322332E82E57EF25F02350B8
:104AC000276E218EFF0E1F16FF0E2016FF0E2116D9
:104AD000000E2216960E285E28BE73EF25F071EFA9
:104AE00025F089EF25F02850800A970FD8B07BEF8A
:104AF00025F07DEF25F07FEF25F042EF25F0D890EF
:104B00002232213220321F32283E7FEF25F0A1EFE2
:104B100025F01F0E28648FEF25F091EF25F099EF17
:104B200025F042EF25F0D8901F3620362136223668
:104B300028062850D8A49FEF25F0A1EF25F093EF89
:104B400025F02750D8B4A7EF25F0A9EF25F0B1EF55
:104B500025F0221E211E201E1F6C000E2022212265
:104B600022221FC51FF520C520F521C521F522C52C
:104B700022F51200000E0F14176E000E1014186E9E
:104B8000800E1114196E7F0E12141A6E1750181021
:104B900019101A10D8A4CFEF25F0D1EF25F0D9EFD6
:104BA00025F0000E0F6E000E106E000E116E000E3E
:104BB000126E000E1314176E000E1414186E800E71
:104BC0001514196E7F0E16141A6E1750181019103E
:104BD0001A10D8A4EEEF25F0F0EF25F0F8EF25F04D
:104BE000000E136E000E146E000E156E000E166E83
:104BF00012AEFDEF25F0FFEF25F008EF26F00F6C69
:104C0000101ED8B0102A111ED8B0112A800E1256CC
:104C100016AE0DEF26F00FEF26F018EF26F0136C0E
:104C2000141ED8B0142A151ED8B0152A800E165698
:104C3000000E0F1A000E101A000E111A800E121A12
:104C4000000E131A000E141A000E151A800E161AF2
:104C500013500F5C1450105815501158165012581C
:104C6000D8B035EF26F037EF26F03AEF26F0D8909F
:104C70003BEF26F0D8801200490E0501BC6F990E5B
:104C8000BD6F000EBE6F000EBF6FDAC5C0F5DBC58D
:104C9000C1F5C26BC36B23EC23F0BCC5DEF5BDC50B
:104CA000DFF56A0E0501C26F4D0EC36F930EC46F20
:104CB000BF0EC56FDEC5B0F5DFC5B1F5B26BB36B26
:104CC000000E76EC1FF0B0C5BEF5B1C5BFF5B2C59C
:104CD000C0F5B3C5C1F55EEC13F0BEC5CEF5BFC5DA
:104CE000CFF5C0C5D0F5C1C5D1F530EC24F0CEC5A7
:104CF000DEF5CFC5DFF5D8C5DCF5D9C5DDF5050195
:104D0000D890DC37DD37D890DC37DD37DCC5E0F50F
:104D1000DDC5E1F5E0C5B0F5E1C5B1F5000EB36F55
:104D2000640EB26FA7EC33F0B0C5E0F5B1C5E1F5A4
:104D3000E0C5B0F5E1C5B1F5DAC5B2F5DBC5B3F54F
:104D400080EC2FF0B0C5E0F5B1C5E1F5E0C5B0F5F8
:104D5000E1C5B1F5E2EC34F0DEC5B0F5DFC5B1F583
:104D6000DBEC34F096EC35F01200010E0501E26F39
:104D7000000EE2EC2DF06EEC2CF005018E05D8A4AF
:104D8000C4EF26F0C6EF26F0EBEF26F0010EE26F3F
:104D90001E0EE2EC2DF0030E0501E56F8A0EE46FA6
:104DA000550EE82EFED7E42FFCD7E52FFAD700D01A
:104DB000010E0501E26F320EE2EC2DF0030E05014B
:104DC000E56F8A0EE46F550EE82EFED7E42FFCD770
:104DD000E52FFAD700D06EEC2CF0030E05018E19EA
:104DE000D8A4F5EF26F0F7EF26F01CEF27F0010E20
:104DF000E26F460EE2EC2DF0030E0501E56F8A0E20
:104E0000E46F550EE82EFED7E42FFCD7E52FFAD736
:104E100000D0010E0501E26F640EE2EC2DF0020EEF
:104E20000501E56FE70EE46F000EE82EFED7E42FD4
:104E3000FCD7E52FFAD700F06EEC2CF0020E05013E
:104E40008E19D8A426EF27F028EF27F02DEF27F0B2
:104E5000010EE26F000EE2EC2DF01200490E05018A
:104E6000BC6F990EBD6F000EBE6F000EBF6FDAC52E
:104E7000C0F5DBC5C1F5C26BC36B23EC23F0BCC529
:104E8000DEF5BDC5DFF56A0E0501C26F4D0EC36FBD
:104E9000930EC46FBF0EC56FDEC5B0F5DFC5B1F5AB
:104EA000B26BB36B000E76EC1FF0B0C5BEF5B1C5AA
:104EB000BFF5B2C5C0F5B3C5C1F55EEC13F0BEC514
:104EC000CEF5BFC5CFF5C0C5D0F5C1C5D1F530EC25
:104ED00024F0CEC5DEF5CFC5DFF5D8C5DCF5D9C5E4
:104EE000DDF50501D890DC37DD37D890DC37DD37CC
:104EF000DCC5E0F5DDC5E1F5E0C5B0F5E1C5B1F52E
:104F0000000EB36F640EB26FA7EC33F0B0C5E0F5DE
:104F1000B1C5E1F5E0C5B0F5E1C5B1F5DAC5B2F569
:104F2000DBC5B3F580EC2FF0B0C5E0F5B1C5E1F518
:104F3000E0C5B0F5E1C5B1F5F0EC34F0DEC5B0F593
:104F4000DFC5B1F5E9EC34F098EC35F01200490E0C
:104F5000016E990E026E000E036E000E046E2BC5DC
:104F600005F52CC506F5076A086AAAEC23F001C509
:104F70002FF502C530F56A0E136E4D0E146E930EAA
:104F8000156EBF0E166E2FC501F530C502F5036A0A
:104F9000046A000E52EC20F001C50FF502C510F5B1
:104FA00003C511F504C512F5BFEC15F00FC51FF5CB
:104FB00010C520F511C521F512C522F537EC25F0F5
:104FC0001FC52FF520C530F529C52DF52AC52EF5AD
:104FD000D8902D362E36D8902D362E362DC531F55B
:104FE0002EC532F531C501F532C502F5000E046E4D
:104FF000640E036EFDEC33F001C531F502C532F5E8
:1050000031C501F532C502F52BC503F52CC504F5F4
:105010002FEC30F001C531F502C532F531C501F58F
:1050200032C502F509EC35F02FC501F530C502F5A2
:1050300003EC35F09AEC35F01200490E016E990E32
:10504000026E000E036E000E046E2BC505F52CC516
:1050500006F5076A086AAAEC23F001C52FF502C518
:1050600030F56A0E136E4D0E146E930E156EBF0E54
:10507000166E2FC501F530C502F5036A046A000EED
:1050800052EC20F001C50FF502C510F503C511F56E
:1050900004C512F5BFEC15F00FC51FF510C520F5BE
:1050A00011C521F512C522F537EC25F01FC52FF5E6
:1050B00020C530F529C52DF52AC52EF5D8902D36F9
:1050C0002E36D8902D362E362DC531F52EC532F51B
:1050D00031C501F532C502F5000E046E640E036E93
:1050E000FDEC33F001C531F502C532F531C501F5EE
:1050F00032C502F52BC503F52CC504F52FEC30F0B5
:1051000001C531F502C532F531C501F532C502F5EB
:1051100015EC35F02FC501F530C502F50FEC35F073
:105120009CEC35F01200206E000E1C6E175090ECB7
:1051300034F01F6E1FA09FEF28F0A1EF28F007EFBB
:1051400029F017500C0D580EF324D96E010EF420DF
:10515000DA6E610078F31DF5610074F31EF51D50E1
:105160001E10D8B4B6EF28F0B8EF28F007EF29F0FA
:105170001DC50CF51EC50DF518C50EF519C50FF5A5
:105180002DEC1CF017500C0D510EF324D96E010EAE
:10519000F420DA6E000EDB802050020DFE0EF324A8
:1051A000D96E050EF420DA6EDF2A17505AEC34F06F
:1051B0001A6E2050020DFE0EF324D96E050EF42057
:1051C000DA6E1A50DE5CD8A0E8EF28F0EAEF28F09B
:1051D000F4EF28F02050020DFE0EF324D96E050ED8
:1051E000F420DA6E000EDF6E1FA6F9EF28F0FBEF59
:1051F00028F005EF29F017500C0D540EF324D96E4A
:10520000010EF420DA6EF70EDF16010E1C6E1C5034
:1052100012000501B66F000E0501B76F20EE04F015
:10522000B151D926B251DA22DF50B86FB8AF1BEFB7
:1052300029F01DEF29F029EF29F089EC35F0060A55
:10524000D8A425EF29F027EF29F029EF29F005014F
:10525000B7830501B831E8320F0BB36F080EB365A1
:1052600034EF29F036EF29F049EF29F0B8AD3BEFE4
:1052700029F03DEF29F047EF29F089EC35F0060AD7
:10528000D8A445EF29F047EF29F049EF29F00501AF
:10529000B7812F0EF66E260EF76EF86A08006100D1
:1052A000D4F3B3F50501B831E8320F0BB46FB56B29
:1052B000270EB425F66E260EB521F76EF86A000E9D
:1052C000F8220800F550B35DD8B069EF29F06BEF14
:1052D00029F06CEF29F0B781B65169EC34F0000980
:1052E000D8A475EF29F077EF29F07AEF29F0030EB3
:1052F0000501B7130501B751120072C5CAF573C590
:10530000CBF50501CC6BCD6B3EC6CEF53FC6CFF5D8
:10531000D06BD16B3CC6D2F53DC6D3F5D46BD56B03
:10532000D0EC2CF005018A6F70C5CAF571C5CBF5BC
:10533000CC6BCD6B3AC6CEF53BC6CFF5D06BD16BFF
:1053400038C6D2F539C6D3F5D46BD56BD0EC2CF07A
:105350000501896F8A518925B06FB16BB137000E95
:10536000B36F020EB26F0BEC2CF00501B051886FD9
:1053700000F09C0E0501D66FFF0ED76F72C5D8F5F1
:1053800073C5D9F5D651D827D751D923D851D911BA
:10539000D8B4CDEF29F0CFEF29F0D2EF29F08781F3
:1053A000D4EF29F0FE0E87139C0ED66FFF0ED76F39
:1053B00070C5D8F571C5D9F5D651D827D751D9239D
:1053C000D851D911D8B4E7EF29F0E9EF29F0ECEF83
:1053D00029F08783EEEF29F0FD0E871387851200F1
:1053E00035EC33F05CEC32F02CEC21F09AEC32F03E
:1053F000E8EC33F0D1EC34F0D68E000E05EC33F04F
:105400004BEC34F0B5EC26F09AEC32F07DEC29F060
:1054100043EC2FF00501AC51E26FE36BE46BE56BFD
:10542000000EE66F1FEC18F0300E0501CC6F030E76
:10543000CD6F000ECE6F000ECF6F060ED06F76C50B
:10544000B0F577C5B1F5000EB36F640EB26F80ECA6
:105450002FF00501B051D16F74C5B0F575C5B1F528
:10546000000EB36F640EB26F80EC2FF00501B051E7
:10547000D26F72C5B0F573C5B1F5000EB36F640E8F
:10548000B26F80EC2FF00501B051D36F70C5B0F54D
:1054900071C5B1F5000EB36F640EB26F80EC2FF0E2
:1054A0000501B051D46F000ED56F000ED66F000EFF
:1054B000D76F000ED86F61EC2AF004EF2AF00DEFE1
:1054C00000F0D1C56CF6D2C56DF6D3C56EF6D4C565
:1054D0006FF6D5C570F6D6C571F6D7C572F6D8C5C4
:1054E00073F6CCC57BF6CDC57CF6CEC57DF6CFC5B3
:1054F0007EF606017F9D7F9F7F937F91D0C5D9F572
:105500000F0E0501D917D947D94706017F5105016B
:10551000D919C30BD91906017F6F6C0E806F060E67
:10552000816FB2EC34F0E806D8A499EF2AF09BEF33
:105530002AF09CEF2AF000F0A7EC34F0E806D8A49B
:10554000A4EF2AF0A6EF2AF0A7EF2AF000F09CECD7
:1055500034F0E806D8A4AFEF2AF0B1EF2AF0B2EFAA
:105560002AF000F077EC34F0E806D8A4BAEF2AF07D
:10557000BCEF2AF0BDEF2AF000F0000ED3EC32F0C1
:105580000501D96FD9A1C7EF2AF0C9EF2AF0D1EFF1
:105590002AF07B0EC66F060EC76F000E93EC2DF03F
:1055A00000F01200060182518311D8B4DAEF2AF01C
:1055B000DCEF2AF0E8EF2AF002D8E8EF2AF0050045
:1055C000FA6E8251FD6E8351FE6EFF6AFA50120030
:1055D000A4EC35F00501AF2B060EAF19D8A4F3EFFC
:1055E0002AF0F5EF2AF0F9EF2AF0000EAF6F1DEC6C
:1055F00033F00501AE2B0B0EAE19D8A402EF2BF041
:1056000004EF2BF008EF2BF0000EAE6FA1EC35F09D
:105610000501AD2B650EAD19D8A411EF2BF013EFDA
:105620002BF017EF2BF0000EAD6FA3EC35F0060159
:10563000524B532B2D0E521906E15305D8A423EFDC
:105640002BF025EF2BF02BEF2BF0000E536F000EFD
:10565000526FA0EC35F00601504B512B590E5019EA
:1056600007E1020E5119D8A438EF2BF03AEF2BF0D6
:1056700040EF2BF0000E516F000E506FA2EC35F092
:105680001200000ECFB4010E016E000ECEB2010E5C
:10569000026E00F00104D8A450EF2BF052EF2BF073
:1056A00061EF2BF00250D8A458EF2BF05AEF2BF0FB
:1056B00061EF2BF0010E05018E6F91C590F5A5EFFE
:1056C0002BF00150D8A467EF2BF069EF2BF078EFA7
:1056D0002BF00204D8A46FEF2BF071EF2BF078EFD2
:1056E0002BF0020E05018E6F91C58FF5A5EF2BF003
:1056F0000150D8A47EEF2BF080EF2BF08DEF2BF034
:105700000250D8A486EF2BF088EF2BF08DEF2BF012
:10571000030E05018E6FA5EF2BF00104D8A493EFC3
:105720002BF095EF2BF0A2EF2BF00204D8A49BEF07
:105730002BF09DEF2BF0A2EF2BF0040E05018E6FE6
:10574000A5EF2BF0050E05018E6F1200000E036E03
:10575000000E0A6E0A50020DFD0EF324D96E050EDE
:10576000F420DA6EDF50066E065090EC34F0056ED1
:1057700005A0BDEF2BF0BFEF2BF000EF2CF0065093
:105780005AEC34F0076E05A6C8EF2BF0CAEF2BF0E9
:10579000CEEF2BF007C504F5FEEF2BF006500C0DF5
:1057A000550EF324D96E010EF420DA6EDF501F0B74
:1057B000086E0A50020DFE0EF324D96E050EF42079
:1057C000DA6EDF50096E0950085CD8B0EAEF2BF0B2
:1057D000ECEF2BF0F2EF2BF00950085C0724046E7D
:1057E000FEEF2BF00850095CD8B0F9EF2BF0FBEF7F
:1057F0002BF0CAEF2BF00950085C046E045003260E
:105800000A2A0A50D8B407EF2CF009EF2CF0AAEFBF
:105810002BF003501200000E0501B56FB3BF15EF5A
:105820002CF013EF2CF01BEF2CF0B26DB31FD8B09F
:10583000B32B010EB56FB1BF22EF2CF020EF2CF08F
:1058400028EF2CF0B06DB11FD8B0B12B010EB51BF5
:10585000000EB76F000EB66FB251B311D8B433EF6C
:105860002CF035EF2CF05DEF2CF0010EB46F3DEF16
:105870002CF0D890B237B337B42BB3AF42EF2CF043
:1058800044EF2CF039EF2CF0D890B637B737B2513F
:10589000B05DB351B159D8A050EF2CF052EF2CF0BD
:1058A00057EF2CF0B251B05FB351B15BB681D890D5
:1058B000B333B233B42F44EF2CF0B551D8B463EF07
:1058C0002CF065EF2CF069EF2CF0B66DB71FD8B057
:1058D000B72BB6C5B0F5B7C5B1F51200000ECFB401
:1058E000010E0501B06F000ECEB2010EB16F00F0D7
:1058F0000501B005D8A47FEF2CF081EF2CF08FEFDD
:105900002CF0B151D8A487EF2CF089EF2CF08FEF59
:105910002CF0010E8E6F91C590F5CFEF2CF0B051A9
:10592000D8A495EF2CF097EF2CF0A5EF2CF0B10553
:10593000D8A49DEF2CF09FEF2CF0A5EF2CF0020ED9
:105940008E6F91C58FF5CFEF2CF0B051D8A4ABEF8F
:105950002CF0ADEF2CF0B9EF2CF0B151D8A4B3EF8F
:105960002CF0B5EF2CF0B9EF2CF0030E8E6FCFEFCB
:105970002CF0B005D8A4BFEF2CF0C1EF2CF0CDEF88
:105980002CF0B105D8A4C7EF2CF0C9EF2CF0CDEF67
:105990002CF0040E8E6FCFEF2CF0050E8E6F1200E0
:1059A0000501CE51CA5DB06FCF51CB59B16FD05107
:1059B000CC59B26FD151CD59B36F640EB46F000E94
:1059C000B56F000EB66F000EB76FA2EC30F0B0C529
:1059D000BCF5B1C5BDF5B2C5BEF5B3C5BFF5050192
:1059E000CE51D25DC06FCF51D359C16FD051D45970
:1059F000C26FD151D559C36F23EC23F0BCC5CAF592
:105A0000BDC5CBF5BEC5CCF5BFC5CDF50501CDBF38
:105A10000EEF2DF00CEF2DF018EF2DF0000ECA6FE9
:105A2000000ECB6F000ECC6F000ECD6F30EF2DF05F
:105A3000CDBF26EF2DF0CD51CC11CB1109E1650E74
:105A4000CA5DD8A026EF2DF028EF2DF030EF2DF015
:105A5000640ECA6F000ECB6F000ECC6F000ECD6FC0
:105A6000CA5112006100D8F35CF56100DCF35DF50A
:105A70006100E0F35EF56100D4F35FF5A1AE43EFA2
:105A80002DF045EF2DF050EF2DF0B1AE4AEF2DF097
:105A90004CEF2DF050EF2DF0ECEC32F086EF2DF0C6
:105AA000A1A855EF2DF057EF2DF062EF2DF0B1A822
:105AB0005CEF2DF05EEF2DF062EF2DF0B7EC32F0E1
:105AC00086EF2DF09EAC67EF2DF069EF2DF074EFAF
:105AD0002DF0AEAC6EEF2DF070EF2DF074EF2DF0D9
:105AE000E0EC21F086EF2DF0A2A879EF2DF07BEF0E
:105AF0002DF086EF2DF0B2A880EF2DF082EF2DF083
:105B000086EF2DF0BDEC33F086EF2DF061007CF5D3
:105B1000F5F4610078F5F8F4610074F5F7F46100CC
:105B200070F5F6F411000501CB6F0501CB5117ECB0
:105B300032F00009D8B49FEF2DF0A1EF2DF0E1EF86
:105B40002DF0C6C5B1F5C7C5B2F50501CB5109ECBD
:105B500029F00501C86FC851D8A4B1EF2DF0B3EFFB
:105B60002DF0E1EF2DF0CB510C0D580EF324D96E32
:105B7000010EF420DA6E610078F3C9F5610074F368
:105B8000CAF5C951CA11D8B4C8EF2DF0CAEF2DF02B
:105B9000E1EF2DF0C9C5BBF5CAC5BCF5C6C5BDF55D
:105BA000C7C5BEF505EC1BF00501CB510C0D510E20
:105BB000F324D96E010EF420DA6E030EDF12E1EF4A
:105BC0002DF012000501E36F05019205D8A4EBEF5B
:105BD0002DF0EDEF2DF024EF2EF0E3513C0D6100A0
:105BE000CCF36EF56100D0F36FF56EC5B0F56FC5FF
:105BF000B1F5000EB36F640EB26F80EC2FF0B0C53C
:105C00006EF5B1C56FF505016E516E6F6F6B9451F6
:105C1000E219D8A40EEF2EF010EF2EF02EEF2EF09A
:105C2000040E8E6116EF2EF018EF2EF02EEF2EF0F0
:105C30006EC5D8F56FC5D9F5010EDB6F2C0EDA6F86
:105C40002EEC27F02EEF2EF0000ED96F000ED86F3D
:105C5000010EDB6F2C0EDA6F2EEC27F0120005011F
:105C6000B26F000E0501B16F89EC35F00501B06F20
:105C7000040EB019D8B43FEF2EF041EF2EF052EFE2
:105C80002EF0B205D8B447EF2EF049EF2EF052EFC8
:105C90002EF0040EB219D8A450EF2EF052EF2EF0D1
:105CA00077EF2EF0010103510501B219F80BB2197B
:105CB0000101036F69EF2EF001011DA962EF2EF0C3
:105CC00064EF2EF069EF2EF0020E0501B16F79EF4F
:105CD0002EF00239E832070B0501B219D8A473EF90
:105CE0002EF075EF2EF05CEF2EF079EF2EF0010E16
:105CF000B16FB1511200346E05019205D8A483EF43
:105D00002EF085EF2EF0BCEF2EF034503C0D6100EC
:105D1000CCF36EF56100D0F36FF56EC501F56FC57C
:105D200002F5000E046E640E036E2FEC30F001C518
:105D30006EF502C56FF505016E516E6F6F6B945174
:105D40003318D8A4A6EF2EF0A8EF2EF0C6EF2EF051
:105D5000040E8E61AEEF2EF0B0EF2EF0C6EF2EF0F7
:105D60006EC529F56FC52AF5010E2C6E2C0E2B6E13
:105D70001DEC28F0C6EF2EF0000E2A6E000E296EE4
:105D8000010E2C6E2C0E2B6E1DEC28F01200000E56
:105D9000BE6E000EBF6E000EC06E080ECA6EDE0E26
:105DA000C66ECC0EC76E070EC86EE70E0401106FEC
:105DB000730E086FFD0E006F000E216F000E096F4D
:105DC000000E016F000E116F000E026F000E0A6FC1
:105DD000180E126F03690B69136904690C69146961
:105DE000080E246F0F0E0201696F140E706F1A0EE9
:105DF0000A6F370E146F180E096F380E156F0B0EE1
:105E00003D6F460E0D6F130E716F1200560E050199
:105E1000B06F6B0EB16F5CEC35F0580E0501B06FD2
:105E20006B0EB16F61EC35F05A0E0501B06F6B0E61
:105E3000B16F66EC35F0540E0501B06F6B0EB16FAB
:105E400057EC35F0500E0501B06F6B0EB16F4DEC95
:105E500035F04E0E0501B06F6B0EB16F48EC35F0AA
:105E6000520E0501B06F6B0EB16F52EC35F0AE9C67
:105E7000000E01011C6F000E1D6F0A0E1E6FFC0E3E
:105E80001F6F9E8C120076C5CAF577C5CBF505014C
:105E9000CC6BCD6B46C6CEF547C6CFF5D06BD16B7C
:105EA00044C6D2F545C6D3F5D46BD56BD0EC2CF0F7
:105EB00005018C6F74C5CAF575C5CBF5CC6BCD6B80
:105EC00042C6CEF543C6CFF5D06BD16B40C6D2F5F6
:105ED00041C6D3F5D46BD56BD0EC2CF005018B6F9C
:105EE0008C518B25B06FB16BB137000EB36F020EC2
:105EF000B26F0BEC2CF00501B051AC6F00F012004A
:105F0000000E0501B56F000EB46FB251B311D8B4D5
:105F10008CEF2FF08EEF2FF0B6EF2FF0010EB66F53
:105F200096EF2FF0D890B237B337B62BB3AF9BEFC5
:105F30002FF09DEF2FF092EF2FF0D890B437B537B8
:105F4000B251B05DB351B159D8A0A9EF2FF0ABEF6A
:105F50002FF0B0EF2FF0B251B05FB351B15BB4810D
:105F6000D890B333B233B62F9DEF2FF0B4C5B0F550
:105F7000B5C5B1F51200000E6F6E020E706E000E08
:105F8000716E3D0E726E000E736EFE0E746E000E1C
:105F9000756E000E766E000E776E000E796E1F0E17
:105FA0007A6E000E7B6E1F0E7C6E000E7D6EB39CB3
:105FB000B39E76907692A39EA39C000E0501B06FCF
:105FC000000EB16F2AEC35F0000E0501B06F000E27
:105FD000B16F25EC35F0000E0501B06F000EB16F0A
:105FE0002FEC35F0800E786E1200000E606E020EFF
:105FF000616E000E626E3D0E636E000E646EFE0EEC
:10600000656E000E666E000E676E000E686E000E06
:106010006A6E1F0E6B6E000E6C6E1F0E6D6E000EA4
:106020006E6EB29CB29E67906792A29EA29C000E7A
:106030000501B06F000EB16F39EC35F0000E0501AF
:10604000B06F000EB16F34EC35F0000E0501B06F8B
:10605000000EB16F3EEC35F0800E696E1200000E3E
:10606000066E000E056E03500410D8B43AEF30F0FF
:106070003CEF30F064EF30F0010E076E44EF30F08B
:10608000D89003360436072A04AE49EF30F04BEFC0
:1060900030F040EF30F0D890053606360350015C02
:1060A00004500258D8A057EF30F059EF30F05EEFAF
:1060B00030F00350015E0450025A0580D89004323B
:1060C0000332072E4BEF30F005C501F506C502F58A
:1060D000120000F005019405D8A471EF30F073EFC1
:1060E00030F097EF30F0AB05D8A479EF30F07BEFCC
:1060F00030F07FEF30F0010E926FA1EF30F0000E24
:10610000926F000E2A6E000E296E010E2C6E2C0E60
:106110002B6E1DEC28F0000E2A6E000E296E020E6A
:106120002C6E580E2B6EA7EC27F0A1EF30F0945197
:10613000D8A49DEF30F09FEF30F0A1EF30F07BEF6F
:1061400030F01200000E0501B86F000EB96F000E9E
:10615000BA6F000EBB6FB0A1B0EF30F0B2EF30F00D
:10616000BAEF30F0B451B827B551B923B651BA23BC
:10617000B751BB23D890B437B537B637B737D890B7
:10618000B333B233B133B033B051B111B211B31133
:10619000D8A4CDEF30F0CFEF30F0ABEF30F0B8C592
:1061A000B0F5B9C5B1F5BAC5B2F5BBC5B3F51200C6
:1061B000000E096E000E0A6E000E0B6E000E0C6EC5
:1061C00001A0E5EF30F0E7EF30F0EFEF30F00550F1
:1061D000092606500A2207500B2208500C22D8909C
:1061E0000536063607360836D890043203320232B6
:1061F00001320150021003100410D8A402EF31F054
:1062000004EF31F0E0EF30F009C501F50AC502F501
:106210000BC503F50CC504F51200EE0EF66E690E03
:10622000F76E000EF86E01EE98F210EE0CF0090019
:10623000F5C4EEF4E550E150FAE13C0EF66E6B0E5B
:10624000F76E000EF86E09006100D4F3FDF5090049
:106250006100D4F3FEF501EE00F2820EEE6AE8066C
:10626000FDE101EE60F1500EEE6AE806FDE1040189
:10627000080E5D6F000E5E6F000E5F6F0001F0EFA5
:1062800029F00101018F040E2FEC2EF00009D8A493
:106290004CEF31F04EEF31F06EEF31F0000E0101B6
:1062A0004C6F260E4D6F000E4E6F000E4F6F600E3E
:1062B000006F970E016F100E026FC7EC34F0BDEC4B
:1062C00034F0D3EC33F03AEC34F04CEC33F006EC31
:1062D0002FF0060E2FEC2EF0C79ABF9A1200B2C50F
:1062E000B8F5B3C5B9F5B0C5B6F5B1C5B7F58EEF1C
:1062F00031F06100E0F6D9F46100E4F6DAF4DF5041
:10630000BA6FB84BB92B6100D8F6D9F46100DCF64E
:10631000DAF46100E8F6DFF4B64BB72B0501B407F9
:10632000D8A0B507B42906E1B529D8A49AEF31F071
:106330009CEF31F079EF31F0120003C509F504C587
:106340000AF501C507F502C508F5BCEF31F061009B
:1063500024F4D9F4610028F4DAF4DF500B6E094A12
:106360000A2A61001CF4D9F4610020F4DAF4610017
:106370002CF4DFF4074A082A0506D8A006060528EB
:1063800006E10628D8A4C7EF31F0C9EF31F0A7EF36
:1063900031F01200000E246E2450020DFD0EF32485
:1063A000D96E050EF420DA6EDF50176E21C518F590
:1063B00022C519F5245093EC28F0236E2350D8B44D
:1063C000E4EF31F0E6EF31F0E8EF31F0F1EF31F0EA
:1063D000242A2450D8B4EFEF31F0F1EF31F0CCEFB4
:1063E00031F023501200000E03011F6F000E206FCA
:1063F000010E216F850E1D6FEE0E1C6FB1981C51A2
:10640000600074FCB2F50501B36BB2C5B3F5B26BB5
:10641000B211FB6FB351FC6FA1883E0EB06F6B0ED3
:10642000B16F1BEC35F0310E03011E6F1200050138
:10643000B16F000E0501B06F040EB16122EF32F0B2
:1064400024EF32F037EF32F0B1510C0D500EF3243F
:10645000D96E010EF420DA6E0101DFAE32EF32F0B8
:1064600034EF32F037EF32F0010E0501B06F050165
:10647000B0511200036E46EF32F0BE8A5BEF32F08D
:10648000BE9A5BEF32F0BE9A5BEF32F00350016EC2
:10649000026A0250000AD8B450EF32F043EF32F0F3
:1064A0000150000AD8B440EF32F0010AD8B43DEFF1
:1064B00032F043EF32F01200C690C784C682C69A0B
:1064C000C89AC89CC89EC79A000E0501D96F000ED5
:1064D000D86F010EDB6F2C0EDA6F2EEC27F0000E5A
:1064E0000501D96F000ED86F020EDB6F580EDA6F00
:1064F0003CEC26F012000501B46F6100D0F6ECF31D
:106500000301F38FF39DF381F3B189EF32F08BEF49
:1065100032F084EF32F0EB510501B36FB26B03013F
:10652000EA510501B225B06F0301000E0501B32148
:10653000B16F1200010E8BEC22F0B5C576F5B6C531
:1065400077F5020E8BEC22F0B5C574F5B6C575F57E
:10655000030E8BEC22F0B5C572F5B6C573F5040ECB
:106560008BEC22F0B5C570F5B6C571F51200B19887
:10657000FBC501F5FCC502F563EC33F00501784B72
:10658000792B795109E1050E785DD8A0CAEF32F078
:10659000CCEF32F0D0EF32F0000E796F000E786F52
:1065A000D2EC2AF012000501B36F000E0501B26FA4
:1065B000B35117EC32F00009D8B4E1EF32F0E3EF59
:1065C00032F0E9EF32F00501B35169EC34F0050126
:1065D000B26F0501B2511200B19E05017A4B7B2BBF
:1065E0007B5109E10A0E7A5DD8A0F9EF32F0FBEF9A
:1065F00032F002EF33F07AEC33F0000E05017B6FDE
:10660000000E7A6FA6EC35F012000501B06F05019F
:10661000B005D8A40EEF33F010EF33F013EF33F0E2
:106620009E8C1CEF33F0B051D8A419EF33F01BEF60
:1066300033F01CEF33F09E9C1200BEB022EF33F01B
:1066400025EF33F0010E26EF33F0000EFF0A336E14
:10665000BE503318FE0B3318BE6E41EC2BF069ECC4
:1066600030F0000E0501AB6F120094EC35F026EC13
:1066700034F091EC33F063EC1EF0C7EC2EF084ECB8
:1066800034F0F3EC31F012EC34F0BBEC2FF041ECD1
:1066900031F0F5EC2FF01200000E0501B06FB05193
:1066A000020DFE0EF324D96E050EF420DA6E000EF4
:1066B000DF6EB02BB051D8B460EF33F062EF33F03F
:1066C0004FEF33F0120003011EA569EF33F06BEFBB
:1066D00033F074EF33F01E9102501D6F610004F42B
:1066E0001CF31E8179EF33F002501D6F610004F43A
:1066F0001CF31200060184518511D8B482EF33F0E7
:1067000084EF33F090EF33F002D890EF33F00500D0
:10671000FA6E8451FD6E8551FE6EFF6AFA501200CA
:106720001200040E0201946F800E956F180E966F82
:10673000030E9E6F000E9A6F000E9B6F000E976FF8
:10674000000E8C6F000E8D6F000E9D6F1200050104
:10675000B051B2036100CCF3B4F56100D0F3B5F5EC
:10676000B051B303F350B527B151B203F350B5277D
:10677000B4C5B0F5B5C5B1F51200010160A1C3EF14
:1067800033F0C5EF33F0D2EF33F002D8D2EF33F06D
:106790000500FA6E06016251FD6E6351FE6EFF6ADE
:1067A000FA5012001200190E01015C6F040E5D6FA9
:1067B000600E5E6F050E5F6F220E0501B06F6B0EEF
:1067C000B16F43EC35F001011E83B298A28812002C
:1067D000640E050176250601466F000E050177213E
:1067E0000601476F9C0E050174250601426FFF0EDE
:1067F000050175210601436F12000150030261007B
:10680000CCF305F56100D0F306F501500402F35016
:10681000062602500302F350062605C501F506C5FB
:1068200002F51200480E03011B6F610E196F000E76
:10683000186FB19EA18E4A0E0501B06F6B0EB16F3D
:1068400020EC35F0800E03011A6F1200000E0001DB
:10685000606F000E616F000E626F000E636F000EBE
:10686000646F000E656F000E666F000E676F000E9E
:10687000686F12005F0E0101946F956996699769C0
:10688000000E986F000E996F000E9A6F000E9B6FAE
:10689000810E816F1200000E0501D96F000ED86FB6
:1068A000000EDB6F320EDA6F2EEC27F0000E0501C2
:1068B0008E6F1200026E02500C0D530EF324D96E2F
:1068C000010EF420DA6EDF50016E1F0E0116012852
:1068D00012000501B06F0501B0510C0D540EF324E8
:1068E000D96E010EF420DA6EDF50010B1200A7EC16
:1068F00034F00009D8B47FEF34F082EF34F0010EA9
:1069000083EF34F0000E1200700E0001AD6F000E28
:10691000AF6F000EB36F020EB16F000EB06F1200BA
:10692000016E01500C0D540EF324D96E010EF420AB
:10693000DA6EDF50090B1200010136B5A2EF34F018
:10694000A5EF34F0010EA6EF34F0000E12000101A5
:1069500036B9ADEF34F0B0EF34F0010EB1EF34F0F2
:10696000000E1200010136BBB8EF34F0BBEF34F07B
:10697000010EBCEF34F0000E1200100E0101506F3A
:10698000040E516F610E526F050E536F1200010E0F
:106990000101046F010E056F060E066F000E076FF2
:1069A0001200070E0601456F620E446F010E416F23
:1069B000040E406F12006100C0F672F40501B1517F
:1069C000736E12006100C0F67AF40501B1517B6E5E
:1069D00012006100C0F663F40501B151646E12004B
:1069E0006100C0F66BF40501B1516C6E120003003A
:1069F00000002003000050C300000501B06F6100DB
:106A0000C0F6FBF31200610004F472F40250736EDE
:106A10001200610004F47AF402507B6E12006100EF
:106A200004F463F40250646E1200610004F46BF429
:106A300002506C6E1200B0C582F6B1C583F612002A
:106A4000B0C584F6B1C585F61200B0C594F6B1C5DF
:106A500095F61200B0C596F6B1C597F61200B0C50E
:106A600092F6B1C593F61200B0C57EF5B1C57FF5BB
:106A70001200B0C580F5B1C581F51200B0C57CF536
:106A8000B1C57DF51200B0C562F6B1C563F612005E
:106A9000B0C556F6B1C557F61200B0C558F6B1C527
:106AA00059F61200B0C554F6B1C555F61200B0C57E
:106AB0005AF6B1C55BF61200B0C560F6B1C561F615
:106AC0001200B0C55EF6B1C55FF61200B0C55CF647
:106AD000B1C55DF61200B0C588F6B1C589F61200E1
:106AE000B0C58AF6B1C58BF61200B0C58CF6B1C53B
:106AF0008DF61200B0C58EF6B1C58FF61200B0C586
:106B000086F6B1C587F61200B0C590F6B1C591F60C
:106B1000120001010239E832070B12000301F39B56
:106B200012004DEC1DF01200D69A1200788412006B
:106B30006984120078841200698412000100120036
:106B400012001200120012001200120012001200B5
:0C6B5000120012001200120012001200CD
:020000040020DA
:10000000FF0FFF0FFF0FFF0FFF0FFF0FFF0FFF0F80
:10001000FF0FFF0FFF0FFF0FFF0FFF0FFF0FFF0F70
:020000040030CA
:10000000FAEFF7DF9FFFFFFFFFFFFFFFFFFFFFFF9D
:10001000FFFFFFFFFFFFFFFFFFFFFFFFFFFFFFFFF0
:04002000FFFFFFFFE0
:00000001FF
