:040000000DEF00F010
:0400080011EF33F0D1
:06001800FF008EEF35F041
:1025000000000000000000000000000000000000CB
:1025100000000000000000000000000000000000BB
:102520000000000000000000010203040506070887
:102530005001526561643A206E6F6E2D766F6C614A
:1025400074696C6520766F6C746167652076616C68
:1025500075652025662C20616E6420766F6C617431
:10256000696C6520766F6C746167652076616C7547
:10257000652025660053657420746865206E6F6E53
:102580002D766F6C6174696C6520766F6C74616711
:102590006520746F203156200A00536574207468DA
:1025A0006520766F6C6174696C6520766F6C746100
:1025B000676520746F203256200A0000BEC597F56B
:1025C000BFC598F5C0C599F5C1C59AF5C2C59BF5BB
:1025D000C3C59CF5C4C59DF5C5C59EF532EC39F063
:1025E00097C5DEF598C5DFF599C5E0F59AC5E1F523
:1025F000BCC5D9F4BDC5DAF4DEC47EF5DEC47FF512
:10260000DEC480F5DEC481F5DEC582F5DFC583F565
:10261000E0C584F5E1C585F5BEEC1AF07EC5C6F5CA
:102620007FC5C7F580C5C8F581C5C9F5000E050190
:10263000826F000E836F000E846F3F0E856F20EE59
:1026400004F0BC51D926BD51DA22DEC47EF5DEC4C9
:102650007FF5DEC480F5DEC481F5BEEC1AF07EC5E0
:10266000D6F57FC5D7F580C5D8F581C5D9F5050163
:1026700020EE20F0BC51D926BD51DA22DEC482F50D
:10268000DEC483F5DEC484F5DEC485F5D6C57EF5EB
:10269000D7C57FF5D8C580F5D9C581F5BEEC1AF050
:1026A0007EC5DAF57FC5DBF580C5DCF581C5DDF5D6
:1026B000DAC582F5DBC583F5DCC584F5DDC585F5B6
:1026C000DEC572F5DFC573F5E0C574F5E1C575F5D6
:1026D000050120EE28F0BC51D926BD51DA22DEC416
:1026E0006EF5DEC46FF5DEC470F5DEC471F5FDEC89
:1026F00015F06EC57EF56FC57FF570C580F571C5A7
:1027000081F5BEEC1AF07EC5CAF57FC5CBF580C554
:10271000CCF581C5CDF5CAC56EF5CBC56FF5CCC579
:1027200070F5CDC571F5050120EE24F0BC51D92618
:10273000BD51DA22DEC472F5DEC473F5DEC474F571
:10274000DEC475F5FDEC15F0050120EE24F0BC515A
:10275000D926BD51DA226EC5DEF46FC5DEF470C530
:10276000DEF471C5DEF420EE20F0BC51D926BD5157
:10277000DA22DEC49BF5DEC49CF5DEC49DF5DEC422
:102780009EF5000E826F000E836F000E846F400E68
:10279000856F20EE0CF0BC51D926BD51DA22DEC483
:1027A0007EF5DEC47FF5DEC480F5DEC481F5BEECC7
:1027B0001AF07EC597F57FC598F580C599F581C556
:1027C0009AF532EC39F097C5D6F598C5D7F599C585
:1027D000D8F59AC5D9F5000E0501826F000E836FFA
:1027E000000E846F400E856F20EE08F0BC51D92694
:1027F000BD51DA22DEC47EF5DEC47FF5DEC480F58D
:10280000DEC481F5BEEC1AF07EC5DAF57FC5DBF5D6
:1028100080C5DCF581C5DDF5050120EE30F0BC5149
:10282000D926BD51DA22DEC49BF5DEC49CF5DEC498
:102830009DF5DEC49EF5C2C597F5C3C598F5C4C520
:1028400099F5C5C59AF532EC39F097C582F598C56A
:1028500083F599C584F59AC585F5DAC57EF5DBC59E
:102860007FF5DCC580F5DDC581F5BEEC1AF07EC5CF
:10287000CEF57FC5CFF580C5D0F581C5D1F5050171
:1028800020EE2CF0BC51D926BD51DA22DEC482F5EF
:10289000DEC483F5DEC484F5DEC485F5D6C57EF5D9
:1028A000D7C57FF5D8C580F5D9C581F5BEEC1AF03E
:1028B0007EC572F57FC573F580C574F581C575F564
:1028C000CEC56EF5CFC56FF5D0C570F5D1C571F524
:1028D000FDEC15F06EC59FF56FC5A0F570C5A1F5AF
:1028E00071C5A2F594EC3AF09FC5A3F5A0C5A4F577
:1028F000A1C5A5F5A2C5A6F5050120EE20F0BC51A5
:10290000D926BD51DA22DEC472F5DEC473F5DEC409
:1029100074F5DEC475F5000E826F000E836F000E35
:10292000846F400E856F20EE0CF0BC51D926BD514E
:10293000DA22DEC47EF5DEC47FF5DEC480F5DEC4B7
:1029400081F5BEEC1AF07EC56EF57FC56FF580C5CA
:1029500070F581C571F5FDEC15F06EC5A7F56FC575
:10296000A8F570C5A9F571C5AAF5D4EC1CF0050150
:1029700020EE2CF0BC51D926BD51DA22A3C5DEF4DD
:10298000A4C5DEF4A5C5DEF4A6C5DEF4000E606FB6
:10299000000E616F000E626F400E636F20EE2CF030
:1029A000BC51D926BD51DA22DEC464F5DEC465F51A
:1029B000DEC466F5DEC467F59EEC2BF00501D8A0F9
:1029C000E4EF14F0E6EF14F006EF15F020EE2CF033
:1029D000BC51D926BD51DA22DEC460F5DEC461F5F2
:1029E000DEC462F5DEC463F5000E646F000E656F31
:1029F000000E666FC00E676F9EEC2BF00501D8B01D
:102A000004EF15F006EF15F014EF15F020EE24F0AA
:102A1000BC51D926BD51DA22000EDE6E000EDE6EEC
:102A2000000EDE6E000EDD6EC6C572F5C7C573F50D
:102A3000C8C574F5C9C575F520EE24F0BC51D9267A
:102A4000BD51DA22DEC46EF5DEC46FF5DEC470F56A
:102A5000DEC471F5FDEC15F06EC5D2F56FC5D3F58A
:102A600070C5D4F571C5D5F5D2C56EF5D3C56FF572
:102A7000D4C570F5D5C571F5050120EE2CF0BC511B
:102A8000D926BD51DA22DEC472F5DEC473F5DEC488
:102A900074F5DEC475F5FDEC15F0050120EE34F09B
:102AA000BC51D926BD51DA226EC5DEF46FC5DEF405
:102AB00070C5DEF471C5DEF420EE14F0BC51D926E9
:102AC000BD51DA22DEC460F5DEC461F5DEC462F514
:102AD000DEC463F520EE34F0BC51D926BD51DA22B4
:102AE000DEC464F5DEC465F5DEC466F5DEC467F5F4
:102AF0009EEC2BF00501D8B080EF15F082EF15F0B9
:102B000098EF15F020EE14F0BC51D926BD51DA2211
:102B100010EE34F0BC51E126BD51E222DEC4E6F4F1
:102B2000DEC4E6F4DEC4E6F4DEC4E6F4D2EF15F06B
:102B300020EE34F0BC51D926BD51DA22DEC460F556
:102B4000DEC461F5DEC462F5DEC463F520EE10F08C
:102B5000BC51D926BD51DA22DEC464F5DEC465F568
:102B6000DEC466F5DEC467F59EEC2BF00501D8B037
:102B7000BCEF15F0BEEF15F0D2EF15F020EE10F01F
:102B8000BC51D926BD51DA2210EE34F0BC51E126F9
:102B9000BD51E222DEC4E6F4DEC4E6F4DEC4E6F4AF
:102BA000DEC4E6F420EE28F0BC51D926BD51DA226D
:102BB000DEC5DEF4DFC5DEF4E0C5DEF4E1C5DEF43B
:102BC00020EE30F0BC51D926BD51DA22C2C5DEF468
:102BD000C3C5DEF4C4C5DEF4C5C5DEF420EE34F0B2
:102BE000BC51D926BD51DA22DEC4BCF5DEC4BDF528
:102BF000DEC4BEF5DEC4BFF5120005017151800BC5
:102C00007A6F715171257C6F70AF09EF16F00BEF81
:102C100016F00CEF16F07C817C51D8B412EF16F050
:102C200014EF16F029EF16F07C29D8A41AEF16F04D
:102C30001CEF16F024EF16F0000E6E6F000E6F6F93
:102C4000000E706F000E716F708F000E716F31EF9C
:102C500016F0000E6E6F000E6F6F000E706F000E9C
:102C6000716F7551800B7B6F7A517B19D8B43BEF34
:102C700016F03DEF16F03EEF16F07A8D7551752582
:102C80007B6F74AF46EF16F048EF16F049EF16F081
:102C90007B817B51D8B44FEF16F051EF16F066EF01
:102CA00016F07B29D8A457EF16F059EF16F061EF14
:102CB00016F0000E726F000E736F000E746F000E30
:102CC000756F748F000E756F6EEF16F0000E726FD9
:102CD000000E736F000E746F000E756F7C517B5D7C
:102CE000D8B075EF16F077EF16F09EEF16F07AADCC
:102CF0007CEF16F07EEF16F080EF16F0800E7A1B58
:102D00007CC57DF57BC57CF57DC57BF56EC57DF508
:102D100072C56EF57DC572F56FC57DF573C56FF52E
:102D20007DC573F570C57DF574C570F57DC574F509
:102D300071C57DF575C571F57DC575F5000E7D6FA5
:102D40007C517BC576F5776B765F000E775B77BF3E
:102D5000B3EF16F0775109E11A0E765DD8A0B3EF04
:102D600016F0B5EF16F0ECEF16F06E516F11701112
:102D70007111D8A4BEEF16F0C1EF16F0010EC2EF2C
:102D800016F0000E7D6F000E6E6F000E6F6F000E5E
:102D9000706F000E716F7BC57CF5F5EF16F07DA1AD
:102DA000D4EF16F0D6EF16F0DCEF16F0D8907D31A8
:102DB00001097D6FDEEF16F0D8907D336EA1E3EF51
:102DC00016F0E5EF16F0E6EF16F07D8F71357133F2
:102DD00070336F336E337C2B7B517C5DD8A0F3EF67
:102DE00016F0F5EF16F0CFEF16F07ABDFAEF16F009
:102DF000FCEF16F03CEF17F07C51D8A402EF17F06F
:102E000004EF17F00EEF17F0000E6E6F000E6F6FED
:102E1000000E706F000E716F5DEF18F072516E272B
:102E200073516F23745170237551712371A11BEF7E
:102E300017F01DEF17F0C9EF17F07DA122EF17F083
:102E400024EF17F02AEF17F0D8907D3101097D6F3C
:102E50002CEF17F0D8907D336EA131EF17F033EFE0
:102E600017F034EF17F07D8F7135713370336F3396
:102E70006E337C2BC9EF17F072516E5D73516F5931
:102E8000745170597151800A766F7551800A765964
:102E9000D8B04DEF17F04FEF17F07AEF17F06E51F3
:102EA000725D766F6F517359776F70517459786F87
:102EB00071517559796FFF0E76256E6FFF0E772170
:102EC0006F6FFF0E7821706FFF0E7921716F800E8A
:102ED0007A1B7D6D7D51D8A470EF17F072EF17F05B
:102EE00082EF17F0010E6E27000E6F2370237123FF
:102EF00082EF17F072516E5F73516F5B7451705BAC
:102F00007551715B6E516F1170117111D8A48BEFF7
:102F100017F08DEF17F0C2EF17F07D51D8A493EFA3
:102F200017F095EF17F0C2EF17F0000E6E6F000E5E
:102F30006F6F000E706F000E716F5DEF18F0D8901C
:102F40006E376F37703771377DAFA9EF17F0ABEF82
:102F500017F0ACEF17F06E817DA1B1EF17F0B3EF72
:102F600017F0B7EF17F0D8807D37B9EF17F0D8908A
:102F70007D377C51D8B4BFEF17F0C1EF17F0C2EF27
:102F800017F07C0770AFC7EF17F0C9EF17F09FEF8E
:102F900017F0000E7B6F7DAFD0EF17F0D2EF17F078
:102FA000EAEF17F07DC576F57F0E7617D8B4DBEF24
:102FB00017F0DDEF17F0E1EF17F0010E7B6FEAEF8E
:102FC00017F06EA1E6EF17F0E8EF17F0EAEF17F051
:102FD000DDEF17F07B51D8B4F0EF17F0F2EF17F0F8
:102FE0001DEF18F0010E6E27000E6F237023712362
:102FF00071A1FDEF17F0FFEF17F01DEF18F06EC590
:1030000076F56FC577F570C578F571C579F57935C1
:10301000793378337733763376C56EF577C56FF5C8
:1030200078C570F579C571F57C29D8B41AEF18F018
:103030001CEF18F01DEF18F07C2B7C29D8B423EF7F
:1030400018F025EF18F02DEF18F07C51D8A42BEFD5
:1030500018F02DEF18F03FEF18F0000E6E6F000E15
:103060006F6F000E706F000E716F7C51D8A43BEF34
:1030700018F03DEF18F03FEF18F0000E7A6F7CA1CA
:1030800044EF18F046EF18F049EF18F0708F4AEF50
:1030900018F0709FD8907C31716F7AAF52EF18F0B2
:1030A00054EF18F055EF18F0718F6EC56EF56FC5BF
:1030B0006FF570C570F571C571F512001250800B77
:1030C0001B6E125012241D6E11AE69EF18F06BEFDB
:1030D00018F06CEF18F01D801D50D8B472EF18F086
:1030E00074EF18F089EF18F01D28D8A47AEF18F0C3
:1030F0007CEF18F084EF18F0000E0F6E000E106ECB
:10310000000E116E000E126E118E000E126E91EFF7
:1031100018F0000E0F6E000E106E000E116E000EF5
:10312000126E1650800B1C6E1B501C18D8B49BEFEF
:1031300018F09DEF18F09EEF18F01B8C1650162417
:103140001C6E15AEA6EF18F0A8EF18F0A9EF18F056
:103150001C801C50D8B4AFEF18F0B1EF18F0C6EFD8
:1031600018F01C28D8A4B7EF18F0B9EF18F0C1EF89
:1031700018F0000E136E000E146E000E156E000E89
:10318000166E158E000E166ECEEF18F0000E136E32
:10319000000E146E000E156E000E166E1D501C5C97
:1031A000D8B0D5EF18F0D7EF18F0FEEF18F01BAC41
:1031B000DCEF18F0DEEF18F0E0EF18F0800E1B1ACD
:1031C0001DC51EF51CC51DF51EC51CF50FC51EF53C
:1031D00013C50FF51EC513F510C51EF514C510F562
:1031E0001EC514F511C51EF515C511F51EC515F53D
:1031F00012C51EF516C512F51EC516F5000E1E6E7B
:103200001D501CC517F5186A175E000E185A18BE17
:1032100013EF19F0185009E11A0E175CD8A013EF3C
:1032200019F015EF19F04CEF19F00F5010101110A4
:103230001210D8A41EEF19F021EF19F0010E22EFA1
:1032400019F0000E1E6E000E0F6E000E106E000EB6
:10325000116E000E126E1CC51DF555EF19F01EA063
:1032600034EF19F036EF19F03CEF19F0D8901E301A
:1032700001091E6E3EEF19F0D8901E320FA043EFE9
:1032800019F045EF19F046EF19F01E8E1234123284
:10329000113210320F321D2A1C501D5CD8A053EF82
:1032A00019F055EF19F02FEF19F01BBC5AEF19F078
:1032B0005CEF19F09CEF19F01D50D8A462EF19F0E3
:1032C00064EF19F06EEF19F0000E0F6E000E106E25
:1032D000000E116E000E126EBDEF1AF013500F2685
:1032E00014501022155011221650122212A07BEFFA
:1032F00019F07DEF19F029EF1AF01EA082EF19F0F6
:1033000084EF19F08AEF19F0D8901E3001091E6E73
:103310008CEF19F0D8901E320FA091EF19F093EFB7
:1033200019F094EF19F01E8E12341232113210324D
:103330000F321D2A29EF1AF013500F5C1450105849
:10334000155011581250800A176E1650800A1758DF
:10335000D8B0ADEF19F0AFEF19F0DAEF19F00F5068
:10336000135C176E10501458186E11501558196EC2
:10337000125016581A6EFF0E17240F6EFF0E1820EB
:10338000106EFF0E1920116EFF0E1A20126E800EA5
:103390001B1A1E6C1E50D8A4D0EF19F0D2EF19F0F2
:1033A000E2EF19F0010E0F26000E10221122122258
:1033B000E2EF19F013500F5E1450105A1550115AC5
:1033C0001650125A0F50101011101210D8A4EBEF13
:1033D00019F0EDEF19F022EF1AF01E50D8A4F3EF18
:1033E00019F0F5EF19F022EF1AF0000E0F6E000E33
:1033F000106E000E116E000E126EBDEF1AF0D89016
:103400000F361036113612361EAE09EF1AF00BEFDA
:103410001AF00CEF1AF00F801EA011EF1AF013EF44
:103420001AF017EF1AF0D8801E3619EF1AF0D8905C
:103430001E361D50D8B41FEF1AF021EF1AF022EFFC
:103440001AF01D0611AE27EF1AF029EF1AF0FFEF60
:1034500019F0000E1C6E1EAE30EF1AF032EF1AF0AB
:103460004AEF1AF01EC517F57F0E1716D8B43BEFBA
:103470001AF03DEF1AF041EF1AF0010E1C6E4AEF00
:103480001AF00FA046EF1AF048EF1AF04AEF1AF0C0
:103490003DEF1AF01C50D8B450EF1AF052EF1AF06A
:1034A0007DEF1AF0010E0F26000E102211221222BB
:1034B00012A05DEF1AF05FEF1AF07DEF1AF00FC562
:1034C00017F510C518F511C519F512C51AF51A34F6
:1034D0001A3219321832173217C50FF518C510F500
:1034E00019C511F51AC512F51D28D8B47AEF1AF0CE
:1034F0007CEF1AF07DEF1AF01D2A1D28D8B483EF57
:103500001AF085EF1AF08DEF1AF01D50D8A48BEF4A
:103510001AF08DEF1AF09FEF1AF0000E0F6E000EEA
:10352000106E000E116E000E126E1D50D8A49BEF8F
:103530001AF09DEF1AF09FEF1AF0000E1B6E1DA0FF
:10354000A4EF1AF0A6EF1AF0A9EF1AF0118EAAEF65
:103550001AF0119ED8901D30126E1BAEB2EF1AF009
:10356000B4EF1AF0B5EF1AF0128E0FC50FF510C5B3
:1035700010F511C511F512C512F5120005018151A2
:10358000800B8A6F81518125906F80AFCAEF1AF04E
:10359000CCEF1AF0CDEF1AF090819051D8B4D3EF60
:1035A0001AF0D5EF1AF0E8EF1AF09029D8A4DBEF63
:1035B0001AF0DDEF1AF0E5EF1AF0000E7E6F000E44
:1035C0007F6F000E806F000E816F808FF0EF1AF01A
:1035D000000E7E6F000E7F6F000E806F000E816FF9
:1035E0008551800B8A1B855185258F6F84AFFBEF3A
:1035F0001AF0FDEF1AF0FEEF1AF08F818F51D8B458
:1036000004EF1BF006EF1BF019EF1BF08F29D8A475
:103610000CEF1BF00EEF1BF016EF1BF0000E826F8D
:10362000000E836F000E846F000E856F848F21EF74
:103630001BF0000E826F000E836F000E846F000E71
:10364000856F8F51D8B427EF1BF029EF1BF031EFB6
:103650001BF09051D8A42FEF1BF031EF1BF03BEF84
:103660001BF0000E7E6F000E7F6F000E806F000E4D
:10367000816FD3EF1CF084517E03F3C495F5F4C43D
:1036800096F595518B6F8C6B8D6B8E6B9651916F00
:10369000926B936B946B83517F03F3C495F5F4C4E1
:1036A00096F595518B27000E8C238D238E239651F2
:1036B0009127000E92239323942382518003F3C415
:1036C00095F5F4C496F595518B27000E8C238D2328
:1036D0008E2396519127000E9223932394238DC518
:1036E0008EF58CC58DF58BC58CF58B6B82517F0368
:1036F000F3C495F5F4C496F595518B2796518C2318
:10370000000E8D23000E8E2383517E03F3C495F5A6
:10371000F4C496F595518B2796518C23000E8D237A
:10372000000E8E238DC58EF58CC58DF58BC58CF561
:103730008B6B82517E03F3C495F5F4C496F59551D5
:103740008B2796518C23000E8D23000E8E238451DF
:103750007F03F3C495F5F4C496F5955191279651DE
:103760009223000E9323000E942383518003F3C40D
:1037700095F5F4C496F59551912796519223000E34
:103780009323000E942384518003F3C495F5F4C46D
:1037900096F59551866F9651876F886B896B88C5B2
:1037A00089F587C588F586C587F5866B865191278B
:1037B0008751922388519323895194238BC586F591
:1037C0008CC587F58DC588F58EC589F5190EEEEF88
:1037D0001BF0D8908933883387338633E82EE9EF9E
:1037E0001BF0865191278751922388519323895149
:1037F00094238DC58EF58CC58DF58BC58CF58B6BA3
:103800008F5190C586F5876B8627000E8723820E21
:103810008625956FFF0E8721966F24EF1CF0D890B8
:1038200091379237933794378EAF19EF1CF01BEF17
:103830001CF01CEF1CF09181D8908B378C378D37A2
:103840008E379507D8A0960793AF29EF1CF02BEF82
:103850001CF00FEF1CF0000E8F6F8EAF32EF1CF0DC
:1038600034EF1CF058EF1CF0FF0E8B15866FFF0E27
:103870008C15876FFF0E8D15886F7F0E8E15896FE3
:103880008651871188118911D8B449EF1CF04BEF8C
:103890001CF04FEF1CF0010E8F6F58EF1CF091A140
:1038A00054EF1CF056EF1CF058EF1CF04BEF1CF0DF
:1038B0008F51D8B45EEF1CF060EF1CF084EF1CF069
:1038C000010E9127000E92239323942394A16BEF72
:1038D0001CF06DEF1CF084EF1CF091C586F592C5CD
:1038E00087F593C588F594C589F58935893388337B
:1038F0008733863386C591F587C592F588C593F5DC
:1039000089C594F5954B962B96BF8FEF1CF0965179
:1039100008E19529D8A08FEF1CF091EF1CF09BEFE8
:103920001CF0000E916F000E926F800E936F7F0E51
:10393000946FC9EF1CF096BFA8EF1CF0965106E1FA
:103940009505D8B0A6EF1CF0A8EF1CF0B4EF1CF062
:10395000000E916F000E926F000E936F000E946F29
:10396000000E8A6FC9EF1CF095C590F5FF0E9117F8
:10397000FF0E92177F0E9317000E941790A1C3EFBE
:103980001CF0C5EF1CF0C6EF1CF0938FD89090315F
:10399000946F8A51941391C57EF592C57FF593C5B6
:1039A00080F594C581F512000501A651800BB36F17
:1039B000A651A625BA6FA5AFE0EF1CF0E2EF1CF010
:1039C000E3EF1CF0BA81BA51D8B4E9EF1CF0EBEF89
:1039D0001CF000EF1DF0BA29D8A4F1EF1CF0F3EFB2
:1039E0001CF0FBEF1CF0000EA36F000EA46F000E86
:1039F000A56F000EA66FA58F000EA66F08EF1DF035
:103A0000000EA36F000EA46F000EA56F000EA66F30
:103A1000AA51800BB31BAA51AA25BB6FA9AF13EF04
:103A20001DF015EF1DF016EF1DF0BB81BB51D8B492
:103A30001CEF1DF01EEF1DF033EF1DF0BB29D8A4C5
:103A400024EF1DF026EF1DF02EEF1DF0000EA76FE6
:103A5000000EA86F000EA96F000EAA6FA98F000EAE
:103A6000AA6F3BEF1DF0000EA76F000EA86F000EAF
:103A7000A96F000EAA6FA751A811A911AA11D8A465
:103A800044EF1DF046EF1DF05EEF1DF0000EA36F3A
:103A9000000EA46F000EA56F000EA66F800EA5137A
:103AA0007F0EA613B351A613A3C5A3F5A4C5A4F511
:103AB000A5C5A5F5A6C5A6F5A1EF1EF0BA51D8A4D7
:103AC00064EF1DF066EF1DF070EF1DF0000EA36FA8
:103AD000000EA46F000EA56F000EA66FA1EF1EF0E2
:103AE000BB51BAC5ABF5AC6BAB5F000EAC5B7F0EE8
:103AF000AB25B46F000EAC21B56FA3C5AFF5A4C55F
:103B0000B0F5A5C5B1F5A6C5B2F5000EA36F000EC0
:103B1000A46F000EA56F000EA66F000EB66F000E0C
:103B2000B76F000EB86F000EB96F000EBB6FD1EF0C
:103B30001DF0BB51D8B49FEF1DF0A1EF1DF0B8EF01
:103B40001DF0D890AF37B037B137B237D890A33720
:103B5000A437A537A637B9AFB0EF1DF0B2EF1DF00F
:103B6000B3EF1DF0A381D890B637B737B837B93760
:103B7000A751AF5DA851B059A951B159AA51B25935
:103B8000D8A0C5EF1DF0C7EF1DF0D0EF1DF0B98D27
:103B9000A751AF5FA851B05BA951B15BAA51B25B0D
:103BA000BB2B190EBB65D7EF1DF0D9EF1DF099EFB8
:103BB0001DF0AF51B011B111B211D8B4E2EF1DF048
:103BC000E4EF1DF0FCEF1DF0B681FCEF1DF0D89086
:103BD000A337A437A537A637B9AFF1EF1DF0F3EF40
:103BE0001DF0F4EF1DF0A381D890B637B737B83782
:103BF000B937B407D8A0B507A5AF01EF1EF003EFA2
:103C00001EF0E7EF1DF0000EBB6FB9AF0AEF1EF01C
:103C10000CEF1EF030EF1EF0FF0EB615AB6FFF0E6F
:103C2000B715AC6FFF0EB815AD6F7F0EB915AE6F3F
:103C3000AB51AC11AD11AE11D8B421EF1EF023EF92
:103C40001EF027EF1EF0010EBB6F30EF1EF0A3A198
:103C50002CEF1EF02EEF1EF030EF1EF023EF1EF0C3
:103C6000BB51D8B436EF1EF038EF1EF05CEF1EF0FB
:103C7000010EA327000EA423A523A623A6A143EF8C
:103C80001EF045EF1EF05CEF1EF0A3C5ABF5A4C51A
:103C9000ACF5A5C5ADF5A6C5AEF5AE35AE33AD33C5
:103CA000AC33AB33ABC5A3F5ACC5A4F5ADC5A5F539
:103CB000AEC5A6F5B44BB52BB5BF67EF1EF0B55139
:103CC00008E1B429D8A067EF1EF069EF1EF074EF89
:103CD0001EF0000EB56FB469000EA36F000EA46F46
:103CE000000EA56F000EA66FB5BF81EF1EF0B55197
:103CF00006E1B405D8B07FEF1EF081EF1EF08FEF24
:103D00001EF0000EB56F000EB46F000EA36F000E14
:103D1000A46F000EA56F000EA66F000EB36FB4C5A2
:103D2000BAF5BAA196EF1EF098EF1EF09BEF1EF0C9
:103D3000A58F9CEF1EF0A59FD890BA31A66F52EFC9
:103D40001DF012006DC5D9F46EC5DAF4DEC472F54B
:103D5000DEC473F5DEC474F5DEC475F5050120EE2E
:103D600004F06D51D9266E51DA22DFA0BAEF1EF0B1
:103D7000BCEF1EF0F5EF1EF020EE01F06B51D926DE
:103D80006C51DA227239E842F80BF80BDF6E050E3F
:103D90006F6FD89075337433733372336F2FC9EFED
:103DA0001EF020EE02F06B51D9266C51DA2272C55A
:103DB000DFF473C572F574C573F575C574F5756B6D
:103DC00020EE03F06B51D9266C51DA2272511F0B91
:103DD000DF6E050E6F6FD8907533743373337233A3
:103DE0006F2FEBEF1EF00CEF1FF020EE03F06B5186
:103DF000D9266C51DA22DF6A10EE02F06B51E1260F
:103E00006C51E222DFC4E7F420EE01F06B51D926B9
:103E10006C51DA22E7C4DFF46BC5D9F46CC5DAF46F
:103E200072C5DFF473C572F574C573F575C574F5A5
:103E3000756B72C56FF5070E6F1720EE01F06B51B1
:103E4000D9266C51DA226F51DF1220EE04F06D5149
:103E5000D9266E51DA22DF30E8320F0B716F20EE77
:103E600004F06D51D9266E51DA22DFB03AEF1FF01F
:103E70003EEF1FF06F6B6F2B40EF1FF005016F6B74
:103E80006F39F00B711320EE04F06D51D9266E518D
:103E9000DA22DFB24EEF1FF052EF1FF0200E6F6FED
:103EA00054EF1FF005016F6B6F51711320EE04F09A
:103EB0006D51D9266E51DA22DFBE61EF1FF065EF3A
:103EC0001FF0400E6F6F67EF1FF005016F6B6F51B2
:103ED000711320EE04F06D51D9266E51DA22DFBC49
:103EE00074EF1FF078EF1FF0800E6F6F7AEF1FF006
:103EF00005016F6B6F51711320EE04F06B51D926E1
:103F00006C51DA2271C5DFF420EE04F06D51D92630
:103F10006E51DA22DFB28FEF1FF091EF1FF0B9EF91
:103F20001FF0080E6B25606F000E6C21616F20EE94
:103F300005F06D51D9266E51DA22DEC462F5DDC47A
:103F400063F520EE04F06D51D9266E51DA22DF3090
:103F5000E8320F0B6F6F6F51270F706F70C5F6F45B
:103F6000250EF76EF86A0800F550646F656BB8ECC3
:103F700038F0120020EE04F00C50D9260D50DA2251
:103F8000DF50166E16C510F520EE04F00E50D9263F
:103F90000F50DA2210461046DF501018C30B1018CD
:103FA000DF6E16B8D6EF1FF0DAEF1FF0106A102A96
:103FB000DBEF1FF0106A20EE04F00E50D9260F50F0
:103FC000DA22DF501018FE0B1018DF6E16BAEBEF76
:103FD0001FF0EFEF1FF0106A102AF0EF1FF0106AC9
:103FE00020EE04F00E50D9260F50DA221046DF5092
:103FF0001018FD0B1018DF6E16BC01EF20F005EF56
:1040000020F0106A102A06EF20F0106A20EE04F06B
:104010000E50D9260F50DA2210321032DF5010180D
:104020007F0B1018DF6E16BE18EF20F01CEF20F08B
:10403000106A102A1DEF20F0106A20EE04F00E50D6
:10404000D9260F50DA22103A10461046DF501018C9
:10405000BF0B1018DF6E20EE01F00C50D9260D506A
:10406000DA22DF50106E070E10161050126E136A0F
:10407000146A156A14C515F513C514F512C513F5A0
:10408000126A0CC5D9F40DC5DAF4DF50106E105069
:10409000121220EE04F00E50D9260F50DA22DFA0C3
:1040A00054EF20F056EF20F097EF20F0050ED89057
:1040B0001236133614361536E82E57EF20F020EE60
:1040C00003F00C50D9260D50DA22DF50106E1F0E6F
:1040D00010161050121214C515F513C514F512C59B
:1040E00013F5126A20EE02F00C50D9260D50DA2298
:1040F000DF50106E10501212050ED8901236133683
:1041000014361536E82E7DEF20F020EE01F00C502D
:10411000D9260D50DA22DF50106ED8901032D89088
:104120001032D89010321F0E1016105012120EC5F9
:10413000D9F40FC5DAF412C5DEF413C5DEF414C5E4
:10414000DEF415C5DEF4920E016E060E026E080E48
:104150000C24036E000E0D20046E20EE04F00E50B1
:10416000D9260F50DA22DF30E8320F0B106E1050D4
:10417000270F116E11C5F6F4250EF76EF86A0800C8
:10418000F550056E066A0AEC39F020EE05F00E5087
:10419000D9260F50DA22920EDE6E060EDD6E120068
:1041A000020E0301F96F3F0EFA6F000ED86F000E7A
:1041B000FB6F000ED96F000EDA6F000EDB6F000E82
:1041C000DC6F000EDF6F000EE06F000EE36F000E7D
:1041D000E46F000EE56F000EE66F000EE76F000E55
:1041E000EA6F000EEB6F100EEC6FE80EEE6F030E31
:1041F000EF6F000EF06F000EF16F000EF26F000E09
:10420000F36F000EF46F100EF56F000EF66F000ED8
:10421000F76F000EF86F000EFC6F010EFB6F000EC3
:10422000D96F000EDA6F000EDB6F000EDC6F000E30
:10423000DF6F000EE06F000EE36F000EE46F000E04
:10424000E56F000EE66F000EE76F000EEA6F000EDE
:10425000EB6F040EEC6FE80EEE6F030EEF6F000EC7
:10426000F06F000EF16F000EF26F000EF36F000E94
:10427000F46F100EF56F000EF66F000EF76F000E64
:10428000F86F000EFD6F020EFB6F000ED96F000E6F
:10429000DA6F000EDB6F000EDC6F000EDF6F000EBA
:1042A000E06F000EE36F000EE46F000EE56F000E8E
:1042B000E66F000EE76F000EEA6F000EEB6F120E56
:1042C000EC6FE80EEE6F030EEF6F000EF06F000E56
:1042D000F16F000EF26F000EF36F000EF46F100E10
:1042E000F56F000EF66F000EF76F000EF86F000E00
:1042F000FE6F030EFB6F000ED96F000EDA6F000E1B
:10430000DB6F000EDC6F000EDF6F000EE06F000E43
:10431000E36F000EE46F000EE56F000EE66F000E17
:10432000E76F000EEA6F000EEB6F110EEC6FE80EF8
:10433000EE6F030EEF6F000EF06F000EF16F000EC8
:10434000F26F000EF36F000EF46F100EF56F000E9B
:10435000F66F000EF76F000EF86F000EFF6FAF9450
:10436000AF96B090B092B094B096000E0501606F19
:10437000000E616FC1EC3DF0000E0501606F000E94
:10438000616FB7EC3DF0000E0501606F000E616FCC
:10439000B2EC3DF0000E0501606F000E616FADECF8
:1043A0003DF0000E0501606F000E616FA8EC3DF05E
:1043B000000E0501606F000E616FBCEC3DF0840ED5
:1043C0000301F36F12000EC5D9F40FC5DAF4DEC491
:1043D00013F5DEC414F5DEC415F5DEC416F520EEC3
:1043E00004F00E50D9260F50DA22DFA0FAEF21F0A8
:1043F000FCEF21F035EF22F020EE01F00C50D92631
:104400000D50DA221338E842F80BF80BDF6E050E78
:10441000106ED8901632153214321332102E09EF66
:1044200022F020EE02F00C50D9260D50DA2213C5EE
:10443000DFF414C513F515C514F516C515F5166A80
:1044400020EE03F00C50D9260D50DA2213501F0B2A
:10445000DF6E050E106ED8901632153214321332FC
:10446000102E2BEF22F04CEF22F020EE03F00C5038
:10447000D9260D50DA22DF6A10EE02F00C50E12648
:104480000D50E222DFC4E7F420EE01F00C50D926F3
:104490000D50DA22E7C4DFF40CC5D9F40DC5DAF407
:1044A00013C5DFF414C513F515C514F516C515F5B8
:1044B000166A13C510F5070E101620EE01F00C5009
:1044C000D9260D50DA221050DF1220EE04F00E50E3
:1044D000D9260F50DA22DF30E8320F0B126E20EEB1
:1044E00004F00E50D9260F50DA22DFB07AEF22F016
:1044F0007EEF22F0106A102A7FEF22F0106A103847
:10450000F00B121220EE04F00E50D9260F50DA22D2
:10451000DFB28DEF22F091EF22F0200E106E92EFBD
:1045200022F0106A1050121220EE04F00E50D9261C
:104530000F50DA22DFBE9FEF22F0A3EF22F0400EF1
:10454000106EA4EF22F0106A1050121220EE04F048
:104550000E50D9260F50DA22DFBCB1EF22F0B5EFB2
:1045600022F0800E106EB6EF22F0106A1050121278
:1045700020EE04F00C50D9260D50DA2212C5DFF4DB
:1045800020EE04F00E50D9260F50DA22DFB2CBEF26
:1045900022F0CDEF22F0F5EF22F0080E0C24016E90
:1045A000000E0D20026E20EE05F00E50D9260F50A1
:1045B000DA22DEC403F5DDC404F520EE04F00E506B
:1045C000D9260F50DA22DF30E8320F0B106E105070
:1045D000270F116E11C5F6F4250EF76EF86A080064
:1045E000F550056E066A0AEC39F012003DC57AF501
:1045F0003EC57BF505017C6B7D6B48C67EF549C6E3
:104600007FF5806B816B46C682F547C683F5846B68
:10461000856B80EC31F07AC543F57BC544F53BC52D
:104620007AF53CC57BF505017C6B7D6B44C67EF558
:1046300045C67FF5806B816B42C682F543C683F524
:10464000846B856B80EC31F07AC541F57BC542F512
:10465000415043240501866F42504420876FD89013
:104660008731886F86313F6E88C540F50000320E75
:104670003D240501866F000E3E20876F886B896B95
:10468000060128510501865D06012951050187595A
:1046900006012A51050188598951800A8A6F06014D
:1046A0002B51800A05018A59D8A059EF23F05BEFFE
:1046B00023F07CEF23F0CE0E3D24866FFF0E3E20CC
:1046C000876F886B896B86510601285D05018751CC
:1046D000060129590501885106012A592B51800AE2
:1046E00005018A6F8951800A8A59D8B07AEF23F080
:1046F0007CEF23F07FEF23F0538081EF23F0FE0E59
:104700005312320E3B24866F000E3C20876F886B5D
:10471000896B060124510501865D060125510501BD
:10472000875906012651050188598951800A8A6FE7
:1047300006012751800A05018A59D8A0A2EF23F06B
:10474000A4EF23F0C5EF23F0CE0E3B24866FFF0EBF
:104750003C20876F886B896B86510601245D0501BB
:10476000875106012559050188510601265927510F
:10477000800A05018A6F8951800A8A59D8B0C3EF2F
:1047800023F0C5EF23F0C8EF23F05382CAEF23F0E4
:10479000FD0E5312050EFC19D8A4D1EF23F0D3EF70
:1047A00023F0D6EF23F05384EFEF23F0090EFC192A
:1047B000D8A4DDEF23F0DFEF23F0E2EF23F05394F2
:1047C000EFEF23F0060EFC19D8A4E9EF23F0EBEF8E
:1047D00023F0EDEF23F0DFEF23F0D3EF23F012000F
:1047E0004AEC32F00009D8B4F8EF23F0FAEF23F0E6
:1047F000E4EF24F0A20E216E060E226EE1EC38F0FA
:10480000E806D8A406EF24F008EF24F0E4EF24F043
:104810000000A2C629F5A3C62AF5A4C62BF5A5C695
:104820002CF5A7C6D9F4A8C6DAF4DF50346E060119
:1048300020EE01F0A751D926A851DA22DF50336EBD
:1048400020EE02F0A751D926A851DA22DF50306EAF
:1048500020EE03F0A751D926A851DA22DF50316E9D
:1048600020EE04F0A751D926A851DA22DF50326E8B
:1048700020EE05F0A751D926A851DA22DF502D6E7F
:1048800020EE06F0A751D926A851DA22DF502E6E6D
:1048900020EE07F0A751D926A851DA22DF502F6E5B
:1048A0009EEF24F034C559F533C558F530C589F667
:1048B00031C588F632C587F60501FE05D8A463EF39
:1048C00024F065EF24F0E4EF24F0010E546EE4EFE1
:1048D00024F03450070B866F3450180B856F34501A
:1048E000E00B846F3350010B836F3350060B826FE4
:1048F0003350780B816FE4EF24F034C57FF633C575
:104900007EF630C57DF631C57CF632C57BF62DC509
:104910007AF62EC579F62FC578F6E4EF24F034C583
:10492000FEF50501FE519CEC39F0E4EF24F034C5AE
:104930005AF5E4EF24F00000E4EF24F029C525F552
:104940002AC526F52BC527F52CC528F52850000AC1
:10495000D8B4DDEF24F09BEF24F02650030AD8B43E
:10496000BCEF24F0070AD8B4C7EF24F0010AD8B48A
:10497000CEEF24F09BEF24F02550200AD8B452EF5C
:1049800024F0670AD8B48FEF24F09BEF24F0255071
:10499000120AD8B497EF24F09BEF24F02550000AB8
:1049A000D8B469EF24F0010AD8B47DEF24F0030AEB
:1049B000D8B4E4EF24F09BEF24F02750000AD8B4D9
:1049C000ADEF24F09BEF24F012000501686F0501A4
:1049D0006851D8B4EEEF24F0F0EF24F012EF25F098
:1049E00063BFF7EF24F0F5EF24F012EF25F060C578
:1049F00064F561C565F562C566F563C567F5641F55
:104A0000651F661F671F642B000E652366236723DF
:104A100064C56AF565C56BF566C56CF567C56DF56A
:104A20001AEF25F060C56AF561C56BF562C56CF5D6
:104A300063C56DF56051611162116311D8A423EF54
:104A400025F025EF25F02FEF25F0000E606F000E0A
:104A5000616F000E626F000E636FC0EF25F0960E5F
:104A6000696F39EF25F0692BD8906D336C336B3358
:104A70006A33000E6A15646F000E6B15656F000EC9
:104A80006C15666FFE0E6D15676F645165116611CA
:104A90006711D8A44EEF25F050EF25F033EF25F045
:104AA0005EEF25F0692B010E6A27000E6B236C2345
:104AB0006D23D8906D336C336B336A33000E6A15F7
:104AC000646F000E6B15656F000E6C15666FFF0E40
:104AD0006D15676F6451651166116711D8A473EF86
:104AE00025F075EF25F052EF25F07DEF25F06907F1
:104AF000D8906A376B376C376D376CBF82EF25F013
:104B000084EF25F08CEF25F0020E69618AEF25F025
:104B10008CEF25F077EF25F069B191EF25F093EF59
:104B200025F094EF25F06C9FD890693369C564F542
:104B3000656B666B676B64C567F5666B656B646B0D
:104B400064516A1365516B1366516C1367516D1391
:104B50006851D8B4AEEF25F0B0EF25F0B8EF25F0EE
:104B600063BFB7EF25F0B5EF25F0B8EF25F06D8FF7
:104B70006AC560F56BC561F56CC562F56DC563F519
:104B800012003DC51BF53EC51CF51D6A1E6A48C6D0
:104B90001FF549C620F5216A226A46C623F547C695
:104BA00024F5256A266AAFEC32F01BC543F51CC517
:104BB00044F53BC51BF53CC51CF51D6A1E6A44C681
:104BC0001FF545C620F5216A226A42C623F543C671
:104BD00024F5256A266AAFEC32F01BC541F51CC5E9
:104BE00042F541504324276E42504420286ED8900D
:104BF0002830296E27303F6E29C540F50000320E5F
:104C00003D24276E000E3E20286E296A2A6A06017E
:104C10002851275C295128582A5129582A50800A9E
:104C20002B6E2B51800A2B58D8A019EF26F01BEFC2
:104C300026F036EF26F0CE0E3D24276EFF0E3E20E6
:104C4000286E296A2A6A2750285D28502959295038
:104C50002A592B51800A2B6E2A50800A2B58D8B023
:104C600034EF26F036EF26F039EF26F053803BEF95
:104C700026F0FE0E5312320E3B24276E000E3C200F
:104C8000286E296A2A6A2451275C25512858265102
:104C900029582A50800A2B6E2751800A2B58D8A0F9
:104CA00054EF26F056EF26F071EF26F0CE0E3B249F
:104CB000276EFF0E3C20286E296A2A6A2750245D41
:104CC00028502559295026592751800A2B6E2A50E1
:104CD000800A2B58D8B06FEF26F071EF26F074EFF2
:104CE00026F0538276EF26F0FD0E5312050E0501D5
:104CF000FC19D8A47EEF26F080EF26F083EF26F093
:104D000053849CEF26F0090EFC19D8A48AEF26F0F4
:104D10008CEF26F08FEF26F053949CEF26F0060ED2
:104D2000FC19D8A496EF26F098EF26F09AEF26F01B
:104D30008CEF26F080EF26F01200096E0950D8B4EF
:104D4000A4EF26F0A6EF26F0C8EF26F004BEADEFE4
:104D500026F0ABEF26F0C8EF26F001C505F502C539
:104D600006F503C507F504C508F5051E061E071E52
:104D7000081E052A000E06220722082205C50BF58B
:104D800006C50CF507C50DF508C50EF5D0EF26F0E4
:104D900001C50BF502C50CF503C50DF504C50EF5EF
:104DA0000150021003100410D8A4D9EF26F0DBEF55
:104DB00026F0E5EF26F0000E016E000E026E000EEA
:104DC000036E000E046E76EF27F0960E0A6EEFEF7C
:104DD00026F00A2AD8900E320D320C320B32000E19
:104DE0000B14056E000E0C14066E000E0D14076EEB
:104DF000FE0E0E14086E0550061007100810D8A4F9
:104E000004EF27F006EF27F0E9EF26F014EF27F084
:104E10000A2A010E0B26000E0C220D220E22D8901B
:104E20000E320D320C320B32000E0B14056E000EDA
:104E30000C14066E000E0D14076EFF0E0E14086E95
:104E40000550061007100810D8A429EF27F02BEF03
:104E500027F008EF27F033EF27F00A06D8900B363B
:104E60000C360D360E360DBE38EF27F03AEF27F030
:104E700042EF27F0020E0A6040EF27F042EF27F0E2
:104E80002DEF27F00AB047EF27F049EF27F04AEF60
:104E900027F00D9ED8900A320AC505F5066A076A02
:104EA000086A05C508F5076A066A056A05500B1207
:104EB00006500C1207500D1208500E120950D8B4AB
:104EC00064EF27F066EF27F06EEF27F004BE6DEF7A
:104ED00027F06BEF27F06EEF27F00E8E0BC501F574
:104EE0000CC502F50DC503F50EC504F5120005014C
:104EF000F96F3FC58AF50501F951BEEC39F056044A
:104F0000D8A485EF27F087EF27F02DEF28F00601D2
:104F1000B105D8A48EEF27F090EF27F02DEF28F001
:104F2000F9C53CF63D6B0501FE51F619D8A49BEF7F
:104F300027F09DEF27F02AEF28F0FE05D8A4A3EF75
:104F400027F0A5EF27F0E9EF27F03FC560F540C552
:104F500061F5626B636B000EE5EC24F060C5C2F591
:104F600061C5C3F562C5C4F563C5C5F50501F95151
:104F7000606F616B626B636B000EE5EC24F060C5E3
:104F8000BEF561C5BFF562C5C0F563C5C1F5B20E1A
:104F90000501BC6F060EBD6FDEEC12F0BCC5E2F57C
:104FA000BDC5E3F5BEC5E4F5BFC5E5F51AEC2BF0CC
:104FB000E2C5F7F5E3C5F8F5F7C5ECF5F8C5EDF58D
:104FC000020E0501EF6F580EEE6FA4EC2CF02AEFE5
:104FD00028F0FE51D8A4EFEF27F0F1EF27F02AEFE9
:104FE00028F03FC560F540C561F5626B636B000E4C
:104FF000E5EC24F060C5C2F561C5C3F562C5C4F532
:1050000063C5C5F50501F951606F616B626B636B38
:10501000000EE5EC24F060C5BEF561C5BFF562C5C4
:10502000C0F563C5C1F5B20E0501BC6F060EBD6FBC
:10503000DEEC12F0BCC5E2F5BDC5E3F5BEC5E4F596
:10504000BFC5E5F51AEC2BF0E2C5F7F5E3C5F8F5B9
:10505000DCEF27F0BE9039EF28F0BE80000E05018E
:10506000ED6F000EEC6F020EEF6F580EEE6FA4ECBA
:105070002CF0120001011DAF40EF28F042EF28F0A4
:1050800051EF28F002D84FEF28F00500FA6E060124
:105090007251FD6E7351FE6EFF6AFA5012000101EB
:1050A0001D9F1DAD56EF28F058EF28F067EF28F050
:1050B00002D865EF28F00500FA6E06017051FD6E0A
:1050C0007151FE6EFF6AFA50120001011D9D1DAB69
:1050D0006CEF28F06EEF28F07DEF28F002D87BEF20
:1050E00028F00500FA6E06016E51FD6E6F51FE6EDE
:1050F000FF6AFA50120001011D9B1CA782EF28F0E5
:1051000084EF28F093EF28F002D891EF28F0050003
:10511000FA6E06016C51FD6E6D51FE6EFF6AFA501B
:10512000120001011C971DA998EF28F09AEF28F0B2
:10513000A9EF28F002D8A7EF28F00500FA6E0601C3
:105140006A51FD6E6B51FE6EFF6AFA50120001014A
:105150001D991DA5AEEF28F0B0EF28F0C6EF28F09E
:1051600002D8BDEF28F00500FA6E06016851FD6E09
:105170006951FE6EFF6AFA501200010154A9C3EF93
:1051800028F0C5EF28F0C6EF28F054991DA7CBEF03
:1051900028F0CDEF28F0E3EF28F002D8DAEF28F07E
:1051A0000500FA6E06016651FD6E6751FE6EFF6ADC
:1051B000FA501200010160A7E0EF28F0E2EF28F0BA
:1051C000E3EF28F06097AE9C12000501696F28EFAD
:1051D00029F0E9EC3DF0000ECBEC3DF0100E59EC5F
:1051E0003AF060C56AF561C56BF5010E05016C6F9B
:1051F00046EF29F0E9EC3DF0010ECBEC3DF0040E5A
:1052000059EC3AF060C56AF561C56BF5F5EF28F029
:10521000E9EC3DF0020ECBEC3DF0120E59EC3AF009
:1052200060C56AF561C56BF5F5EF28F0E9EC3DF076
:10523000030ECBEC3DF0110E59EC3AF060C56AF567
:1052400061C56BF5F5EF28F0020E6C6F46EF29F0A3
:1052500005016951676F686B6851000AD8B433EF74
:1052600029F024EF29F06751010AD8B408EF29F09A
:10527000030AD8B416EF29F0010AD8B4E9EF28F0F0
:10528000070AD8B4FAEF28F024EF29F06C05D8A467
:105290004CEF29F04EEF29F07CEF29F06B5107E13C
:1052A000070E6A5DD8B057EF29F059EF29F05FEF8C
:1052B00029F0000E6E6F000E6D6F69EF29F06AC560
:1052C0006DF56BC56EF5FB0E6D256D6FFF0E6E21D6
:1052D0006E6F890E6D5D130E6E59D8A072EF29F0B6
:1052E00074EF29F076EF29F07CEF29F06DC565F5B4
:1052F0006EC566F57CEF29F01200000E0501ED6F1A
:10530000000EEC6F020EEF6F580EEE6FA4EC2CF057
:10531000030E0501F76F8A0EF66F550EE82EFED7C5
:10532000F62FFCD7F72FFAD700D03BEC3AF0030E5C
:105330000501F76F8A0EF66F550EE82EFED7F62F91
:10534000FCD7F72FFAD700D0CE0E3D240601486FC8
:10535000FF0E3E20496F320E3B24446F000E3C206E
:10536000456FCE0E3D2407012A6FFF0E3E202B6FA6
:10537000320E3B24006F000E3C20016F0000000E37
:105380000501ED6F640EEC6F020EEF6F580EEE6FBD
:10539000A4EC2CF0090E0501F76FE10EF66FB20ECA
:1053A000E82EFED7F62FFCD7F72FFAD700003BECFC
:1053B0003AF0030E0501F76F8A0EF66F550EE82ED0
:1053C000FED7F62FFCD7F72FFAD700D0CE0E3D240C
:1053D0000601466FFF0E3E20476F320E3B24426FA0
:1053E000000E3C20436FCE0E3D240701526FFF0E8E
:1053F0003E20536F320E3B24286F000E3C20296F55
:105400000000000E0501ED6F000EEC6F010EEF6F56
:105410002C0EEE6FA4EC2CF01200000E0501756F3F
:1054200073BF17EF2AF015EF2AF021EF2AF0731F50
:10543000721F711F706D000E712372237323010E92
:10544000756F6FBF28EF2AF026EF2AF032EF2AF0AF
:105450006F1F6E1F6D1F6C6D000E6D236E236F230B
:10546000010E751B000E766F000E776F000E786FC1
:10547000000E796F7051711172117311D8B443EF2E
:105480002AF045EF2AF07BEF2AF0010E746F4FEF00
:105490002AF0D8907037713772377337742B73AF27
:1054A00054EF2AF056EF2AF049EF2AF0D8907637D9
:1054B00077377837793770516C5D71516D5972510A
:1054C0006E5973516F59D8A068EF2AF06AEF2AF02D
:1054D00073EF2AF070516C5F71516D5B72516E5BAE
:1054E00073516F5B7681D89073337233713370333D
:1054F000742F56EF2AF07551D8B481EF2AF083EF5C
:105500002AF08BEF2AF0791F781F771F766D000E37
:1055100077237823792376C56CF577C56DF578C543
:105520006EF579C56FF51200000E166E14BE9DEF74
:105530002AF09BEF2AF0A7EF2AF0141E131E121E6A
:10554000116C000E122213221422010E166E10BED0
:10555000AEEF2AF0ACEF2AF0B8EF2AF0101E0F1EC3
:105560000E1E0D6C000E0E220F221022010E161AB6
:10557000000E176E000E186E000E196E000E1A6ED9
:105580001150121013101410D8B4C9EF2AF0CBEF39
:105590002AF001EF2BF0010E156ED5EF2AF0D8900E
:1055A0001136123613361436152A14AEDAEF2AF0F5
:1055B000DCEF2AF0CFEF2AF0D890173618361936DC
:1055C0001A3611500D5C12500E5813500F581450CB
:1055D0001058D8A0EEEF2AF0F0EF2AF0F9EF2AF0F9
:1055E00011500D5E12500E5A13500F5A1450105A8B
:1055F0001780D8901432133212321132152EDCEF8C
:105600002AF01650D8B407EF2BF009EF2BF011EF6A
:105610002BF01A1E191E181E176C000E18221922C4
:105620001A2217C50DF518C50EF519C50FF51AC5BF
:1056300010F512000501E435E535EB6FEB51D8A408
:1056400024EF2BF026EF2BF030EF2BF0000EE26F63
:10565000000EE36F000EE46F000EE56F9DEF2BF080
:10566000E2C5E6F5E3C5E7F5E4C5E8F5E5C5E9F526
:10567000200E40EF2BF0D890E933E833E733E633E0
:10568000E82E3BEF2BF0E651EA6FE48FFF0EE217B6
:10569000FF0EE317FF0EE417000EE517960EEB5F03
:1056A000EBBF57EF2BF055EF2BF06DEF2BF0EB51DD
:1056B000800A970FD8B05FEF2BF061EF2BF063EF0C
:1056C0002BF026EF2BF0D890E533E433E333E233CD
:1056D000EB3F63EF2BF085EF2BF01F0EEB6573EFC5
:1056E0002BF075EF2BF07DEF2BF026EF2BF0D89001
:1056F000E237E337E437E537EB07EB51D8A483EF24
:105700002BF085EF2BF077EF2BF0EA51D8B48BEF2D
:105710002BF08DEF2BF095EF2BF0E51FE41FE31F2F
:10572000E26D000EE323E423E523E2C5E2F5E3C5E1
:10573000E3F5E4C5E4F5E5C5E5F51200000E050165
:105740006015686F000E6115696F800E62156A6FD3
:105750007F0E63156B6F685169116A116B11D8A4C4
:10576000B4EF2BF0B6EF2BF0BEEF2BF0000E606F16
:10577000000E616F000E626F000E636F000E641505
:10578000686F000E6515696F800E66156A6F7F0E73
:1057900067156B6F685169116A116B11D8A4D3EF4B
:1057A0002BF0D5EF2BF0DDEF2BF0000E646F000E29
:1057B000656F000E666F000E676F63AFE2EF2BF050
:1057C000E4EF2BF0EDEF2BF0606D611FD8B0612B93
:1057D000621FD8B0622B800E635767AFF2EF2BF0D9
:1057E000F4EF2BF0FDEF2BF0646D651FD8B0652B47
:1057F000661FD8B0662B800E6757000E601B000E28
:10580000611B000E621B800E631B000E641B000EEA
:10581000651B000E661B800E671B6451605D655141
:1058200061596651625967516359D8B01AEF2CF02B
:105830001CEF2CF01FEF2CF0D89020EF2CF0D8802C
:10584000120021342234286E2850D8A42AEF2CF0DC
:105850002CEF2CF036EF2CF0000E1F6E000E206E99
:10586000000E216E000E226EA3EF2CF01FC523F553
:1058700020C524F521C525F522C526F5200E46EFC5
:105880002CF0D8902632253224322332E82E41EFF4
:105890002CF02350276E218EFF0E1F16FF0E2016B0
:1058A000FF0E2116000E2216960E285E28BE5DEF12
:1058B0002CF05BEF2CF073EF2CF02850800A970F40
:1058C000D8B065EF2CF067EF2CF069EF2CF02CEFDF
:1058D0002CF0D8902232213220321F32283E69EF3C
:1058E0002CF08BEF2CF01F0E286479EF2CF07BEF5F
:1058F0002CF083EF2CF02CEF2CF0D8901F362036B4
:105900002136223628062850D8A489EF2CF08BEFB8
:105910002CF07DEF2CF02750D8B491EF2CF093EFC2
:105920002CF09BEF2CF0221E211E201E1F6C000E5F
:105930002022212222221FC51FF520C520F521C5C6
:1059400021F522C522F51200490E05016C6F990E52
:105950006D6F000E6E6F000E6F6FEEC570F5EFC5C8
:1059600071F5726B736B0DEC2AF06CC5F2F56DC5B9
:10597000F3F56A0E0501726F4D0E736F930E746F1F
:10598000BF0E756FF2C560F5F3C561F5626B636BB1
:10599000000EE5EC24F060C56EF561C56FF562C5DB
:1059A00070F563C571F5FDEC15F06EC5E2F56FC5D8
:1059B000E3F570C5E4F571C5E5F51AEC2BF0E2C529
:1059C000F2F5E3C5F3F5ECC5F0F5EDC5F1F505012C
:1059D000D890F037F137D890F037F137F0C5F4F5BB
:1059E000F1C5F5F5F4C560F5F5C561F5000E636F19
:1059F000640E626FF6EC3BF060C5F4F561C5F5F539
:105A0000F4C560F5F5C561F5EEC562F5EFC563F562
:105A10008FEC36F060C5F4F561C5F5F5F4C560F5B9
:105A2000F5C561F546EC3DF0F2C560F5F3C561F5ED
:105A300040EC3DF0F1EC3DF01200490E05016C6FB9
:105A4000990E6D6F000E6E6F000E6F6FEEC570F5E4
:105A5000EFC571F5726B736B0DEC2AF06CC5F2F546
:105A60006DC5F3F56A0E0501726F4D0E736F930EDF
:105A7000746FBF0E756FF2C560F5F3C561F5626BAB
:105A8000636B000EE5EC24F060C56EF561C56FF543
:105A900062C570F563C571F5FDEC15F06EC5E2F5F4
:105AA0006FC5E3F570C5E4F571C5E5F51AEC2BF0AB
:105AB000E2C5F2F5E3C5F3F5ECC5F0F5EDC5F1F59A
:105AC0000501D890F037F137D890F037F137F0C5AD
:105AD000F4F5F1C5F5F5F4C560F5F5C561F5000E11
:105AE000636F640E626FF6EC3BF060C5F4F561C560
:105AF000F5F5F4C560F5F5C561F5EEC562F5EFC5E0
:105B000063F58FEC36F060C5F4F561C5F5F5F4C5C5
:105B100060F5F5C561F552EC3DF0F2C560F5F3C5F1
:105B200061F54CEC3DF0F3EC3DF01200490E0D6ECA
:105B3000990E0E6E000E0F6E000E106E2BC511F535
:105B40002CC512F5136A146A94EC2AF00DC52FF5D2
:105B50000EC530F56A0E136E4D0E146E930E156E53
:105B6000BF0E166E2FC501F530C502F5036A046A33
:105B7000000E9DEC26F001C50FF502C510F503C51A
:105B800011F504C512F55EEC18F00FC51FF510C530
:105B900020F511C521F512C522F521EC2CF01FC509
:105BA0002FF520C530F529C52DF52AC52EF5D8903D
:105BB0002D362E36D8902D362E362DC531F52EC5E4
:105BC00032F531C501F532C502F5000E046E640EE2
:105BD000036E1EEC3CF001C531F502C532F531C54E
:105BE00001F532C502F52BC503F52CC504F53EECD5
:105BF00037F001C531F502C532F531C501F532C5C1
:105C000002F5D5EC3DF02FC501F530C502F5D0EC1D
:105C10003DF0F5EC3DF01200490E0D6E990E0E6E42
:105C2000000E0F6E000E106E2BC511F52CC512F56F
:105C3000136A146A94EC2AF00DC52FF50EC530F5E1
:105C40006A0E136E4D0E146E930E156EBF0E166E09
:105C50002FC501F530C502F5036A046A000E9DECFC
:105C600026F001C50FF502C510F503C511F504C5F1
:105C700012F55EEC18F00FC51FF510C520F511C523
:105C800021F512C522F521EC2CF01FC52FF520C5FA
:105C900030F529C52DF52AC52EF5D8902D362E368E
:105CA000D8902D362E362DC531F52EC532F531C59D
:105CB00001F532C502F5000E046E640E036E1EEC93
:105CC0003CF001C531F502C532F531C501F532C5EB
:105CD00002F52BC503F52CC504F53EEC37F001C5E4
:105CE00031F502C532F531C501F532C502F5DFECFB
:105CF0003DF02FC501F530C502F5DAEC3DF0F7ECCB
:105D00003DF01200206E000E1C6E1750CBEC3CF0E4
:105D10001F6E1FA08EEF2EF090EF2EF0F3EF2EF0FF
:105D200017500C0D580EF324D96E010EF420DA6EC4
:105D3000DEC41DF5DDC41EF51D501E10D8B4A3EF42
:105D40002EF0A5EF2EF0F3EF2EF01DC50CF51EC5BD
:105D50000DF518C50EF519C50FF5BAEC1FF0175063
:105D60000C0D510EF324D96E010EF420DA6E000EE4
:105D7000DB802050020D5F0EF324D96E050EF42057
:105D8000DA6EDF2A175062EC3CF01A6E2050020DDA
:105D90005F0EF324D96E050EF420DA6E1A50DE5C25
:105DA000D8A0D5EF2EF0D7EF2EF0E0EF2EF0205058
:105DB000020D5F0EF324D96E050EF420DA6EDF6A51
:105DC0001FA6E5EF2EF0E7EF2EF0F1EF2EF01750C3
:105DD0000C0D540EF324D96E010EF420DA6EF70E7A
:105DE000DF16010E1C6E1C50120081C59AF682C58A
:105DF0009BF683C59CF684C59DF685C59EF686C533
:105E00009FF687C5A0F688C5A1F67CC5A9F67DC515
:105E1000AAF67EC5ABF67FC5ACF60601AD9DAD9F7B
:105E2000AD93AD9180C589F50F0E0501891789479E
:105E300089470601AD5105018919C30B891906016E
:105E4000AD6F9A0EAE6F060EAF6FEDEC3CF0E8064C
:105E5000D8A42DEF2FF02FEF2FF030EF2FF0000010
:105E6000E2EC3CF0E806D8A438EF2FF03AEF2FF040
:105E70003BEF2FF00000D7EC3CF0E806D8A443EF4E
:105E80002FF045EF2FF046EF2FF000008DEC3CF0A7
:105E9000E806D8A44EEF2FF050EF2FF051EF2FF07F
:105EA0000000000EEAEC3AF00501896F89A15BEF72
:105EB0002FF05DEF2FF065EF2FF0A90E766F060E35
:105EC000776F000E19EC34F0000012000501666FC8
:105ED000000E0501676F20EE04F06151D926625172
:105EE000DA22DF50686F68AF78EF2FF07AEF2FF08B
:105EF00086EF2FF0C6EC3DF0060AD8A482EF2FF013
:105F000084EF2FF086EF2FF00501678305016831DC
:105F1000E8320F0B636F080E636591EF2FF093EF7C
:105F20002FF0A6EF2FF068AD98EF2FF09AEF2FF03B
:105F3000A4EF2FF0C6EC3DF0060AD8A4A2EF2FF094
:105F4000A4EF2FF0A6EF2FF0050167812F0EF66E5C
:105F5000250EF76EF86A0800F5C463F5050168318F
:105F6000E8320F0B646F6451270F656F65C5F6F457
:105F7000250EF76EF86A0800F550635DD8B0C3EFE0
:105F80002FF0C5EF2FF0C6EF2FF06781665171EC4F
:105F90003CF00009D8A4CFEF2FF0D1EF2FF0D4EFD1
:105FA0002FF0030E0501671305016751120006016A
:105FB000EA51EB11D8B4DFEF2FF0E1EF2FF0EDEF66
:105FC0002FF002D8EDEF2FF00500FA6EEA51FD6ECA
:105FD000EB51FE6EFF6AFA501200FDEC39F05D2ABB
:105FE000060E5D18D8A4F7EF2FF0F9EF2FF0FDEFB4
:105FF0002FF0000E5D6E37EC3DF05C2A0B0E5C1846
:10600000D8A405EF30F007EF30F00BEF30F0000EC2
:106010005C6EB1EC3AF05B2A650E5B18D8A413EF06
:1060200030F015EF30F019EF30F0000E5B6EFFEC42
:106030003DF006015C4B5D2B2D0E5C1906E15D0504
:10604000D8A425EF30F027EF30F02DEF30F0000E20
:106050005D6F000E5C6FFDEC3DF006015A4B5B2B53
:10606000590E5A1907E1020E5B19D8A43AEF30F025
:106070003CEF30F042EF30F0000E5B6F000E5A6FD5
:10608000FEEC3DF0120022C59AF623C59BF624C50E
:106090009CF625C59DF626C59EF627C59FF628C504
:1060A000A0F629C5A1F61DC5A9F61EC5AAF61FC5ED
:1060B000ABF620C5ACF60601AD9DAD9FAD93AD919D
:1060C00021C52AF50F0E2A162A462A46AD512A184E
:1060D000C30B2A18AD6F9A0EAE6F060EAF6F0EECA3
:1060E0003DF0E806D8A477EF30F079EF30F07AEFA2
:1060F00030F0000003EC3DF0E806D8A482EF30F069
:1061000084EF30F085EF30F00000F8EC3CF0E8066A
:10611000D8A48DEF30F08FEF30F090EF30F000002A
:106120009AEC3CF0E806D8A498EF30F09AEF30F003
:106130009BEF30F00000000E0AEC3CF02A6E2AA023
:10614000A4EF30F0A6EF30F0AEEF30F0A90E176EEE
:10615000060E186E000E46EC35F000001200076EB9
:10616000000E086E20EE04F00250D9260350DA2209
:10617000DF50096E09AEBFEF30F0C1EF30F0CCEF69
:1061800030F0E4EC3DF0060AD8A4C9EF30F0CBEFD4
:1061900030F0CCEF30F008820930E8320F0B046E9B
:1061A000080E0464D6EF30F0D8EF30F0EAEF30F0AC
:1061B00009ACDDEF30F0DFEF30F0E9EF30F0E4EC88
:1061C0003DF0060AD8A4E7EF30F0E9EF30F0EAEF4F
:1061D00030F008802F0EF66E250EF76EF86A080074
:1061E000F5C404F50930E8320F0B056E0550270F92
:1061F000066E06C5F6F4250EF76EF86A0800F5502F
:10620000045CD8B006EF31F008EF31F009EF31F05F
:1062100008800750BFEC3CF00009D8A412EF31F021
:1062200014EF31F016EF31F0030E0812085012008F
:10623000010E566E000E0501F66F000EB2EC34F042
:10624000030E0501F96F8A0EF86F550EE82EFED782
:10625000F82FFCD7F92FFAD700D0000E0501F66F02
:106260001E0EB2EC34F0030E0501F96F8A0EF86FC2
:10627000550EE82EFED7F82FFCD7F92FFAD700D00D
:10628000000E0501F66F320EB2EC34F0030E05017C
:10629000F96F8A0EF86F550EE82EFED7F82FFCD74F
:1062A000F92FFAD700D0000E0501F66F460EB2ECBA
:1062B00034F0030E0501F96F8A0EF86F550EE82EC3
:1062C000FED7F82FFCD7F92FFAD700D0000E050122
:1062D000F66F640EB2EC34F0020E0501F96FE70EB2
:1062E000F86F000EE82EFED7F82FFCD7F92FFAD75B
:1062F0000000000E0501F66F000EB2EC34F0120043
:1063000005017E517A5D606F7F517B59616F8051CD
:106310007C59626F81517D59636F640E646F000E0A
:10632000656F000E666F000E676FE9EC37F060C5B1
:106330006CF561C56DF562C56EF563C56FF5050158
:106340007E51825D706F7F518359716F8051845986
:10635000726F81518559736F0DEC2AF06CC57AF517
:106360006DC57BF56EC57CF56FC57DF505017DBFFF
:10637000BEEF31F0BCEF31F0C8EF31F0000E7A6FB4
:10638000000E7B6F000E7C6F000E7D6FE0EF31F032
:106390007DBFD6EF31F07D517C117B1109E1650E97
:1063A0007A5DD8A0D6EF31F0D8EF31F0E0EF31F0E0
:1063B000640E7A6F000E7B6F000E7C6F000E7D6F97
:1063C0007AC57AF57BC57BF51200000ECFB4010EBD
:1063D000016E000ECEB2010E026E00000104D8A4C0
:1063E000F4EF31F0F6EF31F005EF32F00250D8A4BF
:1063F000FCEF31F0FEEF31F005EF32F0010E050158
:10640000FD6F55C591F649EF32F00150D8A40BEF5E
:1064100032F00DEF32F01CEF32F00204D8A413EF8B
:1064200032F015EF32F01CEF32F0020E0501FD6F75
:1064300055C590F649EF32F00150D8A422EF32F062
:1064400024EF32F031EF32F00250D8A42AEF32F0CC
:106450002CEF32F031EF32F0030E0501FD6F49EF02
:1064600032F00104D8A437EF32F039EF32F046EFC2
:1064700032F00204D8A43FEF32F041EF32F046EFA1
:1064800032F0040E0501FD6F49EF32F0050E0501F3
:10649000FD6F1200000E036E000E0A6E0A50020D10
:1064A0005E0EF324D96E050EF420DA6EDF50066E10
:1064B0000650CBEC3CF0056E05A061EF32F063EFC7
:1064C00032F0A4EF32F0065062EC3CF0076E05A605
:1064D0006CEF32F06EEF32F072EF32F007C504F578
:1064E000A2EF32F006500C0D550EF324D96E010EBA
:1064F000F420DA6EDF501F0B086E0A50020D5F0E9B
:10650000F324D96E050EF420DA6EDF50096E0950BF
:10651000085CD8B08EEF32F090EF32F096EF32F0A8
:106520000950085C0724046EA2EF32F00850095CA1
:10653000D8B09DEF32F09FEF32F06EEF32F009509D
:10654000085C046E045003260A2A0A50D8B4ABEF44
:1065500032F0ADEF32F04EEF32F0035012001F5028
:106560001B5C016E20501C58026E21501D58036E9A
:1065700022501E58046E640E056E000E066E000E4C
:10658000076E000E086E55EC38F001C50DF502C51A
:106590000EF503C50FF504C510F51F50235C116EF1
:1065A00020502458126E21502558136E2250265820
:1065B000146E94EC2AF00DC51BF50EC51CF50FC525
:1065C0001DF510C51EF51EBEEAEF32F0E8EF32F001
:1065D000F4EF32F0000E1B6E000E1C6E000E1D6EEE
:1065E000000E1E6E0CEF33F01EBE02EF33F01E5095
:1065F0001D101C1009E1650E1B5CD8A002EF33F0E2
:1066000004EF33F00CEF33F0640E1B6E000E1C6EC3
:10661000000E1D6E000E1E6E1BC51BF51CC51CF565
:106620001200FAC435F5FBC436F5F6C437F5F7C4E5
:1066300038F5F8C439F5F5C43AF5A1AE22EF33F0D8
:1066400024EF33F02FEF33F0B1AE29EF33F02BEF1F
:1066500033F02FEF33F003EC3BF065EF33F0A1A8FC
:1066600034EF33F036EF33F041EF33F0B1A83BEFC6
:1066700033F03DEF33F041EF33F0CEEC3AF065EF1D
:1066800033F09EAC46EF33F048EF33F053EF33F086
:10669000AEAC4DEF33F04FEF33F053EF33F03AEC55
:1066A00028F065EF33F0A2A858EF33F05AEF33F03B
:1066B00065EF33F0B2A85FEF33F061EF33F065EFD1
:1066C00033F08EEC3BF065EF33F03AC5F5F439C5A5
:1066D000F8F438C5F7F437C5F6F436C5FBF435C51C
:1066E000FAF411000501FA6F58505718D8B47BEF2F
:1066F00033F07DEF33F0C9EF33F0A9EF33F0010E43
:10670000F66F000EB2EC34F0C7EF33F03C0EFB6FC7
:10671000010EF66FFB51B2EC34F01A0E0501F86F62
:10672000F80EE82EFED7F82FFCD700000501FB0776
:10673000FB51D8A49EEF33F0A0EF33F088EF33F095
:10674000C7EF33F0010EF66F3C0EB2EC34F0C7EF3A
:1067500033F00501FA51F86FF96BF951000AD8B41A
:10676000B4EF33F0C7EF33F0F851000AD8B4C7EFF5
:1067700033F0010AD8B486EF33F0030AD8B4A2EF9D
:1067800033F0010AD8B47FEF33F0C7EF33F058C5C8
:1067900057F5120034EC3BF0DEEC39F0B3EC3CF092
:1067A0003BEC3AF07FEC3CF02DEC3DF0D68E000E49
:1067B0001CEC3BF053EC3CF0000E0601576F000E52
:1067C000566F18EC31F03BEC3AF0F6EC22F0B1ECFD
:1067D00037F0FAEC3DF00501FE51D8A4F2EF33F0AA
:1067E000F4EF33F002EF34F0000EF66F060154516F
:1067F00077EC27F0000E0501F66F5A50B2EC34F03A
:10680000E3EF33F0FE05D8A408EF34F00AEF34F0DC
:10681000E3EF33F0010EF66F595077EC27F0000EDE
:106820000501FD6F585072EC33F0E3EF33F00DEFDC
:1068300000F005017B6F05017B5179EC39F000090F
:10684000D8B425EF34F027EF34F065EF34F076C597
:1068500061F577C562F505017B5166EC2FF0050106
:10686000786F7851D8A437EF34F039EF34F065EF12
:1068700034F07B510C0D580EF324D96E010EF42028
:10688000DA6EDEC479F5DDC47AF579517A11D8B4BF
:106890004CEF34F04EEF34F065EF34F079C56BF522
:1068A0007AC56CF576C56DF577C56EF5A2EC1EF070
:1068B00005017B510C0D510EF324D96E010EF4200D
:1068C000DA6E030EDF1265EF34F012000501626F1D
:1068D000000E0501616FC6EC3DF00501606F040E0E
:1068E0006019D8B476EF34F078EF34F089EF34F0F3
:1068F0006205D8B47EEF34F080EF34F089EF34F0E5
:10690000040E6219D8A487EF34F089EF34F0AEEFAB
:1069100034F00101035105016219F80B62190101FC
:10692000036FA0EF34F001011DA999EF34F09BEF44
:1069300034F0A0EF34F0020E0501616FB0EF34F0D7
:106940000239E832070B05016219D8A4AAEF34F026
:10695000ACEF34F093EF34F0B0EF34F0010E616F30
:10696000615112000501F76F5604D8A4BAEF34F054
:10697000BCEF34F0F2EF34F00501F7513C0DF3C4F5
:1069800047F5F4C448F547C560F548C561F5000E04
:10699000636F640E626F8FEC36F060C547F561C5BA
:1069A00048F54750476E486A0501FE51F619D8A4CC
:1069B000DCEF34F0DEEF34F0E6EF34F0040EFD618E
:1069C000E4EF34F0E6EF34F0FDEF34F047C5ECF5DA
:1069D00048C5EDF5010EEF6F2C0EEE6F1DEC2DF09E
:1069E000FDEF34F0000E0501ED6F000EEC6F010EAF
:1069F000EF6F2C0EEE6F1DEC2DF01200050120EE56
:106A000024F06051D9266151DA22000EDE6E000EAC
:106A1000DE6E000EDE6E000EDD6E20EE28F06051A0
:106A2000D9266151DA22000EDE6E000EDE6E000EF7
:106A3000DE6E000EDD6E20EE2CF06051D926615125
:106A4000DA22000EDE6E000EDE6E000EDE6E000E2E
:106A5000DD6E20EE30F06051D9266151DA22000E51
:106A6000DE6E000EDE6E000EDE6E000EDD6E20EEBF
:106A700034F06051D9266151DA22000EDE6E000E2C
:106A8000DE6E000EDE6E000EDD6E12001C6E1C50FF
:106A90001CEC3AF00009D8B450EF35F052EF35F065
:106AA0008DEF35F017C502F518C503F51C50AFEC96
:106AB00030F0196E1950D8A460EF35F062EF35F060
:106AC0008DEF35F01C500C0D580EF324D96E010ECD
:106AD000F420DA6EDEC41AF5DDC41BF51A501B1063
:106AE000D8B475EF35F077EF35F08DEF35F01AC586
:106AF0000CF51BC50DF517C50EF518C50FF5E3EC24
:106B000021F01C500C0D510EF324D96E010EF4200F
:106B1000DA6E030EDF128DEF35F01200A80EF66E5E
:106B20006B0EF76E000EF86E01EE00F310EE7EF0C5
:106B30000900F5C4EEF4E550E150FAE1EE0EF66E10
:106B4000740EF76E000EF86E01EEB0F210EE3AF031
:106B50000900F5C4EEF4E550E150FAE1F20EF66EEC
:106B60007B0EF76E000EF86E0900F5C45EF50900A5
:106B7000F5C45FF501EE00F2B00EEE6AE806FDE145
:106B80000501FE6BFD6BFC6B01EE3BF1230EEE6A23
:106B9000E806FDE10401080E5D6F000E5E6F000E59
:106BA0005F6F0001CAEF33F03A0A2B0A220ABA09D2
:106BB0003D09E108A708A807E106AC0644060A0655
:106BC000CD05710531050B05D6049A042E04240465
:106BD000E7037B048F049104B20460054505690551
:106BE0002406C106F4066C079F07F1076108CB086D
:106BF0000E096209BD09D60ADA0A920B00050A0FCE
:106C000014191E23282D32373C41464B50555A5FEC
:106C10006400050A0F14191E23282D32373C414603
:106C20004B50555A5F64000EBE6E000EBF6E000ED4
:106C3000C06E080ECA6EDE0EC66ECC0EC76E070E94
:106C4000C86EE70E0401106F730E086FFD0E006F23
:106C5000000E216F000E096F000E016F000E116F04
:106C6000000E026F000E0A6F180E126F03690B6997
:106C7000136904690C691469080E246F0F0E020170
:106C8000696F140E706F1A0E0A6F370E146F180E9C
:106C9000096F380E156F0B0E3D6F460E0D6F130EFC
:106CA000716F12000C0E0501606F7C0E616F99EC24
:106CB0003DF00E0E0501606F7C0E616F9EEC3DF0A5
:106CC000100E0501606F7C0E616FA3EC3DF00A0EA3
:106CD0000501606F7C0E616F94EC3DF0060E0501BE
:106CE000606F7C0E616F8AEC3DF0040E0501606FF1
:106CF0007C0E616F85EC3DF0080E0501606F7C0E27
:106D0000616F8FEC3DF0AE9C000E01011C6F000E18
:106D10001D6F0A0E1E6FFC0E1F6F9E8C1200000E60
:106D20000501656F000E646F62516311D8B49BEF6B
:106D300036F09DEF36F0C5EF36F0010E666FA5EF29
:106D400036F0D89062376337662B63AFAAEF36F020
:106D5000ACEF36F0A1EF36F0D8906437653762516A
:106D6000605D63516159D8A0B8EF36F0BAEF36F0E4
:106D7000BFEF36F06251605F6351615B6481D89010
:106D800063336233662FACEF36F064C560F565C5DA
:106D900061F51200000E6F6E020E706E000E716EC5
:106DA0003D0E726E000E736EFE0E746E000E756EEA
:106DB000000E766E000E776E000E796E1F0E7A6EE4
:106DC000000E7B6E1F0E7C6E000E7D6EB39CB39E1C
:106DD00076907692A39EA39C000E0501606F000E34
:106DE000616F67EC3DF0000E0501606F000E616F92
:106DF00062EC3DF0000E0501606F000E616F6CECFF
:106E00003DF0800E786E1200000E606E020E616E14
:106E1000000E626E3D0E636E000E646EFE0E656EB9
:106E2000000E666E000E676E000E686E000E6A6ED3
:106E30001F0E6B6E000E6C6E1F0E6D6E000E6E6E72
:106E4000B29CB29E67906792A29EA29C000E050122
:106E5000606F000E616F76EC3DF0000E0501606F13
:106E6000000E616F71EC3DF0000E0501606F000EC9
:106E7000616F7BEC3DF0800E696E1200000E066EB5
:106E8000000E056E03500410D8B449EF37F04BEFF5
:106E900037F073EF37F0010E076E53EF37F0D890ED
:106EA00003360436072A04AE58EF37F05AEF37F0AE
:106EB0004FEF37F0D890053606360350015C04508A
:106EC0000258D8A066EF37F068EF37F06DEF37F073
:106ED0000350015E0450025A0580D89004320332F8
:106EE000072E5AEF37F005C501F506C502F5120069
:106EF00000000501FE05D8A480EF37F082EF37F0DF
:106F0000A6EF37F05404D8A488EF37F08AEF37F0B3
:106F10008EEF37F0010E566EB0EF37F0000E566E62
:106F2000000E2A6E000E296E010E2C6E2C0E2B6E9A
:106F30000CEC2EF0000E2A6E000E296E020E2C6E46
:106F4000580E2B6E96EC2DF0B0EF37F0FE51D8A412
:106F5000ACEF37F0AEEF37F0B0EF37F08AEF37F045
:106F6000120040C67AF541C67BF505017C6B7D6B4E
:106F700050C67EF551C67FF5806B816B4EC682F59B
:106F80004FC683F5846B856B80EC31F07AC545F58F
:106F90007BC546F53EC67AF53FC67BF505017C6BA1
:106FA0007D6B4CC67EF54DC67FF5806B816B4AC606
:106FB00082F54BC683F5846B856B80EC31F07AC526
:106FC00052F67BC553F645C554F646C555F6000046
:106FD0001200000E0501686F000E696F000E6A6FE7
:106FE000000E6B6F60A1F7EF37F0F9EF37F001EFAC
:106FF00038F0645168276551692366516A236751E7
:107000006B23D8906437653766376737D89063331A
:107010006233613360336051611162116311D8A42E
:1070200014EF38F016EF38F0F2EF37F068C560F57E
:1070300069C561F56AC562F56BC563F5120040C6A6
:107040001BF541C61CF51D6A1E6A50C61FF551C6C8
:1070500020F5216A226A4EC623F54FC624F5256A1B
:10706000266AAFEC32F01BC545F51CC546F53EC699
:107070001BF53FC61CF51D6A1E6A4CC61FF54DC6A2
:1070800020F5216A226A4AC623F54BC624F5256AF3
:10709000266AAFEC32F01BC552F61CC553F645C547
:1070A00054F646C555F600001200000E096E000E9B
:1070B0000A6E000E0B6E000E0C6E01A062EF38F02F
:1070C00064EF38F06CEF38F00550092606500A22BC
:1070D00007500B2208500C22D8900536063607368A
:1070E0000836D890043203320232013201500210C5
:1070F00003100410D8A47FEF38F081EF38F05DEF73
:1071000038F009C501F50AC502F50BC503F50CC534
:1071100004F512000101018F040E66EC34F0000941
:10712000D8A495EF38F097EF38F0B7EF38F0000EAD
:1071300001014C6F260E4D6F000E4E6F000E4F6F0B
:10714000600E006F970E016F100E026F23EC3DF082
:1071500019EC3DF0A4EC3BF031EC3CF078EC3BF06A
:1071600052EC36F0060E66EC34F0C79ABF9A120065
:1071700062C568F563C569F560C566F561C567F503
:10718000D2EF38F068C5D9F469C5DAF4DF506A6F18
:10719000684B692B66C5D9F467C5DAF46AC5DFF4B4
:1071A000664B672B05016407D8A06507642906E1D3
:1071B0006529D8A4DEEF38F0E0EF38F0C2EF38F000
:1071C0001200000E246E2450020D5E0EF324D96EC0
:1071D000050EF420DA6EDF50176E21C518F522C5B2
:1071E00019F5245082EC2EF0236E2350D8B4FBEF17
:1071F00038F0FDEF38F0FFEF38F008EF39F0242ACF
:107200002450D8B406EF39F008EF39F0E3EF38F046
:107210002350120003C509F504C50AF501C507F599
:1072200002C508F524EF39F009C5D9F40AC5DAF426
:10723000DF500B6E094A0A2A07C5D9F408C5DAF4EB
:107240000BC5DFF4074A082A0506D8A0060605285C
:1072500006E10628D8A42FEF39F031EF39F014EF0A
:1072600039F01200000E05019B1B000E9C1B000E46
:107270009D1B800E9E1B97C56EF598C56FF599C531
:1072800070F59AC571F59BC572F59CC573F59DC5E2
:1072900074F59EC575F5FDEC15F06EC597F56FC5D7
:1072A00098F570C599F571C59AF51200000E0301A5
:1072B0001F6F000E206F010E216F850E1D6FEE0EE9
:1072C0001C6FB1981C511DC362F50501636B62C54B
:1072D00063F5626B6211496E63514A6EA188F60EC6
:1072E000606F7B0E616F58EC3DF0310E03011E6F35
:1072F00012000501616F000E0501606F040E6161EF
:1073000084EF39F086EF39F099EF39F061510C0DC7
:10731000500EF324D96E010EF420DA6E0101DFAEB7
:1073200094EF39F096EF39F099EF39F0010E05013D
:10733000606F050160511200036EA8EF39F0BE8A3C
:10734000BDEF39F0BE9ABDEF39F0BE9ABDEF39F00E
:107350000350016E026A0250000AD8B4B2EF39F04D
:10736000A5EF39F00150000AD8B4A2EF39F0010AB4
:10737000D8B49FEF39F0A5EF39F0120005018B6FFB
:10738000000E05017C6F050E7D6F000E7E6F000EF6
:107390007F6F060E806F8BC581F58AC582F53FC56C
:1073A00083F554C684F553C585F5000E866F000E2F
:1073B000876F000E886FF5EC2EF01200C690C78420
:1073C000C682C69AC89AC89CC89EC79A000E050174
:1073D000ED6F000EEC6F010EEF6F2C0EEE6F1DECDB
:1073E0002DF0000E0501ED6F000EEC6F020EEF6F39
:1073F000580EEE6FA4EC2CF0120000EC3EF0300EB4
:107400001D6E030E1E6E000E1F6E000E206E060E09
:10741000216E45C522F552C623F543C524F541C565
:1074200025F554C626F53FC527F5000E286E000E3B
:10743000296E43EC30F01200026E000E016E040E55
:10744000026025EF3AF027EF3AF039EF3AF00250B8
:107450000C0D500EF324D96E010EF420DA6E0101EA
:10746000DFAE35EF3AF037EF3AF039EF3AF0010E90
:10747000016E01501200010EE5EC28F065C540F6E2
:1074800066C541F6020EE5EC28F065C53EF666C518
:107490003FF6030EE5EC28F065C53DF566C53EF503
:1074A000040EE5EC28F065C53BF566C53CF500002B
:1074B00012000501646F64C5ECF30301F38FF39DC3
:1074C000F381F3B166EF3AF068EF3AF061EF3AF02A
:1074D000EB510501636F626B0301EA5105016225FF
:1074E000606F0301000E05016321616F120001014D
:1074F0009A9919403333B33F000000000AD7A33CE8
:10750000000000000000C842000020C1000020412F
:107510000AD7233C0000000000000000000000002B
:10752000000000000000000005019F51A011A11102
:10753000A211D8B49EEF3AF0A0EF3AF0A8EF3AF0DB
:10754000000E9F1B000EA01B000EA11B800EA21B95
:107550009FC59FF5A0C5A0F5A1C5A1F5A2C5A2F53F
:107560001200310E1D6E030E1E6E000E1F6E000EF9
:10757000206E040E216E53C522F552C523F5FDC5BC
:1075800024F551C525F5000E266E000E276E000E5F
:10759000286E000E296E43EC30F01200B19849C5F8
:1075A00001F54AC502F5B9EC3BF00601584B592BE1
:1075B000595109E1050E585DD8A0E1EF3AF0E3EF2B
:1075C0003AF0E7EF3AF0000E596F000E586FD7EC23
:1075D0002FF012000501636F000E0501626F635109
:1075E00079EC39F00009D8B4F8EF3AF0FAEF3AF054
:1075F00000EF3BF00501635171EC3CF00501626F57
:10760000050162511200B19E06015E4B5F2B5F5176
:1076100009E10A0E5E5DD8A010EF3BF012EF3BF0DF
:1076200019EF3BF04BEC3BF0000E06015F6F000ED4
:107630005E6F42EC3CF012000501606F05016005D1
:10764000D8A425EF3BF027EF3BF02AEF3BF09E8CD0
:1076500033EF3BF06051D8A430EF3BF032EF3BF01A
:1076600033EF3BF09E9C1200EFEC3DF0E2EC3BF080
:1076700062EC3BF0D0EC20F013EC36F0A7EC3CF0E1
:1076800056EC39F0CEEC3BF0CAEC36F08AEC38F030
:1076900004EC37F012000601EC51ED11D8B453EFB1
:1076A0003BF055EF3BF061EF3BF002D861EF3BF070
:1076B0000500FA6EEC51FD6EED51FE6EFF6AFA5058
:1076C00012001200040E0201946F800E956F180EC6
:1076D000966F030E9E6F000E9A6F000E9B6F000E4A
:1076E000976F000E8C6F000E8D6F000E9D6F120055
:1076F000000E0501606F6051020D5F0EF324D96E1C
:10770000050EF420DA6EDF6A602B6051D8B48BEF7F
:107710003BF08DEF3BF07BEF3BF01200010160A1ED
:1077200094EF3BF096EF3BF0A3EF3BF002D8A3EFD2
:107730003BF00500FA6E06017451FD6E7551FE6E48
:10774000FF6AFA5012001200190E01015C6F040E5C
:107750005D6F600E5E6F050E5F6FD80E0501606F86
:107760007B0E616F80EC3DF001011E83B298A28810
:10777000120003011EA5BFEF3BF0C1EF3BF0C9EFC4
:107780003BF01E9102501D6F01C51CF31E81CDEF11
:107790003BF002501D6F01C51CF31200480E03019F
:1077A0001B6F610E196F000E186FB19EA18E020E35
:1077B0000501606F7C0E616F5DEC3DF0800E030192
:1077C0001A6F1200000E0001606F000E616F000E54
:1077D000626F000E636F000E646F000E656F000E27
:1077E000666F000E676F000E686F12000501605132
:1077F0006203F3C464F5F4C465F560516303F350A8
:10780000652761516203F350652764C560F565C55E
:1078100061F51200046E000E036E04501CEC3AF089
:107820000009D8B416EF3CF018EF3CF01CEF3CF028
:107830000450BFEC3CF0036E0350120001500302F1
:10784000F3C405F5F4C406F501500402F35006260E
:1078500002500302F350062605C501F506C502F5E0
:1078600012005F0E0101946F956996699769000E89
:10787000986F000E996F000E9A6F000E9B6F810E2D
:10788000816F1200502A060E5018D8A44AEF3CF01F
:107890004CEF3CF052EF3CF0C1EC25F01FEC38F01F
:1078A000000E506E1200000E0501ED6F000EEC6F21
:1078B000000EEF6F320EEE6F1DEC2DF0000E050185
:1078C000FD6F1200026E02500C0D530EF324D96EA0
:1078D000010EF420DA6EDF50016E1F0E0116012832
:1078E00012000501606F050160510C0D540EF32468
:1078F000D96E010EF420DA6EDF50010B1200640E17
:1079000006014025506F000E4121516F9C0E3E250F
:107910004C6FFF0E3F214D6F1200E2EC3CF000096E
:10792000D8B495EF3CF098EF3CF0010E99EF3CF0A5
:10793000000E120003EC3DF00009D8B4A2EF3CF0B9
:10794000A5EF3CF0010EA6EF3CF0000E1200700E09
:107950000001AD6F000EAF6F000EB36F020EB16F7E
:10796000000EB06F1200C08CC08E7DEC29F0B20EFC
:107970000501606F060E616FFEEC34F01200016EBF
:1079800001500C0D540EF324D96E010EF420DA6E62
:10799000DF50010B1200016E01500C0D540EF32448
:1079A000D96E010EF420DA6EDF50090B12000101CE
:1079B00036B5DDEF3CF0E0EF3CF0010EE1EF3CF0DE
:1079C000000E1200010136B9E8EF3CF0EBEF3CF09D
:1079D000010EECEF3CF0000E1200010136BBF3EF9C
:1079E0003CF0F6EF3CF0010EF7EF3CF0000E120019
:1079F000010136B5FEEF3CF001EF3DF0010E02EF64
:107A00003DF0000E1200010136B909EF3DF00CEF18
:107A10003DF0010E0DEF3DF0000E1200010136BBEE
:107A200014EF3DF017EF3DF0010E18EF3DF0000EA2
:107A30001200100E0101506F040E516F610E526F53
:107A4000050E536F1200010E0101046F010E056F48
:107A5000060E066F000E076F12000A0E06014F6F2A
:107A60000A0E4E6F120E4B6F5C0E4A6F1200E5EC61
:107A700031F078EC37F0000E546EFCEC3DF0120063
:107A800060C572F405016151736E120060C57AF42D
:107A9000050161517B6E120060C563F405016151FF
:107AA000646E120060C56BF4050161516C6E1200CA
:107AB00060C5EAF661C5EBF6120060C5ECF661C57B
:107AC000EDF6120060C5FCF661C5FDF6120060C55A
:107AD000FEF661C5FFF6120060C5FAF661C5FBF659
:107AE000120060C562F661C563F6120060C564F6F7
:107AF00061C565F6120060C560F661C561F61200E9
:107B000060C574F661C575F6120060C568F661C59A
:107B100069F6120060C56AF661C56BF6120060C5B1
:107B200066F661C567F6120060C56CF661C56DF654
:107B3000120060C572F661C573F6120060C570F67A
:107B400061C571F6120060C56EF661C56FF6120070
:107B500060C5F0F661C5F1F6120060C5F2F661C5C8
:107B6000F3F6120060C5F4F661C5F5F6120060C5C3
:107B7000F6F661C5F7F6120060C5EEF661C5EFF6E0
:107B8000120060C5F8F661C5F9F61200010102396C
:107B9000E832070B12000501606F60C5FBF31200AD
:107BA00001C572F40250736E120001C57AF40250DE
:107BB0007B6E120001C563F40250646E120001C5B1
:107BC0006BF402506C6E120001010239E832070BAF
:107BD00012000301F39B1200F0EC23F01200D69A7E
:107BE000120078841200698412007884120069847B
:107BF0001200010012001200120012001200120006
:107C000012001200120012001200120012001200E4
:027C1000120060
:020000040020DA
:10000000FF0FFF0FFF0FFF0FFF0FFF0FFF0FFF0F80
:10001000FF0FFF0FFF0FFF0FFF0FFF0FFF0FFF0F70
:10002000FF0FFF0FFF0FFF0FFF0FFF0FFF0FFF0F60
:10003000FF0FFF0FFF0FFF0FFF0FFF0FFF0FFF0F50
:020000040030CA
:10000000FAEFF7DF9FFFFFFFFFFFFFFFFFFFFFFF9D
:10001000FFFFFFFFFFFFFFFFFFFFFFFFFFFFFFFFF0
:04002000FFFFFFFFE0
:00000001FF
