:040000000DEF00F010
:0400080056EF26F099
:06001800FF00D2EF2BF007
:1026000000B0624E5C7461C83EB24E0C526E4DA278
:102610006270646C64845FFE6306649462F663585F
:10262000622C564E55486200010203040506070855
:102630005001526561643A206E6F6E2D766F6C6149
:1026400074696C6520766F6C746167652076616C67
:1026500075652025662C20616E6420766F6C617430
:10266000696C6520766F6C746167652076616C7546
:10267000652025660053657420746865206E6F6E52
:102680002D766F6C6174696C6520766F6C74616710
:102690006520746F203156200A00536574207468D9
:1026A0006520766F6C6174696C6520766F6C7461FF
:1026B000676520746F203256200A00000501CD5155
:1026C000800BD66FCD51CD25D86FCCAF6AEF13F00C
:1026D0006CEF13F06DEF13F0D881D851D8B473EFCD
:1026E00013F075EF13F08AEF13F0D829D8A47BEF1D
:1026F00013F07DEF13F085EF13F0000ECA6F000E9C
:10270000CB6F000ECC6F000ECD6FCC8F000ECD6F57
:1027100092EF13F0000ECA6F000ECB6F000ECC6F5D
:10272000000ECD6FD151800BD76FD651D719D8B4C9
:102730009CEF13F09EEF13F09FEF13F0D68DD15165
:10274000D125D76FD0AFA7EF13F0A9EF13F0AAEF01
:1027500013F0D781D751D8B4B0EF13F0B2EF13F024
:10276000C7EF13F0D729D8A4B8EF13F0BAEF13F0DE
:10277000C2EF13F0000ECE6F000ECF6F000ED06FC1
:10278000000ED16FD08F000ED16FCFEF13F0000E7F
:10279000CE6F000ECF6F000ED06F000ED16FD851EC
:1027A000D75DD8B0D6EF13F0D8EF13F0FFEF13F0EA
:1027B000D6ADDDEF13F0DFEF13F0E1EF13F0800E95
:1027C000D61BD8C5D9F5D7C5D8F5D9C5D7F5CAC54B
:1027D000D9F5CEC5CAF5D9C5CEF5CBC5D9F5CFC586
:1027E000CBF5D9C5CFF5CCC5D9F5D0C5CCF5D9C574
:1027F000D0F5CDC5D9F5D1C5CDF5D9C5D1F5000EEA
:10280000D96FD851D7C5D2F5D36BD25F000ED35B49
:10281000D3BF14EF14F0D35109E11A0ED25DD8A042
:1028200014EF14F016EF14F04DEF14F0CA51CB1161
:10283000CC11CD11D8A41FEF14F022EF14F0010E2B
:1028400023EF14F0000ED96F000ECA6F000ECB6F8D
:10285000000ECC6F000ECD6FD7C5D8F556EF14F033
:10286000D9A135EF14F037EF14F03DEF14F0D89004
:10287000D9310109D96F3FEF14F0D890D933CAA1EB
:1028800044EF14F046EF14F047EF14F0D98FCD3534
:10289000CD33CC33CB33CA33D82BD751D85DD8A066
:1028A00054EF14F056EF14F030EF14F0D6BD5BEF98
:1028B00014F05DEF14F09DEF14F0D851D8A463EF3D
:1028C00014F065EF14F06FEF14F0000ECA6F000EF5
:1028D000CB6F000ECC6F000ECD6FBEEF15F0CE515A
:1028E000CA27CF51CB23D051CC23D151CD23CDA159
:1028F0007CEF14F07EEF14F02AEF15F0D9A183EFEE
:1029000014F085EF14F08BEF14F0D890D931010951
:10291000D96F8DEF14F0D890D933CAA192EF14F08B
:1029200094EF14F095EF14F0D98FCD35CD33CC332F
:10293000CB33CA33D82B2AEF15F0CE51CA5DCF5115
:10294000CB59D051CC59CD51800AD26FD151800A88
:10295000D259D8B0AEEF14F0B0EF14F0DBEF14F0B2
:10296000CA51CE5DD26FCB51CF59D36FCC51D05914
:10297000D46FCD51D159D56FFF0ED225CA6FFF0E3E
:10298000D321CB6FFF0ED421CC6FFF0ED521CD6F9D
:10299000800ED61BD96DD951D8A4D1EF14F0D3EF46
:1029A00014F0E3EF14F0010ECA27000ECB23CC2362
:1029B000CD23E3EF14F0CE51CA5FCF51CB5BD051A2
:1029C000CC5BD151CD5BCA51CB11CC11CD11D8A468
:1029D000ECEF14F0EEEF14F023EF15F0D951D8A47A
:1029E000F4EF14F0F6EF14F023EF15F0000ECA6FB9
:1029F000000ECB6F000ECC6F000ECD6FBEEF15F04A
:102A0000D890CA37CB37CC37CD37D9AF0AEF15F0CE
:102A10000CEF15F00DEF15F0CA81D9A112EF15F0EA
:102A200014EF15F018EF15F0D880D9371AEF15F01C
:102A3000D890D937D851D8B420EF15F022EF15F03F
:102A400023EF15F0D807CCAF28EF15F02AEF15F0DB
:102A500000EF15F0000ED76FD9AF31EF15F033EF5F
:102A600015F04BEF15F0D9C5D2F57F0ED217D8B4BB
:102A70003CEF15F03EEF15F042EF15F0010ED76F69
:102A80004BEF15F0CAA147EF15F049EF15F04BEFEA
:102A900015F03EEF15F0D751D8B451EF15F053EFC4
:102AA00015F07EEF15F0010ECA27000ECB23CC23C4
:102AB000CD23CDA15EEF15F060EF15F07EEF15F0A0
:102AC000CAC5D2F5CBC5D3F5CCC5D4F5CDC5D5F5A2
:102AD000D535D533D433D333D233D2C5CAF5D3C5E4
:102AE000CBF5D4C5CCF5D5C5CDF5D829D8B47BEF79
:102AF00015F07DEF15F07EEF15F0D82BD829D8B45E
:102B000084EF15F086EF15F08EEF15F0D851D8A4AC
:102B10008CEF15F08EEF15F0A0EF15F0000ECA6FD8
:102B2000000ECB6F000ECC6F000ECD6FD851D8A425
:102B30009CEF15F09EEF15F0A0EF15F0000ED66F8C
:102B4000D8A1A5EF15F0A7EF15F0AAEF15F0CC8FDF
:102B5000ABEF15F0CC9FD890D831CD6FD6AFB3EF97
:102B600015F0B5EF15F0B6EF15F0CD8FCAC5CAF563
:102B7000CBC5CBF5CCC5CCF5CDC5CDF512002050DD
:102B8000800B296E205020242B6E1FAECAEF15F04B
:102B9000CCEF15F0CDEF15F02B802B50D8B4D3EF40
:102BA00015F0D5EF15F0EAEF15F02B28D8A4DBEFE0
:102BB00015F0DDEF15F0E5EF15F0000E1D6E000EBF
:102BC0001E6E000E1F6E000E206E1F8E000E206EF9
:102BD000F2EF15F0000E1D6E000E1E6E000E1F6E41
:102BE000000E206E2450800B2A6E29502A18D8B46B
:102BF000FCEF15F0FEEF15F0FFEF15F0298C2450D7
:102C000024242A6E23AE07EF16F009EF16F00AEF20
:102C100016F02A802A50D8B410EF16F012EF16F0F2
:102C200027EF16F02A28D8A418EF16F01AEF16F09E
:102C300022EF16F0000E216E000E226E000E236EA3
:102C4000000E246E238E000E246E2FEF16F0000E61
:102C5000216E000E226E000E236E000E246E2B508D
:102C60002A5CD8B036EF16F038EF16F05FEF16F0AA
:102C700029AC3DEF16F03FEF16F041EF16F0800E55
:102C8000291A2BC52CF52AC52BF52CC52AF51DC5EF
:102C90002CF521C51DF52CC521F51EC52CF522C529
:102CA0001EF52CC522F51FC52CF523C51FF52CC517
:102CB00023F520C52CF524C520F52CC524F5000EE0
:102CC0002C6E2B502AC525F5266A255E000E265A45
:102CD00026BE74EF16F0265009E11A0E255CD8A026
:102CE00074EF16F076EF16F0ADEF16F01D501E10D3
:102CF0001F102010D8A47FEF16F082EF16F0010EFF
:102D000083EF16F0000E2C6E000E1D6E000E1E6E70
:102D1000000E1F6E000E206E2AC52BF5B6EF16F0C2
:102D20002CA095EF16F097EF16F09DEF16F0D890C7
:102D30002C3001092C6E9FEF16F0D8902C321DA07C
:102D4000A4EF16F0A6EF16F0A7EF16F02C8E2034A5
:102D500020321F321E321D322B2A2A502B5CD8A063
:102D6000B4EF16F0B6EF16F090EF16F029BCBBEFFB
:102D700016F0BDEF16F0FDEF16F02B50D8A4C3EF00
:102D800016F0C5EF16F0CFEF16F0000E1D6E000E18
:102D90001E6E000E1F6E000E206E1EEF18F02150EA
:102DA0001D2622501E2223501F222450202220A004
:102DB000DCEF16F0DEEF16F08AEF17F02CA0E3EF51
:102DC00016F0E5EF16F0EBEF16F0D8902C30010975
:102DD0002C6EEDEF16F0D8902C321DA0F2EF16F00D
:102DE000F4EF16F0F5EF16F02C8E203420321F325F
:102DF0001E321D322B2A8AEF17F021501D5C225003
:102E00001E5823501F582050800A256E2450800AD7
:102E10002558D8B00EEF17F010EF17F03BEF17F072
:102E20001D50215C256E1E502258266E1F502358BF
:102E3000276E20502458286EFF0E25241D6EFF0E8D
:102E400026201E6EFF0E27201F6EFF0E2820206EEC
:102E5000800E291A2C6C2C50D8A431EF17F033EFC8
:102E600017F043EF17F0010E1D26000E1E221F2241
:102E7000202243EF17F021501D5E22501E5A23508E
:102E80001F5A2450205A1D501E101F102010D8A465
:102E90004CEF17F04EEF17F083EF17F02C50D8A43B
:102EA00054EF17F056EF17F083EF17F0000E1D6E7A
:102EB000000E1E6E000E1F6E000E206E1EEF18F02C
:102EC000D8901D361E361F3620362CAE6AEF17F00E
:102ED0006CEF17F06DEF17F01D802CA072EF17F05C
:102EE00074EF17F078EF17F0D8802C367AEF17F0E0
:102EF000D8902C362B50D8B480EF17F082EF17F013
:102F000083EF17F02B061FAE88EF17F08AEF17F04C
:102F100060EF17F0000E2A6E2CAE91EF17F093EFD2
:102F200017F0ABEF17F02CC525F57F0E2516D8B49A
:102F30009CEF17F09EEF17F0A2EF17F0010E2A6E2C
:102F4000ABEF17F01DA0A7EF17F0A9EF17F0ABEF4D
:102F500017F09EEF17F02A50D8B4B1EF17F0B3EF87
:102F600017F0DEEF17F0010E1D26000E1E221F22A5
:102F7000202220A0BEEF17F0C0EF17F0DEEF17F011
:102F80001DC525F51EC526F51FC527F520C528F545
:102F90002834283227322632253225C51DF526C58C
:102FA0001EF527C51FF528C520F52B28D8B4DBEF63
:102FB00017F0DDEF17F0DEEF17F02B2A2B28D8B42F
:102FC000E4EF17F0E6EF17F0EEEF17F02B50D8A470
:102FD000ECEF17F0EEEF17F000EF18F0000E1D6E9B
:102FE000000E1E6E000E1F6E000E206E2B50D8A419
:102FF000FCEF17F0FEEF17F000EF18F0000E296E4F
:103000002BA005EF18F007EF18F00AEF18F01F8E4D
:103010000BEF18F01F9ED8902B30206E29AE13EFC7
:1030200018F015EF18F016EF18F0208E1DC51DF5DD
:103030001EC51EF51FC51FF520C520F51200610035
:1030400038F4D9F461003CF4DAF4610078F313F554
:10305000610078F314F5610078F315F5610078F3F9
:1030600016F520EE04F00E50D9260F50DA22DFA01C
:103070003CEF18F03EEF18F078EF18F020EE01F07A
:103080000C50D9260D50DA221338E842F80BF80B11
:10309000DF6E050E106ED8901632153214321332D0
:1030A000102E4BEF18F020EE02F00C50D9260D50E8
:1030B000DA2261004CF4DFF414C513F515C514F5DC
:1030C00016C515F5166A20EE03F00C50D9260D50E2
:1030D000DA2213501F0BDF6E050E106ED8901632D9
:1030E000153214321332102E6EEF18F090EF18F0E4
:1030F00020EE03F00C50D9260D50DA22000EDF6EC0
:1031000010EE02F00C50E1260D50E222DFC4E7F48D
:1031100020EE01F00C50D9260D50DA22E7C4DFF47E
:10312000610030F4D9F4610034F4DAF461004CF455
:10313000DFF414C513F515C514F516C515F5166A93
:1031400013C510F5070E101620EE01F00C50D9260D
:103150000D50DA221050DF1220EE04F00E50D92666
:103160000F50DA22DF30E8320F0B126E20EE04F03F
:103170000E50D9260F50DA22DFB0C1EF18F0C5EF9C
:1031800018F0106A102AC6EF18F0106A1038F00B09
:10319000121220EE04F00E50D9260F50DA22DFB2C0
:1031A000D4EF18F0D8EF18F0200E106ED9EF18F009
:1031B000106A1050121220EE04F00E50D9260F5053
:1031C000DA22DFBEE6EF18F0EAEF18F0400E106EDC
:1031D000EBEF18F0106A1050121220EE04F00E50AF
:1031E000D9260F50DA22DFBCF8EF18F0FCEF18F008
:1031F000800E106EFDEF18F0106A1050121220EEC3
:1032000004F00C50D9260D50DA22610048F4DFF4A6
:1032100020EE04F00E50D9260F50DA22DFB213EF61
:1032200019F015EF19F041EF19F0080E0C24016E9A
:10323000000E0D20026E20EE05F00E50D9260F5024
:10324000DA22610078F303F5610074F304F520EEEF
:1032500004F00E50D9260F50DA22DF30E8320F0B7F
:10326000106E116A270E1024F66E260E1120F76ECE
:10327000F86A000EF8220800F550056E066AA5EC03
:103280002BF0120020EE04F00C50D9260D50DA225B
:10329000DF50166E16C510F520EE04F00E50D9263C
:1032A0000F50DA2210461046DF501018C30B1018CA
:1032B000DF6E16B85EEF19F062EF19F0106A102A8F
:1032C00063EF19F0106A20EE04F00E50D9260F506B
:1032D000DA22DF501018FE0B1018DF6E16BA73EFEB
:1032E00019F077EF19F0106A102A78EF19F0106AC8
:1032F00020EE04F00E50D9260F50DA221046DF508F
:103300001018FD0B1018DF6E16BC89EF19F08DEF49
:1033100019F0106A102A8EEF19F0106A20EE04F0EE
:103320000E50D9260F50DA2210321032DF5010180A
:103330007F0B1018DF6E16BEA0EF19F0A4EF19F086
:10334000106A102AA5EF19F0106A20EE04F00E5052
:10335000D9260F50DA22103A10461046DF501018C6
:10336000BF0B1018DF6E20EE01F00C50D9260D5067
:10337000DA22DF50106E070E10161050126E136A0C
:10338000146A156A14C515F513C514F512C513F59D
:10339000126A610030F4D9F4610034F4DAF4DF50D9
:1033A000106E1050121220EE04F00E50D9260F505D
:1033B000DA22DFA0DEEF19F0E0EF19F021EF1AF0CA
:1033C000050ED8901236133614361536E82EE1EF76
:1033D00019F020EE03F00C50D9260D50DA22DF5000
:1033E000106E1F0E10161050121214C515F513C5CD
:1033F00014F512C513F5126A20EE02F00C50D9260E
:103400000D50DA22DF50106E10501212050ED890B7
:103410001236133614361536E82E07EF1AF020EE62
:1034200001F00C50D9260D50DA22DF50106ED890E2
:103430001032D8901032D89010321F0E1016105043
:103440001212610038F4D9F461003CF4DAF461003E
:1034500048F4DEF461004CF4DEF4610050F4DEF474
:10346000610054F4DEF4240E016E060E026E080EA6
:103470000C24036E000E0D20046E20EE04F00E509E
:10348000D9260F50DA22DF30E8320F0B106E116AA6
:10349000270E1024F66E260E1120F76EF86A000E25
:1034A000F8220800F550056E066AA5EC2BF020EE18
:1034B00005F00E50D9260F50DA22240EDE6E060ECD
:1034C000DD6E1200020E0301F96F000EFA6F000E9E
:1034D000D86F000EFB6F000ED96F000EDA6F000E72
:1034E000DB6F000EDC6F000EDF6F000EE06F000E72
:1034F000E36F000EE46F000EE56F000EE66F000E46
:10350000E76F000EEA6F000EEB6F100EEC6F870E88
:10351000EE6F010EEF6F000EF06F000EF16F000EF8
:10352000F26F000EF36F000EF46F100EF56F000EC9
:10353000F66F000EF76F120EF86F000EFC6F010EA3
:10354000FB6F000ED96F000EDA6F000EDB6F000EFE
:10355000DC6F000EDF6F000EE06F000EE36F000EF9
:10356000E46F000EE56F000EE66F000EE76F000ED1
:10357000EA6F000EEB6F040EEC6F870EEE6F010E1C
:10358000EF6F000EF06F000EF16F000EF26F000E85
:10359000F36F000EF46F100EF56F000EF66F000E55
:1035A000F76F000EF86F000EFD6F020EFB6F000E3E
:1035B000D96F000EDA6F000EDB6F000EDC6F000EAD
:1035C000DF6F000EE06F000EE36F000EE46F000E81
:1035D000E56F000EE66F000EE76F000EEA6F000E5B
:1035E000EB6F120EEC6F870EEE6F010EEF6F000E99
:1035F000F06F000EF16F000EF26F000EF36F000E11
:10360000F46F100EF56F000EF66F000EF76F000EE0
:10361000F86F000EFE6F030EFB6F000ED96F000EE9
:10362000DA6F000EDB6F000EDC6F000EDF6F000E36
:10363000E06F000EE36F000EE46F000EE56F000E0A
:10364000E66F000EE76F000EEA6F000EEB6F110ED3
:10365000EC6F870EEE6F010EEF6F000EF06F000E35
:10366000F16F000EF26F000EF36F000EF46F100E8C
:10367000F56F000EF66F000EF76F000EF86F000E7C
:10368000FF6FAF94AF96B090B092B094B096000E2A
:103690000501BC6F000EBD6FDEEC31F0000E0501C0
:1036A000BC6F000EBD6FD4EC31F0000E0501BC6F95
:1036B000000EBD6FCFEC31F0000E0501BC6F000EA7
:1036C000BD6FCAEC31F0000E0501BC6F000EBD6F7E
:1036D000C5EC31F0000E0501BC6F000EBD6FD9ECDA
:1036E00031F0840E0301F36F12002BEC25F000097A
:1036F000D8B47DEF1BF07FEF1BF06DEF1CF0AE0E2A
:10370000216E050E226E4DEC2CF0E806D8A48BEF4E
:103710001BF08DEF1BF06DEF1CF000F0AEC54BF50C
:10372000AFC54CF5B0C54DF5B1C54EF56100CCF651
:10373000D9F46100D0F6DAF4DF50566E050120EEC0
:1037400001F0B351D926B451DA22DF50556E20EE84
:1037500002F0B351D926B451DA22DF50526E20EE76
:1037600003F0B351D926B451DA22DF50536E20EE64
:1037700004F0B351D926B451DA22DF50546E20EE52
:1037800005F0B351D926B451DA22DF504F6E20EE46
:1037900006F0B351D926B451DA22DF50506E20EE34
:1037A00007F0B351D926B451DA22DF50516E27EF1A
:1037B0001CF056C59CF555C59BF552C59AF553C5E9
:1037C00099F554C598F5010E416E9B5108EC27F010
:1037D00005019C5182EC22F06DEF1CF05650070B56
:1037E000976F5650180B966F5650E00B956F5550CB
:1037F000010B946F5550060B936F5550780B926FD9
:103800006DEF1CF056C590F555C58FF552C58EF578
:1038100053C58DF554C58CF54FC58BF550C58AF54C
:1038200051C589F56DEF1CF056C5AAF5AA51C2EC39
:103830002CF06DEF1CF056C586F5000E416E8651DA
:1038400008EC27F06DEF1CF000F06DEF1CF04BC59D
:1038500047F54CC548F54DC549F54EC54AF54A50A2
:10386000000AD8B466EF1CF024EF1CF04850030A9D
:10387000D8B445EF1CF0070AD8B450EF1CF0010A89
:10388000D8B457EF1CF024EF1CF04750200AD8B4EE
:10389000D9EF1BF0650AD8B414EF1CF024EF1CF02C
:1038A0004750120AD8B41BEF1CF024EF1CF047500D
:1038B000000AD8B4EEEF1BF0010AD8B402EF1CF0F6
:1038C000030AD8B46DEF1CF024EF1CF04950000A35
:1038D000D8B436EF1CF024EF1CF012000501C46FC1
:1038E0000501C451D8B477EF1CF079EF1CF09BEFC1
:1038F0001CF0BFBF80EF1CF07EEF1CF09BEF1CF0B4
:10390000BCC5C0F5BDC5C1F5BEC5C2F5BFC5C3F5D3
:10391000C01FC11FC21FC31FC02B000EC123C22363
:10392000C323C0C5C6F5C1C5C7F5C2C5C8F5C3C563
:10393000C9F5A3EF1CF0BCC5C6F5BDC5C7F5BEC52E
:10394000C8F5BFC5C9F5BC51BD11BE11BF11D8A482
:10395000ACEF1CF0AEEF1CF0B8EF1CF0000EBC6F2B
:10396000000EBD6F000EBE6F000EBF6F49EF1DF061
:10397000960EC56FC2EF1CF0C52BD890C933C83363
:10398000C733C633000EC615C06F000EC715C16F12
:10399000000EC815C26FFE0EC915C36FC051C1110C
:1039A000C211C311D8A4D7EF1CF0D9EF1CF0BCEFA3
:1039B0001CF0E7EF1CF0C52B010EC627000EC72335
:1039C000C823C923D890C933C833C733C633000EC0
:1039D000C615C06F000EC715C16F000EC815C26FA7
:1039E000FF0EC915C36FC051C111C211C311D8A4B4
:1039F000FCEF1CF0FEEF1CF0DBEF1CF006EF1DF0FF
:103A0000C507D890C637C737C837C937C8BF0BEF07
:103A10001DF00DEF1DF015EF1DF0020EC56113EF47
:103A20001DF015EF1DF000EF1DF0C5B11AEF1DF0F0
:103A30001CEF1DF01DEF1DF0C89FD890C533C5C504
:103A4000C0F5C16BC26BC36BC0C5C3F5C26BC16BA4
:103A5000C06BC051C613C151C713C251C813C35163
:103A6000C913C451D8B437EF1DF039EF1DF041EF41
:103A70001DF0BFBF40EF1DF03EEF1DF041EF1DF008
:103A8000C98FC6C5BCF5C7C5BDF5C8C5BEF5C9C596
:103A9000BFF51200176E1750D8B451EF1DF053EF59
:103AA0001DF075EF1DF012BE5AEF1DF058EF1DF01E
:103AB00075EF1DF00FC513F510C514F511C515F5FB
:103AC00012C516F5131E141E151E161E132A000EFF
:103AD00014221522162213C519F514C51AF515C599
:103AE0001BF516C51CF57DEF1DF00FC519F510C5AA
:103AF0001AF511C51BF512C51CF50F501010111049
:103B00001210D8A486EF1DF088EF1DF092EF1DF083
:103B1000000E0F6E000E106E000E116E000E126E73
:103B200023EF1EF0960E186E9CEF1DF0182AD89009
:103B30001C321B321A321932000E1914136E000E89
:103B40001A14146E000E1B14156EFE0E1C14166E45
:103B50001350141015101610D8A4B1EF1DF0B3EFC8
:103B60001DF096EF1DF0C1EF1DF0182A010E192669
:103B7000000E1A221B221C22D8901C321B321A3231
:103B80001932000E1914136E000E1A14146E000E62
:103B90001B14156EFF0E1C14166E13501410151006
:103BA0001610D8A4D6EF1DF0D8EF1DF0B5EF1DF01C
:103BB000E0EF1DF01806D89019361A361B361C3661
:103BC0001BBEE5EF1DF0E7EF1DF0EFEF1DF0020E5D
:103BD0001860EDEF1DF0EFEF1DF0DAEF1DF018B0FB
:103BE000F4EF1DF0F6EF1DF0F7EF1DF01B9ED890DF
:103BF000183218C513F5146A156A166A13C516F536
:103C0000156A146A136A1350191214501A121550B7
:103C10001B1216501C121750D8B411EF1EF013EFE0
:103C20001EF01BEF1EF012BE1AEF1EF018EF1EF072
:103C30001BEF1EF01C8E19C50FF51AC510F51BC51C
:103C400011F51CC512F5120001011DAF2AEF1EF07F
:103C50002CEF1EF03BEF1EF002D839EF1EF00500EE
:103C6000FA6E05018251FD6E8351FE6EFF6AFA50B5
:103C7000120001011D9F1DAD40EF1EF042EF1EF02E
:103C800051EF1EF002D84FEF1EF00500FA6E05014D
:103C90008051FD6E8151FE6EFF6AFA5012000101E3
:103CA0001D9D1DAB56EF1EF058EF1EF067EF1EF086
:103CB00002D865EF1EF00500FA6E05017E51FD6E1B
:103CC0007F51FE6EFF6AFA50120001011D9B1CA776
:103CD0006CEF1EF06EEF1EF07DEF1EF002D87BEF52
:103CE0001EF00500FA6E05017C51FD6E7D51FE6EE1
:103CF000FF6AFA50120001011C971DA982EF1EF005
:103D000084EF1EF093EF1EF002D891EF1EF0050035
:103D1000FA6E05017A51FD6E7B51FE6EFF6AFA5014
:103D2000120001011D991DA598EF1EF09AEF1EF0DB
:103D3000B0EF1EF002D8A7EF1EF00500FA6E0501E5
:103D40007851FD6E7951FE6EFF6AFA501200010142
:103D500054A9ADEF1EF0AFEF1EF0B0EF1EF0549976
:103D60001DA7B5EF1EF0B7EF1EF0CDEF1EF002D885
:103D7000C4EF1EF00500FA6E05017651FD6E775115
:103D8000FE6EFF6AFA501200010160A7CAEF1EF032
:103D9000CCEF1EF0CDEF1EF06097AE9C12000A6EC5
:103DA00010EF1FF00EEC32F0000EE8EC31F0100EC8
:103DB0009BEC2DF001C50BF502C50CF5010E0D6E47
:103DC0002DEF1FF00EEC32F0010EE8EC31F0040E96
:103DD0009BEC2DF001C50BF502C50CF5DEEF1EF0D6
:103DE0000EEC32F0020EE8EC31F0120E9BEC2DF0EE
:103DF00001C50BF502C50CF5DEEF1EF00EEC32F03E
:103E0000030EE8EC31F0110E9BEC2DF001C50BF523
:103E100002C50CF5DEEF1EF0020E0D6E2DEF1FF049
:103E20000A50086E096A0950000AD8B41AEF1FF048
:103E30000CEF1FF00850010AD8B4F0EF1EF0030A8F
:103E4000D8B4FEEF1EF0010AD8B4D2EF1EF0070A74
:103E5000D8B4E2EF1EF00CEF1FF00D04D8A433EF3E
:103E60001FF035EF1FF063EF1FF00C5007E1070E56
:103E70000B5CD8B03EEF1FF040EF1FF046EF1FF095
:103E8000000E0F6E000E0E6E50EF1FF00BC50EF5FC
:103E90000CC50FF5FB0E0E240E6EFF0E0F200F6EDD
:103EA000890E0E5C130E0F58D8A059EF1FF05BEF70
:103EB0001FF05DEF1FF063EF1FF00EC506F50FC595
:103EC00007F563EF1FF01200D0EC30F00009D8B412
:103ED0006CEF1FF06EEF1FF0A8EF1FF07BEF1FF0ED
:103EE00051EC31F0F4EF1FF038EC32F0F4EF1FF04A
:103EF000000EF4EF1FF012C60AF513C60BF502D838
:103F00008CEF1FF00500FA6E06010651FD6E075199
:103F1000FE6EFF6AFA5012000C6E0D6A0D50000A18
:103F2000D8B495EF1FF078EF1FF00C50010AD8B409
:103F300078EF1FF0030AD8B470EF1FF0010AD8B46D
:103F400074EF1FF0070AD8B478EF1FF078EF1FF076
:103F5000C5EC30F00009D8B4B0EF1FF0B2EF1FF09D
:103F6000F3EF1FF006012351030B0009D8B4BBEF98
:103F70001FF0BDEF1FF0C9EF1FF0010E0C6E2351B3
:103F8000030B0D6E0C500D5E23510D18FC0B0D181C
:103F9000236F610074F8D9F4610078F8DAF4DF5027
:103FA000106E1D4B1E2B1F07D8A020071F5120117C
:103FB000D8A4DDEF1FF0DFEF1FF0E7EF1FF006ECF6
:103FC00029F00C6E0C500E6E0F6AEBEF1FF0000E16
:103FD0000F6E030E0E6E0EC511F51050EDEC31F0A4
:103FE0001150F4EF1FF0030E1200000E0501C56F13
:103FF000C3BFFFEF1FF0FDEF1FF009EF20F0C31F5D
:10400000C21FC11FC06D000EC123C223C323010EF6
:10401000C56FBFBF10EF20F00EEF20F01AEF20F0B9
:10402000BF1FBE1FBD1FBC6D000EBD23BE23BF231F
:10403000010EC51B000EC66F000EC76F000EC86FC5
:10404000000EC96FC051C111C211C311D8B42BEFFA
:1040500020F02DEF20F063EF20F0010EC46F37EF5A
:1040600020F0D890C037C137C237C337C42BC3AF95
:104070003CEF20F03EEF20F031EF20F0D890C63733
:10408000C737C837C937C051BC5DC151BD59C251CE
:10409000BE59C351BF59D8A050EF20F052EF20F0C5
:1040A0005BEF20F0C051BC5FC151BD5BC251BE5B34
:1040B000C351BF5BC681D890C333C233C133C03351
:1040C000C42F3EEF20F0C551D8B469EF20F06BEF5C
:1040D00020F073EF20F0C91FC81FC71FC66D000E68
:1040E000C723C823C923C6C5BCF5C7C5BDF5C8C508
:1040F000BEF5C9C5BFF51200000E0A6E08BE85EFF9
:1041000020F083EF20F08FEF20F0081E071E061E20
:10411000056C000E062207220822010E0A6E04BE5C
:1041200096EF20F094EF20F0A0EF20F0041E031E85
:10413000021E016C000E022203220422010E0A1A42
:10414000000E0B6E000E0C6E000E0D6E000E0E6E4D
:104150000550061007100810D8B4B1EF20F0B3EFE7
:1041600020F0E9EF20F0010E096EBDEF20F0D890AD
:104170000536063607360836092A08AEC2EF20F0A3
:10418000C4EF20F0B7EF20F0D8900B360C360D3688
:104190000E360550015C065002580750035808506F
:1041A0000458D8A0D6EF20F0D8EF20F0E1EF20F0AF
:1041B0000550015E0650025A0750035A0850045A2F
:1041C0000B80D8900832073206320532092EC4EF30
:1041D00020F00A50D8B4EFEF20F0F1EF20F0F9EF23
:1041E00020F00E1E0D1E0C1E0B6C000E0C220D225C
:1041F0000E220BC501F50CC502F50DC503F50EC564
:1042000004F512000501DC35DD35E36FE351D8A478
:104210000CEF21F00EEF21F018EF21F0000EDA6F15
:10422000000EDB6F000EDC6F000EDD6F85EF21F0FE
:10423000DAC5DEF5DBC5DFF5DCC5E0F5DDC5E1F5AA
:10424000200E28EF21F0D890E133E033DF33DE3366
:10425000E82E23EF21F0DE51E26FDC8FFF0EDA173C
:10426000FF0EDB17FF0EDC17000EDD17960EE35F67
:10427000E3BF3FEF21F03DEF21F055EF21F0E35197
:10428000800A970FD8B047EF21F049EF21F04BEFAC
:1042900021F00EEF21F0D890DD33DC33DB33DA335D
:1042A000E33F4BEF21F06DEF21F01F0EE3655BEF75
:1042B00021F05DEF21F065EF21F00EEF21F0D890B5
:1042C000DA37DB37DC37DD37E307E351D8A46BEFB0
:1042D00021F06DEF21F05FEF21F0E251D8B473EFE0
:1042E00021F075EF21F07DEF21F0DD1FDC1FDB1FDA
:1042F000DA6D000EDB23DC23DD23DAC5DAF5DBC55E
:10430000DBF5DCC5DCF5DDC5DDF512002F3430341E
:10431000366E3650D8A48FEF21F091EF21F09BEF4D
:1043200021F0000E2D6E000E2E6E000E2F6E000E70
:10433000306E08EF22F02DC531F52EC532F52FC5B0
:1043400033F530C534F5200EABEF21F0D890343280
:10435000333232323132E82EA6EF21F03150356E51
:104360002F8EFF0E2D16FF0E2E16FF0E2F16000E8F
:104370003016960E365E36BEC2EF21F0C0EF21F049
:10438000D8EF21F03650800A970FD8B0CAEF21F04D
:10439000CCEF21F0CEEF21F091EF21F0D890303228
:1043A0002F322E322D32363ECEEF21F0F0EF21F0BB
:1043B0001F0E3664DEEF21F0E0EF21F0E8EF21F090
:1043C00091EF21F0D8902D362E362F363036360626
:1043D0003650D8A4EEEF21F0F0EF21F0E2EF21F01B
:1043E0003550D8B4F6EF21F0F8EF21F000EF22F0CD
:1043F000301E2F1E2E1E2D6C000E2E222F2230223C
:104400002DC52DF52EC52EF52FC52FF530C530F550
:104410001200490E0501BC6F990EBD6F000EBE6FF4
:10442000000EBF6FE6C5C0F5E7C5C1F5C26BC36B33
:10443000F5EC1FF0BCC5EAF5BDC5EBF56A0E05014C
:10444000CE6F4D0ECF6F930ED06FBF0ED16FEAC5FA
:10445000BCF5EBC5BDF5BE6BBF6B000E6EEC1CF082
:10446000BCC5CAF5BDC5CBF5BEC5CCF5BFC5CDF540
:104470005EEC13F0CAC5DAF5CBC5DBF5CCC5DCF5CF
:10448000CDC5DDF502EC21F0DAC5EAF5DBC5EBF5CB
:10449000E4C5E8F5E5C5E9F50501D890E837E93761
:1044A000D890E837E937E8C5ECF5E9C5EDF5ECC596
:1044B000BCF5EDC5BDF5000EBF6F640EBE6F54ECCC
:1044C0002EF0BCC5ECF5BDC5EDF5ECC5BCF5EDC5F4
:1044D000BDF5E6C5BEF5E7C5BFF5BEEC29F0BCC528
:1044E000ECF5BDC5EDF5ECC5BCF5EDC5BDF543EC92
:1044F00031F0EAC5BCF5EBC5BDF53CEC31F034EC70
:1045000032F01200436E000E0A6E050E096E43C5AE
:1045100001F5026A100E046E000E036E71EC2FF0AE
:1045200001C507F502C508F5F4EC25F007C50FF540
:1045300008C510F5000E10BEFF0E116E126E010EB2
:104540004AEC1DF00FC53BF510C53CF511C53DF516
:1045500012C53EF5000E0A6E050E096E43C501F543
:10456000026A100E046E000E036E71EC2FF001C58E
:1045700007F502C508F5F4EC25F007C50FF508C5E9
:1045800010F5000E10BEFF0E116E126E010E4AECF9
:104590001DF00FC53FF510C540F511C541F512C519
:1045A00042F5600E376E3BC52DF53CC52EF53DC579
:1045B0002FF53EC530F586EC21F02DC538F52EC51A
:1045C00039F5600EDFEC2AF0600E376E3FC52DF531
:1045D00040C52EF541C52FF542C530F586EC21F0DA
:1045E0002DC538F52EC539F5610EDFEC2AF0120025
:1045F000490E016E990E026E000E036E000E046EDF
:1046000039C505F53AC506F5076A086A7CEC20F05D
:1046100001C53DF502C53EF56A0E216E4D0E226EB6
:10462000930E236EBF0E246E3DC50FF53EC510F5EB
:10463000116A126A000E4AEC1DF00FC51DF510C577
:104640001EF511C51FF512C520F5BFEC15F01DC5EF
:104650002DF51EC52EF51FC52FF520C530F586ECAE
:1046600021F02DC53DF52EC53EF537C53BF538C5C6
:104670003CF5D8903B363C36D8903B363C363BC573
:104680003FF53CC540F53FC501F540C502F5000EBC
:10469000046E640E036E71EC2FF001C53FF502C588
:1046A00040F53FC501F540C502F539C503F53AC5EA
:1046B00004F56DEC2AF001C53FF502C540F53FC594
:1046C00001F540C502F56AEC31F03DC501F53EC586
:1046D00002F564EC31F03EEC32F01200206E000E78
:1046E0001C6E175082EC30F01F6E1FA07AEF23F083
:1046F0007CEF23F0E2EF23F017500C0D580EF3245B
:10470000D96E010EF420DA6E610078F31DF56100B8
:1047100074F31EF51D501E10D8B491EF23F093EFE3
:1047200023F0E2EF23F01DC50CF51EC50DF518C5ED
:104730000EF519C50FF542EC19F017500C0D510E7E
:10474000F324D96E010EF420DA6E000EDB802050C7
:10475000020DFF0EF324D96E050EF420DA6EDF2A67
:10476000175028EC30F01A6E2050020DFF0EF32483
:10477000D96E050EF420DA6E1A50DE5CD8A0C3EFB5
:1047800023F0C5EF23F0CFEF23F02050020DFF0EF2
:10479000F324D96E050EF420DA6E000EDF6E1FA62C
:1047A000D4EF23F0D6EF23F0E0EF23F017500C0DF9
:1047B000540EF324D96E010EF420DA6EF70EDF16D4
:1047C000010E1C6E1C501200060134513511D8B474
:1047D000ECEF23F0EEEF23F0FAEF23F002D8FAEF3C
:1047E00023F00500FA6E3451FD6E3551FE6EFF6AFE
:1047F000FA5012000BEC2DF00501AD2B060EAD1991
:10480000D8A405EF24F007EF24F00BEF24F0000EFE
:10481000AD6FF9EC2FF00501AC2B0B0EAC19D8A441
:1048200014EF24F016EF24F01AEF24F0000EAC6F12
:1048300049EC2DF00501AB2B650EAB19D8A423EF85
:1048400024F025EF24F029EF24F0000EAB6F44ECA8
:1048500032F005016C4B6D2B2D0E6C1906E16D05C8
:10486000D8A435EF24F037EF24F03DEF24F0000E0C
:104870006D6F000E6C6F42EC32F005016A4B6B2BD2
:10488000590E6A1907E1020E6B19D8A44AEF24F0F9
:104890004CEF24F052EF24F0000E6B6F000E6A6FA5
:1048A00043EC32F0120022C52CF623C52DF624C5A8
:1048B0002EF625C52FF626C530F627C531F628C5B4
:1048C00032F629C533F61DC5B5F51EC5B6F51FC5AB
:1048D000B7F520C5B8F50501B99DB99FB993B99150
:1048E00021C52AF50F0E2A162A462A46B9512A183A
:1048F000C30B2A18B96F2C0EBA6F060EBB6FAFEC44
:1049000030F0E806D8A487EF24F089EF24F08AEF8E
:1049100024F000F0A4EC30F0E806D8A492EF24F0E4
:1049200094EF24F095EF24F000F099EC30F0E806D5
:10493000D8A49DEF24F09FEF24F0A0EF24F000F026
:1049400045EC30F0E806D8A4A8EF24F0AAEF24F054
:10495000ABEF24F000F0000EAEEC2FF02A6E2AA090
:10496000B4EF24F0B6EF24F0BEEF24F0B50E176ECE
:10497000050E186E000EF4EC27F000F01200076E22
:10498000000E086E20EE04F00250D9260350DA2201
:10499000DF50096E09AECFEF24F0D1EF24F0DCEF49
:1049A00024F0E3EC31F0060AD8A4D9EF24F0DBEFD1
:1049B00024F0DCEF24F008820930E8320F0B046E9B
:1049C000080E0464E6EF24F0E8EF24F0FAEF24F098
:1049D00009ACEDEF24F0EFEF24F0F9EF24F0E3EC75
:1049E00031F0060AD8A4F7EF24F0F9EF24F0FAEF3B
:1049F00024F008802F0EF66E260EF76EF86A080077
:104A00006100D4F304F50930E8320F0B056E066A35
:104A1000270E0524F66E260E0620F76EF86A000EA5
:104A2000F8220800F550045CD8B019EF25F01BEF10
:104A300025F01CEF25F0088007505EEC30F00009EF
:104A4000D8A425EF25F027EF25F029EF25F0030E58
:104A5000081208501200000E036E000E0A6E0A5073
:104A6000020DFE0EF324D96E050EF420DA6EDF502F
:104A7000066E065082EC30F0056E05A042EF25F080
:104A800044EF25F085EF25F0065028EC30F0076E56
:104A900005A64DEF25F04FEF25F053EF25F007C5A4
:104AA00004F583EF25F006500C0D550EF324D96E56
:104AB000010EF420DA6EDF501F0B086E0A50020D53
:104AC000FF0EF324D96E050EF420DA6EDF50096E66
:104AD0000950085CD8B06FEF25F071EF25F077EF43
:104AE00025F00950085C0724046E83EF25F0085078
:104AF000095CD8B07EEF25F080EF25F04FEF25F070
:104B00000950085C046E045003260A2A0A50D8B4DF
:104B10008CEF25F08EEF25F02FEF25F003501200DB
:104B2000000ECFB4010E016E000ECEB2010E026E69
:104B30000104D8A49EEF25F0A0EF25F0AFEF25F0FB
:104B40000250D8A4A6EF25F0A8EF25F0AFEF25F08E
:104B5000010E0501A76F5FC5A9F5F3EF25F0015020
:104B6000D8A4B5EF25F0B7EF25F0C6EF25F0020485
:104B7000D8A4BDEF25F0BFEF25F0C6EF25F0020E5B
:104B80000501A76F5FC5A8F5F3EF25F00150D8A484
:104B9000CCEF25F0CEEF25F0DBEF25F00250D8A4C6
:104BA000D4EF25F0D6EF25F0DBEF25F0030E05015D
:104BB000A76FF3EF25F00104D8A4E1EF25F0E3EFB0
:104BC00025F0F0EF25F00204D8A4E9EF25F0EBEF93
:104BD00025F0F0EF25F0040E0501A76FF3EF25F0A7
:104BE000050E0501A76F1200000E0C6E0ABEFDEF48
:104BF00025F0FBEF25F003EF26F0096C0A1ED8B074
:104C00000A2A010E0C6E08BE0AEF26F008EF26F005
:104C100010EF26F0076C081ED8B0082A010E0C1AF7
:104C2000000E0E6E000E0D6E09500A10D8B41BEF68
:104C300026F01DEF26F045EF26F0010E0B6E25EF56
:104C400026F0D89009360A360B2A0AAE2AEF26F04B
:104C50002CEF26F021EF26F0D8900D360E360950B5
:104C6000075C0A500858D8A038EF26F03AEF26F033
:104C70003FEF26F00950075E0A50085A0D80D89081
:104C80000A3209320B2E2CEF26F00C50D8B44BEF21
:104C900026F04DEF26F051EF26F00D6C0E1ED8B029
:104CA0000E2A0DC507F50EC508F512006100D8F3F0
:104CB00057F56100DCF358F56100E0F359F5610048
:104CC000D4F35AF5A1AE67EF26F069EF26F074EF42
:104CD00026F0B1AE6EEF26F070EF26F074EF26F0FE
:104CE00082EC2DF0AAEF26F0A1A879EF26F07BEF59
:104CF00026F086EF26F0B1A880EF26F082EF26F0AE
:104D000086EF26F066EC2DF0AAEF26F09EAC8BEF36
:104D100026F08DEF26F098EF26F0AEAC92EF26F05D
:104D200094EF26F098EF26F024EC1EF0AAEF26F080
:104D3000A2A89DEF26F09FEF26F0AAEF26F0B2A8DA
:104D4000A4EF26F0A6EF26F0AAEF26F06AEC2EF0EC
:104D5000AAEF26F0610068F5F5F4610064F5F8F457
:104D6000610060F5F7F461005CF5F6F411000601EE
:104D70002389DBEF26F023EC32F0080E07EF27F053
:104D800023EC32F0070E07EF27F006011F2934EC61
:104D900031F0040E07EF27F0070E06012119D8B4F1
:104DA000D4EF26F0D6EF26F0D8EF26F026EC32F03E
:104DB0000F0E07EF27F00CC60AF50DC60BF502D84B
:104DC000EBEF26F00500FA6E0051FD6E0151FE6E0C
:104DD000FF6AFA5012000C6E0D6A0D50000AD8B42A
:104DE000F4EF26F0CCEF26F00C50010AD8B4CCEF4B
:104DF00026F0030AD8B4C0EF26F0010AD8B4BBEFFE
:104E000026F0070AD8B4C5EF26F0CCEF26F0120042
:104E1000446E44500C0D6100CCF35BF56100D0F39F
:104E20005CF55BC501F55CC502F5000E046E640E11
:104E3000036E6DEC2AF001C55BF502C55CF55B50B5
:104E40005B6E5C6A0501AA514118D8A42AEF27F0CD
:104E50002CEF27F058EF27F0A851426E436A5B50C1
:104E6000425C5C504358D8A038EF27F03AEF27F067
:104E700058EF27F05B505C10D8B441EF27F043EFB8
:104E800027F058EF27F05C5007E10C0E5B5CD8B0C0
:104E90004CEF27F04EEF27F058EF27F05BC537F5C2
:104EA0005CC538F5000E3A6E320E396EF8EC22F021
:104EB0001200DBEC30F00009D8A461EF27F063EFBB
:104EC00027F066EF27F0040EA7EF27F00601235125
:104ED000030B0009D8B46FEF27F071EF27F07DEFD7
:104EE00027F0010E0E6E2351030B0F6E0E500F5E56
:104EF00023510F18FC0B0F18236F1F07D8A0200792
:104F00001F512011D8B487EF27F089EF27F097EFD2
:104F100027F020EC32F0610074F8D9F4610078F8E1
:104F2000DAF4DF6E06011D4B1E2B63EF27F0B7ECA2
:104F300026F0106E20EC32F0610074F8D9F46100B4
:104F400078F8DAF4DF6E06011D4B1E2B10501200AC
:104F50000501BE6F000E0501BD6F9DEC31F005012E
:104F6000BC6F040EBC19D8B4B8EF27F0BAEF27F025
:104F7000CBEF27F0BE05D8B4C0EF27F0C2EF27F083
:104F8000CBEF27F0040EBE19D8A4C9EF27F0CBEF62
:104F900027F0F0EF27F0010103510501BE19F80BCE
:104FA000BE190101036FE2EF27F001011DA9DBEF3C
:104FB00027F0DDEF27F0E2EF27F0020E0501BD6FCD
:104FC000F2EF27F00239E832070B0501BE19D8A429
:104FD000ECEF27F0EEEF27F0D5EF27F0F2EF27F018
:104FE000010EBD6FBD5112001C6E1C502AEC2DF03D
:104FF0000009D8B4FEEF27F000EF28F03DEF28F0CD
:1050000017C502F518C503F51C50BFEC24F0196E46
:105010001950D8A40EEF28F010EF28F03DEF28F03B
:105020001C500C0D580EF324D96E010EF420DA6ECC
:10503000610078F31AF5610074F31BF51A501B1028
:10504000D8B425EF28F027EF28F03DEF28F01AC557
:105050000CF51BC50DF517C50EF518C50FF51FECA2
:1050600018F01C500C0D510EF324D96E010EF420D3
:10507000DA6E030EDF123DEF28F01200016E010E12
:10508000026E060123B747EF28F049EF28F084EFBE
:1050900028F001C51CF623952387FC0E23170F0E5D
:1050A000216F010E1B6FF40E1A6F2389780E006FAB
:1050B000640E016F000E0C6F000E0D6F780E026F04
:1050C000640E036F000E0E6F000E0F6F780E046FEC
:1050D000640E056F000E106F000E116F780E066FD4
:1050E000640E076F000E126F000E136F740E086FC0
:1050F000640E096F000E146F000E156F07EC32F08E
:1051000080EC2EF0000E026E02501200056E01506F
:105110000210D8B48EEF28F090EF28F0AEEF28F010
:105120000550020D000EF324D96E060EF420DA6E3F
:10513000610004F4DEF4610008F4DDF40550020DB2
:105140000C0EF324D96E060EF420DA6E61000CF416
:10515000DEF4610010F4DDF4C6EF28F00550020D16
:10516000000EF324D96E060EF420DA6E780EDE6E91
:10517000640EDD6E0550020D0C0EF324D96E060E82
:10518000F420DA6E000EDE6E000EDD6E1200000EF0
:10519000BE6E000EBF6E000EC06E080ECA6EDE0E32
:1051A000C66ECC0EC76E070EC86EE70E0401106FF8
:1051B000730E086FFD0E006F000E216F000E096F59
:1051C000000E016F000E116F000E026F000E0A6FCD
:1051D000180E126F03690B69136904690C6914696D
:1051E000080E246F0F0E0201696F140E706F1A0EF5
:1051F0000A6F370E146F180E096F380E156F0B0EED
:105200003D6F460E0D6F130E716F1200060123895C
:105210001BEF29F023EC32F0070E43EF29F00601D3
:105220001F2934EC31F0030E43EF29F026EC32F065
:105230000A0E43EF29F00CC60AF50DC60BF502D88D
:105240002BEF29F00500FA6E0051FD6E0151FE6E44
:10525000FF6AFA5012000C6E0D6A0D50000AD8B4A5
:1052600034EF29F016EF29F00C50010AD8B416EFEC
:1052700029F0030AD8B40AEF29F0060AD8B40FEFD0
:1052800029F016EF29F01200940E0501BC6F640E90
:10529000BD6FB6EC31F0960E0501BC6F640EBD6FAC
:1052A000BBEC31F0980E0501BC6F640EBD6FC0EC15
:1052B00031F0920E0501BC6F640EBD6FB1EC31F0A0
:1052C0008E0E0501BC6F640EBD6FA7EC31F08C0E25
:1052D0000501BC6F640EBD6FA2EC31F0900E0501AC
:1052E000BC6F640EBD6FACEC31F0AE9C000E0101E2
:1052F0001C6F000E1D6F0A0E1E6FFC0E1F6F9E8C22
:10530000120024EC2CF006012351030B0009D8B441
:105310008CEF29F08EEF29F09BEF29F0D0EC30F0E4
:105320000009D8B496EF29F098EF29F09BEF29F007
:10533000100E0601216F06012151020D010EF3240A
:10534000F66E260EF420F76EF86A000EF8220900B9
:105350006100D4F312F509006100D4F313F502D80B
:10536000BBEF29F00500FA6E1250FD6E1350FE6E71
:10537000FF6AFA5012000601216F1200000E0501AB
:10538000C16F000EC06FBE51BF11D8B4CAEF29F073
:10539000CCEF29F0F4EF29F0010EC26FD4EF29F021
:1053A000D890BE37BF37C22BBFAFD9EF29F0DBEFA4
:1053B00029F0D0EF29F0D890C037C137BE51BC5D7D
:1053C000BF51BD59D8A0E7EF29F0E9EF29F0EEEF82
:1053D00029F0BE51BC5FBF51BD5BC081D890BF33C7
:1053E000BE33C22FDBEF29F0C0C5BCF5C1C5BDF58A
:1053F0001200000E6F6E020E706E000E716E3D0E8A
:10540000726E000E736EFE0E746E000E756E000EE0
:10541000766E000E776E000E796E1F0E7A6E000E9D
:105420007B6E1F0E7C6E000E7D6EB39CB39E7690DD
:105430007692A39EA39C000E0501BC6F000EBD6F6B
:105440007FEC31F0000E0501BC6F000EBD6F7AECF1
:1054500031F0000E0501BC6F000EBD6F84EC31F021
:10546000800E786E1200000E606E020E616E000EED
:10547000626E3D0E636E000E646EFE0E656E000E73
:10548000666E000E676E000E686E000E6A6E1F0E6E
:105490006B6E000E6C6E1F0E6D6E000E6E6EB29C0B
:1054A000B29E67906792A29EA29C000E0501BC6FFF
:1054B000000EBD6F8EEC31F0000E0501BC6F000ECA
:1054C000BD6F89EC31F0000E0501BC6F000EBD6FA1
:1054D00093EC31F0800E696E1200000E066E000E25
:1054E000056E03500410D8B478EF2AF07AEF2AF052
:1054F000A2EF2AF0010E076E82EF2AF0D890033651
:105500000436072A04AE87EF2AF089EF2AF07EEFEF
:105510002AF0D890053606360350015C0450025834
:10552000D8A095EF2AF097EF2AF09CEF2AF00350CD
:10553000015E0450025A0580D89004320332072ECF
:1055400089EF2AF005C501F506C502F5120007EC42
:1055500032F0020E0601226FBAEF2AF051EC31F060
:10556000DEEF2AF038EC32F0DEEF2AF02CEC31F0EE
:10557000DEEF2AF00EC60AF50FC60BF502D8CAEF09
:105580002AF00500FA6E0251FD6E0351FE6EFF6AAD
:10559000FA5012000C6E0D6A0D50000AD8B4D3EF09
:1055A0002AF0B6EF2AF00C50020AD8B4AEEF2AF077
:1055B000010AD8B4B2EF2AF0B6EF2AF012003A6E20
:1055C0003A503EEC28F00009D8B4E9EF2AF0EBEFAE
:1055D0002AF0E0EF2AF0B00E066E5D0E076E380E70
:1055E000086E050E096E76EC30F0370E016E050E72
:1055F000026E000E046E010E036ED6EC2FF0000E4C
:10560000066E000E076E000E086E000E096E6AEC44
:1056100030F0F7EC31F046EC2FF0E806D8B413EF99
:105620002BF015EF2BF00BEF2BF01200FC0E060108
:105630002317020E226F239525EF2BF036EC32F064
:1056400049EF2BF00F0E49EF2BF010C60AF511C6EB
:105650000BF502D835EF2BF00500FA6E0451FD6E04
:105660000551FE6EFF6AFA5012000C6E0D6A0D5065
:10567000000AD8B43EEF2BF022EF2BF00C50020AB8
:10568000D8B41EEF2BF0010AD8B41EEF2BF022EF96
:105690002BF012000101018F040EA8EC27F0000985
:1056A000D8A455EF2BF057EF2BF077EF2BF0000E2F
:1056B00001014C6F260E4D6F000E4E6F000E4F6FA6
:1056C000600E006F970E016F100E026F11EC31F03B
:1056D00007EC31F05CEC2FF0E8EC2FF0CBEC2DF088
:1056E00044EC29F0060EA8EC27F0C79ABF9A1200E6
:1056F000B5A27DEF2BF07FEF2BF081EF2BF0A4EF25
:105700002BF0B5A086EF2BF088EF2BF08AEF2BF073
:10571000A4EF2BF002019AA590EF2BF092EF2BF063
:1057200094EF2BF0A4EF2BF09AAF99EF2BF09BEFB7
:105730002BF09DEF2BF0A4EF2BF097A9A2EF2BF00D
:10574000A4EF2BF078EF2BF0120003C509F504C588
:105750000AF501C507F502C508F5C4EF2BF0610095
:1057600024F4D9F4610028F4DAF4DF500B6E094A0E
:105770000A2A61001CF4D9F4610020F4DAF4610013
:105780002CF4DFF4074A082A0506D8A006060528E7
:1057900006E10628D8A4CFEF2BF0D1EF2BF0AFEF26
:1057A0002BF01200800EF66E640EF76E000EF86E8F
:1057B00009006100D4F3FEF509006100D4F3FFF5A0
:1057C00001EE00F2340EEE6AE806FDE101EE60F152
:1057D0005C0EEE6AE806FDE15F6A5E6A5D6A5C6A1D
:1057E0005B6A0401080E5D6F000E5E6F000E5F6F56
:1057F00000018EEF30F0146E010E156E060123B518
:1058000004EF2CF006EF2CF022EF2CF02385000E95
:10581000156E1F5134EC31F01450D8B412EF2CF047
:1058200014EF2CF01BEF2CF0040E0601216F27EC77
:105830002EF020EF2CF0030E0601216FBAEC30F0B1
:1058400019EC30F015501200FCEC30F00009D8B41F
:105850002CEF2CF02EEF2CF032EF2CF02FEC32F05E
:105860004CEF2CF0E6EC30F00009D8B43AEF2CF015
:105870003CEF2CF040EF2CF029EC32F04CEF2CF008
:10588000F1EC30F00009D8B448EF2CF04AEF2CF0DE
:105890004CEF2CF02CEC32F01200000E246E245051
:1058A000020DFE0EF324D96E050EF420DA6EDF50E1
:1058B000176E21C518F522C519F524506EEC23F09A
:1058C000236E2350D8B467EF2CF069EF2CF06BEF08
:1058D0002CF074EF2CF0242A2450D8B472EF2CF062
:1058E00074EF2CF04FEF2CF02350120020EE02F05A
:1058F0000A50D9260B50DA22610078F301F56100D5
:1059000074F302F5610028F4D9F461002CF4DAF4A0
:10591000610078F303F5610074F304F5D6EC2FF021
:10592000000E066E000E076E000E086E000E096E69
:1059300076EC30F0020E120020EE02F00A50D9266A
:105940000B50DA22610078F301F5610074F302F57F
:10595000610028F4D9F461002CF4DAF4610078F3E2
:1059600003F5610074F304F5D6EC2FF0000E066E1B
:10597000000E076E000E086E000E096E76EC30F019
:10598000020E1200466ED1EF2CF0000E82EC22F0D7
:10599000BE8AE6EF2CF0BE9AE6EF2CF0BE9AE6EF58
:1059A0002CF04650446E456A4550000AD8B4DBEFEF
:1059B0002CF0CEEF2CF04450000AD8B4CBEF2CF0F2
:1059C000010AD8B4C5EF2CF0CEEF2CF01200000E77
:1059D00003011F6F000E206F010E216F850E1D6FDA
:1059E000EE0E1C6FB1981C51600074FCBEF50501F1
:1059F000BF6BBEC5BFF5BE6BBE11EE6FBF51EF6F83
:105A0000A188820EBC6F640EBD6F70EC31F0310E58
:105A100003011E6F120090EC25F0300E1D6E030E78
:105A20001E6E000E1F6E000E206E060E216E5EC5ED
:105A300022F55DC523F5A6C524F5A5C525F5000EFF
:105A4000266E000E276E000E286E000E296E53EC97
:105A500024F01200026E000E016E040E026033EF9D
:105A60002DF035EF2DF047EF2DF002500C0D500EBC
:105A7000F324D96E010EF420DA6E0101DFAE43EF9C
:105A80002DF045EF2DF047EF2DF0010E016E015086
:105A90001200310E1D6E030E1E6E000E1F6E000EE4
:105AA000206E030E216E000E226E000E236E000E7D
:105AB000246E000E256E000E266E000E276E000E60
:105AC000286E000E296E53EC24F01200B198EEC53A
:105AD00001F5EFC502F5E2EC2DF00501684B692BED
:105AE000695109E1050E685DD8A079EF2DF07BEFD3
:105AF0002DF07FEF2DF0000E696F000E686FE4EC63
:105B000023F01200B19E05016E4B6F2B6F5109E11E
:105B10000A0E6E5DD8A08FEF2DF091EF2DF098EF6B
:105B20002DF0F9EC2DF0000E05016F6F000E6E6F79
:105B30000BEC32F01200056E610014F4ECF303017B
:105B4000F38FF39DF381F3B1A8EF2DF0AAEF2DF0C1
:105B5000A3EF2DF0EB51046E036AEA510324016EAA
:105B6000000E0420026E120032EC32F09AEC2FF09C
:105B70003EEC2EF062EC1AF0C7EC28F052EC30F05C
:105B8000E7EC2CF086EC2FF0F9EC29F04AEC2BF046
:105B900033EC2AF01200000E0501BC6FBC51020D5F
:105BA000FF0EF324D96E050EF420DA6E000EDF6EC0
:105BB000BC2BBC51D8B4DFEF2DF0E1EF2DF0CEEFD0
:105BC0002DF0120003011EA5E8EF2DF0EAEF2DF0F5
:105BD000F3EF2DF01E9102501D6F610004F41CF3D1
:105BE0001E81F8EF2DF002501D6F610004F41CF3CC
:105BF0001200060136513711D8B401EF2EF003EF31
:105C00002EF00FEF2EF002D80FEF2EF00500FA6EF7
:105C10003651FD6E3751FE6EFF6AFA5012001200C7
:105C2000010ECFEC1EF006505E6E020ECFEC1EF0A1
:105C300006505D6E030ECFEC1EF006500501A66FF8
:105C4000040ECFEC1EF006500501A56F12000601F0
:105C50002351FC0B0209236F1F052011D8A433EF39
:105C60002EF035EF2EF037EF2EF0B7EC26F0D8807F
:105C700006011C35EDEC31F0040E1200040E020199
:105C8000946F800E956F180E966F030E9E6F000E28
:105C90009A6F000E9B6F000E976F000E8C6F000EB8
:105CA0008D6F000E9D6F12000501BC51BE03610097
:105CB000CCF3C0F56100D0F3C1F5BC51BF03F35084
:105CC000C127BD51BE03F350C127C0C5BCF5C1C536
:105CD000BDF51200010160A170EF2EF072EF2EF001
:105CE0007FEF2EF002D87FEF2EF00500FA6E05014F
:105CF0008451FD6E8551FE6EFF6AFA50120012004B
:105D0000020194BF86EF2EF088EF2EF095EF2EF073
:105D1000000E9A6F000E9B6F000E976F000E8C6F37
:105D2000000E8D6F000E9D6F948F12000AC501F555
:105D30000BC502F5000E046E010E036ED6EC2FF0BB
:105D4000000E066E000E076E000E086E000E096E45
:105D500076EC30F0040E12000AC501F50BC502F511
:105D6000000E046E020E036ED6EC2FF0000E066ECF
:105D7000000E076E000E086E000E096E76EC30F015
:105D8000020E12000AC501F50BC502F5000E046EE5
:105D9000010E036ED6EC2FF0000E066E000E076E9D
:105DA000000E086E000E096E76EC30F0020E120046
:105DB0000AC501F50BC502F5000E046E020E036E56
:105DC000D6EC2FF0000E066E000E076E000E086E69
:105DD000000E096E76EC30F0040E12000AC501F5D3
:105DE0000BC502F5000E046E020E036ED6EC2FF00A
:105DF000000E066E000E076E000E086E000E096E95
:105E000076EC30F0020E12000AC501F50BC502F562
:105E1000000E046E010E036ED6EC2FF0000E066E1F
:105E2000000E076E000E086E000E096E76EC30F064
:105E3000020E12000AC501F50BC502F5000E046E34
:105E4000010E036ED6EC2FF0000E066E000E076EEC
:105E5000000E086E000E096E76EC30F0040E120093
:105E60000AC501F50BC502F5000E046E020E036EA5
:105E7000D6EC2FF0000E066E000E076E000E086EB8
:105E8000000E096E76EC30F0040E1200010E016E69
:105E9000060123B54EEF2FF050EF2FF05AEF2FF001
:105EA00023971C6907EC32F037EC30F05EEC31F0F0
:105EB00022C601F501501200190E01015C6F040E9B
:105EC0005D6F600E5E6F050E5F6F220E0501BC6F89
:105ED000640EBD6F98EC31F001011E83B298A28868
:105EE0001200015003026100CCF305F56100D0F30C
:105EF00006F501500402F350062602500302F35047
:105F0000062605C501F506C502F51200480E030177
:105F10001B6F610E196F000E186FB19EA18E8A0E55
:105F20000501BC6F640EBD6F75EC31F0800E03018E
:105F30001A6F1200000E0001606F000E616F000EFC
:105F4000626F000E636F000E646F000E656F000ECF
:105F5000666F000E676F000E686F1200046E000E11
:105F6000036E04502AEC2DF00009D8B4BAEF2FF0DC
:105F7000BCEF2FF0C0EF2FF004505EEC30F0036E5A
:105F80000350120017EC32F014EC32F00009D8B4D0
:105F9000CCEF2FF0CEEF2FF0D4EF2FF0000E34EC3B
:105FA00031F0000EEDEC31F0000E1200060123A9D5
:105FB000DCEF2FF0DEEF2FF0E7EF2FF001C51DF63D
:105FC00002C51EF603C51FF604C520F6239912006C
:105FD0005F0E0101946F956996699769000E986F3D
:105FE000000E996F000E9A6F000E9B6F810E816FED
:105FF0001200BEB0FEEF2FF001EF30F0010E02EF05
:1060000030F0000EFF0A016EBE500118FE0B0118A1
:10601000BE6E1200000E0501E56F000EE46F000E6B
:10602000E76F320EE66F09EC22F0000E0501A76F54
:1060300012001FEF30F078EC2BF081EC29F0060114
:1060400023B525EF30F027EF30F01BEF30F01200D2
:10605000026E02500C0D530EF324D96E010EF42083
:10606000DA6EDF50016E1F0E011601281200A59492
:10607000A596A590A59202019B919B959B9F9B9DA8
:106080009B939793979597911200A4EC30F0000999
:10609000D8B44DEF30F050EF30F0010E51EF30F04A
:1060A000000E1200700E0001AD6F000EAF6F000EFB
:1060B000B36F020EB16F000EB06F1200016E01508F
:1060C0000C0D540EF324D96E010EF420DA6EDF505D
:1060D000010B120006C501F507C502F508C503F559
:1060E00009C504F5020E86EC28F0120006C501F57C
:1060F00007C502F508C503F509C504F5000E86ECD1
:1061000028F01200016E01500C0D540EF324D96ECC
:10611000010EF420DA6EDF50090B1200B4EC2DF002
:10612000D68E0AEC30F01BEC31F095EF30F00DEF2D
:1061300000F0010136B59FEF30F0A2EF30F0010E14
:10614000A3EF30F0000E1200010136B9AAEF30F0D3
:10615000ADEF30F0010EAEEF30F0000E1200010195
:1061600036BBB5EF30F0B8EF30F0010EB9EF30F0DC
:10617000000E120006012351FC0B0209236F1C5173
:106180001C25EDEC31F0030E1200020199BBCBEFA0
:1061900030F0CEEF30F0010ECFEF30F0000E1200F5
:1061A000020195BBD6EF30F0D9EF30F0010EDAEFF7
:1061B00030F0000E1200020199B1E1EF30F0E4EF8F
:1061C00030F0010EE5EF30F0000E120002019AB53A
:1061D000ECEF30F0EFEF30F0010EF0EF30F0000EAA
:1061E0001200020197B9F7EF30F0FAEF30F0010E2C
:1061F000FBEF30F0000E120002019ABF02EF31F007
:1062000005EF31F0010E06EF31F0000E1200100E16
:106210000101506F040E516F610E526F050E536FE6
:106220001200010E0101046F010E056F060E066FCC
:10623000000E076F1200C690C784C682C69AC89A1D
:10624000C89CC89EC79A1200F2EC31F00601239553
:10625000020E226F0F0E1200F2EC31F006012395B0
:10626000000E226F0F0E1200016E610004F48CF21A
:10627000000E02018D6F12006100F0F663F405015B
:10628000BD51646E12006100F0F66BF40501BD5162
:106290006C6E12001AEC32F017EC32F058EC31F060
:1062A000120006011F5134EC31F027EC2EF01200E1
:1062B00006012395000E226F0F0E12000201949F1B
:1062C000000E9A6F99851200610004F463F4025085
:1062D000646E1200610004F46BF402506C6E1200E4
:1062E000BCC534F6BDC535F61200BCC536F6BDC515
:1062F00037F61200BCC5FAF5BDC5FBF51200BCC5EA
:10630000FCF5BDC5FDF51200BCC5F8F5BDC5F9F538
:106310001200BCC572F5BDC573F51200BCC574F59D
:10632000BDC575F51200BCC570F5BDC571F512008F
:10633000BCC584F5BDC585F5120001010239E832FE
:10634000070B1200BCC578F5BDC579F51200BCC5B8
:106350007AF5BDC57BF51200BCC576F5BDC577F5F0
:106360001200BCC57CF5BDC57DF51200BCC582F52B
:10637000BDC583F51200BCC580F5BDC581F5120011
:10638000BCC57EF5BDC57FF51200BCC53AF6BDC5DE
:106390003BF61200BCC5F0F5BDC5F1F51200BCC559
:1063A000F2F5BDC5F3F51200BCC5F4F5BDC5F5F5B4
:1063B0001200BCC538F6BDC539F61200BCC5F6F5ED
:1063C000BDC5F7F5120001010239E832070B1200D2
:1063D000016E610004F4FBF31200016E610004F42D
:1063E0008BF212000201949F9985948F1200000E87
:1063F000FBEC2BF012001AEC32F0090E12001DEC2F
:1064000032F0040E12001DEC32F0030E1200000EEA
:1064100002019A6F120010EC2EF012000301F39BA0
:10642000120075EC1BF0120002018C5112000201E7
:10643000949B12000201958D12000201959D12009D
:1064400002018A5112000201948D12000201949DF2
:10645000120002019A95120002019799120002019E
:106460009A9F1200D69A120069841200010E12003F
:10647000020E1200050E1200010E120069841200B5
:10648000010012001200120012001200120012008D
:0A64900012001200120012001200A8
:020000040020DA
:10000000FF0FFF0FFF0FFF0FFF0FFF0FFF0FFF0F80
:10001000FF0FFF0FFF0FFF0FFF0FFF0FFF0FFF0F70
:020000040030CA
:10000000FAEFF7DF9FFFFFFFFFFFFFFFFFFFFFFF9D
:10001000FFFFFFFFFFFFFFFFFFFFFFFFFFFFFFFFF0
:04002000FFFFFFFFE0
:00000001FF
