:020000040000FA
:040000000DEF00F010
:0400080038EF39F0A4
:06001800FF007AEF3BF04F
:1026000000000000000000000000000000000000CA
:1026100000000000000000000000000000000000BA
:102620000000000000000000010203040506070886
:102630005001526561643A206E6F6E2D766F6C6149
:1026400074696C6520766F6C746167652076616C67
:1026500075652025662C20616E6420766F6C617430
:10266000696C6520766F6C746167652076616C7546
:10267000652025660053657420746865206E6F6E52
:102680002D766F6C6174696C6520766F6C74616710
:102690006520746F203156200A00536574207468D9
:1026A0006520766F6C6174696C6520766F6C7461FF
:1026B000676520746F203256200A0000BEC597F56A
:1026C000BFC598F5C0C599F5C1C59AF5C2C59BF5BA
:1026D000C3C59CF5C4C59DF5C5C59EF570EC3FF01E
:1026E00097C5DEF598C5DFF599C5E0F59AC5E1F522
:1026F0006100F0F6D9F46100F4F6DAF4610078F3E1
:102700007EF5610078F37FF5610078F380F5610074
:1027100078F381F5DEC582F5DFC583F5E0C584F584
:10272000E1C585F52EEC1CF07EC5C6F57FC5C7F565
:1027300080C5C8F581C5C9F5000E0501826F000E80
:10274000836F000E846F3F0E856F20EE04F0BC5146
:10275000D926BD51DA22610078F37EF5610078F365
:102760007FF5610078F380F5610078F381F52EEC58
:102770001CF07EC5D6F57FC5D7F580C5D8F581C5D7
:10278000D9F5050120EE20F0BC51D926BD51DA2241
:10279000610078F382F5610078F383F5610078F3E6
:1027A00084F5610078F385F5D6C57EF5D7C57FF54C
:1027B000D8C580F5D9C581F52EEC1CF07EC5DAF5BB
:1027C0007FC5DBF580C5DCF581C5DDF5DAC582F5B1
:1027D000DBC583F5DCC584F5DDC585F5DEC572F5A1
:1027E000DFC573F5E0C574F5E1C575F5050120EEAB
:1027F00028F0BC51D926BD51DA22610078F36EF57C
:10280000610078F36FF5610078F370F5610078F39B
:1028100071F56DEC17F06EC57EF56FC57FF570C56F
:1028200080F571C581F52EEC1CF07EC5CAF57FC51B
:10283000CBF580C5CCF581C5CDF5CAC56EF5CBC548
:102840006FF5CCC570F5CDC571F5050120EE24F00E
:10285000BC51D926BD51DA22610078F372F56100CE
:1028600078F373F5610078F374F5610078F375F52A
:102870006DEC17F0050120EE24F0BC51D926BD51B6
:10288000DA226100B8F5DEF46100BCF5DEF4610027
:10289000C0F5DEF46100C4F5DEF420EE1CF0BC519E
:1028A000D926BD51DA22610078F360F5610078F332
:1028B00061F5610078F362F5610078F363F520EE6D
:1028C00024F0BC51D926BD51DA22610078F364F5B9
:1028D000610078F365F5610078F366F5610078F3DF
:1028E00067F56BEC33F00501D8B079EF14F07BEFAE
:1028F00014F091EF14F020EE1CF0BC51D926BD511C
:10290000DA2210EE24F0BC51E126BD51E222DEC4F1
:10291000E6F4DEC4E6F4DEC4E6F4DEC4E6F4D3EFA7
:1029200014F020EE24F0BC51D926BD51DA2261000A
:1029300078F360F5610078F361F5610078F362F592
:10294000610078F363F520EE18F0BC51D926BD5133
:10295000DA22610078F364F5610078F365F56100CF
:1029600078F366F5610078F367F56BEC33F00501F9
:10297000D8B0BDEF14F0BFEF14F0D3EF14F020EE99
:1029800018F0BC51D926BD51DA2210EE24F0BC510A
:10299000E126BD51E222DEC4E6F4DEC4E6F4DEC484
:1029A000E6F4DEC4E6F420EE20F0BC51D926BD5199
:1029B000DA22610078F39BF5610078F39CF5610001
:1029C00078F39DF5610078F39EF5000E826F000E9E
:1029D000836F000E846F400E856F20EE0CF0BC51AB
:1029E000D926BD51DA22610078F37EF5610078F3D3
:1029F0007FF5610078F380F5610078F381F52EECC6
:102A00001CF07EC597F57FC598F580C599F581C501
:102A10009AF570EC3FF097C5D6F598C5D7F599C5EE
:102A2000D8F59AC5D9F5000E0501826F000E836FA7
:102A3000000E846F400E856F20EE08F0BC51D92641
:102A4000BD51DA22610078F37EF5610078F37FF5FD
:102A5000610078F380F5610078F381F52EEC1CF0CD
:102A60007EC5DAF57FC5DBF580C5DCF581C5DDF512
:102A7000050120EE30F0BC51D926BD51DA226100AB
:102A800078F39BF5610078F39CF5610078F39DF590
:102A9000610078F39EF5C2C597F5C3C598F5C4C526
:102AA00099F5C5C59AF570EC3FF097C582F598C5C4
:102AB00083F599C584F59AC585F5DAC57EF5DBC53C
:102AC0007FF5DCC580F5DDC581F52EEC1CF07EC5FB
:102AD000CEF57FC5CFF580C5D0F581C5D1F505010F
:102AE00020EE2CF0BC51D926BD51DA22610078F3DA
:102AF00082F5610078F383F5610078F384F5610075
:102B000078F385F5D6C57EF5D7C57FF5D8C580F5B0
:102B1000D9C581F52EEC1CF07EC572F57FC573F525
:102B200080C574F581C575F5CEC56EF5CFC56FF559
:102B3000D0C570F5D1C571F56DEC17F06EC59FF578
:102B40006FC5A0F570C5A1F571C5A2F550EC40F0B8
:102B50009FC5A3F5A0C5A4F5A1C5A5F5A2C5A6F579
:102B6000050120EE20F0BC51D926BD51DA226100CA
:102B700078F372F5610078F373F5610078F374F51A
:102B8000610078F375F5000E826F000E836F000E02
:102B9000846F400E856F20EE0CF0BC51D926BD51DC
:102BA000DA22610078F37EF5610078F37FF5610049
:102BB00078F380F5610078F381F52EEC1CF07EC58A
:102BC0006EF57FC56FF580C570F581C571F56DEC4B
:102BD00017F06EC5A7F56FC5A8F570C5A9F571C545
:102BE000AAF5F2EC21F0050120EE2CF0BC51D9261B
:102BF000BD51DA2261008CF6DEF4610090F6DEF45D
:102C0000610094F6DEF4610098F6DEF4000E606F69
:102C1000000E616F000E626F400E636F20EE2CF0AD
:102C2000BC51D926BD51DA22610078F364F5610008
:102C300078F365F5610078F366F5610078F367F580
:102C40006BEC33F00501D8A028EF16F02AEF16F050
:102C50004EEF16F020EE2CF0BC51D926BD51DA22F1
:102C6000610078F360F5610078F361F5610078F355
:102C700062F5610078F363F5000E646F000E656F16
:102C8000000E666FC00E676F6BEC33F00501D8B0B5
:102C90004CEF16F04EEF16F05CEF16F020EE24F03D
:102CA000BC51D926BD51DA22000EDE6E000EDE6E5A
:102CB000000EDE6E000EDD6EC6C572F5C7C573F57B
:102CC000C8C574F5C9C575F520EE24F0BC51D926E8
:102CD000BD51DA22610078F36EF5610078F36FF58B
:102CE000610078F370F5610078F371F56DEC17F021
:102CF0006EC5D2F56FC5D3F570C5D4F571C5D5F5E0
:102D0000D2C56EF5D3C56FF5D4C570F5D5C571F5CF
:102D1000050120EE2CF0BC51D926BD51DA2261000C
:102D200078F372F5610078F373F5610078F374F568
:102D3000610078F375F56DEC17F0050120EE34F0C5
:102D4000BC51D926BD51DA226100B8F5DEF461002C
:102D5000BCF5DEF46100C0F5DEF46100C4F5DEF41C
:102D600020EE14F0BC51D926BD51DA22610078F36F
:102D700060F5610078F361F5610078F362F5610058
:102D800078F363F520EE34F0BC51D926BD51DA2238
:102D9000610078F364F5610078F365F5610078F31C
:102DA00066F5610078F367F56BEC33F00501D8B098
:102DB000DCEF16F0DEEF16F0F4EF16F020EE14F074
:102DC000BC51D926BD51DA2210EE34F0BC51E126B7
:102DD000BD51E222DEC4E6F4DEC4E6F4DEC4E6F46D
:102DE000DEC4E6F436EF17F020EE34F0BC51D926FD
:102DF000BD51DA22610078F360F5610078F361F586
:102E0000610078F362F5610078F363F520EE10F06D
:102E1000BC51D926BD51DA22610078F364F5610016
:102E200078F365F5610078F366F5610078F367F58E
:102E30006BEC33F00501D8B020EF17F022EF17F05C
:102E400036EF17F020EE10F0BC51D926BD51DA2232
:102E500010EE34F0BC51E126BD51E222DEC4E6F4AE
:102E6000DEC4E6F4DEC4E6F4DEC4E6F420EE28F0C8
:102E7000BC51D926BD51DA22610078F7DEF4610039
:102E80007CF7DEF4610080F7DEF4610084F7DEF4A5
:102E900020EE30F0BC51D926BD51DA22610008F78E
:102EA000DEF461000CF7DEF4610010F7DEF461007F
:102EB00014F7DEF420EE34F0BC51D926BD51DA22ED
:102EC000610078F3BCF5610078F3BDF5610078F33B
:102ED000BEF5610078F3BFF5120005017151800B5A
:102EE0007A6F715171257C6F70AF79EF17F07BEFBE
:102EF00017F07CEF17F07C817C51D8B482EF17F08B
:102F000084EF17F099EF17F07C29D8A48AEF17F017
:102F10008CEF17F094EF17F0000E6E6F000E6F6FCE
:102F2000000E706F000E716F708F000E716FA1EF49
:102F300017F0000E6E6F000E6F6F000E706F000EB8
:102F4000716F7551800B7B6F7A517B19D8B4ABEFE1
:102F500017F0ADEF17F0AEEF17F07A8D75517525BC
:102F60007B6F74AFB6EF17F0B8EF17F0B9EF17F04B
:102F70007B817B51D8B4BFEF17F0C1EF17F0D6EFCC
:102F800017F07B29D8A4C7EF17F0C9EF17F0D1EFDE
:102F900017F0000E726F000E736F000E746F000E4C
:102FA000756F748F000E756FDEEF17F0000E726F85
:102FB000000E736F000E746F000E756F7C517B5D99
:102FC000D8B0E5EF17F0E7EF17F00EEF18F07AAD95
:102FD000ECEF17F0EEEF17F0F0EF17F0800E7A1B22
:102FE0007CC57DF57BC57CF57DC57BF56EC57DF526
:102FF00072C56EF57DC572F56FC57DF573C56FF54C
:103000007DC573F570C57DF574C570F57DC574F526
:1030100071C57DF575C571F57DC575F5000E7D6FC2
:103020007C517BC576F5776B765F000E775B77BF5B
:1030300023EF18F0775109E11A0E765DD8A023EF3F
:1030400018F025EF18F05CEF18F06E516F11701149
:103050007111D8A42EEF18F031EF18F0010E32EFF5
:1030600018F0000E7D6F000E6E6F000E6F6F000E79
:10307000706F000E716F7BC57CF565EF18F07DA158
:1030800044EF18F046EF18F04CEF18F0D8907D316F
:1030900001097D6F4EEF18F0D8907D336EA153EF8C
:1030A00018F055EF18F056EF18F07D8F7135713329
:1030B00070336F336E337C2B7B517C5DD8A063EF14
:1030C00018F065EF18F03FEF18F07ABD6AEF18F0CE
:1030D0006CEF18F0ACEF18F07C51D8A472EF18F038
:1030E00074EF18F07EEF18F0000E6E6F000E6F6F29
:1030F000000E706F000E716FCDEF19F072516E27D8
:1031000073516F23745170237551712371A18BEF2B
:1031100018F08DEF18F039EF19F07DA192EF18F04B
:1031200094EF18F09AEF18F0D8907D3101097D6F77
:103130009CEF18F0D8907D336EA1A1EF18F0A3EFAB
:1031400018F0A4EF18F07D8F7135713370336F3341
:103150006E337C2B39EF19F072516E5D73516F59DC
:10316000745170597151800A766F7551800A765981
:10317000D8B0BDEF18F0BFEF18F0EAEF18F06E51BD
:10318000725D766F6F517359776F70517459786FA4
:1031900071517559796FFF0E76256E6FFF0E77218D
:1031A0006F6FFF0E7821706FFF0E7921716F800EA7
:1031B0007A1B7D6D7D51D8A4E0EF18F0E2EF18F096
:1031C000F2EF18F0010E6E27000E6F2370237123AB
:1031D000F2EF18F072516E5F73516F5B7451705B58
:1031E0007551715B6E516F1170117111D8A4FBEFA5
:1031F00018F0FDEF18F032EF19F07D51D8A403EF6D
:1032000019F005EF19F032EF19F0000E6E6F000E95
:103210006F6F000E706F000E716FCDEF19F0D890C8
:103220006E376F37703771377DAF19EF19F01BEFBD
:1032300019F01CEF19F06E817DA121EF19F023EF39
:1032400019F027EF19F0D8807D3729EF19F0D890C1
:103250007D377C51D8B42FEF19F031EF19F032EFF0
:1032600019F07C0770AF37EF19F039EF19F00FEF55
:1032700019F0000E7B6F7DAF40EF19F042EF19F0AF
:103280005AEF19F07DC576F57F0E7617D8B44BEF5F
:1032900019F04DEF19F051EF19F0010E7B6F5AEF55
:1032A00019F06EA156EF19F058EF19F05AEF19F016
:1032B0004DEF19F07B51D8B460EF19F062EF19F0BF
:1032C0008DEF19F0010E6E27000E6F23702371230E
:1032D00071A16DEF19F06FEF19F08DEF19F06EC558
:1032E00076F56FC577F570C578F571C579F57935DF
:1032F000793378337733763376C56EF577C56FF5E6
:1033000078C570F579C571F57C29D8B48AEF19F0C4
:103310008CEF19F08DEF19F07C2B7C29D8B493EF4A
:1033200019F095EF19F09DEF19F07C51D8A49BEF9F
:1033300019F09DEF19F0AFEF19F0000E6E6F000E4F
:103340006F6F000E706F000E716F7C51D8A4ABEFE1
:1033500019F0ADEF19F0AFEF19F0000E7A6F7CA104
:10336000B4EF19F0B6EF19F0B9EF19F0708FBAEFAA
:1033700019F0709FD8907C31716F7AAFC2EF19F05D
:10338000C4EF19F0C5EF19F0718F6EC56EF56FC5FA
:103390006FF570C570F571C571F512001250800B94
:1033A0001B6E125012241D6E11AED9EF19F0DBEF17
:1033B00019F0DCEF19F01D801D50D8B4E2EF19F0C0
:1033C000E4EF19F0F9EF19F01D28D8A4EAEF19F08D
:1033D000ECEF19F0F4EF19F0000E0F6E000E106E06
:1033E000000E116E000E126E118E000E126E01EFA5
:1033F0001AF0000E0F6E000E106E000E116E000E11
:10340000126E1650800B1C6E1B501C18D8B40BEF9C
:103410001AF00DEF1AF00EEF1AF01B8C165016244E
:103420001C6E15AE16EF1AF018EF1AF019EF1AF01D
:103430001C801C50D8B41FEF1AF021EF1AF036EFA1
:103440001AF01C28D8A427EF1AF029EF1AF031EF50
:103450001AF0000E136E000E146E000E156E000EA4
:10346000166E158E000E166E3EEF1AF0000E136EDD
:10347000000E146E000E156E000E166E1D501C5CB4
:10348000D8B045EF1AF047EF1AF06EEF1AF01BAC08
:103490004CEF1AF04EEF1AF050EF1AF0800E1B1A94
:1034A0001DC51EF51CC51DF51EC51CF50FC51EF559
:1034B00013C50FF51EC513F510C51EF514C510F57F
:1034C0001EC514F511C51EF515C511F51EC515F55A
:1034D00012C51EF516C512F51EC516F5000E1E6E98
:1034E0001D501CC517F5186A175E000E185A18BE35
:1034F00083EF1AF0185009E11A0E175CD8A083EF79
:103500001AF085EF1AF0BCEF1AF00F5010101110DE
:103510001210D8A48EEF1AF091EF1AF0010E92EF6C
:103520001AF0000E1E6E000E0F6E000E106E000ED2
:10353000116E000E126E1CC51DF5C5EF1AF01EA00F
:10354000A4EF1AF0A6EF1AF0ACEF1AF0D8901E30E4
:1035500001091E6EAEEF1AF0D8901E320FA0B3EF25
:103560001AF0B5EF1AF0B6EF1AF01E8E12341232BE
:10357000113210320F321D2A1C501D5CD8A0C3EF2F
:103580001AF0C5EF1AF09FEF1AF01BBCCAEF1AF041
:10359000CCEF1AF00CEF1BF01D50D8A4D2EF1AF0AC
:1035A000D4EF1AF0DEEF1AF0000E0F6E000E106E60
:1035B000000E116E000E126E2DEF1CF013500F2630
:1035C00014501022155011221650122212A0EBEFA7
:1035D0001AF0EDEF1AF099EF1BF01EA0F2EF1AF0BF
:1035E000F4EF1AF0FAEF1AF0D8901E3001091E6EAF
:1035F000FCEF1AF0D8901E320FA001EF1BF003EF82
:103600001BF004EF1BF01E8E1234123211321032F6
:103610000F321D2A99EF1BF013500F5C14501058F5
:10362000155011581250800A176E1650800A1758FC
:10363000D8B01DEF1BF01FEF1BF04AEF1BF00F502F
:10364000135C176E10501458186E11501558196EDF
:10365000125016581A6EFF0E17240F6EFF0E182008
:10366000106EFF0E1920116EFF0E1A20126E800EC2
:103670001B1A1E6C1E50D8A440EF1BF042EF1BF02B
:1036800052EF1BF0010E0F26000E10221122122203
:1036900052EF1BF013500F5E1450105A1550115A70
:1036A0001650125A0F50101011101210D8A45BEFC0
:1036B0001BF05DEF1BF092EF1BF01E50D8A463EFE0
:1036C0001BF065EF1BF092EF1BF0000E0F6E000E6B
:1036D000106E000E116E000E126E2DEF1CF0D890C1
:1036E0000F361036113612361EAE79EF1BF07BEF17
:1036F0001BF07CEF1BF00F801EA081EF1BF083EF0F
:103700001BF087EF1BF0D8801E3689EF1BF0D89096
:103710001E361D50D8B48FEF1BF091EF1BF092EFC7
:103720001BF01D0611AE97EF1BF099EF1BF06FEF2A
:103730001BF0000E1C6E1EAEA0EF1BF0A2EF1BF0E4
:10374000BAEF1BF01EC517F57F0E1716D8B4ABEFF6
:103750001BF0ADEF1BF0B1EF1BF0010E1C6EBAEFCA
:103760001BF00FA0B6EF1BF0B8EF1BF0BAEF1BF089
:10377000ADEF1BF01C50D8B4C0EF1BF0C2EF1BF034
:10378000EDEF1BF0010E0F26000E10221122122267
:1037900012A0CDEF1BF0CFEF1BF0EDEF1BF00FC52C
:1037A00017F510C518F511C519F512C51AF51A3413
:1037B0001A3219321832173217C50FF518C510F51D
:1037C00019C511F51AC512F51D28D8B4EAEF1BF07A
:1037D000ECEF1BF0EDEF1BF01D2A1D28D8B4F3EF22
:1037E0001BF0F5EF1BF0FDEF1BF01D50D8A4FBEF15
:1037F0001BF0FDEF1BF00FEF1CF0000E0F6E000E24
:10380000106E000E116E000E126E1D50D8A40BEF3C
:103810001CF00DEF1CF00FEF1CF0000E1B6E1DA036
:1038200014EF1CF016EF1CF019EF1CF0118E1AEFBC
:103830001CF0119ED8901D30126E1BAE22EF1CF0B2
:1038400024EF1CF025EF1CF0128E0FC50FF510C5EC
:1038500010F511C511F512C512F5120005018151BF
:10386000800B8A6F81518125906F80AF3AEF1CF0F9
:103870003CEF1CF03DEF1CF090819051D8B443EF29
:103880001CF045EF1CF058EF1CF09029D8A44BEF2A
:103890001CF04DEF1CF055EF1CF0000E7E6F000E7B
:1038A0007F6F000E806F000E816F808F60EF1CF0C5
:1038B000000E7E6F000E7F6F000E806F000E816F16
:1038C0008551800B8A1B855185258F6F84AF6BEFE7
:1038D0001CF06DEF1CF06EEF1CF08F818F51D8B48F
:1038E00074EF1CF076EF1CF089EF1CF08F29D8A440
:1038F0007CEF1CF07EEF1CF086EF1CF0000E826F58
:10390000000E836F000E846F000E856F848F91EF21
:103910001CF0000E826F000E836F000E846F000E8D
:10392000856F8F51D8B497EF1CF099EF1CF0A1EF81
:103930001CF09051D8A49FEF1CF0A1EF1CF0ABEF4E
:103940001CF0000E7E6F000E7F6F000E806F000E69
:10395000816F55EF1EF084517E036100CCF395F525
:103960006100D0F396F595518B6F8C6B8D6B8E6BE0
:103970009651916F926B936B946B83517F036100AF
:10398000CCF395F56100D0F396F595518B27000E99
:103990008C238D238E2396519127000E92239323FF
:1039A0009423825180036100CCF395F56100D0F33C
:1039B00096F595518B27000E8C238D238E239651DF
:1039C0009127000E9223932394238DC58EF58CC5E9
:1039D0008DF58BC58CF58B6B82517F036100CCF329
:1039E00095F56100D0F396F595518B2796518C2370
:1039F000000E8D23000E8E2383517E036100CCF3D5
:103A000095F56100D0F396F595518B2796518C234F
:103A1000000E8D23000E8E238DC58EF58CC58DF581
:103A20008BC58CF58B6B82517E036100CCF395F5D1
:103A30006100D0F396F595518B2796518C23000E9B
:103A40008D23000E8E2384517F036100CCF395F506
:103A50006100D0F396F59551912796519223000E6F
:103A60009323000E9423835180036100CCF395F5DA
:103A70006100D0F396F59551912796519223000E4F
:103A80009323000E9423845180036100CCF395F5B9
:103A90006100D0F396F59551866F9651876F886BCC
:103AA000896B88C589F587C588F586C587F5866BD6
:103AB00086519127875192238851932389519423CA
:103AC0008BC586F58CC587F58DC588F58EC589F5BE
:103AD000190E70EF1DF0D890893388338733863301
:103AE000E82E6BEF1DF08651912787519223885164
:103AF0009323895194238DC58EF58CC58DF58BC587
:103B00008CF58B6B8F5190C586F5876B8627000EE1
:103B10008723820E8625956FFF0E8721966FA6EF6D
:103B20001DF0D89091379237933794378EAF9BEF33
:103B30001DF09DEF1DF09EEF1DF09181D8908B3709
:103B40008C378D378E379507D8A0960793AFABEF9C
:103B50001DF0ADEF1DF091EF1DF0000E8F6F8EAFD9
:103B6000B4EF1DF0B6EF1DF0DAEF1DF0FF0E8B1570
:103B7000866FFF0E8C15876FFF0E8D15886F7F0E79
:103B80008E15896F8651871188118911D8B4CBEFB2
:103B90001DF0CDEF1DF0D1EF1DF0010E8F6FDAEFAC
:103BA0001DF091A1D6EF1DF0D8EF1DF0DAEF1DF05A
:103BB000CDEF1DF08F51D8B4E0EF1DF0E2EF1DF016
:103BC00006EF1EF0010E9127000E922393239423FB
:103BD00094A1EDEF1DF0EFEF1DF006EF1EF091C583
:103BE00086F592C587F593C588F594C589F589351D
:103BF000893388338733863386C591F587C592F537
:103C000088C593F589C594F5954B962B96BF11EF12
:103C10001EF0965108E19529D8A011EF1EF013EF80
:103C20001EF01DEF1EF0000E916F000E926F800EC1
:103C3000936F7F0E946F4BEF1EF096BF2AEF1EF02E
:103C4000965106E19505D8B028EF1EF02AEF1EF038
:103C500036EF1EF0000E916F000E926F000E936F04
:103C6000000E946F000E8A6F4BEF1EF095C590F515
:103C7000FF0E9117FF0E92177F0E9317000E9417E9
:103C800090A145EF1EF047EF1EF048EF1EF0938F16
:103C9000D8909031946F8A51941391C57EF592C556
:103CA0007FF593C580F594C581F51200010E0501DD
:103CB000A76F6100F8F5D9F46100FCF5DAF4610052
:103CC00078F39FF5610074F3A0F58251836F846BE4
:103CD000D890833784377EC585F57FC586F58351B7
:103CE000852784518623FE0E8525D96EFF0E8621F9
:103CF000DA6E610078F3A1F5610074F3A2F59F51CB
:103D0000836FA051846F856B866B83517A5D84517C
:103D10007B5985517C597D51800A876F8651800A75
:103D20008759D8A096EF1EF098EF1EF0A5EF1EF071
:103D3000610000F6D9F4610004F6DAF4DF50836F15
:103D400083517A6F7B6B23EF20F0A151836FA251D7
:103D5000846F856B866B7A51835D7B5184597C516E
:103D600085598651800A876F7D51800A8759D8A06E
:103D7000BCEF1EF0BEEF1EF0D2EF1EF08251802588
:103D8000836F000E8121846FFF0E8325D96EFF0E95
:103D90008421DA6EDF50856F85517A6F7B6B23EF5C
:103DA00020F0A72BA751020D6100CCF383F5610031
:103DB000D0F384F583517E25D96E84517F21DA6E4C
:103DC000610078F385F5610074F386F58551876F9E
:103DD0008651886F896B8A6B87517A5D88517B59D0
:103DE00089517C597D51800A8B6F8A51800A8B5989
:103DF000D8A0FDEF1EF0FFEF1EF0D1EF1EF0A7518F
:103E0000020D6100CCF383F56100D0F384F583519A
:103E10007E25D96E84517F21DA6E610078F385F5B5
:103E2000610074F386F58551876F8651886F896BC1
:103E30008A6B7A5187190DE17B5188190AE17C510F
:103E4000891907E17D518A19D8A429EF1FF02BEFBA
:103E50001FF038EF1FF0A7518025D96E000E812189
:103E6000DA6EDF50836F83517A6F7B6B23EF20F024
:103E7000A751836F846BD890833784377EC585F5CF
:103E80007FC586F58351852784518623FE0E8525BF
:103E9000D96EFF0E8621DA6E610078F387F5610036
:103EA00074F388F58751896F88518A6F8B6B8C6B9F
:103EB00089517A5D606F8A517B59616F8B517C5952
:103EC000626F8C517D59636FA7518025D96E000EAA
:103ED0008121DA6EDF508D6F8E6BA75180258F6F39
:103EE000000E8121906FFF0E8F25D96EFF0E90215D
:103EF000DA6EDF50916F91518D5F000E8E5B8DC534
:103F000064F58EC565F5000E65BFFF0E666F676FC1
:103F10002CEC3EF060C56CF561C56DF562C56EF5C3
:103F200063C56FF50501A751926F936BD8909237D7
:103F300093377EC594F57FC595F59251942793519B
:103F40009523FE0E9425D96EFF0E9521DA6E610041
:103F500078F396F5610074F397F5A751020D6100AF
:103F6000CCF398F56100D0F399F598517E25D96E80
:103F700099517F21DA6E610078F39AF5610074F34C
:103F80009BF596519A5F97519B5B9AC570F59BC5BF
:103F900071F5726B736BDAEC31F00501A751802576
:103FA0009C6F000E81219D6FFF0E9C25D96EFF0E28
:103FB0009D21DA6EDF509E6F9E516C25A36F000E1F
:103FC0006D21A46F000E6E21A56F000E6F21A66FEC
:103FD000A6BFEFEF1FF0EDEF1FF0FCEF1FF0610049
:103FE00000F6D9F4610004F6DAF4DF50836F8351F0
:103FF000A36FA46BA56BA66BA6BF0AEF20F0A6511A
:10400000A511A41109E1650EA35DD8A00AEF20F067
:104010000CEF20F01FEF20F082518025836F000EFF
:104020008121846FFF0E8325D96EFF0E8421DA6E05
:10403000DF50856F8551A36FA46BA56BA66BA3C5DD
:104040007AF5A4C57BF51200010E0501A76F61008A
:10405000F8F5D9F46100FCF5DAF4610078F39FF526
:10406000610074F3A0F58251836F846BD89083371D
:1040700084377EC585F57FC586F5835185278451B4
:104080008623FE0E8525D96EFF0E8621DA6E61002D
:1040900078F3A1F5610074F3A2F59F51836FA051ED
:1040A000846F856B866B7A51835D7B5184597C511B
:1040B00085598651800A876F7D51800A8759D8A01B
:1040C00064EF20F066EF20F073EF20F0610000F65F
:1040D000D9F4610004F6DAF4DF50836F83517A6F0C
:1040E0007B6BF1EF21F0A151836FA251846F856B3F
:1040F000866B83517A5D84517B5985517C597D5102
:10410000800A876F8651800A8759D8A08AEF20F0ED
:104110008CEF20F0A0EF20F082518025836F000EFD
:104120008121846FFF0E8325D96EFF0E8421DA6E04
:10413000DF50856F85517A6F7B6BF1EF21F0A72BF4
:10414000A751020D6100CCF383F56100D0F384F533
:1041500083517E25D96E84517F21DA6E610078F318
:1041600085F5610074F386F58551876F8651886FF8
:10417000896B8A6B7A51875D7B5188597C5189594B
:104180008A51800A8B6F7D51800A8B59D8A0CBEF62
:1041900020F0CDEF20F09FEF20F0A751020D61003D
:1041A000CCF383F56100D0F384F583517E25D96E7D
:1041B00084517F21DA6E610078F385F5610074F334
:1041C00086F58551876F8651886F896B8A6B7A5126
:1041D00087190DE17B5188190AE17C51891907E1A2
:1041E0007D518A19D8A4F7EF20F0F9EF20F006EFFF
:1041F00021F0A7518025D96E000E8121DA6EDF50A3
:10420000836F83517A6F7B6BF1EF21F0A751836F3E
:10421000846BD890833784377EC585F57FC586F556
:104220008351852784518623FE0E8525D96EFF0E86
:104230008621DA6E610078F387F5610074F388F502
:104240008751896F88518A6F8B6B8C6B89517A5D2E
:10425000606F8A517B59616F8B517C59626F8C51B1
:104260007D59636FA7518025D96E000E8121DA6ECA
:10427000DF508D6F8E6BA75180258F6F000E8121CF
:10428000906FFF0E8F25D96EFF0E9021DA6EDF50F2
:10429000916F91518D5F000E8E5B8DC564F58EC55B
:1042A00065F5000E65BFFF0E666F676F2CEC3EF084
:1042B00060C56CF561C56DF562C56EF563C56FF5DA
:1042C0000501A751926F936BD890923793377EC5B3
:1042D00094F57FC595F59251942793519523FE0E41
:1042E0009425D96EFF0E9521DA6E610078F396F56C
:1042F000610074F397F5A751020D6100CCF398F5B6
:104300006100D0F399F598517E25D96E99517F219E
:10431000DA6E610078F39AF5610074F39BF59651BB
:104320009A5F97519B5B9AC570F59BC571F5726B4F
:10433000736BDAEC31F00501A75180259C6F000EFC
:1043400081219D6FFF0E9C25D96EFF0E9D21DA6E97
:10435000DF509E6F9E516C25A36F000E6D21A46FE0
:10436000000E6E21A56F000E6F21A66FA6BFBDEFD8
:1043700021F0BBEF21F0CAEF21F0610000F6D9F483
:10438000610004F6DAF4DF50836F8351A36FA46BEE
:10439000A56BA66BA6BFD8EF21F0A651A511A4115D
:1043A00009E1650EA35DD8A0D8EF21F0DAEF21F086
:1043B000EDEF21F082518025836F000E8121846F03
:1043C000FF0E8325D96EFF0E8421DA6EDF50856FD4
:1043D0008551A36FA46BA56BA66BA3C57AF5A4C585
:1043E0007BF512000501A651800BB36FA651A625DF
:1043F000BA6FA5AFFEEF21F000EF22F001EF22F03F
:10440000BA81BA51D8B407EF22F009EF22F01EEFBB
:1044100022F0BA29D8A40FEF22F011EF22F019EF01
:1044200022F0000EA36F000EA46F000EA56F000E09
:10443000A66FA58F000EA66F26EF22F0000EA36FC9
:10444000000EA46F000EA56F000EA66FAA51800B80
:10445000B31BAA51AA25BB6FA9AF31EF22F033EFEE
:1044600022F034EF22F0BB81BB51D8B43AEF22F0F6
:104470003CEF22F051EF22F0BB29D8A442EF22F00A
:1044800044EF22F04CEF22F0000EA76F000EA86F51
:10449000000EA96F000EAA6FA98F000EAA6F59EF28
:1044A00022F0000EA76F000EA86F000EA96F000E7D
:1044B000AA6FA751A811A911AA11D8A462EF22F0DE
:1044C00064EF22F07CEF22F0000EA36F000EA46FC9
:1044D000000EA56F000EA66F800EA5137F0EA6130B
:1044E000B351A613A3C5A3F5A4C5A4F5A5C5A5F509
:1044F000A6C5A6F5BFEF23F0BA51D8A482EF22F0EB
:1045000084EF22F08EEF22F0000EA36F000EA46F56
:10451000000EA56F000EA66FBFEF23F0BB51BAC50A
:10452000ABF5AC6BAB5F000EAC5B7F0EAB25B46F35
:10453000000EAC21B56FA3C5AFF5A4C5B0F5A5C5F8
:10454000B1F5A6C5B2F5000EA36F000EA46F000E64
:10455000A56F000EA66F000EB66F000EB76F000EAF
:10456000B86F000EB96F000EBB6FEFEF22F0BB51BA
:10457000D8B4BDEF22F0BFEF22F0D6EF22F0D890F2
:10458000AF37B037B137B237D890A337A437A53794
:10459000A637B9AFCEEF22F0D0EF22F0D1EF22F064
:1045A000A381D890B637B737B837B937A751AF5DC1
:1045B000A851B059A951B159AA51B259D8A0E3EFA5
:1045C00022F0E5EF22F0EEEF22F0B98DA751AF5FB8
:1045D000A851B05BA951B15BAA51B25BBB2B190EBC
:1045E000BB65F5EF22F0F7EF22F0B7EF22F0AF5105
:1045F000B011B111B211D8B400EF23F002EF23F0E3
:104600001AEF23F0B6811AEF23F0D890A337A4371E
:10461000A537A637B9AF0FEF23F011EF23F012EF54
:1046200023F0A381D890B637B737B837B937B40776
:10463000D8A0B507A5AF1FEF23F021EF23F005EFBA
:1046400023F0000EBB6FB9AF28EF23F02AEF23F061
:104650004EEF23F0FF0EB615AB6FFF0EB715AC6F24
:10466000FF0EB815AD6F7F0EB915AE6FAB51AC1123
:10467000AD11AE11D8B43FEF23F041EF23F045EF79
:1046800023F0010EBB6F4EEF23F0A3A14AEF23F0FE
:104690004CEF23F04EEF23F041EF23F0BB51D8B4A1
:1046A00054EF23F056EF23F07AEF23F0010EA32707
:1046B000000EA423A523A623A6A161EF23F063EF98
:1046C00023F07AEF23F0A3C5ABF5A4C5ACF5A5C5DF
:1046D000ADF5A6C5AEF5AE35AE33AD33AC33AB33C9
:1046E000ABC5A3F5ACC5A4F5ADC5A5F5AEC5A6F59E
:1046F000B44BB52BB5BF85EF23F0B55108E1B42914
:10470000D8A085EF23F087EF23F092EF23F0000E7F
:10471000B56FB469000EA36F000EA46F000EA56FF5
:10472000000EA66FB5BF9FEF23F0B55106E1B405AB
:10473000D8B09DEF23F09FEF23F0ADEF23F0000EF4
:10474000B56F000EB46F000EA36F000EA46F000EC5
:10475000A56F000EA66F000EB36FB4C5BAF5BAA16F
:10476000B4EF23F0B6EF23F0B9EF23F0A58FBAEF43
:1047700023F0A59FD890BA31A66F70EF22F01200F7
:10478000010E486E61007CF4D9F4610080F4DAF423
:10479000610078F340F5610074F341F52350246E15
:1047A000256AD890243625361FC526F520C527F55D
:1047B0002450262625502722FE0E2624D96EFF0ED1
:1047C0002720DA6E610078F342F5610074F343F557
:1047D0004050246E4150256E266A276A24501B5C87
:1047E00025501C5826501D581E50800A286E2750F0
:1047F000800A2858D8A0FFEF23F001EF24F00EEF35
:1048000024F0610084F4D9F4610088F4DAF4DF5014
:10481000246E24501B6E1C6A8AEF25F04250246ED1
:104820004350256E266A276A1B50245C1C5025586D
:104830001D5026582750800A286E1E50800A28587E
:10484000D8A025EF24F027EF24F03BEF24F02350ED
:104850002124246E000E2220256EFF0E2424D96E02
:10486000FF0E2520DA6EDF50266E26501B6E1C6A66
:104870008AEF25F0482A4850020D6100CCF324F558
:104880006100D0F325F524501F24D96E2550202037
:10489000DA6E610078F326F5610074F327F526508F
:1048A000286E2750296E2A6A2B6A28501B5C2950D3
:1048B0001C582A501D581E50800A2C6E2B50800AFE
:1048C0002C58D8A066EF24F068EF24F03AEF24F0DB
:1048D0004850020D6100CCF324F56100D0F325F5BA
:1048E00024501F24D96E25502020DA6E610078F301
:1048F00026F5610074F327F52650286E2750296E9F
:104900002A6A2B6A1B5028180DE11C5029180AE14D
:104910001D502A1807E11E502B18D8A492EF24F03E
:1049200094EF24F0A1EF24F048502124D96E000E1A
:104930002220DA6EDF50246E24501B6E1C6A8AEF30
:1049400025F04850246E256AD890243625361FC598
:1049500026F520C527F52450262625502722FE0EB1
:104960002624D96EFF0E2720DA6E610078F328F531
:10497000610074F329F528502A6E29502B6E2C6A99
:104980002D6A2A501B5C016E2B501C58026E2C5055
:104990001D58036E2D501E58046E48502124D96EA8
:1049A000000E2220DA6EDF502E6E2F6A485021242E
:1049B000306E000E2220316EFF0E3024D96EFF0EB5
:1049C0003120DA6EDF50326E32502E5E000E2F5ADA
:1049D0002EC505F52FC506F5000E06BEFF0E076EA7
:1049E000086E62EC3EF001C50DF502C50EF503C57B
:1049F0000FF504C510F54850336E346AD89033363D
:104A000034361FC535F520C536F5335035263450BC
:104A10003622FE0E3524D96EFF0E3620DA6E610086
:104A200078F337F5610074F338F54850020D6100F2
:104A3000CCF339F56100D0F33AF539501F24D96E23
:104A40003A502020DA6E610078F33BF5610074F390
:104A50003CF537503B5E38503C5A3BC511F53CC5E0
:104A600012F5136A146A61EC32F0485021243D6E4D
:104A7000000E22203E6EFF0E3D24D96EFF0E3E201A
:104A8000DA6EDF503F6E3F500D24446E000E0E2054
:104A9000456E000E0F20466E000E1020476E47BE7A
:104AA00056EF25F054EF25F063EF25F0610084F414
:104AB000D9F4610088F4DAF4DF50246E2450446E97
:104AC000456A466A476A47BE71EF25F0475046106F
:104AD000451009E1650E445CD8A071EF25F073EF35
:104AE00025F086EF25F023502124246E000E22208D
:104AF000256EFF0E2424D96EFF0E2520DA6EDF50BE
:104B0000266E2650446E456A466A476A44C51BF5C0
:104B100045C51CF51200010E486E61007CF4D9F405
:104B2000610080F4DAF4610078F340F5610074F319
:104B300041F52350246E256AD890243625361FC5AA
:104B400026F520C527F52450262625502722FE0EBF
:104B50002624D96EFF0E2720DA6E610078F342F525
:104B6000610074F343F54050246E4150256E266A6F
:104B7000276A1B50245C1C5025581D50265827506E
:104B8000800A286E1E50800A2858D8A0CAEF25F047
:104B9000CCEF25F0D9EF25F0610084F4D9F4610061
:104BA00088F4DAF4DF50246E24501B6E1C6A55EF33
:104BB00027F04250246E4350256E266A276A2450FF
:104BC0001B5C25501C5826501D581E50800A286E0C
:104BD0002750800A2858D8A0F0EF25F0F2EF25F0F2
:104BE00006EF26F023502124246E000E2220256E8D
:104BF000FF0E2424D96EFF0E2520DA6EDF50266EBC
:104C000026501B6E1C6A55EF27F0482A4850020DAB
:104C10006100CCF324F56100D0F325F524501F2466
:104C2000D96E25502020DA6E610078F326F56100F8
:104C300074F327F52650286E2750296E2A6A2B6AAE
:104C40001B50285C1C5029581D502A582B50800A94
:104C50002C6E1E50800A2C58D8A031EF26F033EF6E
:104C600026F005EF26F04850020D6100CCF324F544
:104C70006100D0F325F524501F24D96E2550202043
:104C8000DA6E610078F326F5610074F327F526509B
:104C9000286E2750296E2A6A2B6A1B5028180DE1AE
:104CA0001C5029180AE11D502A1807E11E502B1824
:104CB000D8A45DEF26F05FEF26F06CEF26F04850A9
:104CC0002124D96E000E2220DA6EDF50246E24508B
:104CD0001B6E1C6A55EF27F04850246E256AD89049
:104CE000243625361FC526F520C527F5245026264F
:104CF00025502722FE0E2624D96EFF0E2720DA6EBD
:104D0000610078F328F5610074F329F528502A6EC4
:104D100029502B6E2C6A2D6A2A501B5C016E2B5079
:104D20001C58026E2C501D58036E2D501E58046ED8
:104D300048502124D96E000E2220DA6EDF502E6EEC
:104D40002F6A48502124306E000E2220316EFF0E53
:104D50003024D96EFF0E3120DA6EDF50326E3250C1
:104D60002E5E000E2F5A2EC505F52FC506F5000E36
:104D700006BEFF0E076E086E62EC3EF001C50DF533
:104D800002C50EF503C50FF504C510F54850336E86
:104D9000346AD890333634361FC535F520C536F51C
:104DA0003350352634503622FE0E3524D96EFF0E90
:104DB0003620DA6E610078F337F5610074F338F568
:104DC0004850020D6100CCF339F56100D0F33AF59B
:104DD00039501F24D96E3A502020DA6E610078F3E2
:104DE0003BF5610074F33CF537503B5E38503C5A5C
:104DF0003BC511F53CC512F5136A146A61EC32F03B
:104E0000485021243D6E000E22203E6EFF0E3D24B0
:104E1000D96EFF0E3E20DA6EDF503F6E3F500D24FC
:104E2000446E000E0E20456E000E0F20466E000EE2
:104E30001020476E47BE21EF27F01FEF27F02EEF1F
:104E400027F0610084F4D9F4610088F4DAF4DF50CB
:104E5000246E2450446E456A466A476A47BE3CEF5A
:104E600027F047504610451009E1650E445CD8A074
:104E70003CEF27F03EEF27F051EF27F0235021249D
:104E8000246E000E2220256EFF0E2424D96EFF0E04
:104E90002520DA6EDF50266E2650446E456A466A3B
:104EA000476A44C51BF545C51CF51200610038F47E
:104EB000D9F461003CF4DAF4610078F313F5610091
:104EC00078F314F5610078F315F5610078F316F5C1
:104ED00020EE04F00E50D9260F50DA22DFA073EF37
:104EE00027F075EF27F0AFEF27F020EE01F00C5020
:104EF000D9260D50DA221338E842F80BF80BDF6E92
:104F0000050E106ED8901632153214321332102E50
:104F100082EF27F020EE02F00C50D9260D50DA2255
:104F200061004CF4DFF414C513F515C514F516C56E
:104F300015F5166A20EE03F00C50D9260D50DA2232
:104F400013501F0BDF6E050E106ED89016321532FF
:104F500014321332102EA5EF27F0C7EF27F020EE02
:104F600003F00C50D9260D50DA22000EDF6E10EE41
:104F700002F00C50E1260D50E222DFC4E7F420EEEF
:104F800001F00C50D9260D50DA22E7C4DFF461009D
:104F900030F4D9F4610034F4DAF461004CF4DFF455
:104FA00014C513F515C514F516C515F5166A13C500
:104FB00010F5070E101620EE01F00C50D9260D50FA
:104FC000DA221050DF1220EE04F00E50D9260F50D6
:104FD000DA22DF30E8320F0B126E20EE04F00E50B2
:104FE000D9260F50DA22DFB0F8EF27F0FCEF27F0D8
:104FF000106A102AFDEF27F0106A1038F00B121219
:1050000020EE04F00E50D9260F50DA22DFB20BEF5B
:1050100028F00FEF28F0200E106E10EF28F0106A25
:105020001050121220EE04F00E50D9260F50DA2242
:10503000DFBE1DEF28F021EF28F0400E106E22EFAA
:1050400028F0106A1050121220EE04F00E50D926EB
:105050000F50DA22DFBC2FEF28F033EF28F0800E5C
:10506000106E34EF28F0106A1050121220EE04F087
:105070000C50D9260D50DA22610048F4DFF420EEFE
:1050800004F00E50D9260F50DA22DFB24AEF28F092
:105090004CEF28F078EF28F0080E0C24016E000E7B
:1050A0000D20026E20EE05F00E50D9260F50DA22A8
:1050B000610078F303F5610074F304F520EE04F069
:1050C0000E50D9260F50DA22DF30E8320F0B106E67
:1050D000116A270E1024F66E260E1120F76EF86A5C
:1050E000000EF8220800F550056E066AF2EC3EF05C
:1050F000120020EE04F00C50D9260D50DA22DF50B9
:10510000166E16C510F520EE04F00E50D9260F507D
:10511000DA2210461046DF501018C30B1018DF6E4D
:1051200016B895EF28F099EF28F0106A102A9AEF38
:1051300028F0106A20EE04F00E50D9260F50DA2223
:10514000DF501018FE0B1018DF6E16BAAAEF28F009
:10515000AEEF28F0106A102AAFEF28F0106A20EEA8
:1051600004F00E50D9260F50DA221046DF501018E6
:10517000FD0B1018DF6E16BCC0EF28F0C4EF28F04E
:10518000106A102AC5EF28F0106A20EE04F00E50C5
:10519000D9260F50DA2210321032DF5010187F0B50
:1051A0001018DF6E16BED7EF28F0DBEF28F0106A7C
:1051B000102ADCEF28F0106A20EE04F00E50D926F9
:1051C0000F50DA22103A10461046DF501018BF0B6D
:1051D0001018DF6E20EE01F00C50D9260D50DA22A7
:1051E000DF50106E070E10161050126E136A146AFC
:1051F000156A14C515F513C514F512C513F5126A11
:10520000610030F4D9F4610034F4DAF4DF50106E48
:105210001050121220EE04F00E50D9260F50DA2250
:10522000DFA015EF29F017EF29F058EF29F0050E50
:10523000D8901236133614361536E82E18EF29F0AA
:1052400020EE03F00C50D9260D50DA22DF50106EFC
:105250001F0E10161050121214C515F513C514F5B3
:1052600012C513F5126A20EE02F00C50D9260D502B
:10527000DA22DF50106E10501212050ED89012363E
:10528000133614361536E82E3EEF29F020EE01F0E5
:105290000C50D9260D50DA22DF50106ED890103203
:1052A000D8901032D89010321F0E101610501212D3
:1052B000610038F4D9F461003CF4DAF4610048F498
:1052C000DEF461004CF4DEF4610050F4DEF46100C1
:1052D00054F4DEF4A50E016E060E026E080E0C24C8
:1052E000036E000E0D20046E20EE04F00E50D92641
:1052F0000F50DA22DF30E8320F0B106E116A270EE2
:105300001024F66E260E1120F76EF86A000EF822B1
:105310000800F550056E066AF2EC3EF020EE05F04E
:105320000E50D9260F50DA22A50EDE6E060EDD6E67
:105330001200020E0301F96F3F0EFA6F000ED86FD4
:10534000000EFB6F000ED96F000EDA6F000EDB6FE0
:10535000000EDC6F000EDF6F000EE06F000EE36FDB
:10536000000EE46F000EE56F000EE66F000EE76FB3
:10537000000EEA6F000EEB6F100EEC6FE80EEE6F92
:10538000030EEF6F000EF06F000EF16F000EF26F64
:10539000000EF36F000EF46F100EF56F000EF66F37
:1053A000000EF76F000EF86F000EFC6F010EFB6F22
:1053B000000ED96F000EDA6F000EDB6F000EDC6F8F
:1053C000000EDF6F000EE06F000EE36F000EE46F63
:1053D000000EE56F000EE66F000EE76F000EEA6F3D
:1053E000000EEB6F040EEC6FE80EEE6F030EEF6F26
:1053F000000EF06F000EF16F000EF26F000EF36FF3
:10540000000EF46F100EF56F000EF66F000EF76FC2
:10541000000EF86F000EFD6F020EFB6F000ED96FCD
:10542000000EDA6F000EDB6F000EDC6F000EDF6F18
:10543000000EE06F000EE36F000EE46F000EE56FEC
:10544000000EE66F000EE76F000EEA6F000EEB6FC6
:10545000120EEC6FE80EEE6F030EEF6F000EF06FA2
:10546000000EF16F000EF26F000EF36F000EF46F7E
:10547000100EF56F000EF66F000EF76F000EF86F4E
:10548000000EFE6F030EFB6F000ED96F000EDA6F79
:10549000000EDB6F000EDC6F000EDF6F000EE06FA2
:1054A000000EE36F000EE46F000EE56F000EE66F76
:1054B000000EE76F000EEA6F000EEB6F110EEC6F3F
:1054C000E80EEE6F030EEF6F000EF06F000EF16F3F
:1054D000000EF26F000EF36F000EF46F100EF56FFA
:1054E000000EF66F000EF76F000EF86F000EFF6FE4
:1054F000AF94AF96B090B092B094B096000E050104
:10550000606F000E616F32EC43F0000E0501606FBA
:10551000000E616F28EC43F0000E0501606F000E75
:10552000616F23EC43F0000E0501606F000E616FA8
:105530001EEC43F0000E0501606F000E616F19EC68
:1055400043F0000E0501606F000E616F2DEC43F01B
:10555000840E0301F36F120071EC38F00009D8B427
:10556000B4EF2AF0B6EF2AF0B2EF2BF0B50E216EB1
:10557000060E226E1FEC3FF0E806D8A4C2EF2AF018
:10558000C4EF2AF0B2EF2BF000F0B5C639F5B6C67D
:105590003AF5B7C63BF5B8C63CF56100E8FAD9F470
:1055A0006100ECFADAF4DF50446E060120EE01F0FF
:1055B000BA51D926BB51DA22DF50436E20EE02F0F9
:1055C000BA51D926BB51DA22DF50406E20EE03F0EB
:1055D000BA51D926BB51DA22DF50416E20EE04F0D9
:1055E000BA51D926BB51DA22DF50426E20EE05F0C7
:1055F000BA51D926BB51DA22DF503D6E20EE06F0BB
:10560000BA51D926BB51DA22DF503E6E20EE07F0A8
:10561000BA51D926BB51DA22DF503F6E6CEF2BF026
:1056200044C5A1F643C5A0F640C59EF641C59DF60A
:1056300042C59CF60501FC05D8A421EF2BF023EF11
:105640002BF0B2EF2BF0010E06019F6FB2EF2BF0A3
:105650004450070B9B6F4450180B9A6F4450E00B5B
:10566000996F4350010B986F4350060B976F43504F
:10567000780B966FB2EF2BF044C594F643C593F6C2
:1056800040C592F641C591F642C590F63DC58FF6EC
:105690003EC58EF63FC58DF6B2EF2BF044C5FCF546
:1056A0000501FC5194EC3FF0B2EF2BF044C58AF6B3
:1056B0000501FC51D8A45FEF2BF061EF2BF0B2EFA6
:1056C0002BF0000E336E06018A51E4EC3AF0B2EF93
:1056D0002BF000F0B2EF2BF039C535F53AC536F5B1
:1056E0003BC537F53CC538F53850000AD8B4ABEFA8
:1056F0002BF069EF2BF03650030AD8B48AEF2BF069
:10570000070AD8B495EF2BF0010AD8B49CEF2BF020
:1057100069EF2BF03550200AD8B410EF2BF0670A50
:10572000D8B44EEF2BF069EF2BF03550120AD8B4F5
:1057300056EF2BF069EF2BF03550000AD8B428EF64
:105740002BF0010AD8B43CEF2BF0030AD8B4B2EF27
:105750002BF069EF2BF03750000AD8B47BEF2BF019
:1057600069EF2BF0120054C57AF555C57BF505019C
:105770007C6B7D6B620E7E6F070E7F6FDD0E806F20
:10578000060E816F150E826F24EC20F07AC54EF65E
:105790007BC54FF652C57AF553C57BF505017C6B89
:1057A0007D6B380E7E6F070E7F6F8C0E806F070E3D
:1057B000816F150E826F56EC1EF07AC54CF67BC5D4
:1057C0004DF606014C514E250501A86F06014D51BD
:1057D0004F210501A96FD890A931AA6FA831060100
:1057E0004A6FAAC54BF600F0320E54240501A86F8B
:1057F000000E5520A96FAA6BAB6B0601285105015D
:10580000A85D060129510501A95906012A51050182
:10581000AA59AB51800AAC6F06012B51800A0501D1
:10582000AC59D8A016EF2CF018EF2CF039EF2CF073
:10583000CE0E5424A86FFF0E5520A96FAA6BAB6B38
:10584000A8510601285D0501A95106012959050144
:10585000AA5106012A592B51800A0501AC6FAB51A0
:10586000800AAC59D8B037EF2CF039EF2CF03DEF6F
:105870002CF00601878140EF2CF0FE0E0601871305
:10588000320E52240501A86F000E5320A96FAA6B97
:10589000AB6B060124510501A85D060125510501E8
:1058A000A959060126510501AA59AB51800AAC6FCE
:1058B00006012751800A0501AC59D8A062EF2CF0EF
:1058C00064EF2CF085EF2CF0CE0E5224A86FFF0E63
:1058D0005320A96FAA6BAB6BA8510601245D05018B
:1058E000A951060125590501AA510601265927513A
:1058F000800A0501AC6FAB51800AAC59D8B083EF78
:105900002CF085EF2CF089EF2CF0060187838CEFCB
:105910002CF0FD0E06018713050E0501FB19D8A416
:1059200094EF2CF096EF2CF09AEF2CF0060187857F
:10593000B4EF2CF0090EFB19D8A4A1EF2CF0A3EFC3
:105940002CF0A7EF2CF006018795B4EF2CF0060E93
:10595000FB19D8A4AEEF2CF0B0EF2CF0B2EF2CF086
:10596000A3EF2CF096EF2CF012000501686F0501F3
:105970006851D8B4BEEF2CF0C0EF2CF0E2EF2CF061
:1059800063BFC7EF2CF0C5EF2CF0E2EF2CF060C541
:1059900064F561C565F562C566F563C567F5641FA5
:1059A000651F661F671F642B000E65236623672330
:1059B00064C56AF565C56BF566C56CF567C56DF5BB
:1059C000EAEF2CF060C56AF561C56BF562C56CF550
:1059D00063C56DF56051611162116311D8A4F3EFD5
:1059E0002CF0F5EF2CF0FFEF2CF0000E606F000EA6
:1059F000616F000E626F000E636F90EF2DF0960ED8
:105A0000696F09EF2DF0692BD8906D336C336B33D0
:105A10006A33000E6A15646F000E6B15656F000E19
:105A20006C15666FFE0E6D15676F6451651166111A
:105A30006711D8A41EEF2DF020EF2DF003EF2DF00D
:105A40002EEF2DF0692B010E6A27000E6B236C23BD
:105A50006D23D8906D336C336B336A33000E6A1547
:105A6000646F000E6B15656F000E6C15666FFF0E90
:105A70006D15676F6451651166116711D8A443EF06
:105A80002DF045EF2DF022EF2DF04DEF2DF06907B1
:105A9000D8906A376B376C376D376CBF52EF2DF08B
:105AA00054EF2DF05CEF2DF0020E69615AEF2DF0EE
:105AB0005CEF2DF047EF2DF069B161EF2DF063EF52
:105AC0002DF064EF2DF06C9FD890693369C564F5B3
:105AD000656B666B676B64C567F5666B656B646B5E
:105AE00064516A1365516B1366516C1367516D13E2
:105AF0006851D8B47EEF2DF080EF2DF088EF2DF0B7
:105B000063BF87EF2DF085EF2DF088EF2DF06D8FBF
:105B10006AC560F56BC561F56CC562F56DC563F569
:105B2000120054C51BF555C51CF51D6A1E6A620E90
:105B30001F6E070E206EDD0E216E060E226E150EF4
:105B4000236E8BEC25F01BC54EF61CC54FF652C5D7
:105B50001BF553C51CF51D6A1E6A380E1F6E070E15
:105B6000206E8C0E216E070E226E150E236EC0EC79
:105B700023F01BC54CF61CC54DF606014C514E25B5
:105B8000496E4D514F214A6ED8904A304B6E493084
:105B90004A6F4BC54BF600F0320E5424496E000E8E
:105BA00055204A6E4B6A4C6A06012851495C2951BE
:105BB0004A582A514B584C50800A4D6E2B51800A3E
:105BC0004D58D8A0E6EF2DF0E8EF2DF003EF2EF0C2
:105BD000CE0E5424496EFF0E55204A6E4B6A4C6A15
:105BE0004950285D4A5029594B502A592B51800A57
:105BF0004D6E4C50800A4D58D8B001EF2EF003EF97
:105C00002EF006EF2EF0878108EF2EF0FE0E8713A0
:105C1000320E5224496E000E53204A6E4B6A4C6A73
:105C20002451495C25514A5826514B584C50800A02
:105C30004D6E2751800A4D58D8A021EF2EF023EF4A
:105C40002EF03EEF2EF0CE0E5224496EFF0E532062
:105C50004A6E4B6A4C6A4950245D4A5025594B5054
:105C600026592751800A4D6E4C50800A4D58D8B0A5
:105C70003CEF2EF03EEF2EF041EF2EF0878343EF06
:105C80002EF0FD0E8713050E0501FB19D8A44BEF6E
:105C90002EF04DEF2EF051EF2EF0060187856BEFC1
:105CA0002EF0090EFB19D8A458EF2EF05AEF2EF063
:105CB0005EEF2EF0060187956BEF2EF0060EFB19B6
:105CC000D8A465EF2EF067EF2EF069EF2EF05AEFB3
:105CD0002EF04DEF2EF01200096E0950D8B473EF7C
:105CE0002EF075EF2EF097EF2EF004BE7CEF2EF025
:105CF0007AEF2EF097EF2EF001C505F502C506F5F7
:105D000003C507F504C508F5051E061E071E081E77
:105D1000052A000E06220722082205C50BF506C536
:105D20000CF507C50DF508C50EF59FEF2EF001C562
:105D30000BF502C50CF503C50DF504C50EF50150B4
:105D4000021003100410D8A4A8EF2EF0AAEF2EF032
:105D5000B4EF2EF0000E016E000E026E000E036E08
:105D6000000E046E45EF2FF0960E0A6EBEEF2EF079
:105D70000A2AD8900E320D320C320B32000E0B1460
:105D8000056E000E0C14066E000E0D14076EFE0E4E
:105D90000E14086E0550061007100810D8A4D3EF93
:105DA0002EF0D5EF2EF0B8EF2EF0E3EF2EF00A2A0A
:105DB000010E0B26000E0C220D220E22D8900E3260
:105DC0000D320C320B32000E0B14056E000E0C144B
:105DD000066E000E0D14076EFF0E0E14086E0550B1
:105DE000061007100810D8A4F8EF2EF0FAEF2EF0E6
:105DF000D7EF2EF002EF2FF00A06D8900B360C36B4
:105E00000D360E360DBE07EF2FF009EF2FF011EF14
:105E10002FF0020E0A600FEF2FF011EF2FF0FCEFC2
:105E20002EF00AB016EF2FF018EF2FF019EF2FF029
:105E30000D9ED8900A320AC505F5066A076A086AF7
:105E400005C508F5076A066A056A05500B12065073
:105E50000C1207500D1208500E120950D8B433EF2F
:105E60002FF035EF2FF03DEF2FF004BE3CEF2FF079
:105E70003AEF2FF03DEF2FF00E8E0BC501F50CC55C
:105E800002F50DC503F50EC504F512000501F96F05
:105E90004AC660F50501F95153EC43F05C04D8A4FF
:105EA00054EF2FF056EF2FF0FBEF2FF00601DC053B
:105EB000D8A45DEF2FF05FEF2FF0FBEF2FF0F9C5C7
:105EC00034F6356B0501FC51F619D8A46AEF2FF0B2
:105ED0006CEF2FF006EF30F0FC05D8A472EF2FF036
:105EE00074EF2FF0B8EF2FF04AC660F54BC661F59E
:105EF000626B636B000EB5EC2CF060C5C2F561C53A
:105F0000C3F562C5C4F563C5C5F50501F951606FF8
:105F1000616B626B636B000EB5EC2CF060C5BEF577
:105F200061C5BFF562C5C0F563C5C1F5000E0501C9
:105F3000BC6F070EBD6F5EEC13F0BCC5E2F5BDC5CE
:105F4000E3F5BEC5E4F5BFC5E5F5E7EC32F0E2C523
:105F5000F7F5E3C5F8F5F7C5ECF5F8C5EDF5020E74
:105F60000501EF6F580EEE6F71EC34F006EF30F074
:105F7000FC51D8A4BEEF2FF0C0EF2FF0F9EF2FF0B7
:105F80004AC660F54BC661F5626B636B000EB5ECFB
:105F90002CF060C5C2F561C5C3F562C5C4F563C523
:105FA000C5F50501F951606F616B626B636B000EA3
:105FB000B5EC2CF060C5BEF561C5BFF562C5C0F596
:105FC00063C5C1F5000E0501BC6F070EBD6F5EEC29
:105FD00013F0BCC5E2F5BDC5E3F5BEC5E4F5BFC52C
:105FE000E5F5E7EC32F0E2C5F7F5E3C5F8F5ABEF20
:105FF0002FF006EF30F0000E0501ED6F000EEC6F94
:10600000020EEF6F580EEE6F71EC34F012000101CA
:106010001DAF0DEF30F00FEF30F01EEF30F002D873
:106020001CEF30F00500FA6E06017851FD6E7951D3
:10603000FE6EFF6AFA50120001011D9F1DAD23EF95
:1060400030F025EF30F034EF30F002D832EF30F09E
:106050000500FA6E06017651FD6E7751FE6EFF6AFD
:10606000FA50120001011D9D1DAB39EF30F03BEFDE
:1060700030F04AEF30F002D848EF30F00500FA6E09
:1060800006017451FD6E7551FE6EFF6AFA501200E2
:1060900001011D9B1CA74FEF30F051EF30F060EF76
:1060A00030F002D85EEF30F00500FA6E0601725152
:1060B000FD6E7351FE6EFF6AFA50120001011C97CB
:1060C0001DA965EF30F067EF30F076EF30F002D8C1
:1060D00074EF30F00500FA6E06017051FD6E7151DB
:1060E000FE6EFF6AFA50120001011D991DA57BEF9B
:1060F00030F07DEF30F093EF30F002D88AEF30F0DF
:106100000500FA6E06016E51FD6E6F51FE6EFF6A5C
:10611000FA501200010154A990EF30F092EF30F0E4
:1061200093EF30F054991DA798EF30F09AEF30F0CC
:10613000B0EF30F002D8A7EF30F00500FA6E06019C
:106140006C51FD6E6D51FE6EFF6AFA501200010136
:1061500060A7ADEF30F0AFEF30F0B0EF30F0609708
:10616000AE9C12000501696FF5EF30F041EC43F091
:10617000000EA6EC42F0100ED5EC3FF060C56AF5BB
:1061800061C56BF5010E05016C6F13EF31F041EC49
:1061900043F0010EA6EC42F0040ED5EC3FF060C5D2
:1061A0006AF561C56BF5C2EF30F041EC43F0020EC9
:1061B000A6EC42F0120ED5EC3FF060C56AF561C561
:1061C0006BF5C2EF30F041EC43F0030EA6EC42F069
:1061D000110ED5EC3FF060C56AF561C56BF5C2EFF5
:1061E00030F0020E6C6F13EF31F005016951676FEB
:1061F000686B6851000AD8B400EF31F0F1EF30F06D
:106200006751010AD8B4D5EF30F0030AD8B4E3EFF0
:1062100030F0010AD8B4B6EF30F0070AD8B4C7EFAF
:1062200030F0F1EF30F06C05D8A419EF31F01BEF2E
:1062300031F049EF31F06B5107E1070E6A5DD8B0DC
:1062400024EF31F026EF31F02CEF31F0000E6E6FBD
:10625000000E6D6F36EF31F06AC56DF56BC56EF5EA
:10626000FB0E6D256D6FFF0E6E216E6F890E6D5DDD
:10627000130E6E59D8A03FEF31F041EF31F043EFEC
:1062800031F049EF31F06DC565F56EC566F549EF42
:1062900031F01200000E0501ED6F000EEC6F020EE2
:1062A000EF6F580EEE6F71EC34F0030E0501F76FCF
:1062B0008A0EF66F550EE82EFED7F62FFCD7F72F75
:1062C000FAD700D032EC40F0030E0501F76F8A0ECA
:1062D000F66F550EE82EFED7F62FFCD7F72FFAD71C
:1062E00000D0CE0E54240601406FFF0E5520416FA2
:1062F000320E52243C6F000E53203D6FCE0E5424BC
:106300000701626FFF0E5520636F320E5224386F03
:10631000000E5320396F00F0000E0501ED6F640E82
:10632000EC6F020EEF6F580EEE6F71EC34F0090E49
:106330000501F76FE10EF66FB20EE82EFED7F62FCD
:10634000FCD7F72FFAD700F032EC40F0030E05012E
:10635000F76F8A0EF66F550EE82EFED7F62FFCD794
:10636000F72FFAD700D0CE0E542406013E6FFF0E51
:1063700055203F6F320E52243A6F000E53203B6F70
:10638000CE0E542407018A6FFF0E55208B6F320EFC
:106390005224606F000E5320616F00F0000E050163
:1063A000ED6F000EEC6F010EEF6F2C0EEE6F71ECC7
:1063B00034F01200000E0501756F73BFE4EF31F089
:1063C000E2EF31F0EEEF31F0731F721F711F706D4D
:1063D000000E712372237323010E756F6FBFF5EFEB
:1063E00031F0F3EF31F0FFEF31F06F1F6E1F6D1FD3
:1063F0006C6D000E6D236E236F23010E751B000E56
:10640000766F000E776F000E786F000E796F705107
:10641000711172117311D8B410EF32F012EF32F023
:1064200048EF32F0010E746F1CEF32F0D8907037E5
:10643000713772377337742B73AF21EF32F023EF5C
:1064400032F016EF32F0D8907637773778377937E1
:1064500070516C5D71516D5972516E5973516F5914
:10646000D8A035EF32F037EF32F040EF32F0705114
:106470006C5F71516D5B72516E5B73516F5B7681B6
:10648000D8907333723371337033742F23EF32F03B
:106490007551D8B44EEF32F050EF32F058EF32F081
:1064A000791F781F771F766D000E77237823792365
:1064B00076C56CF577C56DF578C56EF579C56FF560
:1064C0001200000E166E14BE6AEF32F068EF32F062
:1064D00074EF32F0141E131E121E116C000E1222E5
:1064E00013221422010E166E10BE7BEF32F079EFEC
:1064F00032F085EF32F0101E0F1E0E1E0D6C000ED6
:106500000E220F221022010E161A000E176E000E18
:10651000186E000E196E000E1A6E11501210131024
:106520001410D8B496EF32F098EF32F0CEEF32F08C
:10653000010E156EA2EF32F0D890113612361336D6
:106540001436152A14AEA7EF32F0A9EF32F09CEF03
:1065500032F0D8901736183619361A3611500D5CAD
:1065600012500E5813500F5814501058D8A0BBEFAB
:1065700032F0BDEF32F0C6EF32F011500D5E125026
:106580000E5A13500F5A1450105A1780D8901432C4
:10659000133212321132152EA9EF32F01650D8B440
:1065A000D4EF32F0D6EF32F0DEEF32F01A1E191EC1
:1065B000181E176C000E182219221A2217C50DF585
:1065C00018C50EF519C50FF51AC510F5120005010D
:1065D000E435E535EB6FEB51D8A4F1EF32F0F3EF92
:1065E00032F0FDEF32F0000EE26F000EE36F000EAE
:1065F000E46F000EE56F6AEF33F0E2C5E6F5E3C540
:10660000E7F5E4C5E8F5E5C5E9F5200E0DEF33F053
:10661000D890E933E833E733E633E82E08EF33F078
:10662000E651EA6FE48FFF0EE217FF0EE317FF0E4D
:10663000E417000EE517960EEB5FEBBF24EF33F087
:1066400022EF33F03AEF33F0EB51800A970FD8B0D6
:106650002CEF33F02EEF33F030EF33F0F3EF32F076
:10666000D890E533E433E333E233EB3F30EF33F0FC
:1066700052EF33F01F0EEB6540EF33F042EF33F093
:106680004AEF33F0F3EF32F0D890E237E337E437F4
:10669000E537EB07EB51D8A450EF33F052EF33F06E
:1066A00044EF33F0EA51D8B458EF33F05AEF33F0F7
:1066B00062EF33F0E51FE41FE31FE26D000EE323FA
:1066C000E423E523E2C5E2F5E3C5E3F5E4C5E4F53B
:1066D000E5C5E5F51200000E05016015686F000EB6
:1066E0006115696F800E62156A6F7F0E63156B6F9F
:1066F000685169116A116B11D8A481EF33F083EFEF
:1067000033F08BEF33F0000E606F000E616F000E00
:10671000626F000E636F000E6415686F000E6515E2
:10672000696F800E66156A6F7F0E67156B6F685113
:1067300069116A116B11D8A4A0EF33F0A2EF33F006
:10674000AAEF33F0000E646F000E656F000E666FE7
:10675000000E676F63AFAFEF33F0B1EF33F0BAEF16
:1067600033F0606D611FD8B0612B621FD8B0622B0F
:10677000800E635767AFBFEF33F0C1EF33F0CAEF5E
:1067800033F0646D651FD8B0652B661FD8B0662BDB
:10679000800E6757000E601B000E611B000E621B0F
:1067A000800E631B000E641B000E651B000E661B33
:1067B000800E671B6451605D655161596651625975
:1067C00067516359D8B0E7EF33F0E9EF33F0ECEFFE
:1067D00033F0D890EDEF33F0D8801200213422341A
:1067E000286E2850D8A4F7EF33F0F9EF33F003EF19
:1067F00034F0000E1F6E000E206E000E216E000E93
:10680000226E70EF34F01FC523F520C524F521C595
:1068100025F522C526F5200E13EF34F0D890263248
:10682000253224322332E82E0EEF34F02350276E27
:10683000218EFF0E1F16FF0E2016FF0E2116000ED2
:106840002216960E285E28BE2AEF34F028EF34F088
:1068500040EF34F02850800A970FD8B032EF34F070
:1068600034EF34F036EF34F0F9EF33F0D8902232D1
:10687000213220321F32283E36EF34F058EF34F008
:106880001F0E286446EF34F048EF34F050EF34F038
:10689000F9EF33F0D8901F362036213622362806FD
:1068A0002850D8A456EF34F058EF34F04AEF34F0C3
:1068B0002750D8B45EEF34F060EF34F068EF34F076
:1068C000221E211E201E1F6C000E202221222222A9
:1068D0001FC51FF520C520F521C521F522C522F5CC
:1068E0001200490E05016C6F990E6D6F000E6E6FF0
:1068F000000E6F6FEEC570F5EFC571F5726B736BBF
:10690000DAEC31F06CC5F2F56DC5F3F56A0E0501F0
:10691000726F4D0E736F930E746FBF0E756FF2C56D
:1069200060F5F3C561F5626B636B000EB5EC2CF09E
:1069300060C56EF561C56FF562C570F563C571F52B
:106940006DEC17F06EC5E2F56FC5E3F570C5E4F5C3
:1069500071C5E5F5E7EC32F0E2C5F2F5E3C5F3F514
:10696000ECC5F0F5EDC5F1F50501D890F037F1373C
:10697000D890F037F137F0C5F4F5F1C5F5F5F4C569
:1069800060F5F5C561F5000E636F640E626F2CEC67
:1069900041F060C5F4F561C5F5F5F4C560F5F5C5E0
:1069A00061F5EEC562F5EFC563F509EC3DF060C534
:1069B000F4F561C5F5F5F4C560F5F5C561F591EC43
:1069C00042F0F2C560F5F3C561F58AEC42F049EC9E
:1069D00043F01200490E05016C6F990E6D6F000EA9
:1069E0006E6F000E6F6FEEC570F5EFC571F5726BCF
:1069F000736BDAEC31F06CC5F2F56DC5F3F56A0E28
:106A00000501726F4D0E736F930E746FBF0E756F2D
:106A1000F2C560F5F3C561F5626B636B000EB5EC12
:106A20002CF060C56EF561C56FF562C570F563C584
:106A300071F56DEC17F06EC5E2F56FC5E3F570C545
:106A4000E4F571C5E5F5E7EC32F0E2C5F2F5E3C532
:106A5000F3F5ECC5F0F5EDC5F1F50501D890F0378B
:106A6000F137D890F037F137F0C5F4F5F1C5F5F509
:106A7000F4C560F5F5C561F5000E636F640E626FD5
:106A80002CEC41F060C5F4F561C5F5F5F4C560F591
:106A9000F5C561F5EEC562F5EFC563F509EC3DF0AE
:106AA00060C5F4F561C5F5F5F4C560F5F5C561F5AA
:106AB0009FEC42F0F2C560F5F3C561F598EC42F049
:106AC0004BEC43F01200490E0D6E990E0E6E000E47
:106AD0000F6E000E106E2BC511F52CC512F5136A42
:106AE000146A61EC32F00DC52FF50EC530F56A0E53
:106AF000136E4D0E146E930E156EBF0E166E2FC5CF
:106B000001F530C502F5036A046A000E6CEC2EF044
:106B100001C50FF502C510F503C511F504C512F541
:106B2000CEEC19F00FC51FF510C520F511C521F5E4
:106B300012C522F5EEEC33F01FC52FF520C530F558
:106B400029C52DF52AC52EF5D8902D362E36D8908C
:106B50002D362E362DC531F52EC532F531C501F550
:106B600032C502F5000E046E640E036E6DEC41F04A
:106B700001C531F502C532F531C501F532C502F561
:106B80002BC503F52CC504F5F2EC3DF001C531F53C
:106B900002C532F531C501F532C502F5B2EC42F05D
:106BA0002FC501F530C502F5ACEC42F04DEC43F0D9
:106BB0001200490E0D6E990E0E6E000E0F6E000E35
:106BC000106E2BC511F52CC512F5136A146A61EC11
:106BD00032F00DC52FF50EC530F56A0E136E4D0E51
:106BE000146E930E156EBF0E166E2FC501F530C5CF
:106BF00002F5036A046A000E6CEC2EF001C50FF575
:106C000002C510F503C511F504C512F5CEEC19F057
:106C10000FC51FF510C520F511C521F512C522F5C8
:106C2000EEEC33F01FC52FF520C530F529C52DF545
:106C30002AC52EF5D8902D362E36D8902D362E36E4
:106C40002DC531F52EC532F531C501F532C502F538
:106C5000000E046E640E036E6DEC41F001C531F55B
:106C600002C532F531C501F532C502F52BC503F574
:106C70002CC504F5F2EC3DF001C531F502C532F545
:106C800031C501F532C502F5BEEC42F02FC501F564
:106C900030C502F5B8EC42F04FEC43F01200206E24
:106CA000000E1C6E17501FEC42F01F6E1FA05BEF12
:106CB00036F05DEF36F0C3EF36F017500C0D580E7E
:106CC000F324D96E010EF420DA6E610078F31DF51D
:106CD000610074F31EF51D501E10D8B472EF36F02B
:106CE00074EF36F0C3EF36F01DC50CF51EC50DF57B
:106CF00018C50EF519C50FF579EC28F017500C0DD5
:106D0000510EF324D96E010EF420DA6E000EDB80F2
:106D10002050020D5F0EF324D96E050EF420DA6EBA
:106D2000DF2A1750CFEC41F01A6E2050020D5F0E93
:106D3000F324D96E050EF420DA6E1A50DE5CD8A06A
:106D4000A4EF36F0A6EF36F0B0EF36F02050020D8B
:106D50005F0EF324D96E050EF420DA6E000EDF6E9E
:106D60001FA6B5EF36F0B7EF36F0C1EF36F017508B
:106D70000C0D540EF324D96E010EF420DA6EF70ECA
:106D8000DF16010E1C6E1C5012000601C351C41107
:106D9000D8B4CDEF36F0CFEF36F0DBEF36F002D8D7
:106DA000DBEF36F00500FA6EC351FD6EC451FE6E86
:106DB000FF6AFA501200F4EC3FF00601A42B060E15
:106DC000A419D8A4E6EF36F0E8EF36F0ECEF36F091
:106DD000000EA46F80EC42F00601A32B0B0EA3194A
:106DE000D8A4F5EF36F0F7EF36F0FBEF36F0000EF3
:106DF000A36FC5EC3EF00601A22B650EA219D8A424
:106E000004EF37F006EF37F00AEF37F0000EA26F0D
:106E100058EC43F00601624B632B2D0E621906E11C
:106E20006305D8A416EF37F018EF37F01EEF37F0F0
:106E3000000E636F000E626F56EC43F00601604B6C
:106E4000612B590E601907E1020E6119D8A42BEFCE
:106E500037F02DEF37F033EF37F0000E616F000E93
:106E6000606F57EC43F0120022C5ADF623C5AEF6B5
:106E700024C5AFF625C5B0F626C5B1F627C5B2F6CE
:106E800028C5B3F629C5B4F61DC5BCF61EC5BDF6AA
:106E90001FC5BEF620C5BFF60601C09DC09FC093AA
:106EA000C09121C52AF50F0E2A162A462A46C0513E
:106EB0002A18C30B2A18C06FAD0EC16F060EC26F21
:106EC0004DEC42F0E806D8A468EF37F06AEF37F0EF
:106ED0006BEF37F000F042EC42F0E806D8A473EF15
:106EE00037F075EF37F076EF37F000F037EC42F01F
:106EF000E806D8A47EEF37F080EF37F081EF37F067
:106F000000F0FAEC41F0E806D8A489EF37F08BEFF7
:106F100037F08CEF37F000F0000EAAEC41F02A6E4B
:106F20002AA095EF37F097EF37F09FEF37F0BC0EC0
:106F3000176E060E186E000E30EC3BF000F01200DB
:106F4000076E000E086E20EE04F00250D9260350A2
:106F5000DA22DF50096E09AEB0EF37F0B2EF37F04A
:106F6000BDEF37F037EC43F0060AD8A4BAEF37F09C
:106F7000BCEF37F0BDEF37F008820930E8320F0B75
:106F8000046E080E0464C7EF37F0C9EF37F0DBEF8B
:106F900037F009ACCEEF37F0D0EF37F0DAEF37F05B
:106FA00037EC43F0060AD8A4D8EF37F0DAEF37F021
:106FB000DBEF37F008802F0EF66E260EF76EF86ABC
:106FC00008006100D4F304F50930E8320F0B056EB8
:106FD000066A270E0524F66E260E0620F76EF86A5E
:106FE000000EF8220800F550045CD8B0FAEF37F034
:106FF000FCEF37F0FDEF37F00880075013EC42F05C
:107000000009D8A406EF38F008EF38F00AEF38F09E
:10701000030E08120850120005017E517A5D606F60
:107020007F517B59616F80517C59626F81517D59CD
:10703000636F640E646F000E656F000E666F000E66
:10704000676F2CEC3EF060C56CF561C56DF562C5EF
:107050006EF563C56FF505017E51825D706F7F51DE
:107060008359716F80518459726F81518559736F43
:10707000DAEC31F06CC57AF56DC57BF56EC57CF543
:107080006FC57DF505017DBF4AEF38F048EF38F058
:1070900054EF38F0000E7A6F000E7B6F000E7C6F9D
:1070A000000E7D6F6CEF38F07DBF62EF38F07D51E0
:1070B0007C117B1109E1650E7A5DD8A062EF38F092
:1070C00064EF38F06CEF38F0640E7A6F000E7B6F6F
:1070D000000E7C6F000E7D6F7AC57AF57BC57BF55F
:1070E0001200000E036E000E0A6E0A50020D5E0EB4
:1070F000F324D96E050EF420DA6EDF50066E0650CA
:107100001FEC42F0056E05A088EF38F08AEF38F0EA
:10711000CBEF38F00650CFEC41F0076E05A693EFA9
:1071200038F095EF38F099EF38F007C504F5C9EF5E
:1071300038F006500C0D550EF324D96E010EF420D4
:10714000DA6EDF501F0B086E0A50020D5F0EF3243B
:10715000D96E050EF420DA6EDF50096E0950085C16
:10716000D8B0B5EF38F0B7EF38F0BDEF38F00950D0
:10717000085C0724046EC9EF38F00850095CD8B0E9
:10718000C4EF38F0C6EF38F095EF38F00950085CDE
:10719000046E045003260A2A0A50D8B4D2EF38F0FD
:1071A000D4EF38F075EF38F0035012001F501B5C1D
:1071B000016E20501C58026E21501D58036E225043
:1071C0001E58046E640E056E000E066E000E076EED
:1071D000000E086E62EC3EF001C50DF502C50EF51D
:1071E00003C50FF504C510F51F50235C116E205028
:1071F0002458126E21502558136E22502658146EB2
:1072000061EC32F00DC51BF50EC51CF50FC51DF563
:1072100010C51EF51EBE11EF39F00FEF39F01BEF50
:1072200039F0000E1B6E000E1C6E000E1D6E000E5F
:107230001E6E33EF39F01EBE29EF39F01E501D10BF
:107240001C1009E1650E1B5CD8A029EF39F02BEF6B
:1072500039F033EF39F0640E1B6E000E1C6E000E19
:107260001D6E000E1E6E1BC51BF51CC51CF5120005
:107270006100D8F34EF56100DCF34FF56100E0F3F7
:1072800050F56100D4F351F5A1AE49EF39F04BEF61
:1072900039F056EF39F0B1AE50EF39F052EF39F026
:1072A00056EF39F089EC40F08CEF39F0A1A85BEF94
:1072B00039F05DEF39F068EF39F0B1A862EF39F0DD
:1072C00064EF39F068EF39F06DEC40F08CEF39F095
:1072D0009EAC6DEF39F06FEF39F07AEF39F0AEAC6C
:1072E00074EF39F076EF39F07AEF39F007EC30F0DF
:1072F0008CEF39F0A2A87FEF39F081EF39F08CEFF5
:1073000039F0B2A886EF39F088EF39F08CEF39F018
:1073100042EC41F08CEF39F0610044F5F5F4610086
:1073200040F5F8F461003CF5F7F4610038F5F6F447
:107330001100000ECFB4010E016E000ECEB2010E90
:10734000026E00F00104D8A4A8EF39F0AAEF39F0DA
:10735000B8EF39F00250D8A4B0EF39F0B2EF39F0FD
:10736000B8EF39F0010E5D6E5BC589F6F8EF39F0C4
:107370000150D8A4BEEF39F0C0EF39F0CEEF39F0AC
:107380000204D8A4C6EF39F0C8EF39F0CEEF39F0D7
:10739000020E5D6E5BC588F6F8EF39F00150D8A497
:1073A000D4EF39F0D6EF39F0E2EF39F00250D8A43B
:1073B000DCEF39F0DEEF39F0E2EF39F0030E5D6E0D
:1073C000F8EF39F00104D8A4E8EF39F0EAEF39F02A
:1073D000F6EF39F00204D8A4F0EF39F0F2EF39F00B
:1073E000F6EF39F0040E5D6EF8EF39F0050E5D6EC4
:1073F0001200333333403333B33F0AD7233E0AD727
:10740000A33C000000000000C8420000A0C0000033
:10741000A0400AD7233C000000000000000000004C
:10742000000000000000000000003A0A2B0A220AB7
:10743000BA093D09E108A708A807E106AC06440619
:107440000A06CD05710531050B05D6049A042E04F4
:107450002404E7037B048F049104B204600545050E
:1074600069052406C106F4066C079F07F107610849
:10747000CB080E096209BD09D60ADA0A920B00058B
:107480000A0F14191E23282D32373C41464B505504
:037490005A5F64DC
:10749400BAEC40F0B6EC3FF06CEC42F032EC40F069
:1074A400ECEC41F076EC42F0D68E000EA2EC40F00B
:1074B400DEEC41F0000E06015D6F000E5C6F32ECF5
:1074C40040F0B3EC2BF00AEC3CF052EC43F0050135
:1074D400FC51D8A470EF3AF072EF3AF07AEF3AF038
:1074E400000EF66F06015A5146EC2FF061EF3AF0A8
:1074F400FC05D8A480EF3AF082EF3AF061EF3AF05D
:10750400010EF66F0601A15146EC2FF0000E5D6EE0
:10751400A0C6ECF50501ED6B010EEF6F2C0EEE6FBE
:10752400EAEC34F061EF3AF00DEF00F00501626F20
:10753400000E0501616FF1EC42F00501606F040E6D
:107544006019D8B4A8EF3AF0AAEF3AF0BBEF3AF0DA
:107554006205D8B4B0EF3AF0B2EF3AF0BBEF3AF0CC
:10756400040E6219D8A4B9EF3AF0BBEF3AF0E0EF99
:107574003AF00101035105016219F80B6219010186
:10758400036FD2EF3AF001011DA9CBEF3AF0CDEF32
:107594003AF0D2EF3AF0020E0501616FE2EF3AF0F1
:1075A4000239E832070B05016219D8A4DCEF3AF07E
:1075B400DEEF3AF0C5EF3AF0E2EF3AF0010E616F18
:1075C40061511200346E5C04D8A4EBEF3AF0EDEF95
:1075D4003AF025EF3BF034503C0D6100CCF350F60B
:1075E4006100D0F351F650C601F551C602F5000E04
:1075F400046E640E036EF2EC3DF001C550F602C554
:1076040051F606015051506F516B0501FC5133186E
:10761400D8A40FEF3BF011EF3BF02FEF3BF0040E3B
:107624005D6017EF3BF019EF3BF02FEF3BF050C6D6
:1076340029F551C62AF5010E2C6E2C0E2B6ED9ECB1
:1076440035F02FEF3BF0000E2A6E000E296E010E6E
:107654002C6E2C0E2B6ED9EC35F012001C6E1C50C7
:1076640013EC40F00009D8B43AEF3BF03CEF3BF0A8
:1076740079EF3BF017C502F518C503F51C50A0ECD3
:1076840037F0196E1950D8A44AEF3BF04CEF3BF099
:1076940079EF3BF01C500C0D580EF324D96E010EFB
:1076A400F420DA6E610078F31AF5610074F31BF5C7
:1076B4001A501B10D8B461EF3BF063EF3BF079EF45
:1076C4003BF01AC50CF51BC50DF517C50EF518C50D
:1076D4000FF556EC27F01C500C0D510EF324D96E07
:1076E400010EF420DA6E030EDF1279EF3BF0120084
:1076F400F20EF66E730EF76E000EF86E01EE00F3E6
:1077040010EEA1F00900F5C4EEF4E550E150FAE101
:10771400560EF66E840EF76E000EF86E01EEDBF276
:1077240010EE17F00900F5C4EEF4E550E150FAE16B
:10773400A20EF66E860EF76E000EF86E090061005A
:10774400D4F35EF509006100D4F35FF501EE00F2B5
:10775400C30EEE6AE806FDE10501FC6BFB6BFA6BF8
:1077640001EE52F10C0EEE6AE806FDE10401080E8A
:107774005D6F000E5E6F000E5F6F00014AEF3AF01E
:10778400050120EE24F06051D9266151DA22000E61
:10779400DE6E000EDE6E000EDE6E000EDD6E20EE7E
:1077A40028F06051D9266151DA22000EDE6E000EF7
:1077B400DE6E000EDE6E000EDD6E20EE2CF06051EB
:1077C400D9266151DA22000EDE6E000EDE6E000E46
:1077D400DE6E000EDD6E20EE30F06051D926615170
:1077E400DA22000EDE6E000EDE6E000EDE6E000E7D
:1077F400DD6E20EE34F06051D9266151DA22000E9C
:10780400DE6E000EDE6E000EDE6E000EDD6E120009
:1078140038C67AF539C67BF505017C6B7D6B48C6A5
:107824007EF549C67FF5806B816B46C682F547C6F7
:1078340083F5846B856B0CEC38F07AC558F57BC501
:1078440059F536C67AF537C67BF505017C6B7D6B39
:1078540044C67EF545C67FF5806B816B42C682F5D2
:1078640043C683F5846B856B0CEC38F07AC556F50A
:107874007BC557F5565058240501866F575059203B
:10788400876FD8908731886F863106015A6F88C513
:107894005BF600F0120038C61BF539C61CF51D6AEC
:1078A4001E6A48C61FF549C620F5216A226A46C6E3
:1078B40023F547C624F5256A266AD6EC38F01BC59D
:1078C40058F51CC559F536C61BF537C61CF51D6A97
:1078D4001E6A44C61FF545C620F5216A226A42C6BF
:1078E40023F543C624F5256A266AD6EC38F01BC571
:1078F40056F51CC557F556505824276E5750592035
:10790400286ED8902830296E273006015A6F29C571
:107914005BF600F01200000EBE6E000EBF6E000E8D
:10792400C06E080ECA6EDE0EC66ECC0EC76E070E93
:10793400C86EE70E0401106F730E086FFD0E006F22
:10794400000E216F000E096F000E016F000E116F03
:10795400000E026F000E0A6F180E126F03690B6996
:10796400136904690C691469080E246F0F0E02016F
:10797400696F140E706F1A0E0A6F370E146F180E9B
:10798400096F380E156F0B0E3D6F460E0D6F130EFB
:10799400716F1200BE0E0501606F860E616F0AECF6
:1079A40043F0C00E0501606F860E616F0FEC43F06B
:1079B400C20E0501606F860E616F14EC43F0BC0EBD
:1079C4000501606F860E616F05EC43F0B80E05018A
:1079D400606F860E616FFBEC42F0B60E0501606FBE
:1079E400860E616FF6EC42F0BA0E0501606F860EEA
:1079F400616F00EC43F0AE9C000E01011C6F000EA1
:107A04001D6F0A0E1E6FFC0E1F6F9E8C1200000E5F
:107A14000501656F000E646F62516311D8B415EFF0
:107A24003DF017EF3DF03FEF3DF0010E666F1FEFA5
:107A34003DF0D89062376337662B63AF24EF3DF097
:107A440026EF3DF01BEF3DF0D89064376537625167
:107A5400605D63516159D8A032EF3DF034EF3DF0E1
:107A640039EF3DF06251605F6351615B6481D8908E
:107A740063336233662F26EF3DF064C560F565C558
:107A840061F51200000E6F6E020E706E000E716EC4
:107A94003D0E726E000E736EFE0E746E000E756EE9
:107AA400000E766E000E776E000E796E1F0E7A6EE3
:107AB400000E7B6E1F0E7C6E000E7D6EB39CB39E1B
:107AC40076907692A39EA39C000E0501606F000E33
:107AD400616FD3EC42F0000E0501606F000E616F20
:107AE400CEEC42F0000E0501606F000E616FD8EC21
:107AF40042F0800E786E1200000E606E020E616E0F
:107B0400000E626E3D0E636E000E646EFE0E656EB8
:107B1400000E666E000E676E000E686E000E6A6ED2
:107B24001F0E6B6E000E6C6E1F0E6D6E000E6E6E71
:107B3400B29CB29E67906792A29EA29C000E050121
:107B4400606F000E616FE2EC42F0000E0501606FA1
:107B5400000E616FDDEC42F0000E0501606F000E57
:107B6400616FE7EC42F0800E696E120000F00501CF
:107B7400FC05D8A4C0EF3DF0C2EF3DF0E7EF3DF0C7
:107B840006019F05D8A4C9EF3DF0CBEF3DF0CFEF40
:107B94003DF0010E5C6EF1EF3DF0000E5C6E000EE8
:107BA4002A6E000E296E010E2C6E2C0E2B6ED9EC53
:107BB40035F0000E2A6E000E296E020E2C6E580E41
:107BC4002B6E63EC35F0F1EF3DF0FC51D8A4EDEFF2
:107BD4003DF0EFEF3DF0F1EF3DF0CBEF3DF0120063
:107BE400000E066E000E056E03500410D8B4FDEFAF
:107BF4003DF0FFEF3DF027EF3EF0010E076E07EF7B
:107C04003EF0D89003360436072A04AE0CEF3EF05B
:107C14000EEF3EF003EF3EF0D890053606360350E3
:107C2400015C04500258D8A01AEF3EF01CEF3EF05D
:107C340021EF3EF00350015E0450025A0580D890B3
:107C440004320332072E0EEF3EF005C501F506C5DA
:107C540002F51200000E0501686F000E696F000E38
:107C64006A6F000E6B6F60A13AEF3EF03CEF3EF09E
:107C740044EF3EF0645168276551692366516A23D5
:107C840067516B23D8906437653766376737D89068
:107C94006333623361336033605161116211631184
:107CA400D8A457EF3EF059EF3EF035EF3EF068C5EB
:107CB40060F569C561F56AC562F56BC563F51200C7
:107CC400000E096E000E0A6E000E0B6E000E0C6E96
:107CD40001A06FEF3EF071EF3EF079EF3EF00550FA
:107CE400092606500A2207500B2208500C22D8906D
:107CF4000536063607360836D89004320332023287
:107D040001320150021003100410D8A48CEF3EF08D
:107D14008EEF3EF06AEF3EF009C501F50AC502F5A3
:107D24000BC503F50CC504F512000101018F040E07
:107D340098EC3AF00009D8A4A2EF3EF0A4EF3EF08C
:107D4400C4EF3EF0000E01014C6F260E4D6F000E85
:107D54004E6F000E4F6F600E006F970E016F100E86
:107D6400026F62EC42F058EC42F058EC41F0BEEC89
:107D740041F0D1EC40F0CCEC3CF0060E98EC3AF03B
:107D8400C79ABF9A1200310E1D6E030E1E6E000EAE
:107D94001F6E000E206E040E216E87C622F586C665
:107DA40023F55DC524F585C625F5000E266E000E67
:107DB400276E000E286E000E296E34EC37F0BEB02C
:107DC400E6EF3EF0E9EF3EF0010EEAEF3EF0000E82
:107DD400FF0A2B6EBE502B18FE0B2B18BE6E120022
:107DE40003C509F504C50AF501C507F502C508F57B
:107DF40011EF3FF0610024F4D9F4610028F4DAF4BF
:107E0400DF500B6E094A0A2A61001CF4D9F46100A0
:107E140020F4DAF461002CF4DFF4074A082A05069A
:107E2400D8A00606052806E10628D8A41CEF3FF0D2
:107E34001EEF3FF0FCEF3EF01200000E246E2450C3
:107E4400020D5E0EF324D96E050EF420DA6EDF50B7
:107E5400176E21C518F522C519F524504FEC36F0DC
:107E6400236E2350D8B439EF3FF03BEF3FF03DEFA2
:107E74003FF046EF3FF0242A2450D8B444EF3FF0BB
:107E840046EF3FF021EF3FF023501200000E0301B4
:107E94001F6F000E206F010E216F850E1D6FEE0EF9
:107EA4001C6FB1981C51600074FC62F50501636B92
:107EB40062C563F5626B62110601C56F050163510A
:107EC4000601C66FA188A80E0501606F860E616F5A
:107ED400C4EC42F0310E03011E6F1200000E0501C6
:107EE4009B1B000E9C1B000E9D1B800E9E1B97C5AA
:107EF4006EF598C56FF599C570F59AC571F59BC572
:107F040072F59CC573F59DC574F59EC575F56DEC4C
:107F140017F06EC597F56FC598F570C599F571C5DD
:107F24009AF51200036EA0EF3FF0BE8AB5EF3FF062
:107F3400BE9AB5EF3FF0BE9AB5EF3FF00350016E25
:107F4400026A0250000AD8B4AAEF3FF09DEF3FF056
:107F54000150000AD8B49AEF3FF0010AD8B497EF61
:107F64003FF09DEF3FF01200C690C784C682C69AC8
:107F7400C89AC89CC89EC79A000E0501ED6F000EF2
:107F8400EC6F010EEF6F2C0EEE6FEAEC34F0000E86
:107F94000501ED6F000EEC6F020EEF6F580EEE6FE1
:107FA40071EC34F012000501646F610090F5ECF39C
:107FB4000301F38FF39DF381F3B1E3EF3FF0E5EFBA
:107FC4003FF0DEEF3FF0EB510501636F626B03019D
:107FD400EA5105016225606F0301000E050163216A
:107FE400616F120059EC43F0300E1D6E030E1E6ECD
:107FF400000E1F6E000E206E060E216E58C522F56F
:1080040056C523F54EC624F54CC625F55AC626F5A5
:108014004AC627F5000E286E000E296E34EC37F0A0
:108024001200026E000E016E040E02601CEF40F09E
:108034001EEF40F030EF40F002500C0D500EF324D0
:10804400D96E010EF420DA6E0101DFAE2CEF40F0A0
:108054002EEF40F030EF40F0010E016E015012009F
:10806400010EB2EC30F065C538F666C539F6020E7D
:10807400B2EC30F065C536F666C537F6030EB2ECE1
:1080840030F065C554F566C555F5040EB2EC30F014
:1080940065C552F566C553F500F0120005019F5100
:1080A400A011A111A211D8B45AEF40F05CEF40F036
:1080B40064EF40F0000E9F1B000EA01B000EA11BDE
