:020000040000FA
:040000000DEF00F010
:04000800D4EF34F00D
:06001800FF00C0EF36F00E
:1026000000000000000000000000000000000000CA
:1026100000000000000000000000000000000000BA
:102620000000000000000000010203040506070886
:102630005001526561643A206E6F6E2D766F6C6149
:1026400074696C6520766F6C746167652076616C67
:1026500075652025662C20616E6420766F6C617430
:10266000696C6520766F6C746167652076616C7546
:10267000652025660053657420746865206E6F6E52
:102680002D766F6C6174696C6520766F6C74616710
:102690006520746F203156200A00536574207468D9
:1026A0006520766F6C6174696C6520766F6C7461FF
:1026B000676520746F203256200A0000BEC597F56A
:1026C000BFC598F5C0C599F5C1C59AF5C2C59BF5BA
:1026D000C3C59CF5C4C59DF5C5C59EF5E7EC3AF0AC
:1026E00097C5DEF598C5DFF599C5E0F59AC5E1F522
:1026F0006100F0F6D9F46100F4F6DAF4610078F3E1
:102700007EF5610078F37FF5610078F380F5610074
:1027100078F381F5DEC582F5DFC583F5E0C584F584
:10272000E1C585F52EEC1CF07EC5C6F57FC5C7F565
:1027300080C5C8F581C5C9F5000E0501826F000E80
:10274000836F000E846F3F0E856F20EE04F0BC5146
:10275000D926BD51DA22610078F37EF5610078F365
:102760007FF5610078F380F5610078F381F52EEC58
:102770001CF07EC5D6F57FC5D7F580C5D8F581C5D7
:10278000D9F5050120EE20F0BC51D926BD51DA2241
:10279000610078F382F5610078F383F5610078F3E6
:1027A00084F5610078F385F5D6C57EF5D7C57FF54C
:1027B000D8C580F5D9C581F52EEC1CF07EC5DAF5BB
:1027C0007FC5DBF580C5DCF581C5DDF5DAC582F5B1
:1027D000DBC583F5DCC584F5DDC585F5DEC572F5A1
:1027E000DFC573F5E0C574F5E1C575F5050120EEAB
:1027F00028F0BC51D926BD51DA22610078F36EF57C
:10280000610078F36FF5610078F370F5610078F39B
:1028100071F56DEC17F06EC57EF56FC57FF570C56F
:1028200080F571C581F52EEC1CF07EC5CAF57FC51B
:10283000CBF580C5CCF581C5CDF5CAC56EF5CBC548
:102840006FF5CCC570F5CDC571F5050120EE24F00E
:10285000BC51D926BD51DA22610078F372F56100CE
:1028600078F373F5610078F374F5610078F375F52A
:102870006DEC17F0050120EE24F0BC51D926BD51B6
:10288000DA226100B8F5DEF46100BCF5DEF4610027
:10289000C0F5DEF46100C4F5DEF420EE1CF0BC519E
:1028A000D926BD51DA22610078F360F5610078F332
:1028B00061F5610078F362F5610078F363F520EE6D
:1028C00024F0BC51D926BD51DA22610078F364F5B9
:1028D000610078F365F5610078F366F5610078F3DF
:1028E00067F591EC2EF00501D8B079EF14F07BEF8D
:1028F00014F091EF14F020EE1CF0BC51D926BD511C
:10290000DA2210EE24F0BC51E126BD51E222DEC4F1
:10291000E6F4DEC4E6F4DEC4E6F4DEC4E6F4D3EFA7
:1029200014F020EE24F0BC51D926BD51DA2261000A
:1029300078F360F5610078F361F5610078F362F592
:10294000610078F363F520EE18F0BC51D926BD5133
:10295000DA22610078F364F5610078F365F56100CF
:1029600078F366F5610078F367F591EC2EF00501D8
:10297000D8B0BDEF14F0BFEF14F0D3EF14F020EE99
:1029800018F0BC51D926BD51DA2210EE24F0BC510A
:10299000E126BD51E222DEC4E6F4DEC4E6F4DEC484
:1029A000E6F4DEC4E6F420EE20F0BC51D926BD5199
:1029B000DA22610078F39BF5610078F39CF5610001
:1029C00078F39DF5610078F39EF5000E826F000E9E
:1029D000836F000E846F400E856F20EE0CF0BC51AB
:1029E000D926BD51DA22610078F37EF5610078F3D3
:1029F0007FF5610078F380F5610078F381F52EECC6
:102A00001CF07EC597F57FC598F580C599F581C501
:102A10009AF5E7EC3AF097C5D6F598C5D7F599C57C
:102A2000D8F59AC5D9F5000E0501826F000E836FA7
:102A3000000E846F400E856F20EE08F0BC51D92641
:102A4000BD51DA22610078F37EF5610078F37FF5FD
:102A5000610078F380F5610078F381F52EEC1CF0CD
:102A60007EC5DAF57FC5DBF580C5DCF581C5DDF512
:102A7000050120EE30F0BC51D926BD51DA226100AB
:102A800078F39BF5610078F39CF5610078F39DF590
:102A9000610078F39EF5C2C597F5C3C598F5C4C526
:102AA00099F5C5C59AF5E7EC3AF097C582F598C552
:102AB00083F599C584F59AC585F5DAC57EF5DBC53C
:102AC0007FF5DCC580F5DDC581F52EEC1CF07EC5FB
:102AD000CEF57FC5CFF580C5D0F581C5D1F505010F
:102AE00020EE2CF0BC51D926BD51DA22610078F3DA
:102AF00082F5610078F383F5610078F384F5610075
:102B000078F385F5D6C57EF5D7C57FF5D8C580F5B0
:102B1000D9C581F52EEC1CF07EC572F57FC573F525
:102B200080C574F581C575F5CEC56EF5CFC56FF559
:102B3000D0C570F5D1C571F56DEC17F06EC59FF578
:102B40006FC5A0F570C5A1F571C5A2F5C7EC3BF046
:102B50009FC5A3F5A0C5A4F5A1C5A5F5A2C5A6F579
:102B6000050120EE20F0BC51D926BD51DA226100CA
:102B700078F372F5610078F373F5610078F374F51A
:102B8000610078F375F5000E826F000E836F000E02
:102B9000846F400E856F20EE0CF0BC51D926BD51DC
:102BA000DA22610078F37EF5610078F37FF5610049
:102BB00078F380F5610078F381F52EEC1CF07EC58A
:102BC0006EF57FC56FF580C570F581C571F56DEC4B
:102BD00017F06EC5A7F56FC5A8F570C5A9F571C545
:102BE000AAF556EC1EF0050120EE2CF0BC51D926BA
:102BF000BD51DA2261008CF6DEF4610090F6DEF45D
:102C0000610094F6DEF4610098F6DEF4000E606F69
:102C1000000E616F000E626F400E636F20EE2CF0AD
:102C2000BC51D926BD51DA22610078F364F5610008
:102C300078F365F5610078F366F5610078F367F580
:102C400091EC2EF00501D8A028EF16F02AEF16F02F
:102C50004EEF16F020EE2CF0BC51D926BD51DA22F1
:102C6000610078F360F5610078F361F5610078F355
:102C700062F5610078F363F5000E646F000E656F16
:102C8000000E666FC00E676F91EC2EF00501D8B094
:102C90004CEF16F04EEF16F05CEF16F020EE24F03D
:102CA000BC51D926BD51DA22000EDE6E000EDE6E5A
:102CB000000EDE6E000EDD6EC6C572F5C7C573F57B
:102CC000C8C574F5C9C575F520EE24F0BC51D926E8
:102CD000BD51DA22610078F36EF5610078F36FF58B
:102CE000610078F370F5610078F371F56DEC17F021
:102CF0006EC5D2F56FC5D3F570C5D4F571C5D5F5E0
:102D0000D2C56EF5D3C56FF5D4C570F5D5C571F5CF
:102D1000050120EE2CF0BC51D926BD51DA2261000C
:102D200078F372F5610078F373F5610078F374F568
:102D3000610078F375F56DEC17F0050120EE34F0C5
:102D4000BC51D926BD51DA226100B8F5DEF461002C
:102D5000BCF5DEF46100C0F5DEF46100C4F5DEF41C
:102D600020EE14F0BC51D926BD51DA22610078F36F
:102D700060F5610078F361F5610078F362F5610058
:102D800078F363F520EE34F0BC51D926BD51DA2238
:102D9000610078F364F5610078F365F5610078F31C
:102DA00066F5610078F367F591EC2EF00501D8B077
:102DB000DCEF16F0DEEF16F0F4EF16F020EE14F074
:102DC000BC51D926BD51DA2210EE34F0BC51E126B7
:102DD000BD51E222DEC4E6F4DEC4E6F4DEC4E6F46D
:102DE000DEC4E6F436EF17F020EE34F0BC51D926FD
:102DF000BD51DA22610078F360F5610078F361F586
:102E0000610078F362F5610078F363F520EE10F06D
:102E1000BC51D926BD51DA22610078F364F5610016
:102E200078F365F5610078F366F5610078F367F58E
:102E300091EC2EF00501D8B020EF17F022EF17F03B
:102E400036EF17F020EE10F0BC51D926BD51DA2232
:102E500010EE34F0BC51E126BD51E222DEC4E6F4AE
:102E6000DEC4E6F4DEC4E6F4DEC4E6F420EE28F0C8
:102E7000BC51D926BD51DA22610078F7DEF4610039
:102E80007CF7DEF4610080F7DEF4610084F7DEF4A5
:102E900020EE30F0BC51D926BD51DA22610008F78E
:102EA000DEF461000CF7DEF4610010F7DEF461007F
:102EB00014F7DEF420EE34F0BC51D926BD51DA22ED
:102EC000610078F3BCF5610078F3BDF5610078F33B
:102ED000BEF5610078F3BFF5120005017151800B5A
:102EE0007A6F715171257C6F70AF79EF17F07BEFBE
:102EF00017F07CEF17F07C817C51D8B482EF17F08B
:102F000084EF17F099EF17F07C29D8A48AEF17F017
:102F10008CEF17F094EF17F0000E6E6F000E6F6FCE
:102F2000000E706F000E716F708F000E716FA1EF49
:102F300017F0000E6E6F000E6F6F000E706F000EB8
:102F4000716F7551800B7B6F7A517B19D8B4ABEFE1
:102F500017F0ADEF17F0AEEF17F07A8D75517525BC
:102F60007B6F74AFB6EF17F0B8EF17F0B9EF17F04B
:102F70007B817B51D8B4BFEF17F0C1EF17F0D6EFCC
:102F800017F07B29D8A4C7EF17F0C9EF17F0D1EFDE
:102F900017F0000E726F000E736F000E746F000E4C
:102FA000756F748F000E756FDEEF17F0000E726F85
:102FB000000E736F000E746F000E756F7C517B5D99
:102FC000D8B0E5EF17F0E7EF17F00EEF18F07AAD95
:102FD000ECEF17F0EEEF17F0F0EF17F0800E7A1B22
:102FE0007CC57DF57BC57CF57DC57BF56EC57DF526
:102FF00072C56EF57DC572F56FC57DF573C56FF54C
:103000007DC573F570C57DF574C570F57DC574F526
:1030100071C57DF575C571F57DC575F5000E7D6FC2
:103020007C517BC576F5776B765F000E775B77BF5B
:1030300023EF18F0775109E11A0E765DD8A023EF3F
:1030400018F025EF18F05CEF18F06E516F11701149
:103050007111D8A42EEF18F031EF18F0010E32EFF5
:1030600018F0000E7D6F000E6E6F000E6F6F000E79
:10307000706F000E716F7BC57CF565EF18F07DA158
:1030800044EF18F046EF18F04CEF18F0D8907D316F
:1030900001097D6F4EEF18F0D8907D336EA153EF8C
:1030A00018F055EF18F056EF18F07D8F7135713329
:1030B00070336F336E337C2B7B517C5DD8A063EF14
:1030C00018F065EF18F03FEF18F07ABD6AEF18F0CE
:1030D0006CEF18F0ACEF18F07C51D8A472EF18F038
:1030E00074EF18F07EEF18F0000E6E6F000E6F6F29
:1030F000000E706F000E716FCDEF19F072516E27D8
:1031000073516F23745170237551712371A18BEF2B
:1031100018F08DEF18F039EF19F07DA192EF18F04B
:1031200094EF18F09AEF18F0D8907D3101097D6F77
:103130009CEF18F0D8907D336EA1A1EF18F0A3EFAB
:1031400018F0A4EF18F07D8F7135713370336F3341
:103150006E337C2B39EF19F072516E5D73516F59DC
:10316000745170597151800A766F7551800A765981
:10317000D8B0BDEF18F0BFEF18F0EAEF18F06E51BD
:10318000725D766F6F517359776F70517459786FA4
:1031900071517559796FFF0E76256E6FFF0E77218D
:1031A0006F6FFF0E7821706FFF0E7921716F800EA7
:1031B0007A1B7D6D7D51D8A4E0EF18F0E2EF18F096
:1031C000F2EF18F0010E6E27000E6F2370237123AB
:1031D000F2EF18F072516E5F73516F5B7451705B58
:1031E0007551715B6E516F1170117111D8A4FBEFA5
:1031F00018F0FDEF18F032EF19F07D51D8A403EF6D
:1032000019F005EF19F032EF19F0000E6E6F000E95
:103210006F6F000E706F000E716FCDEF19F0D890C8
:103220006E376F37703771377DAF19EF19F01BEFBD
:1032300019F01CEF19F06E817DA121EF19F023EF39
:1032400019F027EF19F0D8807D3729EF19F0D890C1
:103250007D377C51D8B42FEF19F031EF19F032EFF0
:1032600019F07C0770AF37EF19F039EF19F00FEF55
:1032700019F0000E7B6F7DAF40EF19F042EF19F0AF
:103280005AEF19F07DC576F57F0E7617D8B44BEF5F
:1032900019F04DEF19F051EF19F0010E7B6F5AEF55
:1032A00019F06EA156EF19F058EF19F05AEF19F016
:1032B0004DEF19F07B51D8B460EF19F062EF19F0BF
:1032C0008DEF19F0010E6E27000E6F23702371230E
:1032D00071A16DEF19F06FEF19F08DEF19F06EC558
:1032E00076F56FC577F570C578F571C579F57935DF
:1032F000793378337733763376C56EF577C56FF5E6
:1033000078C570F579C571F57C29D8B48AEF19F0C4
:103310008CEF19F08DEF19F07C2B7C29D8B493EF4A
:1033200019F095EF19F09DEF19F07C51D8A49BEF9F
:1033300019F09DEF19F0AFEF19F0000E6E6F000E4F
:103340006F6F000E706F000E716F7C51D8A4ABEFE1
:1033500019F0ADEF19F0AFEF19F0000E7A6F7CA104
:10336000B4EF19F0B6EF19F0B9EF19F0708FBAEFAA
:1033700019F0709FD8907C31716F7AAFC2EF19F05D
:10338000C4EF19F0C5EF19F0718F6EC56EF56FC5FA
:103390006FF570C570F571C571F512001250800B94
:1033A0001B6E125012241D6E11AED9EF19F0DBEF17
:1033B00019F0DCEF19F01D801D50D8B4E2EF19F0C0
:1033C000E4EF19F0F9EF19F01D28D8A4EAEF19F08D
:1033D000ECEF19F0F4EF19F0000E0F6E000E106E06
:1033E000000E116E000E126E118E000E126E01EFA5
:1033F0001AF0000E0F6E000E106E000E116E000E11
:10340000126E1650800B1C6E1B501C18D8B40BEF9C
:103410001AF00DEF1AF00EEF1AF01B8C165016244E
:103420001C6E15AE16EF1AF018EF1AF019EF1AF01D
:103430001C801C50D8B41FEF1AF021EF1AF036EFA1
:103440001AF01C28D8A427EF1AF029EF1AF031EF50
:103450001AF0000E136E000E146E000E156E000EA4
:10346000166E158E000E166E3EEF1AF0000E136EDD
:10347000000E146E000E156E000E166E1D501C5CB4
:10348000D8B045EF1AF047EF1AF06EEF1AF01BAC08
:103490004CEF1AF04EEF1AF050EF1AF0800E1B1A94
:1034A0001DC51EF51CC51DF51EC51CF50FC51EF559
:1034B00013C50FF51EC513F510C51EF514C510F57F
:1034C0001EC514F511C51EF515C511F51EC515F55A
:1034D00012C51EF516C512F51EC516F5000E1E6E98
:1034E0001D501CC517F5186A175E000E185A18BE35
:1034F00083EF1AF0185009E11A0E175CD8A083EF79
:103500001AF085EF1AF0BCEF1AF00F5010101110DE
:103510001210D8A48EEF1AF091EF1AF0010E92EF6C
:103520001AF0000E1E6E000E0F6E000E106E000ED2
:10353000116E000E126E1CC51DF5C5EF1AF01EA00F
:10354000A4EF1AF0A6EF1AF0ACEF1AF0D8901E30E4
:1035500001091E6EAEEF1AF0D8901E320FA0B3EF25
:103560001AF0B5EF1AF0B6EF1AF01E8E12341232BE
:10357000113210320F321D2A1C501D5CD8A0C3EF2F
:103580001AF0C5EF1AF09FEF1AF01BBCCAEF1AF041
:10359000CCEF1AF00CEF1BF01D50D8A4D2EF1AF0AC
:1035A000D4EF1AF0DEEF1AF0000E0F6E000E106E60
:1035B000000E116E000E126E2DEF1CF013500F2630
:1035C00014501022155011221650122212A0EBEFA7
:1035D0001AF0EDEF1AF099EF1BF01EA0F2EF1AF0BF
:1035E000F4EF1AF0FAEF1AF0D8901E3001091E6EAF
:1035F000FCEF1AF0D8901E320FA001EF1BF003EF82
:103600001BF004EF1BF01E8E1234123211321032F6
:103610000F321D2A99EF1BF013500F5C14501058F5
:10362000155011581250800A176E1650800A1758FC
:10363000D8B01DEF1BF01FEF1BF04AEF1BF00F502F
:10364000135C176E10501458186E11501558196EDF
:10365000125016581A6EFF0E17240F6EFF0E182008
:10366000106EFF0E1920116EFF0E1A20126E800EC2
:103670001B1A1E6C1E50D8A440EF1BF042EF1BF02B
:1036800052EF1BF0010E0F26000E10221122122203
:1036900052EF1BF013500F5E1450105A1550115A70
:1036A0001650125A0F50101011101210D8A45BEFC0
:1036B0001BF05DEF1BF092EF1BF01E50D8A463EFE0
:1036C0001BF065EF1BF092EF1BF0000E0F6E000E6B
:1036D000106E000E116E000E126E2DEF1CF0D890C1
:1036E0000F361036113612361EAE79EF1BF07BEF17
:1036F0001BF07CEF1BF00F801EA081EF1BF083EF0F
:103700001BF087EF1BF0D8801E3689EF1BF0D89096
:103710001E361D50D8B48FEF1BF091EF1BF092EFC7
:103720001BF01D0611AE97EF1BF099EF1BF06FEF2A
:103730001BF0000E1C6E1EAEA0EF1BF0A2EF1BF0E4
:10374000BAEF1BF01EC517F57F0E1716D8B4ABEFF6
:103750001BF0ADEF1BF0B1EF1BF0010E1C6EBAEFCA
:103760001BF00FA0B6EF1BF0B8EF1BF0BAEF1BF089
:10377000ADEF1BF01C50D8B4C0EF1BF0C2EF1BF034
:10378000EDEF1BF0010E0F26000E10221122122267
:1037900012A0CDEF1BF0CFEF1BF0EDEF1BF00FC52C
:1037A00017F510C518F511C519F512C51AF51A3413
:1037B0001A3219321832173217C50FF518C510F51D
:1037C00019C511F51AC512F51D28D8B4EAEF1BF07A
:1037D000ECEF1BF0EDEF1BF01D2A1D28D8B4F3EF22
:1037E0001BF0F5EF1BF0FDEF1BF01D50D8A4FBEF15
:1037F0001BF0FDEF1BF00FEF1CF0000E0F6E000E24
:10380000106E000E116E000E126E1D50D8A40BEF3C
:103810001CF00DEF1CF00FEF1CF0000E1B6E1DA036
:1038200014EF1CF016EF1CF019EF1CF0118E1AEFBC
:103830001CF0119ED8901D30126E1BAE22EF1CF0B2
:1038400024EF1CF025EF1CF0128E0FC50FF510C5EC
:1038500010F511C511F512C512F5120005018151BF
:10386000800B8A6F81518125906F80AF3AEF1CF0F9
:103870003CEF1CF03DEF1CF090819051D8B443EF29
:103880001CF045EF1CF058EF1CF09029D8A44BEF2A
:103890001CF04DEF1CF055EF1CF0000E7E6F000E7B
:1038A0007F6F000E806F000E816F808F60EF1CF0C5
:1038B000000E7E6F000E7F6F000E806F000E816F16
:1038C0008551800B8A1B855185258F6F84AF6BEFE7
:1038D0001CF06DEF1CF06EEF1CF08F818F51D8B48F
:1038E00074EF1CF076EF1CF089EF1CF08F29D8A440
:1038F0007CEF1CF07EEF1CF086EF1CF0000E826F58
:10390000000E836F000E846F000E856F848F91EF21
:103910001CF0000E826F000E836F000E846F000E8D
:10392000856F8F51D8B497EF1CF099EF1CF0A1EF81
:103930001CF09051D8A49FEF1CF0A1EF1CF0ABEF4E
:103940001CF0000E7E6F000E7F6F000E806F000E69
:10395000816F55EF1EF084517E036100CCF395F525
:103960006100D0F396F595518B6F8C6B8D6B8E6BE0
:103970009651916F926B936B946B83517F036100AF
:10398000CCF395F56100D0F396F595518B27000E99
:103990008C238D238E2396519127000E92239323FF
:1039A0009423825180036100CCF395F56100D0F33C
:1039B00096F595518B27000E8C238D238E239651DF
:1039C0009127000E9223932394238DC58EF58CC5E9
:1039D0008DF58BC58CF58B6B82517F036100CCF329
:1039E00095F56100D0F396F595518B2796518C2370
:1039F000000E8D23000E8E2383517E036100CCF3D5
:103A000095F56100D0F396F595518B2796518C234F
:103A1000000E8D23000E8E238DC58EF58CC58DF581
:103A20008BC58CF58B6B82517E036100CCF395F5D1
:103A30006100D0F396F595518B2796518C23000E9B
:103A40008D23000E8E2384517F036100CCF395F506
:103A50006100D0F396F59551912796519223000E6F
:103A60009323000E9423835180036100CCF395F5DA
:103A70006100D0F396F59551912796519223000E4F
:103A80009323000E9423845180036100CCF395F5B9
:103A90006100D0F396F59551866F9651876F886BCC
:103AA000896B88C589F587C588F586C587F5866BD6
:103AB00086519127875192238851932389519423CA
:103AC0008BC586F58CC587F58DC588F58EC589F5BE
:103AD000190E70EF1DF0D890893388338733863301
:103AE000E82E6BEF1DF08651912787519223885164
:103AF0009323895194238DC58EF58CC58DF58BC587
:103B00008CF58B6B8F5190C586F5876B8627000EE1
:103B10008723820E8625956FFF0E8721966FA6EF6D
:103B20001DF0D89091379237933794378EAF9BEF33
:103B30001DF09DEF1DF09EEF1DF09181D8908B3709
:103B40008C378D378E379507D8A0960793AFABEF9C
:103B50001DF0ADEF1DF091EF1DF0000E8F6F8EAFD9
:103B6000B4EF1DF0B6EF1DF0DAEF1DF0FF0E8B1570
:103B7000866FFF0E8C15876FFF0E8D15886F7F0E79
:103B80008E15896F8651871188118911D8B4CBEFB2
:103B90001DF0CDEF1DF0D1EF1DF0010E8F6FDAEFAC
:103BA0001DF091A1D6EF1DF0D8EF1DF0DAEF1DF05A
:103BB000CDEF1DF08F51D8B4E0EF1DF0E2EF1DF016
:103BC00006EF1EF0010E9127000E922393239423FB
:103BD00094A1EDEF1DF0EFEF1DF006EF1EF091C583
:103BE00086F592C587F593C588F594C589F589351D
:103BF000893388338733863386C591F587C592F537
:103C000088C593F589C594F5954B962B96BF11EF12
:103C10001EF0965108E19529D8A011EF1EF013EF80
:103C20001EF01DEF1EF0000E916F000E926F800EC1
:103C3000936F7F0E946F4BEF1EF096BF2AEF1EF02E
:103C4000965106E19505D8B028EF1EF02AEF1EF038
:103C500036EF1EF0000E916F000E926F000E936F04
:103C6000000E946F000E8A6F4BEF1EF095C590F515
:103C7000FF0E9117FF0E92177F0E9317000E9417E9
:103C800090A145EF1EF047EF1EF048EF1EF0938F16
:103C9000D8909031946F8A51941391C57EF592C556
:103CA0007FF593C580F594C581F512000501A651F5
:103CB000800BB36FA651A625BA6FA5AF62EF1EF0B9
:103CC00064EF1EF065EF1EF0BA81BA51D8B46BEF05
:103CD0001EF06DEF1EF082EF1EF0BA29D8A473EF2C
:103CE0001EF075EF1EF07DEF1EF0000EA36F000EAC
:103CF000A46F000EA56F000EA66FA58F000EA66F15
:103D00008AEF1EF0000EA36F000EA46F000EA56FC9
:103D1000000EA66FAA51800BB31BAA51AA25BB6F38
:103D2000A9AF95EF1EF097EF1EF098EF1EF0BB8144
:103D3000BB51D8B49EEF1EF0A0EF1EF0B5EF1EF001
:103D4000BB29D8A4A6EF1EF0A8EF1EF0B0EF1EF01E
:103D5000000EA76F000EA86F000EA96F000EAA6FCD
:103D6000A98F000EAA6FBDEF1EF0000EA76F000E08
:103D7000A86F000EA96F000EAA6FA751A811A91174
:103D8000AA11D8A4C6EF1EF0C8EF1EF0E0EF1EF097
:103D9000000EA36F000EA46F000EA56F000EA66F9D
:103DA000800EA5137F0EA613B351A613A3C5A3F5CA
:103DB000A4C5A4F5A5C5A5F5A6C5A6F523EF20F0D5
:103DC000BA51D8A4E6EF1EF0E8EF1EF0F2EF1EF0B5
:103DD000000EA36F000EA46F000EA56F000EA66F5D
:103DE00023EF20F0BB51BAC5ABF5AC6BAB5F000E57
:103DF000AC5B7F0EAB25B46F000EAC21B56FA3C5D5
:103E0000AFF5A4C5B0F5A5C5B1F5A6C5B2F5000ED0
:103E1000A36F000EA46F000EA56F000EA66F000E1C
:103E2000B66F000EB76F000EB86F000EB96F000EC0
:103E3000BB6F53EF1FF0BB51D8B421EF1FF023EF3E
:103E40001FF03AEF1FF0D890AF37B037B137B23725
:103E5000D890A337A437A537A637B9AF32EF1FF0F4
:103E600034EF1FF035EF1FF0A381D890B637B73786
:103E7000B837B937A751AF5DA851B059A951B15959
:103E8000AA51B259D8A047EF1FF049EF1FF052EFE7
:103E90001FF0B98DA751AF5FA851B05BA951B15BBD
:103EA000AA51B25BBB2B190EBB6559EF1FF05BEF3C
:103EB0001FF01BEF1FF0AF51B011B111B211D8B408
:103EC00064EF1FF066EF1FF07EEF1FF0B6817EEF0C
:103ED0001FF0D890A337A437A537A637B9AF73EF33
:103EE0001FF075EF1FF076EF1FF0A381D890B63763
:103EF000B737B837B937B407D8A0B507A5AF83EF40
:103F00001FF085EF1FF069EF1FF0000EBB6FB9AF18
:103F10008CEF1FF08EEF1FF0B2EF1FF0FF0EB61503
:103F2000AB6FFF0EB715AC6FFF0EB815AD6F7F0E00
:103F3000B915AE6FAB51AC11AD11AE11D8B4A3EF42
:103F40001FF0A5EF1FF0A9EF1FF0010EBB6FB2EF3E
:103F50001FF0A3A1AEEF1FF0B0EF1FF0B2EF1FF004
:103F6000A5EF1FF0BB51D8B4B8EF1FF0BAEF1FF0A8
:103F7000DEEF1FF0010EA327000EA423A523A62326
:103F8000A6A1C5EF1FF0C7EF1FF0DEEF1FF0A3C51E
:103F9000ABF5A4C5ACF5A5C5ADF5A6C5AEF5AE357A
:103FA000AE33AD33AC33AB33ABC5A3F5ACC5A4F581
:103FB000ADC5A5F5AEC5A6F5B44BB52BB5BFE9EFBC
:103FC0001FF0B55108E1B429D8A0E9EF1FF0EBEFDD
:103FD0001FF0F6EF1FF0000EB56FB469000EA36F6F
:103FE000000EA46F000EA56F000EA66FB5BF03EF05
:103FF00020F0B55106E1B405D8B001EF20F003EF91
:1040000020F011EF20F0000EB56F000EB46F000E1F
:10401000A36F000EA46F000EA56F000EA66F000E1A
:10402000B36FB4C5BAF5BAA118EF20F01AEF20F0BB
:104030001DEF20F0A58F1EEF20F0A59FD890BA317C
:10404000A66FD4EF1EF01200010E0501976F6100FC
:10405000F8F5D9F46100FCF5DAF4DF50836F83C51D
:1040600084F5856B866B876B7A51845D7B518559AE
:104070007C5186598751800A886F7D51800A885902
:10408000D8A045EF20F047EF20F054EF20F061007A
:1040900000F6D9F4610004F6DAF4DF50836F83513F
:1040A0007A6F7B6B9FEF21F082517E25836F000E2C
:1040B0007F21846FFF0E8325D96EFF0E8421DA6E77
:1040C000DF50856F85C586F5876B886B896B865158
:1040D0007A5D87517B5988517C597D51800A8A6F5E
:1040E0008951800A8A59D8A078EF20F07AEF20F021
:1040F0008EEF20F082518025836F000E8121846F26
:10410000FF0E8325D96EFF0E8421DA6EDF50856F96
:1041100085517A6F7B6B9FEF21F0972B97517E250E
:10412000D96E000E7F21DA6EDF50836F83C584F570
:10413000856B866B876B7A51845D7B5185597C5189
:1041400086598751800A886F7D51800A8859D8A086
:10415000ACEF20F0AEEF20F08DEF20F097517E25F0
:10416000D96E000E7F21DA6EDF50836F83C584F530
:10417000856B866B876B7A5184190DE17B518519AC
:104180000AE17C51861907E17D518719D8A4CBEF4C
:1041900020F0CDEF20F0DAEF20F097518025D96E96
:1041A000000E8121DA6EDF50836F83517A6F7B6B53
:1041B0009FEF21F097517E25836F000E7F21846F42
:1041C000FF0E8325D96EFF0E8421DA6EDF50856FD6
:1041D00085517A5D606F000E7B59616F000E7C59CE
:1041E000626F000E7D59636F97518025D96E000E66
:1041F0008121DA6EDF50866F876B97518025886F3B
:10420000000E8121896FFF0E8825D96EFF0E89214E
:10421000DA6EDF508A6F8A51865F000E875B86C533
:1042200064F587C565F5000E65BFFF0E666F676FA5
:1042300072EC39F060C56CF561C56DF562C56EF55F
:1042400063C56FF5050197517E25D96E000E7F215C
:10425000DA6EDF508B6F8C6B97517E258D6F000E61
:104260007F218E6FFF0E8D25D96EFF0E8E21DA6EA7
:10427000DF508F6F8F518B5F000E8C5B8BC570F59D
:104280008CC571F5000E71BFFF0E726F736F00EC7D
:104290002DF0050197518025906F000E8121916FBF
:1042A000FF0E9025D96EFF0E9121DA6EDF50926FCE
:1042B00092516C25936F000E6D21946F000E6E214C
:1042C000956F000E6F21966F96BF6BEF21F069EF2F
:1042D00021F078EF21F0610000F6D9F4610004F6D6
:1042E000DAF4DF50836F8351936F946B956B966B09
:1042F00096BF86EF21F096519511941109E1650E54
:10430000935DD8A086EF21F088EF21F09BEF21F09C
:1043100082518025836F000E8121846FFF0E8325DB
:10432000D96EFF0E8421DA6EDF50856F8551936F51
:10433000946B956B966B93C57AF594C57BF51200DB
:10434000010E386E61007CF4D9F4610080F4DAF477
:10435000DF50246E24C525F5266A276A286A1B507B
:10436000255C1C5026581D5027582850800A296E5D
:104370001E50800A2958D8A0C0EF21F0C2EF21F0CA
:10438000CFEF21F0610084F4D9F4610088F4DAF40D
:10439000DF50246E24501B6E1C6A18EF23F023504C
:1043A0001F24246E000E2020256EFF0E2424D96EBB
:1043B000FF0E2520DA6EDF50266E26C527F5286A07
:1043C000296A2A6A27501B5C28501C5829501D58FE
:1043D0001E50800A2B6E2A50800A2B58D8A0F3EF6B
:1043E00021F0F5EF21F009EF22F023502124246E73
:1043F000000E2220256EFF0E2424D96EFF0E2520EC
:10440000DA6EDF50266E26501B6E1C6A18EF23F002
:10441000382A38501F24D96E000E2020DA6EDF5063
:10442000246E24C525F5266A276A286A1B50255C58
:104430001C5026581D5027582850800A296E1E509F
:10444000800A2958D8A027EF22F029EF22F008EFA0
:1044500022F038501F24D96E000E2020DA6EDF5073
:10446000246E24C525F5266A276A286A1B5025185C
:104470000DE11C5026180AE11D50271807E11E50B7
:104480002818D8A446EF22F048EF22F055EF22F08A
:1044900038502124D96E000E2220DA6EDF50246EAF
:1044A00024501B6E1C6A18EF23F038501F24246E12
:1044B000000E2020256EFF0E2424D96EFF0E25202D
:1044C000DA6EDF50266E26501B5C016E000E1C5803
:1044D000026E000E1D58036E000E1E58046E3850FA
:1044E0002124D96E000E2220DA6EDF50276E286A52
:1044F00038502124296E000E22202A6EFF0E292416
:10450000D96EFF0E2A20DA6EDF502B6E2B50275EFD
:10451000000E285A27C505F528C506F5000E06BE6B
:10452000FF0E076E086EA8EC39F001C50DF502C547
:104530000EF503C50FF504C510F538501F24D96ECC
:10454000000E2020DA6EDF502C6E2D6A38501F24AA
:104550002E6E000E20202F6EFF0E2E24D96EFF0E21
:104560002F20DA6EDF50306E30502C5E000E2D5A48
:104570002CC511F52DC512F5000E12BEFF0E136EDF
:10458000146E87EC2DF038502124316E000E22205D
:10459000326EFF0E3124D96EFF0E3220DA6EDF50FC
:1045A000336E33500D24346E000E0E20356E000E27
:1045B0000F20366E000E1020376E37BEE4EF22F06B
:1045C000E2EF22F0F1EF22F0610084F4D9F461000F
:1045D00088F4DAF4DF50246E2450346E356A366A7B
:1045E000376A37BEFFEF22F037503610351009E139
:1045F000650E345CD8A0FFEF22F001EF23F014EF3A
:1046000023F023502124246E000E2220256EFF0E5D
:104610002424D96EFF0E2520DA6EDF50266E265038
:10462000346E356A366A376A34C51BF535C51CF5F4
:104630001200610038F4D9F461003CF4DAF461004E
:1046400078F314F5610078F315F5610078F316F549
:10465000610078F317F520EE04F00E50D9260F50C4
:10466000DA22DFA036EF23F038EF23F072EF23F0E9
:1046700020EE01F00C50D9260D50DA221438E84211
:10468000F80BF80BDF6E050E106ED890173216324D
:1046900015321432102E45EF23F020EE02F00C50AC
:1046A000D9260D50DA22610050F4DFF415C514F557
:1046B00016C515F517C516F5176A20EE03F00C5050
:1046C000D9260D50DA2214501F0BDF6E050E106E26
:1046D000D8901732163215321432102E68EF23F0AC
:1046E0008AEF23F020EE03F00C50D9260D50DA2289
:1046F000000EDF6E10EE02F00C50E1260D50E222AB
:10470000DFC4E7F420EE01F00C50D9260D50DA2278
:10471000E7C4DFF4610030F4D9F4610034F4DAF472
:10472000610050F4DFF415C514F516C515F517C56D
:1047300016F5176A14C510F5070E101620EE01F0D5
:104740000C50D9260D50DA221050DF1220EE04F062
:104750000E50D9260F50DA22DF30E8320F0B136EDD
:1047600020EE04F00E50D9260F50DA22DFB0BBEF56
:1047700023F0BFEF23F0106A102AC0EF23F0106A75
:104780001038F00B131220EE04F00E50D9260F5003
:10479000DA22DFB2CEEF23F0D2EF23F0200E106E3C
:1047A000D3EF23F0106A1050131220EE04F00E50D5
:1047B000D9260F50DA22DFBEE0EF23F0E4EF23F03A
:1047C000400E106EE5EF23F0106A1050131220EE29
:1047D00004F00E50D9260F50DA22DFBCF2EF23F09E
:1047E000F6EF23F0800E106EF7EF23F0106A1050F2
:1047F000131220EE04F00C50D9260D50DA2261007D
:104800004CF4DFF420EE04F00E50D9260F50DA22DB
:10481000DFB20DEF24F00FEF24F03BEF24F0080E91
:104820000C24016E000E0D20026E20EE05F00E50DD
:10483000D9260F50DA22610078F303F5610074F392
:1048400004F520EE04F00E50D9260F50DA22DF30A6
:10485000E8320F0B106E116A270E1024F66E260E2A
:104860001120F76EF86A000EF8220800F550056E68
:10487000066A69EC3AF0120020EE04F00C50D926DA
:104880000D50DA22DF50176E17C510F520EE04F038
:104890000E50D9260F50DA2210461046DF5010185D
:1048A000C30B1018DF6E17B858EF24F05CEF24F03C
:1048B000106A102A5DEF24F0106A20EE04F00E500A
:1048C000D9260F50DA22DF501018FE0B1018DF6EB9
:1048D00017BA6DEF24F071EF24F0106A102A72EF0E
:1048E00024F0106A20EE04F00E50D9260F50DA2280
:1048F0001046DF501018FD0B1018DF6E17BC83EF49
:1049000024F087EF24F0106A102A88EF24F0106A50
:1049100020EE04F00E50D9260F50DA221032103259
:10492000DF5010187F0B1018DF6E17BE9AEF24F0BF
:104930009EEF24F0106A102A9FEF24F0106A20EEF8
:1049400004F00E50D9260F50DA22103A10461046C5
:10495000DF501018BF0B1018DF6E20EE01F00C5066
:10496000D9260D50DA22DF50106E070E10161050A7
:10497000136E146A156A166A15C516F514C515F571
:1049800013C514F5136A610030F4D9F4610034F4EE
:10499000DAF4DF50106E1050131220EE04F00E50B7
:1049A000D9260F50DA22DFA0D8EF24F0DAEF24F076
:1049B0001BEF25F0050ED890133614361536163633
:1049C000E82EDBEF24F020EE03F00C50D9260D503A
:1049D000DA22DF50106E1F0E10161050131215C57C
:1049E00016F514C515F513C514F5136A20EE02F07B
:1049F0000C50D9260D50DA22DF50106E10501312D1
:104A0000050ED8901336143615361636E82E01EFFB
:104A100025F020EE01F00C50D9260D50DA22DF509F
:104A2000106ED8901032D8901032D89010321F0EDD
:104A3000101610501312610038F4D9F461003CF4E0
:104A4000DAF461004CF4DEF4610050F4DEF461004D
:104A500054F4DEF4610058F4DEF49D0E016E060E8F
:104A6000026E080E0C24036E000E0D20046E20EE64
:104A700004F00E50D9260F50DA22DF30E8320F0B47
:104A8000106E116A270E1024F66E260E1120F76E96
:104A9000F86A000EF8220800F550056E066A69EC07
:104AA0003AF020EE05F00E50D9260F50DA229D0E76
:104AB000DE6E060EDD6E1200020E0301F96F3F0E70
:104AC000FA6F000ED86F000EFB6F000ED96F000E4C
:104AD000DA6F000EDB6F000EDC6F000EDF6F000E72
:104AE000E06F000EE36F000EE46F000EE56F000E46
:104AF000E66F000EE76F000EEA6F000EEB6F100E10
:104B0000EC6FE80EEE6F030EEF6F000EF06F000E0D
:104B1000F16F000EF26F000EF36F000EF46F100EC7
:104B2000F56F000EF66F000EF76F000EF86F000EB7
:104B3000FC6F010EFB6F000ED96F000EDA6F000ED6
:104B4000DB6F000EDC6F000EDF6F000EE06F000EFB
:104B5000E36F000EE46F000EE56F000EE66F000ECF
:104B6000E76F000EEA6F000EEB6F040EEC6FE80EBD
:104B7000EE6F030EEF6F000EF06F000EF16F000E80
:104B8000F26F000EF36F000EF46F100EF56F000E53
:104B9000F66F000EF76F000EF86F000EFD6F020E3D
:104BA000FB6F000ED96F000EDA6F000EDB6F000E88
:104BB000DC6F000EDF6F000EE06F000EE36F000E83
:104BC000E46F000EE56F000EE66F000EE76F000E5B
:104BD000EA6F000EEB6F120EEC6FE80EEE6F030E35
:104BE000EF6F000EF06F000EF16F000EF26F000E0F
:104BF000F36F000EF46F100EF56F000EF66F000EDF
:104C0000F76F000EF86F000EFE6F030EFB6F000EC5
:104C1000D96F000EDA6F000EDB6F000EDC6F000E36
:104C2000DF6F000EE06F000EE36F000EE46F000E0A
:104C3000E56F000EE66F000EE76F000EEA6F000EE4
:104C4000EB6F110EEC6FE80EEE6F030EEF6F000EC0
:104C5000F06F000EF16F000EF26F000EF36F000E9A
:104C6000F46F100EF56F000EF66F000EF76F000E6A
:104C7000F86F000EFF6FAF94AF96B090B092B09403
:104C8000B096000E0501606F000E616FB3EC3EF050
:104C9000000E0501606F000E616FA9EC3EF0000E82
:104CA0000501606F000E616FA4EC3EF0000E05017F
:104CB000606F000E616F9FEC3EF0000E0501606FAB
:104CC000000E616F9AEC3EF0000E0501606F000E61
:104CD000616FAEEC3EF0840E0301F36F12000DEC39
:104CE00034F00009D8B477EF26F079EF26F075EFAD
:104CF00027F0AD0E226E060E236E96EC3AF0E80613
:104D0000D8A485EF26F087EF26F075EF27F000F0A6
:104D1000ADC63BF5AEC63CF5AFC63DF5B0C63EF5FB
:104D20006100C8FAD9F46100CCFADAF4DF50466EBB
:104D3000060120EE01F0B251D926B351DA22DF503C
:104D4000456E20EE02F0B251D926B351DA22DF507F
:104D5000426E20EE03F0B251D926B351DA22DF5071
:104D6000436E20EE04F0B251D926B351DA22DF505F
:104D7000446E20EE05F0B251D926B351DA22DF504D
:104D80003F6E20EE06F0B251D926B351DA22DF5041
:104D9000406E20EE07F0B251D926B351DA22DF502F
:104DA000416E2FEF27F046C599F645C598F642C5E6
:104DB00096F643C595F644C594F60501FC05D8A4BE
:104DC000E4EF26F0E6EF26F075EF27F0010E06017E
:104DD000976F75EF27F04650070B936F4650180BEF
:104DE000926F4650E00B916F4550010B906F45500C
:104DF000060B8F6F4550780B8E6F75EF27F046C509
:104E00008CF645C58BF642C58AF643C589F644C57E
:104E100088F63FC587F640C586F641C585F675EF2D
:104E200027F046C5FCF50501FC510BEC3BF075EF96
:104E300027F046C582F60501FC51D8A422EF27F0E1
:104E400024EF27F075EF27F0000E336E0601825134
:104E5000E1EC35F075EF27F000F075EF27F03BC57A
:104E600035F53CC536F53DC537F53EC538F5385006
:104E7000000AD8B46EEF27F02CEF27F03650030A63
:104E8000D8B44DEF27F0070AD8B458EF27F0010A3D
:104E9000D8B45FEF27F02CEF27F03550200AD8B4B4
:104EA000D3EF26F0670AD8B411EF27F02CEF27F0E4
:104EB0003550120AD8B419EF27F02CEF27F03550EF
:104EC000000AD8B4EBEF26F0010AD8B4FFEF26F0C1
:104ED000030AD8B475EF27F02CEF27F03750000AFB
:104EE000D8B43EEF27F02CEF27F012004DC57AF52D
:104EF0004EC57BF505017C6B7D6BD20E7E6F060E79
:104F00007F6FBD0E806F060E816F150E826F24ECD1
:104F100020F07AC551F57BC552F54BC57AF54CC5E5
:104F20007BF505017C6B7D6B4D0E7E6F070E7F6FF1
:104F3000380E806F070E816F150E826F24EC20F003
:104F40007AC54FF57BC550F54F5051240501986F38
:104F500050505220996FD89099319A6F983106012C
:104F60004A6F9AC54BF600F0050E4D240501986F67
:104F7000000E4E20996F9A6B9B6B0601285105011C
:104F8000985D060129510501995906012A5105012B
:104F90009A599B51800A9C6F06012B51800A05018A
:104FA0009C59D8A0D6EF27F0D8EF27F0F9EF27F0DB
:104FB000FB0E4D24986FFF0E4E20996F9A6B9B6BE2
:104FC00098510601285D05019951060129590501ED
:104FD0009A5106012A592B51800A05019C6F9B5159
:104FE000800A9C59D8B0F7EF27F0F9EF27F0FCEFD3
:104FF00027F05980FEEF27F0FE0E5912050E4B24C4
:10500000986F000E4C20996F9A6B9B6B0601245190
:105010000501985D060125510501995906012651A2
:1050200005019A599B51800A9C6F06012751800AFD
:1050300005019C59D8A01FEF28F021EF28F042EF7E
:1050400028F0FB0E4B24986FFF0E4C20996F9A6B43
:105050009B6B98510601245D050199510601255964
:1050600005019A51060126592751800A05019C6FB6
:105070009B51800A9C59D8B040EF28F042EF28F0AD
:1050800045EF28F0598247EF28F0FD0E5912050E22
:10509000FB19D8A44EEF28F050EF28F053EF28F07A
:1050A00059846CEF28F0090EFB19D8A45AEF28F0A8
:1050B0005CEF28F05FEF28F059946CEF28F0060EB3
:1050C000FB19D8A466EF28F068EF28F06AEF28F003
:1050D0005CEF28F050EF28F012000501686F050121
:1050E0006851D8B476EF28F078EF28F09AEF28F0DE
:1050F00063BF7FEF28F07DEF28F09AEF28F060C5BE
:1051000064F561C565F562C566F563C567F5641F3D
:10511000651F661F671F642B000E652366236723C8
:1051200064C56AF565C56BF566C56CF567C56DF553
:10513000A2EF28F060C56AF561C56BF562C56CF534
:1051400063C56DF56051611162116311D8A4ABEFB5
:1051500028F0ADEF28F0B7EF28F0000E606F000EDA
:10516000616F000E626F000E636F48EF29F0960EBC
:10517000696FC1EF28F0692BD8906D336C336B33B6
:105180006A33000E6A15646F000E6B15656F000EB2
:105190006C15666FFE0E6D15676F645165116611B3
:1051A0006711D8A4D6EF28F0D8EF28F0BBEF28F08D
:1051B000E6EF28F0692B010E6A27000E6B236C23A3
:1051C0006D23D8906D336C336B336A33000E6A15E0
:1051D000646F000E6B15656F000E6C15666FFF0E29
:1051E0006D15676F6451651166116711D8A4FBEFE7
:1051F00028F0FDEF28F0DAEF28F005EF29F0690735
:10520000D8906A376B376C376D376CBF0AEF29F06F
:105210000CEF29F014EF29F0020E696112EF29F06A
:1052200014EF29F0FFEF28F069B119EF29F01BEF17
:1052300029F01CEF29F06C9FD890693369C564F59B
:10524000656B666B676B64C567F5666B656B646BF6
:1052500064516A1365516B1366516C1367516D137A
:105260006851D8B436EF29F038EF29F040EF29F033
:1052700063BF3FEF29F03DEF29F040EF29F06D8F3C
:105280006AC560F56BC561F56CC562F56DC563F502
:105290001200096E0950D8B450EF29F052EF29F0EE
:1052A00074EF29F004BE59EF29F057EF29F074EF9D
:1052B00029F001C505F502C506F503C507F504C5C6
:1052C00008F5051E061E071E081E052A000E0622EA
:1052D0000722082205C50BF506C50CF507C50DF517
:1052E00008C50EF57CEF29F001C50BF502C50CF5DC
:1052F00003C50DF504C50EF501500210031004108E
:10530000D8A485EF29F087EF29F091EF29F0000E5E
:10531000016E000E026E000E036E000E046E22EF90
:105320002AF0960E0A6E9BEF29F00A2AD8900E32C8
:105330000D320C320B32000E0B14056E000E0C14E5
:10534000066E000E0D14076EFE0E0E14086E05504C
:10535000061007100810D8A4B0EF29F0B2EF29F01A
:1053600095EF29F0C0EF29F00A2A010E0B26000E56
:105370000C220D220E22D8900E320D320C320B323E
:10538000000E0B14056E000E0C14066E000E0D14AC
:10539000076EFF0E0E14086E055006100710081059
:1053A000D8A4D5EF29F0D7EF29F0B4EF29F0DFEF3B
:1053B00029F00A06D8900B360C360D360E360DBE87
:1053C000E4EF29F0E6EF29F0EEEF29F0020E0A6093
:1053D000ECEF29F0EEEF29F0D9EF29F00AB0F3EF66
:1053E00029F0F5EF29F0F6EF29F00D9ED8900A325A
:1053F0000AC505F5066A076A086A05C508F5076A59
:10540000066A056A05500B1206500C1207500D1261
:1054100008500E120950D8B410EF2AF012EF2AF0FB
:105420001AEF2AF004BE19EF2AF017EF2AF01AEF4C
:105430002AF00E8E0BC501F50CC502F50DC503F55E
:105440000EC504F512004DC51BF54EC51CF51D6AB1
:105450001E6AD20E1F6E060E206EBD0E216E060E47
:10546000226E150E236EA0EC21F01BC551F51CC554
:1054700052F54BC51BF54CC51CF51D6A1E6A4D0E39
:105480001F6E070E206E380E216E070E226E150E4F
:10549000236EA0EC21F01BC54FF51CC550F54F50F5
:1054A0005124396E505052203A6ED8903A303B6EAB
:1054B000393006014A6F3BC54BF600F0050E4D240E
:1054C000396E000E4E203A6E3B6A3C6A0601285146
:1054D000395C29513A582A513B583C50800A3D6E5C
:1054E0002B51800A3D58D8A078EF2AF07AEF2AF0A5
:1054F00095EF2AF0FB0E4D24396EFF0E4E203A6ECA
:105500003B6A3C6A3950285D3A5029593B502A5928
:105510002B51800A3D6E3C50800A3D58D8B093EF25
:105520002AF095EF2AF098EF2AF059809AEF2AF0A6
:10553000FE0E5912050E4B24396E000E4C203A6EA9
:105540003B6A3C6A2451395C25513A5826513B58F4
:105550003C50800A3D6E2751800A3D58D8A0B3EFD9
:105560002AF0B5EF2AF0D0EF2AF0FB0E4B24396E6B
:10557000FF0E4C203A6E3B6A3C6A3950245D3A502B
:1055800025593B5026592751800A3D6E3C50800AD0
:105590003D58D8B0CEEF2AF0D0EF2AF0D3EF2AF062
:1055A0005982D5EF2AF0FD0E5912050E0501FB199F
:1055B000D8A4DDEF2AF0DFEF2AF0E2EF2AF05984D9
:1055C000FBEF2AF0090EFB19D8A4E9EF2AF0EBEF64
:1055D0002AF0EEEF2AF05994FBEF2AF0060EFB19A1
:1055E000D8A4F5EF2AF0F7EF2AF0F9EF2AF0EBEF65
:1055F0002AF0DFEF2AF012000501F96F4AC660F5C4
:105600000501F951D4EC3EF05B04D8A40AEF2BF06D
:105610000CEF2BF0B1EF2BF00601BC05D8A413EF73
:105620002BF015EF2BF0B1EF2BF0F9C534F6356BFD
:105630000501FC51F619D8A420EF2BF022EF2BF036
:10564000BCEF2BF0FC05D8A428EF2BF02AEF2BF0B1
:105650006EEF2BF04AC660F54BC661F5626B636B6B
:10566000000E6DEC28F060C5C2F561C5C3F562C5DA
:10567000C4F563C5C5F50501F951606F616B626BD7
:10568000636B000E6DEC28F060C5BEF561C5BFF51B
:1056900062C5C0F563C5C1F5000E0501BC6F070EFC
:1056A000BD6F5EEC13F0BCC5E2F5BDC5E3F5BEC54C
:1056B000E4F5BFC5E5F50DEC2EF0E2C5F7F5E3C561
:1056C000F8F5F7C5ECF5F8C5EDF5020E0501EF6F3D
:1056D000580EEE6F97EC2FF0BCEF2BF0FC51D8A4D6
:1056E00074EF2BF076EF2BF0AFEF2BF04AC660F59E
:1056F0004BC661F5626B636B000E6DEC28F060C504
:10570000C2F561C5C3F562C5C4F563C5C5F505013C
:10571000F951606F616B626B636B000E6DEC28F08A
:1057200060C5BEF561C5BFF562C5C0F563C5C1F50D
:10573000000E0501BC6F070EBD6F5EEC13F0BCC51B
:10574000E2F5BDC5E3F5BEC5E4F5BFC5E5F50DEC75
:105750002EF0E2C5F7F5E3C5F8F561EF2BF0BCEFED
:105760002BF0000E0501ED6F000EEC6F020EEF6FD7
:10577000580EEE6F97EC2FF0120001011DAFC3EF32
:105780002BF0C5EF2BF0D4EF2BF002D8D2EF2BF09B
:105790000500FA6E06017251FD6E7351FE6EFF6ACE
:1057A000FA50120001011D9F1DADD9EF2BF0DBEF68
:1057B0002BF0EAEF2BF002D8E8EF2BF00500FA6EA1
:1057C00006017051FD6E7151FE6EFF6AFA501200B3
:1057D00001011D9D1DABEFEF2BF0F1EF2BF000EF62
:1057E0002CF002D8FEEF2BF00500FA6E06016E5188
:1057F000FD6E6F51FE6EFF6AFA50120001011D9B93
:105800001CA705EF2CF007EF2CF016EF2CF002D8B8
:1058100014EF2CF00500FA6E06016C51FD6E6D510F
:10582000FE6EFF6AFA50120001011C971DA91BEFC2
:105830002CF01DEF2CF02CEF2CF002D82AEF2CF0DE
:105840000500FA6E06016A51FD6E6B51FE6EFF6A2D
:10585000FA50120001011D991DA531EF2CF033EF14
:105860002CF049EF2CF002D840EF2CF00500FA6E36
:1058700006016851FD6E6951FE6EFF6AFA50120012
:10588000010154A946EF2CF048EF2CF049EF2CF021
:1058900054991DA74EEF2CF050EF2CF066EF2CF032
:1058A00002D85DEF2CF00500FA6E06016651FD6E20
:1058B0006751FE6EFF6AFA501200010160A763EFA4
:1058C0002CF065EF2CF066EF2CF06097AE9C120088
:1058D0000501696FABEF2CF0C2EC3EF0000E27EC37
:1058E0003EF0100E4CEC3BF060C56AF561C56BF5FF
:1058F000010E05016C6FC9EF2CF0C2EC3EF0010EF9
:1059000027EC3EF0040E4CEC3BF060C56AF561C537
:105910006BF578EF2CF0C2EC3EF0020E27EC3EF077
:10592000120E4CEC3BF060C56AF561C56BF578EF83
:105930002CF0C2EC3EF0030E27EC3EF0110E4CECC6
:105940003BF060C56AF561C56BF578EF2CF0020E8F
:105950006C6FC9EF2CF005016951676F686B685176
:10596000000AD8B4B6EF2CF0A7EF2CF06751010A6B
:10597000D8B48BEF2CF0030AD8B499EF2CF0010ABD
:10598000D8B46CEF2CF0070AD8B47DEF2CF0A7EF59
:105990002CF06C05D8A4CFEF2CF0D1EF2CF0FFEF5A
:1059A0002CF06B5107E1070E6A5DD8B0DAEF2CF0EE
:1059B000DCEF2CF0E2EF2CF0000E6E6F000E6D6F3E
:1059C000ECEF2CF06AC56DF56BC56EF5FB0E6D2521
:1059D0006D6FFF0E6E216E6F890E6D5D130E6E5929
:1059E000D8A0F5EF2CF0F7EF2CF0F9EF2CF0FFEF4B
:1059F0002CF06DC565F56EC566F5FFEF2CF0120055
:105A0000000E0501756F73BF0AEF2DF008EF2DF042
:105A100014EF2DF0731F721F711F706D000E712334
:105A200072237323010E756F6FBF1BEF2DF019EFFB
:105A30002DF025EF2DF06F1F6E1F6D1F6C6D000E8A
:105A40006D236E236F23010E751B000E766F000E03
:105A5000776F000E786F000E796F705171117211AF
:105A60007311D8B436EF2DF038EF2DF06EEF2DF026
:105A7000010E746F42EF2DF0D89070377137723786
:105A80007337742B73AF47EF2DF049EF2DF03CEFD8
:105A90002DF0D890763777377837793770516C5D3D
:105AA00071516D5972516E5973516F59D8A05BEF96
:105AB0002DF05DEF2DF066EF2DF070516C5F7151A0
:105AC0006D5B72516E5B73516F5B7681D8907333EF
:105AD000723371337033742F49EF2DF07551D8B490
:105AE00074EF2DF076EF2DF07EEF2DF0791F781FFB
:105AF000771F766D000E77237823792376C56CF5B2
:105B000077C56DF578C56EF579C56FF51200000E95
:105B1000166E14BE90EF2DF08EEF2DF09AEF2DF053
:105B2000141E131E121E116C000E122213221422B8
:105B3000010E166E10BEA1EF2DF09FEF2DF0ABEF12
:105B40002DF0101E0F1E0E1E0D6C000E0E220F22C9
:105B50001022010E161A000E176E000E186E000E9F
:105B6000196E000E1A6E1150121013101410D8B4C2
:105B7000BCEF2DF0BEEF2DF0F4EF2DF0010E156E01
:105B8000C8EF2DF0D8901136123613361436152A78
:105B900014AECDEF2DF0CFEF2DF0C2EF2DF0D89059
:105BA0001736183619361A3611500D5C12500E5829
:105BB00013500F5814501058D8A0E1EF2DF0E3EF18
:105BC0002DF0ECEF2DF011500D5E12500E5A1350C7
:105BD0000F5A1450105A1780D890143213321232C0
:105BE0001132152ECFEF2DF01650D8B4FAEF2DF05C
:105BF000FCEF2DF004EF2EF01A1E191E181E176C64
:105C0000000E182219221A2217C50DF518C50EF517
:105C100019C50FF51AC510F512000501E435E53573
:105C2000EB6FEB51D8A417EF2EF019EF2EF023EF06
:105C30002EF0000EE26F000EE36F000EE46F000E18
:105C4000E56F90EF2EF0E2C5E6F5E3C5E7F5E4C5B4
:105C5000E8F5E5C5E9F5200E33EF2EF0D890E933ED
:105C6000E833E733E633E82E2EEF2EF0E651EA6F05
:105C7000E48FFF0EE217FF0EE317FF0EE417000E8E
:105C8000E517960EEB5FEBBF4AEF2EF048EF2EF0D4
:105C900060EF2EF0EB51800A970FD8B052EF2EF044
:105CA00054EF2EF056EF2EF019EF2EF0D890E5338A
:105CB000E433E333E233EB3F56EF2EF078EF2EF090
:105CC0001F0EEB6566EF2EF068EF2EF070EF2EF0F2
:105CD00019EF2EF0D890E237E337E437E537EB07DA
:105CE000EB51D8A476EF2EF078EF2EF06AEF2EF07D
:105CF000EA51D8B47EEF2EF080EF2EF088EF2EF030
:105D0000E51FE41FE31FE26D000EE323E423E52318
:105D1000E2C5E2F5E3C5E3F5E4C5E4F5E5C5E5F57F
:105D20001200000E05016015686F000E6115696FA5
:105D3000800E62156A6F7F0E63156B6F6851691173
:105D40006A116B11D8A4A7EF2EF0A9EF2EF0B1EFD6
:105D50002EF0000E606F000E616F000E626F000E7D
:105D6000636F000E6415686F000E6515696F800E15
:105D700066156A6F7F0E67156B6F685169116A113E
:105D80006B11D8A4C6EF2EF0C8EF2EF0D0EF2EF096
:105D9000000E646F000E656F000E666F000E676F79
:105DA00063AFD5EF2EF0D7EF2EF0E0EF2EF0606D61
:105DB000611FD8B0612B621FD8B0622B800E635771
:105DC00067AFE5EF2EF0E7EF2EF0F0EF2EF0646D09
:105DD000651FD8B0652B661FD8B0662B800E67573D
:105DE000000E601B000E611B000E621B800E631B09
:105DF000000E641B000E651B000E661B800E671BE9
:105E00006451605D655161596651625967516359CA
:105E1000D8B00DEF2FF00FEF2FF012EF2FF0D8903A
:105E200013EF2FF0D880120021342234286E28502E
:105E3000D8A41DEF2FF01FEF2FF029EF2FF0000E49
:105E40001F6E000E206E000E216E000E226E96EF69
:105E50002FF01FC523F520C524F521C525F522C542
:105E600026F5200E39EF2FF0D89026322532243235
:105E70002332E82E34EF2FF02350276E218EFF0EB1
:105E80001F16FF0E2016FF0E2116000E2216960E6C
:105E9000285E28BE50EF2FF04EEF2FF066EF2FF068
:105EA0002850800A970FD8B058EF2FF05AEF2FF0F4
:105EB0005CEF2FF01FEF2FF0D890223221322032EA
:105EC0001F32283E5CEF2FF07EEF2FF01F0E28646C
:105ED0006CEF2FF06EEF2FF076EF2FF01FEF2FF01B
:105EE000D8901F3620362136223628062850D8A4CE
:105EF0007CEF2FF07EEF2FF070EF2FF02750D8B40B
:105F000084EF2FF086EF2FF08EEF2FF0221E211E50
:105F1000201E1F6C000E2022212222221FC51FF5E9
:105F200020C520F521C521F522C522F51200490E14
:105F300005016C6F990E6D6F000E6E6F000E6F6F26
:105F4000EEC570F5EFC571F5726B736B00EC2DF05B
:105F50006CC5F2F56DC5F3F56A0E0501726F4D0E55
:105F6000736F930E746FBF0E756FF2C560F5F3C556
:105F700061F5626B636B000E6DEC28F060C56EF529
:105F800061C56FF562C570F563C571F56DEC17F00D
:105F90006EC5E2F56FC5E3F570C5E4F571C5E5F5CD
:105FA0000DEC2EF0E2C5F2F5E3C5F3F5ECC5F0F526
:105FB000EDC5F1F50501D890F037F137D890F037FD
:105FC000F137F0C5F4F5F1C5F5F5F4C560F5F5C5A3
:105FD00061F5000E636F640E626FB9EC3CF060C552
:105FE000F4F561C5F5F5F4C560F5F5C561F5EEC5E7
:105FF00062F5EFC563F54FEC38F060C5F4F561C5A7
:10600000F5F5F4C560F5F5C561F512EC3EF0F2C5A5
:1060100060F5F3C561F50BEC3EF0CAEC3EF0120002
:10602000490E05016C6F990E6D6F000E6E6F000EBC
:106030006F6FEEC570F5EFC571F5726B736B00ECA9
:106040002DF06CC5F2F56DC5F3F56A0E0501726FA2
:106050004D0E736F930E746FBF0E756FF2C560F5C2
:10606000F3C561F5626B636B000E6DEC28F060C5E3
:106070006EF561C56FF562C570F563C571F56DECC0
:1060800017F06EC5E2F56FC5E3F570C5E4F571C5AF
:10609000E5F50DEC2EF0E2C5F2F5E3C5F3F5ECC540
:1060A000F0F5EDC5F1F50501D890F037F137D8904E
:1060B000F037F137F0C5F4F5F1C5F5F5F4C560F545
:1060C000F5C561F5000E636F640E626FB9EC3CF0CC
:1060D00060C5F4F561C5F5F5F4C560F5F5C561F584
:1060E000EEC562F5EFC563F54FEC38F060C5F4F529
:1060F00061C5F5F5F4C560F5F5C561F520EC3EF038
:10610000F2C560F5F3C561F519EC3EF0CCEC3EF05C
:106110001200000E0501ED6F000EEC6F020EEF6F26
:10612000580EEE6F97EC2FF0030E0501F76F8A0EF5
:10613000F66F550EE82EFED7F62FFCD7F72FFAD7BD
:1061400000D0A9EC3BF0020E0501F76F450EF66F8B
:10615000A90EE82EFED7F62FFCD7F72FFAD700D0DE
:10616000050E4D240601406F000E4E20416FFB0EC0
:106170004B243C6FFF0E4C203D6F00F0000E0501DC
:10618000ED6F640EEC6F020EEF6F580EEE6F97EC32
:106190002FF0070E0501F76F580EF66F590EE82E17
:1061A000FED7F62FFCD7F72FFAD700D0A9EC3BF09B
:1061B000020E0501F76F450EF66FA90EE82EFED709
:1061C000F62FFCD7F72FFAD700D0050E4D24060185
:1061D0003E6F000E4E203F6FFB0E4B243A6FFF0EBA
:1061E0004C203B6F00F0000E0501ED6F000EEC6FD0
:1061F000010EEF6F2C0EEE6F97EC2FF01200490E90
:106200000D6E990E0E6E000E0F6E000E106E2BC5E9
:1062100011F52CC512F5136A146A87EC2DF00DC523
:106220002FF50EC530F56A0E136E4D0E146E930EDB
:10623000156EBF0E166E2FC501F530C502F5036A47
:10624000046A000E49EC29F001C50FF502C510F5EE
:1062500003C511F504C512F5CEEC19F00FC51FF5F5
:1062600010C520F511C521F512C522F514EC2FF04B
:106270001FC52FF520C530F529C52DF52AC52EF5EA
:10628000D8902D362E36D8902D362E362DC531F598
:106290002EC532F531C501F532C502F5000E046E8A
:1062A000640E036EFAEC3CF001C531F502C532F51F
:1062B00031C501F532C502F52BC503F52CC504F532
:1062C00038EC39F001C531F502C532F531C501F5BB
:1062D00032C502F533EC3EF02FC501F530C502F5AD
:1062E0002DEC3EF0CEEC3EF01200490E0D6E990EF4
:1062F0000E6E000E0F6E000E106E2BC511F52CC524
:1063000012F5136A146A87EC2DF00DC52FF50EC532
:1063100030F56A0E136E4D0E146E930E156EBF0E91
:10632000166E2FC501F530C502F5036A046A000E2A
:1063300049EC29F001C50FF502C510F503C511F5AB
:1063400004C512F5CEEC19F00FC51FF510C520F5E8
:1063500011C521F512C522F514EC2FF01FC52FF53C
:1063600020C530F529C52DF52AC52EF5D8902D3636
:106370002E36D8902D362E362DC531F52EC532F558
:1063800031C501F532C502F5000E046E640E036ED0
:10639000FAEC3CF001C531F502C532F531C501F525
:1063A00032C502F52BC503F52CC504F538EC39F0E0
:1063B00001C531F502C532F531C501F532C502F529
:1063C0003FEC3EF02FC501F530C502F539EC3EF04B
:1063D000D0EC3EF01200216E000E1D6E1850ACEC99
:1063E0003DF0206E20A0F7EF31F0F9EF31F05FEFD4
:1063F00032F018500C0D580EF324D96E010EF42013
:10640000DA6E610078F31EF5610074F31FF51E501B
:106410001F10D8B40EEF32F010EF32F05FEF32F011
:106420001EC50CF51FC50DF519C50EF51AC50FF5DE
:106430003CEC24F018500C0D510EF324D96E010ED3
:10644000F420DA6E000EDB802150020D5E0EF32484
:10645000D96E050EF420DA6EDF2A18505CEC3DF0A0
:106460001B6E2150020D5E0EF324D96E050EF42032
:10647000DA6E1B50DE5CD8A040EF32F042EF32F013
:106480004CEF32F02150020D5E0EF324D96E050E52
:10649000F420DA6E000EDF6E20A651EF32F053EFDB
:1064A00032F05DEF32F018500C0D540EF324D96E1B
:1064B000010EF420DA6EF70EDF16010E1D6E1D5070
:1064C00012000601E751E811D8B469EF32F06BEF22
:1064D00032F077EF32F002D877EF32F00500FA6E43
:1064E000E751FD6EE851FE6EFF6AFA5012006BEC48
:1064F0003BF006019C2B060E9C19D8A482EF32F0CB
:1065000084EF32F088EF32F0000E9C6F01EC3EF029
:1065100006019B2B0B0E9B19D8A491EF32F093EF41
:1065200032F097EF32F0000E9B6F3CEC3AF0060130
:106530009A2B650E9A19D8A4A0EF32F0A2EF32F090
:10654000A6EF32F0000E9A6FD9EC3EF006015C4BDC
:106550005D2B2D0E5C1906E15D05D8A4B2EF32F07B
:10656000B4EF32F0BAEF32F0000E5D6F000E5C6FE8
:10657000D7EC3EF006015A4B5B2B590E5A1907E136
:10658000020E5B19D8A4C7EF32F0C9EF32F0CFEF9B
:1065900032F0000E5B6F000E5A6FD8EC3EF0120026
:1065A00023C5A5F624C5A6F625C5A7F626C5A8F6D3
:1065B00027C5A9F628C5AAF629C5ABF62AC5ACF6A3
:1065C0001EC5B4F61FC5B5F620C5B6F621C5B7F68B
:1065D0000601B89DB89FB893B89122C52BF50F0E50
:1065E0002B162B462B46B8512B18C30B2B18B86F04
:1065F000A50EB96F060EBA6FCEEC3DF0E806D8A432
:1066000004EF33F006EF33F007EF33F000F0C3ECA4
:106610003DF0E806D8A40FEF33F011EF33F012EF9E
:1066200033F000F0B8EC3DF0E806D8A41AEF33F0F0
:106630001CEF33F01DEF33F000F087EC3DF0E8067F
:10664000D8A425EF33F027EF33F028EF33F000F034
:10665000000E37EC3DF02B6E2BA031EF33F033EF13
:1066600033F03BEF33F0B40E186E060E196E000EC9
:106670002DEC36F000F01200076E000E096E20EED1
:1066800004F00250D9260350DA22DF500A6E0AAE17
:106690004CEF33F04EEF33F059EF33F0B8EC3EF0FF
:1066A000060AD8A456EF33F058EF33F059EF33F021
:1066B00009820A30E8320F0B046E080E046463EF9F
:1066C00033F065EF33F077EF33F00AAC6AEF33F075
:1066D0006CEF33F076EF33F0B8EC3EF0060AD8A456
:1066E00074EF33F076EF33F077EF33F009802F0E4D
:1066F000F66E260EF76EF86A08006100D4F304F512
:106700000A30E8320F0B056E066A270E0524F66E76
:10671000260E0620F76EF86A000EF8220800F550E3
:10672000045CD8B096EF33F098EF33F099EF33F084
:1067300009800750A0EC3DF00009D8A4A2EF33F087
:10674000A4EF33F0A6EF33F0030E09120950120044
:1067500005017E517A5D606F7F517B59616F805179
:106760007C59626F81517D59636F640E646F000EB6
:10677000656F000E666F000E676F72EC39F060C5D2
:106780006CF561C56DF562C56EF563C56FF5050104
:106790007E51825D706F7F518359716F8051845932
:1067A000726F81518559736F00EC2DF06CC57AF5CD
:1067B0006DC57BF56EC57CF56FC57DF505017DBFAB
:1067C000E6EF33F0E4EF33F0F0EF33F0000E7A6FE2
:1067D000000E7B6F000E7C6F000E7D6F08EF34F0B3
:1067E0007DBFFEEF33F07D517C117B1109E1650E19
:1067F0007A5DD8A0FEEF33F000EF34F008EF34F00C
:10680000640E7A6F000E7B6F000E7C6F000E7D6F42
:106810007AC57AF57BC57BF51200000E036E000E7B
:106820000A6E0A50020D5D0EF324D96E050EF42097
:10683000DA6EDF50066E0650ACEC3DF0056E05A03A
:1068400024EF34F026EF34F067EF34F006505CECC0
:106850003DF0076E05A62FEF34F031EF34F035EF41
:1068600034F007C504F565EF34F006500C0D550EF5
:10687000F324D96E010EF420DA6EDF501F0B086E80
:106880000A50020D5E0EF324D96E050EF420DA6E66
:10689000DF50096E0950085CD8B051EF34F053EF67
:1068A00034F059EF34F00950085C0724046E65EFAA
:1068B00034F00850095CD8B060EF34F062EF34F087
:1068C00031EF34F00950085C046E045003260A2AA4
:1068D0000A50D8B46EEF34F070EF34F011EF34F0AA
:1068E000035012001F501B5C016E20501C58026E9A
:1068F00021501D58036E22501E58046E640E056E02
:10690000000E066E000E076E000E086EA8EC39F041
:1069100001C50DF502C50EF503C50FF504C510F54B
:106920001F50235C116E20502458126E21502558A0
:10693000136E22502658146E87EC2DF00DC51BF5F2
:106940000EC51CF50FC51DF510C51EF51EBEADEF1D
:1069500034F0ABEF34F0B7EF34F0000E1B6E000EE6
:106960001C6E000E1D6E000E1E6ECFEF34F01EBEAC
:10697000C5EF34F01E501D101C1009E1650E1B5CA4
:10698000D8A0C5EF34F0C7EF34F0CFEF34F0640E89
:106990001B6E000E1C6E000E1D6E000E1E6E1BC5C3
:1069A0001BF51CC51CF512006100D8F347F561000A
:1069B000DCF348F56100E0F349F56100D4F34AF5F2
:1069C000A1AEE5EF34F0E7EF34F0F2EF34F0B1AE22
:1069D000ECEF34F0EEEF34F0F2EF34F000EC3CF09A
:1069E00028EF35F0A1A8F7EF34F0F9EF34F004EF19
:1069F00035F0B1A8FEEF34F000EF35F004EF35F0DC
:106A0000E4EC3BF028EF35F09EAC09EF35F00BEFEE
:106A100035F016EF35F0AEAC10EF35F012EF35F083
:106A200016EF35F0BDEC2BF028EF35F0A2A81BEFE8
:106A300035F01DEF35F028EF35F0B2A822EF35F034
:106A400024EF35F028EF35F0CFEC3CF028EF35F0AF
:106A5000610028F5F5F4610024F5F8F4610020F5F3
:106A6000F7F461001CF5F6F41100000ECFB4010E2E
:106A7000016E000ECEB2010E026E00F00104D8A429
:106A800044EF35F046EF35F054EF35F00250D8A41E
:106A90004CEF35F04EEF35F054EF35F0010E5C6EF3
:106AA0005AC581F694EF35F00150D8A45AEF35F06D
:106AB0005CEF35F06AEF35F00204D8A462EF35F0F0
:106AC00064EF35F06AEF35F0020E5C6E5AC580F661
:106AD00094EF35F00150D8A470EF35F072EF35F037
:106AE0007EEF35F00250D8A478EF35F07AEF35F02C
:106AF0007EEF35F0030E5C6E94EF35F00104D8A400
:106B000084EF35F086EF35F092EF35F00204D8A42B
:106B10008CEF35F08EEF35F092EF35F0040E5C6EB1
:106B200094EF35F0050E5C6E12000501626F000EE9
:106B30000501616F72EC3EF00501606F040E601993
:106B4000D8B4A5EF35F0A7EF35F0B8EF35F0620512
:106B5000D8B4ADEF35F0AFEF35F0B8EF35F0040E47
:106B60006219D8A4B6EF35F0B8EF35F0DDEF35F0A7
:106B70000101035105016219F80B62190101036F4C
:106B8000CFEF35F001011DA9C8EF35F0CAEF35F0A0
:106B9000CFEF35F0020E0501616FDFEF35F00239FE
:106BA000E832070B05016219D8A4D9EF35F0DBEF05
:106BB00035F0C2EF35F0DFEF35F0010E616F615156
:106BC0001200346E5B04D8A4E8EF35F0EAEF35F03C
:106BD00022EF36F034503C0D6100CCF34CF66100EE
:106BE000D0F34DF64CC601F54DC602F5000E046E0D
:106BF000640E036E38EC39F001C54CF602C54DF653
:106C000006014C514C6F4D6B0501FC513318D8A453
:106C10000CEF36F00EEF36F02CEF36F0040E5C6021
:106C200014EF36F016EF36F02CEF36F04CC629F59F
:106C30004DC62AF5010E2C6E2C0E2B6E75EC31F024
:106C40002CEF36F0000E2A6E000E296E010E2C6E0F
:106C50002C0E2B6E75EC31F012001D6E1D508AEC5F
:106C60003BF00009D8B437EF36F039EF36F076EF65
:106C700036F018C502F519C503F51D503CEC33F08C
:106C80001A6E1A50D8A447EF36F049EF36F076EF77
:106C900036F01D500C0D580EF324D96E010EF42061
:106CA000DA6E610078F31BF5610074F31CF51B507C
:106CB0001C10D8B45EEF36F060EF36F076EF36F0A9
:106CC0001BC50CF51CC50DF518C50EF519C50FF53E
:106CD00019EC23F01D500C0D510EF324D96E010E4A
:106CE000F420DA6E030EDF1276EF36F0120031EC8C
:106CF0003CF02DEC3BF0EDEC3DF0A9EC3BF079ECF9
:106D00003DF0F7EC3DF0D68E000E19EC3CF06BEC4C
:106D10003DF0A9EC3BF076EC27F050EC37F0D3ECEB
:106D20003EF00501FC51D8A498EF36F09AEF36F00A
:106D3000A2EF36F0000EF66F06015651FCEC2AF079
:106D400089EF36F0FC05D8A4A8EF36F0AAEF36F0AC
:106D500089EF36F0010EF66F06019951FCEC2AF02E
:106D6000000E5C6E98C6ECF50501ED6B010EEF6F41
:106D70002C0EEE6F10EC30F089EF36F00DEF00F0D6
:106D8000BA0EF66E730EF76E000EF86E01EE00F39B
:106D900010EE62F00900F5C4EEF4E550E150FAE1BE
:106DA0001A0EF66E790EF76E000EF86E01EEBBF25B
:106DB00010EE2CF00900F5C4EEF4E550E150FAE1D4
:106DC000A40EF66E7D0EF76E000EF86E09006100DF
:106DD000D4F35DF509006100D4F35EF501EE00F235
:106DE000BB0EEE6AE806FDE10501FC6BFB6BFA6B7E
:106DF00001EE4BF1120EEE6AE806FDE10401080E09
:106E00005D6F000E5E6F000E5F6F000177EF36F072
:106E1000050120EE24F06051D9266151DA22000EDE
:106E2000DE6E000EDE6E000EDE6E000EDD6E20EEFB
:106E300028F06051D9266151DA22000EDE6E000E74
:106E4000DE6E000EDE6E000EDD6E20EE2CF0605168
:106E5000D9266151DA22000EDE6E000EDE6E000EC3
:106E6000DE6E000EDD6E20EE30F06051D9266151ED
:106E7000DA22000EDE6E000EDE6E000EDE6E000EFA
:106E8000DD6E20EE34F06051D9266151DA22000E19
:106E9000DE6E000EDE6E000EDE6E000EDD6E120087
:106EA00038C67AF539C67BF505017C6B7D6B48C623
:106EB0007EF549C67FF5806B816B46C682F547C675
:106EC00083F5846B856BA8EC33F07AC555F57BC5EB
:106ED00056F536C67AF537C67BF505017C6B7D6BBA
:106EE00044C67EF545C67FF5806B816B42C682F550
:106EF00043C683F5846B856BA8EC33F07AC553F5F4
:106F00007BC554F5535055240501866F54505620C7
:106F1000876FD8908731886F86310601566F88C594
:106F200057F600F0120038C61BF539C61CF51D6A6D
:106F30001E6A48C61FF549C620F5216A226A46C660
:106F400023F547C624F5256A266A72EC34F01BC582
:106F500055F51CC556F536C61BF537C61CF51D6A1A
:106F60001E6A44C61FF545C620F5216A226A42C63C
:106F700023F543C624F5256A266A72EC34F01BC556
:106F800053F51CC554F553505524276E54505620C4
:106F9000286ED8902830296E27300601566F29C5F3
:106FA00057F600F01200000EBE6E000EBF6E000E0F
:106FB000C06E080ECA6EDE0EC66ECC0EC76E070E11
:106FC000C86EE70E0401106F730E086FFD0E006FA0
:106FD000000E216F000E096F000E016F000E116F81
:106FE000000E026F000E0A6F180E126F03690B6914
:106FF000136904690C691469080E246F0F0E0201ED
:10700000696F140E706F1A0E0A6F370E146F180E18
:10701000096F380E156F0B0E3D6F460E0D6F130E78
:10702000716F1200C00E0501606F7D0E616F8BECF9
:107030003EF0C20E0501606F7D0E616F90EC3EF078
:10704000C40E0501606F7D0E616F95EC3EF0BE0EC3
:107050000501606F7D0E616F86EC3EF0BA0E050192
:10706000606F7D0E616F7CEC3EF0B80E0501606FC5
:107070007D0E616F77EC3EF0BC0E0501606F7D0EFA
:10708000616F81EC3EF0AE9C000E01011C6F000EA2
:107090001D6F0A0E1E6FFC0E1F6F9E8C1200000EDD
:1070A0000501656F000E646F62516311D8B45BEF28
:1070B00038F05DEF38F085EF38F0010E666F65EF60
:1070C00038F0D89062376337662B63AF6AEF38F0D9
:1070D0006CEF38F061EF38F0D89064376537625163
:1070E000605D63516159D8A078EF38F07AEF38F0DD
:1070F0007FEF38F06251605F6351615B6481D890CB
:1071000063336233662F6CEF38F064C560F565C594
:1071100061F51200000E6F6E020E706E000E716E41
:107120003D0E726E000E736EFE0E746E000E756E66
:10713000000E766E000E776E000E796E1F0E7A6E60
:10714000000E7B6E1F0E7C6E000E7D6EB39CB39E98
:1071500076907692A39EA39C000E0501606F000EB0
:10716000616F54EC3EF0000E0501606F000E616F20
:107170004FEC3EF0000E0501606F000E616F59ECA0
:107180003EF0800E786E1200000E606E020E616E90
:10719000000E626E3D0E636E000E646EFE0E656E36
:1071A000000E666E000E676E000E686E000E6A6E50
:1071B0001F0E6B6E000E6C6E1F0E6D6E000E6E6EEF
:1071C000B29CB29E67906792A29EA29C000E05019F
:1071D000606F000E616F63EC3EF0000E0501606FA2
:1071E000000E616F5EEC3EF0000E0501606F000E58
:1071F000616F68EC3EF0800E696E120000F00501D0
:10720000FC05D8A406EF39F008EF39F02DEF39F07E
:1072100006019705D8A40FEF39F011EF39F015EFFB
:1072200039F0010E5B6E37EF39F0000E5B6E000E29
:107230002A6E000E296E010E2C6E2C0E2B6E75EC34
:1072400031F0000E2A6E000E296E020E2C6E580EC2
:107250002B6EFFEC30F037EF39F0FC51D8A433EF50
:1072600039F035EF39F037EF39F011EF39F012001E
:10727000000E066E000E056E03500410D8B443EFE6
:1072800039F045EF39F06DEF39F0010E076E4DEF33
:1072900039F0D89003360436072A04AE52EF39F09D
:1072A00054EF39F049EF39F0D890053606360350DF
:1072B000015C04500258D8A060EF39F062EF39F059
:1072C00067EF39F00350015E0450025A0580D890F0
:1072D00004320332072E54EF39F005C501F506C517
:1072E00002F51200000E0501686F000E696F000EB6
:1072F0006A6F000E6B6F60A180EF39F082EF39F09A
:107300008AEF39F0645168276551692366516A2311
:1073100067516B23D8906437653766376737D890E5
:107320006333623361336033605161116211631101
:10733000D8A49DEF39F09FEF39F07BEF39F068C5A5
:1073400060F569C561F56AC562F56BC563F5120044
:10735000000E096E000E0A6E000E0B6E000E0C6E13
:1073600001A0B5EF39F0B7EF39F0BFEF39F00550B4
:10737000092606500A2207500B2208500C22D890EA
:107380000536063607360836D89004320332023204
:1073900001320150021003100410D8A4D2EF39F0CA
:1073A000D4EF39F0B0EF39F009C501F50AC502F59F
:1073B0000BC503F50CC504F51200333333403333EA
:1073C000B33F0AD7233E0AD7A33C000000000000C9
:1073D000C8420000A0C00000A0400AD7233C000023
:1073E000000000000000000000000000000000009D
:1073F000000000050A0F14191E23282D32373C41C6
:10740000464B50555A5F6476D12C87E23D98F34E37
:10741000A9045EB9146FCA2580DB36910101018F82
:10742000040E95EC35F00009D8A419EF3AF01BEFE3
:107430003AF03BEF3AF0000E01014C6F260E4D6F13
:10744000000E4E6F000E4F6F600E006F970E016FB3
:10745000100E026FE3EC3DF0D9EC3DF0E5EC3CF0B2
:107460004BEC3DF048EC3CF012EC38F0060E95EC9D
:1074700035F0C79ABF9A1200310E1E6E030E1F6EB2
:10748000000E206E000E216E040E226E59C523F5EB
:107490007FC624F55CC525F57EC626F5000E276E51
:1074A000000E286E000E296E000E2A6ED0EC32F00F
:1074B000BEB05DEF3AF060EF3AF0010E61EF3AF0E6
:1074C000000EFF0A2C6EBE502C18FE0B2C18BE6E40
:1074D000120003C509F504C50AF501C507F502C583
:1074E00008F588EF3AF0610024F4D9F4610028F43B
:1074F000DAF4DF500B6E094A0A2A61001CF4D9F451
:10750000610020F4DAF461002CF4DFF4074A082A61
:107510000506D8A00606052806E10628D8A493EF9C
:107520003AF095EF3AF073EF3AF01200000E256E44
:107530002550020D5D0EF324D96E050EF420DA6E8F
:10754000DF50186E22C519F523C51AF52550EBEC4E
:1075500031F0246E2450D8B4B0EF3AF0B2EF3AF0E4
:10756000B4EF3AF0BDEF3AF0252A2550D8B4BBEF7E
:107570003AF0BDEF3AF098EF3AF024501200000EC6
:1075800003011F6F000E206F010E216F850E1D6F0E
:10759000EE0E1C6FB1981C51600074FC62F5050181
:1075A000636B62C563F5626B62110601E96F0501E9
:1075B00063510601EA6FA188AA0E0501606F7D0E76
:1075C000616F45EC3EF0310E03011E6F1200000E9C
:1075D00005019B1B000E9C1B000E9D1B800E9E1B1D
:1075E00097C56EF598C56FF599C570F59AC571F593
:1075F0009BC572F59CC573F59DC574F59EC575F563
:107600006DEC17F06EC597F56FC598F570C599F5D7
:1076100071C59AF51200036E17EF3BF0BE8A2CEF8E
:107620003BF0BE9A2CEF3BF0BE9A2CEF3BF00350A0
:10763000016E026A0250000AD8B421EF3BF014EF49
:107640003BF00150000AD8B411EF3BF0010AD8B466
:107650000EEF3BF014EF3BF01200C690C784C682D9
:10766000C69AC89AC89CC89EC79A000E0501ED6FBD
:10767000000EEC6F010EEF6F2C0EEE6F10EC30F081
:10768000000E0501ED6F000EEC6F020EEF6F580E4D
:10769000EE6F97EC2FF012000501646F610090F51A
:1076A000ECF30301F38FF39DF381F3B15AEF3BF059
:1076B0005CEF3BF055EF3BF0EB510501636F626B04
:1076C0000301EA5105016225606F0301000E050107
:1076D0006321616F1200DAEC3EF0300E1E6E030E75
:1076E0001F6E000E206E000E216E060E226E55C516
:1076F00023F553C524F551C525F54FC526F556C6C6
:1077000027F54AC628F5000E296E000E2A6ED0EC29
:1077100032F01200026E000E016E040E026093EF52
:107720003BF095EF3BF0A7EF3BF002500C0D500EF5
:10773000F324D96E010EF420DA6E0101DFAEA3EF5F
:107740003BF0A5EF3BF0A7EF3BF0010E016E0150BF
:107750001200010E68EC2CF065C538F666C539F6E6
:10776000020E68EC2CF065C536F666C537F6030EDA
:1077700068EC2CF065C54DF566C54EF5040E68EC59
:107780002CF065C54BF566C54CF500F012000501FF
:107790009F51A011A111A211D8B4D1EF3BF0D3EFAA
:1077A0003BF0DBEF3BF0000E9F1B000EA01B000E1A
:1077B000A11B800EA21B9FC59FF5A0C5A0F5A1C56A
:1077C000A1F5A2C5A2F51200B198E9C601F5EAC675
:1077D00002F55FEC3CF00601584B592B595109E179
:1077E000050E585DD8A0F7EF3BF0F9EF3BF0FDEF49
:1077F0003BF0000E596F000E586F61EC32F0120032
:10780000B19E06015E4B5F2B5F5109E10A0E5E5D82
:10781000D8A00DEF3CF00FEF3CF016EF3CF076EC0B
:107820003CF0000E06015F6F000E5E6FBDEC3EF097
:1078300012000501606F05016005D8A422EF3CF03D
:1078400024EF3CF027EF3CF09E8C30EF3CF0605191
:10785000D8A42DEF3CF02FEF3CF030EF3CF09E9C95
:107860001200C8EC3EF023EC3DF0A3EC3CF05CECE5
:1078700025F0D3EC37F094EC3DF0BFEC3AF00FEC90
:107880003DF08AEC38F00EEC3AF0C4EC38F012001F
:10789000000E0501606F6051020D5E0EF324D96E7B
:1078A000050EF420DA6E000EDF6E602B6051D8B446
:1078B0005CEF3CF05EEF3CF04BEF3CF0120003015C
:1078C0001EA565EF3CF067EF3CF070EF3CF01E91B9
:1078D00002501D6F610004F41CF31E8175EF3CF033
:1078E00002501D6F610004F41CF312000601EB51FD
:1078F000EC11D8B47EEF3CF080EF3CF08CEF3CF024
:1079000002D88CEF3CF00500FA6EEB51FD6EEC51A5
:10791000FE6EFF6AFA5012001200010100050A0F04
:1079200014191E23282D32373C41464B50555A5FBF
:1079300064AEFF51A2F34596E7388ADB2C7ECF2058
:1079400072C31465B708040E0201946F800E956F20
:10795000180E966F030E9E6F000E9A6F000E9B6FAF
:10796000000E976F000E8C6F000E8D6F000E9D6FD6
:1079700012000501605162036100CCF364F56100FF
:10798000D0F365F560516303F350652761516203DD
:10799000F350652764C560F565C561F51200010106
:1079A00060A1D5EF3CF0D7EF3CF0E4EF3CF002D81B
:1079B000E4EF3CF00500FA6E06017451FD6E75515E
:1079C000FE6EFF6AFA5012001200190E01015C6F80
:1079D000040E5D6F600E5E6F050E5F6F8A0E05010F
:1079E000606F7D0E616F6DEC3EF001011E83B298F9
:1079F000A2881200015003026100CCF305F561007A
:107A0000D0F306F501500402F3500626025003029B
:107A1000F350062605C501F506C502F51200480E0D
:107A200003011B6F610E196F000E186FB19EA18EBE
:107A3000B60E0501606F7D0E616F4AEC3EF0800E60
:107A400003011A6F1200000E0001606F000E616FDB
:107A5000000E626F000E636F000E646F000E656FA4
:107A6000000E666F000E676F000E686F1200046EE6
:107A7000000E036E04508AEC3BF00009D8B443EFCB
:107A80003DF045EF3DF049EF3DF00450A0EC3DF0F6
:107A9000036E035012005F0E0101946F95699669A1
:107AA0009769000E986F000E996F000E9A6F000E86
:107AB0009B6F810E816F1200026E02500C0D530EEF
:107AC000F324D96E010EF420DA6EDF50016E1F0E22
:107AD000011601281200000E0501ED6F000EEC6F7B
:107AE000000EEF6F320EEE6F10EC30F0000E5C6E99
:107AF0001200640E06013825486F000E3921496FC7
:107B00009C0E3625446FFF0E3721456F1200C3ECE3
:107B10003DF00009D8B48FEF3DF092EF3DF0010E3B
:107B200093EF3DF0000E1200700E0001AD6F000EDD
:107B3000AF6F000EB36F020EB16F000EB06F120088
:107B4000016E01500C0D540EF324D96E010EF42079
:107B5000DA6EDF50010B1200016E01500C0D540E55
:107B6000F324D96E010EF420DA6EDF50090B1200F7
:107B7000010136B5BEEF3DF0C1EF3DF0010EC2EFA1
:107B80003DF0000E1200010136B9C9EF3DF0CCEF17
:107B90003DF0010ECDEF3DF0000E1200010136BBAD
:107BA000D4EF3DF0D7EF3DF0010ED8EF3DF0000EE1
:107BB0001200100E0101506F040E516F610E526FD2
:107BC000050E536F1200010E0101046F010E056FC7
:107BD000060E066F000E076F120089EC30F0000EE3
:107BE0000501606F070E616F08EC37F01200070E99
:107BF0000601476F620E466F010E436F040E426F1F
:107C0000120035EC35F0FEEC38F0000E0601976FEF
:107C1000D6EC3EF01200610080F572F4050161516E
:107C2000736E1200610080F57AF4050161517B6E7C
:107C30001200610080F563F405016151646E120069
:107C4000610080F56BF4050161516C6E1200050155
:107C5000606F610080F5FBF31200610004F472F4C0
:107C60000250736E1200610004F47AF402507B6ECD
:107C70001200610004F463F40250646E12006100AB
:107C800004F46BF402506C6E120060C5E7F661C537
:107C9000E8F6120060C5EBF661C5ECF6120060C5AF
:107CA000FBF661C5FCF6120060C5FDF661C5FEF687
:107CB000120060C5F9F661C5FAF6120060C562F6F9
:107CC00061C563F6120060C564F661C565F6120011
:107CD00060C560F661C561F6120060C574F661C5E5
:107CE00075F6120001010239E832070B120060C577
:107CF00068F661C569F6120060C56AF661C56BF683
:107D0000120060C566F661C567F6120060C56CF6C4
:107D100061C56DF6120060C572F661C573F612009A
:107D200060C570F661C571F6120060C56EF661C57A
:107D30006FF6120060C5EFF661C5F0F6120060C57F
:107D4000F1F661C5F2F6120060C5F3F661C5F4F60E
:107D5000120060C5F5F661C5F6F6120060C5EDF6D5
:107D600061C5EEF6120060C5F7F661C5F8F61200BF
:107D700001010239E832070B120023EC2AF093ECE0
:107D800037F012000301F39B12006FEC26F0120093
:107D9000D69A120078841200698412007884120046
:107DA0006984120001001200120012001200120079
:107DB0001200120012001200120012001200120033
:067DC00012001200120087
:020000040020DA
:10000000FF0FFF0FFF0FFF0FFF0FFF0FFF0FFF0F80
:10001000FF0FFF0FFF0FFF0FFF0FFF0FFF0FFF0F70
:020000040030CA
:10000000FAEFF7DF9FFFFFFFFFFFFFFFFFFFFFFF9D
:10001000FFFFFFFFFFFFFFFFFFFFFFFFFFFFFFFFF0
:04002000FFFFFFFFE0
:00000001FF
