:020000040000FA
:040000000DEF00F010
:0400080038EF2DF0B0
:06001800FF00E4EF31F0EF
:1026000000000000000000000000000000000000CA
:1026100000000000000000000000000000000000BA
:102620000000000000000000010203040506070886
:102630005001526561643A206E6F6E2D766F6C6149
:1026400074696C6520766F6C746167652076616C67
:1026500075652025662C20616E6420766F6C617430
:10266000696C6520766F6C746167652076616C7546
:10267000652025660053657420746865206E6F6E52
:102680002D766F6C6174696C6520766F6C74616710
:102690006520746F203156200A00536574207468D9
:1026A0006520766F6C6174696C6520766F6C7461FF
:1026B000676520746F203256200A00000501CA5158
:1026C000800BD36FCA51CA25D56FC9AF6AEF13F01B
:1026D0006CEF13F06DEF13F0D581D551D8B473EFD3
:1026E00013F075EF13F08AEF13F0D529D8A47BEF20
:1026F00013F07DEF13F085EF13F0000EC76F000E9F
:10270000C86F000EC96F000ECA6FC98F000ECA6F66
:1027100092EF13F0000EC76F000EC86F000EC96F66
:10272000000ECA6FCE51800BD46FD351D419D8B4D8
:102730009CEF13F09EEF13F09FEF13F0D38DCE516B
:10274000CE25D46FCDAFA7EF13F0A9EF13F0AAEF0A
:1027500013F0D481D451D8B4B0EF13F0B2EF13F02A
:10276000C7EF13F0D429D8A4B8EF13F0BAEF13F0E1
:10277000C2EF13F0000ECB6F000ECC6F000ECD6FCA
:10278000000ECE6FCD8F000ECE6FCFEF13F0000E88
:10279000CB6F000ECC6F000ECD6F000ECE6FD551FB
:1027A000D45DD8B0D6EF13F0D8EF13F0FFEF13F0ED
:1027B000D3ADDDEF13F0DFEF13F0E1EF13F0800E98
:1027C000D31BD5C5D6F5D4C5D5F5D6C5D4F5C7C563
:1027D000D6F5CBC5C7F5D6C5CBF5C8C5D6F5CCC59E
:1027E000C8F5D6C5CCF5C9C5D6F5CDC5C9F5D6C58C
:1027F000CDF5CAC5D6F5CEC5CAF5D6C5CEF5000EFF
:10280000D66FD551D4C5CFF5D06BCF5F000ED05B5E
:10281000D0BF14EF14F0D05109E11A0ECF5DD8A04B
:1028200014EF14F016EF14F04DEF14F0C751C81167
:10283000C911CA11D8A41FEF14F022EF14F0010E31
:1028400023EF14F0000ED66F000EC76F000EC86F96
:10285000000EC96F000ECA6FD4C5D5F556EF14F03F
:10286000D6A135EF14F037EF14F03DEF14F0D89007
:10287000D6310109D66F3FEF14F0D890D633C7A1F7
:1028800044EF14F046EF14F047EF14F0D68FCA353A
:10289000CA33C933C833C733D52BD451D55DD8A07B
:1028A00054EF14F056EF14F030EF14F0D3BD5BEF9B
:1028B00014F05DEF14F09DEF14F0D551D8A463EF40
:1028C00014F065EF14F06FEF14F0000EC76F000EF8
:1028D000C86F000EC96F000ECA6FBEEF15F0CB5166
:1028E000C727CC51C823CD51C923CE51CA23CAA171
:1028F0007CEF14F07EEF14F02AEF15F0D6A183EFF1
:1029000014F085EF14F08BEF14F0D890D631010954
:10291000D66F8DEF14F0D890D633C7A192EF14F094
:1029200094EF14F095EF14F0D68FCA35CA33C9333B
:10293000C833C733D52B2AEF15F0CB51C75DCC5127
:10294000C859CD51C959CA51800ACF6FCE51800A9A
:10295000CF59D8B0AEEF14F0B0EF14F0DBEF14F0B5
:10296000C751CB5DCF6FC851CC59D06FC951CD592C
:10297000D16FCA51CE59D26FFF0ECF25C76FFF0E50
:10298000D021C86FFF0ED121C96FFF0ED221CA6FAF
:10299000800ED31BD66DD651D8A4D1EF14F0D3EF4F
:1029A00014F0E3EF14F0010EC727000EC823C9236B
:1029B000CA23E3EF14F0CB51C75FCC51C85BCD51B4
:1029C000C95BCE51CA5BC751C811C911CA11D8A47D
:1029D000ECEF14F0EEEF14F023EF15F0D651D8A47D
:1029E000F4EF14F0F6EF14F023EF15F0000EC76FBC
:1029F000000EC86F000EC96F000ECA6FBEEF15F053
:102A0000D890C737C837C937CA37D6AF0AEF15F0DD
:102A10000CEF15F00DEF15F0C781D6A112EF15F0F0
:102A200014EF15F018EF15F0D880D6371AEF15F01F
:102A3000D890D637D551D8B420EF15F022EF15F045
:102A400023EF15F0D507C9AF28EF15F02AEF15F0E1
:102A500000EF15F0000ED46FD6AF31EF15F033EF65
:102A600015F04BEF15F0D6C5CFF57F0ECF17D8B4C4
:102A70003CEF15F03EEF15F042EF15F0010ED46F6C
:102A80004BEF15F0C7A147EF15F049EF15F04BEFED
:102A900015F03EEF15F0D451D8B451EF15F053EFC7
:102AA00015F07EEF15F0010EC727000EC823C923CD
:102AB000CA23CAA15EEF15F060EF15F07EEF15F0A6
:102AC000C7C5CFF5C8C5D0F5C9C5D1F5CAC5D2F5BA
:102AD000D235D233D133D033CF33CFC5C7F5D0C5FC
:102AE000C8F5D1C5C9F5D2C5CAF5D529D8B47BEF8B
:102AF00015F07DEF15F07EEF15F0D52BD529D8B464
:102B000084EF15F086EF15F08EEF15F0D551D8A4AF
:102B10008CEF15F08EEF15F0A0EF15F0000EC76FDB
:102B2000000EC86F000EC96F000ECA6FD551D8A431
:102B30009CEF15F09EEF15F0A0EF15F0000ED36F8F
:102B4000D5A1A5EF15F0A7EF15F0AAEF15F0C98FE5
:102B5000ABEF15F0C99FD890D531CA6FD3AFB3EFA3
:102B600015F0B5EF15F0B6EF15F0CA8FC7C5C7F56C
:102B7000C8C5C8F5C9C5C9F5CAC5CAF512001250FD
:102B8000800B1B6E125012241D6E11AECAEF15F091
:102B9000CCEF15F0CDEF15F01D801D50D8B4D3EF5C
:102BA00015F0D5EF15F0EAEF15F01D28D8A4DBEFEE
:102BB00015F0DDEF15F0E5EF15F0000E0F6E000ECD
:102BC000106E000E116E000E126E118E000E126E3F
:102BD000F2EF15F0000E0F6E000E106E000E116E6B
:102BE000000E126E1650800B1C6E1B501C18D8B4B1
:102BF000FCEF15F0FEEF15F0FFEF15F01B8C1650F3
:102C000016241C6E15AE07EF16F009EF16F00AEF4A
:102C100016F01C801C50D8B410EF16F012EF16F00E
:102C200027EF16F01C28D8A418EF16F01AEF16F0AC
:102C300022EF16F0000E136E000E146E000E156ECD
:102C4000000E166E158E000E166E2FEF16F0000E8B
:102C5000136E000E146E000E156E000E166E1D50D3
:102C60001C5CD8B036EF16F038EF16F05FEF16F0B8
:102C70001BAC3DEF16F03FEF16F041EF16F0800E63
:102C80001B1A1DC51EF51CC51DF51EC51CF50FC55F
:102C90001EF513C50FF51EC513F510C51EF514C599
:102CA00010F51EC514F511C51EF515C511F51EC587
:102CB00015F512C51EF516C512F51EC516F5000E42
:102CC0001E6E1D501CC517F5186A175E000E185AA7
:102CD00018BE74EF16F0185009E11A0E175CD8A050
:102CE00074EF16F076EF16F0ADEF16F00F501010EF
:102CF00011101210D8A47FEF16F082EF16F0010E1B
:102D000083EF16F0000E1E6E000E0F6E000E106E9A
:102D1000000E116E000E126E1CC51DF5B6EF16F0FA
:102D20001EA095EF16F097EF16F09DEF16F0D890D5
:102D30001E3001091E6E9FEF16F0D8901E320FA0B4
:102D4000A4EF16F0A6EF16F0A7EF16F01E8E1234C1
:102D50001232113210320F321D2A1C501D5CD8A0C5
:102D6000B4EF16F0B6EF16F090EF16F01BBCBBEF09
:102D700016F0BDEF16F0FDEF16F01D50D8A4C3EF0E
:102D800016F0C5EF16F0CFEF16F0000E0F6E000E26
:102D9000106E000E116E000E126E1EEF18F0135022
:102DA0000F2614501022155011221650122212A074
:102DB000DCEF16F0DEEF16F08AEF17F01EA0E3EF5F
:102DC00016F0E5EF16F0EBEF16F0D8901E30010983
:102DD0001E6EEDEF16F0D8901E320FA0F2EF16F037
:102DE000F4EF16F0F5EF16F01E8E12341232113297
:102DF00010320F321D2A8AEF17F013500F5C145057
:102E00001058155011581250800A176E1650800A2B
:102E10001758D8B00EEF17F010EF17F03BEF17F080
:102E20000F50135C176E10501458186E115015582F
:102E3000196E125016581A6EFF0E17240F6EFF0EE1
:102E40001820106EFF0E1920116EFF0E1A20126E40
:102E5000800E1B1A1E6C1E50D8A431EF17F033EFF2
:102E600017F043EF17F0010E0F26000E102211226B
:102E7000122243EF17F013500F5E1450105A1550E2
:102E8000115A1650125A0F50101011101210D8A4C7
:102E90004CEF17F04EEF17F083EF17F01E50D8A449
:102EA00054EF17F056EF17F083EF17F0000E0F6E88
:102EB000000E106E000E116E000E126E1EEF18F056
:102EC000D8900F361036113612361EAE6AEF17F054
:102ED0006CEF17F06DEF17F00F801EA072EF17F078
:102EE00074EF17F078EF17F0D8801E367AEF17F0EE
:102EF000D8901E361D50D8B480EF17F082EF17F02F
:102F000083EF17F01D0611AE88EF17F08AEF17F068
:102F100060EF17F0000E1C6E1EAE91EF17F093EFEE
:102F200017F0ABEF17F01EC517F57F0E1716D8B4C4
:102F30009CEF17F09EEF17F0A2EF17F0010E1C6E3A
:102F4000ABEF17F00FA0A7EF17F0A9EF17F0ABEF5B
:102F500017F09EEF17F01C50D8B4B1EF17F0B3EF95
:102F600017F0DEEF17F0010E0F26000E10221122CF
:102F7000122212A0BEEF17F0C0EF17F0DEEF17F02D
:102F80000FC517F510C518F511C519F512C51AF5B5
:102F90001A341A3219321832173217C50FF518C5FC
:102FA00010F519C511F51AC512F51D28D8B4DBEFB7
:102FB00017F0DDEF17F0DEEF17F01D2A1D28D8B44B
:102FC000E4EF17F0E6EF17F0EEEF17F01D50D8A47E
:102FD000ECEF17F0EEEF17F000EF18F0000E0F6EA9
:102FE000000E106E000E116E000E126E1D50D8A451
:102FF000FCEF17F0FEEF17F000EF18F0000E1B6E5D
:103000001DA005EF18F007EF18F00AEF18F0118E69
:103010000BEF18F0119ED8901D30126E1BAE13EFFF
:1030200018F015EF18F016EF18F0128E0FC50FF507
:1030300010C510F511C511F512C512F5120000F0FA
:1030400005017A517C5D7B517D59D8B02AEF18F08B
:103050002CEF18F077EF18F000F005017C51705D4F
:103060000E6E7D5171590F6E0EC559F50FC55AF58B
:103070005B6A5C6A59C501F55AC502F55BC503F583
:103080005CC504F5640E056E000E066E000E076E3C
:10309000000E086E54EC31F001C559F502C55AF521
:1030A00003C55BF504C55CF559C501F55AC502F5C4
:1030B0005BC503F55CC504F505017C517A5D0E6EB8
:1030C0007D517B590F6E0EC505F50FC506F5076AD4
:1030D000086A99EC2DF001C559F502C55AF503C5EA
:1030E0005BF504C55CF5010E5D6EC0EF18F000F0F5
:1030F000050170517C5D0E6E71517D590F6E0EC5CC
:1031000059F50FC55AF55B6A5C6A59C501F55AC590
:1031100002F55BC503F55CC504F5640E056E000E93
:10312000066E000E076E000E086E54EC31F001C5FD
:1031300059F502C55AF503C55BF504C55CF559C5DB
:1031400001F55AC502F55BC503F55CC504F505013B
:103150007A517C5D0E6E7B517D590F6E0EC505F563
:103160000FC506F5076A086A99EC2DF001C559F5F7
:1031700002C55AF503C55BF504C55CF5020E5D6E2C
:1031800005017651785D77517959D8B0CAEF18F0BA
:10319000CCEF18F013EF19F07851765D0E6E79517F
:1031A00077590F6E0EC560F50FC561F5626B636BE5
:1031B0006CC501F56DC502F5036A046A60C505F5C5
:1031C00061C506F562C507F563C508F554EC31F035
:1031D00001C560F502C561F503C562F504C563F577
:1031E00060C501F561C502F562C503F563C504F567
:1031F000640E056E000E066E000E076E000E086E61
:1032000099EC2DF0050178510124606F795102206D
:10321000616F000E0320626F000E0420636F040EC6
:103220005D6E5CEF19F000F005016E51785D0E6E79
:103230006F5179590F6E0EC560F50FC561F5626B60
:10324000636B60C501F561C502F562C503F563C531
:1032500004F5640E056E000E066E000E076E000E7D
:10326000086E54EC31F001C560F502C561F503C587
:1032700062F504C563F560C501F561C502F562C577
:1032800003F563C504F505017651785D0E6E77513F
:1032900079590F6E0EC505F50FC506F5076A086A60
:1032A00099EC2DF001C560F502C561F503C562F525
:1032B00004C563F5020E5D6E59507F0B0501946FD6
:1032C00060517F0B936F94519325016E026A023611
:1032D000000E046E020E036ED6EC2CF001500501B8
:1032E000926F00F0140E050170250E6E000E712114
:1032F0000F6E106A116A59500E5C5A500F585B508D
:1033000010585C501158D8A088EF19F08AEF19F0C6
:10331000A1EF19F0EC0E70250E6EFF0E71210F6EED
:10332000106A116A0E50595C0F505A5810505B5871
:1033300011505C58D8B09FEF19F0A1EF19F0A4EF2D
:1033400019F09181A6EF19F0FE0E9113140E6E255F
:103350000E6E000E6F210F6E106A116A60510E5CC6
:1033600061510F586251105863511158D8A0BBEFEA
:1033700019F0BDEF19F0D4EF19F0EC0E6E250E6EBA
:10338000FF0E6F210F6E106A116A0E50605D0F50B4
:1033900061591050625911506359D8B0D2EF19F0E9
:1033A000D4EF19F0D7EF19F09183D9EF19F0FD0E92
:1033B0009113050E5D18D8A4E0EF19F0E2EF19F0B3
:1033C000E5EF19F09185FEEF19F0090E5D18D8A40C
:1033D000ECEF19F0EEEF19F0F1EF19F09195FEEF27
:1033E00019F0060E5D18D8A4F8EF19F0FAEF19F0ED
:1033F000FCEF19F0EEEF19F0E2EF19F0120000F017
:1034000005018251845D83518559D8B00AEF1AF0C5
:103410000CEF1AF055EF1AF000F005018451745DBD
:103420000E6E855175590F6E0EC568F50FC569F59D
:103430006A6B6B6B68C501F569C502F56AC503F572
:103440006BC504F5640E056E000E066E000E076E69
:10345000000E086E54EC31F001C568F502C569F53F
:1034600003C56AF504C56BF568C501F569C502F5C4
:103470006AC503F56BC504F505018451825D0E6EC6
:10348000855183590F6E0EC505F50FC506F5076A00
:10349000086A99EC2DF001C568F502C569F503C508
:1034A0006AF504C56BF59AEF1AF07451845D0E6EDF
:1034B000755185590F6E0EC568F50FC569F56A6BB4
:1034C0006B6B68C501F569C502F56AC503F56BC587
:1034D00004F5640E056E000E066E000E076E000EFB
:1034E000086E54EC31F001C568F502C569F503C5F5
:1034F0006AF504C56BF568C501F569C502F56AC5CD
:1035000003F56BC504F505018251845D0E6E835190
:1035100085590F6E0EC505F50FC506F5076A086AD1
:1035200099EC2DF001C568F502C569F503C56AF58A
:1035300004C56BF505017E51805D7F518159D8B07E
:10354000A4EF1AF0A6EF1AF0EFEF1AF000F0050161
:103550008051725D0E6E815173590F6E0EC564F508
:103560000FC565F5666B676B64C501F565C502F54A
:1035700066C503F567C504F5640E056E000E066E9C
:10358000000E076E000E086E54EC31F001C564F5B4
:1035900002C565F503C566F504C567F564C501F5A3
:1035A00065C502F566C503F567C504F505018051DB
:1035B0007E5D0E6E81517F590F6E0EC505F50FC5EC
:1035C00006F5076A086A99EC2DF001C564F502C595
:1035D00065F503C566F504C567F536EF1BF000F029
:1035E00005017251805D0E6E735181590F6E0EC5CB
:1035F00064F50FC565F5666B676B64C501F565C558
:1036000002F566C503F567C504F5640E056E000E88
:10361000066E000E076E000E086E54EC31F001C508
:1036200064F502C565F503C566F504C567F564C5AF
:1036300001F565C502F566C503F567C504F5050125
:103640007E51805D0E6E7F5181590F6E0EC505F55E
:103650000FC506F5076A086A99EC2DF001C564F5F7
:1036600002C565F503C566F504C567F50501685132
:103670007F0B966F64517F0B956F96519525016E68
:10368000026A0236000E046E020E036ED6EC2CF0B7
:1036900001500501B56F00F01200610038F4D9F453
:1036A00061003CF4DAF4610078F313F5610078F31B
:1036B00014F5610078F315F5610078F316F520EE46
:1036C00004F00E50D9260F50DA22DFA06AEF1BF06B
:1036D0006CEF1BF0A6EF1BF020EE01F00C50D9268A
:1036E0000D50DA221338E842F80BF80BDF6E050EA6
:1036F000106ED8901632153214321332102E79EF24
:103700001BF020EE02F00C50D9260D50DA22610099
:103710004CF4DFF414C513F515C514F516C515F5ED
:10372000166A20EE03F00C50D9260D50DA22135001
:103730001F0BDF6E050E106ED89016321532143244
:103740001332102E9CEF1BF0BEEF1BF020EE03F0A7
:103750000C50D9260D50DA22000EDF6E10EE02F06A
:103760000C50E1260D50E222DFC4E7F420EE01F018
:103770000C50D9260D50DA22E7C4DFF4610030F492
:10378000D9F4610034F4DAF461004CF4DFF414C5C8
:1037900013F515C514F516C515F5166A13C510F5FC
:1037A000070E101620EE01F00C50D9260D50DA222B
:1037B0001050DF1220EE04F00E50D9260F50DA22FE
:1037C000DF30E8320F0B126E20EE04F00E50D926D7
:1037D0000F50DA22DFB0EFEF1BF0F3EF1BF0106AAF
:1037E000102AF4EF1BF0106A1038F00B121220EEC2
:1037F00004F00E50D9260F50DA22DFB202EF1CF08F
:1038000006EF1CF0200E106E07EF1CF0106A10502F
:10381000121220EE04F00E50D9260F50DA22DFBE2D
:1038200014EF1CF018EF1CF0400E106E19EF1CF096
:10383000106A1050121220EE04F00E50D9260F50CC
:10384000DA22DFBC26EF1CF02AEF1CF0800E106E8F
:103850002BEF1CF0106A1050121220EE04F00C50E6
:10386000D9260D50DA22610048F4DFF420EE04F08E
:103870000E50D9260F50DA22DFB241EF1CF043EF91
:103880001CF06FEF1CF0080E0C24016E000E0D20D2
:10389000026E20EE05F00E50D9260F50DA2261009C
:1038A00078F303F5610074F304F520EE04F00E5094
:1038B000D9260F50DA22DF30E8320F0B106E116A72
:1038C000270E1024F66E260E1120F76EF86A000EF1
:1038D000F8220800F550056E066AB7EC31F01200C8
:1038E00020EE04F00C50D9260D50DA22DF50166E6F
:1038F00016C510F520EE04F00E50D9260F50DA222E
:1039000010461046DF501018C30B1018DF6E16B8A3
:103910008CEF1CF090EF1CF0106A102A91EF1CF055
:10392000106A20EE04F00E50D9260F50DA22DF5034
:103930001018FE0B1018DF6E16BAA1EF1CF0A5EFE1
:103940001CF0106A102AA6EF1CF0106A20EE04F09A
:103950000E50D9260F50DA221046DF501018FD0BFA
:103960001018DF6E16BCB7EF1CF0BBEF1CF0106A2E
:10397000102ABCEF1CF0106A20EE04F00E50D9267D
:103980000F50DA2210321032DF5010187F0B10184F
:10399000DF6E16BECEEF1CF0D2EF1CF0106A102ABC
:1039A000D3EF1CF0106A20EE04F00E50D9260F5011
:1039B000DA22103A10461046DF501018BF0B1018CC
:1039C000DF6E20EE01F00C50D9260D50DA22DF50C8
:1039D000106E070E10161050126E136A146A156AD4
:1039E00014C515F513C514F512C513F5126A610057
:1039F00030F4D9F4610034F4DAF4DF50106E105072
:103A0000121220EE04F00E50D9260F50DA22DFA059
:103A10000CEF1DF00EEF1DF04FEF1DF0050ED890CE
:103A20001236133614361536E82E0FEF1DF020EE41
:103A300003F00C50D9260D50DA22DF50106E1F0E05
:103A400010161050121214C515F513C514F512C531
:103A500013F5126A20EE02F00C50D9260D50DA222E
:103A6000DF50106E10501212050ED8901236133619
:103A700014361536E82E35EF1DF020EE01F00C500F
:103A8000D9260D50DA22DF50106ED8901032D8901F
:103A90001032D89010321F0E101610501212610002
:103AA00038F4D9F461003CF4DAF4610048F4DEF44F
:103AB00061004CF4DEF4610050F4DEF4610054F473
:103AC000DEF4460E016E060E026E080E0C24036E26
:103AD000000E0D20046E20EE04F00E50D9260F507B
:103AE000DA22DF30E8320F0B106E116A270E102435
:103AF000F66E260E1120F76EF86A000EF822080006
:103B0000F550056E066AB7EC31F020EE05F00E5068
:103B1000D9260F50DA22460EDE6E060EDD6E12003A
:103B2000020E0301F96F3F0EFA6F000ED86F000E00
:103B3000FB6F000ED96F000EDA6F000EDB6F000E08
:103B4000DC6F000EDF6F000EE06F000EE36F000E03
:103B5000E46F000EE56F000EE66F000EE76F000EDB
:103B6000EA6F000EEB6F100EEC6FE80EEE6F030EB7
:103B7000EF6F000EF06F000EF16F000EF26F000E8F
:103B8000F36F000EF46F100EF56F000EF66F000E5F
:103B9000F76F000EF86F000EFC6F010EFB6F000E4A
:103BA000D96F000EDA6F000EDB6F000EDC6F000EB7
:103BB000DF6F000EE06F000EE36F000EE46F000E8B
:103BC000E56F000EE66F000EE76F000EEA6F000E65
:103BD000EB6F040EEC6FE80EEE6F030EEF6F000E4E
:103BE000F06F000EF16F000EF26F000EF36F000E1B
:103BF000F46F100EF56F000EF66F000EF76F000EEB
:103C0000F86F000EFD6F020EFB6F000ED96F000EF5
:103C1000DA6F000EDB6F000EDC6F000EDF6F000E40
:103C2000E06F000EE36F000EE46F000EE56F000E14
:103C3000E66F000EE76F000EEA6F000EEB6F120EDC
:103C4000EC6FE80EEE6F030EEF6F000EF06F000EDC
:103C5000F16F000EF26F000EF36F000EF46F100E96
:103C6000F56F000EF66F000EF76F000EF86F000E86
:103C7000FE6F030EFB6F000ED96F000EDA6F000EA1
:103C8000DB6F000EDC6F000EDF6F000EE06F000ECA
:103C9000E36F000EE46F000EE56F000EE66F000E9E
:103CA000E76F000EEA6F000EEB6F110EEC6FE80E7F
:103CB000EE6F030EEF6F000EF06F000EF16F000E4F
:103CC000F26F000EF36F000EF46F100EF56F000E22
:103CD000F66F000EF76F000EF86F000EFF6FAF94D7
:103CE000AF96B090B092B094B096000E0501B96F47
:103CF000000EBA6F49EC36F0000E0501B96F000EE8
:103D0000BA6F3FEC36F0000E0501B96F000EBA6FC6
:103D10003AEC36F0000E0501B96F000EBA6F35ECC3
:103D200036F0000E0501B96F000EBA6F30EC36F0B8
:103D3000000E0501B96F000EBA6F44EC36F0840E28
:103D40000301F36F12000FEC2CF00009D8B4ABEFB5
:103D50001EF0ADEF1EF0B3EF1FF0560E216E060EF3
:103D6000226E37EC32F0E806D8A4B9EF1EF0BBEFB4
:103D70001EF0B3EF1FF000F056C649F557C64AF5DE
:103D800058C64BF559C64CF561006CF9D9F4610081
:103D900070F9DAF4DF50546E060120EE01F05B5149
:103DA000D9265C51DA22DF50536E20EE02F05B51CF
:103DB000D9265C51DA22DF50506E20EE03F05B51C1
:103DC000D9265C51DA22DF50516E20EE04F05B51AF
:103DD000D9265C51DA22DF50526E20EE05F05B519D
:103DE000D9265C51DA22DF504D6E20EE06F05B5191
:103DF000D9265C51DA22DF504E6E20EE07F05B517F
:103E0000D9265C51DA22DF504F6E6DEF1FF054C59A
:103E1000B3F553C5B2F550C5B1F551C5B0F552C5AE
:103E2000AFF55E04D8A417EF1FF019EF1FF0B3EF42
:103E30001FF0010E336E0501B2511FEC2FF0010E81
:103E4000366E0501B35147EC22F0010E0501B46F47
:103E5000B3EF1FF05450070B0501AE6F5450180B11
:103E6000AD6F5450E00BAC6F5350010BAB6F535020
:103E7000060BAA6F5350780BA96FB3EF1FF054C510
:103E8000A7F553C5A6F550C5A5F551C5A4F552C56E
:103E9000A3F54DC5A2F54EC5A1F54FC5A0F5B3EFED
:103EA0001FF054C55EF55E50ACEC32F0B3EF1FF07E
:103EB00054C59DF55E50D8A460EF1FF062EF1FF06F
:103EC000B3EF1FF0000E336E05019D511FEC2FF074
:103ED000B3EF1FF000F0B3EF1FF049C545F54AC539
:103EE00046F54BC547F54CC548F54850000AD8B4CF
:103EF000ACEF1FF06AEF1FF04650030AD8B48BEF07
:103F00001FF0070AD8B496EF1FF0010AD8B49DEF4E
:103F10001FF06AEF1FF04550200AD8B407EF1FF0DA
:103F2000670AD8B451EF1FF06AEF1FF04550120A2C
:103F3000D8B458EF1FF06AEF1FF04550000AD8B40C
:103F40002AEF1FF0010AD8B43FEF1FF0030AD8B4DC
:103F5000B3EF1FF06AEF1FF04750000AD8B47CEFB0
:103F60001FF06AEF1FF012000501F16F000E05014E
:103F7000F96F000EFA6F000EF36F000EF26F000E75
:103F8000F56F000EF46F000EF76F000EF66F000E67
:103F9000FC6F000EFB6F00F005019C05D8A4D3EF69
:103FA0001FF0D5EF1FF086EF20F092C5F8F5F8511D
:103FB000F15DB86FB851F9278C51B85DFA6FB851FF
:103FC000B96FBA6BB9BFBA07000EBC6F000EBB6FFA
:103FD00025EC34F0B9C5F2F5BAC5F3F50501F95190
:103FE000B96FBA6BB9BFBA07000EBC6F050EBB6FD5
:103FF00025EC34F0B9C5F4F5BAC5F5F50501FA516B
:10400000B96FBA6BB9BFBA07000EBC6F000EBB6FB9
:1040100025EC34F0B9C5F6F5BAC5F7F50501F4514C
:10402000F225EF6FF551F321F06FF651EF25FB6F9D
:10403000F751F021FC6FFCBF28EF20F0FC5106E1A6
:10404000FB05D8B026EF20F028EF20F02EEF20F06F
:10405000000EFC6F000EFB6F5FEF20F0FCBF39EF2E
:1040600020F0FC5108E1FB05D8A039EF20F03BEF30
:1040700020F04BEF20F0FCBF49EF20F0FC5107E1AE
:10408000640EFB5DD8B047EF20F049EF20F04BEF16
:1040900020F05FEF20F0FCBF57EF20F0FC5109E16A
:1040A000650EFB5DD8A057EF20F059EF20F05FEFD1
:1040B00020F0000EFC6F640EFB6F5FEF20F05E508F
:1040C000EE19D8A466EF20F068EF20F082EF20F020
:1040D0005E04D8A46EEF20F070EF20F077EF20F0B0
:1040E000010EEB6FFB51EBEC2DF082EF20F05E50F8
:1040F000D8A47DEF20F07FEF20F082EF20F0FB517D
:10410000C8EC34F0B8C58CF590EF20F0000EE26FEB
:10411000000EE16F020EE46F580EE36F97EC27F08C
:1041200012000501C16F0501C151D8B49AEF20F00A
:104130009CEF20F0BEEF20F0BCBFA3EF20F0A1EF7A
:1041400020F0BEEF20F0B9C5BDF5BAC5BEF5BBC5C0
:10415000BFF5BCC5C0F5BD1FBE1FBF1FC01FBD2B17
:10416000000EBE23BF23C023BDC5C3F5BEC5C4F525
:10417000BFC5C5F5C0C5C6F5C6EF20F0B9C5C3F5C6
:10418000BAC5C4F5BBC5C5F5BCC5C6F5B951BA11AC
:10419000BB11BC11D8A4CFEF20F0D1EF20F0DBEFA2
:1041A00020F0000EB96F000EBA6F000EBB6F000E4C
:1041B000BC6F6CEF21F0960EC26FE5EF20F0C22BC2
:1041C000D890C633C533C433C333000EC315BD6F97
:1041D000000EC415BE6F000EC515BF6FFE0EC615CE
:1041E000C06FBD51BE11BF11C011D8A4FAEF20F0AD
:1041F000FCEF20F0DFEF20F00AEF21F0C22B010EE0
:10420000C327000EC423C523C623D890C633C533A5
:10421000C433C333000EC315BD6F000EC415BE6F8B
:10422000000EC515BF6FFF0EC615C06FBD51BE1184
:10423000BF11C011D8A41FEF21F021EF21F0FEEF34
:1042400020F029EF21F0C207D890C337C437C53713
:10425000C637C5BF2EEF21F030EF21F038EF21F047
:10426000020EC26136EF21F038EF21F023EF21F08A
:10427000C2B13DEF21F03FEF21F040EF21F0C59FAB
:10428000D890C233C2C5BDF5BE6BBF6BC06BBDC598
:10429000C0F5BF6BBE6BBD6BBD51C313BE51C41324
:1042A000BF51C513C051C613C151D8B45AEF21F044
:1042B0005CEF21F064EF21F0BCBF63EF21F061EF10
:1042C00021F064EF21F0C68FC3C5B9F5C4C5BAF5B6
:1042D000C5C5BBF5C6C5BCF51200096E0950D8B4FA
:1042E00074EF21F076EF21F098EF21F004BE7DEF1E
:1042F00021F07BEF21F098EF21F001C505F502C513
:1043000006F503C507F504C508F5051E061E071EBC
:10431000081E052A000E06220722082205C50BF5F5
:1043200006C50CF507C50DF508C50EF5A0EF21F083
:1043300001C50BF502C50CF503C50DF504C50EF559
:104340000150021003100410D8A4A9EF21F0ABEF24
:1043500021F0B5EF21F0000E016E000E026E000E8E
:10436000036E000E046E46EF22F0960E0A6EBFEF4B
:1043700021F00A2AD8900E320D320C320B32000E88
:104380000B14056E000E0C14066E000E0D14076E55
:10439000FE0E0E14086E0550061007100810D8A463
:1043A000D4EF21F0D6EF21F0B9EF21F0E4EF21F0C6
:1043B0000A2A010E0B26000E0C220D220E22D89086
:1043C0000E320D320C320B32000E0B14056E000E45
:1043D0000C14066E000E0D14076EFF0E0E14086E00
:1043E0000550061007100810D8A4F9EF21F0FBEFD4
:1043F00021F0D8EF21F003EF22F00A06D8900B3617
:104400000C360D360E360DBE08EF22F00AEF22F004
:1044100012EF22F0020E0A6010EF22F012EF22F0EB
:10442000FDEF21F00AB017EF22F019EF22F01AEF9A
:1044300022F00D9ED8900A320AC505F5066A076A71
:10444000086A05C508F5076A066A056A05500B1271
:1044500006500C1207500D1208500E120950D8B415
:1044600034EF22F036EF22F03EEF22F004BE3DEFB3
:1044700022F03BEF22F03EEF22F00E8E0BC501F54D
:104480000CC502F50DC503F50EC504F51200396E15
:10449000000E416E000E426E000E3B6E000E3A6E34
:1044A000000E3D6E000E3C6E000E3F6E000E3E6E26
:1044B000000E446E000E436E00F005019C05D8A46A
:1044C00064EF22F066EF22F014EF23F092C540F57E
:1044D0004050395CB86FB85141268C51B85D426E7E
:1044E000B851016E026A01BE0206000E046E000E93
:1044F000036E66EC34F001C53AF502C53BF5415058
:10450000016E026A01BE0206000E046E050E036E05
:1045100066EC34F001C53CF502C53DF54250016E34
:10452000026A01BE0206000E046E000E036E66EC07
:1045300034F001C53EF502C53FF53C503A24376ED4
:104540003D503B20386E3E503724436E3F5038205C
:10455000446E44BEB6EF22F0445006E14304D8B0A6
:10456000B4EF22F0B6EF22F0BCEF22F0000E446E62
:10457000000E436EEDEF22F044BEC7EF22F0445030
:1045800008E14304D8A0C7EF22F0C9EF22F0D9EF29
:1045900022F044BED7EF22F0445007E1640E435CA2
:1045A000D8B0D5EF22F0D7EF22F0D9EF22F0EDEF1F
:1045B00022F044BEE5EF22F0445009E1650E435C71
:1045C000D8A0E5EF22F0E7EF22F0EDEF22F0000EA9
:1045D000446E640E436EEDEF22F05E503618D8A4A0
:1045E000F4EF22F0F6EF22F010EF23F05E04D8A4EF
:1045F000FCEF22F0FEEF22F005EF23F0010E336E08
:10460000435086EC2EF010EF23F05E50D8A40BEF51
:1046100023F00DEF23F010EF23F04350E8EC34F0DB
:10462000B8C58CF51EEF23F0000E2A6E000E296E21
:10463000020E2C6E580E2B6E02EC29F012000101B6
:104640001DAF25EF23F027EF23F036EF23F002D83C
:1046500034EF23F00500FA6E06014251FD6E43511E
:10466000FE6EFF6AFA50120001011D9F1DAD3BEF67
:1046700023F03DEF23F04CEF23F002D84AEF23F074
:104680000500FA6E06014051FD6E4151FE6EFF6A53
:10469000FA50120001011D9D1DAB51EF23F053EFA5
:1046A00023F062EF23F002D860EF23F00500FA6EEA
:1046B00006013E51FD6E3F51FE6EFF6AFA50120038
:1046C00001011D9B1CA767EF23F069EF23F078EF32
:1046D00023F002D876EF23F00500FA6E06013C5174
:1046E000FD6E3D51FE6EFF6AFA50120001011C97EB
:1046F0001DA97DEF23F07FEF23F08EEF23F002D88A
:104700008CEF23F00500FA6E06013A51FD6E3B5125
:10471000FE6EFF6AFA50120001011D991DA593EF6C
:1047200023F095EF23F0ABEF23F002D8A2EF23F0B4
:104730000500FA6E06013851FD6E3951FE6EFF6AB2
:10474000FA501200010154A9A8EF23F0AAEF23F0B8
:10475000ABEF23F054991DA7B0EF23F0B2EF23F095
:10476000C8EF23F002D8BFEF23F00500FA6E060170
:104770003651FD6E3751FE6EFF6AFA50120001018C
:1047800060A7C5EF23F0C7EF23F0C8EF23F06097D1
:10479000AE9C12000501C26F0DEF24F058EC36F00C
:1047A000000EBDEC35F0100EEDEC32F0B9C5C3F5DE
:1047B000BAC5C4F5010E0501C56F2BEF24F058EC06
:1047C00036F0010EBDEC35F0040EEDEC32F0B9C55B
:1047D000C3F5BAC5C4F5DAEF23F058EC36F0020E93
:1047E000BDEC35F0120EEDEC32F0B9C5C3F5BAC52B
:1047F000C4F5DAEF23F058EC36F0030EBDEC35F0DB
:10480000110EEDEC32F0B9C5C3F5BAC5C4F5DAEF57
:1048100023F0020EC56F2BEF24F00501C251C06FCB
:10482000C16BC151000AD8B418EF24F009EF24F08D
:10483000C051010AD8B4EDEF23F0030AD8B4FBEF5E
:1048400023F0010AD8B4CEEF23F0070AD8B4DFEF83
:1048500023F009EF24F0C505D8A431EF24F033EF9D
:1048600024F061EF24F0C45107E1070EC35DD8B016
:104870003CEF24F03EEF24F044EF24F0000EC76F2D
:10488000000EC66F4EEF24F0C3C5C6F5C4C5C7F50C
:10489000FB0EC625C66FFF0EC721C76F890EC65D0A
:1048A000130EC759D8A057EF24F059EF24F05BEF4F
:1048B00024F061EF24F0C6C5BEF5C7C5BFF561EFB2
:1048C00024F012000A6EA3EF24F05BEC36F0000E29
:1048D00053EC36F0100E81EC33F001C50BF502C538
:1048E0000CF5010E0D6EC0EF24F05BEC36F0010EFE
:1048F00053EC36F0040E81EC33F001C50BF502C524
:104900000CF571EF24F05BEC36F0020E53EC36F050
:10491000120E81EC33F001C50BF502C50CF571EFF9
:1049200024F05BEC36F0030E53EC36F0110E81EC04
:1049300033F001C50BF502C50CF571EF24F0020E42
:104940000D6EC0EF24F00A50086E096A0950000A83
:10495000D8B4ADEF24F09FEF24F00850010AD8B48A
:1049600083EF24F0030AD8B491EF24F0010AD8B4FD
:1049700065EF24F0070AD8B475EF24F09FEF24F018
:104980000D04D8A4C6EF24F0C8EF24F0F6EF24F00D
:104990000C5007E1070E0B5CD8B0D1EF24F0D3EF39
:1049A00024F0D9EF24F0000E0F6E000E0E6EE3EF30
:1049B00024F00BC50EF50CC50FF5FB0E0E240E6E84
:1049C000FF0E0F200F6E890E0E5C130E0F58D8A02D
:1049D000ECEF24F0EEEF24F0F0EF24F0F6EF24F00B
:1049E0000EC506F50FC507F5F6EF24F01200000E10
:1049F0000501E26F000EE16F020EE46F580EE36FE7
:104A000097EC27F0030E0501EC6F8A0EEB6F550E45
:104A1000E82EFED7EB2FFCD7EC2FFAD700D050ECC6
:104A200035F0020E0501EC6F450EEB6FA90EE82E76
:104A3000FED7EB2FFCD7EC2FFAD700D000F0000EFA
:104A40000501E26F640EE16F020EE46F580EE36F32
:104A500097EC27F0070E0501EC6F580EEB6F590E1F
:104A6000E82EFED7EB2FFCD7EC2FFAD700D045EC81
:104A700035F0020E0501EC6F450EEB6FA90EE82E26
:104A8000FED7EB2FFCD7EC2FFAD700D000F0000EAA
:104A90000501E26F000EE16F020EE46F580EE36F46
:104AA00097EC27F0000E0501E26F320EE16F010E68
:104AB000E46F900EE36F97EC27F0030E0501EC6FA7
:104AC0008A0EEB6F550EE82EFED7EB2FFCD7EC2F9E
:104AD000FAD700D0000E0501E26F320EE16F020E30
:104AE000E46F580EE36F97EC27F0030E0501EC6FAF
:104AF0008A0EEB6F550EE82EFED7EB2FFCD7EC2F6E
:104B0000FAD700D01200000E0501C26FC0BF8DEFB2
:104B100025F08BEF25F097EF25F0C01FBF1FBE1FBC
:104B2000BD6D000EBE23BF23C023010EC26FBCBFEC
:104B30009EEF25F09CEF25F0A8EF25F0BC1FBB1FD2
:104B4000BA1FB96D000EBA23BB23BC23010EC21BD2
:104B5000000EC36F000EC46F000EC56F000EC66F4F
:104B6000BD51BE11BF11C011D8B4B9EF25F0BBEFD4
:104B700025F0F1EF25F0010EC16FC5EF25F0D890BB
:104B8000BD37BE37BF37C037C12BC0AFCAEF25F026
:104B9000CCEF25F0BFEF25F0D890C337C437C53729
:104BA000C637BD51B95DBE51BA59BF51BB59C0518D
:104BB000BC59D8A0DEEF25F0E0EF25F0E9EF25F0B5
:104BC000BD51B95FBE51BA5BBF51BB5BC051BC5B4D
:104BD000C381D890C033BF33BE33BD33C12FCCEFB8
:104BE00025F0C251D8B4F7EF25F0F9EF25F001EF29
:104BF00026F0C61FC51FC41FC36D000EC423C523E6
:104C0000C623C3C5B9F5C4C5BAF5C5C5BBF5C6C588
:104C1000BCF51200000E0A6E08BE13EF26F011EF6D
:104C200026F01DEF26F0081E071E061E056C000E5E
:104C3000062207220822010E0A6E04BE24EF26F087
:104C400022EF26F02EEF26F0041E031E021E016C3A
:104C5000000E022203220422010E0A1A000E0B6E1D
:104C6000000E0C6E000E0D6E000E0E6E055006103E
:104C700007100810D8B43FEF26F041EF26F077EF89
:104C800026F0010E096E4BEF26F0D8900536063659
:104C900007360836092A08AE50EF26F052EF26F004
:104CA00045EF26F0D8900B360C360D360E360550F3
:104CB000015C065002580750035808500458D8A009
:104CC00064EF26F066EF26F06FEF26F00550015EE8
:104CD0000650025A0750035A0850045A0B80D890C5
:104CE0000832073206320532092E52EF26F00A50FA
:104CF000D8B47DEF26F07FEF26F087EF26F00E1E6A
:104D00000D1E0C1E0B6C000E0C220D220E220BC56C
:104D100001F50CC502F50DC503F50EC504F512002D
:104D20000501D935DA35E06FE051D8A49AEF26F0C5
:104D30009CEF26F0A6EF26F0000ED76F000ED86F7E
:104D4000000ED96F000EDA6F13EF27F0D7C5DBF531
:104D5000D8C5DCF5D9C5DDF5DAC5DEF5200EB6EF30
:104D600026F0D890DE33DD33DC33DB33E82EB1EFD1
:104D700026F0DB51DF6FD98FFF0ED717FF0ED81744
:104D8000FF0ED917000EDA17960EE05FE0BFCDEFE9
:104D900026F0CBEF26F0E3EF26F0E051800A970FE4
:104DA000D8B0D5EF26F0D7EF26F0D9EF26F09CEF5C
:104DB00026F0D890DA33D933D833D733E03FD9EF60
:104DC00026F0FBEF26F01F0EE065E9EF26F0EBEF93
:104DD00026F0F3EF26F09CEF26F0D890D737D8379F
:104DE000D937DA37E007E051D8A4F9EF26F0FBEF26
:104DF00026F0EDEF26F0DF51D8B401EF27F003EFF6
:104E000027F00BEF27F0DA1FD91FD81FD76D000E40
:104E1000D823D923DA23D7C5D7F5D8C5D8F5D9C52E
:104E2000D9F5DAC5DAF5120021342234286E28507B
:104E3000D8A41DEF27F01FEF27F029EF27F0000E71
:104E40001F6E000E206E000E216E000E226E96EF79
:104E500027F01FC523F520C524F521C525F522C55A
:104E600026F5200E39EF27F0D8902632253224324D
:104E70002332E82E34EF27F02350276E218EFF0EC9
:104E80001F16FF0E2016FF0E2116000E2216960E7C
:104E9000285E28BE50EF27F04EEF27F066EF27F090
:104EA0002850800A970FD8B058EF27F05AEF27F014
:104EB0005CEF27F01FEF27F0D8902232213220320A
:104EC0001F32283E5CEF27F07EEF27F01F0E28648C
:104ED0006CEF27F06EEF27F076EF27F01FEF27F04B
:104EE000D8901F3620362136223628062850D8A4DE
:104EF0007CEF27F07EEF27F070EF27F02750D8B433
:104F000084EF27F086EF27F08EEF27F0221E211E78
:104F1000201E1F6C000E2022212222221FC51FF5F9
:104F200020C520F521C521F522C522F51200490E24
:104F30000501B96F990EBA6F000EBB6F000EBC6F02
:104F4000E3C5BDF5E4C5BEF5BF6BC06B83EC25F0D2
:104F5000B9C5E7F5BAC5E8F56A0E0501CB6F4D0E88
:104F6000CC6F930ECD6FBF0ECE6FE7C5B9F5E8C518
:104F7000BAF5BB6BBC6B000E91EC20F0B9C5C7F560
:104F8000BAC5C8F5BBC5C9F5BCC5CAF55EEC13F01A
:104F9000C7C5D7F5C8C5D8F5C9C5D9F5CAC5DAF5A5
:104FA00090EC26F0D7C5E7F5D8C5E8F5E1C5E5F5FD
:104FB000E2C5E6F50501D890E537E637D890E53744
:104FC000E637E5C5E9F5E6C5EAF5E9C5B9F5EAC5A7
:104FD000BAF5000EBC6F640EBB6F25EC34F0B9C59A
:104FE000E9F5BAC5EAF5E9C5B9F5EAC5BAF5E3C523
:104FF000BBF5E4C5BCF531EC30F0B9C5E9F5BAC58F
:10500000EAF5E9C5B9F5EAC5BAF5A1EC35F0E7C5A9
:10501000B9F5E8C5BAF59AEC35F063EC36F0120054
:10502000010E0501EB6F000E39EC2EF074EC2CF044
:1050300005019805D8A41FEF28F021EF28F046EFCE
:1050400028F0010EEB6F1E0E39EC2EF0030E050159
:10505000EE6F8A0EED6F550EE82EFED7ED2FFCD7C2
:10506000EE2FFAD700D0010E0501EB6F320E39ECAE
:105070002EF0030E0501EE6F8A0EED6F550EE82E31
:10508000FED7ED2FFCD7EE2FFAD700D074EC2CF022
:10509000030E05019819D8A450EF28F052EF28F01C
:1050A00077EF28F0010EEB6F460E39EC2EF0030E71
:1050B0000501EE6F8A0EED6F550EE82EFED7ED2F2F
:1050C000FCD7EE2FFAD700D0010E0501EB6F640E6E
:1050D00039EC2EF0020E0501EE6FE70EED6F000EBB
:1050E000E82EFED7ED2FFCD7EE2FFAD700F074ECA8
:1050F0002CF0020E05019819D8A481EF28F083EF57
:1051000028F088EF28F0010EEB6F000E39EC2EF03E
:105110001200490E0501B96F990EBA6F000EBB6FF0
:10512000000EBC6FE3C5BDF5E4C5BEF5BF6BC06B3B
:1051300083EC25F0B9C5E7F5BAC5E8F56A0E0501B7
:10514000CB6F4D0ECC6F930ECD6FBF0ECE6FE7C5FC
:10515000B9F5E8C5BAF5BB6BBC6B000E91EC20F05D
:10516000B9C5C7F5BAC5C8F5BBC5C9F5BCC5CAF54B
:105170005EEC13F0C7C5D7F5C8C5D8F5C9C5D9F5D4
:10518000CAC5DAF590EC26F0D7C5E7F5D8C5E8F53D
:10519000E1C5E5F5E2C5E6F50501D890E537E63766
:1051A000D890E537E637E5C5E9F5E6C5EAF5E9C59E
:1051B000B9F5EAC5BAF5000EBC6F640EBB6F25ECFD
:1051C00034F0B9C5E9F5BAC5EAF5E9C5B9F5EAC5F6
:1051D000BAF5E3C5BBF5E4C5BCF531EC30F0B9C5B3
:1051E000E9F5BAC5EAF5E9C5B9F5EAC5BAF5AFEC2E
:1051F00035F0E7C5B9F5E8C5BAF5A8EC35F065ECCA
:1052000036F01200490E016E990E026E000E036E0A
:10521000000E046E2BC505F52CC506F5076A086A55
:105220000AEC26F001C52FF502C530F56A0E136EA3
:105230004D0E146E930E156EBF0E166E2FC501F532
:1052400030C502F5036A046A000E6DEC21F001C559
:105250000FF502C510F503C511F504C512F5BFEC35
:1052600015F00FC51FF510C520F511C521F512C5A4
:1052700022F514EC27F01FC52FF520C530F529C500
:105280002DF52AC52EF5D8902D362E36D8902D36F0
:105290002E362DC531F52EC532F531C501F532C595
:1052A00002F5000E046E640E036E66EC34F001C568
:1052B00031F502C532F531C501F532C502F52BC510
:1052C00003F52CC504F51AEC31F001C531F502C522
:1052D00032F531C501F532C502F5C9EC35F02FC5FF
:1052E00001F530C502F5C3EC35F067EC36F012007D
:1052F000490E016E990E026E000E036E000E046ED2
:105300002BC505F52CC506F5076A086A0AEC26F0D8
:1053100001C52FF502C530F56A0E136E4D0E146EE1
:10532000930E156EBF0E166E2FC501F530C502F532
:10533000036A046A000E6DEC21F001C50FF502C589
:1053400010F503C511F504C512F5BFEC15F00FC536
:105350001FF510C520F511C521F512C522F514EC75
:1053600027F01FC52FF520C530F529C52DF52AC515
:105370002EF5D8902D362E36D8902D362E362DC5BA
:1053800031F52EC532F531C501F532C502F5000EF5
:10539000046E640E036E66EC34F001C531F502C58F
:1053A00032F531C501F532C502F52BC503F52CC523
:1053B00004F51AEC31F001C531F502C532F531C5FD
:1053C00001F532C502F5D5EC35F02FC501F530C534
:1053D00002F5CFEC35F069EC36F01200206E000ECD
:1053E0001C6E175039EC35F01F6E1FA0FAEF29F034
:1053F000FCEF29F062EF2AF017500C0D580EF32441
:10540000D96E010EF420DA6E610078F31DF56100AB
:1054100074F31EF51D501E10D8B411EF2AF013EFCF
:105420002AF062EF2AF01DC50CF51EC50DF518C552
:105430000EF519C50FF570EC1CF017500C0D510E40
:10544000F324D96E010EF420DA6E000EDB802050BA
:10545000020DFF0EF324D96E050EF420DA6EDF2A5A
:105460001750F7EC34F01A6E2050020DFF0EF324A3
:10547000D96E050EF420DA6E1A50DE5CD8A043EF28
:105480002AF045EF2AF04FEF2AF02050020DFF0ED0
:10549000F324D96E050EF420DA6E000EDF6E1FA61F
:1054A00054EF2AF056EF2AF060EF2AF017500C0D57
:1054B000540EF324D96E010EF420DA6EF70EDF16C7
:1054C000010E1C6E1C501200060164516511D8B407
:1054D0006CEF2AF06EEF2AF07AEF2AF002D87AEF1A
:1054E0002AF00500FA6E6451FD6E6551FE6EFF6A8A
:1054F000FA501200B6EC35F05F2A060E5F18D8A4F9
:1055000084EF2AF086EF2AF08AEF2AF0000E5F6E11
:1055100088EC32F00501B72B0B0EB719D8A493EF26
:105520002AF095EF2AF099EF2AF0000EB76F6EEC93
:1055300036F00501B62B650EB619D8A4A2EF2AF0F5
:10554000A4EF2AF0A8EF2AF0000EB66F70EC36F048
:105550000601304B312B2D0E301906E13105D8A450
:10556000B4EF2AF0B6EF2AF0BCEF2AF0000E316F4C
:10557000000E306F6DEC36F006012E4B2F2B590EBE
:105580002E1907E1020E2F19D8A4C9EF2AF0CBEF8C
:105590002AF0D1EF2AF0000E2F6F000E2E6F6FEC65
:1055A00036F0120022C54EF623C54FF624C550F63C
:1055B00025C551F626C552F627C553F628C554F61B
:1055C00029C555F61DC55DF61EC55EF61FC55FF6FD
:1055D00020C560F60601619D619F6193619121C5BF
:1055E0002AF50F0E2A162A462A4661512A18C30B9D
:1055F0002A18616F4E0E626F060E636F71EC35F004
:10560000E806D8A406EF2BF008EF2BF009EF2BF0FB
:1056100000F066EC35F0E806D8A411EF2BF013EF9C
:105620002BF014EF2BF000F05BEC35F0E806D8A47B
:105630001CEF2BF01EEF2BF01FEF2BF000F014EC03
:1056400035F0E806D8A427EF2BF029EF2BF02AEF4E
:105650002BF000F0000EA3EC34F02A6E2AA033EFFA
:105660002BF035EF2BF03DEF2BF05D0E176E060E95
:10567000186E000E6BEC2FF000F01200076E000E9B
:10568000086E20EE04F00250D9260350DA22DF50D3
:10569000096E09AE4EEF2BF050EF2BF05BEF2BF0C5
:1056A0004EEC36F0060AD8A458EF2BF05AEF2BF048
:1056B0005BEF2BF008820930E8320F0B046E080E06
:1056C000046465EF2BF067EF2BF079EF2BF009AC5A
:1056D0006CEF2BF06EEF2BF078EF2BF04EEC36F0FA
:1056E000060AD8A476EF2BF078EF2BF079EF2BF0A9
:1056F00008802F0EF66E260EF76EF86A080061001D
:10570000D4F304F50930E8320F0B056E066A270E54
:105710000524F66E260E0620F76EF86A000EF822B3
:105720000800F550045CD8B098EF2BF09AEF2BF0FE
:105730009BEF2BF0088007502DEC35F00009D8A422
:10574000A4EF2BF0A6EF2BF0A8EF2BF0030E08121E
:1057500008501200000ECFB4010E016E000ECEB242
:10576000010E026E00F00104D8A4B9EF2BF0BBEFDC
:105770002BF0CAEF2BF00250D8A4C1EF2BF0C3EFEF
:105780002BF0CAEF2BF0010E0501986F9BC59AF51F
:105790000EEF2CF00150D8A4D0EF2BF0D2EF2BF06D
:1057A000E1EF2BF00204D8A4D8EF2BF0DAEF2BF0C6
:1057B000E1EF2BF0020E0501986F9BC599F50EEFF6
:1057C0002CF00150D8A4E7EF2BF0E9EF2BF0F6EF27
:1057D0002BF00250D8A4EFEF2BF0F1EF2BF0F6EF07
:1057E0002BF0030E0501986F0EEF2CF00104D8A4E6
:1057F000FCEF2BF0FEEF2BF00BEF2CF00204D8A403
:1058000004EF2CF006EF2CF00BEF2CF0040E05014A
:10581000986F0EEF2CF0050E0501986F1200000E28
:10582000036E000E0A6E0A50020DFE0EF324D96EAE
:10583000050EF420DA6EDF50066E065039EC35F0B6
:10584000056E05A026EF2CF028EF2CF069EF2CF068
:105850000650F7EC34F0076E05A631EF2CF033EF6D
:105860002CF037EF2CF007C504F567EF2CF006504D
:105870000C0D550EF324D96E010EF420DA6EDF50B4
:105880001F0B086E0A50020DFF0EF324D96E050E91
:10589000F420DA6EDF50096E0950085CD8B053EF7F
:1058A0002CF055EF2CF05BEF2CF00950085C07242E
:1058B000046E67EF2CF00850095CD8B062EF2CF052
:1058C00064EF2CF033EF2CF00950085C046E0450A8
:1058D00003260A2A0A50D8B470EF2CF072EF2CF08D
:1058E00013EF2CF003501200000ECFB4010E05018F
:1058F000B96F000ECEB2010EBA6F00F00501B90506
:10590000D8A485EF2CF087EF2CF095EF2CF0BA514E
:10591000D8A48DEF2CF08FEF2CF095EF2CF0010E2A
:10592000986F9BC59AF5D5EF2CF0B951D8A49BEF91
:105930002CF09DEF2CF0ABEF2CF0BA05D8A4A3EF20
:105940002CF0A5EF2CF0ABEF2CF0020E986F9BC55E
:1059500099F5D5EF2CF0B951D8A4B1EF2CF0B3EFF5
:105960002CF0BFEF2CF0BA51D8A4B9EF2CF0BBEF5C
:105970002CF0BFEF2CF0030E986FD5EF2CF0B9058B
:10598000D8A4C5EF2CF0C7EF2CF0D3EF2CF0BA055C
:10599000D8A4CDEF2CF0CFEF2CF0D3EF2CF0040EE9
:1059A000986FD5EF2CF0050E986F1200000E066E62
:1059B00004BEDFEF2CF0DDEF2CF0E5EF2CF0036CF4
:1059C000041ED8B0042A010E066E02BEECEF2CF0C5
:1059D000EAEF2CF0F2EF2CF0016C021ED8B0022A94
:1059E000010E061A000E086E000E076E035004101A
:1059F000D8B4FDEF2CF0FFEF2CF027EF2DF0010EC7
:105A0000056E07EF2DF0D89003360436052A04AE54
:105A10000CEF2DF00EEF2DF003EF2DF0D8900736A0
:105A200008360350015C04500258D8A01AEF2DF03C
:105A30001CEF2DF021EF2DF00350015E0450025AAF
:105A40000780D89004320332052E0EEF2DF0065059
:105A5000D8B42DEF2DF02FEF2DF033EF2DF0076C94
:105A6000081ED8B0082A07C501F508C502F51200BE
:105A70006100D8F355F56100DCF356F56100E0F301
:105A800057F56100D4F358F5A1AE49EF2DF04BEF77
:105A90002DF056EF2DF0B1AE50EF2DF052EF2DF06E
:105AA00056EF2DF09AEC33F08CEF2DF0A1A85BEFC0
:105AB0002DF05DEF2DF068EF2DF0B1A862EF2DF025
:105AC00064EF2DF068EF2DF065EC33F08CEF2DF0E6
:105AD0009EAC6DEF2DF06FEF2DF07AEF2DF0AEACA8
:105AE00074EF2DF076EF2DF07AEF2DF01FEC23F010
:105AF0008CEF2DF0A2A87FEF2DF081EF2DF08CEF31
:105B00002DF0B2A886EF2DF088EF2DF08CEF2DF060
:105B10003BEC34F08CEF2DF0610060F5F5F46100A2
:105B20005CF5F8F4610058F5F7F4610054F5F6F40B
:105B30001100000E096E000E0A6E000E0B6E000EB4
:105B40000C6E0550061007100810D8B4AAEF2DF0FF
:105B5000ACEF2DF0E2EF2DF0010E0D6EB6EF2DF053
:105B6000D89005360636073608360D2A08AEBBEF44
:105B70002DF0BDEF2DF0B0EF2DF0D89009360A369C
:105B80000B360C360550015C06500258075003587E
:105B900008500458D8A0CFEF2DF0D1EF2DF0DAEF58
:105BA0002DF00550015E0650025A0750035A085066
:105BB000045A0980D89008320732063205320D2E79
:105BC000BDEF2DF009C501F50AC502F50BC503F5BA
:105BD0000CC504F512000501EC6F05019C05D8A465
:105BE000F4EF2DF0F6EF2DF02EEF2EF0ECC56CF566
:105BF0006D6B5E50EB19D8A400EF2EF002EF2EF083
:105C000038EF2EF05E04D8A408EF2EF00AEF2EF045
:105C100018EF2EF0220E6C25E16F000E6D21E26F61
:105C2000010EE46F2C0EE36F97EC27F038EF2EF0A7
:105C30005E50D8A41EEF2EF020EF2EF02CEF2EF0A9
:105C40006CC5E1F56DC5E2F5010EE46F2C0EE36F56
:105C500097EC27F038EF2EF038EF2EF0000EE26FC1
:105C6000000EE16F020EE46F580EE36F97EC27F021
:105C700012000501EC6F05019C05D8A442EF2EF03F
:105C800044EF2EF07BEF2EF0EC513C0D6100CCF395
:105C900086F56100D0F387F586C5B9F587C5BAF5F5
:105CA000000EBC6F640EBB6F31EC30F0B9C586F5E9
:105CB000BAC587F505018651866F876B5E50EB1973
:105CC000D8A465EF2EF067EF2EF085EF2EF0040ECE
:105CD00098616DEF2EF06FEF2EF085EF2EF086C5F8
:105CE000E1F587C5E2F5010EE46F2C0EE36F89EC58
:105CF00028F085EF2EF0000EE26F000EE16F010E2E
:105D0000E46F2C0EE36F89EC28F01200346E05016D
:105D10009C05D8A48EEF2EF090EF2EF0C8EF2EF059
:105D200034C56CF56D6B5E503318D8A49AEF2EF025
:105D30009CEF2EF0D2EF2EF05E04D8A4A2EF2EF04E
:105D4000A4EF2EF0B2EF2EF0220E6C25296E000E7D
:105D50006D212A6E010E2C6E2C0E2B6E02EC29F09A
:105D6000D2EF2EF05E50D8A4B8EF2EF0BAEF2EF09E
:105D7000C6EF2EF06CC529F56DC52AF5010E2C6E07
:105D80002C0E2B6E02EC29F0D2EF2EF0D2EF2EF07B
:105D9000000E2A6E000E296E020E2C6E580E2B6E0F
:105DA00002EC29F012000501BB6F000E0501BA6F6D
:105DB00008EC36F00501B96F040EB919D8B4E3EF59
:105DC0002EF0E5EF2EF0F6EF2EF0BB05D8B4EBEF9A
:105DD0002EF0EDEF2EF0F6EF2EF0040EBB19D8A446
:105DE000F4EF2EF0F6EF2EF01BEF2FF00101035130
:105DF0000501BB19F80BBB190101036F0DEF2FF063
:105E000001011DA906EF2FF008EF2FF00DEF2FF085
:105E1000020E0501BA6F1DEF2FF00239E832070BB1
:105E20000501BB19D8A417EF2FF019EF2FF000EFE1
:105E30002FF01DEF2FF0010EBA6FBA511200346E21
:105E400005019C05D8A427EF2FF029EF2FF060EF74
:105E50002FF034503C0D6100CCF386F56100D0F397
:105E600087F586C501F587C502F5000E046E640E40
:105E7000036E1AEC31F001C586F502C587F5050100
:105E80008651866F876B5E503318D8A44AEF2FF087
:105E90004CEF2FF06AEF2FF0040E986152EF2FF0C5
:105EA00054EF2FF06AEF2FF086C529F587C52AF544
:105EB000010E2C6E2C0E2B6E78EC29F06AEF2FF071
:105EC000000E2A6E000E296E010E2C6E2C0E2B6E0B
:105ED00078EC29F012001C6E1C500CEC33F0000919
:105EE000D8B475EF2FF077EF2FF0B4EF2FF017C580
:105EF00002F518C503F51C503EEC2BF0196E195035
:105F0000D8A485EF2FF087EF2FF0B4EF2FF01C50BF
:105F10000C0D580EF324D96E010EF420DA6E6100D8
:105F200078F31AF5610074F31BF51A501B10D8B4FE
:105F30009CEF2FF09EEF2FF0B4EF2FF01AC50CF569
:105F40001BC50DF517C50EF518C50FF54DEC1BF06B
:105F50001C500C0D510EF324D96E010EF420DA6E94
:105F6000030EDF12B4EF2FF01200000EBE6E000E13
:105F7000BF6E000EC06E080ECA6EDE0EC66ECC0E70
:105F8000C76E070EC86EE70E0401106F730E086F20
:105F9000FD0E006F000E216F000E096F000E016FE5
:105FA000000E116F000E026F000E0A6F180E126FB6
:105FB00003690B69136904690C691469080E246F7D
:105FC0000F0E0201696F140E706F1A0E0A6F370EF2
:105FD000146F180E096F380E156F0B0E3D6F460EBD
:105FE0000D6F130E716F1200EE0E0501B96F6C0E7E
:105FF000BA6F21EC36F0F00E0501B96F6C0EBA6F76
:1060000026EC36F0F20E0501B96F6C0EBA6F2BEC70
:1060100036F0EC0E0501B96F6C0EBA6F1CEC36F061
:10602000E80E0501B96F6C0EBA6F12EC36F0E60E91
:106030000501B96F6C0EBA6F0DEC36F0EA0E050172
:10604000B96F6C0EBA6F17EC36F0AE9C000E010102
:106050001C6F000E1D6F0A0E1E6FFC0E1F6F9E8CB4
:106060001200000E0501BE6F000EBD6FBB51BC11CA
:10607000D8B43DEF30F03FEF30F067EF30F0010E75
:10608000BF6F47EF30F0D890BB37BC37BF2BBCAFEA
:106090004CEF30F04EEF30F043EF30F0D890BD379A
:1060A000BE37BB51B95DBC51BA59D8A05AEF30F0D8
:1060B0005CEF30F061EF30F0BB51B95FBC51BA5BBF
:1060C000BD81D890BC33BB33BF2F4EEF30F0BDC580
:1060D000B9F5BEC5BAF51200000E6F6E020E706EF5
:1060E000000E716E3D0E726E000E736EFE0E746EBB
:1060F000000E756E000E766E000E776E000E796ED5
:106100001F0E7A6E000E7B6E1F0E7C6E000E7D6E73
:10611000B39CB39E76907692A39EA39C000E05013D
:10612000B96F000EBA6FEAEC35F0000E0501B96FD9
:10613000000EBA6FE5EC35F0000E0501B96F000EE8
:10614000BA6FEFEC35F0800E786E1200000E606EC4
:10615000020E616E000E626E3D0E636E000E646E86
:10616000FE0E656E000E666E000E676E000E686EA7
:10617000000E6A6E1F0E6B6E000E6C6E1F0E6D6E43
:10618000000E6E6EB29CB29E67906792A29EA29C19
:10619000000E0501B96F000EBA6FF9EC35F0000E74
:1061A0000501B96F000EBA6FF4EC35F0000E050171
:1061B000B96F000EBA6FFEEC35F0800E696E1200FA
:1061C00000F05E04D8A4E7EF30F0E9EF30F00FEF15
:1061D00031F00501B405D8A4F0EF30F0F2EF30F063
:1061E000F7EF30F0010E05019C6F19EF31F0000E52
:1061F0009C6F000E2A6E000E296E010E2C6E2C0E66
:106200002B6E78EC29F0000E2A6E000E296E020E1D
:106210002C6E580E2B6E02EC29F019EF31F05E5007
:10622000D8A415EF31F017EF31F019EF31F0F2EF9C
:1062300030F01200000E066E000E056E03500410C2
:10624000D8B425EF31F027EF31F04FEF31F0010EE8
:10625000076E2FEF31F0D89003360436072A04AECC
:1062600034EF31F036EF31F02BEF31F0D8900536C6
:1062700006360350015C04500258D8A042EF31F0BA
:1062800044EF31F049EF31F00350015E0450025AFF
:106290000580D89004320332072E36EF31F005C561
:1062A00001F506C502F51200000E096E000E0A6E19
:1062B000000E0B6E000E0C6E01A061EF31F063EF6B
:1062C00031F06BEF31F00550092606500A220750D5
:1062D0000B2208500C22D8900536063607360836B1
:1062E000D8900432033202320132015002100310FE
:1062F0000410D8A47EEF31F080EF31F05CEF31F084
:1063000009C501F50AC502F50BC503F50CC504F571
:1063100012000101018F040ED3EC2EF00009D8A465
:1063200094EF31F096EF31F0B6EF31F0000E01014D
:106330004C6F260E4D6F000E4E6F000E4F6F600EAD
:10634000006F970E016F100E026F86EC35F07CEC3B
:1063500035F051EC34F0B7EC34F0CAEC33F0F4EC37
:106360002FF0060ED3EC2EF0C79ABF9A120003C589
:1063700009F504C50AF501C507F502C508F5D6EF0C
:1063800031F0610024F4D9F4610028F4DAF4DF502C
:106390000B6E094A0A2A61001CF4D9F4610020F44A
:1063A000DAF461002CF4DFF4074A082A0506D8A0C5
:1063B0000606052806E10628D8A4E1EF31F0E3EF50
:1063C00031F0C1EF31F01200D60EF66E6C0EF76EA2
:1063D000000EF86E09006100D4F3FEF509006100BB
:1063E000D4F3FFF501EE00F2640EEE6AE806FDE17B
:1063F00001EE60F1590EEE6AE806FDE101EE59F199
:10640000070EEE6AE806FDE10401080E5D6F000E5E
:106410005E6F000E5F6F00010EEF32F0B3EC33F0F1
:10642000F7EC24F006EC35F090EC35F0D68ED9EC94
:1064300034F0CEEC32F010EC28F0BEB022EF32F0A7
:1064400025EF32F0010E26EF32F0000EFF0A0501B3
:10645000FD6FBE50FD19FE0BFD19BE6E000EEE6FF6
:10646000B551B4EC1FF01DEF32F00DEF00F0000E4F
:10647000246E2450020DFE0EF324D96E050EF42076
:10648000DA6EDF50176E21C518F522C519F52450B4
:10649000EEEC29F0236E2350D8B451EF32F053EFD5
:1064A00032F055EF32F05EEF32F0242A2450D8B4A7
:1064B0005CEF32F05EEF32F039EF32F02350120031
:1064C000000E03011F6F000E206F010E216F850E5D
:1064D0001D6FEE0E1C6FB1981C51600074FCBBF573
:1064E0000501BC6BBBC5BCF5BB6BBB110601666F80
:1064F0000501BC510601676FA188D80E0501B96F6F
:106500006C0EBA6FDBEC35F0310E03011E6F12001A
:10651000300E1D6E030E1E6E000E1F6E000E206EDE
:10652000060E216E68C522F564C523F559C524F50C
:1065300060C525F5000E266E000E276E000E286E33
:10654000000E296ED2EC2AF0AAEC2BF0E0EC30F031
:10655000000E0501B46F1200036EB8EF32F0BE8A70
:10656000CDEF32F0BE9ACDEF32F0BE9ACDEF32F0E1
:106570000350016E026A0250000AD8B4C2EF32F032
:10658000B5EF32F00150000AD8B4B2EF32F0010A90
:10659000D8B4AFEF32F0B5EF32F01200C690C78436
:1065A000C682C69AC89AC89CC89EC79A000E0501A2
:1065B000E26F000EE16F010EE46F2C0EE36F89ECC9
:1065C00028F0000E0501E26F000EE16F020EE46F8D
:1065D000580EE36F97EC27F012000501BD6F6100C4
:1065E000F4F6ECF30301F38FF39DF381F3B1FBEFCA
:1065F00032F0FDEF32F0F6EF32F0EB510501BC6FF7
:10660000BB6B0301EA510501BB25B96F0301000E05
:106610000501BC21BA6F1200026E000E016E040E5D
:10662000026015EF33F017EF33F029EF33F002502B
:106630000C0D500EF324D96E010EF420DA6E010118
:10664000DFAE25EF33F027EF33F029EF33F0010E03
:10665000016E01501200010ECAEC23F0BEC574F5A4
:10666000BFC575F5020ECAEC23F0BEC572F5BFC5F5
:1066700073F5030ECAEC23F0BEC570F5BFC571F506
:10668000040ECAEC23F0BEC56EF5BFC56FF512004F
:10669000010E62EC24F006C574F507C575F5020E0F
:1066A00062EC24F006C572F507C573F5030E62ECC3
:1066B00024F006C570F507C571F5040E62EC24F0F0
:1066C00006C56EF507C56FF51200B19866C601F5EF
:1066D00067C602F5E1EC33F006012C4B2D2B2D5152
:1066E00009E1050E2C5DD8A078EF33F07AEF33F096
:1066F0007EEF33F0000E2D6F000E2C6F64EC2AF04D
:106700001200056E610014F4ECF30301F38FF39DA6
:10671000F381F3B18EEF33F090EF33F089EF33F084
:10672000EB51046E036AEA510324016E000E04204B
:10673000026E1200B19E0601324B332B335109E138
:106740000A0E325DD8A0A7EF33F0A9EF33F0B0EF17
:1067500033F0F8EC33F0000E0601336F000E326FA9
:1067600072EC36F0120061EC36F08FEC34F00FEC86
:1067700034F090EC1DF0B5EC2FF021EC35F060EC2E
:1067800032F07BEC34F06CEC30F089EC31F0A6ECBC
:1067900030F01200000E0501B96FB951020DFF0E65
:1067A000F324D96E050EF420DA6E000EDF6EB92BDD
:1067B000B951D8B4DEEF33F0E0EF33F0CDEF33F082
:1067C000120003011EA5E7EF33F0E9EF33F0F2EF1B
:1067D00033F01E9102501D6F610004F41CF31E8102
:1067E000F7EF33F002501D6F610004F41CF3120048
:1067F000060168516911D8B400EF34F002EF34F0AB
:106800000EEF34F002D80EEF34F00500FA6E685146
:10681000FD6E6951FE6EFF6AFA5012001200040EFE
:106820000201946F800E956F180E966F030E9E6F87
:10683000000E9A6F000E9B6F000E976F000E8C6F0C
:10684000000E8D6F000E9D6F12000501B951BB0344
:106850006100CCF3BDF56100D0F3BEF5B951BC03C6
:10686000F350BE27BA51BB03F350BE27BDC5B9F5DF
:10687000BEC5BAF51200010160A141EF34F043EF4B
:1068800034F050EF34F002D850EF34F00500FA6ED7
:1068900006014451FD6E4551FE6EFF6AFA5012002A
:1068A0001200190E01015C6F040E5D6F600E5E6FC9
:1068B000050E5F6FBC0E0501B96F6C0EBA6F03EC6D
:1068C00036F001011E83B298A28812000150030223
:1068D0006100CCF305F56100D0F306F50150040228
:1068E000F350062602500302F350062605C501F5B3
:1068F00006C502F51200480E03011B6F610E196FE9
:10690000000E186FB19EA18EE20E0501B96F6C0EDC
:10691000BA6FE0EC35F0800E03011A6F1200000E22
:106920000001606F000E616F000E626F000E636FFA
:10693000000E646F000E656F000E666F000E676FCD
:10694000000E686F1200046E000E036E04500CEC13
:1069500033F00009D8B4AFEF34F0B1EF34F0B5EF55
:1069600034F004502DEC35F0036E035012005F0E2E
:106970000101946F956996699769000E986F000EF2
:10698000996F000E9A6F000E9B6F810E816F12003F
:106990000501ED6F5E50D8A4D0EF34F0D2EF34F0A3
:1069A000D8EF34F0000E0501EB6FED51EBEC2DF05C
:1069B0001200000E0501E26F000EE16F000EE46FA1
:1069C000320EE36F89EC28F0000E0501986F12007B
:1069D000356E5E50D8A4EFEF34F0F1EF34F0F6EFFF
:1069E00034F0000E336E355086EC2EF01200026E3D
:1069F00002500C0D530EF324D96E010EF420DA6E02
:106A0000DF50016E1F0E011601281200640E0501F1
:106A10007425846F000E7521856F9C0E7225806F22
:106A2000FF0E7321816F120066EC35F00009D8B4B7
:106A30001CEF35F01FEF35F0010E20EF35F0000EA2
:106A40001200700E0001AD6F000EAF6F000EB36F3D
:106A5000020EB16F000EB06F1200016E01500C0DEE
:106A6000540EF324D96E010EF420DA6EDF50010BC0
:106A70001200016E01500C0D540EF324D96E010E5C
:106A8000F420DA6EDF50090B12002BEC33F070C5E6
:106A90007AF571C57BF56EC576F56FC577F5120091
:106AA0002BEC33F070C57CF571C57DF56EC578F5BE
:106AB0006FC579F51200010136B561EF35F064EF6D
:106AC00035F0010E65EF35F0000E1200010136B908
:106AD0006CEF35F06FEF35F0010E70EF35F0000E12
:106AE0001200010136BB77EF35F07AEF35F0010E79
:106AF0007BEF35F0000E1200100E0101506F040EF6
:106B0000516F610E526F050E536F1200010E01019D
:106B1000046F010E056F060E066F000E076F120060
:106B2000000E0501836FA00E826F070E7F6FC60EE9
:106B30007E6F12006100E4F672F40501BA51736EC3
:106B400012006100E4F67AF40501BA517B6E12007E
:106B50006100E4F663F40501BA51646E120061004D
:106B6000E4F66BF40501BA516C6E120048EC33F098
:106B70001FEC18F0FFEC19F012000501B96F61006D
:106B8000E4F6FBF31200610004F472F40250736E39
:106B90001200610004F47AF402507B6E120061006E
:106BA00004F463F40250646E1200610004F46BF4A8
:106BB00002506C6E1200B9C564F6BAC565F61200D3
:106BC000B9C568F6BAC569F61200B9C578F6BAC58E
:106BD00079F61200B9C57AF6BAC57BF61200B9C5C6
:106BE00076F6BAC577F61200B9C588F5BAC589F543
:106BF0001200B9C58AF5BAC58BF51200B9C534F6CD
:106C0000BAC535F61200B9C544F6BAC545F6120044
:106C100001010239E832070B1200B9C538F6BAC5CE
:106C200039F61200B9C53AF6BAC53BF61200B9C535
:106C300036F6BAC537F61200B9C53CF6BAC53DF608
:106C40001200B9C542F6BAC543F61200B9C540F6FE
:106C5000BAC541F61200B9C53EF6BAC53FF61200F4
:106C6000B9C56CF6BAC56DF61200B9C56EF6BAC5EF
:106C70006FF61200B9C570F6BAC571F61200B9C543
:106C800072F6BAC573F61200B9C56AF6BAC56BF6E4
:106C90001200B9C574F6BAC575F6120001010239C1
:106CA000E832070B1200016E610004F4FBF31200DE
:106CB0000301F39B12000301F39B1200A3EC1EF0EF
:106CC0001200D69A12007884120069841200788427
:106CD000120069841200010012001200120012005A
:106CE0001200120012001200120012001200120014
:046CF000120012007C
:020000040020DA
:10000000FF0FFF0FFF0FFF0FFF0FFF0FFF0FFF0F80
:10001000FF0FFF0FFF0FFF0FFF0FFF0FFF0FFF0F70
:020000040030CA
:10000000FAEFF7DF9FFFFFFFFFFFFFFFFFFFFFFF9D
:10001000FFFFFFFFFFFFFFFFFFFFFFFFFFFFFFFFF0
:04002000FFFFFFFFE0
:00000001FF
