:020000040000FA
:040000000DEF00F010
:04000800A2EF3BF038
:06001800FF0083EF3EF043
:1026000000000000000000000000000000000000CA
:1026100000000000000000000000000000000000BA
:102620000000000000000000010203040506070886
:102630005001526561643A206E6F6E2D766F6C6149
:1026400074696C6520766F6C746167652076616C67
:1026500075652025662C20616E6420766F6C617430
:10266000696C6520766F6C746167652076616C7546
:10267000652025660053657420746865206E6F6E52
:102680002D766F6C6174696C6520766F6C74616710
:102690006520746F203156200A00536574207468D9
:1026A0006520766F6C6174696C6520766F6C7461FF
:1026B000676520746F203256200A0000BEC597F56A
:1026C000BFC598F5C0C599F5C1C59AF5C2C59BF5BA
:1026D000C3C59CF5C4C59DF5C5C59EF5E4EC42F0A7
:1026E00097C5DEF598C5DFF599C5E0F59AC5E1F522
:1026F0006100F0F6D9F46100F4F6DAF4610078F3E1
:102700007EF5610078F37FF5610078F380F5610074
:1027100078F381F5DEC582F5DFC583F5E0C584F584
:10272000E1C585F5A8EC1BF07EC5C6F57FC5C7F5EC
:1027300080C5C8F581C5C9F5000E0501826F000E80
:10274000836F000E846F3F0E856F20EE04F0BC5146
:10275000D926BD51DA22610078F37EF5610078F365
:102760007FF5610078F380F5610078F381F5A8ECDE
:102770001BF07EC5D6F57FC5D7F580C5D8F581C5D8
:10278000D9F5050120EE20F0BC51D926BD51DA2241
:10279000610078F382F5610078F383F5610078F3E6
:1027A00084F5610078F385F5D6C57EF5D7C57FF54C
:1027B000D8C580F5D9C581F5A8EC1BF07EC5DAF542
:1027C0007FC5DBF580C5DCF581C5DDF5DAC582F5B1
:1027D000DBC583F5DCC584F5DDC585F5DEC572F5A1
:1027E000DFC573F5E0C574F5E1C575F5050120EEAB
:1027F00028F0BC51D926BD51DA22610078F36EF57C
:10280000610078F36FF5610078F370F5610078F39B
:1028100071F5E7EC16F06EC57EF56FC57FF570C5F6
:1028200080F571C581F5A8EC1BF07EC5CAF57FC5A2
:10283000CBF580C5CCF581C5CDF5CAC56EF5CBC548
:102840006FF5CCC570F5CDC571F5050120EE24F00E
:10285000BC51D926BD51DA22610078F372F56100CE
:1028600078F373F5610078F374F5610078F375F52A
:10287000E7EC16F0050120EE24F0BC51D926BD513D
:10288000DA226100B8F5DEF46100BCF5DEF4610027
:10289000C0F5DEF46100C4F5DEF420EE20F0BC519A
:1028A000D926BD51DA22610078F39BF5610078F3F7
:1028B0009CF5610078F39DF5610078F39EF5000EBC
:1028C000826F000E836F000E846F400E856F20EEC6
:1028D0000CF0BC51D926BD51DA22610078F37EF5A7
:1028E000610078F37FF5610078F380F5610078F39B
:1028F00081F5A8EC1BF07EC597F57FC598F580C5DE
:1029000099F581C59AF5E4EC42F097C5D6F598C5DE
:10291000D7F599C5D8F59AC5D9F5000E0501826F8E
:10292000000E836F000E846F400E856F20EE08F05E
:10293000BC51D926BD51DA22610078F37EF56100E1
:1029400078F37FF5610078F380F5610078F381F525
:10295000A8EC1BF07EC5DAF57FC5DBF580C5DCF59C
:1029600081C5DDF5050120EE30F0BC51D926BD5101
:10297000DA22610078F39BF5610078F39CF5610041
:1029800078F39DF5610078F39EF5C2C597F5C3C550
:1029900098F5C4C599F5C5C59AF5E4EC42F097C51C
:1029A00082F598C583F599C584F59AC585F5DAC58C
:1029B0007EF5DBC57FF5DCC580F5DDC581F5A8ECCE
:1029C0001BF07EC5CEF57FC5CFF580C5D0F581C59E
:1029D000D1F5050120EE2CF0BC51D926BD51DA22EB
:1029E000610078F382F5610078F383F5610078F394
:1029F00084F5610078F385F5D6C57EF5D7C57FF5FA
:102A0000D8C580F5D9C581F5A8EC1BF07EC572F557
:102A10007FC573F580C574F581C575F5CEC56EF5B6
:102A2000CFC56FF5D0C570F5D1C571F5E7EC16F0DF
:102A30006EC59FF56FC5A0F570C5A1F571C5A2F56E
:102A4000E7EC43F09FC5A3F5A0C5A4F5A1C5A5F586
:102A5000A2C5A6F5050120EE20F0BC51D926BD5136
:102A6000DA22610078F372F5610078F373F56100A2
:102A700078F374F5610078F375F5000E826F000E3F
:102A8000836F000E846F400E856F20EE0CF0BC51FA
:102A9000D926BD51DA22610078F37EF5610078F322
:102AA0007FF5610078F380F5610078F381F5A8EC9B
:102AB0001BF07EC56EF57FC56FF580C570F581C5CD
:102AC00071F5E7EC16F06EC5A7F56FC5A8F570C5F2
:102AD000A9F571C5AAF56CEC21F0050120EE2CF0EA
:102AE000BC51D926BD51DA2261008CF6DEF46100BA
:102AF00090F6DEF4610094F6DEF4610098F6DEF400
:102B0000000E606F000E616F000E626F400E636F0B
:102B100020EE2CF0BC51D926BD51DA22610078F3A9
:102B200064F5610078F365F5610078F366F561009E
:102B300078F367F503EC34F00501D8A0A2EF15F0A7
:102B4000A4EF15F0C8EF15F020EE2CF0BC51D926FB
:102B5000BD51DA22610078F360F5610078F361F528
:102B6000610078F362F5610078F363F5000E646F3D
:102B7000000E656F000E666FC00E676F03EC34F0D9
:102B80000501D8B0C6EF15F0C8EF15F0D6EF15F077
:102B900020EE24F0BC51D926BD51DA22000EDE6EA3
:102BA000000EDE6E000EDE6E000EDD6EC6C572F526
:102BB000C7C573F5C8C574F5C9C575F520EE24F011
:102BC000BC51D926BD51DA22610078F36EF561005F
:102BD00078F36FF5610078F370F5610078F371F5C3
:102BE000E7EC16F06EC5D2F56FC5D3F570C5D4F518
:102BF00071C5D5F5D2C56EF5D3C56FF5D4C570F5E1
:102C0000D5C571F5050120EE2CF0BC51D926BD517A
:102C1000DA22610078F372F5610078F373F56100F0
:102C200078F374F5610078F375F5E7EC16F00501BB
:102C300020EE34F0BC51D926BD51DA226100B8F53E
:102C4000DEF46100BCF5DEF46100C0F5DEF4610085
:102C5000C4F5DEF420EE14F0BC51D926BD51DA22C1
:102C6000610078F360F5610078F361F5610078F355
:102C700062F5610078F363F520EE34F0BC51D9269B
:102C8000BD51DA22610078F364F5610078F365F5EF
:102C9000610078F366F5610078F367F503EC34F0D2
:102CA0000501D8B056EF16F058EF16F06EEF16F09B
:102CB00020EE14F0BC51D926BD51DA2210EE34F0CA
:102CC000BC51E126BD51E222DEC4E6F4DEC4E6F4E6
:102CD000DEC4E6F4DEC4E6F4B0EF16F020EE34F025
:102CE000BC51D926BD51DA22610078F360F561004C
:102CF00078F361F5610078F362F5610078F363F5CC
:102D000020EE10F0BC51D926BD51DA22610078F3D3
:102D100064F5610078F365F5610078F366F56100AC
:102D200078F367F503EC34F00501D8B09AEF16F0AC
:102D30009CEF16F0B0EF16F020EE10F0BC51D92643
:102D4000BD51DA2210EE34F0BC51E126BD51E22231
:102D5000DEC4E6F4DEC4E6F4DEC4E6F4DEC4E6F483
:102D600020EE28F0BC51D926BD51DA22610078F757
:102D7000DEF461007CF7DEF4610080F7DEF46100D0
:102D800084F7DEF420EE30F0BC51D926BD51DA22B2
:102D9000610008F7DEF461000CF7DEF4610010F763
:102DA000DEF4610014F7DEF420EE34F0BC51D926D5
:102DB000BD51DA22610078F3BCF5610078F3BDF50E
:102DC000610078F3BEF5610078F3BFF512000501EC
:102DD0007151800B7A6F715171257C6F70AFF3EF79
:102DE00016F0F5EF16F0F6EF16F07C817C51D8B4B2
:102DF000FCEF16F0FEEF16F013EF17F07C29D8A4C5
:102E000004EF17F006EF17F00EEF17F0000E6E6FDD
:102E1000000E6F6F000E706F000E716F708F000EDE
:102E2000716F1BEF17F0000E6E6F000E6F6F000ECC
:102E3000706F000E716F7551800B7B6F7A517B192B
:102E4000D8B425EF17F027EF17F028EF17F07A8D99
:102E5000755175257B6F74AF30EF17F032EF17F0B7
:102E600033EF17F07B817B51D8B439EF17F03BEF8C
:102E700017F050EF17F07B29D8A441EF17F043EF7C
:102E800017F04BEF17F0000E726F000E736F000E0D
:102E9000746F000E756F748F000E756F58EF17F01A
:102EA000000E726F000E736F000E746F000E756F60
:102EB0007C517B5DD8B05FEF17F061EF17F088EFC2
:102EC00017F07AAD66EF17F068EF17F06AEF17F0BA
:102ED000800E7A1B7CC57DF57BC57CF57DC57BF5B9
:102EE0006EC57DF572C56EF57DC572F56FC57DF554
:102EF00073C56FF57DC573F570C57DF574C570F547
:102F00007DC574F571C57DF575C571F57DC575F522
:102F1000000E7D6F7C517BC576F5776B765F000E7A
:102F2000775B77BF9DEF17F0775109E11A0E765D59
:102F3000D8A09DEF17F09FEF17F0D6EF17F06E5166
:102F40006F1170117111D8A4A8EF17F0ABEF17F043
:102F5000010EACEF17F0000E7D6F000E6E6F000ECD
:102F60006F6F000E706F000E716F7BC57CF5DFEF29
:102F700017F07DA1BEEF17F0C0EF17F0C6EF17F006
:102F8000D8907D3101097D6FC8EF17F0D8907D335F
:102F90006EA1CDEF17F0CFEF17F0D0EF17F07D8FC8
:102FA0007135713370336F336E337C2B7B517C5DA5
:102FB000D8A0DDEF17F0DFEF17F0B9EF17F07ABD0B
:102FC000E4EF17F0E6EF17F026EF18F07C51D8A4E5
:102FD000ECEF17F0EEEF17F0F8EF17F0000E6E6F52
:102FE000000E6F6F000E706F000E716F47EF19F0DB
:102FF00072516E2773516F23745170237551712371
:1030000071A105EF18F007EF18F0B3EF18F07DA1EC
:103010000CEF18F00EEF18F014EF18F0D8907D3187
:1030200001097D6F16EF18F0D8907D336EA11BEF6C
:1030300018F01DEF18F01EEF18F07D8F7135713309
:1030400070336F336E337C2BB3EF18F072516E5DBB
:1030500073516F59745170597151800A766F75515F
:10306000800A7659D8B037EF18F039EF18F064EFCE
:1030700018F06E51725D766F6F517359776F7051A2
:103080007459786F71517559796FFF0E76256E6F8F
:10309000FF0E77216F6FFF0E7821706FFF0E792181
:1030A000716F800E7A1B7D6D7D51D8A45AEF18F098
:1030B0005CEF18F06CEF18F0010E6E27000E6F2316
:1030C000702371236CEF18F072516E5F73516F5B58
:1030D0007451705B7551715B6E516F11701171118C
:1030E000D8A475EF18F077EF18F0ACEF18F07D5119
:1030F000D8A47DEF18F07FEF18F0ACEF18F0000EB9
:103100006E6F000E6F6F000E706F000E716F47EFE5
:1031100019F0D8906E376F37703771377DAF93EFF6
:1031200018F095EF18F096EF18F06E817DA19BEFE7
:1031300018F09DEF18F0A1EF18F0D8807D37A3EFBD
:1031400018F0D8907D377C51D8B4A9EF18F0ABEFC8
:1031500018F0ACEF18F07C0770AFB1EF18F0B3EFD8
:1031600018F089EF18F0000E7B6F7DAFBAEF18F002
:10317000BCEF18F0D4EF18F07DC576F57F0E76170A
:10318000D8B4C5EF18F0C7EF18F0CBEF18F0010E68
:103190007B6FD4EF18F06EA1D0EF18F0D2EF18F0DB
:1031A000D4EF18F0C7EF18F07B51D8B4DAEF18F06D
:1031B000DCEF18F007EF19F0010E6E27000E6F23F9
:1031C0007023712371A1E7EF18F0E9EF18F007EF12
:1031D00019F06EC576F56FC577F570C578F571C5D0
:1031E00079F57935793378337733763376C56EF57B
:1031F00077C56FF578C570F579C571F57C29D8B4B8
:1032000004EF19F006EF19F007EF19F07C2B7C2979
:10321000D8B40DEF19F00FEF19F017EF19F07C513A
:10322000D8A415EF19F017EF19F029EF19F0000ED7
:103230006E6F000E6F6F000E706F000E716F7C511D
:10324000D8A425EF19F027EF19F029EF19F0000E97
:103250007A6F7CA12EEF19F030EF19F033EF19F0EF
:10326000708F34EF19F0709FD8907C31716F7AAF06
:103270003CEF19F03EEF19F03FEF19F0718F6EC57A
:103280006EF56FC56FF570C570F571C571F51200FB
:103290001250800B1B6E125012241D6E11AE53EF94
:1032A00019F055EF19F056EF19F01D801D50D8B4E4
:1032B0005CEF19F05EEF19F073EF19F01D28D8A438
:1032C00064EF19F066EF19F06EEF19F0000E0F6E53
:1032D000000E106E000E116E000E126E118E000E9A
:1032E000126E7BEF19F0000E0F6E000E106E000EC6
:1032F000116E000E126E1650800B1C6E1B501C18A7
:10330000D8B485EF19F087EF19F088EF19F01B8C0E
:10331000165016241C6E15AE90EF19F092EF19F0AE
:1033200093EF19F01C801C50D8B499EF19F09BEF63
:1033300019F0B0EF19F01C28D8A4A1EF19F0A3EFF1
:1033400019F0ABEF19F0000E136E000E146E000EA4
:10335000156E000E166E158E000E166EB8EF19F073
:10336000000E136E000E146E000E156E000E166E1B
:103370001D501C5CD8B0BFEF19F0C1EF19F0E8EF99
:1033800019F01BACC6EF19F0C8EF19F0CAEF19F02D
:10339000800E1B1A1DC51EF51CC51DF51EC51CF58E
:1033A0000FC51EF513C50FF51EC513F510C51EF587
:1033B00014C510F51EC514F511C51EF515C511F57A
:1033C0001EC515F512C51EF516C512F51EC516F556
:1033D000000E1E6E1D501CC517F5186A175E000EF4
:1033E000185A18BEFDEF19F0185009E11A0E175CB3
:1033F000D8A0FDEF19F0FFEF19F036EF1AF00F50DB
:10340000101011101210D8A408EF1AF00BEF1AF0D8
:10341000010E0CEF1AF0000E1E6E000E0F6E000E65
:10342000106E000E116E000E126E1CC51DF53FEFE2
:103430001AF01EA01EEF1AF020EF1AF026EF1AF075
:10344000D8901E3001091E6E28EF1AF0D8901E3257
:103450000FA02DEF1AF02FEF1AF030EF1AF01E8E9A
:1034600012341232113210320F321D2A1C501D5CE0
:10347000D8A03DEF1AF03FEF1AF019EF1AF01BBC7D
:1034800044EF1AF046EF1AF086EF1AF01D50D8A458
:103490004CEF1AF04EEF1AF058EF1AF0000E0F6EC4
:1034A000000E106E000E116E000E126EA7EF1BF0D4
:1034B00013500F26145010221550112216501222AC
:1034C00012A065EF1AF067EF1AF013EF1BF01EA0C1
:1034D0006CEF1AF06EEF1AF074EF1AF0D8901E30FD
:1034E00001091E6E76EF1AF0D8901E320FA07BEF06
:1034F0001AF07DEF1AF07EEF1AF01E8E123412329F
:10350000113210320F321D2A13EF1BF013500F5CD3
:1035100014501058155011581250800A176E16503A
:10352000800A1758D8B097EF1AF099EF1AF0C4EF45
:103530001AF00F50135C176E10501458186E11507B
:103540001558196E125016581A6EFF0E17240F6E6A
:10355000FF0E1820106EFF0E1920116EFF0E1A209C
:10356000126E800E1B1A1E6C1E50D8A4BAEF1AF0F1
:10357000BCEF1AF0CCEF1AF0010E0F26000E10224D
:1035800011221222CCEF1AF013500F5E1450105A71
:103590001550115A1650125A0F50101011101210C7
:1035A000D8A4D5EF1AF0D7EF1AF00CEF1BF01E508D
:1035B000D8A4DDEF1AF0DFEF1AF00CEF1BF0000ECD
:1035C0000F6E000E106E000E116E000E126EA7EF41
:1035D0001BF0D8900F361036113612361EAEF3EFB0
:1035E0001AF0F5EF1AF0F6EF1AF00F801EA0FBEFBD
:1035F0001AF0FDEF1AF001EF1BF0D8801E3603EF32
:103600001BF0D8901E361D50D8B409EF1BF00BEFFD
:103610001BF00CEF1BF01D0611AE11EF1BF013EFAA
:103620001BF0E9EF1AF0000E1C6E1EAE1AEF1BF035
:103630001CEF1BF034EF1BF01EC517F57F0E17169D
:10364000D8B425EF1BF027EF1BF02BEF1BF0010E7A
:103650001C6E34EF1BF00FA030EF1BF032EF1BF0AD
:1036600034EF1BF027EF1BF01C50D8B43AEF1BF0DF
:103670003CEF1BF067EF1BF0010E0F26000E10222F
:103680001122122212A047EF1BF049EF1BF067EF47
:103690001BF00FC517F510C518F511C519F512C5A2
:1036A0001AF51A341A3219321832173217C50FF5B3
:1036B00018C510F519C511F51AC512F51D28D8B48D
:1036C00064EF1BF066EF1BF067EF1BF01D2A1D284F
:1036D000D8B46DEF1BF06FEF1BF077EF1BF01D50B0
:1036E000D8A475EF1BF077EF1BF089EF1BF0000EED
:1036F0000F6E000E106E000E116E000E126E1D5039
:10370000D8A485EF1BF087EF1BF089EF1BF0000EAC
:103710001B6E1DA08EEF1BF090EF1BF093EF1BF0C4
:10372000118E94EF1BF0119ED8901D30126E1BAEBF
:103730009CEF1BF09EEF1BF09FEF1BF0128E0FC54E
:103740000FF510C510F511C511F512C512F51200CF
:1037500005018151800B8A6F81518125906F80AF67
:10376000B4EF1BF0B6EF1BF0B7EF1BF09081905158
:10377000D8B4BDEF1BF0BFEF1BF0D2EF1BF09029C8
:10378000D8A4C5EF1BF0C7EF1BF0CFEF1BF0000E66
:103790007E6F000E7F6F000E806F000E816F808F36
:1037A000DAEF1BF0000E7E6F000E7F6F000E806F51
:1037B000000E816F8551800B8A1B855185258F6F87
:1037C00084AFE5EF1BF0E7EF1BF0E8EF1BF08F8114
:1037D0008F51D8B4EEEF1BF0F0EF1BF003EF1CF0AD
:1037E0008F29D8A4F6EF1BF0F8EF1BF000EF1CF0C8
:1037F000000E826F000E836F000E846F000E856FC7
:10380000848F0BEF1CF0000E826F000E836F000E92
:10381000846F000E856F8F51D8B411EF1CF013EF39
:103820001CF01BEF1CF09051D8A419EF1CF01BEFFB
:103830001CF025EF1CF0000E7E6F000E7F6F000E57
:10384000806F000E816FCFEF1DF084517E03610009
:10385000CCF395F56100D0F396F595518B6F8C6B99
:103860008D6B8E6B9651916F926B936B946B8351B2
:103870007F036100CCF395F56100D0F396F5955187
:103880008B27000E8C238D238E2396519127000EBB
:10389000922393239423825180036100CCF395F506
:1038A0006100D0F396F595518B27000E8C238D2364
:1038B0008E2396519127000E9223932394238DC536
:1038C0008EF58CC58DF58BC58CF58B6B82517F0386
:1038D0006100CCF395F56100D0F396F595518B27F7
:1038E00096518C23000E8D23000E8E2383517E0370
:1038F0006100CCF395F56100D0F396F595518B27D7
:1039000096518C23000E8D23000E8E238DC58EF5CF
:103910008CC58DF58BC58CF58B6B82517E03610058
:10392000CCF395F56100D0F396F595518B27965120
:103930008C23000E8D23000E8E2384517F036100A3
:10394000CCF395F56100D0F396F5955191279651FA
:103950009223000E9323000E942383518003610071
:10396000CCF395F56100D0F396F5955191279651DA
:103970009223000E9323000E942384518003610050
:10398000CCF395F56100D0F396F59551866F96517D
:10399000876F886B896B88C589F587C588F586C56B
:1039A00087F5866B865191278751922388519323FF
:1039B000895194238BC586F58CC587F58DC588F50F
:1039C0008EC589F5190EEAEF1CF0D890893388333B
:1039D00087338633E82EE5EF1CF086519127875117
:1039E000922388519323895194238DC58EF58CC5DC
:1039F0008DF58BC58CF58B6B8F5190C586F5876BDC
:103A00008627000E8723820E8625956FFF0E87215D
:103A1000966F20EF1DF0D8909137923793379437F7
:103A20008EAF15EF1DF017EF1DF018EF1DF091810F
:103A3000D8908B378C378D378E379507D8A096075F
:103A400093AF25EF1DF027EF1DF00BEF1DF0000EDB
:103A50008F6F8EAF2EEF1DF030EF1DF054EF1DF085
:103A6000FF0E8B15866FFF0E8C15876FFF0E8D1561
:103A7000886F7F0E8E15896F865187118811891185
:103A8000D8B445EF1DF047EF1DF04BEF1DF0010ED0
:103A90008F6F54EF1DF091A150EF1DF052EF1DF00C
:103AA00054EF1DF047EF1DF08F51D8B45AEF1DF0C1
:103AB0005CEF1DF080EF1DF0010E9127000E9223A8
:103AC0009323942394A167EF1DF069EF1DF080EF1D
:103AD0001DF091C586F592C587F593C588F594C507
:103AE00089F58935893388338733863386C591F5DF
:103AF00087C592F588C593F589C594F5954B962BA6
:103B000096BF8BEF1DF0965108E19529D8A08BEF59
:103B10001DF08DEF1DF097EF1DF0000E916F000E60
:103B2000926F800E936F7F0E946FC5EF1DF096BF5E
:103B3000A4EF1DF0965106E19505D8B0A2EF1DF057
:103B4000A4EF1DF0B0EF1DF0000E916F000E926F0C
:103B5000000E936F000E946F000E8A6FC5EF1DF07C
:103B600095C590F5FF0E9117FF0E92177F0E9317D4
:103B7000000E941790A1BFEF1DF0C1EF1DF0C2EF32
:103B80001DF0938FD8909031946F8A51941391C502
:103B90007EF592C57FF593C580F594C581F5120039
:103BA000010E0501A86F6100F8F5D9F46100FCF57C
:103BB000DAF4610078F3A0F5610074F3A1F58251A5
:103BC000836F846BD890833784377EC585F57FC536
:103BD00086F58351852784518623FE0E8525D96E6F
:103BE000FF0E8621DA6E610078F3A2F5610074F3AE
:103BF000A3F5A051836FA151846F856B866B8351B0
:103C00007A5D84517B5985517C597D51800A876F3B
:103C10008651800A8759D8A010EF1EF012EF1EF0CF
:103C20001FEF1EF0610000F6D9F4610004F6DAF42B
:103C3000DF50836F83517A6F7B6B9DEF1FF0A25132
:103C4000836FA351846F856B866B7A51835D7B5143
:103C500084597C5185598651800A876F7D51800A2D
:103C60008759D8A036EF1EF038EF1EF04CEF1EF04B
:103C700082518025836F000E8121846FFF0E832582
:103C8000D96EFF0E8421DA6EDF50856F85517A6F11
:103C90007B6B9DEF1FF0A82BA851020D6100CCF3A8
:103CA00083F56100D0F384F583517E25D96E84516C
:103CB0007F21DA6E610078F385F5610074F386F593
:103CC0008551876F8651886F896B8A6B87517A5DC2
:103CD00088517B5989517C597D51800A8B6F8A515B
:103CE000800A8B59D8A077EF1EF079EF1EF04BEFCA
:103CF0001EF0A851020D6100CCF383F56100D0F3F2
:103D000084F583517E25D96E84517F21DA6E61005E
:103D100078F385F5610074F386F58551876F8651D8
:103D2000886F896B8A6B7A5187190DE17B518819ED
:103D30000AE17C51891907E17D518A19D8A4A3EFC2
:103D40001EF0A5EF1EF0B2EF1EF0A8518025D96E2F
:103D5000000E8121DA6EDF50836F83517A6F7B6BA7
:103D60009DEF1FF0A851836F846BD8908337843701
:103D70007EC585F57FC586F58351852784518623C9
:103D8000FE0E8525D96EFF0E8621DA6E610078F36E
:103D900087F5610074F388F58751896F88518A6FC0
:103DA0008B6B8C6B89517A5D606F8A517B59616F27
:103DB0008B517C59626F8C517D59636FA85180255E
:103DC000D96E000E8121DA6EDF508D6F8E6BA85197
:103DD00080258F6F000E8121906FFF0E8F25D96E89
:103DE000FF0E9021DA6EDF50916F91518D5F000EC2
:103DF0008E5B8DC564F58EC565F5000E65BFFF0E43
:103E0000666F676F72EC41F060C56CF561C56DF56A
:103E100062C56EF563C56FF50501A851926F936B8E
:103E2000D890923793377EC594F57FC595F592511A
:103E3000942793519523FE0E9425D96EFF0E95215C
:103E4000DA6E610078F396F5610074F397F5A85186
:103E5000020D6100CCF398F56100D0F399F598510B
:103E60007E25D96E99517F21DA6E610078F39AF53B
:103E7000610074F39BF596519A5F97519B5B9AC5CD
:103E800070F59BC571F5726B736B72EC32F00501C6
:103E9000A85180259C6F000E81219D6FFF0E9C25EF
:103EA000D96EFF0E9D21DA6EDF509E6F9E516C25FC
:103EB000A46F000E6D21A56F000E6E21A66F000E7F
:103EC0006F21A76FA7BF69EF1FF067EF1FF076EFB5
:103ED0001FF0610000F6D9F4610004F6DAF4DF5057
:103EE000836F8351A46FA56BA66BA76BA7BF84EFED
:103EF0001FF0A751A611A51109E1650EA45DD8A078
:103F000084EF1FF086EF1FF099EF1FF0825180259C
:103F1000836F000E8121846FFF0E8325D96EFF0E03
:103F20008421DA6EDF50856F8551A46FA56BA66B77
:103F3000A76BA4C57AF5A5C57BF51200010E050196
:103F4000A86F6100F8F5D9F46100FCF5DAF46100BE
:103F500078F3A0F5610074F3A1F58251836F846B4F
:103F6000D890833784377EC585F57FC586F5835124
:103F7000852784518623FE0E8525D96EFF0E862166
:103F8000DA6E610078F3A2F5610074F3A3F5A05135
:103F9000836FA151846F856B866B7A51835D7B51F2
:103FA00084597C5185598651800A876F7D51800ADA
:103FB0008759D8A0DEEF1FF0E0EF1FF0EDEF1FF004
:103FC000610000F6D9F4610004F6DAF4DF50836F83
:103FD00083517A6F7B6B6BEF21F0A251836FA351FA
:103FE000846F856B866B83517A5D84517B598551D3
:103FF0007C597D51800A876F8651800A8759D8A0E5
:1040000004EF20F006EF20F01AEF20F08251802517
:10401000836F000E8121846FFF0E8325D96EFF0E02
:104020008421DA6EDF50856F85517A6F7B6B6BEF81
:1040300021F0A82BA851020D6100CCF383F561009B
:10404000D0F384F583517E25D96E84517F21DA6EB9
:10405000610078F385F5610074F386F58551876F0B
:104060008651886F896B8A6B7A51875D7B5188593D
:104070007C5189598A51800A8B6F7D51800A8B59F6
:10408000D8A045EF20F047EF20F019EF20F0A8511D
:10409000020D6100CCF383F56100D0F384F5835108
:1040A0007E25D96E84517F21DA6E610078F385F523
:1040B000610074F386F58551876F8651886F896B2F
:1040C0008A6B7A5187190DE17B5188190AE17C517D
:1040D000891907E17D518A19D8A471EF20F073EF97
:1040E00020F080EF20F0A8518025D96E000E8121AC
:1040F000DA6EDF50836F83517A6F7B6B6BEF21F049
:10410000A851836F846BD890833784377EC585F53B
:104110007FC586F58351852784518623FE0E85252C
:10412000D96EFF0E8621DA6E610078F387F56100A3
:1041300074F388F58751896F88518A6F8B6B8C6B0C
:1041400089517A5D606F8A517B59616F8B517C59BF
:10415000626F8C517D59636FA8518025D96E000E16
:104160008121DA6EDF508D6F8E6BA85180258F6FA5
:10417000000E8121906FFF0E8F25D96EFF0E9021CA
:10418000DA6EDF50916F91518D5F000E8E5B8DC5A1
:1041900064F58EC565F5000E65BFFF0E666F676F2F
:1041A00072EC41F060C56CF561C56DF562C56EF5E8
:1041B00063C56FF50501A851926F936BD890923744
:1041C00093377EC594F57FC595F592519427935109
:1041D0009523FE0E9425D96EFF0E9521DA6E6100AF
:1041E00078F396F5610074F397F5A851020D61001C
:1041F000CCF398F56100D0F399F598517E25D96EEE
:1042000099517F21DA6E610078F39AF5610074F3B9
:104210009BF596519A5F97519B5B9AC570F59BC52C
:1042200071F5726B736B72EC32F00501A851802549
:104230009C6F000E81219D6FFF0E9C25D96EFF0E95
:104240009D21DA6EDF509E6F9E516C25A46F000E8B
:104250006D21A56F000E6E21A66F000E6F21A76F56
:10426000A7BF37EF21F035EF21F044EF21F06100D7
:1042700000F6D9F4610004F6DAF4DF50836F83515D
:10428000A46FA56BA66BA76BA7BF52EF21F0A75138
:10429000A611A51109E1650EA45DD8A052EF21F089
:1042A00054EF21F067EF21F082518025836F000EDB
:1042B0008121846FFF0E8325D96EFF0E8421DA6E73
:1042C000DF50856F8551A46FA56BA66BA76BA4C546
:1042D0007AF5A5C57BF512000501A651800BB36FD9
:1042E000A651A625BA6FA5AF78EF21F07AEF21F09D
:1042F0007BEF21F0BA81BA51D8B481EF21F083EF7E
:1043000021F098EF21F0BA29D8A489EF21F08BEFA2
:1043100021F093EF21F0000EA36F000EA46F000EAA
:10432000A56F000EA66FA58F000EA66FA0EF21F05F
:10433000000EA36F000EA46F000EA56F000EA66FF7
:10434000AA51800BB31BAA51AA25BB6FA9AFABEF33
:1043500021F0ADEF21F0AEEF21F0BB81BB51D8B41D
:10436000B4EF21F0B6EF21F0CBEF21F0BB29D8A4B8
:10437000BCEF21F0BEEF21F0C6EF21F0000EA76FD9
:10438000000EA86F000EA96F000EAA6FA98F000E75
:10439000AA6FD3EF21F0000EA76F000EA86F000EDA
:1043A000A96F000EAA6FA751A811A911AA11D8A42C
:1043B000DCEF21F0DEEF21F0F6EF21F0000EA36F2D
:1043C000000EA46F000EA56F000EA66F800EA51341
:1043D0007F0EA613B351A613A3C5A3F5A4C5A4F5D8
:1043E000A5C5A5F5A6C5A6F539EF23F0BA51D8A401
:1043F000FCEF21F0FEEF21F008EF22F0000EA36F9A
:10440000000EA46F000EA56F000EA66F39EF23F00B
:10441000BB51BAC5ABF5AC6BAB5F000EAC5B7F0EAE
:10442000AB25B46F000EAC21B56FA3C5AFF5A4C525
:10443000B0F5A5C5B1F5A6C5B2F5000EA36F000E87
:10444000A46F000EA56F000EA66F000EB66F000ED3
:10445000B76F000EB86F000EB96F000EBB6F69EF3B
:1044600022F0BB51D8B437EF22F039EF22F050EFF1
:1044700022F0D890AF37B037B137B237D890A337E2
:10448000A437A537A637B9AF48EF22F04AEF22F09C
:104490004BEF22F0A381D890B637B737B837B9378A
:1044A000A751AF5DA851B059A951B159AA51B259FC
:1044B000D8A05DEF22F05FEF22F068EF22F0B98D17
:1044C000A751AF5FA851B05BA951B15BAA51B25BD4
:1044D000BB2B190EBB656FEF22F071EF22F031EFAD
:1044E00022F0AF51B011B111B211D8B47AEF22F06D
:1044F0007CEF22F094EF22F0B68194EF22F0D89076
:10450000A337A437A537A637B9AF89EF22F08BEFD1
:1045100022F08CEF22F0A381D890B637B737B837A6
:10452000B937B407D8A0B507A5AF99EF22F09BEF34
:1045300022F07FEF22F0000EBB6FB9AFA2EF22F0A6
:10454000A4EF22F0C8EF22F0FF0EB615AB6FFF0EFE
:10455000B715AC6FFF0EB815AD6F7F0EB915AE6F06
:10456000AB51AC11AD11AE11D8B4B9EF22F0BBEF25
:1045700022F0BFEF22F0010EBB6FC8EF22F0A3A123
:10458000C4EF22F0C6EF22F0C8EF22F0BBEF22F01A
:10459000BB51D8B4CEEF22F0D0EF22F0F4EF22F0EE
:1045A000010EA327000EA423A523A623A6A1DBEFBB
:1045B00022F0DDEF22F0F4EF22F0A3C5ABF5A4C5A5
:1045C000ACF5A5C5ADF5A6C5AEF5AE35AE33AD338C
:1045D000AC33AB33ABC5A3F5ACC5A4F5ADC5A5F500
:1045E000AEC5A6F5B44BB52BB5BFFFEF22F0B55164
:1045F00008E1B429D8A0FFEF22F001EF23F00CEF7F
:1046000023F0000EB56FB469000EA36F000EA46F07
:10461000000EA56F000EA66FB5BF19EF23F0B551C0
:1046200006E1B405D8B017EF23F019EF23F027EF18
:1046300023F0000EB56F000EB46F000EA36F000ED6
:10464000A46F000EA56F000EA66F000EB36FB4C569
:10465000BAF5BAA12EEF23F030EF23F033EF23F0B9
:10466000A58F34EF23F0A59FD890BA31A66FEAEF5B
:1046700021F01200010E496E61007CF4D9F4610052
:1046800080F4DAF4610078F341F5610074F342F5E7
:104690002350246E256AD890243625361FC526F56A
:1046A00020C527F52450262625502722FE0E262435
:1046B000D96EFF0E2720DA6E610078F343F56100B2
:1046C00074F344F54150246E4250256E266A276AE1
:1046D00024501B5C25501C5826501D581E50800A23
:1046E000286E2750800A2858D8A079EF23F07BEF56
:1046F00023F088EF23F0610084F4D9F4610088F49A
:10470000DAF4DF50246E24501B6E1C6A04EF25F08F
:104710004350246E4450256E266A276A1B50245C41
:104720001C5025581D5026582750800A286E1E50B0
:10473000800A2858D8A09FEF23F0A1EF23F0B5EF0F
:1047400023F023502124246E000E2220256EFF0E1C
:104750002424D96EFF0E2520DA6EDF50266E2650F7
:104760001B6E1C6A04EF25F0492A4950020D6100B6
:10477000CCF324F56100D0F325F524501F24D96E25
:1047800025502020DA6E610078F326F5610074F37D
:1047900027F52650286E2750296E2A6A2B6A285042
:1047A0001B5C29501C582A501D581E50800A2C6E24
:1047B0002B50800A2C58D8A0E0EF23F0E2EF23F032
:1047C000B4EF23F04950020D6100CCF324F56100F1
:1047D000D0F325F524501F24D96E25502020DA6E01
:1047E000610078F326F5610074F327F52650286EF2
:1047F0002750296E2A6A2B6A1B5028180DE11C507D
:1048000029180AE11D502A1807E11E502B18D8A4B8
:104810000CEF24F00EEF24F01BEF24F0495021247C
:10482000D96E000E2220DA6EDF50246E24501B6EEB
:104830001C6A04EF25F04950246E256AD89024366E
:1048400025361FC526F520C527F5245026262550D8
:104850002722FE0E2624D96EFF0E2720DA6E610075
:1048600078F328F5610074F329F528502A6E295051
:104870002B6E2C6A2D6A2A501B5C016E2B501C5823
:10488000026E2C501D58036E2D501E58046E495058
:104890002124D96E000E2220DA6EDF502E6E2F6A90
:1048A00049502124306E000E2220316EFF0E30243C
:1048B000D96EFF0E3120DA6EDF50326E32502E5E2E
:1048C000000E2F5A2EC505F52FC506F5000E06BEA3
:1048D000FF0E076E086EA8EC41F001C50DF502C58C
:1048E0000EF503C50FF504C510F54950336E346A53
:1048F000D890333634361FC535F520C536F53350DC
:10490000352634503622FE0E3524D96EFF0E362061
:10491000DA6E610078F337F5610074F338F54950C9
:10492000020D6100CCF339F56100D0F33AF539504E
:104930001F24D96E3A502020DA6E610078F33BF5DF
:10494000610074F33CF537503B5E38503C5A3BC530
:1049500011F53CC512F5136A146AF9EC32F04950AE
:1049600021243D6E000E22203E6EFF0E3D24D96EA6
:10497000FF0E3E20DA6EDF503F6E3F500D24456E35
:10498000000E0E20466E000E0F20476E000E102007
:10499000486E48BED0EF24F0CEEF24F0DDEF24F0D7
:1049A000610084F4D9F4610088F4DAF4DF50246EF5
:1049B0002450456E466A476A486A48BEEBEF24F0C9
:1049C00048504710461009E1650E455CD8A0EBEF52
:1049D00024F0EDEF24F000EF25F023502124246E85
:1049E000000E2220256EFF0E2424D96EFF0E2520F6
:1049F000DA6EDF50266E2650456E466A476A486A70
:104A000045C51BF546C51CF51200010E496E610037
:104A10007CF4D9F4610080F4DAF4610078F341F5B4
:104A2000610074F342F52350246E256AD890243631
:104A300025361FC526F520C527F5245026262550E6
:104A40002722FE0E2624D96EFF0E2720DA6E610083
:104A500078F343F5610074F344F54150246E4250FD
:104A6000256E266A276A1B50245C1C5025581D5051
:104A700026582750800A286E1E50800A2858D8A031
:104A800044EF25F046EF25F053EF25F0610084F464
:104A9000D9F4610088F4DAF4DF50246E24501B6EE0
:104AA0001C6ACFEF26F04350246E4450256E266AD0
:104AB000276A24501B5C25501C5826501D581E5038
:104AC000800A286E2750800A2858D8A06AEF25F05F
:104AD0006CEF25F080EF25F023502124246E000E8A
:104AE0002220256EFF0E2424D96EFF0E2520DA6EBB
:104AF000DF50266E26501B6E1C6ACFEF26F0492A27
:104B00004950020D6100CCF324F56100D0F325F586
:104B100024501F24D96E25502020DA6E610078F3CE
:104B200026F5610074F327F52650286E2750296E6C
:104B30002A6A2B6A1B50285C1C5029581D502A5881
:104B40002B50800A2C6E1E50800A2C58D8A0ABEF38
:104B500025F0ADEF25F07FEF25F04950020D610003
:104B6000CCF324F56100D0F325F524501F24D96E31
:104B700025502020DA6E610078F326F5610074F389
:104B800027F52650286E2750296E2A6A2B6A1B505B
:104B900028180DE11C5029180AE11D502A1807E1B8
:104BA0001E502B18D8A4D7EF25F0D9EF25F0E6EF4B
:104BB00025F049502124D96E000E2220DA6EDF50F4
:104BC000246E24501B6E1C6ACFEF26F04950246ED1
:104BD000256AD890243625361FC526F520C527F529
:104BE0002450262625502722FE0E2624D96EFF0E9D
:104BF0002720DA6E610078F328F5610074F329F557
:104C000028502A6E29502B6E2C6A2D6A2A501B5C64
:104C1000016E2B501C58026E2C501D58036E2D50E7
:104C20001E58046E49502124D96E000E2220DA6EDF
:104C3000DF502E6E2F6A49502124306E000E222044
:104C4000316EFF0E3024D96EFF0E3120DA6EDF5048
:104C5000326E32502E5E000E2F5A2EC505F52FC52E
:104C600006F5000E06BEFF0E076E086EA8EC41F0BA
:104C700001C50DF502C50EF503C50FF504C510F508
:104C80004950336E346AD890333634361FC535F503
:104C900020C536F53350352634503622FE0E3524E5
:104CA000D96EFF0E3620DA6E610078F337F56100B9
:104CB00074F338F54950020D6100CCF339F5610009
:104CC000D0F33AF539501F24D96E3A502020DA6ECD
:104CD000610078F33BF5610074F33CF537503B5EBF
:104CE00038503C5A3BC511F53CC512F5136A146A9D
:104CF000F9EC32F0495021243D6E000E22203E6E28
:104D0000FF0E3D24D96EFF0E3E20DA6EDF503F6E5F
:104D10003F500D24456E000E0E20466E000E0F20F3
:104D2000476E000E1020486E48BE9BEF26F099EFAC
:104D300026F0A8EF26F0610084F4D9F4610088F42D
:104D4000DAF4DF50246E2450456E466A476A486A9A
:104D500048BEB6EF26F048504710461009E1650EF0
:104D6000455CD8A0B6EF26F0B8EF26F0CBEF26F0E2
:104D700023502124246E000E2220256EFF0E2424B1
:104D8000D96EFF0E2520DA6EDF50266E2650456E56
:104D9000466A476A486A45C51BF546C51CF51200B8
:104DA0006100B4F5D9F46100B8F5DAF4610078F384
:104DB00073F5610078F374F5610078F375F56100BF
:104DC00078F376F5050120EE04F06D51D9266E5189
:104DD000DA22DFA0EEEF26F0F0EF26F02AEF27F040
:104DE00020EE01F06B51D9266C51DA227339E8427A
:104DF000F80BF80BDF6E050E6F6FD89076337533B6
:104E0000743373336F2FFDEF26F020EE02F06B51F9
:104E1000D9266C51DA226100CCF5DFF474C573F544
:104E200075C574F576C575F5766B20EE03F06B519C
:104E3000D9266C51DA2273511F0BDF6E050E6F6F8E
:104E4000D89076337533743373336F2F20EF27F098
:104E500042EF27F020EE03F06B51D9266C51DA2295
:104E6000000EDF6E10EE02F06B51E1266C51E22273
:104E7000DFC4E7F420EE01F06B51D9266C51DA2241
:104E8000E7C4DFF46100ACF5D9F46100B0F5DAF401
:104E90006100CCF5DFF474C573F575C574F576C59E
:104EA00075F5766B73C56FF5070E6F1720EE01F081
:104EB0006B51D9266C51DA226F51DF1220EE04F0CB
:104EC0006D51D9266E51DA22DF30E8320F0B726F46
:104ED00020EE04F06D51D9266E51DA22DFB073EF67
:104EE00027F077EF27F06F6B6F2B79EF27F0050135
:104EF0006F6B6F39F00B721320EE04F06D51D926F1
:104F00006E51DA22DFB287EF27F08BEF27F0200E09
:104F10006F6F8DEF27F005016F6B6F51721320EEED
:104F200004F06D51D9266E51DA22DFBE9AEF27F0D8
:104F30009EEF27F0400E6F6FA0EF27F005016F6B1B
:104F40006F51721320EE04F06D51D9266E51DA22A2
:104F5000DFBCADEF27F0B1EF27F0800E6F6FB3EF3E
:104F600027F005016F6B6F51721320EE04F06B5147
:104F7000D9266C51DA226100C8F5DFF420EE04F086
:104F80006D51D9266E51DA22DFB2C9EF27F0CBEF8F
:104F900027F0F7EF27F0080E6B25606F000E6C21ED
:104FA000616F20EE05F06D51D9266E51DA22610055
:104FB00078F362F5610074F363F520EE04F06D514F
:104FC000D9266E51DA22DF30E8320F0B6F6F706B2B
:104FD000270E6F25F66E260E7021F76EF86A000E0A
:104FE000F8220800F550646F656B0BEC42F012007C
:104FF000610038F4D9F461003CF4DAF4610078F32C
:1050000014F5610078F315F5610078F316F5610089
:1050100078F317F520EE04F00E50D9260F50DA225F
:10502000DFA015EF28F017EF28F051EF28F020EE61
:1050300001F00C50D9260D50DA221438E842F80B52
:10504000F80BDF6E050E106ED8901732163215323F
:105050001432102E24EF28F020EE02F00C50D92646
:105060000D50DA22610050F4DFF415C514F516C5B1
:1050700015F517C516F5176A20EE03F00C50D92662
:105080000D50DA2214501F0BDF6E050E106ED890F3
:105090001732163215321432102E47EF28F069EF0E
:1050A00028F020EE03F00C50D9260D50DA22000E25
:1050B000DF6E10EE02F00C50E1260D50E222DFC44C
:1050C000E7F420EE01F00C50D9260D50DA22E7C4A7
:1050D000DFF4610030F4D9F4610034F4DAF46100F3
:1050E00050F4DFF415C514F516C515F517C516F5FA
:1050F000176A14C510F5070E101620EE01F00C50BB
:10510000D9260D50DA221050DF1220EE04F00E5096
:10511000D9260F50DA22DF30E8320F0B136E20EE63
:1051200004F00E50D9260F50DA22DFB09AEF28F0A3
:105130009EEF28F0106A102A9FEF28F0106A1038AE
:10514000F00B131220EE04F00E50D9260F50DA2285
:10515000DFB2ADEF28F0B1EF28F0200E106EB2EF05
:1051600028F0106A1050131220EE04F00E50D926C9
:105170000F50DA22DFBEBFEF28F0C3EF28F0400E59
:10518000106EC4EF28F0106A1050131220EE04F0D5
:105190000E50D9260F50DA22DFBCD1EF28F0D5EF20
:1051A00028F0800E106ED6EF28F0106A10501312FF
:1051B00020EE04F00C50D9260D50DA2261004CF498
:1051C000DFF420EE04F00E50D9260F50DA22DFB2C1
:1051D000ECEF28F0EEEF28F01AEF29F0080E0C247F
:1051E000016E000E0D20026E20EE05F00E50D92645
:1051F0000F50DA22610078F303F5610074F304F5CF
:1052000020EE04F00E50D9260F50DA22DF30E832BB
:105210000F0B106E116A270E1024F66E260E112049
:10522000F76EF86A000EF8220800F550056E066A5F
:1052300066EC42F0120020EE04F00C50D9260D501E
:10524000DA22DF50176E17C510F520EE04F00E506D
:10525000D9260F50DA2210461046DF501018C30B23
:105260001018DF6E17B837EF29F03BEF29F0106AFE
:10527000102A3CEF29F0106A20EE04F00E50D926D7
:105280000F50DA22DF501018FE0B1018DF6E17BA1D
:105290004CEF29F050EF29F0106A102A51EF29F055
:1052A000106A20EE04F00E50D9260F50DA22104674
:1052B000DF501018FD0B1018DF6E17BC62EF29F0DD
:1052C00066EF29F0106A102A67EF29F0106A20EEC5
:1052D00004F00E50D9260F50DA2210321032DF506F
:1052E00010187F0B1018DF6E17BE79EF29F07DEFD5
:1052F00029F0106A102A7EEF29F0106A20EE04F0DF
:105300000E50D9260F50DA22103A10461046DF50C0
:105310001018BF0B1018DF6E20EE01F00C50D926CC
:105320000D50DA22DF50106E070E10161050136E5B
:10533000146A156A166A15C516F514C515F513C550
:1053400014F5136A610030F4D9F4610034F4DAF42E
:10535000DF50106E1050131220EE04F00E50D926BC
:105360000F50DA22DFA0B7EF29F0B9EF29F0FAEFFA
:1053700029F0050ED8901336143615361636E82E59
:10538000BAEF29F020EE03F00C50D9260D50DA22A6
:10539000DF50106E1F0E10161050131215C516F5A3
:1053A00014C515F513C514F5136A20EE02F00C5060
:1053B000D9260D50DA22DF50106E10501312050E50
:1053C000D8901336143615361636E82EE0EF29F04D
:1053D00020EE01F00C50D9260D50DA22DF50106E6D
:1053E000D8901032D8901032D89010321F0E10166C
:1053F00010501312610038F4D9F461003CF4DAF46F
:1054000061004CF4DEF4610050F4DEF4610054F409
:10541000DEF4610058F4DEF4A60E016E060E026E94
:10542000080E0C24036E000E0D20046E20EE04F016
:105430000E50D9260F50DA22DF30E8320F0B106EF3
:10544000116A270E1024F66E260E1120F76EF86AE8
:10545000000EF8220800F550056E066A66EC42F070
:1054600020EE05F00E50D9260F50DA22A60EDE6E81
:10547000060EDD6E1200020E0301F96F3F0EFA6F89
:10548000000ED86F000EFB6F000ED96F000EDA6FA2
:10549000000EDB6F000EDC6F000EDF6F000EE06FA2
:1054A000000EE36F000EE46F000EE56F000EE66F76
:1054B000000EE76F000EEA6F000EEB6F100EEC6F40
:1054C000E80EEE6F030EEF6F000EF06F000EF16F3F
:1054D000000EF26F000EF36F000EF46F100EF56FFA
:1054E000000EF66F000EF76F000EF86F000EFC6FE7
:1054F000010EFB6F000ED96F000EDA6F000EDB6F2E
:10550000000EDC6F000EDF6F000EE06F000EE36F29
:10551000000EE46F000EE56F000EE66F000EE76F01
:10552000000EEA6F000EEB6F040EEC6FE80EEE6FEC
:10553000030EEF6F000EF06F000EF16F000EF26FB2
:10554000000EF36F000EF46F100EF56F000EF66F85
:10555000000EF76F000EF86F000EFD6F020EFB6F6E
:10556000000ED96F000EDA6F000EDB6F000EDC6FDD
:10557000000EDF6F000EE06F000EE36F000EE46FB1
:10558000000EE56F000EE66F000EE76F000EEA6F8B
:10559000000EEB6F120EEC6FE80EEE6F030EEF6F66
:1055A000000EF06F000EF16F000EF26F000EF36F41
:1055B000000EF46F100EF56F000EF66F000EF76F11
:1055C000000EF86F000EFE6F030EFB6F000ED96F1A
:1055D000000EDA6F000EDB6F000EDC6F000EDF6F67
:1055E000000EE06F000EE36F000EE46F000EE56F3B
:1055F000000EE66F000EE76F000EEA6F000EEB6F15
:10560000110EEC6FE80EEE6F030EEF6F000EF06FF1
:10561000000EF16F000EF26F000EF36F000EF46FCC
:10562000100EF56F000EF66F000EF76F000EF86F9C
:10563000000EFF6FAF94AF96B090B092B094B0965A
:10564000000E0501606F000E616F19EC47F0000E4F
:105650000501606F000E616F0FEC47F0000E050151
:10566000606F000E616F0AEC47F0000E0501606F7D
:10567000000E616F05EC47F0000E0501606F000E33
:10568000616F00EC47F0000E0501606F000E616F66
:1056900014EC47F0840E0301F36F1200DBEC3AF0D8
:1056A0000009D8B456EF2BF058EF2BF054EF2CF044
:1056B000B60E226E060E236E93EC42F0E806D8A4D6
:1056C00064EF2BF066EF2BF054EF2CF000F0B6C631
:1056D0003BF5B7C63CF5B8C63DF5B9C63EF5610029
:1056E000ECFAD9F46100F0FADAF4DF50466E060104
:1056F00020EE01F0BB51D926BC51DA22DF50456EB5
:1057000020EE02F0BB51D926BC51DA22DF50426EA6
:1057100020EE03F0BB51D926BC51DA22DF50436E94
:1057200020EE04F0BB51D926BC51DA22DF50446E82
:1057300020EE05F0BB51D926BC51DA22DF503F6E76
:1057400020EE06F0BB51D926BC51DA22DF50406E64
:1057500020EE07F0BB51D926BC51DA22DF50416E52
:105760000EEF2CF046C5A2F645C5A1F642C59FF640
:1057700043C59EF644C59DF60501FC05D8A4C3EFBC
:105780002BF0C5EF2BF054EF2CF0010E0601A06FAB
:1057900054EF2CF04650070B9C6F4650180B9B6F34
:1057A0004650E00B9A6F4550010B996F4550060B20
:1057B000986F4550780B976F54EF2CF046C595F6CF
:1057C00045C594F642C593F643C592F644C591F695
:1057D0003FC590F640C58FF641C58EF654EF2CF0CC
:1057E00046C5FCF50501FC512BEC43F054EF2CF0C1
:1057F00046C58BF60501FC51D8A401EF2CF003EF50
:105800002CF054EF2CF0000E336E06018B51EDECB2
:105810003DF054EF2CF000F054EF2CF03BC535F583
:105820003CC536F53DC537F53EC538F53850000A5C
:10583000D8B44DEF2CF00BEF2CF03650030AD8B44F
:105840002CEF2CF0070AD8B437EF2CF0010AD8B4AB
:105850003EEF2CF00BEF2CF03550200AD8B4B2EF0D
:105860002BF0670AD8B4F0EF2BF00BEF2CF035508B
:10587000120AD8B4F8EF2BF00BEF2CF03550000AD9
:10588000D8B4CAEF2BF0010AD8B4DEEF2BF0030A2C
:10589000D8B454EF2CF00BEF2CF03750000AD8B4EA
:1058A0001DEF2CF00BEF2CF0120055C57AF556C504
:1058B0007BF505017C6B7D6B620E7E6F070E7F6F43
:1058C000DE0E806F060E816F150E826F9EEC1FF04C
:1058D0007AC54EF67BC54FF653C57AF554C57BF5B0
:1058E00005017C6B7D6B380E7E6F070E7F6F8C0E13
:1058F000806F070E816F150E826FD0EC1DF07AC598
:105900004CF67BC54DF606014C514E250501A96F9D
:1059100006014D514F210501AA6FD890AA31AB6FF6
:10592000A93106014A6FABC54BF600F0320E552483
:105930000501A96F000E5620AA6FAB6BAC6B060178
:1059400028510501A95D060129510501AA59060141
:105950002A510501AB59AC51800AAD6F06012B519C
:10596000800A0501AD59D8A0B8EF2CF0BAEF2CF0A1
:10597000DBEF2CF0CE0E5524A96FFF0E5620AA6F38
:10598000AB6BAC6BA9510601285D0501AA5106015C
:1059900029590501AB5106012A592B51800A0501ED
:1059A000AD6FAC51800AAD59D8B0D9EF2CF0DBEF18
:1059B0002CF0DEEF2CF05A80E0EF2CF0FE0E5A12A5
:1059C000320E5324A96F000E5420AA6FAB6BAC6B40
:1059D000060124510501A95D060125510501AA59B9
:1059E000060126510501AB59AC51800AAD6F060185
:1059F0002751800A0501AD59D8A001EF2DF003EF22
:105A00002DF024EF2DF0CE0E5324A96FFF0E54205D
:105A1000AA6FAB6BAC6BA9510601245D0501AA51BD
:105A2000060125590501AB51060126592751800A67
:105A30000501AD6FAC51800AAD59D8B022EF2DF001
:105A400024EF2DF027EF2DF05A8229EF2DF0FD0ED7
:105A50005A12050EFB19D8A430EF2DF032EF2DF0BD
:105A600035EF2DF05A844EEF2DF0090EFB19D8A416
:105A70003CEF2DF03EEF2DF041EF2DF05A944EEF1C
:105A80002DF0060EFB19D8A448EF2DF04AEF2DF0AB
:105A90004CEF2DF03EEF2DF032EF2DF0120005010E
:105AA000686F05016851D8B458EF2DF05AEF2DF00A
:105AB0007CEF2DF063BF61EF2DF05FEF2DF07CEFF9
:105AC0002DF060C564F561C565F562C566F563C511
:105AD00067F5641F651F661F671F642B000E652333
:105AE0006623672364C56AF565C56BF566C56CF505
:105AF00067C56DF584EF2DF060C56AF561C56BF57E
:105B000062C56CF563C56DF5605161116211631179
:105B1000D8A48DEF2DF08FEF2DF099EF2DF0000E22
:105B2000606F000E616F000E626F000E636F2AEFF0
:105B30002EF0960E696FA3EF2DF0692BD8906D3380
:105B40006C336B336A33000E6A15646F000E6B158D
:105B5000656F000E6C15666FFE0E6D15676F6451F4
:105B6000651166116711D8A4B8EF2DF0BAEF2DF0CA
:105B70009DEF2DF0C8EF2DF0692B010E6A27000E66
:105B80006B236C236D23D8906D336C336B336A3386
:105B9000000E6A15646F000E6B15656F000E6C15B4
:105BA000666FFF0E6D15676F6451651166116711A1
:105BB000D8A4DDEF2DF0DFEF2DF0BCEF2DF0E7EFF7
:105BC0002DF06907D8906A376B376C376D376CBF2B
:105BD000ECEF2DF0EEEF2DF0F6EF2DF0020E6961F7
:105BE000F4EF2DF0F6EF2DF0E1EF2DF069B1FBEFC2
:105BF0002DF0FDEF2DF0FEEF2DF06C9FD890693366
:105C000069C564F5656B666B676B64C567F5666B44
:105C1000656B646B64516A1365516B1366516C1349
:105C200067516D136851D8B418EF2EF01AEF2EF0AB
:105C300022EF2EF063BF21EF2EF01FEF2EF022EFA8
:105C40002EF06D8F6AC560F56BC561F56CC562F5A8
:105C50006DC563F51200096E0950D8B432EF2EF00D
:105C600034EF2EF056EF2EF004BE3BEF2EF039EF5E
:105C70002EF056EF2EF001C505F502C506F503C559
:105C800007F504C508F5051E061E071E081E052A91
:105C9000000E06220722082205C50BF506C50CF5E5
:105CA00007C50DF508C50EF55EEF2EF001C50BF525
:105CB00002C50CF503C50DF504C50EF50150021023
:105CC00003100410D8A467EF2EF069EF2EF073EFE5
:105CD0002EF0000E016E000E026E000E036E000E1E
:105CE000046E04EF2FF0960E0A6E7DEF2EF00A2A56
:105CF000D8900E320D320C320B32000E0B14056EA2
:105D0000000E0C14066E000E0D14076EFE0E0E141F
:105D1000086E0550061007100810D8A492EF2EF058
:105D200094EF2EF077EF2EF0A2EF2EF00A2A010E5C
:105D30000B26000E0C220D220E22D8900E320D32B0
:105D40000C320B32000E0B14056E000E0C14066E96
:105D5000000E0D14076EFF0E0E14086E055006108F
:105D600007100810D8A4B7EF2EF0B9EF2EF096EF79
:105D70002EF0C1EF2EF00A06D8900B360C360D36F9
:105D80000E360DBEC6EF2EF0C8EF2EF0D0EF2EF07F
:105D9000020E0A60CEEF2EF0D0EF2EF0BBEF2EF009
:105DA0000AB0D5EF2EF0D7EF2EF0D8EF2EF00D9EE3
:105DB000D8900A320AC505F5066A076A086A05C559
:105DC00008F5076A066A056A05500B1206500C12A0
:105DD00007500D1208500E120950D8B4F2EF2EF0F1
:105DE000F4EF2EF0FCEF2EF004BEFBEF2EF0F9EFF7
:105DF0002EF0FCEF2EF00E8E0BC501F50CC502F552
:105E00000DC503F50EC504F5120055C51BF556C5A5
:105E10001CF51D6A1E6A620E1F6E070E206EDE0ED6
:105E2000216E060E226E150E236E05EC25F01BC5A5
:105E30004EF61CC54FF653C51BF554C51CF51D6A1F
:105E40001E6A380E1F6E070E206E8C0E216E070E16
:105E5000226E150E236E3AEC23F01BC54CF61CC5C2
:105E60004DF606014C514E254A6E4D514F214B6E59
:105E7000D8904B304C6E4A304A6F4CC54BF600F010
:105E8000320E55244A6E000E56204B6E4C6A4D6AF7
:105E9000060128514A5C29514B582A514C584D5003
:105EA000800A4E6E2B51800A4E58D8A05AEF2FF020
:105EB0005CEF2FF077EF2FF0CE0E55244A6EFF0ED9
:105EC00056204B6E4C6A4D6A4A50285D4B502959FA
:105ED0004C502A592B51800A4E6E4D50800A4E5814
:105EE000D8B075EF2FF077EF2FF07AEF2FF05A80C0
:105EF0007CEF2FF0FE0E5A12320E53244A6E000E23
:105F000054204B6E4C6A4D6A24514A5C25514B58C3
:105F100026514C584D50800A4E6E2751800A4E58DB
:105F2000D8A095EF2FF097EF2FF0B2EF2FF0CE0E15
:105F300053244A6EFF0E54204B6E4C6A4D6A4A50F1
:105F4000245D4B5025594C5026592751800A4E6EDE
:105F50004D50800A4E58D8B0B0EF2FF0B2EF2FF06E
:105F6000B5EF2FF05A82B7EF2FF0FD0E5A12050E43
:105F70000501FB19D8A4BFEF2FF0C1EF2FF0C4EF3C
:105F80002FF05A84DDEF2FF0090EFB19D8A4CBEFC8
:105F90002FF0CDEF2FF0D0EF2FF05A94DDEF2FF050
:105FA000060EFB19D8A4D7EF2FF0D9EF2FF0DBEFB7
:105FB0002FF0CDEF2FF0C1EF2FF012000501F96F98
:105FC0004AC68BF50501F95109EC35F05C04D8A4FB
:105FD000ECEF2FF0EEEF2FF093EF30F00601DD0540
:105FE000D8A4F5EF2FF0F7EF2FF093EF30F0F9C5CD
:105FF00034F6356B0501FC51F619D8A402EF30F0E8
:1060000004EF30F09EEF30F0FC05D8A40AEF30F03A
:106010000CEF30F050EF30F04AC660F54BC661F53A
:10602000626B636B000E4FEC2DF060C5C2F561C56D
:10603000C3F562C5C4F563C5C5F50501F951606FC7
:10604000616B626B636B000E4FEC2DF060C5BEF5AB
:1060500061C5BFF562C5C0F563C5C1F5000E050198
:10606000BC6F070EBD6F5EEC13F0BCC5E2F5BDC59D
:10607000E3F5BEC5E4F5BFC5E5F57FEC33F0E2C559
:10608000F7F5E3C5F8F5F7C5ECF5F8C5EDF5020E43
:106090000501EF6F580EEE6F82EC35F09EEF30F099
:1060A000FC51D8A456EF30F058EF30F091EF30F0BB
:1060B0004AC660F54BC661F5626B636B000E4FEC30
:1060C0002DF060C5C2F561C5C3F562C5C4F563C5F1
:1060D000C5F50501F951606F616B626B636B000E72
:1060E0004FEC2DF060C5BEF561C5BFF562C5C0F5CA
:1060F00063C5C1F5000E0501BC6F070EBD6F5EECF8
:1061000013F0BCC5E2F5BDC5E3F5BEC5E4F5BFC5FA
:10611000E5F57FEC33F0E2C5F7F5E3C5F8F543EFBD
:1061200030F09EEF30F0000E0501ED6F000EEC6FC9
:10613000020EEF6F580EEE6F82EC35F01200010187
:106140001DAFA5EF30F0A7EF30F0B6EF30F002D87A
:10615000B4EF30F00500FA6E06017A51FD6E7B5106
:10616000FE6EFF6AFA50120001011D9F1DADBBEFCC
:1061700030F0BDEF30F0CCEF30F002D8CAEF30F0A5
:106180000500FA6E06017851FD6E7951FE6EFF6AC8
:10619000FA50120001011D9D1DABD1EF30F0D3EF7D
:1061A00030F0E2EF30F002D8E0EF30F00500FA6EA8
:1061B00006017651FD6E7751FE6EFF6AFA501200AD
:1061C00001011D9B1CA7E7EF30F0E9EF30F0F8EF7D
:1061D00030F002D8F6EF30F00500FA6E0601745187
:1061E000FD6E7551FE6EFF6AFA50120001011C9798
:1061F0001DA9FDEF30F0FFEF30F00EEF31F002D8C7
:106200000CEF31F00500FA6E06017251FD6E73510C
:10621000FE6EFF6AFA50120001011D991DA513EFD1
:1062200031F015EF31F02BEF31F002D822EF31F0E1
:106230000500FA6E06017051FD6E7151FE6EFF6A27
:10624000FA501200010154A928EF31F02AEF31F081
:106250002BEF31F054991DA730EF31F032EF31F0D0
:1062600048EF31F002D83FEF31F00500FA6E060139
:106270006E51FD6E6F51FE6EFF6AFA501200010101
:1062800060A745EF31F047EF31F048EF31F060970C
:10629000AE9C12000501696F8DEF31F02DEC47F0D7
:1062A000000E92EC46F0100E6CEC43F060C56AF5FF
:1062B00061C56BF5010E05016C6FABEF31F02DEC94
:1062C00047F0010E92EC46F0040E6CEC43F060C512
:1062D0006AF561C56BF55AEF31F02DEC47F0020E0F
:1062E00092EC46F0120E6CEC43F060C56AF561C5A5
:1062F0006BF55AEF31F02DEC47F0030E92EC46F0BF
:10630000110E6CEC43F060C56AF561C56BF55AEF90
:1063100031F0020E6C6FABEF31F005016951676F20
:10632000686B6851000AD8B498EF31F089EF31F00A
:106330006751010AD8B46DEF31F0030AD8B47BEF8E
:1063400031F0010AD8B44EEF31F0070AD8B45FEF4C
:1063500031F089EF31F06C05D8A4B1EF31F0B3EF33
:1063600031F0E1EF31F06B5107E1070E6A5DD8B013
:10637000BCEF31F0BEEF31F0C4EF31F0000E6E6FC4
:10638000000E6D6FCEEF31F06AC56DF56BC56EF521
:10639000FB0E6D256D6FFF0E6E216E6F890E6D5DAC
:1063A000130E6E59D8A0D7EF31F0D9EF31F0DBEFF3
:1063B00031F0E1EF31F06DC565F56EC566F5E1EFE1
:1063C00031F01200000E0501ED6F000EEC6F020EB1
:1063D000EF6F580EEE6F82EC35F0030E0501F76F8C
:1063E0008A0EF66F550EE82EFED7F62FFCD7F72F44
:1063F000FAD700D0C9EC43F0030E0501F76F8A0EFF
:10640000F66F550EE82EFED7F62FFCD7F72FFAD7EA
:1064100000D0CE0E55240601406FFF0E5620416F6E
:10642000320E53243C6F000E54203D6FCE0E552487
:106430000701626FFF0E5620636F320E5324386FD0
:10644000000E5420396F00F0000E0501ED6F640E50
:10645000EC6F020EEF6F580EEE6F82EC35F0090E06
:106460000501F76FE10EF66FB20EE82EFED7F62F9C
:10647000FCD7F72FFAD700F0C9EC43F0030E050163
:10648000F76F8A0EF66F550EE82EFED7F62FFCD763
:10649000F72FFAD700D0CE0E552406013E6FFF0E1F
:1064A00056203F6F320E53243A6F000E54203B6F3C
:1064B000CE0E552407018A6FFF0E56208B6F320EC9
:1064C0005324606F000E5420616F00F0000E050130
:1064D000ED6F000EEC6F010EEF6F2C0EEE6F82EC85
:1064E00035F01200000E0501756F73BF7CEF32F0BE
:1064F0007AEF32F086EF32F0731F721F711F706DEA
:10650000000E712372237323010E756F6FBF8DEF21
:1065100032F08BEF32F097EF32F06F1F6E1F6D1F6E
:106520006C6D000E6D236E236F23010E751B000E24
:10653000766F000E776F000E786F000E796F7051D6
:10654000711172117311D8B4A8EF32F0AAEF32F0C2
:10655000E0EF32F0010E746FB4EF32F0D890703784
:10656000713772377337742B73AFB9EF32F0BBEFFB
:1065700032F0AEEF32F0D890763777377837793718
:1065800070516C5D71516D5972516E5973516F59E3
:10659000D8A0CDEF32F0CFEF32F0D8EF32F070511B
:1065A0006C5F71516D5B72516E5B73516F5B768185
:1065B000D8907333723371337033742FBBEF32F072
:1065C0007551D8B4E6EF32F0E8EF32F0F0EF32F088
:1065D000791F781F771F766D000E77237823792334
:1065E00076C56CF577C56DF578C56EF579C56FF52F
:1065F0001200000E166E14BE02EF33F000EF33F0FF
:106600000CEF33F0141E131E121E116C000E12221A
:1066100013221422010E166E10BE13EF33F011EF89
:1066200033F01DEF33F0101E0F1E0E1E0D6C000E0A
:106630000E220F221022010E161A000E176E000EE7
:10664000186E000E196E000E1A6E115012101310F3
:106650001410D8B42EEF33F030EF33F066EF33F090
:10666000010E156E3AEF33F0D8901136123613360C
:106670001436152A14AE3FEF33F041EF33F034EF08
:1066800033F0D8901736183619361A3611500D5C7B
:1066900012500E5813500F5814501058D8A053EFE2
:1066A00033F055EF33F05EEF33F011500D5E1250C2
:1066B0000E5A13500F5A1450105A1780D890143293
:1066C000133212321132152E41EF33F01650D8B476
:1066D0006CEF33F06EEF33F076EF33F01A1E191EC5
:1066E000181E176C000E182219221A2217C50DF554
:1066F00018C50EF519C50FF51AC510F512000501DC
:10670000E435E535EB6FEB51D8A489EF33F08BEF2F
:1067100033F095EF33F0000EE26F000EE36F000EE2
:10672000E46F000EE56F02EF34F0E2C5E6F5E3C575
:10673000E7F5E4C5E8F5E5C5E9F5200EA5EF33F08A
:10674000D890E933E833E733E633E82EA0EF33F0AF
:10675000E651EA6FE48FFF0EE217FF0EE317FF0E1C
:10676000E417000EE517960EEB5FEBBFBCEF33F0BE
:10677000BAEF33F0D2EF33F0EB51800A970FD8B075
:10678000C4EF33F0C6EF33F0C8EF33F08BEF33F0E4
:10679000D890E533E433E333E233EB3FC8EF33F033
:1067A000EAEF33F01F0EEB65D8EF33F0DAEF33F09A
:1067B000E2EF33F08BEF33F0D890E237E337E43792
:1067C000E537EB07EB51D8A4E8EF33F0EAEF33F00D
:1067D000DCEF33F0EA51D8B4F0EF33F0F2EF33F0FE
:1067E000FAEF33F0E51FE41FE31FE26D000EE32331
:1067F000E423E523E2C5E2F5E3C5E3F5E4C5E4F50A
:10680000E5C5E5F51200000E05016015686F000E84
:106810006115696F800E62156A6F7F0E63156B6F6D
:10682000685169116A116B11D8A419EF34F01BEF8C
:1068300034F023EF34F0000E606F000E616F000E35
:10684000626F000E636F000E6415686F000E6515B1
:10685000696F800E66156A6F7F0E67156B6F6851E2
:1068600069116A116B11D8A438EF34F03AEF34F0A3
:1068700042EF34F0000E646F000E656F000E666F1D
:10688000000E676F63AF47EF34F049EF34F052EF1B
:1068900034F0606D611FD8B0612B621FD8B0622BDD
:1068A000800E635767AF57EF34F059EF34F062EF63
:1068B00034F0646D651FD8B0652B661FD8B0662BA9
:1068C000800E6757000E601B000E611B000E621BDE
:1068D000800E631B000E641B000E651B000E661B02
:1068E000800E671B6451605D655161596651625944
:1068F00067516359D8B07FEF34F081EF34F084EF03
:1069000034F0D89085EF34F0D8801200213422344E
:10691000286E2850D8A48FEF34F091EF34F09BEF1D
:1069200034F0000E1F6E000E206E000E216E000E61
:10693000226E08EF35F01FC523F520C524F521C5CB
:1069400025F522C526F5200EABEF34F0D89026327F
:10695000253224322332E82EA6EF34F02350276E5E
:10696000218EFF0E1F16FF0E2016FF0E2116000EA1
:106970002216960E285E28BEC2EF34F0C0EF34F027
:10698000D8EF34F02850800A970FD8B0CAEF34F00F
:10699000CCEF34F0CEEF34F091EF34F0D8902232D7
:1069A000213220321F32283ECEEF34F0F0EF34F0A7
:1069B0001F0E2864DEEF34F0E0EF34F0E8EF34F03F
:1069C00091EF34F0D8901F36203621362236280633
:1069D0002850D8A4EEEF34F0F0EF34F0E2EF34F0CA
:1069E0002750D8B4F6EF34F0F8EF34F000EF35F07C
:1069F000221E211E201E1F6C000E20222122222278
:106A00001FC51FF520C520F521C521F522C522F59A
:106A100012000501916F000E05017D6F050E7E6F5E
:106A2000000E7F6F000E806F060E816F91C582F59C
:106A30008BC583F54AC684F55CC685F55AC586F5CF
:106A4000000E876F000E886F000E896FBEEC38F065
:106A5000050191518C6F8D6B8B518E6F8F6B140E66
:106A60008E27000E8F238C518E5D8F51800A906F80
:106A70008D51800A9059D8B040EF35F042EF35F093
:106A800047EF35F0000E0601806F81EF35F08B5136
:106A90008C6F8D6B91518E6F8F6B140E8E27000E45
:106AA0008F238C518E5D8F51800A906F8D51800A9B
:106AB0009059D8B05EEF35F060EF35F062EF35F009
:106AC00042EF35F0010E0601806F000E0501FA6FEE
:106AD000060E8B616EEF35F070EF35F07CEF35F020
:106AE0005AAA75EF35F077EF35F07CEF35F0010EEF
:106AF00006017F6F81EF35F0000E06017F6F000EFB
:106B00007E6F1200490E05016C6F990E6D6F000EBD
:106B10006E6F000E6F6FEEC570F5EFC571F5726B9D
:106B2000736B72EC32F06CC5F2F56DC5F3F56A0E5D
:106B30000501726F4D0E736F930E746FBF0E756FFC
:106B4000F2C560F5F3C561F5626B636B000E4FEC47
:106B50002DF060C56EF561C56FF562C570F563C552
:106B600071F5E7EC16F06EC5E2F56FC5E3F570C59B
:106B7000E4F571C5E5F57FEC33F0E2C5F2F5E3C568
:106B8000F3F5ECC5F0F5EDC5F1F50501D890F0375A
:106B9000F137D890F037F137F0C5F4F5F1C5F5F5D8
:106BA000F4C560F5F5C561F5000E636F640E626FA4
:106BB000DCEC44F060C5F4F561C5F5F5F4C560F5AD
:106BC000F5C561F5EEC562F5EFC563F515EC40F06E
:106BD00060C5F4F561C5F5F5F4C560F5F5C561F579
:106BE0007DEC46F0F2C560F5F3C561F576EC46F054
:106BF00035EC47F01200490E05016C6F990E6D6F70
:106C0000000E6E6F000E6F6FEEC570F5EFC571F57B
:106C1000726B736B72EC32F06CC5F2F56DC5F3F507
:106C20006A0E0501726F4D0E736F930E746FBF0E77
:106C3000756FF2C560F5F3C561F5626B636B000EAD
:106C40004FEC2DF060C56EF561C56FF562C570F54E
:106C500063C571F5E7EC16F06EC5E2F56FC5E3F5B7
:106C600070C5E4F571C5E5F57FEC33F0E2C5F2F5EA
:106C7000E3C5F3F5ECC5F0F5EDC5F1F50501D890E8
:106C8000F037F137D890F037F137F0C5F4F5F1C5AA
:106C9000F5F5F4C560F5F5C561F5000E636F640E9A
:106CA000626FDCEC44F060C5F4F561C5F5F5F4C540
:106CB00060F5F5C561F5EEC562F5EFC563F515EC58
:106CC00040F060C5F4F561C5F5F5F4C560F5F5C5AE
:106CD00061F58BEC46F0F2C560F5F3C561F584EC27
:106CE00046F037EC47F01200490E0D6E990E0E6E0D
:106CF000000E0F6E000E106E2BC511F52CC512F58F
:106D0000136A146AF9EC32F00DC52FF50EC530F593
:106D10006A0E136E4D0E146E930E156EBF0E166E28
:106D20002FC501F530C502F5036A046A000E2BEC8D
:106D30002EF001C50FF502C510F503C511F504C508
:106D400012F548EC19F00FC51FF510C520F511C557
:106D500021F512C522F586EC34F01FC52FF520C5AC
:106D600030F529C52DF52AC52EF5D8902D362E36AD
:106D7000D8902D362E362DC531F52EC532F531C5BC
:106D800001F532C502F5000E046E640E036E1DECB3
:106D900045F001C531F502C532F531C501F532C501
:106DA00002F52BC503F52CC504F538EC41F001C5FF
:106DB00031F502C532F531C501F532C502F59EEC5B
:106DC00046F02FC501F530C502F598EC46F039ECD8
:106DD00047F01200490E0D6E990E0E6E000E0F6EEA
:106DE000000E106E2BC511F52CC512F5136A146A2E
:106DF000F9EC32F00DC52FF50EC530F56A0E136EA5
:106E00004D0E146E930E156EBF0E166E2FC501F546
:106E100030C502F5036A046A000E2BEC2EF001C5A2
:106E20000FF502C510F503C511F504C512F548ECC0
:106E300019F00FC51FF510C520F511C521F512C5B4
:106E400022F586EC34F01FC52FF520C530F529C595
:106E50002DF52AC52EF5D8902D362E36D8902D3604
:106E60002E362DC531F52EC532F531C501F532C5A9
:106E700002F5000E046E640E036E1DEC45F001C5B4
:106E800031F502C532F531C501F532C502F52BC524
:106E900003F52CC504F538EC41F001C531F502C508
:106EA00032F531C501F532C502F5AAEC46F02FC521
:106EB00001F530C502F5A4EC46F03BEC47F01200BA
:106EC000216E000E1D6E1850EAEC45F0206E20A0D9
:106ED0006CEF37F06EEF37F0D4EF37F018500C0D41
:106EE000580EF324D96E010EF420DA6E610078F3A7
:106EF0001EF5610074F31FF51E501F10D8B483EF08
:106F000037F085EF37F0D4EF37F01EC50CF51FC50D
:106F10000DF519C50EF51AC50FF51BEC29F0185023
:106F20000C0D510EF324D96E010EF420DA6E000E12
:106F3000DB802150020D5F0EF324D96E050EF42084
:106F4000DA6EDF2A18507FEC45F01B6E2150020DDF
:106F50005F0EF324D96E050EF420DA6E1B50DE5C52
:106F6000D8A0B5EF37F0B7EF37F0C1EF37F02150C9
:106F7000020D5F0EF324D96E050EF420DA6E000EBA
:106F8000DF6E20A6C6EF37F0C8EF37F0D2EF37F04C
:106F900018500C0D540EF324D96E010EF420DA6E45
:106FA000F70EDF16010E1D6E1D501200140E0601A5
:106FB0004C250501606F000E06014D210501616F32
:106FC00006014E510501605D06014F5105016159F1
:106FD000D8B0EDEF37F0EFEF37F0F4EF37F0000E09
:106FE0000601836F14EF38F0140E06014E250501DB
:106FF000606F000E06014F210501616F06014C51C3
:107000000501605D06014D5105016159D8B00BEFD6
:1070100038F00DEF38F00FEF38F0EFEF37F0010EEA
:107020000601836F000E596E140E50250501606F26
:10703000000E060151210501616F5750605D5850E7
:107040006159D8B026EF38F028EF38F02DEF38F03E
:10705000000E0601826F49EF38F0140E5724606F5E
:10706000000E5820616F060150510501605D060158
:10707000515105016159D8B040EF38F042EF38F076
:1070800044EF38F028EF38F0010E0601826F000E51
:10709000816F12000501666F000E0501686F20EE1A
:1070A00004F06151D9266251DA22DF50696F69AF6D
:1070B0005CEF38F05EEF38F06AEF38F01EEC47F026
:1070C000060AD8A466EF38F068EF38F06AEF38F0B7
:1070D0000501688305016931E8320F0B636F080E03
:1070E000636575EF38F077EF38F08AEF38F069AD07
:1070F0007CEF38F07EEF38F088EF38F01EEC47F088
:10710000060AD8A486EF38F088EF38F08AEF38F016
:10711000050168812F0EF66E260EF76EF86A0800DC
:107120006100D4F363F505016931E8320F0B646F38
:10713000656B270E6425F66E260E6521F76EF86ADC
:10714000000EF8220800F550635DD8B0AAEF38F0C1
:10715000ACEF38F0ADEF38F0688166518EEC45F059
:107160000009D8A4B6EF38F0B8EF38F0BBEF38F02C
:10717000030E0501681305016851120082C5AEF6C1
:1071800083C5AFF684C5B0F685C5B1F686C5B2F63F
:1071900087C5B3F688C5B4F689C5B5F67DC5BDF615
:1071A0007EC5BEF67FC5BFF680C5C0F60601C19D8F
:1071B000C19FC193C19181C58AF50F0E05018A1740
:1071C0008A478A470601C15105018A19C30B8A19EA
:1071D0000601C16FAE0EC26F060EC36F18EC46F00B
:1071E000E806D8A4F6EF38F0F8EF38F0F9EF38F009
:1071F00000F00DEC46F0E806D8A401EF39F003EFFB
:1072000039F004EF39F000F002EC46F0E806D8A4BB
:107210000CEF39F00EEF39F00FEF39F000F0B8EC69
:1072200045F0E806D8A417EF39F019EF39F01AEF56
:1072300039F000F0000E20EC44F005018A6F8AA1BD
:1072400024EF39F026EF39F02EEF39F0BD0E776FCD
:10725000060E786F000E04EC3DF000F012000601FF
:10726000C451C511D8B437EF39F039EF39F045EFD3
:1072700039F002D845EF39F00500FA6EC451FD6EC1
:10728000C551FE6EFF6AFA5012008BEC43F0060106
:10729000A52B060EA519D8A450EF39F052EF39F0FE
:1072A00056EF39F0000EA56F6CEC46F00601A42BEA
:1072B0000B0EA419D8A45FEF39F061EF39F065EF38
:1072C00039F0000EA46F39EC42F00601A32B650ED5
:1072D000A319D8A46EEF39F070EF39F074EF39F0DC
:1072E000000EA36F41EC47F00601644B652B2D0E99
:1072F000641906E16505D8A480EF39F082EF39F012
:1073000088EF39F0000E656F000E646F3FEC47F0B8
:107310000601624B632B590E621907E1020E6319D5
:10732000D8A495EF39F097EF39F09DEF39F0000EC2
:10733000636F000E626F40EC47F0120023C5AEF69B
:1073400024C5AFF625C5B0F626C5B1F627C5B2F6F9
:1073500028C5B3F629C5B4F62AC5B5F61EC5BDF6CF
:107360001FC5BEF620C5BFF621C5C0F60601C19DEA
:10737000C19FC193C19122C52BF50F0E2B162B4631
:107380002B46C1512B18C30B2B18C16FAE0EC26F09
:10739000060EC36F39EC46F0E806D8A4D2EF39F0F8
:1073A000D4EF39F0D5EF39F000F02EEC46F0E806D6
:1073B000D8A4DDEF39F0DFEF39F0E0EF39F000F07D
:1073C00023EC46F0E806D8A4E8EF39F0EAEF39F00C
:1073D000EBEF39F000F0C5EC45F0E806D8A4F3EF88
:1073E00039F0F5EF39F0F6EF39F000F0000E5AEC15
:1073F00045F02B6E2BA0FFEF39F001EF3AF009EFCB
:107400003AF0BD0E186E060E196E000E39EC3EF005
:1074100000F01200076E000E096E20EE04F002501C
:10742000D9260350DA22DF500A6E0AAE1AEF3AF07C
:107430001CEF3AF027EF3AF023EC47F0060AD8A405
:1074400024EF3AF026EF3AF027EF3AF009820A30BB
:10745000E8320F0B046E080E046431EF3AF033EF9C
:107460003AF045EF3AF00AAC38EF3AF03AEF3AF03A
:1074700044EF3AF023EC47F0060AD8A442EF3AF082
:1074800044EF3AF045EF3AF009802F0EF66E260EE3
:10749000F76EF86A08006100D4F304F50A30E832A8
:1074A0000F0B056E066A270E0524F66E260E0620C3
:1074B000F76EF86A000EF8220800F550045CD8B0A8
:1074C00064EF3AF066EF3AF067EF3AF00980075060
:1074D000DEEC45F00009D8A470EF3AF072EF3AF014
:1074E00074EF3AF0030E09120950120005017E51A3
:1074F0007A5D606F7F517B59616F80517C59626FFB
:1075000081517D59636F640E646F000E656F000ECC
:10751000666F000E676F72EC41F060C56CF561C577
:107520006DF562C56EF563C56FF505017E51825D2F
:10753000706F7F518359716F80518459726F81517F
:107540008559736F72EC32F06CC57AF56DC57BF5B9
:107550006EC57CF56FC57DF505017DBFB4EF3AF0D2
:10756000B2EF3AF0BEEF3AF0000E7A6F000E7B6F8A
:10757000000E7C6F000E7D6FD6EF3AF07DBFCCEF32
:107580003AF07D517C117B1109E1650E7A5DD8A03E
:10759000CCEF3AF0CEEF3AF0D6EF3AF0640E7A6FD5
:1075A000000E7B6F000E7C6F000E7D6F7AC57AF542
:1075B0007BC57BF51200000E036E000E0A6E0A50AA
:1075C000020D5E0EF324D96E050EF420DA6EDF5044
:1075D000066E0650EAEC45F0056E05A0F2EF3AF0B3
:1075E000F4EF3AF035EF3BF006507FEC45F0076ED4
:1075F00005A6FDEF3AF0FFEF3AF003EF3BF007C5C9
:1076000004F533EF3BF006500C0D550EF324D96E04
:10761000010EF420DA6EDF501F0B086E0A50020DC7
:107620005F0EF324D96E050EF420DA6EDF50096E7A
:107630000950085CD8B01FEF3BF021EF3BF027EF7B
:107640003BF00950085C0724046E33EF3BF0085010
:10765000095CD8B02EEF3BF030EF3BF0FFEF3AF093
:107660000950085C046E045003260A2A0A50D8B454
:107670003CEF3BF03EEF3BF0DFEF3AF003501200FF
:107680001F501B5C016E20501C58026E21501D586B
:10769000036E22501E58046E640E056E000E066EB8
:1076A000000E076E000E086EA8EC41F001C50DF546
:1076B00002C50EF503C50FF504C510F51F50235C78
:1076C000116E20502458126E21502558136E2250EE
:1076D0002658146EF9EC32F00DC51BF50EC51CF5DD
:1076E0000FC51DF510C51EF51EBE7BEF3BF079EFF3
:1076F0003BF085EF3BF0000E1B6E000E1C6E000E83
:107700001D6E000E1E6E9DEF3BF01EBE93EF3BF014
:107710001E501D101C1009E1650E1B5CD8A093EFD4
:107720003BF095EF3BF09DEF3BF0640E1B6E000EBF
:107730001C6E000E1D6E000E1E6E1BC51BF51CC5BB
:107740001CF512006100D8F34FF56100DCF350F531
:107750006100E0F351F56100D4F352F5A1AEB3EF4F
:107760003BF0B5EF3BF0C0EF3BF0B1AEBAEF3BF012
:10777000BCEF3BF0C0EF3BF039EC44F0F6EF3BF0F0
:10778000A1A8C5EF3BF0C7EF3BF0D2EF3BF0B1A8AB
:10779000CCEF3BF0CEEF3BF0D2EF3BF004EC44F00B
:1077A000F6EF3BF09EACD7EF3BF0D9EF3BF0E4EFC8
:1077B0003BF0AEACDEEF3BF0E0EF3BF0E4EF3BF054
:1077C0009FEC30F0F6EF3BF0A2A8E9EF3BF0EBEFD7
:1077D0003BF0F6EF3BF0B2A8F0EF3BF0F2EF3BF0FE
:1077E000F6EF3BF0F2EC44F0F6EF3BF0610048F5C9
:1077F000F5F4610044F5F8F4610040F5F7F4610038
:107800003CF5F6F41100000ECFB4010E016E000E2F
:10781000CEB2010E026E00F00104D8A412EF3CF0CB
:1078200014EF3CF022EF3CF00250D8A41AEF3CF0E9
:107830001CEF3CF022EF3CF0010E5D6E5BC58AF65A
:1078400062EF3CF00150D8A428EF3CF02AEF3CF066
:1078500038EF3CF00204D8A430EF3CF032EF3CF0BB
:1078600038EF3CF0020E5D6E5BC589F662EF3CF0CE
:107870000150D8A43EEF3CF040EF3CF04CEF3CF020
:107880000250D8A446EF3CF048EF3CF04CEF3CF0FF
:10789000030E5D6E62EF3CF00104D8A452EF3CF0A1
:1078A00054EF3CF060EF3CF00204D8A45AEF3CF0F7
:1078B0005CEF3CF060EF3CF0040E5D6E62EF3CF07C
:1078C000050E5D6E12009A9919403333B33F0000E4
:1078D00000000AD7A33C000000000000C8420000DE
:1078E00020C1000020410AD7233C00000000000016
:1078F00000000000000000000000000000003A0A44
:107900002B0A220ABA093D09E108A708A807E106DF
:10791000AC0644060A06CD05710531050B05D604F3
:107920009A042E042404E7037B048F049104B20418
:107930006005450569052406C106F4066C079F0726
:10794000F1076108CB080E096209BD09D60ADA0AF7
:10795000920B00050A0F14191E23282D32373C41C3
:07796000464B50555A5F64CD
:1079680006018051D8A4BBEF3CF0BDEF3CF0C7EF57
:107978003CF00501FA29D8B4C4EF3CF0C6EF3CF05E
:10798800C7EF3CF0FA2B020E0501FA19D8A4CFEF85
:107998003CF0D1EF3CF0D7EF3CF05A88000E0601DE
:1079A800DD6FE4EF3CF0020EFA65DDEF3CF0DFEF4F
:1079B8003CF0E4EF3CF05A8A000E0601DC6FC09CF4
:1079C80006017F05D8A4EBEF3CF0EDEF3CF003EFA8
:1079D8003DF07E29D8B4F3EF3CF0F5EF3CF0F6EF3C
:1079E8003CF07E2B020E7E65FCEF3CF0FEEF3CF097
:1079F80003EF3DF0010EDC6F000E7F6F5A9A120004
:107A080005017C6F05017C5108EC43F00009D8B4EE
:107A180010EF3DF012EF3DF052EF3DF077C561F504
:107A280078C562F505017C514AEC38F00501796F9B
:107A38007951D8A422EF3DF024EF3DF052EF3DF00C
:107A48007C510C0D580EF324D96E010EF420DA6E19
:107A5800610078F37AF5610074F37BF57A517B1154
:107A6800D8B439EF3DF03BEF3DF052EF3DF07AC529
:107A78006BF57BC56CF577C56DF578C56EF5D0EC03
:107A880026F005017C510C0D510EF324D96E010E20
:107A9800F420DA6E030EDF1252EF3DF012006AECAA
:107AA80044F04DEC43F058EC46F0C9EC43F0AAEC36
:107AB80045F062EC46F0D68E000E52EC44F09CEC99
:107AC80045F0000E06015F6F000E5E6FC9EC43F0D3
:107AD80055EC2CF013EC3FF0D6EC37F00501FC51D7
:107AE800D8A479EF3DF07BEF3DF083EF3DF0000E39
:107AF800F66F06015C51DEEC2FF06AEF3DF0FC05F5
:107B0800D8A489EF3DF08BEF3DF06AEF3DF0010E10
:107B1800F66F0601A251DEEC2FF0000E5D6EA1C6D5
:107B2800ECF50501ED6B010EEF6F2C0EEE6FFBEC23
:107B380035F06AEF3DF00DEF00F00501626F000EC1
:107B48000501616F1EEC47F00501606F040E6019B6
:107B5800D8B4B1EF3DF0B3EF3DF0C4EF3DF06205AE
:107B6800D8B4B9EF3DF0BBEF3DF0C4EF3DF0040EE3
:107B78006219D8A4C2EF3DF0C4EF3DF0E9EF3DF043
:107B88000101035105016219F80B62190101036F24
:107B9800DBEF3DF001011DA9D4EF3DF0D6EF3DF03C
:107BA800DBEF3DF0020E0501616FEBEF3DF00239AE
:107BB800E832070B05016219D8A4E5EF3DF0E7EFBD
:107BC8003DF0CEEF3DF0EBEF3DF0010E616F6151FE
:107BD8001200346E5C04D8A4F4EF3DF0F6EF3DF0EB
:107BE8002EEF3EF034503C0D6100CCF352F66100AC
:107BF800D0F353F652C601F553C602F5000E046ED3
:107C0800640E036E38EC41F001C552F602C553F616
:107C180006015251526F536B0501FC513318D8A419
:107C280018EF3EF01AEF3EF038EF3EF0040E5D60BC
:107C380020EF3EF022EF3EF038EF3EF052C629F535
:107C480053C62AF5010E2C6E2C0E2B6EEAEC36F07C
:107C580038EF3EF0000E2A6E000E296E010E2C6ED3
:107C68002C0E2B6EEAEC36F012001D6E1D50AAEC9D
:107C780043F00009D8B443EF3EF045EF3EF082EF01
:107C88003EF018C502F519C503F51D500AEC3AF087
:107C98001A6E1A50D8A453EF3EF055EF3EF082EF1B
:107CA8003EF01D500C0D580EF324D96E010EF42031
:107CB800DA6E610078F31BF5610074F31CF51B5054
:107CC8001C10D8B46AEF3EF06CEF3EF082EF3EF045
:107CD8001BC50CF51CC50DF518C50EF519C50FF516
:107CE800F8EC27F01D500C0D510EF324D96E010E3F
:107CF800F420DA6E030EDF1282EF3EF01200C60E99
:107D0800F66E780EF76E000EF86E01EE00F310EEC8
:107D1800A1F00900F5C4EEF4E550E150FAE1EC0EEB
:107D2800F66E8B0EF76E000EF86E01EEDCF210EEBA
:107D380017F00900F5C4EEF4E550E150FAE17A0EC7
:107D4800F66E8E0EF76E000EF86E09006100D4F321
:107D58005EF509006100D4F35FF501EE00F2C40E90
:107D6800EE6AE806FDE10501FC6BFB6BFA6B01EEC0
:107D780053F10B0EEE6AE806FDE10401080E5D6F93
:107D8800000E5E6F000E5F6F000153EF3DF00501BE
:107D980020EE24F06051D9266151DA22000EDE6E01
:107DA800000EDE6E000EDE6E000EDD6E20EE28F098
:107DB8006051D9266151DA22000EDE6E000EDE6EA9
:107DC800000EDE6E000EDD6E20EE2CF06051D9261E
:107DD8006151DA22000EDE6E000EDE6E000EDE6EDF
:107DE800000EDD6E20EE30F06051D9266151DA22A6
:107DF800000EDE6E000EDE6E000EDE6E000EDD6E14
:107E080020EE34F06051D9266151DA22000EDE6E80
:107E1800000EDE6E000EDE6E000EDD6E120038C63D
:107E28007AF539C67BF505017C6B7D6B48C67EF516
:107E380049C67FF5806B816B46C682F547C683F5D8
:107E4800846B856B76EC3AF07AC557F57BC558F5A7
:107E580036C67AF537C67BF505017C6B7D6B44C663
:107E68007EF545C67FF5806B816B42C682F543C6B9
:107E780083F5846B856B76EC3AF07AC550F67BC552
:107E880051F60601505157240501866F06015151DC
:107E980058200501876FD8908731886F8631060191
:107EA8005C6F88C55DF600F0120038C61BF539C650
:107EB8001CF51D6A1E6A48C61FF549C620F5216AC9
:107EC800226A46C623F547C624F5256A266A40EC89
:107ED8003BF01BC557F51CC558F536C61BF537C60C
:107EE8001CF51D6A1E6A44C61FF545C620F5216AA1
:107EF800226A42C623F543C624F5256A266A40EC61
:107F08003BF01BC550F61CC551F6060150515724CD
:107F1800276E51515820286ED8902830296E273066
:107F28005C6F29C55DF600F01200000EBE6E000EF3
:107F3800BF6E000EC06E080ECA6EDE0EC66ECC0E88
:107F4800C76E070EC86EE70E0401106F730E086F38
:107F5800FD0E006F000E216F000E096F000E016FFD
:107F6800000E116F000E026F000E0A6F180E126FCE
:107F780003690B69136904690C691469080E246F95
:107F88000F0E0201696F140E706F1A0E0A6F370E0A
:107F9800146F180E096F380E156F0B0E3D6F460ED5
:107FA8000D6F130E716F12008E0E0501606F8E0E2D
:107FB800616FF1EC46F0900E0501606F8E0E616FF7
:107FC800F6EC46F0920E0501606F8E0E616FFBECC9
:107FD80046F08C0E0501606F8E0E616FECEC46F07A
:107FE800880E0501606F8E0E616FE2EC46F0860E1A
:107FF8000501606F8E0E616FDDEC46F08A0E05019B
:10800800606F8E0E616FE7EC46F0AE9C000E0101CA
:108018001C6F000E1D6F0A0E1E6FFC0E1F6F9E8CCC
:108028001200000E0501656F000E646F6251631146
:10803800D8B421EF40F023EF40F04BEF40F0010EB1
:10804800666F2BEF40F0D89062376337662B63AFCB
:1080580030EF40F032EF40F027EF40F0D89064372F
:1080680065376251605D63516159D8A03EEF40F0B9
:1080780040EF40F045EF40F06251605F6351615B53
:108088006481D89063336233662F32EF40F064C561
:1080980060F565C561F51200000E6F6E020E706E18
:1080A800000E716E3D0E726E000E736EFE0E746ED3
:1080B800000E756E000E766E000E776E000E796EED
