:020000040000FA
:040000000DEF00F010
:04000800CDEF24F024
:06001800FF0059EF28F083
:1026000000000000000000000000000000000000CA
:1026100000000000000000000000000000000000BA
:102620000000000000000000010203040506070886
:102630005001526561643A206E6F6E2D766F6C6149
:1026400074696C6520766F6C746167652076616C67
:1026500075652025662C20616E6420766F6C617430
:10266000696C6520766F6C746167652076616C7546
:10267000652025660053657420746865206E6F6E52
:102680002D766F6C6174696C6520766F6C74616710
:102690006520746F203156200A00536574207468D9
:1026A0006520766F6C6174696C6520766F6C7461FF
:1026B000676520746F203256200A00000501C95159
:1026C000800BD26FC951C925D46FC8AF6AEF13F020
:1026D0006CEF13F06DEF13F0D481D451D8B473EFD5
:1026E00013F075EF13F08AEF13F0D429D8A47BEF21
:1026F00013F07DEF13F085EF13F0000EC66F000EA0
:10270000C76F000EC86F000EC96FC88F000EC96F6B
:1027100092EF13F0000EC66F000EC76F000EC86F69
:10272000000EC96FCD51800BD36FD251D319D8B4DD
:102730009CEF13F09EEF13F09FEF13F0D28DCD516D
:10274000CD25D36FCCAFA7EF13F0A9EF13F0AAEF0D
:1027500013F0D381D351D8B4B0EF13F0B2EF13F02C
:10276000C7EF13F0D329D8A4B8EF13F0BAEF13F0E2
:10277000C2EF13F0000ECA6F000ECB6F000ECC6FCD
:10278000000ECD6FCC8F000ECD6FCFEF13F0000E8B
:10279000CA6F000ECB6F000ECC6F000ECD6FD45100
:1027A000D35DD8B0D6EF13F0D8EF13F0FFEF13F0EE
:1027B000D2ADDDEF13F0DFEF13F0E1EF13F0800E99
:1027C000D21BD4C5D5F5D3C5D4F5D5C5D3F5C6C56B
:1027D000D5F5CAC5C6F5D5C5CAF5C7C5D5F5CBC5A6
:1027E000C7F5D5C5CBF5C8C5D5F5CCC5C8F5D5C594
:1027F000CCF5C9C5D5F5CDC5C9F5D5C5CDF5000E06
:10280000D56FD451D3C5CEF5CF6BCE5F000ECF5B65
:10281000CFBF14EF14F0CF5109E11A0ECE5DD8A04E
:1028200014EF14F016EF14F04DEF14F0C651C71169
:10283000C811C911D8A41FEF14F022EF14F0010E33
:1028400023EF14F0000ED56F000EC66F000EC76F99
:10285000000EC86F000EC96FD3C5D4F556EF14F043
:10286000D5A135EF14F037EF14F03DEF14F0D89008
:10287000D5310109D56F3FEF14F0D890D533C6A1FB
:1028800044EF14F046EF14F047EF14F0D58FC9353C
:10289000C933C833C733C633D42BD351D45DD8A082
:1028A00054EF14F056EF14F030EF14F0D2BD5BEF9C
:1028B00014F05DEF14F09DEF14F0D451D8A463EF41
:1028C00014F065EF14F06FEF14F0000EC66F000EF9
:1028D000C76F000EC86F000EC96FBEEF15F0CA516A
:1028E000C627CB51C723CC51C823CD51C923C9A179
:1028F0007CEF14F07EEF14F02AEF15F0D5A183EFF2
:1029000014F085EF14F08BEF14F0D890D531010955
:10291000D56F8DEF14F0D890D533C6A192EF14F097
:1029200094EF14F095EF14F0D58FC935C933C8333F
:10293000C733C633D42B2AEF15F0CA51C65DCB512D
:10294000C759CC51C859C951800ACE6FCD51800AA0
:10295000CE59D8B0AEEF14F0B0EF14F0DBEF14F0B6
:10296000C651CA5DCE6FC751CB59CF6FC851CC5934
:10297000D06FC951CD59D16FFF0ECE25C66FFF0E56
:10298000CF21C76FFF0ED021C86FFF0ED121C96FB5
:10299000800ED21BD56DD551D8A4D1EF14F0D3EF52
:1029A00014F0E3EF14F0010EC627000EC723C8236E
:1029B000C923E3EF14F0CA51C65FCB51C75BCC51BA
:1029C000C85BCD51C95BC651C711C811C911D8A484
:1029D000ECEF14F0EEEF14F023EF15F0D551D8A47E
:1029E000F4EF14F0F6EF14F023EF15F0000EC66FBD
:1029F000000EC76F000EC86F000EC96FBEEF15F056
:102A0000D890C637C737C837C937D5AF0AEF15F0E2
:102A10000CEF15F00DEF15F0C681D5A112EF15F0F2
:102A200014EF15F018EF15F0D880D5371AEF15F020
:102A3000D890D537D451D8B420EF15F022EF15F047
:102A400023EF15F0D407C8AF28EF15F02AEF15F0E3
:102A500000EF15F0000ED36FD5AF31EF15F033EF67
:102A600015F04BEF15F0D5C5CEF57F0ECE17D8B4C7
:102A70003CEF15F03EEF15F042EF15F0010ED36F6D
:102A80004BEF15F0C6A147EF15F049EF15F04BEFEE
:102A900015F03EEF15F0D351D8B451EF15F053EFC8
:102AA00015F07EEF15F0010EC627000EC723C823D0
:102AB000C923C9A15EEF15F060EF15F07EEF15F0A8
:102AC000C6C5CEF5C7C5CFF5C8C5D0F5C9C5D1F5C2
:102AD000D135D133D033CF33CE33CEC5C6F5CFC504
:102AE000C7F5D0C5C8F5D1C5C9F5D429D8B47BEF91
:102AF00015F07DEF15F07EEF15F0D42BD429D8B466
:102B000084EF15F086EF15F08EEF15F0D451D8A4B0
:102B10008CEF15F08EEF15F0A0EF15F0000EC66FDC
:102B2000000EC76F000EC86F000EC96FD451D8A435
:102B30009CEF15F09EEF15F0A0EF15F0000ED26F90
:102B4000D4A1A5EF15F0A7EF15F0AAEF15F0C88FE7
:102B5000ABEF15F0C89FD890D431C96FD2AFB3EFA7
:102B600015F0B5EF15F0B6EF15F0C98FC6C5C6F56F
:102B7000C7C5C7F5C8C5C8F5C9C5C9F51200125003
:102B8000800B1B6E125012241D6E11AECAEF15F091
:102B9000CCEF15F0CDEF15F01D801D50D8B4D3EF5C
:102BA00015F0D5EF15F0EAEF15F01D28D8A4DBEFEE
:102BB00015F0DDEF15F0E5EF15F0000E0F6E000ECD
:102BC000106E000E116E000E126E118E000E126E3F
:102BD000F2EF15F0000E0F6E000E106E000E116E6B
:102BE000000E126E1650800B1C6E1B501C18D8B4B1
:102BF000FCEF15F0FEEF15F0FFEF15F01B8C1650F3
:102C000016241C6E15AE07EF16F009EF16F00AEF4A
:102C100016F01C801C50D8B410EF16F012EF16F00E
:102C200027EF16F01C28D8A418EF16F01AEF16F0AC
:102C300022EF16F0000E136E000E146E000E156ECD
:102C4000000E166E158E000E166E2FEF16F0000E8B
:102C5000136E000E146E000E156E000E166E1D50D3
:102C60001C5CD8B036EF16F038EF16F05FEF16F0B8
:102C70001BAC3DEF16F03FEF16F041EF16F0800E63
:102C80001B1A1DC51EF51CC51DF51EC51CF50FC55F
:102C90001EF513C50FF51EC513F510C51EF514C599
:102CA00010F51EC514F511C51EF515C511F51EC587
:102CB00015F512C51EF516C512F51EC516F5000E42
:102CC0001E6E1D501CC517F5186A175E000E185AA7
:102CD00018BE74EF16F0185009E11A0E175CD8A050
:102CE00074EF16F076EF16F0ADEF16F00F501010EF
:102CF00011101210D8A47FEF16F082EF16F0010E1B
:102D000083EF16F0000E1E6E000E0F6E000E106E9A
:102D1000000E116E000E126E1CC51DF5B6EF16F0FA
:102D20001EA095EF16F097EF16F09DEF16F0D890D5
:102D30001E3001091E6E9FEF16F0D8901E320FA0B4
:102D4000A4EF16F0A6EF16F0A7EF16F01E8E1234C1
:102D50001232113210320F321D2A1C501D5CD8A0C5
:102D6000B4EF16F0B6EF16F090EF16F01BBCBBEF09
:102D700016F0BDEF16F0FDEF16F01D50D8A4C3EF0E
:102D800016F0C5EF16F0CFEF16F0000E0F6E000E26
:102D9000106E000E116E000E126E1EEF18F0135022
:102DA0000F2614501022155011221650122212A074
:102DB000DCEF16F0DEEF16F08AEF17F01EA0E3EF5F
:102DC00016F0E5EF16F0EBEF16F0D8901E30010983
:102DD0001E6EEDEF16F0D8901E320FA0F2EF16F037
:102DE000F4EF16F0F5EF16F01E8E12341232113297
:102DF00010320F321D2A8AEF17F013500F5C145057
:102E00001058155011581250800A176E1650800A2B
:102E10001758D8B00EEF17F010EF17F03BEF17F080
:102E20000F50135C176E10501458186E115015582F
:102E3000196E125016581A6EFF0E17240F6EFF0EE1
:102E40001820106EFF0E1920116EFF0E1A20126E40
:102E5000800E1B1A1E6C1E50D8A431EF17F033EFF2
:102E600017F043EF17F0010E0F26000E102211226B
:102E7000122243EF17F013500F5E1450105A1550E2
:102E8000115A1650125A0F50101011101210D8A4C7
:102E90004CEF17F04EEF17F083EF17F01E50D8A449
:102EA00054EF17F056EF17F083EF17F0000E0F6E88
:102EB000000E106E000E116E000E126E1EEF18F056
:102EC000D8900F361036113612361EAE6AEF17F054
:102ED0006CEF17F06DEF17F00F801EA072EF17F078
:102EE00074EF17F078EF17F0D8801E367AEF17F0EE
:102EF000D8901E361D50D8B480EF17F082EF17F02F
:102F000083EF17F01D0611AE88EF17F08AEF17F068
:102F100060EF17F0000E1C6E1EAE91EF17F093EFEE
:102F200017F0ABEF17F01EC517F57F0E1716D8B4C4
:102F30009CEF17F09EEF17F0A2EF17F0010E1C6E3A
:102F4000ABEF17F00FA0A7EF17F0A9EF17F0ABEF5B
:102F500017F09EEF17F01C50D8B4B1EF17F0B3EF95
:102F600017F0DEEF17F0010E0F26000E10221122CF
:102F7000122212A0BEEF17F0C0EF17F0DEEF17F02D
:102F80000FC517F510C518F511C519F512C51AF5B5
:102F90001A341A3219321832173217C50FF518C5FC
:102FA00010F519C511F51AC512F51D28D8B4DBEFB7
:102FB00017F0DDEF17F0DEEF17F01D2A1D28D8B44B
:102FC000E4EF17F0E6EF17F0EEEF17F01D50D8A47E
:102FD000ECEF17F0EEEF17F000EF18F0000E0F6EA9
:102FE000000E106E000E116E000E126E1D50D8A451
:102FF000FCEF17F0FEEF17F000EF18F0000E1B6E5D
:103000001DA005EF18F007EF18F00AEF18F0118E69
:103010000BEF18F0119ED8901D30126E1BAE13EFFF
:1030200018F015EF18F016EF18F0128E0FC50FF507
:1030300010C510F511C511F512C512F5120020EEDC
:1030400004F00C50D9260D50DA22DF50176E17C548
:1030500010F520EE04F00E50D9260F50DA2210465B
:103060001046DF501018C30B1018DF6E17B83BEF77
:1030700018F03FEF18F0106A102A40EF18F0106AAD
:1030800020EE04F00E50D9260F50DA22DF5010182F
:10309000FE0B1018DF6E17BA50EF18F054EF18F04F
:1030A000106A102A55EF18F0106A20EE04F00E5046
:1030B000D9260F50DA221046DF501018FD0B1018D9
:1030C000DF6E17BC66EF18F06AEF18F0106A102A6E
:1030D0006BEF18F0106A20EE04F00E50D9260F5056
:1030E000DA2210321032DF5010187F0B1018DF6E0A
:1030F00017BE7DEF18F081EF18F0106A102A82EFEA
:1031000018F0106A20EE04F00E50D9260F50DA2283
:10311000103A10461046DF501018BF0B1018DF6E23
:1031200020EE01F00C50D9260D50DA22DF50106E3F
:10313000070E10161050136E146A156A166A15C51C
:1031400016F514C515F513C514F5136A610030F4AE
:10315000D9F4610034F4DAF4DF50106E1050131219
:1031600020EE04F00E50D9260F50DA22DFA0BBEF7C
:1031700018F0BDEF18F0FEEF18F0050ED8901336DA
:10318000143615361636E82EBEEF18F020EE03F092
:103190000C50D9260D50DA22DF50106E1F0E10167B
:1031A0001050131215C516F514C515F513C514F5F1
:1031B000136A20EE02F00C50D9260D50DA22DF50AF
:1031C000106E10501312050ED890133614361536A3
:1031D0001636E82EE4EF18F020EE01F00C50D92658
:1031E0000D50DA22DF50106ED8901032D890103285
:1031F000D89010321F0E101610501312610038F4C0
:10320000D9F461003CF4DAF461004CF4DEF46100BE
:1032100050F4DEF4610054F4DEF4610058F4DEF49E
:10322000240E016E060E026E080E0C24036E000EB4
:103230000D20046E20EE04F00E50D9260F50DA2235
:10324000DF30E8320F0B106E116A270E1024F66E75
:10325000260E1120F76EF86A000EF8220800F550CD
:10326000056E066A2CEC28F020EE05F00E50D926EB
:103270000F50DA22240EDE6E060EDD6E1200020EF4
:103280000301F96F3F0EFA6F000ED86F000EFB6F4F
:10329000000ED96F000EDA6F000EDB6F000EDC6FD0
:1032A000000EDF6F000EE06F000EE36F000EE46FA4
:1032B000000EE56F000EE66F000EE76F000EEA6F7E
:1032C000000EEB6F100EEC6F640EEE6F000EEF6FE2
:1032D000000EF06F000EF16F000EF26F000EF36F34
:1032E000000EF46F100EF56F000EF66F000EF76F04
:1032F000120EF86F000EFC6F010EFB6F000ED96FFF
:10330000000EDA6F000EDB6F000EDC6F000EDF6F59
:10331000000EE06F000EE36F000EE46F000EE56F2D
:10332000000EE66F000EE76F000EEA6F000EEB6F07
:10333000040EEC6F640EEE6F000EEF6F000EF06F78
:10334000000EF16F000EF26F000EF36F000EF46FBF
:10335000100EF56F000EF66F000EF76F000EF86F8F
:10336000000EFD6F020EFB6F000ED96F000EDA6FBC
:10337000000EDB6F000EDC6F000EDF6F000EE06FE3
:10338000000EE36F000EE46F000EE56F000EE66FB7
:10339000000EE76F000EEA6F000EEB6F120EEC6F7F
:1033A000640EEE6F000EEF6F000EF06F000EF16F07
:1033B000000EF26F000EF36F000EF46F100EF56F3B
:1033C000000EF66F000EF76F000EF86F000EFE6F26
:1033D000030EFB6F000ED96F000EDA6F000EDB6F6D
:1033E000000EDC6F000EDF6F000EE06F000EE36F6B
:1033F000000EE46F000EE56F000EE66F000EE76F43
:10340000000EEA6F000EEB6F110EEC6F640EEE6FA4
:10341000000EEF6F000EF06F000EF16F000EF26FF6
:10342000000EF36F000EF46F100EF56F000EF66FC6
:10343000000EF76F000EF86F000EFF6FAF94AF969F
:10344000B090B092B094B096000E0501B86F000E27
:10345000B96FAEEC2BF0000E0501B86F000EB96F1E
:10346000A4EC2BF0000E0501B86F000EB96F9FECB5
:103470002BF0000E0501B86F000EB96F9AEC2BF01F
:10348000000E0501B86F000EB96F95EC2BF0000E21
:103490000501B86F000EB96FA9EC2BF0840E030183
:1034A000F36F120006EC24F00009D8B45AEF1AF0BA
:1034B0005CEF1AF05DEF1BF0AA0E226E050E236E74
:1034C00083EC28F0E806D8A468EF1AF06AEF1AF047
:1034D0005DEF1BF000F0AAC53BF5ABC53CF5ACC5F4
:1034E0003DF5ADC53EF56100BCF6D9F46100C0F60E
:1034F000DAF4DF50466E050120EE01F0AF51D92617
:10350000B051DA22DF50456E20EE02F0AF51D926DD
:10351000B051DA22DF50426E20EE03F0AF51D926CF
:10352000B051DA22DF50436E20EE04F0AF51D926BD
:10353000B051DA22DF50446E20EE05F0AF51D926AB
:10354000B051DA22DF503F6E20EE06F0AF51D9269F
:10355000B051DA22DF50406E20EE07F0AF51D9268D
:10356000B051DA22DF50416E17EF1BF046C55BF514
:1035700045C55AF542C5A9F543C5A8F544C5A7F503
:103580005904D8A4C6EF1AF0C8EF1AF05DEF1BF08B
:10359000010E336E5A5014EC26F0010E336E5B5060
:1035A000C5EC27F0010E5C6E5DEF1BF04650070B7B
:1035B000A66F4650180BA56F4650E00BA46F455000
:1035C000010BA36F4550060BA26F4550780BA16FFE
:1035D0005DEF1BF046C59FF545C59EF542C59DF5BF
:1035E00043C59CF544C59BF53FC59AF540C599F583
:1035F00041C598F55DEF1BF046C559F55950F6ECFD
:1036000028F05DEF1BF046C558F55950D8A40BEFD4
:103610001BF00DEF1BF05DEF1BF0000E336E5850EA
:1036200014EC26F05DEF1BF000F05DEF1BF03BC5E6
:1036300035F53CC536F53DC537F53EC538F538504E
:10364000000AD8B456EF1BF014EF1BF03650030AF3
:10365000D8B435EF1BF0070AD8B440EF1BF0010ACD
:10366000D8B447EF1BF014EF1BF03550200AD8B444
:10367000B6EF1AF0670AD8B4FCEF1AF014EF1BF09B
:103680003550120AD8B403EF1BF014EF1BF035507D
:10369000000AD8B4D6EF1AF0010AD8B4EAEF1AF04B
:1036A000030AD8B45DEF1BF014EF1BF03750000A8B
:1036B000D8B426EF1BF014EF1BF012000501C06F09
:1036C0000501C051D8B467EF1BF069EF1BF08BEF19
:1036D0001BF0BBBF70EF1BF06EEF1BF08BEF1BF00E
:1036E000B8C5BCF5B9C5BDF5BAC5BEF5BBC5BFF516
:1036F000BC1FBD1FBE1FBF1FBC2B000EBD23BE23A2
:10370000BF23BCC5C2F5BDC5C3F5BEC5C4F5BFC5A5
:10371000C5F593EF1BF0B8C5C2F5B9C5C3F5BAC579
:10372000C4F5BBC5C5F5B851B911BA11BB11D8A4C0
:103730009CEF1BF09EEF1BF0A8EF1BF0000EB86F84
:10374000000EB96F000EBA6F000EBB6F39EF1CF0A0
:10375000960EC16FB2EF1BF0C12BD890C533C433A6
:10376000C333C233000EC215BC6F000EC315BD6F4C
:10377000000EC415BE6FFE0EC515BF6FBC51BD1146
:10378000BE11BF11D8A4C7EF1BF0C9EF1BF0ACEFFF
:103790001BF0D7EF1BF0C12B010EC227000EC32375
:1037A000C423C523D890C533C433C333C233000EFA
:1037B000C215BC6F000EC315BD6F000EC415BE6FE1
:1037C000FF0EC515BF6FBC51BD11BE11BF11D8A4EE
:1037D000ECEF1BF0EEEF1BF0CBEF1BF0F6EF1BF066
:1037E000C107D890C237C337C437C537C4BFFBEF52
:1037F0001BF0FDEF1BF005EF1CF0020EC16103EFA3
:103800001CF005EF1CF0F0EF1BF0C1B10AEF1CF04B
:103810000CEF1CF00DEF1CF0C49FD890C133C1C554
:10382000BCF5BD6BBE6BBF6BBCC5BFF5BE6BBD6BE6
:10383000BC6BBC51C213BD51C313BE51C413BF51A5
:10384000C513C051D8B427EF1CF029EF1CF031EF9D
:103850001CF0BBBF30EF1CF02EEF1CF031EF1CF062
:10386000C58FC2C5B8F5C3C5B9F5C4C5BAF5C5C5D8
:10387000BBF51200096E0950D8B441EF1CF043EFBC
:103880001CF065EF1CF004BE4AEF1CF048EF1CF082
:1038900065EF1CF001C505F502C506F503C507F582
:1038A00004C508F5051E061E071E081E052A000E83
:1038B00006220722082205C50BF506C50CF507C52B
:1038C0000DF508C50EF56DEF1CF001C50BF502C531
:1038D0000CF503C50DF504C50EF5015002100310DB
:1038E0000410D8A476EF1CF078EF1CF082EF1CF0E7
:1038F000000E016E000E026E000E036E000E046ECE
:1039000013EF1DF0960E0A6E8CEF1CF00A2AD89069
:103910000E320D320C320B32000E0B14056E000EFF
:103920000C14066E000E0D14076EFE0E0E14086EBB
:103930000550061007100810D8A4A1EF1CF0A3EF43
:103940001CF086EF1CF0B1EF1CF00A2A010E0B26CA
:10395000000E0C220D220E22D8900E320D320C32A7
:103960000B32000E0B14056E000E0C14066E000ECA
:103970000D14076EFF0E0E14086E0550061007108A
:103980000810D8A4C6EF1CF0C8EF1CF0A5EF1CF07F
:10399000D0EF1CF00A06D8900B360C360D360E36DA
:1039A0000DBED5EF1CF0D7EF1CF0DFEF1CF0020EC0
:1039B0000A60DDEF1CF0DFEF1CF0CAEF1CF00AB06C
:1039C000E4EF1CF0E6EF1CF0E7EF1CF00D9ED89042
:1039D0000A320AC505F5066A076A086A05C508F5C8
:1039E000076A066A056A05500B1206500C1207504A
:1039F0000D1208500E120950D8B401EF1DF003EF5C
:103A00001DF00BEF1DF004BE0AEF1DF008EF1DF0D6
:103A10000BEF1DF00E8E0BC501F50CC502F50DC5A3
:103A200003F50EC504F5120001011DAF1AEF1DF0DC
:103A30001CEF1DF02BEF1DF002D829EF1DF0050043
:103A4000FA6E05018451FD6E8551FE6EFF6AFA50D3
:103A5000120001011D9F1DAD30EF1DF032EF1DF072
:103A600041EF1DF002D83FEF1DF00500FA6E050191
:103A70008251FD6E8351FE6EFF6AFA501200010101
:103A80001D9D1DAB46EF1DF048EF1DF057EF1DF0DB
:103A900002D855EF1DF00500FA6E05018051FD6E4C
:103AA0008151FE6EFF6AFA50120001011D9B1CA796
:103AB0005CEF1DF05EEF1DF06DEF1DF002D86BEFB7
:103AC0001DF00500FA6E05017E51FD6E7F51FE6E00
:103AD000FF6AFA50120001011C971DA972EF1DF038
:103AE00074EF1DF083EF1DF002D881EF1DF005008B
:103AF000FA6E05017C51FD6E7D51FE6EFF6AFA5033
:103B0000120001011D991DA588EF1DF08AEF1DF01F
:103B1000A0EF1DF002D897EF1DF00500FA6E050129
:103B20007A51FD6E7B51FE6EFF6AFA501200010160
:103B300054A99DEF1DF09FEF1DF0A0EF1DF05499CB
:103B40001DA7A5EF1DF0A7EF1DF0BDEF1DF002D8DA
:103B5000B4EF1DF00500FA6E05017851FD6E795144
:103B6000FE6EFF6AFA501200010160A7BAEF1DF065
:103B7000BCEF1DF0BDEF1DF06097AE9C12000A6E09
:103B800000EF1EF0C5EC2BF0000EBDEC2BF0100E7C
:103B900053EC29F001C50BF502C50CF5010E0D6EB5
:103BA0001DEF1EF0C5EC2BF0010EBDEC2BF0040E4A
:103BB00053EC29F001C50BF502C50CF5CEEF1DF055
:103BC000C5EC2BF0020EBDEC2BF0120E53EC29F0DD
:103BD00001C50BF502C50CF5CEEF1DF0C5EC2BF0C1
:103BE000030EBDEC2BF0110E53EC29F001C50BF5C3
:103BF00002C50CF5CEEF1DF0020E0D6E1DEF1EF08E
:103C00000A50086E096A0950000AD8B40AEF1EF07B
:103C1000FCEF1DF00850010AD8B4E0EF1DF0030AD4
:103C2000D8B4EEEF1DF0010AD8B4C2EF1DF0070AB8
:103C3000D8B4D2EF1DF0FCEF1DF00D04D8A423EF93
:103C40001EF025EF1EF053EF1EF00C5007E1070E9B
:103C50000B5CD8B02EEF1EF030EF1EF036EF1EF0EA
:103C6000000E0F6E000E0E6E40EF1EF00BC50EF52F
:103C70000CC50FF5FB0E0E240E6EFF0E0F200F6EFF
:103C8000890E0E5C130E0F58D8A049EF1EF04BEFB3
:103C90001EF04DEF1EF053EF1EF00EC506F50FC5DA
:103CA00007F553EF1EF01200000E0501C16FBFBFF4
:103CB0005EEF1EF05CEF1EF068EF1EF0BF1FBE1F30
:103CC000BD1FBC6D000EBD23BE23BF23010EC16FFF
:103CD000BBBF6FEF1EF06DEF1EF079EF1EF0BB1F44
:103CE000BA1FB91FB86D000EB923BA23BB23010E4A
:103CF000C11B000EC26F000EC36F000EC46F000E1A
:103D0000C56FBC51BD11BE11BF11D8B48AEF1EF0F2
:103D10008CEF1EF0C2EF1EF0010EC06F96EF1EF08A
:103D2000D890BC37BD37BE37BF37C02BBFAF9BEF76
:103D30001EF09DEF1EF090EF1EF0D890C237C337F3
:103D4000C437C537BC51B85DBD51B959BE51BA5918
:103D5000BF51BB59D8A0AFEF1EF0B1EF1EF0BAEFC4
:103D60001EF0BC51B85FBD51B95BBE51BA5BBF51CB
:103D7000BB5BC281D890BF33BE33BD33BC33C02FD1
:103D80009DEF1EF0C151D8B4C8EF1EF0CAEF1EF06F
:103D9000D2EF1EF0C51FC41FC31FC26D000EC32388
:103DA000C423C523C2C5B8F5C3C5B9F5C4C5BAF5A2
:103DB000C5C5BBF51200000E0A6E08BEE4EF1EF08A
:103DC000E2EF1EF0EEEF1EF0081E071E061E056C49
:103DD000000E062207220822010E0A6E04BEF5EF2D
:103DE0001EF0F3EF1EF0FFEF1EF0041E031E021E76
:103DF000016C000E022203220422010E0A1A000E98
:103E00000B6E000E0C6E000E0D6E000E0E6E055049
:103E1000061007100810D8B410EF1FF012EF1FF0B3
:103E200048EF1FF0010E096E1CEF1FF0D890053609
:103E3000063607360836092A08AE21EF1FF023EFB1
:103E40001FF016EF1FF0D8900B360C360D360E36DD
:103E50000550015C0650025807500358085004589A
:103E6000D8A035EF1FF037EF1FF040EF1FF00550DF
:103E7000015E0650025A0750035A0850045A0B803C
:103E8000D8900832073206320532092E23EF1FF090
:103E90000A50D8B44EEF1FF050EF1FF058EF1FF04C
:103EA0000E1E0D1E0C1E0B6C000E0C220D220E227F
:103EB0000BC501F50CC502F50DC503F50EC504F5DE
:103EC00012000501D835D935DF6FDF51D8A46BEF6B
:103ED0001FF06DEF1FF077EF1FF0000ED66F000E92
:103EE000D76F000ED86F000ED96FE4EF1FF0D6C564
:103EF000DAF5D7C5DBF5D8C5DCF5D9C5DDF5200E7B
:103F000087EF1FF0D890DD33DC33DB33DA33E82E74
:103F100082EF1FF0DA51DE6FD88FFF0ED617FF0E3B
:103F2000D717FF0ED817000ED917960EDF5FDFBF29
:103F30009EEF1FF09CEF1FF0B4EF1FF0DF51800ADF
:103F4000970FD8B0A6EF1FF0A8EF1FF0AAEF1FF051
:103F50006DEF1FF0D890D933D833D733D633DF3F46
:103F6000AAEF1FF0CCEF1FF01F0EDF65BAEF1FF0B6
:103F7000BCEF1FF0C4EF1FF06DEF1FF0D890D637E5
:103F8000D737D837D937DF07DF51D8A4CAEF1FF0AA
:103F9000CCEF1FF0BEEF1FF0DE51D8B4D2EF1FF010
:103FA000D4EF1FF0DCEF1FF0D91FD81FD71FD66D3D
:103FB000000ED723D823D923D6C5D6F5D7C5D7F534
:103FC000D8C5D8F5D9C5D9F5120021342234286EC8
:103FD0002850D8A4EEEF1FF0F0EF1FF0FAEF1FF01B
:103FE000000E1F6E000E206E000E216E000E226E5F
:103FF00067EF20F01FC523F520C524F521C525F561
:1040000022C526F5200E0AEF20F0D8902632253260
:1040100024322332E82E05EF20F02350276E218E24
:10402000FF0E1F16FF0E2016FF0E2116000E221681
:10403000960E285E28BE21EF20F01FEF20F037EF0C
:1040400020F02850800A970FD8B029EF20F02BEFEE
:1040500020F02DEF20F0F0EF1FF0D8902232213227
:1040600020321F32283E2DEF20F04FEF20F01F0EA0
:1040700028643DEF20F03FEF20F047EF20F0F0EF15
:104080001FF0D8901F3620362136223628062850B9
:10409000D8A44DEF20F04FEF20F041EF20F0275053
:1040A000D8B455EF20F057EF20F05FEF20F0221E3C
:1040B000211E201E1F6C000E2022212222221FC53D
:1040C0001FF520C520F521C521F522C522F51200D6
:1040D000490E0501B86F990EB96F000EBA6F000E48
:1040E000BB6FE2C5BCF5E3C5BDF5BE6BBF6B54EC61
:1040F0001EF0B8C5E6F5B9C5E7F56A0E0501CA6F49
:104100004D0ECB6F930ECC6FBF0ECD6FE6C5B8F5DD
:10411000E7C5B9F5BA6BBB6B000E5EEC1BF0B8C51A
:10412000C6F5B9C5C7F5BAC5C8F5BBC5C9F55EECD6
:1041300013F0C6C5D6F5C7C5D7F5C8C5D8F5C9C5E6
:10414000D9F561EC1FF0D6C5E6F5D7C5E7F5E0C5B2
:10415000E4F5E1C5E5F50501D890E437E537D890F9
:10416000E437E537E4C5E8F5E5C5E9F5E8C5B8F5B0
:10417000E9C5B9F5000EBB6F640EBA6FF7EC29F014
:10418000B8C5E8F5B9C5E9F5E8C5B8F5E9C5B9F5C3
:10419000E2C5BAF5E3C5BBF5DCEC26F0B8C5E8F539
:1041A000B9C5E9F5E8C5B8F5E9C5B9F50CEC2BF0EA
:1041B000E6C5B8F5E7C5B9F505EC2BF0CDEC2BF06D
:1041C0001200010E0501EA6F000E7BEC25F06BEC8E
:1041D00024F005019105D8A4F0EF20F0F2EF20F0D3
:1041E00017EF21F0010EEA6F1E0E7BEC25F0030E97
:1041F0000501ED6F8A0EEC6F550EE82EFED7EC2F01
:10420000FCD7ED2FFAD700D0010E0501EA6F320E70
:104210007BEC25F0030E0501ED6F8A0EEC6F550E59
:10422000E82EFED7EC2FFCD7ED2FFAD700D06BECA1
:1042300024F0030E05019119D8A421EF21F023EFFA
:1042400021F048EF21F0010EEA6F460E7BEC25F0DD
:10425000030E0501ED6F8A0EEC6F550EE82EFED7AA
:10426000EC2FFCD7ED2FFAD700D0010E0501EA6F35
:10427000640E7BEC25F0020E0501ED6FE70EEC6F8E
:10428000000EE82EFED7EC2FFCD7ED2FFAD700F06A
:104290006BEC24F0020E05019119D8A452EF21F025
:1042A00054EF21F059EF21F0010EEA6F000E7BEC84
:1042B00025F01200490E0501B86F990EB96F000E76
:1042C000BA6F000EBB6FE2C5BCF5E3C5BDF5BE6BB2
:1042D000BF6B54EC1EF0B8C5E6F5B9C5E7F56A0E3C
:1042E0000501CA6F4D0ECB6F930ECC6FBF0ECD6F15
:1042F000E6C5B8F5E7C5B9F5BA6BBB6B000E5EEC69
:104300001BF0B8C5C6F5B9C5C7F5BAC5C8F5BBC574
:10431000C9F55EEC13F0C6C5D6F5C7C5D7F5C8C557
:10432000D8F5C9C5D9F561EC1FF0D6C5E6F5D7C5F6
:10433000E7F5E0C5E4F5E1C5E5F50501D890E4371A
:10434000E537D890E437E537E4C5E8F5E5C5E9F5A4
:10435000E8C5B8F5E9C5B9F5000EBB6F640EBA6FD4
:10436000F7EC29F0B8C5E8F5B9C5E9F5E8C5B8F541
:10437000E9C5B9F5E2C5BAF5E3C5BBF5DCEC26F055
:10438000B8C5E8F5B9C5E9F5E8C5B8F5E9C5B9F5C1
:104390001AEC2BF0E6C5B8F5E7C5B9F513EC2BF030
:1043A000CFEC2BF01200490E016E990E026E000E3A
:1043B000036E000E046E2BC505F52CC506F5076AC5
:1043C000086ADBEC1EF001C52FF502C530F56A0E58
:1043D000136E4D0E146E930E156EBF0E166E2FC516
:1043E00001F530C502F5036A046A000E3AEC1CF0D0
:1043F00001C50FF502C510F503C511F504C512F589
:10440000BFEC15F00FC51FF510C520F511C521F53E
:1044100012C522F5E5EC1FF01FC52FF520C530F5BC
:1044200029C52DF52AC52EF5D8902D362E36D890D3
:104430002D362E362DC531F52EC532F531C501F597
:1044400032C502F5000E046E640E036E4DEC2AF0C8
:1044500001C531F502C532F531C501F532C502F5A8
:104460002BC503F52CC504F58BEC27F001C531F500
:1044700002C532F531C501F532C502F52EEC2BF03F
:104480002FC501F530C502F528EC2BF0D1EC2BF04F
:104490001200490E016E990E026E000E036E000EA0
:1044A000046E2BC505F52CC506F5076A086ADBEC1A
:1044B0001EF001C52FF502C530F56A0E136E4D0EC4
:1044C000146E930E156EBF0E166E2FC501F530C516
:1044D00002F5036A046A000E3AEC1CF001C50FF500
:1044E00002C510F503C511F504C512F5BFEC15F0B2
:1044F0000FC51FF510C520F511C521F512C522F510
:10450000E5EC1FF01FC52FF520C530F529C52DF5A9
:104510002AC52EF5D8902D362E36D8902D362E362B
:104520002DC531F52EC532F531C501F532C502F57F
:10453000000E046E640E036E4DEC2AF001C531F5D9
:1045400002C532F531C501F532C502F52BC503F5BB
:104550002CC504F58BEC27F001C531F502C532F509
:1045600031C501F532C502F53AEC2BF02FC501F546
:1045700030C502F534EC2BF0D3EC2BF01200216E99
:10458000000E1D6E1850E5EC2AF0206E20A0CBEF37
:1045900022F0CDEF22F033EF23F018500C0D580E1F
:1045A000F324D96E010EF420DA6E610078F31EF563
:1045B000610074F31FF51E501F10D8B4E2EF22F013
:1045C000E4EF22F033EF23F01EC50CF51FC50DF507
:1045D00019C50EF51AC50FF51FEC18F018500C0D83
:1045E000510EF324D96E010EF420DA6E000EDB803A
:1045F0002150020DFF0EF324D96E050EF420DA6E61
:10460000DF2A1850CAEC2AF01B6E2150020DFF0E53
:10461000F324D96E050EF420DA6E1B50DE5CD8A0B0
:1046200014EF23F016EF23F020EF23F02150020DBA
:10463000FF0EF324D96E050EF420DA6E000EDF6E45
:1046400020A625EF23F027EF23F031EF23F01850B9
:104650000C0D540EF324D96E010EF420DA6EF70E11
:10466000DF16010E1D6E1D5012000601345135116A
:10467000D8B43DEF23F03FEF23F04BEF23F002D807
:104680004BEF23F00500FA6E3451FD6E3551FE6E8E
:10469000FF6AFA501200C2EC2BF05F2A060E5F1878
:1046A000D8A455EF23F057EF23F05BEF23F0000E73
:1046B0005F6E21EC2BF05E2A0B0E5E18D8A463EF20
:1046C00023F065EF23F069EF23F0000E5E6E9BECA4
:1046D0002AF05D2A650E5D18D8A471EF23F073EF00
:1046E00023F077EF23F0000E5D6ED9EC2BF005017F
:1046F0006E4B6F2B2D0E6E1906E16F05D8A483EF5C
:1047000023F085EF23F08BEF23F0000E6F6F000E88
:104710006E6FD7EC2BF005016C4B6D2B590E6C199D
:1047200007E1020E6D19D8A498EF23F09AEF23F059
:10473000A0EF23F0000E6D6F000E6C6FD8EC2BF025
:104740001200000ECFB4010E016E000ECEB2010EAB
:10475000026E00F00104D8A4B0EF23F0B2EF23F012
:10476000C1EF23F00250D8A4B8EF23F0BAEF23F042
:10477000C1EF23F0010E0501916F94C593F505EF8C
:1047800024F00150D8A4C7EF23F0C9EF23F0D8EFED
:1047900023F00204D8A4CFEF23F0D1EF23F0D8EF19
:1047A00023F0020E0501916F94C592F505EF24F0F8
:1047B0000150D8A4DEEF23F0E0EF23F0EDEF23F07B
:1047C0000250D8A4E6EF23F0E8EF23F0EDEF23F05A
:1047D000030E0501916F05EF24F00104D8A4F3EF57
:1047E00023F0F5EF23F002EF24F00204D8A4FBEF4E
:1047F00023F0FDEF23F002EF24F0040E0501916F8A
:1048000005EF24F0050E0501916F1200000E036EF6
:10481000000E0A6E0A50020DFE0EF324D96E050E2C
:10482000F420DA6EDF50066E0650E5EC2AF0056ED5
:1048300005A01DEF24F01FEF24F060EF24F00650D8
:10484000CAEC2AF0076E05A628EF24F02AEF24F020
:104850002EEF24F007C504F55EEF24F006500C0D92
:10486000550EF324D96E010EF420DA6EDF501F0BC3
:10487000086E0A50020DFF0EF324D96E050EF420C7
:10488000DA6EDF50096E0950085CD8B04AEF24F0A8
:104890004CEF24F052EF24F00950085C0724046E1A
:1048A0005EEF24F00850095CD8B059EF24F05BEFBC
:1048B00024F02AEF24F00950085C046E045003260B
:1048C0000A2A0A50D8B467EF24F069EF24F00AEFFF
:1048D00024F003501200000ECFB4010E0501B86F92
:1048E000000ECEB2010EB96F00F00501B805D8A4D4
:1048F0007CEF24F07EEF24F08CEF24F0B951D8A4A3
:1049000084EF24F086EF24F08CEF24F0010E916FF9
:1049100094C593F5CCEF24F0B851D8A492EF24F0CD
:1049200094EF24F0A2EF24F0B905D8A49AEF24F074
:104930009CEF24F0A2EF24F0020E916F94C592F543
:10494000CCEF24F0B851D8A4A8EF24F0AAEF24F0BB
:10495000B6EF24F0B951D8A4B0EF24F0B2EF24F0B0
:10496000B6EF24F0030E916FCCEF24F0B805D8A475
:10497000BCEF24F0BEEF24F0CAEF24F0B905D8A4B0
:10498000C4EF24F0C6EF24F0CAEF24F0040E916FB8
:10499000CCEF24F0050E916F12006100D8F347F5BB
:1049A0006100DCF348F56100E0F349F56100D4F300
:1049B0004AF5A1AEDEEF24F0E0EF24F0EBEF24F0B7
:1049C000B1AEE5EF24F0E7EF24F0EBEF24F06CEC70
:1049D00029F021EF25F0A1A8F0EF24F0F2EF24F068
:1049E000FDEF24F0B1A8F7EF24F0F9EF24F0FDEF8C
:1049F00024F037EC29F021EF25F09EAC02EF25F0F2
:104A000004EF25F00FEF25F0AEAC09EF25F00BEF2A
:104A100025F00FEF25F014EC1DF021EF25F0A2A8F2
:104A200014EF25F016EF25F021EF25F0B2A81BEFCB
:104A300025F01DEF25F021EF25F00DEC2AF021EFF8
:104A400025F0610028F5F5F4610024F5F8F4610023
:104A500020F5F7F461001CF5F6F41100B3EC2BF02F
:104A6000000E0501E16F000EE06F020EE36F580EBD
:104A7000E26F68EC20F0030E0501EB6F8A0EEA6F1F
:104A8000550EE82EFED7EA2FFCD7EB2FFAD700D031
:104A9000000E0501E16F640EE06F020EE36F580E29
:104AA000E26F68EC20F00D0E0501EB6FAF0EEA6FC0
:104AB000B60EE82EFED7EA2FFCD7EB2FFAD700F080
:104AC000B8EC2BF0030E0501EB6F8A0EEA6F550E62
:104AD000E82EFED7EA2FFCD7EB2FFAD700D0000E36
:104AE0000501E16F000EE06F020EE36F580EE26FFA
:104AF00068EC20F012000501EB6F05019505D8A4C4
:104B000084EF25F086EF25F0BDEF25F0EB513C0D4D
:104B10006100CCF360F56100D0F361F560C5B8F5D4
:104B200061C5B9F5000EBB6F640EBA6FDCEC26F000
:104B3000B8C560F5B9C561F505016051606F616B7D
:104B40005950EA19D8A4A7EF25F0A9EF25F0C7EF2F
:104B500025F0040E9161AFEF25F0B1EF25F0C7EF1E
:104B600025F060C5E0F561C5E1F5010EE36F2C0E9F
:104B7000E26F5AEC21F0C7EF25F0000EE16F000E56
:104B8000E06F010EE36F2C0EE26F5AEC21F0120081
:104B90000501BA6F000E0501B96F6DEC2BF0050130
:104BA000B86F040EB819D8B4D8EF25F0DAEF25F0B5
:104BB000EBEF25F0BA05D8B4E0EF25F0E2EF25F0F1
:104BC000EBEF25F0040EBA19D8A4E9EF25F0EBEFCE
:104BD00025F010EF26F0010103510501BA19F80B79
:104BE000BA190101036F02EF26F001011DA9FBEFC5
:104BF00025F0FDEF25F002EF26F0020E0501B96F5A
:104C000012EF26F00239E832070B0501BA19D8A4D1
:104C10000CEF26F00EEF26F0F5EF25F012EF26F060
:104C2000010EB96FB9511200346E05019505D8A473
:104C30001CEF26F01EEF26F055EF26F034503C0D09
:104C40006100CCF360F56100D0F361F560C501F55A
:104C500061C502F5000E046E640E036E8BEC27F046
:104C600001C560F502C561F505016051606F616BBA
:104C700059503318D8A43FEF26F041EF26F05FEFEC
:104C800026F0040E916147EF26F049EF26F05FEF22
:104C900026F060C529F561C52AF5010E2C6E2C0E93
:104CA0002B6ED3EC21F05FEF26F0000E2A6E000E83
:104CB000296E010E2C6E2C0E2B6ED3EC21F01200FF
:104CC000000EBE6E000EBF6E000EC06E080ECA6EE5
:104CD000DE0EC66ECC0EC76E070EC86EE70E040160
:104CE000106F730E086FFD0E006F000E216F000E27
:104CF000096F000E016F000E116F000E026F000EA3
:104D00000A6F180E126F03690B69136904690C6945
:104D10001469080E246F0F0E0201696F140E706F74
:104D20001A0E0A6F370E146F180E096F380E156FB2
:104D30000B0E3D6F460E0D6F130E716F1200C00EFD
:104D40000501B86F570EB96F86EC2BF0C20E050146
:104D5000B86F570EB96F8BEC2BF0C40E0501B86F0E
:104D6000570EB96F90EC2BF0BE0E0501B86F570EC1
:104D7000B96F81EC2BF0BA0E0501B86F570EB96F01
:104D800077EC2BF0B80E0501B86F570EB96F72ECC7
:104D90002BF0BC0E0501B86F570EB96F7CEC2BF0F1
:104DA000AE9C000E01011C6F000E1D6F0A0E1E6FDF
:104DB000FC0E1F6F9E8C1200000E0501BD6F000ED1
:104DC000BC6FBA51BB11D8B4E8EF26F0EAEF26F079
:104DD00012EF27F0010EBE6FF2EF26F0D890BA372F
:104DE000BB37BE2BBBAFF7EF26F0F9EF26F0EEEFA7
:104DF00026F0D890BC37BD37BA51B85DBB51B95910
:104E0000D8A005EF27F007EF27F00CEF27F0BA51F5
:104E1000B85FBB51B95BBC81D890BB33BA33BE2FEE
:104E2000F9EF26F0BCC5B8F5BDC5B9F51200000E06
:104E30006F6E020E706E000E716E3D0E726E000E81
:104E4000736EFE0E746E000E756E000E766E000EA2
:104E5000776E000E796E1F0E7A6E000E7B6E1F0E3F
:104E60007C6E000E7D6EB39CB39E76907692A39E70
:104E7000A39C000E0501B86F000EB96F4FEC2BF02C
:104E8000000E0501B86F000EB96F4AEC2BF0000E52
:104E90000501B86F000EB96F54EC2BF0800E786EE0
:104EA0001200000E606E020E616E000E626E3D0E0C
:104EB000636E000E646EFE0E656E000E666E000E72
:104EC000676E000E686E000E6A6E1F0E6B6E000E2F
:104ED0006C6E1F0E6D6E000E6E6EB29CB29E679071
:104EE0006792A29EA29C000E0501B86F000EB96FDA
:104EF0005EEC2BF0000E0501B86F000EB96F59EC97
:104F00002BF0000E0501B86F000EB96F63EC2BF0AB
:104F1000800E696E1200000E066E000E056E0350C4
:104F20000410D8B496EF27F098EF27F0C0EF27F0E1
:104F3000010E076EA0EF27F0D89003360436072A3B
:104F400004AEA5EF27F0A7EF27F09CEF27F0D8904D
:104F5000053606360350015C04500258D8A0B3EF62
:104F600027F0B5EF27F0BAEF27F00350015E0450A9
:104F7000025A0580D89004320332072EA7EF27F09B
:104F800005C501F506C502F51200346E050195054B
:104F9000D8A4CDEF27F0CFEF27F0F3EF27F034C5FB
:104FA0004BF54C6A59503318D8A4D9EF27F0DBEFF2
:104FB00027F0FDEF27F03304D8A4E1EF27F0E3EF6B
:104FC00027F0F1EF27F0220E4B24296E000E4C2023
:104FD0002A6E010E2C6E2C0E2B6E49EC22F0FDEF8A
:104FE00027F0FDEF27F0000E2A6E000E296E020E4C
:104FF0002C6E580E2B6E49EC22F012000101018F2D
:10500000040EC8EC25F00009D8A409EF28F00BEF36
:1050100028F02BEF28F0000E01014C6F260E4D6F8B
:10502000000E4E6F000E4F6F600E006F970E016FF7
:10503000100E026FFBEC2AF0F1EC2AF023EC2AF0C0
:105040008AEC2AF09CEC29F09FEC26F0060EC8ECC6
:1050500025F0C79ABF9A120003C509F504C50AF5E1
:1050600001C507F502C508F54BEF28F0610024F4EF
:10507000D9F4610028F4DAF4DF500B6E094A0A2AE9
:1050800061001CF4D9F4610020F4DAF461002CF41E
:10509000DFF4074A082A0506D8A00606052806E117
:1050A0000628D8A456EF28F058EF28F036EF28F05D
:1050B0001200AA0EF66E570EF76E000EF86E09007B
:1050C0006100D4F3FEF509006100D4F3FFF501EEB1
:1050D00000F2340EEE6AE806FDE101EE60F1580ED2
:1050E000EE6AE806FDE101EE4BF1150EEE6AE80608
:1050F000FDE10401080E5D6F000E5E6F000E5F6F34
:105100000001ACEF2AF0000E256E2550020DFE0EB8
:10511000F324D96E050EF420DA6EDF50186E22C526
:1051200019F523C51AF52550BFEC22F0246E245042
:10513000D8B49DEF28F09FEF28F0A1EF28F0AAEF58
:1051400028F0252A2550D8B4A8EF28F0AAEF28F097
:1051500085EF28F02450120000F05C04D8A4B3EFCF
:1051600028F0B5EF28F0BAEF28F0010E0501956F91
:10517000D1EF28F0000E0501956F000E2A6E000E8B
:10518000296E010E2C6E2C0E2B6ED3EC21F0000E2E
:105190002A6E000E296E020E2C6E580E2B6E49ECF4
:1051A00022F01200000E03011F6F000E206F010E8F
:1051B000216F850E1D6FEE0E1C6FB1981C516000A3
:1051C00074FCBAF50501BB6BBAC5BBF5BA6BBA1175
:1051D000EE6FBB51EF6FA188AC0EB86F570EB96F71
:1051E00040EC2BF0310E03011E6F1200036E02EF34
:1051F00029F0BE8A17EF29F0BE9A17EF29F0BE9A60
:1052000017EF29F00350016E026A0250000AD8B469
:105210000CEF29F0FFEF28F00150000AD8B4FCEFA2
:1052200028F0010AD8B4F9EF28F0FFEF28F01200B7
:10523000C690C784C682C69AC89AC89CC89EC79A98
:10524000000E0501E16F000EE06F010EE36F2C0E02
:10525000E26F5AEC21F0000E0501E16F000EE06FE5
:10526000020EE36F580EE26F68EC20F01200B19866
:10527000EEC501F5EFC502F5B3EC29F005016A4B67
:105280006B2B6B5109E1050E6A5DD8A04AEF29F03E
:105290004CEF29F050EF29F0000E6B6F000E6A6F93
:1052A00035EC23F01200056E610014F4ECF30301F9
:1052B000F38FF39DF381F3B160EF29F062EF29F0F2
:1052C0005BEF29F0EB51046E036AEA510324016E8F
:1052D000000E0420026E1200B19E0501704B712B6E
:1052E000715109E10A0E705DD8A079EF29F07BEFCA
:1052F00029F082EF29F0CAEC29F0000E0501716F48
:10530000000E706FDBEC2BF01200CBEC2BF076EC88
:105310002AF0E1EC29F03FEC19F060EC26F0D9EC32
:105320002AF0D2EC28F062EC2AF017EC27F0FEEC21
:1053300027F051EC27F01200000E0501B86FB851AC
:10534000020DFF0EF324D96E050EF420DA6E000E66
:10535000DF6EB82BB851D8B4B0EF29F0B2EF29F016
:105360009FEF29F0120003011EA5B9EF29F0BBEF52
:1053700029F0C4EF29F01E9102501D6F610004F462
:105380001CF31E81C9EF29F002501D6F610004F467
:105390001CF31200060136513711D8B4D2EF29F0B0
:1053A000D4EF29F0E0EF29F002D8E0EF29F0050072
:1053B000FA6E3651FD6E3751FE6EFF6AFA501200DA
:1053C0001200040E0201946F800E956F180E966FF6
:1053D000030E9E6F000E9A6F000E9B6F000E976F6C
:1053E000000E8C6F000E8D6F000E9D6F1200050178
:1053F000B851BA036100CCF3BCF56100D0F3BDF540
:10540000B851BB03F350BD27B951BA03F350BD27C0
:10541000BCC5B8F5BDC5B9F51200010160A113EF17
:105420002AF015EF2AF022EF2AF002D822EF2AF014
:105430000500FA6E05018651FD6E8751FE6EFF6A0A
:10544000FA5012001200190E01015C6F040E5D6F1C
:10545000600E5E6F050E5F6F900E0501B86F570E00
:10546000B96F68EC2BF001011E83B298A28812007C
:10547000010EBFEC1DF00650536E020EBFEC1DF086
:105480000650526E030EBFEC1DF00650516E040E16
:10549000BFEC1DF00650506E120001500302610077
:1054A000CCF305F56100D0F306F501500402F3508A
:1054B000062602500302F350062605C501F506C56F
:1054C00002F51200480E03011B6F610E196F000EEA
:1054D000186FB19EA18EB40E0501B86F570EB96F4B
:1054E00045EC2BF0800E03011A6F1200000E000134
:1054F000606F000E616F000E626F000E636F000E32
:10550000646F000E656F000E666F000E676F000E11
:10551000686F12005F0E0101946F95699669976933
:10552000000E986F000E996F000E9A6F000E9B6F21
:10553000810E816F1200BEB0A0EF2AF0A3EF2AF017
:10554000010EA4EF2AF0000EFF0A016EBE500118F2
:10555000FE0B0118BE6E120085EC29F0D68EBBEC56
:105560002AF018EC29F02EEC25F0E1EC20F0B7EF52
:105570002AF00DEF00F0000E0501E16F000EE06F64
:10558000000EE36F320EE26F5AEC21F0000E0501BF
:10559000916F1200026E02500C0D530EF324D96E5F
:1055A000010EF420DA6EDF50016E1F0E0116012885
:1055B0001200700E0001AD6F000EAF6F000EB36FE2
:1055C000020EB16F000EB06F1200016E01500C0D93
:1055D000540EF324D96E010EF420DA6EDF50090B5D
:1055E0001200100E0101506F040E516F610E526FC8
:1055F000050E536F1200010E0101046F010E056FBD
:10560000060E066F000E076F12006100E0F672F4DE
:105610000501B951736E12006100E0F67AF40501DC
:10562000B9517B6E12006100E0F663F40501B951D7
:10563000646E12006100E0F66BF40501B9516C6E06
:105640001200A1EC23F0ACEC28F0000E5C6E12000E
:10565000610004F463F40250646E1200610004F40B
:105660006BF402506C6E1200610004F472F402508C
:10567000736E1200610004F47AF402507B6E120023
:10568000B8C534F6B9C535F61200B8C536F6B9C591
:1056900037F61200B8C5FAF5B9C5FBF51200B8C562
:1056A000FCF5B9C5FDF51200B8C5F8F5B9C5F9F5B1
:1056B0001200B8C574F5B9C575F51200B8C576F510
:1056C000B9C577F51200B8C572F5B9C573F5120002
:1056D000B8C586F5B9C587F5120001010239E8326F
:1056E000070B1200B8C57AF5B9C57BF51200B8C52D
:1056F0007CF5B9C57DF51200B8C578F5B9C579F561
:105700001200B8C57EF5B9C57FF51200B8C584F59D
:10571000B9C585F51200B8C582F5B9C583F5120083
:10572000B8C580F5B9C581F51200B8C53AF6B9C556
:105730003BF61200B8C5F0F5B9C5F1F51200B8C5D1
:10574000F2F5B9C5F3F51200B8C5F4F5B9C5F5F52C
:105750001200B8C538F6B9C539F61200B8C5F6F565
:10576000B9C5F7F5120051C557F550C555F51200EA
:1057700051C556F550C554F51200016E610004F490
:10578000FBF3120038EC2AF012000301F39B120025
:1057900052EC1AF01200D69A120078841200698432
:1057A00012006984120078841200010012001200B5
:1057B0001200120012001200120012001200120059
:0657C000120012001200AD
:020000040020DA
:10000000FF0FFF0FFF0FFF0FFF0FFF0FFF0FFF0F80
:10001000FF0FFF0FFF0FFF0FFF0FFF0FFF0FFF0F70
:020000040030CA
:10000000FAEFF7DF9FFFFFFFFFFFFFFFFFFFFFFF9D
:10001000FFFFFFFFFFFFFFFFFFFFFFFFFFFFFFFFF0
:04002000FFFFFFFFE0
:00000001FF
